{
  "_format": "hh-sol-artifact-1",
  "contractName": "BasicMechanism",
  "sourceName": "contracts/BasicMechanism.sol",
  "abi": [
    {
      "inputs": [
        {
          "internalType": "address",
          "name": "priceFeedAddress",
          "type": "address"
        },
        {
          "internalType": "address",
          "name": "escrowAddress",
          "type": "address"
        },
        {
          "internalType": "address",
          "name": "handlingAddresses",
          "type": "address"
        }
      ],
      "stateMutability": "nonpayable",
      "type": "constructor"
    },
    {
      "inputs": [],
      "name": "AccessControlBadConfirmation",
      "type": "error"
    },
    {
      "inputs": [
        {
          "internalType": "address",
          "name": "account",
          "type": "address"
        },
        {
          "internalType": "bytes32",
          "name": "neededRole",
          "type": "bytes32"
        }
      ],
      "name": "AccessControlUnauthorizedAccount",
      "type": "error"
    },
    {
      "inputs": [
        {
          "internalType": "string",
          "name": "role",
          "type": "string"
        },
        {
          "internalType": "address",
          "name": "account",
          "type": "address"
        }
      ],
      "name": "AddressAlreadyExists",
      "type": "error"
    },
    {
      "inputs": [
        {
          "internalType": "address",
          "name": "account",
          "type": "address"
        }
      ],
      "name": "AddressInvalid",
      "type": "error"
    },
    {
      "inputs": [
        {
          "internalType": "uint256",
          "name": "_usdAmount",
          "type": "uint256"
        }
      ],
      "name": "InvalidAmount",
      "type": "error"
    },
    {
      "anonymous": false,
      "inputs": [
        {
          "indexed": false,
          "internalType": "address",
          "name": "account",
          "type": "address"
        }
      ],
      "name": "AddressFrozen",
      "type": "event"
    },
    {
      "anonymous": false,
      "inputs": [
        {
          "indexed": false,
          "internalType": "address",
          "name": "account",
          "type": "address"
        }
      ],
      "name": "AddressUnfrozen",
      "type": "event"
    },
    {
      "anonymous": false,
      "inputs": [
        {
          "indexed": true,
          "internalType": "bytes32",
          "name": "batchId",
          "type": "bytes32"
        },
        {
          "indexed": false,
          "internalType": "uint256",
          "name": "timestamp",
          "type": "uint256"
        }
      ],
      "name": "BatchCreated",
      "type": "event"
    },
    {
      "anonymous": false,
      "inputs": [
        {
          "indexed": true,
          "internalType": "bytes32",
          "name": "batchId",
          "type": "bytes32"
        },
        {
          "indexed": false,
          "internalType": "address",
          "name": "distributor",
          "type": "address"
        },
        {
          "indexed": false,
          "internalType": "enum DrugSupplyChain.BatchStatus",
          "name": "statusEnum",
          "type": "uint8"
        },
        {
          "indexed": false,
          "internalType": "uint256",
          "name": "price",
          "type": "uint256"
        },
        {
          "indexed": false,
          "internalType": "uint256",
          "name": "timestamp",
          "type": "uint256"
        }
      ],
      "name": "DistributerPurchased",
      "type": "event"
    },
    {
      "anonymous": false,
      "inputs": [
        {
          "indexed": true,
          "internalType": "bytes32",
          "name": "batchId",
          "type": "bytes32"
        },
        {
          "indexed": false,
          "internalType": "enum DrugSupplyChain.BatchStatus",
          "name": "statusEnum",
          "type": "uint8"
        },
        {
          "indexed": true,
          "internalType": "address",
          "name": "distributor",
          "type": "address"
        },
        {
          "indexed": false,
          "internalType": "uint256",
          "name": "price",
          "type": "uint256"
        },
        {
          "indexed": false,
          "internalType": "uint256",
          "name": "timestamp",
          "type": "uint256"
        },
        {
          "indexed": false,
          "internalType": "string",
          "name": "reason",
          "type": "string"
        }
      ],
      "name": "EligibleForResell",
      "type": "event"
    },
    {
      "anonymous": false,
      "inputs": [
        {
          "indexed": true,
          "internalType": "bytes32",
          "name": "batchId",
          "type": "bytes32"
        },
        {
          "indexed": true,
          "internalType": "address",
          "name": "to",
          "type": "address"
        },
        {
          "indexed": true,
          "internalType": "uint256",
          "name": "timestamp",
          "type": "uint256"
        },
        {
          "indexed": false,
          "internalType": "bool",
          "name": "refunded",
          "type": "bool"
        },
        {
          "indexed": false,
          "internalType": "string",
          "name": "reason",
          "type": "string"
        }
      ],
      "name": "Refunded",
      "type": "event"
    },
    {
      "anonymous": false,
      "inputs": [
        {
          "indexed": true,
          "internalType": "bytes32",
          "name": "batchId",
          "type": "bytes32"
        },
        {
          "indexed": true,
          "internalType": "address",
          "name": "requester",
          "type": "address"
        },
        {
          "indexed": true,
          "internalType": "uint256",
          "name": "timestamp",
          "type": "uint256"
        },
        {
          "indexed": false,
          "internalType": "bool",
          "name": "approved",
          "type": "bool"
        },
        {
          "indexed": false,
          "internalType": "string",
          "name": "reason",
          "type": "string"
        }
      ],
      "name": "RequestApproved",
      "type": "event"
    },
    {
      "anonymous": false,
      "inputs": [
        {
          "indexed": true,
          "internalType": "bytes32",
          "name": "batchId",
          "type": "bytes32"
        },
        {
          "indexed": false,
          "internalType": "enum DrugSupplyChain.BatchStatus",
          "name": "statusEnum",
          "type": "uint8"
        },
        {
          "indexed": true,
          "internalType": "address",
          "name": "distributor",
          "type": "address"
        },
        {
          "indexed": false,
          "internalType": "uint256",
          "name": "price",
          "type": "uint256"
        },
        {
          "indexed": false,
          "internalType": "uint256",
          "name": "timestamp",
          "type": "uint256"
        }
      ],
      "name": "ResellingDone",
      "type": "event"
    },
    {
      "anonymous": false,
      "inputs": [
        {
          "indexed": true,
          "internalType": "bytes32",
          "name": "batchId",
          "type": "bytes32"
        },
        {
          "indexed": false,
          "internalType": "address",
          "name": "retailer",
          "type": "address"
        },
        {
          "indexed": false,
          "internalType": "enum DrugSupplyChain.BatchStatus",
          "name": "statusEnum",
          "type": "uint8"
        },
        {
          "indexed": false,
          "internalType": "uint256",
          "name": "price",
          "type": "uint256"
        },
        {
          "indexed": false,
          "internalType": "uint256",
          "name": "timestamp",
          "type": "uint256"
        }
      ],
      "name": "RetailerPurchased",
      "type": "event"
    },
    {
      "anonymous": false,
      "inputs": [
        {
          "indexed": true,
          "internalType": "bytes32",
          "name": "batchId",
          "type": "bytes32"
        },
        {
          "indexed": true,
          "internalType": "uint256",
          "name": "timestamp",
          "type": "uint256"
        },
        {
          "indexed": true,
          "internalType": "address",
          "name": "requester",
          "type": "address"
        },
        {
          "indexed": false,
          "internalType": "bool",
          "name": "approved",
          "type": "bool"
        },
        {
          "indexed": false,
          "internalType": "bool",
          "name": "refunded",
          "type": "bool"
        },
        {
          "indexed": false,
          "internalType": "string",
          "name": "reason",
          "type": "string"
        }
      ],
      "name": "ReturnRequested",
      "type": "event"
    },
    {
      "anonymous": false,
      "inputs": [
        {
          "indexed": true,
          "internalType": "bytes32",
          "name": "role",
          "type": "bytes32"
        },
        {
          "indexed": true,
          "internalType": "bytes32",
          "name": "previousAdminRole",
          "type": "bytes32"
        },
        {
          "indexed": true,
          "internalType": "bytes32",
          "name": "newAdminRole",
          "type": "bytes32"
        }
      ],
      "name": "RoleAdminChanged",
      "type": "event"
    },
    {
      "anonymous": false,
      "inputs": [
        {
          "indexed": true,
          "internalType": "bytes32",
          "name": "role",
          "type": "bytes32"
        },
        {
          "indexed": true,
          "internalType": "address",
          "name": "account",
          "type": "address"
        },
        {
          "indexed": true,
          "internalType": "address",
          "name": "sender",
          "type": "address"
        }
      ],
      "name": "RoleGranted",
      "type": "event"
    },
    {
      "anonymous": false,
      "inputs": [
        {
          "indexed": true,
          "internalType": "bytes32",
          "name": "role",
          "type": "bytes32"
        },
        {
          "indexed": true,
          "internalType": "address",
          "name": "account",
          "type": "address"
        },
        {
          "indexed": true,
          "internalType": "address",
          "name": "sender",
          "type": "address"
        }
      ],
      "name": "RoleRevoked",
      "type": "event"
    },
    {
      "inputs": [],
      "name": "DEFAULT_ADMIN_ROLE",
      "outputs": [
        {
          "internalType": "bytes32",
          "name": "",
          "type": "bytes32"
        }
      ],
      "stateMutability": "view",
      "type": "function"
    },
    {
      "inputs": [],
      "name": "DISTRIBUTOR_ROLE",
      "outputs": [
        {
          "internalType": "bytes32",
          "name": "",
          "type": "bytes32"
        }
      ],
      "stateMutability": "view",
      "type": "function"
    },
    {
      "inputs": [],
      "name": "MANUFACTURER_ROLE",
      "outputs": [
        {
          "internalType": "bytes32",
          "name": "",
          "type": "bytes32"
        }
      ],
      "stateMutability": "view",
      "type": "function"
    },
    {
      "inputs": [],
      "name": "RETAILER_ROLE",
      "outputs": [
        {
          "internalType": "bytes32",
          "name": "",
          "type": "bytes32"
        }
      ],
      "stateMutability": "view",
      "type": "function"
    },
    {
      "inputs": [
        {
          "internalType": "address",
          "name": "distributor",
          "type": "address"
        }
      ],
      "name": "addDistributor",
      "outputs": [],
      "stateMutability": "nonpayable",
      "type": "function"
    },
    {
      "inputs": [
        {
          "internalType": "address",
          "name": "manufacturer",
          "type": "address"
        }
      ],
      "name": "addManufacturer",
      "outputs": [],
      "stateMutability": "nonpayable",
      "type": "function"
    },
    {
      "inputs": [
        {
          "internalType": "address",
          "name": "retailer",
          "type": "address"
        }
      ],
      "name": "addRetailer",
      "outputs": [],
      "stateMutability": "nonpayable",
      "type": "function"
    },
    {
      "inputs": [],
      "name": "batchCount",
      "outputs": [
        {
          "internalType": "uint256",
          "name": "",
          "type": "uint256"
        }
      ],
      "stateMutability": "view",
      "type": "function"
    },
    {
      "inputs": [
        {
          "internalType": "address",
          "name": "",
          "type": "address"
        }
      ],
      "name": "batchCounter",
      "outputs": [
        {
          "internalType": "uint256",
          "name": "",
          "type": "uint256"
        }
      ],
      "stateMutability": "view",
      "type": "function"
    },
    {
      "inputs": [
        {
          "internalType": "bytes32",
          "name": "",
          "type": "bytes32"
        }
      ],
      "name": "batchIdToBatch",
      "outputs": [
        {
          "internalType": "bytes32",
          "name": "batchId",
          "type": "bytes32"
        },
        {
          "internalType": "address",
          "name": "manufacturer",
          "type": "address"
        },
        {
          "internalType": "address",
          "name": "distributor",
          "type": "address"
        },
        {
          "internalType": "address",
          "name": "retailer",
          "type": "address"
        },
        {
          "internalType": "uint256",
          "name": "expiryDate",
          "type": "uint256"
        },
        {
          "internalType": "uint256",
          "name": "timestamp",
          "type": "uint256"
        },
        {
          "internalType": "uint256",
          "name": "price",
          "type": "uint256"
        },
        {
          "internalType": "uint256",
          "name": "productPrice",
          "type": "uint256"
        },
        {
          "internalType": "enum DrugSupplyChain.BatchStatus",
          "name": "statusEnum",
          "type": "uint8"
        },
        {
          "internalType": "address",
          "name": "ipfsHash",
          "type": "address"
        }
      ],
      "stateMutability": "view",
      "type": "function"
    },
    {
      "inputs": [
        {
          "internalType": "bytes32",
          "name": "_batchId",
          "type": "bytes32"
        }
      ],
      "name": "batchReceivedDistributor",
      "outputs": [],
      "stateMutability": "nonpayable",
      "type": "function"
    },
    {
      "inputs": [
        {
          "internalType": "bytes32",
          "name": "_batchId",
          "type": "bytes32"
        }
      ],
      "name": "batchReceivedRetailer",
      "outputs": [],
      "stateMutability": "payable",
      "type": "function"
    },
    {
      "inputs": [
        {
          "internalType": "bytes32",
          "name": "_batchId",
          "type": "bytes32"
        },
        {
          "internalType": "uint256",
          "name": "_productPrice",
          "type": "uint256"
        }
      ],
      "name": "buyBatchDistributor",
      "outputs": [],
      "stateMutability": "payable",
      "type": "function"
    },
    {
      "inputs": [
        {
          "internalType": "bytes32",
          "name": "_batchId",
          "type": "bytes32"
        }
      ],
      "name": "buyBatchRetailer",
      "outputs": [],
      "stateMutability": "payable",
      "type": "function"
    },
    {
      "inputs": [
        {
          "internalType": "address",
          "name": "manufacturer",
          "type": "address"
        },
        {
          "internalType": "uint256",
          "name": "expiryDate",
          "type": "uint256"
        },
        {
          "internalType": "uint256",
          "name": "price",
          "type": "uint256"
        },
        {
          "internalType": "address",
          "name": "ipfsHash",
          "type": "address"
        }
      ],
      "name": "createBatch",
      "outputs": [],
      "stateMutability": "nonpayable",
      "type": "function"
    },
    {
      "inputs": [],
      "name": "dataFeed",
      "outputs": [
        {
          "internalType": "contract AggregatorV3Interface",
          "name": "",
          "type": "address"
        }
      ],
      "stateMutability": "view",
      "type": "function"
    },
    {
      "inputs": [],
      "name": "escrowContract",
      "outputs": [
        {
          "internalType": "contract Escrow",
          "name": "",
          "type": "address"
        }
      ],
      "stateMutability": "view",
      "type": "function"
    },
    {
      "inputs": [
        {
          "internalType": "address",
          "name": "account",
          "type": "address"
        }
      ],
      "name": "frozeAddress",
      "outputs": [],
      "stateMutability": "nonpayable",
      "type": "function"
    },
    {
      "inputs": [
        {
          "internalType": "bytes32",
          "name": "_batchId",
          "type": "bytes32"
        }
      ],
      "name": "getBatchDetails",
      "outputs": [
        {
          "components": [
            {
              "internalType": "bytes32",
              "name": "batchId",
              "type": "bytes32"
            },
            {
              "internalType": "address",
              "name": "manufacturer",
              "type": "address"
            },
            {
              "internalType": "address",
              "name": "distributor",
              "type": "address"
            },
            {
              "internalType": "address",
              "name": "retailer",
              "type": "address"
            },
            {
              "internalType": "uint256",
              "name": "expiryDate",
              "type": "uint256"
            },
            {
              "internalType": "uint256",
              "name": "timestamp",
              "type": "uint256"
            },
            {
              "internalType": "uint256",
              "name": "price",
              "type": "uint256"
            },
            {
              "internalType": "uint256",
              "name": "productPrice",
              "type": "uint256"
            },
            {
              "internalType": "enum DrugSupplyChain.BatchStatus",
              "name": "statusEnum",
              "type": "uint8"
            },
            {
              "internalType": "address",
              "name": "ipfsHash",
              "type": "address"
            }
          ],
          "internalType": "struct DrugSupplyChain.Batch",
          "name": "",
          "type": "tuple"
        }
      ],
      "stateMutability": "view",
      "type": "function"
    },
    {
      "inputs": [
        {
          "internalType": "bytes32",
          "name": "_batchId",
          "type": "bytes32"
        }
      ],
      "name": "getIpfsHash",
      "outputs": [
        {
          "internalType": "address",
          "name": "",
          "type": "address"
        }
      ],
      "stateMutability": "view",
      "type": "function"
    },
    {
      "inputs": [
        {
          "internalType": "bytes32",
          "name": "role",
          "type": "bytes32"
        }
      ],
      "name": "getRoleAdmin",
      "outputs": [
        {
          "internalType": "bytes32",
          "name": "",
          "type": "bytes32"
        }
      ],
      "stateMutability": "view",
      "type": "function"
    },
    {
      "inputs": [
        {
          "internalType": "bytes32",
          "name": "role",
          "type": "bytes32"
        },
        {
          "internalType": "address",
          "name": "account",
          "type": "address"
        }
      ],
      "name": "grantRole",
      "outputs": [],
      "stateMutability": "nonpayable",
      "type": "function"
    },
    {
      "inputs": [],
      "name": "handlingAddresses",
      "outputs": [
        {
          "internalType": "contract HandlingAddresses",
          "name": "",
          "type": "address"
        }
      ],
      "stateMutability": "view",
      "type": "function"
    },
    {
      "inputs": [
        {
          "internalType": "bytes32",
          "name": "role",
          "type": "bytes32"
        },
        {
          "internalType": "address",
          "name": "account",
          "type": "address"
        }
      ],
      "name": "hasRole",
      "outputs": [
        {
          "internalType": "bool",
          "name": "",
          "type": "bool"
        }
      ],
      "stateMutability": "view",
      "type": "function"
    },
    {
      "inputs": [
        {
          "internalType": "address",
          "name": "",
          "type": "address"
        }
      ],
      "name": "isFrozen",
      "outputs": [
        {
          "internalType": "bool",
          "name": "",
          "type": "bool"
        }
      ],
      "stateMutability": "view",
      "type": "function"
    },
    {
      "inputs": [],
      "name": "owner",
      "outputs": [
        {
          "internalType": "address",
          "name": "",
          "type": "address"
        }
      ],
      "stateMutability": "view",
      "type": "function"
    },
    {
      "inputs": [
        {
          "internalType": "uint256",
          "name": "",
          "type": "uint256"
        }
      ],
      "name": "pendingRequests",
      "outputs": [
        {
          "internalType": "bytes32",
          "name": "batchId",
          "type": "bytes32"
        },
        {
          "internalType": "uint256",
          "name": "timestamp",
          "type": "uint256"
        },
        {
          "internalType": "address",
          "name": "requester",
          "type": "address"
        },
        {
          "internalType": "bool",
          "name": "refunded",
          "type": "bool"
        },
        {
          "internalType": "bool",
          "name": "approved",
          "type": "bool"
        },
        {
          "internalType": "string",
          "name": "reason",
          "type": "string"
        }
      ],
      "stateMutability": "view",
      "type": "function"
    },
    {
      "inputs": [
        {
          "internalType": "address",
          "name": "distributor",
          "type": "address"
        }
      ],
      "name": "removeDistributor",
      "outputs": [],
      "stateMutability": "nonpayable",
      "type": "function"
    },
    {
      "inputs": [
        {
          "internalType": "address",
          "name": "manufacturer",
          "type": "address"
        }
      ],
      "name": "removeManufacturer",
      "outputs": [],
      "stateMutability": "nonpayable",
      "type": "function"
    },
    {
      "inputs": [
        {
          "internalType": "address",
          "name": "retailer",
          "type": "address"
        }
      ],
      "name": "removeRetailer",
      "outputs": [],
      "stateMutability": "nonpayable",
      "type": "function"
    },
    {
      "inputs": [
        {
          "internalType": "bytes32",
          "name": "role",
          "type": "bytes32"
        },
        {
          "internalType": "address",
          "name": "callerConfirmation",
          "type": "address"
        }
      ],
      "name": "renounceRole",
      "outputs": [],
      "stateMutability": "nonpayable",
      "type": "function"
    },
    {
      "inputs": [
        {
          "internalType": "bytes32",
          "name": "",
          "type": "bytes32"
        }
      ],
      "name": "returnRequests",
      "outputs": [
        {
          "internalType": "bytes32",
          "name": "batchId",
          "type": "bytes32"
        },
        {
          "internalType": "uint256",
          "name": "timestamp",
          "type": "uint256"
        },
        {
          "internalType": "address",
          "name": "requester",
          "type": "address"
        },
        {
          "internalType": "bool",
          "name": "refunded",
          "type": "bool"
        },
        {
          "internalType": "bool",
          "name": "approved",
          "type": "bool"
        },
        {
          "internalType": "string",
          "name": "reason",
          "type": "string"
        }
      ],
      "stateMutability": "view",
      "type": "function"
    },
    {
      "inputs": [
        {
          "internalType": "bytes32",
          "name": "role",
          "type": "bytes32"
        },
        {
          "internalType": "address",
          "name": "account",
          "type": "address"
        }
      ],
      "name": "revokeRole",
      "outputs": [],
      "stateMutability": "nonpayable",
      "type": "function"
    },
    {
      "inputs": [
        {
          "internalType": "bytes4",
          "name": "interfaceId",
          "type": "bytes4"
        }
      ],
      "name": "supportsInterface",
      "outputs": [
        {
          "internalType": "bool",
          "name": "",
          "type": "bool"
        }
      ],
      "stateMutability": "view",
      "type": "function"
    },
    {
      "inputs": [
        {
          "internalType": "address",
          "name": "account",
          "type": "address"
        }
      ],
      "name": "unfreezeAddress",
      "outputs": [],
      "stateMutability": "nonpayable",
      "type": "function"
    },
    {
      "inputs": [],
      "name": "withdraw",
      "outputs": [],
      "stateMutability": "nonpayable",
      "type": "function"
    }
  ],
  "bytecode": "0x608060405234801561001057600080fd5b506040516152b33803806152b38339818101604052810190610032919061032a565b8282826100486000801b3361015860201b60201c565b5033600a60006101000a81548173ffffffffffffffffffffffffffffffffffffffff021916908373ffffffffffffffffffffffffffffffffffffffff16021790555081600860006101000a81548173ffffffffffffffffffffffffffffffffffffffff021916908373ffffffffffffffffffffffffffffffffffffffff16021790555082600760006101000a81548173ffffffffffffffffffffffffffffffffffffffff021916908373ffffffffffffffffffffffffffffffffffffffff16021790555080600960006101000a81548173ffffffffffffffffffffffffffffffffffffffff021916908373ffffffffffffffffffffffffffffffffffffffff16021790555050505050505061037d565b600061016a838361025560201b60201c565b61024a57600160008085815260200190815260200160002060000160008473ffffffffffffffffffffffffffffffffffffffff1673ffffffffffffffffffffffffffffffffffffffff16815260200190815260200160002060006101000a81548160ff0219169083151502179055506101e76102bf60201b60201c565b73ffffffffffffffffffffffffffffffffffffffff168273ffffffffffffffffffffffffffffffffffffffff16847f2f8788117e7eff1d82e926ec794901d17c78024a50270940304540a733656f0d60405160405180910390a46001905061024f565b600090505b92915050565b600080600084815260200190815260200160002060000160008373ffffffffffffffffffffffffffffffffffffffff1673ffffffffffffffffffffffffffffffffffffffff16815260200190815260200160002060009054906101000a900460ff16905092915050565b600033905090565b600080fd5b600073ffffffffffffffffffffffffffffffffffffffff82169050919050565b60006102f7826102cc565b9050919050565b610307816102ec565b811461031257600080fd5b50565b600081519050610324816102fe565b92915050565b600080600060608486031215610343576103426102c7565b5b600061035186828701610315565b935050602061036286828701610315565b925050604061037386828701610315565b9150509250925092565b614f278061038c6000396000f3fe60806040526004361061020f5760003560e01c8063965288b011610118578063bfb80547116100a0578063e477a26c1161006f578063e477a26c146107a2578063e5839836146107cb578063e94a741e14610808578063eb1fbf1514610824578063f0bd87cc146108615761020f565b8063bfb80547146106fa578063c1c460a614610723578063d547741f1461074e578063e42a96e7146107775761020f565b80639fb65529116100e75780639fb655291461060b578063a217fddf1461064d578063b21a7b3e14610678578063b26c196a146106b5578063b75746ab146106de5761020f565b8063965288b01461054657806399fd9cfb146105715780639de7c3b71461059a5780639e42ff90146105e05761020f565b806357c1f9e21161019b57806370099ec81161016a57806370099ec8146104635780637250e2241461048c5780638da5cb5b146104b55780638ec4f505146104e057806391d14854146105095761020f565b806357c1f9e2146103ab5780635f8a5afa146103d45780636a0f9f70146103fd5780636a75323f1461043a5761020f565b80632f2ff15d116101e25780632f2ff15d146102e457806336568abe1461030d5780633c652a9a146103365780633ccfd60b146103785780634e4fddb01461038f5761020f565b806301ffc9a71461021457806306f13056146102515780632115e7bf1461027c578063248a9ca3146102a7575b600080fd5b34801561022057600080fd5b5061023b60048036038101906102369190613958565b61088c565b60405161024891906139a0565b60405180910390f35b34801561025d57600080fd5b50610266610906565b60405161027391906139d4565b60405180910390f35b34801561028857600080fd5b5061029161090c565b60405161029e9190613a08565b60405180910390f35b3480156102b357600080fd5b506102ce60048036038101906102c99190613a4f565b610930565b6040516102db9190613a08565b60405180910390f35b3480156102f057600080fd5b5061030b60048036038101906103069190613ada565b61094f565b005b34801561031957600080fd5b50610334600480360381019061032f9190613ada565b610971565b005b34801561034257600080fd5b5061035d60048036038101906103589190613b46565b6109ec565b60405161036f96959493929190613c12565b60405180910390f35b34801561038457600080fd5b5061038d610afa565b005b6103a960048036038101906103a49190613a4f565b610c2d565b005b3480156103b757600080fd5b506103d260048036038101906103cd9190613c7a565b610f7c565b005b3480156103e057600080fd5b506103fb60048036038101906103f69190613c7a565b610fb7565b005b34801561040957600080fd5b50610424600480360381019061041f9190613c7a565b6111a7565b60405161043191906139d4565b60405180910390f35b34801561044657600080fd5b50610461600480360381019061045c9190613c7a565b6111bf565b005b34801561046f57600080fd5b5061048a60048036038101906104859190613c7a565b6111fa565b005b34801561049857600080fd5b506104b360048036038101906104ae9190613c7a565b611235565b005b3480156104c157600080fd5b506104ca611425565b6040516104d79190613ca7565b60405180910390f35b3480156104ec57600080fd5b5061050760048036038101906105029190613c7a565b61144b565b005b34801561051557600080fd5b50610530600480360381019061052b9190613ada565b61163b565b60405161053d91906139a0565b60405180910390f35b34801561055257600080fd5b5061055b6116a5565b6040516105689190613a08565b60405180910390f35b34801561057d57600080fd5b5061059860048036038101906105939190613c7a565b6116c9565b005b3480156105a657600080fd5b506105c160048036038101906105bc9190613a4f565b611858565b6040516105d79a99989796959493929190613d39565b60405180910390f35b3480156105ec57600080fd5b506105f5611939565b6040516106029190613e34565b60405180910390f35b34801561061757600080fd5b50610632600480360381019061062d9190613a4f565b61195f565b60405161064496959493929190613c12565b60405180910390f35b34801561065957600080fd5b50610662611a5d565b60405161066f9190613a08565b60405180910390f35b34801561068457600080fd5b5061069f600480360381019061069a9190613a4f565b611a64565b6040516106ac9190613f57565b60405180910390f35b3480156106c157600080fd5b506106dc60048036038101906106d79190613a4f565b611cb2565b005b6106f860048036038101906106f39190613f73565b612002565b005b34801561070657600080fd5b50610721600480360381019061071c9190613c7a565b612349565b005b34801561072f57600080fd5b50610738612458565b6040516107459190613fd4565b60405180910390f35b34801561075a57600080fd5b5061077560048036038101906107709190613ada565b61247e565b005b34801561078357600080fd5b5061078c6124a0565b6040516107999190614010565b60405180910390f35b3480156107ae57600080fd5b506107c960048036038101906107c4919061402b565b6124c6565b005b3480156107d757600080fd5b506107f260048036038101906107ed9190613c7a565b612570565b6040516107ff91906139a0565b60405180910390f35b610822600480360381019061081d9190613a4f565b612590565b005b34801561083057600080fd5b5061084b60048036038101906108469190613a4f565b612860565b6040516108589190613ca7565b60405180910390f35b34801561086d57600080fd5b506108766128fb565b6040516108839190613a08565b60405180910390f35b60007f7965db0b000000000000000000000000000000000000000000000000000000007bffffffffffffffffffffffffffffffffffffffffffffffffffffffff1916827bffffffffffffffffffffffffffffffffffffffffffffffffffffffff191614806108ff57506108fe8261291f565b5b9050919050565b60065481565b7f2a5f906c256a5d799494fcd066e1f6c077689de1cdb65052a1624de4bace99bf81565b6000806000838152602001908152602001600020600101549050919050565b61095882610930565b61096181612989565b61096b838361299d565b50505050565b610979612a8e565b73ffffffffffffffffffffffffffffffffffffffff168173ffffffffffffffffffffffffffffffffffffffff16146109dd576040517f6697b23200000000000000000000000000000000000000000000000000000000815260040160405180910390fd5b6109e78282612a96565b505050565b600581815481106109fc57600080fd5b90600052602060002090600402016000915090508060000154908060010154908060020160009054906101000a900473ffffffffffffffffffffffffffffffffffffffff16908060020160149054906101000a900460ff16908060020160159054906101000a900460ff1690806003018054610a77906140c1565b80601f0160208091040260200160405190810160405280929190818152602001828054610aa3906140c1565b8015610af05780601f10610ac557610100808354040283529160200191610af0565b820191906000526020600020905b815481529060010190602001808311610ad357829003601f168201915b5050505050905086565b600960009054906101000a900473ffffffffffffffffffffffffffffffffffffffff1673ffffffffffffffffffffffffffffffffffffffff166391d148546000801b336040518363ffffffff1660e01b8152600401610b5a9291906140f2565b602060405180830381865afa158015610b77573d6000803e3d6000fd5b505050506040513d601f19601f82011682018060405250810190610b9b9190614147565b50600860009054906101000a900473ffffffffffffffffffffffffffffffffffffffff1673ffffffffffffffffffffffffffffffffffffffff16630357371d33476040518363ffffffff1660e01b8152600401610bf9929190614174565b600060405180830381600087803b158015610c1357600080fd5b505af1158015610c27573d6000803e3d6000fd5b50505050565b600160003373ffffffffffffffffffffffffffffffffffffffff1673ffffffffffffffffffffffffffffffffffffffff16815260200190815260200160002060009054906101000a900460ff1615610cba576040517f08c379a0000000000000000000000000000000000000000000000000000000008152600401610cb1906141e9565b60405180910390fd5b600960009054906101000a900473ffffffffffffffffffffffffffffffffffffffff1673ffffffffffffffffffffffffffffffffffffffff166391d148547f2a5f906c256a5d799494fcd066e1f6c077689de1cdb65052a1624de4bace99bf336040518363ffffffff1660e01b8152600401610d379291906140f2565b602060405180830381865afa158015610d54573d6000803e3d6000fd5b505050506040513d601f19601f82011682018060405250810190610d789190614147565b610db7576040517f08c379a0000000000000000000000000000000000000000000000000000000008152600401610dae90614255565b60405180910390fd5b3373ffffffffffffffffffffffffffffffffffffffff166003600083815260200190815260200160002060030160009054906101000a900473ffffffffffffffffffffffffffffffffffffffff1673ffffffffffffffffffffffffffffffffffffffff1603610f3e57600380600083815260200190815260200160002060080160006101000a81548160ff02191690836008811115610e5957610e58613cc2565b5b0217905550600860009054906101000a900473ffffffffffffffffffffffffffffffffffffffff1673ffffffffffffffffffffffffffffffffffffffff16630357371d6003600084815260200190815260200160002060020160009054906101000a900473ffffffffffffffffffffffffffffffffffffffff1660036000858152602001908152602001600020600701546040518363ffffffff1660e01b8152600401610f07929190614174565b600060405180830381600087803b158015610f2157600080fd5b505af1158015610f35573d6000803e3d6000fd5b50505050610f79565b6040517f08c379a0000000000000000000000000000000000000000000000000000000008152600401610f70906142e7565b60405180910390fd5b50565b6000801b610f8981612989565b610fb37ffbd454f36a7e1a388bd6fc3ab10d434aa4578f811acbbcf33afb1c697486313c8361247e565b5050565b6000801b610fc481612989565b81610fef7feefb95e842a3287179d933b4460be539a1d5af11aa8b325bb45c5c8dc92de4ed8261163b565b1561103157806040517f375795b90000000000000000000000000000000000000000000000000000000081526004016110289190614353565b60405180910390fd5b61105b7f2a5f906c256a5d799494fcd066e1f6c077689de1cdb65052a1624de4bace99bf8261163b565b1561109d57806040517f375795b900000000000000000000000000000000000000000000000000000000815260040161109491906143cd565b60405180910390fd5b6110c77ffbd454f36a7e1a388bd6fc3ab10d434aa4578f811acbbcf33afb1c697486313c8261163b565b1561110957806040517f375795b90000000000000000000000000000000000000000000000000000000081526004016111009190614447565b60405180910390fd5b600073ffffffffffffffffffffffffffffffffffffffff168173ffffffffffffffffffffffffffffffffffffffff1603611178576040517f08c379a000000000000000000000000000000000000000000000000000000000815260040161116f906141e9565b60405180910390fd5b6111a27feefb95e842a3287179d933b4460be539a1d5af11aa8b325bb45c5c8dc92de4ed8461094f565b505050565b60026020528060005260406000206000915090505481565b6000801b6111cc81612989565b6111f67feefb95e842a3287179d933b4460be539a1d5af11aa8b325bb45c5c8dc92de4ed8361247e565b5050565b6000801b61120781612989565b6112317f2a5f906c256a5d799494fcd066e1f6c077689de1cdb65052a1624de4bace99bf8361247e565b5050565b6000801b61124281612989565b8161126d7feefb95e842a3287179d933b4460be539a1d5af11aa8b325bb45c5c8dc92de4ed8261163b565b156112af57806040517f375795b90000000000000000000000000000000000000000000000000000000081526004016112a69190614353565b60405180910390fd5b6112d97f2a5f906c256a5d799494fcd066e1f6c077689de1cdb65052a1624de4bace99bf8261163b565b1561131b57806040517f375795b900000000000000000000000000000000000000000000000000000000815260040161131291906143cd565b60405180910390fd5b6113457ffbd454f36a7e1a388bd6fc3ab10d434aa4578f811acbbcf33afb1c697486313c8261163b565b1561138757806040517f375795b900000000000000000000000000000000000000000000000000000000815260040161137e9190614447565b60405180910390fd5b600073ffffffffffffffffffffffffffffffffffffffff168173ffffffffffffffffffffffffffffffffffffffff16036113f6576040517f08c379a00000000000000000000000000000000000000000000000000000000081526004016113ed906141e9565b60405180910390fd5b6114207ffbd454f36a7e1a388bd6fc3ab10d434aa4578f811acbbcf33afb1c697486313c8461094f565b505050565b600a60009054906101000a900473ffffffffffffffffffffffffffffffffffffffff1681565b6000801b61145881612989565b816114837feefb95e842a3287179d933b4460be539a1d5af11aa8b325bb45c5c8dc92de4ed8261163b565b156114c557806040517f375795b90000000000000000000000000000000000000000000000000000000081526004016114bc9190614353565b60405180910390fd5b6114ef7f2a5f906c256a5d799494fcd066e1f6c077689de1cdb65052a1624de4bace99bf8261163b565b1561153157806040517f375795b900000000000000000000000000000000000000000000000000000000815260040161152891906143cd565b60405180910390fd5b61155b7ffbd454f36a7e1a388bd6fc3ab10d434aa4578f811acbbcf33afb1c697486313c8261163b565b1561159d57806040517f375795b90000000000000000000000000000000000000000000000000000000081526004016115949190614447565b60405180910390fd5b600073ffffffffffffffffffffffffffffffffffffffff168173ffffffffffffffffffffffffffffffffffffffff160361160c576040517f08c379a0000000000000000000000000000000000000000000000000000000008152600401611603906141e9565b60405180910390fd5b6116367f2a5f906c256a5d799494fcd066e1f6c077689de1cdb65052a1624de4bace99bf8461094f565b505050565b600080600084815260200190815260200160002060000160008373ffffffffffffffffffffffffffffffffffffffff1673ffffffffffffffffffffffffffffffffffffffff16815260200190815260200160002060009054906101000a900460ff16905092915050565b7feefb95e842a3287179d933b4460be539a1d5af11aa8b325bb45c5c8dc92de4ed81565b6000801b6116d681612989565b600073ffffffffffffffffffffffffffffffffffffffff168273ffffffffffffffffffffffffffffffffffffffff1603611745576040517f08c379a000000000000000000000000000000000000000000000000000000000815260040161173c906144c1565b60405180910390fd5b60018060008473ffffffffffffffffffffffffffffffffffffffff1673ffffffffffffffffffffffffffffffffffffffff16815260200190815260200160002060006101000a81548160ff0219169083151502179055506117c67feefb95e842a3287179d933b4460be539a1d5af11aa8b325bb45c5c8dc92de4ed83612a96565b506117f17ffbd454f36a7e1a388bd6fc3ab10d434aa4578f811acbbcf33afb1c697486313c83612a96565b5061181c7f2a5f906c256a5d799494fcd066e1f6c077689de1cdb65052a1624de4bace99bf83612a96565b507f90811a8edd3b3c17eeaefffc17f639cc69145d41a359c9843994dc25382036908260405161184c9190613ca7565b60405180910390a15050565b60036020528060005260406000206000915090508060000154908060010160009054906101000a900473ffffffffffffffffffffffffffffffffffffffff16908060020160009054906101000a900473ffffffffffffffffffffffffffffffffffffffff16908060030160009054906101000a900473ffffffffffffffffffffffffffffffffffffffff16908060040154908060050154908060060154908060070154908060080160009054906101000a900460ff16908060080160019054906101000a900473ffffffffffffffffffffffffffffffffffffffff1690508a565b600760009054906101000a900473ffffffffffffffffffffffffffffffffffffffff1681565b60046020528060005260406000206000915090508060000154908060010154908060020160009054906101000a900473ffffffffffffffffffffffffffffffffffffffff16908060020160149054906101000a900460ff16908060020160159054906101000a900460ff16908060030180546119da906140c1565b80601f0160208091040260200160405190810160405280929190818152602001828054611a06906140c1565b8015611a535780601f10611a2857610100808354040283529160200191611a53565b820191906000526020600020905b815481529060010190602001808311611a3657829003601f168201915b5050505050905086565b6000801b81565b611a6c61383b565b6000801b600360008481526020019081526020016000206000015403611ac7576040517f08c379a0000000000000000000000000000000000000000000000000000000008152600401611abe9061452d565b60405180910390fd5b6003600083815260200190815260200160002060405180610140016040529081600082015481526020016001820160009054906101000a900473ffffffffffffffffffffffffffffffffffffffff1673ffffffffffffffffffffffffffffffffffffffff1673ffffffffffffffffffffffffffffffffffffffff1681526020016002820160009054906101000a900473ffffffffffffffffffffffffffffffffffffffff1673ffffffffffffffffffffffffffffffffffffffff1673ffffffffffffffffffffffffffffffffffffffff1681526020016003820160009054906101000a900473ffffffffffffffffffffffffffffffffffffffff1673ffffffffffffffffffffffffffffffffffffffff1673ffffffffffffffffffffffffffffffffffffffff168152602001600482015481526020016005820154815260200160068201548152602001600782015481526020016008820160009054906101000a900460ff166008811115611c3f57611c3e613cc2565b5b6008811115611c5157611c50613cc2565b5b81526020016008820160019054906101000a900473ffffffffffffffffffffffffffffffffffffffff1673ffffffffffffffffffffffffffffffffffffffff1673ffffffffffffffffffffffffffffffffffffffff16815250509050919050565b600160003373ffffffffffffffffffffffffffffffffffffffff1673ffffffffffffffffffffffffffffffffffffffff16815260200190815260200160002060009054906101000a900460ff1615611d3f576040517f08c379a0000000000000000000000000000000000000000000000000000000008152600401611d36906141e9565b60405180910390fd5b600960009054906101000a900473ffffffffffffffffffffffffffffffffffffffff1673ffffffffffffffffffffffffffffffffffffffff166391d148547ffbd454f36a7e1a388bd6fc3ab10d434aa4578f811acbbcf33afb1c697486313c336040518363ffffffff1660e01b8152600401611dbc9291906140f2565b602060405180830381865afa158015611dd9573d6000803e3d6000fd5b505050506040513d601f19601f82011682018060405250810190611dfd9190614147565b611e3c576040517f08c379a0000000000000000000000000000000000000000000000000000000008152600401611e3390614599565b60405180910390fd5b3373ffffffffffffffffffffffffffffffffffffffff166003600083815260200190815260200160002060020160009054906101000a900473ffffffffffffffffffffffffffffffffffffffff1673ffffffffffffffffffffffffffffffffffffffff1603611fc45760016003600083815260200190815260200160002060080160006101000a81548160ff02191690836008811115611edf57611ede613cc2565b5b0217905550600860009054906101000a900473ffffffffffffffffffffffffffffffffffffffff1673ffffffffffffffffffffffffffffffffffffffff16630357371d6003600084815260200190815260200160002060010160009054906101000a900473ffffffffffffffffffffffffffffffffffffffff1660036000858152602001908152602001600020600601546040518363ffffffff1660e01b8152600401611f8d929190614174565b600060405180830381600087803b158015611fa757600080fd5b505af1158015611fbb573d6000803e3d6000fd5b50505050611fff565b6040517f08c379a0000000000000000000000000000000000000000000000000000000008152600401611ff6906142e7565b60405180910390fd5b50565b600160003373ffffffffffffffffffffffffffffffffffffffff1673ffffffffffffffffffffffffffffffffffffffff16815260200190815260200160002060009054906101000a900460ff161561208f576040517f08c379a0000000000000000000000000000000000000000000000000000000008152600401612086906141e9565b60405180910390fd5b6120998282612b88565b60036000838152602001908152602001600020600601543410156120f2576040517f08c379a00000000000000000000000000000000000000000000000000000000081526004016120e990614605565b60405180910390fd5b600860009054906101000a900473ffffffffffffffffffffffffffffffffffffffff1673ffffffffffffffffffffffffffffffffffffffff1663ad7fadc534336003600087815260200190815260200160002060010160009054906101000a900473ffffffffffffffffffffffffffffffffffffffff166040518463ffffffff1660e01b8152600401612186929190614625565b6000604051808303818588803b15801561219f57600080fd5b505af11580156121b3573d6000803e3d6000fd5b5050505050806003600084815260200190815260200160002060070181905550426003600084815260200190815260200160002060050181905550336003600084815260200190815260200160002060020160006101000a81548173ffffffffffffffffffffffffffffffffffffffff021916908373ffffffffffffffffffffffffffffffffffffffff16021790555060016003600084815260200190815260200160002060080160006101000a81548160ff0219169083600881111561227d5761227c613cc2565b5b0217905550817f78dec01f974668793fa9048dc94c45a25b01bbabc6b89300c8ed2995d74005d56003600085815260200190815260200160002060020160009054906101000a900473ffffffffffffffffffffffffffffffffffffffff166003600086815260200190815260200160002060080160009054906101000a900460ff166003600087815260200190815260200160002060060154600360008881526020019081526020016000206005015460405161233d949392919061464e565b60405180910390a25050565b6000801b61235681612989565b600073ffffffffffffffffffffffffffffffffffffffff168273ffffffffffffffffffffffffffffffffffffffff16036123c5576040517f08c379a00000000000000000000000000000000000000000000000000000000081526004016123bc906146df565b60405180910390fd5b6000600160008473ffffffffffffffffffffffffffffffffffffffff1673ffffffffffffffffffffffffffffffffffffffff16815260200190815260200160002060006101000a81548160ff0219169083151502179055507fc3776b472ebf54114339eec9e4dc924e7ce307a97f5c1ee72b6d474e6e5e8b7c8260405161244c9190613ca7565b60405180910390a15050565b600960009054906101000a900473ffffffffffffffffffffffffffffffffffffffff1681565b61248782610930565b61249081612989565b61249a8383612a96565b50505050565b600860009054906101000a900473ffffffffffffffffffffffffffffffffffffffff1681565b600160003373ffffffffffffffffffffffffffffffffffffffff1673ffffffffffffffffffffffffffffffffffffffff16815260200190815260200160002060009054906101000a900460ff1615612553576040517f08c379a000000000000000000000000000000000000000000000000000000000815260040161254a906141e9565b60405180910390fd5b61255e848484612f07565b61256a848484846130fe565b50505050565b60016020528060005260406000206000915054906101000a900460ff1681565b600160003373ffffffffffffffffffffffffffffffffffffffff1673ffffffffffffffffffffffffffffffffffffffff16815260200190815260200160002060009054906101000a900460ff161561261d576040517f08c379a0000000000000000000000000000000000000000000000000000000008152600401612614906141e9565b60405180910390fd5b61262681613456565b600860009054906101000a900473ffffffffffffffffffffffffffffffffffffffff1673ffffffffffffffffffffffffffffffffffffffff1663ad7fadc534336003600086815260200190815260200160002060020160009054906101000a900473ffffffffffffffffffffffffffffffffffffffff166040518463ffffffff1660e01b81526004016126ba929190614625565b6000604051808303818588803b1580156126d357600080fd5b505af11580156126e7573d6000803e3d6000fd5b5050505050426003600083815260200190815260200160002060050181905550336003600083815260200190815260200160002060030160006101000a81548173ffffffffffffffffffffffffffffffffffffffff021916908373ffffffffffffffffffffffffffffffffffffffff160217905550600380600083815260200190815260200160002060080160006101000a81548160ff0219169083600881111561279557612794613cc2565b5b0217905550807fd5bf0453cd492c459ba9477de283c3662783c2fb8a03df42555d15741b1848d46003600084815260200190815260200160002060030160009054906101000a900473ffffffffffffffffffffffffffffffffffffffff166003600085815260200190815260200160002060080160009054906101000a900460ff1660036000868152602001908152602001600020600601546003600087815260200190815260200160002060050154604051612855949392919061464e565b60405180910390a250565b60008060001b6003600084815260200190815260200160002060000154036128bd576040517f08c379a00000000000000000000000000000000000000000000000000000000081526004016128b49061452d565b60405180910390fd5b6003600083815260200190815260200160002060080160019054906101000a900473ffffffffffffffffffffffffffffffffffffffff169050919050565b7ffbd454f36a7e1a388bd6fc3ab10d434aa4578f811acbbcf33afb1c697486313c81565b60007f01ffc9a7000000000000000000000000000000000000000000000000000000007bffffffffffffffffffffffffffffffffffffffffffffffffffffffff1916827bffffffffffffffffffffffffffffffffffffffffffffffffffffffff1916149050919050565b61299a81612995612a8e565b6137ea565b50565b60006129a9838361163b565b612a8357600160008085815260200190815260200160002060000160008473ffffffffffffffffffffffffffffffffffffffff1673ffffffffffffffffffffffffffffffffffffffff16815260200190815260200160002060006101000a81548160ff021916908315150217905550612a20612a8e565b73ffffffffffffffffffffffffffffffffffffffff168273ffffffffffffffffffffffffffffffffffffffff16847f2f8788117e7eff1d82e926ec794901d17c78024a50270940304540a733656f0d60405160405180910390a460019050612a88565b600090505b92915050565b600033905090565b6000612aa2838361163b565b15612b7d57600080600085815260200190815260200160002060000160008473ffffffffffffffffffffffffffffffffffffffff1673ffffffffffffffffffffffffffffffffffffffff16815260200190815260200160002060006101000a81548160ff021916908315150217905550612b1a612a8e565b73ffffffffffffffffffffffffffffffffffffffff168273ffffffffffffffffffffffffffffffffffffffff16847ff6391f5c32d9c69d2a47ea670b442974b53935d1edc7fd64eb21e047a839171b60405160405180910390a460019050612b82565b600090505b92915050565b600960009054906101000a900473ffffffffffffffffffffffffffffffffffffffff1673ffffffffffffffffffffffffffffffffffffffff166391d148547ffbd454f36a7e1a388bd6fc3ab10d434aa4578f811acbbcf33afb1c697486313c336040518363ffffffff1660e01b8152600401612c059291906140f2565b602060405180830381865afa158015612c22573d6000803e3d6000fd5b505050506040513d601f19601f82011682018060405250810190612c469190614147565b612c85576040517f08c379a0000000000000000000000000000000000000000000000000000000008152600401612c7c90614599565b60405180910390fd5b600073ffffffffffffffffffffffffffffffffffffffff166003600084815260200190815260200160002060020160009054906101000a900473ffffffffffffffffffffffffffffffffffffffff1673ffffffffffffffffffffffffffffffffffffffff1614612d2a576040517f08c379a0000000000000000000000000000000000000000000000000000000008152600401612d2190614771565b60405180910390fd5b6000801b600360008481526020019081526020016000206000015403612d85576040517f08c379a0000000000000000000000000000000000000000000000000000000008152600401612d7c9061452d565b60405180910390fd5b60006008811115612d9957612d98613cc2565b5b6003600084815260200190815260200160002060080160009054906101000a900460ff166008811115612dcf57612dce613cc2565b5b14612e0f576040517f08c379a0000000000000000000000000000000000000000000000000000000008152600401612e0690614803565b60405180910390fd5b42600360008481526020019081526020016000206004015411612e67576040517f08c379a0000000000000000000000000000000000000000000000000000000008152600401612e5e9061486f565b60405180910390fd5b6003600083815260200190815260200160002060060154341015612ec0576040517f08c379a0000000000000000000000000000000000000000000000000000000008152600401612eb7906148db565b60405180910390fd5b60008111612f03576040517f08c379a0000000000000000000000000000000000000000000000000000000008152600401612efa9061496d565b60405180910390fd5b5050565b600960009054906101000a900473ffffffffffffffffffffffffffffffffffffffff1673ffffffffffffffffffffffffffffffffffffffff166391d148547feefb95e842a3287179d933b4460be539a1d5af11aa8b325bb45c5c8dc92de4ed336040518363ffffffff1660e01b8152600401612f849291906140f2565b602060405180830381865afa158015612fa1573d6000803e3d6000fd5b505050506040513d601f19601f82011682018060405250810190612fc59190614147565b613004576040517f08c379a0000000000000000000000000000000000000000000000000000000008152600401612ffb906149d9565b60405180910390fd5b600073ffffffffffffffffffffffffffffffffffffffff168373ffffffffffffffffffffffffffffffffffffffff1603613073576040517f08c379a000000000000000000000000000000000000000000000000000000000815260040161306a90614a6b565b60405180910390fd5b428210156130b6576040517f08c379a00000000000000000000000000000000000000000000000000000000081526004016130ad90614afd565b60405180910390fd5b600081116130f9576040517f08c379a00000000000000000000000000000000000000000000000000000000081526004016130f090614b69565b60405180910390fd5b505050565b61310661383b565b600081610100019060088111156131205761311f613cc2565b5b9081600881111561313457613133613cc2565b5b81525050428160a00181815250508181610120019073ffffffffffffffffffffffffffffffffffffffff16908173ffffffffffffffffffffffffffffffffffffffff16815250506006600081548092919061318e90614bb8565b919050555084816020019073ffffffffffffffffffffffffffffffffffffffff16908173ffffffffffffffffffffffffffffffffffffffff168152505083816080018181525050828160c00181815250506000600260003373ffffffffffffffffffffffffffffffffffffffff1673ffffffffffffffffffffffffffffffffffffffff168152602001908152602001600020600081548092919061323190614bb8565b91905055905081602001518260a001518260405160200161325493929190614c69565b604051602081830303815290604052805190602001208260000181815250508160036000846000015181526020019081526020016000206000820151816000015560208201518160010160006101000a81548173ffffffffffffffffffffffffffffffffffffffff021916908373ffffffffffffffffffffffffffffffffffffffff16021790555060408201518160020160006101000a81548173ffffffffffffffffffffffffffffffffffffffff021916908373ffffffffffffffffffffffffffffffffffffffff16021790555060608201518160030160006101000a81548173ffffffffffffffffffffffffffffffffffffffff021916908373ffffffffffffffffffffffffffffffffffffffff1602179055506080820151816004015560a0820151816005015560c0820151816006015560e082015181600701556101008201518160080160006101000a81548160ff021916908360088111156133be576133bd613cc2565b5b02179055506101208201518160080160016101000a81548173ffffffffffffffffffffffffffffffffffffffff021916908373ffffffffffffffffffffffffffffffffffffffff16021790555090505081600001517f142fb4f6af814b9c2a0fc64fa90bca80d84d17f165530aa799ede76f9882ec2e8360a0015160405161344691906139d4565b60405180910390a2505050505050565b600960009054906101000a900473ffffffffffffffffffffffffffffffffffffffff1673ffffffffffffffffffffffffffffffffffffffff166391d148547f2a5f906c256a5d799494fcd066e1f6c077689de1cdb65052a1624de4bace99bf336040518363ffffffff1660e01b81526004016134d39291906140f2565b602060405180830381865afa1580156134f0573d6000803e3d6000fd5b505050506040513d601f19601f820116820180604052508101906135149190614147565b613553576040517f08c379a000000000000000000000000000000000000000000000000000000000815260040161354a90614255565b60405180910390fd5b600073ffffffffffffffffffffffffffffffffffffffff166003600083815260200190815260200160002060030160009054906101000a900473ffffffffffffffffffffffffffffffffffffffff1673ffffffffffffffffffffffffffffffffffffffff16146135f8576040517f08c379a00000000000000000000000000000000000000000000000000000000081526004016135ef90614d18565b60405180910390fd5b6000801b600360008381526020019081526020016000206000015403613653576040517f08c379a000000000000000000000000000000000000000000000000000000000815260040161364a9061452d565b60405180910390fd5b6001600881111561366757613666613cc2565b5b6003600083815260200190815260200160002060080160009054906101000a900460ff16600881111561369d5761369c613cc2565b5b146136dd576040517f08c379a00000000000000000000000000000000000000000000000000000000081526004016136d490614daa565b60405180910390fd5b42600360008381526020019081526020016000206004015411613735576040517f08c379a000000000000000000000000000000000000000000000000000000000815260040161372c9061486f565b60405180910390fd5b600360008281526020019081526020016000206007015434101561378e576040517f08c379a000000000000000000000000000000000000000000000000000000000815260040161378590614e3c565b60405180910390fd5b60006003600083815260200190815260200160002060070154116137e7576040517f08c379a00000000000000000000000000000000000000000000000000000000081526004016137de90614ea8565b60405180910390fd5b50565b6137f4828261163b565b6138375780826040517fe2517d3f00000000000000000000000000000000000000000000000000000000815260040161382e929190614ec8565b60405180910390fd5b5050565b60405180610140016040528060008019168152602001600073ffffffffffffffffffffffffffffffffffffffff168152602001600073ffffffffffffffffffffffffffffffffffffffff168152602001600073ffffffffffffffffffffffffffffffffffffffff16815260200160008152602001600081526020016000815260200160008152602001600060088111156138d8576138d7613cc2565b5b8152602001600073ffffffffffffffffffffffffffffffffffffffff1681525090565b600080fd5b60007fffffffff0000000000000000000000000000000000000000000000000000000082169050919050565b61393581613900565b811461394057600080fd5b50565b6000813590506139528161392c565b92915050565b60006020828403121561396e5761396d6138fb565b5b600061397c84828501613943565b91505092915050565b60008115159050919050565b61399a81613985565b82525050565b60006020820190506139b56000830184613991565b92915050565b6000819050919050565b6139ce816139bb565b82525050565b60006020820190506139e960008301846139c5565b92915050565b6000819050919050565b613a02816139ef565b82525050565b6000602082019050613a1d60008301846139f9565b92915050565b613a2c816139ef565b8114613a3757600080fd5b50565b600081359050613a4981613a23565b92915050565b600060208284031215613a6557613a646138fb565b5b6000613a7384828501613a3a565b91505092915050565b600073ffffffffffffffffffffffffffffffffffffffff82169050919050565b6000613aa782613a7c565b9050919050565b613ab781613a9c565b8114613ac257600080fd5b50565b600081359050613ad481613aae565b92915050565b60008060408385031215613af157613af06138fb565b5b6000613aff85828601613a3a565b9250506020613b1085828601613ac5565b9150509250929050565b613b23816139bb565b8114613b2e57600080fd5b50565b600081359050613b4081613b1a565b92915050565b600060208284031215613b5c57613b5b6138fb565b5b6000613b6a84828501613b31565b91505092915050565b613b7c81613a9c565b82525050565b600081519050919050565b600082825260208201905092915050565b60005b83811015613bbc578082015181840152602081019050613ba1565b60008484015250505050565b6000601f19601f8301169050919050565b6000613be482613b82565b613bee8185613b8d565b9350613bfe818560208601613b9e565b613c0781613bc8565b840191505092915050565b600060c082019050613c2760008301896139f9565b613c3460208301886139c5565b613c416040830187613b73565b613c4e6060830186613991565b613c5b6080830185613991565b81810360a0830152613c6d8184613bd9565b9050979650505050505050565b600060208284031215613c9057613c8f6138fb565b5b6000613c9e84828501613ac5565b91505092915050565b6000602082019050613cbc6000830184613b73565b92915050565b7f4e487b7100000000000000000000000000000000000000000000000000000000600052602160045260246000fd5b60098110613d0257613d01613cc2565b5b50565b6000819050613d1382613cf1565b919050565b6000613d2382613d05565b9050919050565b613d3381613d18565b82525050565b600061014082019050613d4f600083018d6139f9565b613d5c602083018c613b73565b613d69604083018b613b73565b613d76606083018a613b73565b613d8360808301896139c5565b613d9060a08301886139c5565b613d9d60c08301876139c5565b613daa60e08301866139c5565b613db8610100830185613d2a565b613dc6610120830184613b73565b9b9a5050505050505050505050565b6000819050919050565b6000613dfa613df5613df084613a7c565b613dd5565b613a7c565b9050919050565b6000613e0c82613ddf565b9050919050565b6000613e1e82613e01565b9050919050565b613e2e81613e13565b82525050565b6000602082019050613e496000830184613e25565b92915050565b613e58816139ef565b82525050565b613e6781613a9c565b82525050565b613e76816139bb565b82525050565b613e8581613d18565b82525050565b61014082016000820151613ea26000850182613e4f565b506020820151613eb56020850182613e5e565b506040820151613ec86040850182613e5e565b506060820151613edb6060850182613e5e565b506080820151613eee6080850182613e6d565b5060a0820151613f0160a0850182613e6d565b5060c0820151613f1460c0850182613e6d565b5060e0820151613f2760e0850182613e6d565b50610100820151613f3c610100850182613e7c565b50610120820151613f51610120850182613e5e565b50505050565b600061014082019050613f6d6000830184613e8b565b92915050565b60008060408385031215613f8a57613f896138fb565b5b6000613f9885828601613a3a565b9250506020613fa985828601613b31565b9150509250929050565b6000613fbe82613e01565b9050919050565b613fce81613fb3565b82525050565b6000602082019050613fe96000830184613fc5565b92915050565b6000613ffa82613e01565b9050919050565b61400a81613fef565b82525050565b60006020820190506140256000830184614001565b92915050565b60008060008060808587031215614045576140446138fb565b5b600061405387828801613ac5565b945050602061406487828801613b31565b935050604061407587828801613b31565b925050606061408687828801613ac5565b91505092959194509250565b7f4e487b7100000000000000000000000000000000000000000000000000000000600052602260045260246000fd5b600060028204905060018216806140d957607f821691505b6020821081036140ec576140eb614092565b5b50919050565b600060408201905061410760008301856139f9565b6141146020830184613b73565b9392505050565b61412481613985565b811461412f57600080fd5b50565b6000815190506141418161411b565b92915050565b60006020828403121561415d5761415c6138fb565b5b600061416b84828501614132565b91505092915050565b60006040820190506141896000830185613b73565b61419660208301846139c5565b9392505050565b7f4164647265737320496e76616c69640000000000000000000000000000000000600082015250565b60006141d3600f83613b8d565b91506141de8261419d565b602082019050919050565b60006020820190508181036000830152614202816141c6565b9050919050565b7f497473206e6f742052657461696c657200000000000000000000000000000000600082015250565b600061423f601083613b8d565b915061424a82614209565b602082019050919050565b6000602082019050818103600083015261426e81614232565b9050919050565b7f556e617574686f72697a656420746f206d61726b20746869732062617463682060008201527f6173207265636569766564000000000000000000000000000000000000000000602082015250565b60006142d1602b83613b8d565b91506142dc82614275565b604082019050919050565b60006020820190508181036000830152614300816142c4565b9050919050565b7f4d616e7566616374757265720000000000000000000000000000000000000000600082015250565b600061433d600c83613b8d565b915061434882614307565b602082019050919050565b6000604082019050818103600083015261436c81614330565b905061437b6020830184613b73565b92915050565b7f52657461696c6572000000000000000000000000000000000000000000000000600082015250565b60006143b7600883613b8d565b91506143c282614381565b602082019050919050565b600060408201905081810360008301526143e6816143aa565b90506143f56020830184613b73565b92915050565b7f4469737472696275746f72000000000000000000000000000000000000000000600082015250565b6000614431600b83613b8d565b915061443c826143fb565b602082019050919050565b6000604082019050818103600083015261446081614424565b905061446f6020830184613b73565b92915050565b7f43616e6e6f7420667265657a6520746865207a65726f20616464726573730000600082015250565b60006144ab601e83613b8d565b91506144b682614475565b602082019050919050565b600060208201905081810360008301526144da8161449e565b9050919050565b7f426174636820646f6573206e6f74206578697374000000000000000000000000600082015250565b6000614517601483613b8d565b9150614522826144e1565b602082019050919050565b600060208201905081810360008301526145468161450a565b9050919050565b7f497473206e6f74204469737472696275746f7200000000000000000000000000600082015250565b6000614583601383613b8d565b915061458e8261454d565b602082019050919050565b600060208201905081810360008301526145b281614576565b9050919050565b7f4c6573732050726963652053656e740000000000000000000000000000000000600082015250565b60006145ef600f83613b8d565b91506145fa826145b9565b602082019050919050565b6000602082019050818103600083015261461e816145e2565b9050919050565b600060408201905061463a6000830185613b73565b6146476020830184613b73565b9392505050565b60006080820190506146636000830187613b73565b6146706020830186613d2a565b61467d60408301856139c5565b61468a60608301846139c5565b95945050505050565b7f43616e6e6f7420756e667265657a6520746865207a65726f2061646472657373600082015250565b60006146c9602083613b8d565b91506146d482614693565b602082019050919050565b600060208201905081810360008301526146f8816146bc565b9050919050565b7f426174636820697320616c72656164792070757263686173656420627920616e60008201527f6f74686572206469737472696275746f72000000000000000000000000000000602082015250565b600061475b603183613b8d565b9150614766826146ff565b604082019050919050565b6000602082019050818103600083015261478a8161474e565b9050919050565b7f4261746368206973206e6f7420617661696c61626c6520666f7220707572636860008201527f617365206279204469737472696275746f720000000000000000000000000000602082015250565b60006147ed603283613b8d565b91506147f882614791565b604082019050919050565b6000602082019050818103600083015261481c816147e0565b9050919050565b7f4261746368206861732065787069726564000000000000000000000000000000600082015250565b6000614859601183613b8d565b915061486482614823565b602082019050919050565b600060208201905081810360008301526148888161484c565b9050919050565b7f496e73756666696369656e742050726963652053656e74000000000000000000600082015250565b60006148c5601783613b8d565b91506148d08261488f565b602082019050919050565b600060208201905081810360008301526148f4816148b8565b9050919050565b7f50726f64756374207072696365206d757374206265206772656174657220746860008201527f616e207a65726f00000000000000000000000000000000000000000000000000602082015250565b6000614957602783613b8d565b9150614962826148fb565b604082019050919050565b600060208201905081810360008301526149868161494a565b9050919050565b7f497473206e6f74204d616e756661637475726572000000000000000000000000600082015250565b60006149c3601483613b8d565b91506149ce8261498d565b602082019050919050565b600060208201905081810360008301526149f2816149b6565b9050919050565b7f4d616e75666163747572657220616464726573732063616e6e6f74206265207a60008201527f65726f0000000000000000000000000000000000000000000000000000000000602082015250565b6000614a55602383613b8d565b9150614a60826149f9565b604082019050919050565b60006020820190508181036000830152614a8481614a48565b9050919050565b7f4578706972792064617465206d75737420626520696e2074686520667574757260008201527f6500000000000000000000000000000000000000000000000000000000000000602082015250565b6000614ae7602183613b8d565b9150614af282614a8b565b604082019050919050565b60006020820190508181036000830152614b1681614ada565b9050919050565b7f5072696365206d7573742062652067726561746572207468616e207a65726f00600082015250565b6000614b53601f83613b8d565b9150614b5e82614b1d565b602082019050919050565b60006020820190508181036000830152614b8281614b46565b9050919050565b7f4e487b7100000000000000000000000000000000000000000000000000000000600052601160045260246000fd5b6000614bc3826139bb565b91507fffffffffffffffffffffffffffffffffffffffffffffffffffffffffffffffff8203614bf557614bf4614b89565b5b600182019050919050565b60008160601b9050919050565b6000614c1882614c00565b9050919050565b6000614c2a82614c0d565b9050919050565b614c42614c3d82613a9c565b614c1f565b82525050565b6000819050919050565b614c63614c5e826139bb565b614c48565b82525050565b6000614c758286614c31565b601482019150614c858285614c52565b602082019150614c958284614c52565b602082019150819050949350505050565b7f426174636820697320616c72656164792070757263686173656420627920616e60008201527f6f746865722072657461696c6572000000000000000000000000000000000000602082015250565b6000614d02602e83613b8d565b9150614d0d82614ca6565b604082019050919050565b60006020820190508181036000830152614d3181614cf5565b9050919050565b7f4261746368206973206e6f7420617661696c61626c6520666f7220707572636860008201527f6173652062792052657461696c65720000000000000000000000000000000000602082015250565b6000614d94602f83613b8d565b9150614d9f82614d38565b604082019050919050565b60006020820190508181036000830152614dc381614d87565b9050919050565b7f5061796d656e74206d7573742062652067726561746572207468616e2070726f60008201527f6475637450726963650000000000000000000000000000000000000000000000602082015250565b6000614e26602983613b8d565b9150614e3182614dca565b604082019050919050565b60006020820190508181036000830152614e5581614e19565b9050919050565b7f50726f64756374205072696365206973206e6f74207365740000000000000000600082015250565b6000614e92601883613b8d565b9150614e9d82614e5c565b602082019050919050565b60006020820190508181036000830152614ec181614e85565b9050919050565b6000604082019050614edd6000830185613b73565b614eea60208301846139f9565b939250505056fea2646970667358221220907e4f26c040e4f67892980a2f16f8980dd73436f4790025a68a6a4924467eca64736f6c634300081c0033",
  "linkReferences": {},
  "deployedLinkReferences": {}
}