{
  "_format": "hh-sol-artifact-1",
  "contractName": "BasicMechanism",
  "sourceName": "contracts/BasicMechanism.sol",
  "abi": [
    {
      "inputs": [
        {
          "internalType": "address",
          "name": "priceFeedAddress",
          "type": "address"
        },
        {
          "internalType": "address",
          "name": "escrowAddress",
          "type": "address"
        },
        {
          "internalType": "address",
          "name": "handlingAddresses",
          "type": "address"
        }
      ],
      "stateMutability": "nonpayable",
      "type": "constructor"
    },
    {
      "inputs": [],
      "name": "AccessControlBadConfirmation",
      "type": "error"
    },
    {
      "inputs": [
        {
          "internalType": "address",
          "name": "account",
          "type": "address"
        },
        {
          "internalType": "bytes32",
          "name": "neededRole",
          "type": "bytes32"
        }
      ],
      "name": "AccessControlUnauthorizedAccount",
      "type": "error"
    },
    {
      "inputs": [
        {
          "internalType": "string",
          "name": "role",
          "type": "string"
        },
        {
          "internalType": "address",
          "name": "account",
          "type": "address"
        }
      ],
      "name": "AddressAlreadyExists",
      "type": "error"
    },
    {
      "inputs": [
        {
          "internalType": "address",
          "name": "account",
          "type": "address"
        }
      ],
      "name": "AddressInvalid",
      "type": "error"
    },
    {
      "inputs": [
        {
          "internalType": "uint256",
          "name": "_usdAmount",
          "type": "uint256"
        }
      ],
      "name": "InvalidAmount",
      "type": "error"
    },
    {
      "anonymous": false,
      "inputs": [
        {
          "indexed": false,
          "internalType": "address",
          "name": "account",
          "type": "address"
        }
      ],
      "name": "AddressFrozen",
      "type": "event"
    },
    {
      "anonymous": false,
      "inputs": [
        {
          "indexed": false,
          "internalType": "address",
          "name": "account",
          "type": "address"
        }
      ],
      "name": "AddressUnfrozen",
      "type": "event"
    },
    {
      "anonymous": false,
      "inputs": [
        {
          "indexed": true,
          "internalType": "bytes32",
          "name": "batchId",
          "type": "bytes32"
        },
        {
          "indexed": false,
          "internalType": "uint256",
          "name": "timestamp",
          "type": "uint256"
        }
      ],
      "name": "BatchCreated",
      "type": "event"
    },
    {
      "anonymous": false,
      "inputs": [
        {
          "indexed": true,
          "internalType": "bytes32",
          "name": "batchId",
          "type": "bytes32"
        },
        {
          "indexed": false,
          "internalType": "address",
          "name": "distributor",
          "type": "address"
        },
        {
          "indexed": false,
          "internalType": "enum DrugSupplyChain.BatchStatus",
          "name": "statusEnum",
          "type": "uint8"
        },
        {
          "indexed": false,
          "internalType": "uint256",
          "name": "price",
          "type": "uint256"
        },
        {
          "indexed": false,
          "internalType": "uint256",
          "name": "timestamp",
          "type": "uint256"
        }
      ],
      "name": "DistributerPurchased",
      "type": "event"
    },
    {
      "anonymous": false,
      "inputs": [
        {
          "indexed": true,
          "internalType": "bytes32",
          "name": "batchId",
          "type": "bytes32"
        },
        {
          "indexed": false,
          "internalType": "enum DrugSupplyChain.BatchStatus",
          "name": "statusEnum",
          "type": "uint8"
        },
        {
          "indexed": true,
          "internalType": "address",
          "name": "distributor",
          "type": "address"
        },
        {
          "indexed": false,
          "internalType": "uint256",
          "name": "price",
          "type": "uint256"
        },
        {
          "indexed": false,
          "internalType": "uint256",
          "name": "timestamp",
          "type": "uint256"
        },
        {
          "indexed": false,
          "internalType": "string",
          "name": "reason",
          "type": "string"
        }
      ],
      "name": "EligibleForResell",
      "type": "event"
    },
    {
      "anonymous": false,
      "inputs": [
        {
          "indexed": true,
          "internalType": "bytes32",
          "name": "batchId",
          "type": "bytes32"
        },
        {
          "indexed": true,
          "internalType": "address",
          "name": "to",
          "type": "address"
        },
        {
          "indexed": true,
          "internalType": "uint256",
          "name": "timestamp",
          "type": "uint256"
        },
        {
          "indexed": false,
          "internalType": "bool",
          "name": "refunded",
          "type": "bool"
        },
        {
          "indexed": false,
          "internalType": "string",
          "name": "reason",
          "type": "string"
        }
      ],
      "name": "Refunded",
      "type": "event"
    },
    {
      "anonymous": false,
      "inputs": [
        {
          "indexed": true,
          "internalType": "bytes32",
          "name": "batchId",
          "type": "bytes32"
        },
        {
          "indexed": true,
          "internalType": "address",
          "name": "requester",
          "type": "address"
        },
        {
          "indexed": true,
          "internalType": "uint256",
          "name": "timestamp",
          "type": "uint256"
        },
        {
          "indexed": false,
          "internalType": "bool",
          "name": "approved",
          "type": "bool"
        },
        {
          "indexed": false,
          "internalType": "string",
          "name": "reason",
          "type": "string"
        }
      ],
      "name": "RequestApproved",
      "type": "event"
    },
    {
      "anonymous": false,
      "inputs": [
        {
          "indexed": true,
          "internalType": "bytes32",
          "name": "batchId",
          "type": "bytes32"
        },
        {
          "indexed": false,
          "internalType": "enum DrugSupplyChain.BatchStatus",
          "name": "statusEnum",
          "type": "uint8"
        },
        {
          "indexed": true,
          "internalType": "address",
          "name": "distributor",
          "type": "address"
        },
        {
          "indexed": false,
          "internalType": "uint256",
          "name": "price",
          "type": "uint256"
        },
        {
          "indexed": false,
          "internalType": "uint256",
          "name": "timestamp",
          "type": "uint256"
        }
      ],
      "name": "ResellingDone",
      "type": "event"
    },
    {
      "anonymous": false,
      "inputs": [
        {
          "indexed": true,
          "internalType": "bytes32",
          "name": "batchId",
          "type": "bytes32"
        },
        {
          "indexed": false,
          "internalType": "address",
          "name": "retailer",
          "type": "address"
        },
        {
          "indexed": false,
          "internalType": "enum DrugSupplyChain.BatchStatus",
          "name": "statusEnum",
          "type": "uint8"
        },
        {
          "indexed": false,
          "internalType": "uint256",
          "name": "price",
          "type": "uint256"
        },
        {
          "indexed": false,
          "internalType": "uint256",
          "name": "timestamp",
          "type": "uint256"
        }
      ],
      "name": "RetailerPurchased",
      "type": "event"
    },
    {
      "anonymous": false,
      "inputs": [
        {
          "indexed": true,
          "internalType": "bytes32",
          "name": "batchId",
          "type": "bytes32"
        },
        {
          "indexed": true,
          "internalType": "uint256",
          "name": "timestamp",
          "type": "uint256"
        },
        {
          "indexed": true,
          "internalType": "address",
          "name": "requester",
          "type": "address"
        },
        {
          "indexed": false,
          "internalType": "bool",
          "name": "approved",
          "type": "bool"
        },
        {
          "indexed": false,
          "internalType": "bool",
          "name": "refunded",
          "type": "bool"
        },
        {
          "indexed": false,
          "internalType": "string",
          "name": "reason",
          "type": "string"
        }
      ],
      "name": "ReturnRequested",
      "type": "event"
    },
    {
      "anonymous": false,
      "inputs": [
        {
          "indexed": true,
          "internalType": "bytes32",
          "name": "role",
          "type": "bytes32"
        },
        {
          "indexed": true,
          "internalType": "bytes32",
          "name": "previousAdminRole",
          "type": "bytes32"
        },
        {
          "indexed": true,
          "internalType": "bytes32",
          "name": "newAdminRole",
          "type": "bytes32"
        }
      ],
      "name": "RoleAdminChanged",
      "type": "event"
    },
    {
      "anonymous": false,
      "inputs": [
        {
          "indexed": true,
          "internalType": "bytes32",
          "name": "role",
          "type": "bytes32"
        },
        {
          "indexed": true,
          "internalType": "address",
          "name": "account",
          "type": "address"
        },
        {
          "indexed": true,
          "internalType": "address",
          "name": "sender",
          "type": "address"
        }
      ],
      "name": "RoleGranted",
      "type": "event"
    },
    {
      "anonymous": false,
      "inputs": [
        {
          "indexed": true,
          "internalType": "bytes32",
          "name": "role",
          "type": "bytes32"
        },
        {
          "indexed": true,
          "internalType": "address",
          "name": "account",
          "type": "address"
        },
        {
          "indexed": true,
          "internalType": "address",
          "name": "sender",
          "type": "address"
        }
      ],
      "name": "RoleRevoked",
      "type": "event"
    },
    {
      "inputs": [],
      "name": "DEFAULT_ADMIN_ROLE",
      "outputs": [
        {
          "internalType": "bytes32",
          "name": "",
          "type": "bytes32"
        }
      ],
      "stateMutability": "view",
      "type": "function"
    },
    {
      "inputs": [],
      "name": "DISTRIBUTOR_ROLE",
      "outputs": [
        {
          "internalType": "bytes32",
          "name": "",
          "type": "bytes32"
        }
      ],
      "stateMutability": "view",
      "type": "function"
    },
    {
      "inputs": [],
      "name": "MANUFACTURER_ROLE",
      "outputs": [
        {
          "internalType": "bytes32",
          "name": "",
          "type": "bytes32"
        }
      ],
      "stateMutability": "view",
      "type": "function"
    },
    {
      "inputs": [],
      "name": "RETAILER_ROLE",
      "outputs": [
        {
          "internalType": "bytes32",
          "name": "",
          "type": "bytes32"
        }
      ],
      "stateMutability": "view",
      "type": "function"
    },
    {
      "inputs": [
        {
          "internalType": "address",
          "name": "distributor",
          "type": "address"
        }
      ],
      "name": "addDistributor",
      "outputs": [],
      "stateMutability": "nonpayable",
      "type": "function"
    },
    {
      "inputs": [
        {
          "internalType": "address",
          "name": "manufacturer",
          "type": "address"
        }
      ],
      "name": "addManufacturer",
      "outputs": [],
      "stateMutability": "nonpayable",
      "type": "function"
    },
    {
      "inputs": [
        {
          "internalType": "address",
          "name": "retailer",
          "type": "address"
        }
      ],
      "name": "addRetailer",
      "outputs": [],
      "stateMutability": "nonpayable",
      "type": "function"
    },
    {
      "inputs": [
        {
          "internalType": "uint256",
          "name": "",
          "type": "uint256"
        }
      ],
      "name": "allBatchIds",
      "outputs": [
        {
          "internalType": "bytes32",
          "name": "",
          "type": "bytes32"
        }
      ],
      "stateMutability": "view",
      "type": "function"
    },
    {
      "inputs": [],
      "name": "batchCount",
      "outputs": [
        {
          "internalType": "uint256",
          "name": "",
          "type": "uint256"
        }
      ],
      "stateMutability": "view",
      "type": "function"
    },
    {
      "inputs": [
        {
          "internalType": "address",
          "name": "",
          "type": "address"
        }
      ],
      "name": "batchCounter",
      "outputs": [
        {
          "internalType": "uint256",
          "name": "",
          "type": "uint256"
        }
      ],
      "stateMutability": "view",
      "type": "function"
    },
    {
      "inputs": [
        {
          "internalType": "bytes32",
          "name": "",
          "type": "bytes32"
        }
      ],
      "name": "batchIdToBatch",
      "outputs": [
        {
          "internalType": "bytes32",
          "name": "batchId",
          "type": "bytes32"
        },
        {
          "internalType": "address",
          "name": "manufacturer",
          "type": "address"
        },
        {
          "internalType": "address",
          "name": "distributor",
          "type": "address"
        },
        {
          "internalType": "address",
          "name": "retailer",
          "type": "address"
        },
        {
          "internalType": "uint256",
          "name": "expiryDate",
          "type": "uint256"
        },
        {
          "internalType": "uint256",
          "name": "timestamp",
          "type": "uint256"
        },
        {
          "internalType": "uint256",
          "name": "price",
          "type": "uint256"
        },
        {
          "internalType": "uint256",
          "name": "productPrice",
          "type": "uint256"
        },
        {
          "internalType": "enum DrugSupplyChain.BatchStatus",
          "name": "statusEnum",
          "type": "uint8"
        },
        {
          "internalType": "address",
          "name": "ipfsHash",
          "type": "address"
        }
      ],
      "stateMutability": "view",
      "type": "function"
    },
    {
      "inputs": [
        {
          "internalType": "bytes32",
          "name": "_batchId",
          "type": "bytes32"
        }
      ],
      "name": "batchReceivedDistributor",
      "outputs": [],
      "stateMutability": "nonpayable",
      "type": "function"
    },
    {
      "inputs": [
        {
          "internalType": "bytes32",
          "name": "_batchId",
          "type": "bytes32"
        }
      ],
      "name": "batchReceivedRetailer",
      "outputs": [],
      "stateMutability": "payable",
      "type": "function"
    },
    {
      "inputs": [
        {
          "internalType": "bytes32",
          "name": "_batchId",
          "type": "bytes32"
        },
        {
          "internalType": "uint256",
          "name": "_productPrice",
          "type": "uint256"
        }
      ],
      "name": "buyBatchDistributor",
      "outputs": [],
      "stateMutability": "payable",
      "type": "function"
    },
    {
      "inputs": [
        {
          "internalType": "bytes32",
          "name": "_batchId",
          "type": "bytes32"
        }
      ],
      "name": "buyBatchRetailer",
      "outputs": [],
      "stateMutability": "payable",
      "type": "function"
    },
    {
      "inputs": [
        {
          "internalType": "uint256",
          "name": "_usdAmount",
          "type": "uint256"
        }
      ],
      "name": "calculateEthfromUSD",
      "outputs": [
        {
          "internalType": "uint256",
          "name": "",
          "type": "uint256"
        }
      ],
      "stateMutability": "view",
      "type": "function"
    },
    {
      "inputs": [
        {
          "internalType": "string",
          "name": "roleName",
          "type": "string"
        },
        {
          "internalType": "address",
          "name": "account",
          "type": "address"
        }
      ],
      "name": "checkRole",
      "outputs": [
        {
          "internalType": "bool",
          "name": "",
          "type": "bool"
        }
      ],
      "stateMutability": "view",
      "type": "function"
    },
    {
      "inputs": [
        {
          "internalType": "address",
          "name": "manufacturer",
          "type": "address"
        },
        {
          "internalType": "uint256",
          "name": "expiryDate",
          "type": "uint256"
        },
        {
          "internalType": "uint256",
          "name": "price",
          "type": "uint256"
        },
        {
          "internalType": "address",
          "name": "ipfsHash",
          "type": "address"
        }
      ],
      "name": "createBatch",
      "outputs": [
        {
          "components": [
            {
              "internalType": "bytes32",
              "name": "batchId",
              "type": "bytes32"
            },
            {
              "internalType": "address",
              "name": "manufacturer",
              "type": "address"
            },
            {
              "internalType": "address",
              "name": "distributor",
              "type": "address"
            },
            {
              "internalType": "address",
              "name": "retailer",
              "type": "address"
            },
            {
              "internalType": "uint256",
              "name": "expiryDate",
              "type": "uint256"
            },
            {
              "internalType": "uint256",
              "name": "timestamp",
              "type": "uint256"
            },
            {
              "internalType": "uint256",
              "name": "price",
              "type": "uint256"
            },
            {
              "internalType": "uint256",
              "name": "productPrice",
              "type": "uint256"
            },
            {
              "internalType": "enum DrugSupplyChain.BatchStatus",
              "name": "statusEnum",
              "type": "uint8"
            },
            {
              "internalType": "address",
              "name": "ipfsHash",
              "type": "address"
            }
          ],
          "internalType": "struct DrugSupplyChain.Batch",
          "name": "",
          "type": "tuple"
        }
      ],
      "stateMutability": "nonpayable",
      "type": "function"
    },
    {
      "inputs": [],
      "name": "dataFeed",
      "outputs": [
        {
          "internalType": "contract AggregatorV3Interface",
          "name": "",
          "type": "address"
        }
      ],
      "stateMutability": "view",
      "type": "function"
    },
    {
      "inputs": [],
      "name": "escrowContract",
      "outputs": [
        {
          "internalType": "contract Escrow",
          "name": "",
          "type": "address"
        }
      ],
      "stateMutability": "view",
      "type": "function"
    },
    {
      "inputs": [
        {
          "internalType": "address",
          "name": "account",
          "type": "address"
        }
      ],
      "name": "frozeAddress",
      "outputs": [],
      "stateMutability": "nonpayable",
      "type": "function"
    },
    {
      "inputs": [],
      "name": "getAllBatches",
      "outputs": [
        {
          "internalType": "bytes32[]",
          "name": "",
          "type": "bytes32[]"
        }
      ],
      "stateMutability": "view",
      "type": "function"
    },
    {
      "inputs": [
        {
          "internalType": "bytes32",
          "name": "_batchId",
          "type": "bytes32"
        }
      ],
      "name": "getBatchDetails",
      "outputs": [
        {
          "components": [
            {
              "internalType": "bytes32",
              "name": "batchId",
              "type": "bytes32"
            },
            {
              "internalType": "address",
              "name": "manufacturer",
              "type": "address"
            },
            {
              "internalType": "address",
              "name": "distributor",
              "type": "address"
            },
            {
              "internalType": "address",
              "name": "retailer",
              "type": "address"
            },
            {
              "internalType": "uint256",
              "name": "expiryDate",
              "type": "uint256"
            },
            {
              "internalType": "uint256",
              "name": "timestamp",
              "type": "uint256"
            },
            {
              "internalType": "uint256",
              "name": "price",
              "type": "uint256"
            },
            {
              "internalType": "uint256",
              "name": "productPrice",
              "type": "uint256"
            },
            {
              "internalType": "enum DrugSupplyChain.BatchStatus",
              "name": "statusEnum",
              "type": "uint8"
            },
            {
              "internalType": "address",
              "name": "ipfsHash",
              "type": "address"
            }
          ],
          "internalType": "struct DrugSupplyChain.Batch",
          "name": "",
          "type": "tuple"
        }
      ],
      "stateMutability": "view",
      "type": "function"
    },
    {
      "inputs": [
        {
          "internalType": "bytes32",
          "name": "_batchId",
          "type": "bytes32"
        }
      ],
      "name": "getIpfsHash",
      "outputs": [
        {
          "internalType": "address",
          "name": "",
          "type": "address"
        }
      ],
      "stateMutability": "view",
      "type": "function"
    },
    {
      "inputs": [
        {
          "internalType": "address",
          "name": "owner",
          "type": "address"
        }
      ],
      "name": "getOwnerBatches",
      "outputs": [
        {
          "internalType": "bytes32[]",
          "name": "",
          "type": "bytes32[]"
        }
      ],
      "stateMutability": "view",
      "type": "function"
    },
    {
      "inputs": [
        {
          "internalType": "bytes32",
          "name": "role",
          "type": "bytes32"
        }
      ],
      "name": "getRoleAdmin",
      "outputs": [
        {
          "internalType": "bytes32",
          "name": "",
          "type": "bytes32"
        }
      ],
      "stateMutability": "view",
      "type": "function"
    },
    {
      "inputs": [
        {
          "internalType": "bytes32",
          "name": "role",
          "type": "bytes32"
        },
        {
          "internalType": "address",
          "name": "account",
          "type": "address"
        }
      ],
      "name": "grantRole",
      "outputs": [],
      "stateMutability": "nonpayable",
      "type": "function"
    },
    {
      "inputs": [],
      "name": "handlingAddresses",
      "outputs": [
        {
          "internalType": "contract HandlingAddresses",
          "name": "",
          "type": "address"
        }
      ],
      "stateMutability": "view",
      "type": "function"
    },
    {
      "inputs": [
        {
          "internalType": "bytes32",
          "name": "role",
          "type": "bytes32"
        },
        {
          "internalType": "address",
          "name": "account",
          "type": "address"
        }
      ],
      "name": "hasRole",
      "outputs": [
        {
          "internalType": "bool",
          "name": "",
          "type": "bool"
        }
      ],
      "stateMutability": "view",
      "type": "function"
    },
    {
      "inputs": [
        {
          "internalType": "address",
          "name": "",
          "type": "address"
        }
      ],
      "name": "isFrozen",
      "outputs": [
        {
          "internalType": "bool",
          "name": "",
          "type": "bool"
        }
      ],
      "stateMutability": "view",
      "type": "function"
    },
    {
      "inputs": [],
      "name": "owner",
      "outputs": [
        {
          "internalType": "address",
          "name": "",
          "type": "address"
        }
      ],
      "stateMutability": "view",
      "type": "function"
    },
    {
      "inputs": [
        {
          "internalType": "address",
          "name": "",
          "type": "address"
        },
        {
          "internalType": "uint256",
          "name": "",
          "type": "uint256"
        }
      ],
      "name": "ownerToBatches",
      "outputs": [
        {
          "internalType": "bytes32",
          "name": "",
          "type": "bytes32"
        }
      ],
      "stateMutability": "view",
      "type": "function"
    },
    {
      "inputs": [
        {
          "internalType": "uint256",
          "name": "",
          "type": "uint256"
        }
      ],
      "name": "pendingRequests",
      "outputs": [
        {
          "internalType": "bytes32",
          "name": "batchId",
          "type": "bytes32"
        },
        {
          "internalType": "uint256",
          "name": "timestamp",
          "type": "uint256"
        },
        {
          "internalType": "address",
          "name": "requester",
          "type": "address"
        },
        {
          "internalType": "bool",
          "name": "refunded",
          "type": "bool"
        },
        {
          "internalType": "bool",
          "name": "approved",
          "type": "bool"
        },
        {
          "internalType": "string",
          "name": "reason",
          "type": "string"
        }
      ],
      "stateMutability": "view",
      "type": "function"
    },
    {
      "inputs": [
        {
          "internalType": "address",
          "name": "distributor",
          "type": "address"
        }
      ],
      "name": "removeDistributor",
      "outputs": [],
      "stateMutability": "nonpayable",
      "type": "function"
    },
    {
      "inputs": [
        {
          "internalType": "address",
          "name": "manufacturer",
          "type": "address"
        }
      ],
      "name": "removeManufacturer",
      "outputs": [],
      "stateMutability": "nonpayable",
      "type": "function"
    },
    {
      "inputs": [
        {
          "internalType": "address",
          "name": "retailer",
          "type": "address"
        }
      ],
      "name": "removeRetailer",
      "outputs": [],
      "stateMutability": "nonpayable",
      "type": "function"
    },
    {
      "inputs": [
        {
          "internalType": "bytes32",
          "name": "role",
          "type": "bytes32"
        },
        {
          "internalType": "address",
          "name": "callerConfirmation",
          "type": "address"
        }
      ],
      "name": "renounceRole",
      "outputs": [],
      "stateMutability": "nonpayable",
      "type": "function"
    },
    {
      "inputs": [
        {
          "internalType": "bytes32",
          "name": "",
          "type": "bytes32"
        }
      ],
      "name": "returnRequests",
      "outputs": [
        {
          "internalType": "bytes32",
          "name": "batchId",
          "type": "bytes32"
        },
        {
          "internalType": "uint256",
          "name": "timestamp",
          "type": "uint256"
        },
        {
          "internalType": "address",
          "name": "requester",
          "type": "address"
        },
        {
          "internalType": "bool",
          "name": "refunded",
          "type": "bool"
        },
        {
          "internalType": "bool",
          "name": "approved",
          "type": "bool"
        },
        {
          "internalType": "string",
          "name": "reason",
          "type": "string"
        }
      ],
      "stateMutability": "view",
      "type": "function"
    },
    {
      "inputs": [
        {
          "internalType": "bytes32",
          "name": "role",
          "type": "bytes32"
        },
        {
          "internalType": "address",
          "name": "account",
          "type": "address"
        }
      ],
      "name": "revokeRole",
      "outputs": [],
      "stateMutability": "nonpayable",
      "type": "function"
    },
    {
      "inputs": [
        {
          "internalType": "bytes4",
          "name": "interfaceId",
          "type": "bytes4"
        }
      ],
      "name": "supportsInterface",
      "outputs": [
        {
          "internalType": "bool",
          "name": "",
          "type": "bool"
        }
      ],
      "stateMutability": "view",
      "type": "function"
    },
    {
      "inputs": [
        {
          "internalType": "address",
          "name": "account",
          "type": "address"
        }
      ],
      "name": "unfreezeAddress",
      "outputs": [],
      "stateMutability": "nonpayable",
      "type": "function"
    },
    {
      "inputs": [],
      "name": "withdraw",
      "outputs": [],
      "stateMutability": "nonpayable",
      "type": "function"
    }
  ],
  "bytecode": "0x608060405234801561001057600080fd5b506040516160a83803806160a88339818101604052810190610032919061032a565b8282826100486000801b3361015860201b60201c565b5033600c60006101000a81548173ffffffffffffffffffffffffffffffffffffffff021916908373ffffffffffffffffffffffffffffffffffffffff16021790555081600a60006101000a81548173ffffffffffffffffffffffffffffffffffffffff021916908373ffffffffffffffffffffffffffffffffffffffff16021790555082600960006101000a81548173ffffffffffffffffffffffffffffffffffffffff021916908373ffffffffffffffffffffffffffffffffffffffff16021790555080600b60006101000a81548173ffffffffffffffffffffffffffffffffffffffff021916908373ffffffffffffffffffffffffffffffffffffffff16021790555050505050505061037d565b600061016a838361025560201b60201c565b61024a57600160008085815260200190815260200160002060000160008473ffffffffffffffffffffffffffffffffffffffff1673ffffffffffffffffffffffffffffffffffffffff16815260200190815260200160002060006101000a81548160ff0219169083151502179055506101e76102bf60201b60201c565b73ffffffffffffffffffffffffffffffffffffffff168273ffffffffffffffffffffffffffffffffffffffff16847f2f8788117e7eff1d82e926ec794901d17c78024a50270940304540a733656f0d60405160405180910390a46001905061024f565b600090505b92915050565b600080600084815260200190815260200160002060000160008373ffffffffffffffffffffffffffffffffffffffff1673ffffffffffffffffffffffffffffffffffffffff16815260200190815260200160002060009054906101000a900460ff16905092915050565b600033905090565b600080fd5b600073ffffffffffffffffffffffffffffffffffffffff82169050919050565b60006102f7826102cc565b9050919050565b610307816102ec565b811461031257600080fd5b50565b600081519050610324816102fe565b92915050565b600080600060608486031215610343576103426102c7565b5b600061035186828701610315565b935050602061036286828701610315565b925050604061037386828701610315565b9150509250925092565b615d1c8061038c6000396000f3fe6080604052600436106102515760003560e01c8063965288b011610139578063c1c460a6116100b6578063e58398361161007a578063e583983614610915578063e80e076b14610952578063e94a741e1461097d578063eb1fbf1514610999578063f0bd87cc146109d6578063fa031f8414610a0157610251565b8063c1c460a61461081c578063cf30c70514610847578063d547741f14610884578063e42a96e7146108ad578063e477a26c146108d857610251565b8063a217fddf116100fd578063a217fddf14610746578063b21a7b3e14610771578063b26c196a146107ae578063b75746ab146107d7578063bfb80547146107f357610251565b8063965288b01461063f57806399fd9cfb1461066a5780639de7c3b7146106935780639e42ff90146106d95780639fb655291461070457610251565b806357c1f9e2116101d257806370099ec81161019657806370099ec81461051f5780637026fe9c146105485780637250e224146105855780638da5cb5b146105ae5780638ec4f505146105d957806391d148541461060257610251565b806357c1f9e21461042a5780635f8a5afa14610453578063606b5c421461047c5780636a0f9f70146104b95780636a75323f146104f657610251565b80632f2ff15d116102195780632f2ff15d1461036357806336568abe1461038c5780633c652a9a146103b55780633ccfd60b146103f75780634e4fddb01461040e57610251565b806301ffc9a71461025657806306f13056146102935780632115e7bf146102be578063248a9ca3146102e9578063290b17ec14610326575b600080fd5b34801561026257600080fd5b5061027d60048036038101906102789190614197565b610a3e565b60405161028a91906141df565b60405180910390f35b34801561029f57600080fd5b506102a8610ab8565b6040516102b59190614213565b60405180910390f35b3480156102ca57600080fd5b506102d3610abe565b6040516102e09190614247565b60405180910390f35b3480156102f557600080fd5b50610310600480360381019061030b919061428e565b610ae2565b60405161031d9190614247565b60405180910390f35b34801561033257600080fd5b5061034d600480360381019061034891906142e7565b610b01565b60405161035a9190614247565b60405180910390f35b34801561036f57600080fd5b5061038a60048036038101906103859190614372565b610b25565b005b34801561039857600080fd5b506103b360048036038101906103ae9190614372565b610b47565b005b3480156103c157600080fd5b506103dc60048036038101906103d791906142e7565b610bc2565b6040516103ee96959493929190614451565b60405180910390f35b34801561040357600080fd5b5061040c610cd0565b005b6104286004803603810190610423919061428e565b610e03565b005b34801561043657600080fd5b50610451600480360381019061044c91906144b9565b611152565b005b34801561045f57600080fd5b5061047a600480360381019061047591906144b9565b61118d565b005b34801561048857600080fd5b506104a3600480360381019061049e91906142e7565b61137d565b6040516104b09190614213565b60405180910390f35b3480156104c557600080fd5b506104e060048036038101906104db91906144b9565b611442565b6040516104ed9190614213565b60405180910390f35b34801561050257600080fd5b5061051d600480360381019061051891906144b9565b61145a565b005b34801561052b57600080fd5b50610546600480360381019061054191906144b9565b611495565b005b34801561055457600080fd5b5061056f600480360381019061056a919061461b565b6114d0565b60405161057c91906141df565b60405180910390f35b34801561059157600080fd5b506105ac60048036038101906105a791906144b9565b611625565b005b3480156105ba57600080fd5b506105c3611815565b6040516105d09190614677565b60405180910390f35b3480156105e557600080fd5b5061060060048036038101906105fb91906144b9565b61183b565b005b34801561060e57600080fd5b5061062960048036038101906106249190614372565b611a2b565b60405161063691906141df565b60405180910390f35b34801561064b57600080fd5b50610654611a95565b6040516106619190614247565b60405180910390f35b34801561067657600080fd5b50610691600480360381019061068c91906144b9565b611ab9565b005b34801561069f57600080fd5b506106ba60048036038101906106b5919061428e565b611c48565b6040516106d09a99989796959493929190614709565b60405180910390f35b3480156106e557600080fd5b506106ee611d29565b6040516106fb9190614804565b60405180910390f35b34801561071057600080fd5b5061072b6004803603810190610726919061428e565b611d4f565b60405161073d96959493929190614451565b60405180910390f35b34801561075257600080fd5b5061075b611e4d565b6040516107689190614247565b60405180910390f35b34801561077d57600080fd5b506107986004803603810190610793919061428e565b611e54565b6040516107a59190614927565b60405180910390f35b3480156107ba57600080fd5b506107d560048036038101906107d0919061428e565b6120a2565b005b6107f160048036038101906107ec9190614943565b6123f2565b005b3480156107ff57600080fd5b5061081a600480360381019061081591906144b9565b61279f565b005b34801561082857600080fd5b506108316128ae565b60405161083e91906149a4565b60405180910390f35b34801561085357600080fd5b5061086e600480360381019061086991906149bf565b6128d4565b60405161087b9190614247565b60405180910390f35b34801561089057600080fd5b506108ab60048036038101906108a69190614372565b612905565b005b3480156108b957600080fd5b506108c2612927565b6040516108cf9190614a20565b60405180910390f35b3480156108e457600080fd5b506108ff60048036038101906108fa9190614a3b565b61294d565b60405161090c9190614927565b60405180910390f35b34801561092157600080fd5b5061093c600480360381019061093791906144b9565b612a09565b60405161094991906141df565b60405180910390f35b34801561095e57600080fd5b50610967612a29565b6040516109749190614b51565b60405180910390f35b6109976004803603810190610992919061428e565b612a81565b005b3480156109a557600080fd5b506109c060048036038101906109bb919061428e565b612db7565b6040516109cd9190614677565b60405180910390f35b3480156109e257600080fd5b506109eb612e52565b6040516109f89190614247565b60405180910390f35b348015610a0d57600080fd5b50610a286004803603810190610a2391906144b9565b612e76565b604051610a359190614b51565b60405180910390f35b60007f7965db0b000000000000000000000000000000000000000000000000000000007bffffffffffffffffffffffffffffffffffffffffffffffffffffffff1916827bffffffffffffffffffffffffffffffffffffffffffffffffffffffff19161480610ab15750610ab082612f0d565b5b9050919050565b60085481565b7f2a5f906c256a5d799494fcd066e1f6c077689de1cdb65052a1624de4bace99bf81565b6000806000838152602001908152602001600020600101549050919050565b60078181548110610b1157600080fd5b906000526020600020016000915090505481565b610b2e82610ae2565b610b3781612f77565b610b418383612f8b565b50505050565b610b4f61307c565b73ffffffffffffffffffffffffffffffffffffffff168173ffffffffffffffffffffffffffffffffffffffff1614610bb3576040517f6697b23200000000000000000000000000000000000000000000000000000000815260040160405180910390fd5b610bbd8282613084565b505050565b60068181548110610bd257600080fd5b90600052602060002090600402016000915090508060000154908060010154908060020160009054906101000a900473ffffffffffffffffffffffffffffffffffffffff16908060020160149054906101000a900460ff16908060020160159054906101000a900460ff1690806003018054610c4d90614ba2565b80601f0160208091040260200160405190810160405280929190818152602001828054610c7990614ba2565b8015610cc65780601f10610c9b57610100808354040283529160200191610cc6565b820191906000526020600020905b815481529060010190602001808311610ca957829003601f168201915b5050505050905086565b600b60009054906101000a900473ffffffffffffffffffffffffffffffffffffffff1673ffffffffffffffffffffffffffffffffffffffff166391d148546000801b336040518363ffffffff1660e01b8152600401610d30929190614bd3565b602060405180830381865afa158015610d4d573d6000803e3d6000fd5b505050506040513d601f19601f82011682018060405250810190610d719190614c28565b50600a60009054906101000a900473ffffffffffffffffffffffffffffffffffffffff1673ffffffffffffffffffffffffffffffffffffffff16630357371d33476040518363ffffffff1660e01b8152600401610dcf929190614c55565b600060405180830381600087803b158015610de957600080fd5b505af1158015610dfd573d6000803e3d6000fd5b50505050565b600160003373ffffffffffffffffffffffffffffffffffffffff1673ffffffffffffffffffffffffffffffffffffffff16815260200190815260200160002060009054906101000a900460ff1615610e90576040517f08c379a0000000000000000000000000000000000000000000000000000000008152600401610e8790614cca565b60405180910390fd5b600b60009054906101000a900473ffffffffffffffffffffffffffffffffffffffff1673ffffffffffffffffffffffffffffffffffffffff166391d148547f2a5f906c256a5d799494fcd066e1f6c077689de1cdb65052a1624de4bace99bf336040518363ffffffff1660e01b8152600401610f0d929190614bd3565b602060405180830381865afa158015610f2a573d6000803e3d6000fd5b505050506040513d601f19601f82011682018060405250810190610f4e9190614c28565b610f8d576040517f08c379a0000000000000000000000000000000000000000000000000000000008152600401610f8490614d36565b60405180910390fd5b3373ffffffffffffffffffffffffffffffffffffffff166003600083815260200190815260200160002060030160009054906101000a900473ffffffffffffffffffffffffffffffffffffffff1673ffffffffffffffffffffffffffffffffffffffff160361111457600380600083815260200190815260200160002060080160006101000a81548160ff0219169083600881111561102f5761102e614692565b5b0217905550600a60009054906101000a900473ffffffffffffffffffffffffffffffffffffffff1673ffffffffffffffffffffffffffffffffffffffff16630357371d6003600084815260200190815260200160002060020160009054906101000a900473ffffffffffffffffffffffffffffffffffffffff1660036000858152602001908152602001600020600701546040518363ffffffff1660e01b81526004016110dd929190614c55565b600060405180830381600087803b1580156110f757600080fd5b505af115801561110b573d6000803e3d6000fd5b5050505061114f565b6040517f08c379a000000000000000000000000000000000000000000000000000000000815260040161114690614dc8565b60405180910390fd5b50565b6000801b61115f81612f77565b6111897ffbd454f36a7e1a388bd6fc3ab10d434aa4578f811acbbcf33afb1c697486313c83612905565b5050565b6000801b61119a81612f77565b816111c57feefb95e842a3287179d933b4460be539a1d5af11aa8b325bb45c5c8dc92de4ed82611a2b565b1561120757806040517f375795b90000000000000000000000000000000000000000000000000000000081526004016111fe9190614e34565b60405180910390fd5b6112317f2a5f906c256a5d799494fcd066e1f6c077689de1cdb65052a1624de4bace99bf82611a2b565b1561127357806040517f375795b900000000000000000000000000000000000000000000000000000000815260040161126a9190614eae565b60405180910390fd5b61129d7ffbd454f36a7e1a388bd6fc3ab10d434aa4578f811acbbcf33afb1c697486313c82611a2b565b156112df57806040517f375795b90000000000000000000000000000000000000000000000000000000081526004016112d69190614f28565b60405180910390fd5b600073ffffffffffffffffffffffffffffffffffffffff168173ffffffffffffffffffffffffffffffffffffffff160361134e576040517f08c379a000000000000000000000000000000000000000000000000000000000815260040161134590614cca565b60405180910390fd5b6113787feefb95e842a3287179d933b4460be539a1d5af11aa8b325bb45c5c8dc92de4ed84610b25565b505050565b600080611388613176565b9050600081116113cd576040517f08c379a00000000000000000000000000000000000000000000000000000000081526004016113c490614fa2565b60405180910390fd5b6000831161141257826040517f3728b83d0000000000000000000000000000000000000000000000000000000081526004016114099190614213565b60405180910390fd5b6000816a52b7d2dcc80cd2e40000008561142c9190614ff1565b6114369190615062565b90508092505050919050565b60026020528060005260406000206000915090505481565b6000801b61146781612f77565b6114917feefb95e842a3287179d933b4460be539a1d5af11aa8b325bb45c5c8dc92de4ed83612905565b5050565b6000801b6114a281612f77565b6114cc7f2a5f906c256a5d799494fcd066e1f6c077689de1cdb65052a1624de4bace99bf83612905565b5050565b6000807feefb95e842a3287179d933b4460be539a1d5af11aa8b325bb45c5c8dc92de4ed848051906020012003611529577feefb95e842a3287179d933b4460be539a1d5af11aa8b325bb45c5c8dc92de4ed9050611612565b7ffbd454f36a7e1a388bd6fc3ab10d434aa4578f811acbbcf33afb1c697486313c84805190602001200361157f577ffbd454f36a7e1a388bd6fc3ab10d434aa4578f811acbbcf33afb1c697486313c9050611611565b7f2a5f906c256a5d799494fcd066e1f6c077689de1cdb65052a1624de4bace99bf8480519060200120036115d5577f2a5f906c256a5d799494fcd066e1f6c077689de1cdb65052a1624de4bace99bf9050611610565b6040517f08c379a0000000000000000000000000000000000000000000000000000000008152600401611607906150df565b60405180910390fd5b5b5b61161c8184611a2b565b91505092915050565b6000801b61163281612f77565b8161165d7feefb95e842a3287179d933b4460be539a1d5af11aa8b325bb45c5c8dc92de4ed82611a2b565b1561169f57806040517f375795b90000000000000000000000000000000000000000000000000000000081526004016116969190614e34565b60405180910390fd5b6116c97f2a5f906c256a5d799494fcd066e1f6c077689de1cdb65052a1624de4bace99bf82611a2b565b1561170b57806040517f375795b90000000000000000000000000000000000000000000000000000000081526004016117029190614eae565b60405180910390fd5b6117357ffbd454f36a7e1a388bd6fc3ab10d434aa4578f811acbbcf33afb1c697486313c82611a2b565b1561177757806040517f375795b900000000000000000000000000000000000000000000000000000000815260040161176e9190614f28565b60405180910390fd5b600073ffffffffffffffffffffffffffffffffffffffff168173ffffffffffffffffffffffffffffffffffffffff16036117e6576040517f08c379a00000000000000000000000000000000000000000000000000000000081526004016117dd90614cca565b60405180910390fd5b6118107ffbd454f36a7e1a388bd6fc3ab10d434aa4578f811acbbcf33afb1c697486313c84610b25565b505050565b600c60009054906101000a900473ffffffffffffffffffffffffffffffffffffffff1681565b6000801b61184881612f77565b816118737feefb95e842a3287179d933b4460be539a1d5af11aa8b325bb45c5c8dc92de4ed82611a2b565b156118b557806040517f375795b90000000000000000000000000000000000000000000000000000000081526004016118ac9190614e34565b60405180910390fd5b6118df7f2a5f906c256a5d799494fcd066e1f6c077689de1cdb65052a1624de4bace99bf82611a2b565b1561192157806040517f375795b90000000000000000000000000000000000000000000000000000000081526004016119189190614eae565b60405180910390fd5b61194b7ffbd454f36a7e1a388bd6fc3ab10d434aa4578f811acbbcf33afb1c697486313c82611a2b565b1561198d57806040517f375795b90000000000000000000000000000000000000000000000000000000081526004016119849190614f28565b60405180910390fd5b600073ffffffffffffffffffffffffffffffffffffffff168173ffffffffffffffffffffffffffffffffffffffff16036119fc576040517f08c379a00000000000000000000000000000000000000000000000000000000081526004016119f390614cca565b60405180910390fd5b611a267f2a5f906c256a5d799494fcd066e1f6c077689de1cdb65052a1624de4bace99bf84610b25565b505050565b600080600084815260200190815260200160002060000160008373ffffffffffffffffffffffffffffffffffffffff1673ffffffffffffffffffffffffffffffffffffffff16815260200190815260200160002060009054906101000a900460ff16905092915050565b7feefb95e842a3287179d933b4460be539a1d5af11aa8b325bb45c5c8dc92de4ed81565b6000801b611ac681612f77565b600073ffffffffffffffffffffffffffffffffffffffff168273ffffffffffffffffffffffffffffffffffffffff1603611b35576040517f08c379a0000000000000000000000000000000000000000000000000000000008152600401611b2c9061514b565b60405180910390fd5b60018060008473ffffffffffffffffffffffffffffffffffffffff1673ffffffffffffffffffffffffffffffffffffffff16815260200190815260200160002060006101000a81548160ff021916908315150217905550611bb67feefb95e842a3287179d933b4460be539a1d5af11aa8b325bb45c5c8dc92de4ed83613084565b50611be17ffbd454f36a7e1a388bd6fc3ab10d434aa4578f811acbbcf33afb1c697486313c83613084565b50611c0c7f2a5f906c256a5d799494fcd066e1f6c077689de1cdb65052a1624de4bace99bf83613084565b507f90811a8edd3b3c17eeaefffc17f639cc69145d41a359c9843994dc253820369082604051611c3c9190614677565b60405180910390a15050565b60036020528060005260406000206000915090508060000154908060010160009054906101000a900473ffffffffffffffffffffffffffffffffffffffff16908060020160009054906101000a900473ffffffffffffffffffffffffffffffffffffffff16908060030160009054906101000a900473ffffffffffffffffffffffffffffffffffffffff16908060040154908060050154908060060154908060070154908060080160009054906101000a900460ff16908060080160019054906101000a900473ffffffffffffffffffffffffffffffffffffffff1690508a565b600960009054906101000a900473ffffffffffffffffffffffffffffffffffffffff1681565b60046020528060005260406000206000915090508060000154908060010154908060020160009054906101000a900473ffffffffffffffffffffffffffffffffffffffff16908060020160149054906101000a900460ff16908060020160159054906101000a900460ff1690806003018054611dca90614ba2565b80601f0160208091040260200160405190810160405280929190818152602001828054611df690614ba2565b8015611e435780601f10611e1857610100808354040283529160200191611e43565b820191906000526020600020905b815481529060010190602001808311611e2657829003601f168201915b5050505050905086565b6000801b81565b611e5c61406b565b6000801b600360008481526020019081526020016000206000015403611eb7576040517f08c379a0000000000000000000000000000000000000000000000000000000008152600401611eae906151b7565b60405180910390fd5b6003600083815260200190815260200160002060405180610140016040529081600082015481526020016001820160009054906101000a900473ffffffffffffffffffffffffffffffffffffffff1673ffffffffffffffffffffffffffffffffffffffff1673ffffffffffffffffffffffffffffffffffffffff1681526020016002820160009054906101000a900473ffffffffffffffffffffffffffffffffffffffff1673ffffffffffffffffffffffffffffffffffffffff1673ffffffffffffffffffffffffffffffffffffffff1681526020016003820160009054906101000a900473ffffffffffffffffffffffffffffffffffffffff1673ffffffffffffffffffffffffffffffffffffffff1673ffffffffffffffffffffffffffffffffffffffff168152602001600482015481526020016005820154815260200160068201548152602001600782015481526020016008820160009054906101000a900460ff16600881111561202f5761202e614692565b5b600881111561204157612040614692565b5b81526020016008820160019054906101000a900473ffffffffffffffffffffffffffffffffffffffff1673ffffffffffffffffffffffffffffffffffffffff1673ffffffffffffffffffffffffffffffffffffffff16815250509050919050565b600160003373ffffffffffffffffffffffffffffffffffffffff1673ffffffffffffffffffffffffffffffffffffffff16815260200190815260200160002060009054906101000a900460ff161561212f576040517f08c379a000000000000000000000000000000000000000000000000000000000815260040161212690614cca565b60405180910390fd5b600b60009054906101000a900473ffffffffffffffffffffffffffffffffffffffff1673ffffffffffffffffffffffffffffffffffffffff166391d148547ffbd454f36a7e1a388bd6fc3ab10d434aa4578f811acbbcf33afb1c697486313c336040518363ffffffff1660e01b81526004016121ac929190614bd3565b602060405180830381865afa1580156121c9573d6000803e3d6000fd5b505050506040513d601f19601f820116820180604052508101906121ed9190614c28565b61222c576040517f08c379a000000000000000000000000000000000000000000000000000000000815260040161222390615223565b60405180910390fd5b3373ffffffffffffffffffffffffffffffffffffffff166003600083815260200190815260200160002060020160009054906101000a900473ffffffffffffffffffffffffffffffffffffffff1673ffffffffffffffffffffffffffffffffffffffff16036123b45760016003600083815260200190815260200160002060080160006101000a81548160ff021916908360088111156122cf576122ce614692565b5b0217905550600a60009054906101000a900473ffffffffffffffffffffffffffffffffffffffff1673ffffffffffffffffffffffffffffffffffffffff16630357371d6003600084815260200190815260200160002060010160009054906101000a900473ffffffffffffffffffffffffffffffffffffffff1660036000858152602001908152602001600020600601546040518363ffffffff1660e01b815260040161237d929190614c55565b600060405180830381600087803b15801561239757600080fd5b505af11580156123ab573d6000803e3d6000fd5b505050506123ef565b6040517f08c379a00000000000000000000000000000000000000000000000000000000081526004016123e690614dc8565b60405180910390fd5b50565b600160003373ffffffffffffffffffffffffffffffffffffffff1673ffffffffffffffffffffffffffffffffffffffff16815260200190815260200160002060009054906101000a900460ff161561247f576040517f08c379a000000000000000000000000000000000000000000000000000000000815260040161247690614cca565b60405180910390fd5b6124898282613217565b60036000838152602001908152602001600020600601543410156124e2576040517f08c379a00000000000000000000000000000000000000000000000000000000081526004016124d99061528f565b60405180910390fd5b600a60009054906101000a900473ffffffffffffffffffffffffffffffffffffffff1673ffffffffffffffffffffffffffffffffffffffff1663ad7fadc534336003600087815260200190815260200160002060010160009054906101000a900473ffffffffffffffffffffffffffffffffffffffff166040518463ffffffff1660e01b81526004016125769291906152af565b6000604051808303818588803b15801561258f57600080fd5b505af11580156125a3573d6000803e3d6000fd5b5050505050806003600084815260200190815260200160002060070181905550426003600084815260200190815260200160002060050181905550336003600084815260200190815260200160002060020160006101000a81548173ffffffffffffffffffffffffffffffffffffffff021916908373ffffffffffffffffffffffffffffffffffffffff160217905550600560003373ffffffffffffffffffffffffffffffffffffffff1673ffffffffffffffffffffffffffffffffffffffff16815260200190815260200160002082908060018154018082558091505060019003906000526020600020016000909190919091505560016003600084815260200190815260200160002060080160006101000a81548160ff021916908360088111156126d3576126d2614692565b5b0217905550817f78dec01f974668793fa9048dc94c45a25b01bbabc6b89300c8ed2995d74005d56003600085815260200190815260200160002060020160009054906101000a900473ffffffffffffffffffffffffffffffffffffffff166003600086815260200190815260200160002060080160009054906101000a900460ff166003600087815260200190815260200160002060060154600360008881526020019081526020016000206005015460405161279394939291906152d8565b60405180910390a25050565b6000801b6127ac81612f77565b600073ffffffffffffffffffffffffffffffffffffffff168273ffffffffffffffffffffffffffffffffffffffff160361281b576040517f08c379a000000000000000000000000000000000000000000000000000000000815260040161281290615369565b60405180910390fd5b6000600160008473ffffffffffffffffffffffffffffffffffffffff1673ffffffffffffffffffffffffffffffffffffffff16815260200190815260200160002060006101000a81548160ff0219169083151502179055507fc3776b472ebf54114339eec9e4dc924e7ce307a97f5c1ee72b6d474e6e5e8b7c826040516128a29190614677565b60405180910390a15050565b600b60009054906101000a900473ffffffffffffffffffffffffffffffffffffffff1681565b600560205281600052604060002081815481106128f057600080fd5b90600052602060002001600091509150505481565b61290e82610ae2565b61291781612f77565b6129218383613084565b50505050565b600a60009054906101000a900473ffffffffffffffffffffffffffffffffffffffff1681565b61295561406b565b600160003373ffffffffffffffffffffffffffffffffffffffff1673ffffffffffffffffffffffffffffffffffffffff16815260200190815260200160002060009054906101000a900460ff16156129e2576040517f08c379a00000000000000000000000000000000000000000000000000000000081526004016129d990614cca565b60405180910390fd5b6129ed858585613596565b60006129fb8686868661388a565b905080915050949350505050565b60016020528060005260406000206000915054906101000a900460ff1681565b60606007805480602002602001604051908101604052809291908181526020018280548015612a7757602002820191906000526020600020905b815481526020019060010190808311612a63575b5050505050905090565b600160003373ffffffffffffffffffffffffffffffffffffffff1673ffffffffffffffffffffffffffffffffffffffff16815260200190815260200160002060009054906101000a900460ff1615612b0e576040517f08c379a0000000000000000000000000000000000000000000000000000000008152600401612b0590614cca565b60405180910390fd5b612b1781613c86565b600a60009054906101000a900473ffffffffffffffffffffffffffffffffffffffff1673ffffffffffffffffffffffffffffffffffffffff1663ad7fadc534336003600086815260200190815260200160002060020160009054906101000a900473ffffffffffffffffffffffffffffffffffffffff166040518463ffffffff1660e01b8152600401612bab9291906152af565b6000604051808303818588803b158015612bc457600080fd5b505af1158015612bd8573d6000803e3d6000fd5b5050505050426003600083815260200190815260200160002060050181905550336003600083815260200190815260200160002060030160006101000a81548173ffffffffffffffffffffffffffffffffffffffff021916908373ffffffffffffffffffffffffffffffffffffffff160217905550600560003373ffffffffffffffffffffffffffffffffffffffff1673ffffffffffffffffffffffffffffffffffffffff168152602001908152602001600020819080600181540180825580915050600190039060005260206000200160009091909190915055600380600083815260200190815260200160002060080160006101000a81548160ff02191690836008811115612cec57612ceb614692565b5b0217905550807fd5bf0453cd492c459ba9477de283c3662783c2fb8a03df42555d15741b1848d46003600084815260200190815260200160002060030160009054906101000a900473ffffffffffffffffffffffffffffffffffffffff166003600085815260200190815260200160002060080160009054906101000a900460ff1660036000868152602001908152602001600020600601546003600087815260200190815260200160002060050154604051612dac94939291906152d8565b60405180910390a250565b60008060001b600360008481526020019081526020016000206000015403612e14576040517f08c379a0000000000000000000000000000000000000000000000000000000008152600401612e0b906151b7565b60405180910390fd5b6003600083815260200190815260200160002060080160019054906101000a900473ffffffffffffffffffffffffffffffffffffffff169050919050565b7ffbd454f36a7e1a388bd6fc3ab10d434aa4578f811acbbcf33afb1c697486313c81565b6060600560008373ffffffffffffffffffffffffffffffffffffffff1673ffffffffffffffffffffffffffffffffffffffff168152602001908152602001600020805480602002602001604051908101604052809291908181526020018280548015612f0157602002820191906000526020600020905b815481526020019060010190808311612eed575b50505050509050919050565b60007f01ffc9a7000000000000000000000000000000000000000000000000000000007bffffffffffffffffffffffffffffffffffffffffffffffffffffffff1916827bffffffffffffffffffffffffffffffffffffffffffffffffffffffff1916149050919050565b612f8881612f8361307c565b61401a565b50565b6000612f978383611a2b565b61307157600160008085815260200190815260200160002060000160008473ffffffffffffffffffffffffffffffffffffffff1673ffffffffffffffffffffffffffffffffffffffff16815260200190815260200160002060006101000a81548160ff02191690831515021790555061300e61307c565b73ffffffffffffffffffffffffffffffffffffffff168273ffffffffffffffffffffffffffffffffffffffff16847f2f8788117e7eff1d82e926ec794901d17c78024a50270940304540a733656f0d60405160405180910390a460019050613076565b600090505b92915050565b600033905090565b60006130908383611a2b565b1561316b57600080600085815260200190815260200160002060000160008473ffffffffffffffffffffffffffffffffffffffff1673ffffffffffffffffffffffffffffffffffffffff16815260200190815260200160002060006101000a81548160ff02191690831515021790555061310861307c565b73ffffffffffffffffffffffffffffffffffffffff168273ffffffffffffffffffffffffffffffffffffffff16847ff6391f5c32d9c69d2a47ea670b442974b53935d1edc7fd64eb21e047a839171b60405160405180910390a460019050613170565b600090505b92915050565b600080600960009054906101000a900473ffffffffffffffffffffffffffffffffffffffff1673ffffffffffffffffffffffffffffffffffffffff1663feaf968c6040518163ffffffff1660e01b815260040160a060405180830381865afa1580156131e6573d6000803e3d6000fd5b505050506040513d601f19601f8201168201806040525081019061320a9190615416565b5050509150508091505090565b600b60009054906101000a900473ffffffffffffffffffffffffffffffffffffffff1673ffffffffffffffffffffffffffffffffffffffff166391d148547ffbd454f36a7e1a388bd6fc3ab10d434aa4578f811acbbcf33afb1c697486313c336040518363ffffffff1660e01b8152600401613294929190614bd3565b602060405180830381865afa1580156132b1573d6000803e3d6000fd5b505050506040513d601f19601f820116820180604052508101906132d59190614c28565b613314576040517f08c379a000000000000000000000000000000000000000000000000000000000815260040161330b90615223565b60405180910390fd5b600073ffffffffffffffffffffffffffffffffffffffff166003600084815260200190815260200160002060020160009054906101000a900473ffffffffffffffffffffffffffffffffffffffff1673ffffffffffffffffffffffffffffffffffffffff16146133b9576040517f08c379a00000000000000000000000000000000000000000000000000000000081526004016133b090615503565b60405180910390fd5b6000801b600360008481526020019081526020016000206000015403613414576040517f08c379a000000000000000000000000000000000000000000000000000000000815260040161340b906151b7565b60405180910390fd5b6000600881111561342857613427614692565b5b6003600084815260200190815260200160002060080160009054906101000a900460ff16600881111561345e5761345d614692565b5b1461349e576040517f08c379a000000000000000000000000000000000000000000000000000000000815260040161349590615595565b60405180910390fd5b426003600084815260200190815260200160002060040154116134f6576040517f08c379a00000000000000000000000000000000000000000000000000000000081526004016134ed90615601565b60405180910390fd5b600360008381526020019081526020016000206006015434101561354f576040517f08c379a00000000000000000000000000000000000000000000000000000000081526004016135469061566d565b60405180910390fd5b60008111613592576040517f08c379a0000000000000000000000000000000000000000000000000000000008152600401613589906156ff565b60405180910390fd5b5050565b600b60009054906101000a900473ffffffffffffffffffffffffffffffffffffffff1673ffffffffffffffffffffffffffffffffffffffff166391d148547feefb95e842a3287179d933b4460be539a1d5af11aa8b325bb45c5c8dc92de4ed336040518363ffffffff1660e01b8152600401613613929190614bd3565b602060405180830381865afa158015613630573d6000803e3d6000fd5b505050506040513d601f19601f820116820180604052508101906136549190614c28565b613693576040517f08c379a000000000000000000000000000000000000000000000000000000000815260040161368a9061576b565b60405180910390fd5b600b60009054906101000a900473ffffffffffffffffffffffffffffffffffffffff1673ffffffffffffffffffffffffffffffffffffffff166391d148547feefb95e842a3287179d933b4460be539a1d5af11aa8b325bb45c5c8dc92de4ed856040518363ffffffff1660e01b8152600401613710929190614bd3565b602060405180830381865afa15801561372d573d6000803e3d6000fd5b505050506040513d601f19601f820116820180604052508101906137519190614c28565b613790576040517f08c379a0000000000000000000000000000000000000000000000000000000008152600401613787906157fd565b60405180910390fd5b600073ffffffffffffffffffffffffffffffffffffffff168373ffffffffffffffffffffffffffffffffffffffff16036137ff576040517f08c379a00000000000000000000000000000000000000000000000000000000081526004016137f69061588f565b60405180910390fd5b42821015613842576040517f08c379a000000000000000000000000000000000000000000000000000000000815260040161383990615921565b60405180910390fd5b60008111613885576040517f08c379a000000000000000000000000000000000000000000000000000000000815260040161387c9061598d565b60405180910390fd5b505050565b61389261406b565b61389a61406b565b600081610100019060088111156138b4576138b3614692565b5b908160088111156138c8576138c7614692565b5b81525050428160a00181815250508281610120019073ffffffffffffffffffffffffffffffffffffffff16908173ffffffffffffffffffffffffffffffffffffffff168152505060086000815480929190613922906159ad565b919050555085816020019073ffffffffffffffffffffffffffffffffffffffff16908173ffffffffffffffffffffffffffffffffffffffff168152505084816080018181525050838160c00181815250506000600260003373ffffffffffffffffffffffffffffffffffffffff1673ffffffffffffffffffffffffffffffffffffffff16815260200190815260200160002060008154809291906139c5906159ad565b91905055905081602001518260a00151826040516020016139e893929190615a5e565b604051602081830303815290604052805190602001208260000181815250506007826000015190806001815401808255809150506001900390600052602060002001600090919091909150558160036000846000015181526020019081526020016000206000820151816000015560208201518160010160006101000a81548173ffffffffffffffffffffffffffffffffffffffff021916908373ffffffffffffffffffffffffffffffffffffffff16021790555060408201518160020160006101000a81548173ffffffffffffffffffffffffffffffffffffffff021916908373ffffffffffffffffffffffffffffffffffffffff16021790555060608201518160030160006101000a81548173ffffffffffffffffffffffffffffffffffffffff021916908373ffffffffffffffffffffffffffffffffffffffff1602179055506080820151816004015560a0820151816005015560c0820151816006015560e082015181600701556101008201518160080160006101000a81548160ff02191690836008811115613b7f57613b7e614692565b5b02179055506101208201518160080160016101000a81548173ffffffffffffffffffffffffffffffffffffffff021916908373ffffffffffffffffffffffffffffffffffffffff160217905550905050600560008873ffffffffffffffffffffffffffffffffffffffff1673ffffffffffffffffffffffffffffffffffffffff1681526020019081526020016000208260000151908060018154018082558091505060019003906000526020600020016000909190919091505581600001517f142fb4f6af814b9c2a0fc64fa90bca80d84d17f165530aa799ede76f9882ec2e8360a00151604051613c719190614213565b60405180910390a28192505050949350505050565b600b60009054906101000a900473ffffffffffffffffffffffffffffffffffffffff1673ffffffffffffffffffffffffffffffffffffffff166391d148547f2a5f906c256a5d799494fcd066e1f6c077689de1cdb65052a1624de4bace99bf336040518363ffffffff1660e01b8152600401613d03929190614bd3565b602060405180830381865afa158015613d20573d6000803e3d6000fd5b505050506040513d601f19601f82011682018060405250810190613d449190614c28565b613d83576040517f08c379a0000000000000000000000000000000000000000000000000000000008152600401613d7a90614d36565b60405180910390fd5b600073ffffffffffffffffffffffffffffffffffffffff166003600083815260200190815260200160002060030160009054906101000a900473ffffffffffffffffffffffffffffffffffffffff1673ffffffffffffffffffffffffffffffffffffffff1614613e28576040517f08c379a0000000000000000000000000000000000000000000000000000000008152600401613e1f90615b0d565b60405180910390fd5b6000801b600360008381526020019081526020016000206000015403613e83576040517f08c379a0000000000000000000000000000000000000000000000000000000008152600401613e7a906151b7565b60405180910390fd5b60016008811115613e9757613e96614692565b5b6003600083815260200190815260200160002060080160009054906101000a900460ff166008811115613ecd57613ecc614692565b5b14613f0d576040517f08c379a0000000000000000000000000000000000000000000000000000000008152600401613f0490615b9f565b60405180910390fd5b42600360008381526020019081526020016000206004015411613f65576040517f08c379a0000000000000000000000000000000000000000000000000000000008152600401613f5c90615601565b60405180910390fd5b6003600082815260200190815260200160002060070154341015613fbe576040517f08c379a0000000000000000000000000000000000000000000000000000000008152600401613fb590615c31565b60405180910390fd5b6000600360008381526020019081526020016000206007015411614017576040517f08c379a000000000000000000000000000000000000000000000000000000000815260040161400e90615c9d565b60405180910390fd5b50565b6140248282611a2b565b6140675780826040517fe2517d3f00000000000000000000000000000000000000000000000000000000815260040161405e929190615cbd565b60405180910390fd5b5050565b60405180610140016040528060008019168152602001600073ffffffffffffffffffffffffffffffffffffffff168152602001600073ffffffffffffffffffffffffffffffffffffffff168152602001600073ffffffffffffffffffffffffffffffffffffffff168152602001600081526020016000815260200160008152602001600081526020016000600881111561410857614107614692565b5b8152602001600073ffffffffffffffffffffffffffffffffffffffff1681525090565b6000604051905090565b600080fd5b600080fd5b60007fffffffff0000000000000000000000000000000000000000000000000000000082169050919050565b6141748161413f565b811461417f57600080fd5b50565b6000813590506141918161416b565b92915050565b6000602082840312156141ad576141ac614135565b5b60006141bb84828501614182565b91505092915050565b60008115159050919050565b6141d9816141c4565b82525050565b60006020820190506141f460008301846141d0565b92915050565b6000819050919050565b61420d816141fa565b82525050565b60006020820190506142286000830184614204565b92915050565b6000819050919050565b6142418161422e565b82525050565b600060208201905061425c6000830184614238565b92915050565b61426b8161422e565b811461427657600080fd5b50565b60008135905061428881614262565b92915050565b6000602082840312156142a4576142a3614135565b5b60006142b284828501614279565b91505092915050565b6142c4816141fa565b81146142cf57600080fd5b50565b6000813590506142e1816142bb565b92915050565b6000602082840312156142fd576142fc614135565b5b600061430b848285016142d2565b91505092915050565b600073ffffffffffffffffffffffffffffffffffffffff82169050919050565b600061433f82614314565b9050919050565b61434f81614334565b811461435a57600080fd5b50565b60008135905061436c81614346565b92915050565b6000806040838503121561438957614388614135565b5b600061439785828601614279565b92505060206143a88582860161435d565b9150509250929050565b6143bb81614334565b82525050565b600081519050919050565b600082825260208201905092915050565b60005b838110156143fb5780820151818401526020810190506143e0565b60008484015250505050565b6000601f19601f8301169050919050565b6000614423826143c1565b61442d81856143cc565b935061443d8185602086016143dd565b61444681614407565b840191505092915050565b600060c0820190506144666000830189614238565b6144736020830188614204565b61448060408301876143b2565b61448d60608301866141d0565b61449a60808301856141d0565b81810360a08301526144ac8184614418565b9050979650505050505050565b6000602082840312156144cf576144ce614135565b5b60006144dd8482850161435d565b91505092915050565b600080fd5b600080fd5b7f4e487b7100000000000000000000000000000000000000000000000000000000600052604160045260246000fd5b61452882614407565b810181811067ffffffffffffffff82111715614547576145466144f0565b5b80604052505050565b600061455a61412b565b9050614566828261451f565b919050565b600067ffffffffffffffff821115614586576145856144f0565b5b61458f82614407565b9050602081019050919050565b82818337600083830152505050565b60006145be6145b98461456b565b614550565b9050828152602081018484840111156145da576145d96144eb565b5b6145e584828561459c565b509392505050565b600082601f830112614602576146016144e6565b5b81356146128482602086016145ab565b91505092915050565b6000806040838503121561463257614631614135565b5b600083013567ffffffffffffffff8111156146505761464f61413a565b5b61465c858286016145ed565b925050602061466d8582860161435d565b9150509250929050565b600060208201905061468c60008301846143b2565b92915050565b7f4e487b7100000000000000000000000000000000000000000000000000000000600052602160045260246000fd5b600981106146d2576146d1614692565b5b50565b60008190506146e3826146c1565b919050565b60006146f3826146d5565b9050919050565b614703816146e8565b82525050565b60006101408201905061471f600083018d614238565b61472c602083018c6143b2565b614739604083018b6143b2565b614746606083018a6143b2565b6147536080830189614204565b61476060a0830188614204565b61476d60c0830187614204565b61477a60e0830186614204565b6147886101008301856146fa565b6147966101208301846143b2565b9b9a5050505050505050505050565b6000819050919050565b60006147ca6147c56147c084614314565b6147a5565b614314565b9050919050565b60006147dc826147af565b9050919050565b60006147ee826147d1565b9050919050565b6147fe816147e3565b82525050565b600060208201905061481960008301846147f5565b92915050565b6148288161422e565b82525050565b61483781614334565b82525050565b614846816141fa565b82525050565b614855816146e8565b82525050565b61014082016000820151614872600085018261481f565b506020820151614885602085018261482e565b506040820151614898604085018261482e565b5060608201516148ab606085018261482e565b5060808201516148be608085018261483d565b5060a08201516148d160a085018261483d565b5060c08201516148e460c085018261483d565b5060e08201516148f760e085018261483d565b5061010082015161490c61010085018261484c565b5061012082015161492161012085018261482e565b50505050565b60006101408201905061493d600083018461485b565b92915050565b6000806040838503121561495a57614959614135565b5b600061496885828601614279565b9250506020614979858286016142d2565b9150509250929050565b600061498e826147d1565b9050919050565b61499e81614983565b82525050565b60006020820190506149b96000830184614995565b92915050565b600080604083850312156149d6576149d5614135565b5b60006149e48582860161435d565b92505060206149f5858286016142d2565b9150509250929050565b6000614a0a826147d1565b9050919050565b614a1a816149ff565b82525050565b6000602082019050614a356000830184614a11565b92915050565b60008060008060808587031215614a5557614a54614135565b5b6000614a638782880161435d565b9450506020614a74878288016142d2565b9350506040614a85878288016142d2565b9250506060614a968782880161435d565b91505092959194509250565b600081519050919050565b600082825260208201905092915050565b6000819050602082019050919050565b6000614ada838361481f565b60208301905092915050565b6000602082019050919050565b6000614afe82614aa2565b614b088185614aad565b9350614b1383614abe565b8060005b83811015614b44578151614b2b8882614ace565b9750614b3683614ae6565b925050600181019050614b17565b5085935050505092915050565b60006020820190508181036000830152614b6b8184614af3565b905092915050565b7f4e487b7100000000000000000000000000000000000000000000000000000000600052602260045260246000fd5b60006002820490506001821680614bba57607f821691505b602082108103614bcd57614bcc614b73565b5b50919050565b6000604082019050614be86000830185614238565b614bf560208301846143b2565b9392505050565b614c05816141c4565b8114614c1057600080fd5b50565b600081519050614c2281614bfc565b92915050565b600060208284031215614c3e57614c3d614135565b5b6000614c4c84828501614c13565b91505092915050565b6000604082019050614c6a60008301856143b2565b614c776020830184614204565b9392505050565b7f4164647265737320496e76616c69640000000000000000000000000000000000600082015250565b6000614cb4600f836143cc565b9150614cbf82614c7e565b602082019050919050565b60006020820190508181036000830152614ce381614ca7565b9050919050565b7f497473206e6f742052657461696c657200000000000000000000000000000000600082015250565b6000614d206010836143cc565b9150614d2b82614cea565b602082019050919050565b60006020820190508181036000830152614d4f81614d13565b9050919050565b7f556e617574686f72697a656420746f206d61726b20746869732062617463682060008201527f6173207265636569766564000000000000000000000000000000000000000000602082015250565b6000614db2602b836143cc565b9150614dbd82614d56565b604082019050919050565b60006020820190508181036000830152614de181614da5565b9050919050565b7f4d616e7566616374757265720000000000000000000000000000000000000000600082015250565b6000614e1e600c836143cc565b9150614e2982614de8565b602082019050919050565b60006040820190508181036000830152614e4d81614e11565b9050614e5c60208301846143b2565b92915050565b7f52657461696c6572000000000000000000000000000000000000000000000000600082015250565b6000614e986008836143cc565b9150614ea382614e62565b602082019050919050565b60006040820190508181036000830152614ec781614e8b565b9050614ed660208301846143b2565b92915050565b7f4469737472696275746f72000000000000000000000000000000000000000000600082015250565b6000614f12600b836143cc565b9150614f1d82614edc565b602082019050919050565b60006040820190508181036000830152614f4181614f05565b9050614f5060208301846143b2565b92915050565b7f496e76616c696420707269636520666565642064617461000000000000000000600082015250565b6000614f8c6017836143cc565b9150614f9782614f56565b602082019050919050565b60006020820190508181036000830152614fbb81614f7f565b9050919050565b7f4e487b7100000000000000000000000000000000000000000000000000000000600052601160045260246000fd5b6000614ffc826141fa565b9150615007836141fa565b9250828202615015816141fa565b9150828204841483151761502c5761502b614fc2565b5b5092915050565b7f4e487b7100000000000000000000000000000000000000000000000000000000600052601260045260246000fd5b600061506d826141fa565b9150615078836141fa565b92508261508857615087615033565b5b828204905092915050565b7f496e76616c696420726f6c65206e616d65000000000000000000000000000000600082015250565b60006150c96011836143cc565b91506150d482615093565b602082019050919050565b600060208201905081810360008301526150f8816150bc565b9050919050565b7f43616e6e6f7420667265657a6520746865207a65726f20616464726573730000600082015250565b6000615135601e836143cc565b9150615140826150ff565b602082019050919050565b6000602082019050818103600083015261516481615128565b9050919050565b7f426174636820646f6573206e6f74206578697374000000000000000000000000600082015250565b60006151a16014836143cc565b91506151ac8261516b565b602082019050919050565b600060208201905081810360008301526151d081615194565b9050919050565b7f497473206e6f74204469737472696275746f7200000000000000000000000000600082015250565b600061520d6013836143cc565b9150615218826151d7565b602082019050919050565b6000602082019050818103600083015261523c81615200565b9050919050565b7f4c6573732050726963652053656e740000000000000000000000000000000000600082015250565b6000615279600f836143cc565b915061528482615243565b602082019050919050565b600060208201905081810360008301526152a88161526c565b9050919050565b60006040820190506152c460008301856143b2565b6152d160208301846143b2565b9392505050565b60006080820190506152ed60008301876143b2565b6152fa60208301866146fa565b6153076040830185614204565b6153146060830184614204565b95945050505050565b7f43616e6e6f7420756e667265657a6520746865207a65726f2061646472657373600082015250565b60006153536020836143cc565b915061535e8261531d565b602082019050919050565b6000602082019050818103600083015261538281615346565b9050919050565b600069ffffffffffffffffffff82169050919050565b6153a881615389565b81146153b357600080fd5b50565b6000815190506153c58161539f565b92915050565b6000819050919050565b6153de816153cb565b81146153e957600080fd5b50565b6000815190506153fb816153d5565b92915050565b600081519050615410816142bb565b92915050565b600080600080600060a0868803121561543257615431614135565b5b6000615440888289016153b6565b9550506020615451888289016153ec565b945050604061546288828901615401565b935050606061547388828901615401565b9250506080615484888289016153b6565b9150509295509295909350565b7f426174636820697320616c72656164792070757263686173656420627920616e60008201527f6f74686572206469737472696275746f72000000000000000000000000000000602082015250565b60006154ed6031836143cc565b91506154f882615491565b604082019050919050565b6000602082019050818103600083015261551c816154e0565b9050919050565b7f4261746368206973206e6f7420617661696c61626c6520666f7220707572636860008201527f617365206279204469737472696275746f720000000000000000000000000000602082015250565b600061557f6032836143cc565b915061558a82615523565b604082019050919050565b600060208201905081810360008301526155ae81615572565b9050919050565b7f4261746368206861732065787069726564000000000000000000000000000000600082015250565b60006155eb6011836143cc565b91506155f6826155b5565b602082019050919050565b6000602082019050818103600083015261561a816155de565b9050919050565b7f496e73756666696369656e742050726963652053656e74000000000000000000600082015250565b60006156576017836143cc565b915061566282615621565b602082019050919050565b600060208201905081810360008301526156868161564a565b9050919050565b7f50726f64756374207072696365206d757374206265206772656174657220746860008201527f616e207a65726f00000000000000000000000000000000000000000000000000602082015250565b60006156e96027836143cc565b91506156f48261568d565b604082019050919050565b60006020820190508181036000830152615718816156dc565b9050919050565b7f497473206e6f74204d616e756661637475726572000000000000000000000000600082015250565b60006157556014836143cc565b91506157608261571f565b602082019050919050565b6000602082019050818103600083015261578481615748565b9050919050565b7f4d616e7566616374757265722061646472657373206973206e6f74207265676960008201527f7374657265640000000000000000000000000000000000000000000000000000602082015250565b60006157e76026836143cc565b91506157f28261578b565b604082019050919050565b60006020820190508181036000830152615816816157da565b9050919050565b7f4d616e75666163747572657220616464726573732063616e6e6f74206265207a60008201527f65726f0000000000000000000000000000000000000000000000000000000000602082015250565b60006158796023836143cc565b91506158848261581d565b604082019050919050565b600060208201905081810360008301526158a88161586c565b9050919050565b7f4578706972792064617465206d75737420626520696e2074686520667574757260008201527f6500000000000000000000000000000000000000000000000000000000000000602082015250565b600061590b6021836143cc565b9150615916826158af565b604082019050919050565b6000602082019050818103600083015261593a816158fe565b9050919050565b7f5072696365206d7573742062652067726561746572207468616e207a65726f00600082015250565b6000615977601f836143cc565b915061598282615941565b602082019050919050565b600060208201905081810360008301526159a68161596a565b9050919050565b60006159b8826141fa565b91507fffffffffffffffffffffffffffffffffffffffffffffffffffffffffffffffff82036159ea576159e9614fc2565b5b600182019050919050565b60008160601b9050919050565b6000615a0d826159f5565b9050919050565b6000615a1f82615a02565b9050919050565b615a37615a3282614334565b615a14565b82525050565b6000819050919050565b615a58615a53826141fa565b615a3d565b82525050565b6000615a6a8286615a26565b601482019150615a7a8285615a47565b602082019150615a8a8284615a47565b602082019150819050949350505050565b7f426174636820697320616c72656164792070757263686173656420627920616e60008201527f6f746865722072657461696c6572000000000000000000000000000000000000602082015250565b6000615af7602e836143cc565b9150615b0282615a9b565b604082019050919050565b60006020820190508181036000830152615b2681615aea565b9050919050565b7f4261746368206973206e6f7420617661696c61626c6520666f7220707572636860008201527f6173652062792052657461696c65720000000000000000000000000000000000602082015250565b6000615b89602f836143cc565b9150615b9482615b2d565b604082019050919050565b60006020820190508181036000830152615bb881615b7c565b9050919050565b7f5061796d656e74206d7573742062652067726561746572207468616e2070726f60008201527f6475637450726963650000000000000000000000000000000000000000000000602082015250565b6000615c1b6029836143cc565b9150615c2682615bbf565b604082019050919050565b60006020820190508181036000830152615c4a81615c0e565b9050919050565b7f50726f64756374205072696365206973206e6f74207365740000000000000000600082015250565b6000615c876018836143cc565b9150615c9282615c51565b602082019050919050565b60006020820190508181036000830152615cb681615c7a565b9050919050565b6000604082019050615cd260008301856143b2565b615cdf6020830184614238565b939250505056fea2646970667358221220dd330a0769f976ee7fc79113db4a9a193dcfca5a7d248eeb742de1a0b4c2807864736f6c634300081c0033",
  "linkReferences": {},
  "deployedLinkReferences": {}
}