{
  "_format": "hh-sol-artifact-1",
  "contractName": "BasicMechanism",
  "sourceName": "contracts/BasicMechanism.sol",
  "abi": [
    {
      "inputs": [
        {
          "internalType": "address",
          "name": "priceFeedAddress",
          "type": "address"
        },
        {
          "internalType": "address",
          "name": "escrowAddress",
          "type": "address"
        },
        {
          "internalType": "address",
          "name": "handlingAddresses",
          "type": "address"
        }
      ],
      "stateMutability": "nonpayable",
      "type": "constructor"
    },
    {
      "inputs": [],
      "name": "AccessControlBadConfirmation",
      "type": "error"
    },
    {
      "inputs": [
        {
          "internalType": "address",
          "name": "account",
          "type": "address"
        },
        {
          "internalType": "bytes32",
          "name": "neededRole",
          "type": "bytes32"
        }
      ],
      "name": "AccessControlUnauthorizedAccount",
      "type": "error"
    },
    {
      "inputs": [
        {
          "internalType": "string",
          "name": "role",
          "type": "string"
        },
        {
          "internalType": "address",
          "name": "account",
          "type": "address"
        }
      ],
      "name": "AddressAlreadyExists",
      "type": "error"
    },
    {
      "inputs": [
        {
          "internalType": "address",
          "name": "account",
          "type": "address"
        }
      ],
      "name": "AddressInvalid",
      "type": "error"
    },
    {
      "inputs": [
        {
          "internalType": "uint256",
          "name": "_usdAmount",
          "type": "uint256"
        }
      ],
      "name": "InvalidAmount",
      "type": "error"
    },
    {
      "anonymous": false,
      "inputs": [
        {
          "indexed": false,
          "internalType": "address",
          "name": "account",
          "type": "address"
        }
      ],
      "name": "AddressFrozen",
      "type": "event"
    },
    {
      "anonymous": false,
      "inputs": [
        {
          "indexed": false,
          "internalType": "address",
          "name": "account",
          "type": "address"
        }
      ],
      "name": "AddressUnfrozen",
      "type": "event"
    },
    {
      "anonymous": false,
      "inputs": [
        {
          "indexed": true,
          "internalType": "bytes32",
          "name": "batchId",
          "type": "bytes32"
        },
        {
          "indexed": false,
          "internalType": "uint256",
          "name": "timestamp",
          "type": "uint256"
        }
      ],
      "name": "BatchCreated",
      "type": "event"
    },
    {
      "anonymous": false,
      "inputs": [
        {
          "indexed": true,
          "internalType": "bytes32",
          "name": "batchId",
          "type": "bytes32"
        },
        {
          "indexed": false,
          "internalType": "address",
          "name": "distributor",
          "type": "address"
        },
        {
          "indexed": false,
          "internalType": "enum DrugSupplyChain.BatchStatus",
          "name": "statusEnum",
          "type": "uint8"
        },
        {
          "indexed": false,
          "internalType": "uint256",
          "name": "price",
          "type": "uint256"
        },
        {
          "indexed": false,
          "internalType": "uint256",
          "name": "timestamp",
          "type": "uint256"
        }
      ],
      "name": "DistributerPurchased",
      "type": "event"
    },
    {
      "anonymous": false,
      "inputs": [
        {
          "indexed": true,
          "internalType": "bytes32",
          "name": "batchId",
          "type": "bytes32"
        },
        {
          "indexed": false,
          "internalType": "enum DrugSupplyChain.BatchStatus",
          "name": "statusEnum",
          "type": "uint8"
        },
        {
          "indexed": true,
          "internalType": "address",
          "name": "distributor",
          "type": "address"
        },
        {
          "indexed": false,
          "internalType": "uint256",
          "name": "price",
          "type": "uint256"
        },
        {
          "indexed": false,
          "internalType": "uint256",
          "name": "timestamp",
          "type": "uint256"
        },
        {
          "indexed": false,
          "internalType": "string",
          "name": "reason",
          "type": "string"
        }
      ],
      "name": "EligibleForResell",
      "type": "event"
    },
    {
      "anonymous": false,
      "inputs": [
        {
          "indexed": true,
          "internalType": "bytes32",
          "name": "batchId",
          "type": "bytes32"
        },
        {
          "indexed": true,
          "internalType": "address",
          "name": "to",
          "type": "address"
        },
        {
          "indexed": true,
          "internalType": "uint256",
          "name": "timestamp",
          "type": "uint256"
        },
        {
          "indexed": false,
          "internalType": "bool",
          "name": "refunded",
          "type": "bool"
        },
        {
          "indexed": false,
          "internalType": "string",
          "name": "reason",
          "type": "string"
        }
      ],
      "name": "Refunded",
      "type": "event"
    },
    {
      "anonymous": false,
      "inputs": [
        {
          "indexed": true,
          "internalType": "bytes32",
          "name": "batchId",
          "type": "bytes32"
        },
        {
          "indexed": true,
          "internalType": "address",
          "name": "requester",
          "type": "address"
        },
        {
          "indexed": true,
          "internalType": "uint256",
          "name": "timestamp",
          "type": "uint256"
        },
        {
          "indexed": false,
          "internalType": "bool",
          "name": "approved",
          "type": "bool"
        },
        {
          "indexed": false,
          "internalType": "string",
          "name": "reason",
          "type": "string"
        }
      ],
      "name": "RequestApproved",
      "type": "event"
    },
    {
      "anonymous": false,
      "inputs": [
        {
          "indexed": true,
          "internalType": "bytes32",
          "name": "batchId",
          "type": "bytes32"
        },
        {
          "indexed": false,
          "internalType": "enum DrugSupplyChain.BatchStatus",
          "name": "statusEnum",
          "type": "uint8"
        },
        {
          "indexed": true,
          "internalType": "address",
          "name": "distributor",
          "type": "address"
        },
        {
          "indexed": false,
          "internalType": "uint256",
          "name": "price",
          "type": "uint256"
        },
        {
          "indexed": false,
          "internalType": "uint256",
          "name": "timestamp",
          "type": "uint256"
        }
      ],
      "name": "ResellingDone",
      "type": "event"
    },
    {
      "anonymous": false,
      "inputs": [
        {
          "indexed": true,
          "internalType": "bytes32",
          "name": "batchId",
          "type": "bytes32"
        },
        {
          "indexed": false,
          "internalType": "address",
          "name": "retailer",
          "type": "address"
        },
        {
          "indexed": false,
          "internalType": "enum DrugSupplyChain.BatchStatus",
          "name": "statusEnum",
          "type": "uint8"
        },
        {
          "indexed": false,
          "internalType": "uint256",
          "name": "price",
          "type": "uint256"
        },
        {
          "indexed": false,
          "internalType": "uint256",
          "name": "timestamp",
          "type": "uint256"
        }
      ],
      "name": "RetailerPurchased",
      "type": "event"
    },
    {
      "anonymous": false,
      "inputs": [
        {
          "indexed": true,
          "internalType": "bytes32",
          "name": "batchId",
          "type": "bytes32"
        },
        {
          "indexed": true,
          "internalType": "uint256",
          "name": "timestamp",
          "type": "uint256"
        },
        {
          "indexed": true,
          "internalType": "address",
          "name": "requester",
          "type": "address"
        },
        {
          "indexed": false,
          "internalType": "bool",
          "name": "approved",
          "type": "bool"
        },
        {
          "indexed": false,
          "internalType": "bool",
          "name": "refunded",
          "type": "bool"
        },
        {
          "indexed": false,
          "internalType": "string",
          "name": "reason",
          "type": "string"
        }
      ],
      "name": "ReturnRequested",
      "type": "event"
    },
    {
      "anonymous": false,
      "inputs": [
        {
          "indexed": true,
          "internalType": "bytes32",
          "name": "role",
          "type": "bytes32"
        },
        {
          "indexed": true,
          "internalType": "bytes32",
          "name": "previousAdminRole",
          "type": "bytes32"
        },
        {
          "indexed": true,
          "internalType": "bytes32",
          "name": "newAdminRole",
          "type": "bytes32"
        }
      ],
      "name": "RoleAdminChanged",
      "type": "event"
    },
    {
      "anonymous": false,
      "inputs": [
        {
          "indexed": true,
          "internalType": "bytes32",
          "name": "role",
          "type": "bytes32"
        },
        {
          "indexed": true,
          "internalType": "address",
          "name": "account",
          "type": "address"
        },
        {
          "indexed": true,
          "internalType": "address",
          "name": "sender",
          "type": "address"
        }
      ],
      "name": "RoleGranted",
      "type": "event"
    },
    {
      "anonymous": false,
      "inputs": [
        {
          "indexed": true,
          "internalType": "bytes32",
          "name": "role",
          "type": "bytes32"
        },
        {
          "indexed": true,
          "internalType": "address",
          "name": "account",
          "type": "address"
        },
        {
          "indexed": true,
          "internalType": "address",
          "name": "sender",
          "type": "address"
        }
      ],
      "name": "RoleRevoked",
      "type": "event"
    },
    {
      "inputs": [],
      "name": "DEFAULT_ADMIN_ROLE",
      "outputs": [
        {
          "internalType": "bytes32",
          "name": "",
          "type": "bytes32"
        }
      ],
      "stateMutability": "view",
      "type": "function"
    },
    {
      "inputs": [],
      "name": "DISTRIBUTOR_ROLE",
      "outputs": [
        {
          "internalType": "bytes32",
          "name": "",
          "type": "bytes32"
        }
      ],
      "stateMutability": "view",
      "type": "function"
    },
    {
      "inputs": [],
      "name": "MANUFACTURER_ROLE",
      "outputs": [
        {
          "internalType": "bytes32",
          "name": "",
          "type": "bytes32"
        }
      ],
      "stateMutability": "view",
      "type": "function"
    },
    {
      "inputs": [],
      "name": "RETAILER_ROLE",
      "outputs": [
        {
          "internalType": "bytes32",
          "name": "",
          "type": "bytes32"
        }
      ],
      "stateMutability": "view",
      "type": "function"
    },
    {
      "inputs": [
        {
          "internalType": "address",
          "name": "distributor",
          "type": "address"
        }
      ],
      "name": "addDistributor",
      "outputs": [],
      "stateMutability": "nonpayable",
      "type": "function"
    },
    {
      "inputs": [
        {
          "internalType": "address",
          "name": "manufacturer",
          "type": "address"
        }
      ],
      "name": "addManufacturer",
      "outputs": [],
      "stateMutability": "nonpayable",
      "type": "function"
    },
    {
      "inputs": [
        {
          "internalType": "address",
          "name": "retailer",
          "type": "address"
        }
      ],
      "name": "addRetailer",
      "outputs": [],
      "stateMutability": "nonpayable",
      "type": "function"
    },
    {
      "inputs": [
        {
          "internalType": "uint256",
          "name": "",
          "type": "uint256"
        }
      ],
      "name": "allBatchIds",
      "outputs": [
        {
          "internalType": "bytes32",
          "name": "",
          "type": "bytes32"
        }
      ],
      "stateMutability": "view",
      "type": "function"
    },
    {
      "inputs": [],
      "name": "batchCount",
      "outputs": [
        {
          "internalType": "uint256",
          "name": "",
          "type": "uint256"
        }
      ],
      "stateMutability": "view",
      "type": "function"
    },
    {
      "inputs": [
        {
          "internalType": "address",
          "name": "",
          "type": "address"
        }
      ],
      "name": "batchCounter",
      "outputs": [
        {
          "internalType": "uint256",
          "name": "",
          "type": "uint256"
        }
      ],
      "stateMutability": "view",
      "type": "function"
    },
    {
      "inputs": [
        {
          "internalType": "bytes32",
          "name": "",
          "type": "bytes32"
        }
      ],
      "name": "batchIdToBatch",
      "outputs": [
        {
          "internalType": "bytes32",
          "name": "batchId",
          "type": "bytes32"
        },
        {
          "internalType": "address",
          "name": "manufacturer",
          "type": "address"
        },
        {
          "internalType": "address",
          "name": "distributor",
          "type": "address"
        },
        {
          "internalType": "address",
          "name": "retailer",
          "type": "address"
        },
        {
          "internalType": "uint256",
          "name": "expiryDate",
          "type": "uint256"
        },
        {
          "internalType": "uint256",
          "name": "timestamp",
          "type": "uint256"
        },
        {
          "internalType": "uint256",
          "name": "price",
          "type": "uint256"
        },
        {
          "internalType": "uint256",
          "name": "productPrice",
          "type": "uint256"
        },
        {
          "internalType": "enum DrugSupplyChain.BatchStatus",
          "name": "statusEnum",
          "type": "uint8"
        },
        {
          "internalType": "address",
          "name": "ipfsHash",
          "type": "address"
        }
      ],
      "stateMutability": "view",
      "type": "function"
    },
    {
      "inputs": [
        {
          "internalType": "bytes32",
          "name": "_batchId",
          "type": "bytes32"
        }
      ],
      "name": "batchReceivedDistributor",
      "outputs": [],
      "stateMutability": "nonpayable",
      "type": "function"
    },
    {
      "inputs": [
        {
          "internalType": "bytes32",
          "name": "_batchId",
          "type": "bytes32"
        }
      ],
      "name": "batchReceivedRetailer",
      "outputs": [],
      "stateMutability": "payable",
      "type": "function"
    },
    {
      "inputs": [
        {
          "internalType": "bytes32",
          "name": "_batchId",
          "type": "bytes32"
        },
        {
          "internalType": "uint256",
          "name": "_productPrice",
          "type": "uint256"
        }
      ],
      "name": "buyBatchDistributor",
      "outputs": [],
      "stateMutability": "payable",
      "type": "function"
    },
    {
      "inputs": [
        {
          "internalType": "bytes32",
          "name": "_batchId",
          "type": "bytes32"
        }
      ],
      "name": "buyBatchRetailer",
      "outputs": [],
      "stateMutability": "payable",
      "type": "function"
    },
    {
      "inputs": [
        {
          "internalType": "string",
          "name": "roleName",
          "type": "string"
        },
        {
          "internalType": "address",
          "name": "account",
          "type": "address"
        }
      ],
      "name": "checkRole",
      "outputs": [
        {
          "internalType": "bool",
          "name": "",
          "type": "bool"
        }
      ],
      "stateMutability": "view",
      "type": "function"
    },
    {
      "inputs": [
        {
          "internalType": "address",
          "name": "manufacturer",
          "type": "address"
        },
        {
          "internalType": "uint256",
          "name": "expiryDate",
          "type": "uint256"
        },
        {
          "internalType": "uint256",
          "name": "price",
          "type": "uint256"
        },
        {
          "internalType": "address",
          "name": "ipfsHash",
          "type": "address"
        }
      ],
      "name": "createBatch",
      "outputs": [
        {
          "components": [
            {
              "internalType": "bytes32",
              "name": "batchId",
              "type": "bytes32"
            },
            {
              "internalType": "address",
              "name": "manufacturer",
              "type": "address"
            },
            {
              "internalType": "address",
              "name": "distributor",
              "type": "address"
            },
            {
              "internalType": "address",
              "name": "retailer",
              "type": "address"
            },
            {
              "internalType": "uint256",
              "name": "expiryDate",
              "type": "uint256"
            },
            {
              "internalType": "uint256",
              "name": "timestamp",
              "type": "uint256"
            },
            {
              "internalType": "uint256",
              "name": "price",
              "type": "uint256"
            },
            {
              "internalType": "uint256",
              "name": "productPrice",
              "type": "uint256"
            },
            {
              "internalType": "enum DrugSupplyChain.BatchStatus",
              "name": "statusEnum",
              "type": "uint8"
            },
            {
              "internalType": "address",
              "name": "ipfsHash",
              "type": "address"
            }
          ],
          "internalType": "struct DrugSupplyChain.Batch",
          "name": "",
          "type": "tuple"
        }
      ],
      "stateMutability": "nonpayable",
      "type": "function"
    },
    {
      "inputs": [],
      "name": "dataFeed",
      "outputs": [
        {
          "internalType": "contract AggregatorV3Interface",
          "name": "",
          "type": "address"
        }
      ],
      "stateMutability": "view",
      "type": "function"
    },
    {
      "inputs": [],
      "name": "escrowContract",
      "outputs": [
        {
          "internalType": "contract Escrow",
          "name": "",
          "type": "address"
        }
      ],
      "stateMutability": "view",
      "type": "function"
    },
    {
      "inputs": [
        {
          "internalType": "address",
          "name": "account",
          "type": "address"
        }
      ],
      "name": "frozeAddress",
      "outputs": [],
      "stateMutability": "nonpayable",
      "type": "function"
    },
    {
      "inputs": [
        {
          "internalType": "bytes32",
          "name": "_batchId",
          "type": "bytes32"
        }
      ],
      "name": "getBatchDetails",
      "outputs": [
        {
          "components": [
            {
              "internalType": "bytes32",
              "name": "batchId",
              "type": "bytes32"
            },
            {
              "internalType": "address",
              "name": "manufacturer",
              "type": "address"
            },
            {
              "internalType": "address",
              "name": "distributor",
              "type": "address"
            },
            {
              "internalType": "address",
              "name": "retailer",
              "type": "address"
            },
            {
              "internalType": "uint256",
              "name": "expiryDate",
              "type": "uint256"
            },
            {
              "internalType": "uint256",
              "name": "timestamp",
              "type": "uint256"
            },
            {
              "internalType": "uint256",
              "name": "price",
              "type": "uint256"
            },
            {
              "internalType": "uint256",
              "name": "productPrice",
              "type": "uint256"
            },
            {
              "internalType": "enum DrugSupplyChain.BatchStatus",
              "name": "statusEnum",
              "type": "uint8"
            },
            {
              "internalType": "address",
              "name": "ipfsHash",
              "type": "address"
            }
          ],
          "internalType": "struct DrugSupplyChain.Batch",
          "name": "",
          "type": "tuple"
        }
      ],
      "stateMutability": "view",
      "type": "function"
    },
    {
      "inputs": [
        {
          "internalType": "bytes32",
          "name": "_batchId",
          "type": "bytes32"
        }
      ],
      "name": "getIpfsHash",
      "outputs": [
        {
          "internalType": "address",
          "name": "",
          "type": "address"
        }
      ],
      "stateMutability": "view",
      "type": "function"
    },
    {
      "inputs": [
        {
          "internalType": "address",
          "name": "owner",
          "type": "address"
        }
      ],
      "name": "getOwnerBatches",
      "outputs": [
        {
          "internalType": "bytes32[]",
          "name": "",
          "type": "bytes32[]"
        }
      ],
      "stateMutability": "view",
      "type": "function"
    },
    {
      "inputs": [
        {
          "internalType": "bytes32",
          "name": "role",
          "type": "bytes32"
        }
      ],
      "name": "getRoleAdmin",
      "outputs": [
        {
          "internalType": "bytes32",
          "name": "",
          "type": "bytes32"
        }
      ],
      "stateMutability": "view",
      "type": "function"
    },
    {
      "inputs": [
        {
          "internalType": "bytes32",
          "name": "role",
          "type": "bytes32"
        },
        {
          "internalType": "address",
          "name": "account",
          "type": "address"
        }
      ],
      "name": "grantRole",
      "outputs": [],
      "stateMutability": "nonpayable",
      "type": "function"
    },
    {
      "inputs": [],
      "name": "handlingAddresses",
      "outputs": [
        {
          "internalType": "contract HandlingAddresses",
          "name": "",
          "type": "address"
        }
      ],
      "stateMutability": "view",
      "type": "function"
    },
    {
      "inputs": [
        {
          "internalType": "bytes32",
          "name": "role",
          "type": "bytes32"
        },
        {
          "internalType": "address",
          "name": "account",
          "type": "address"
        }
      ],
      "name": "hasRole",
      "outputs": [
        {
          "internalType": "bool",
          "name": "",
          "type": "bool"
        }
      ],
      "stateMutability": "view",
      "type": "function"
    },
    {
      "inputs": [
        {
          "internalType": "address",
          "name": "",
          "type": "address"
        }
      ],
      "name": "isFrozen",
      "outputs": [
        {
          "internalType": "bool",
          "name": "",
          "type": "bool"
        }
      ],
      "stateMutability": "view",
      "type": "function"
    },
    {
      "inputs": [],
      "name": "owner",
      "outputs": [
        {
          "internalType": "address",
          "name": "",
          "type": "address"
        }
      ],
      "stateMutability": "view",
      "type": "function"
    },
    {
      "inputs": [
        {
          "internalType": "address",
          "name": "",
          "type": "address"
        },
        {
          "internalType": "uint256",
          "name": "",
          "type": "uint256"
        }
      ],
      "name": "ownerToBatches",
      "outputs": [
        {
          "internalType": "bytes32",
          "name": "",
          "type": "bytes32"
        }
      ],
      "stateMutability": "view",
      "type": "function"
    },
    {
      "inputs": [
        {
          "internalType": "uint256",
          "name": "",
          "type": "uint256"
        }
      ],
      "name": "pendingRequests",
      "outputs": [
        {
          "internalType": "bytes32",
          "name": "batchId",
          "type": "bytes32"
        },
        {
          "internalType": "uint256",
          "name": "timestamp",
          "type": "uint256"
        },
        {
          "internalType": "address",
          "name": "requester",
          "type": "address"
        },
        {
          "internalType": "bool",
          "name": "refunded",
          "type": "bool"
        },
        {
          "internalType": "bool",
          "name": "approved",
          "type": "bool"
        },
        {
          "internalType": "string",
          "name": "reason",
          "type": "string"
        }
      ],
      "stateMutability": "view",
      "type": "function"
    },
    {
      "inputs": [
        {
          "internalType": "address",
          "name": "distributor",
          "type": "address"
        }
      ],
      "name": "removeDistributor",
      "outputs": [],
      "stateMutability": "nonpayable",
      "type": "function"
    },
    {
      "inputs": [
        {
          "internalType": "address",
          "name": "manufacturer",
          "type": "address"
        }
      ],
      "name": "removeManufacturer",
      "outputs": [],
      "stateMutability": "nonpayable",
      "type": "function"
    },
    {
      "inputs": [
        {
          "internalType": "address",
          "name": "retailer",
          "type": "address"
        }
      ],
      "name": "removeRetailer",
      "outputs": [],
      "stateMutability": "nonpayable",
      "type": "function"
    },
    {
      "inputs": [
        {
          "internalType": "bytes32",
          "name": "role",
          "type": "bytes32"
        },
        {
          "internalType": "address",
          "name": "callerConfirmation",
          "type": "address"
        }
      ],
      "name": "renounceRole",
      "outputs": [],
      "stateMutability": "nonpayable",
      "type": "function"
    },
    {
      "inputs": [
        {
          "internalType": "bytes32",
          "name": "",
          "type": "bytes32"
        }
      ],
      "name": "returnRequests",
      "outputs": [
        {
          "internalType": "bytes32",
          "name": "batchId",
          "type": "bytes32"
        },
        {
          "internalType": "uint256",
          "name": "timestamp",
          "type": "uint256"
        },
        {
          "internalType": "address",
          "name": "requester",
          "type": "address"
        },
        {
          "internalType": "bool",
          "name": "refunded",
          "type": "bool"
        },
        {
          "internalType": "bool",
          "name": "approved",
          "type": "bool"
        },
        {
          "internalType": "string",
          "name": "reason",
          "type": "string"
        }
      ],
      "stateMutability": "view",
      "type": "function"
    },
    {
      "inputs": [
        {
          "internalType": "bytes32",
          "name": "role",
          "type": "bytes32"
        },
        {
          "internalType": "address",
          "name": "account",
          "type": "address"
        }
      ],
      "name": "revokeRole",
      "outputs": [],
      "stateMutability": "nonpayable",
      "type": "function"
    },
    {
      "inputs": [
        {
          "internalType": "bytes4",
          "name": "interfaceId",
          "type": "bytes4"
        }
      ],
      "name": "supportsInterface",
      "outputs": [
        {
          "internalType": "bool",
          "name": "",
          "type": "bool"
        }
      ],
      "stateMutability": "view",
      "type": "function"
    },
    {
      "inputs": [
        {
          "internalType": "address",
          "name": "account",
          "type": "address"
        }
      ],
      "name": "unfreezeAddress",
      "outputs": [],
      "stateMutability": "nonpayable",
      "type": "function"
    },
    {
      "inputs": [],
      "name": "withdraw",
      "outputs": [],
      "stateMutability": "nonpayable",
      "type": "function"
    }
  ],
  "bytecode": "0x608060405234801561001057600080fd5b50604051615c56380380615c568339818101604052810190610032919061032a565b8282826100486000801b3361015860201b60201c565b5033600c60006101000a81548173ffffffffffffffffffffffffffffffffffffffff021916908373ffffffffffffffffffffffffffffffffffffffff16021790555081600a60006101000a81548173ffffffffffffffffffffffffffffffffffffffff021916908373ffffffffffffffffffffffffffffffffffffffff16021790555082600960006101000a81548173ffffffffffffffffffffffffffffffffffffffff021916908373ffffffffffffffffffffffffffffffffffffffff16021790555080600b60006101000a81548173ffffffffffffffffffffffffffffffffffffffff021916908373ffffffffffffffffffffffffffffffffffffffff16021790555050505050505061037d565b600061016a838361025560201b60201c565b61024a57600160008085815260200190815260200160002060000160008473ffffffffffffffffffffffffffffffffffffffff1673ffffffffffffffffffffffffffffffffffffffff16815260200190815260200160002060006101000a81548160ff0219169083151502179055506101e76102bf60201b60201c565b73ffffffffffffffffffffffffffffffffffffffff168273ffffffffffffffffffffffffffffffffffffffff16847f2f8788117e7eff1d82e926ec794901d17c78024a50270940304540a733656f0d60405160405180910390a46001905061024f565b600090505b92915050565b600080600084815260200190815260200160002060000160008373ffffffffffffffffffffffffffffffffffffffff1673ffffffffffffffffffffffffffffffffffffffff16815260200190815260200160002060009054906101000a900460ff16905092915050565b600033905090565b600080fd5b600073ffffffffffffffffffffffffffffffffffffffff82169050919050565b60006102f7826102cc565b9050919050565b610307816102ec565b811461031257600080fd5b50565b600081519050610324816102fe565b92915050565b600080600060608486031215610343576103426102c7565b5b600061035186828701610315565b935050602061036286828701610315565b925050604061037386828701610315565b9150509250925092565b6158ca8061038c6000396000f3fe60806040526004361061023b5760003560e01c8063965288b01161012e578063c1c460a6116100ab578063e58398361161006f578063e5839836146108c2578063e94a741e146108ff578063eb1fbf151461091b578063f0bd87cc14610958578063fa031f84146109835761023b565b8063c1c460a6146107c9578063cf30c705146107f4578063d547741f14610831578063e42a96e71461085a578063e477a26c146108855761023b565b8063a217fddf116100f2578063a217fddf146106f3578063b21a7b3e1461071e578063b26c196a1461075b578063b75746ab14610784578063bfb80547146107a05761023b565b8063965288b0146105ec57806399fd9cfb146106175780639de7c3b7146106405780639e42ff90146106865780639fb65529146106b15761023b565b806357c1f9e2116101bc5780637026fe9c116101805780637026fe9c146104f55780637250e224146105325780638da5cb5b1461055b5780638ec4f5051461058657806391d14854146105af5761023b565b806357c1f9e2146104145780635f8a5afa1461043d5780636a0f9f70146104665780636a75323f146104a357806370099ec8146104cc5761023b565b80632f2ff15d116102035780632f2ff15d1461034d57806336568abe146103765780633c652a9a1461039f5780633ccfd60b146103e15780634e4fddb0146103f85761023b565b806301ffc9a71461024057806306f130561461027d5780632115e7bf146102a8578063248a9ca3146102d3578063290b17ec14610310575b600080fd5b34801561024c57600080fd5b5061026760048036038101906102629190613f5b565b6109c0565b6040516102749190613fa3565b60405180910390f35b34801561028957600080fd5b50610292610a3a565b60405161029f9190613fd7565b60405180910390f35b3480156102b457600080fd5b506102bd610a40565b6040516102ca919061400b565b60405180910390f35b3480156102df57600080fd5b506102fa60048036038101906102f59190614052565b610a64565b604051610307919061400b565b60405180910390f35b34801561031c57600080fd5b50610337600480360381019061033291906140ab565b610a83565b604051610344919061400b565b60405180910390f35b34801561035957600080fd5b50610374600480360381019061036f9190614136565b610aa7565b005b34801561038257600080fd5b5061039d60048036038101906103989190614136565b610ac9565b005b3480156103ab57600080fd5b506103c660048036038101906103c191906140ab565b610b44565b6040516103d896959493929190614215565b60405180910390f35b3480156103ed57600080fd5b506103f6610c52565b005b610412600480360381019061040d9190614052565b610d85565b005b34801561042057600080fd5b5061043b6004803603810190610436919061427d565b6110d4565b005b34801561044957600080fd5b50610464600480360381019061045f919061427d565b61110f565b005b34801561047257600080fd5b5061048d6004803603810190610488919061427d565b6112ff565b60405161049a9190613fd7565b60405180910390f35b3480156104af57600080fd5b506104ca60048036038101906104c5919061427d565b611317565b005b3480156104d857600080fd5b506104f360048036038101906104ee919061427d565b611352565b005b34801561050157600080fd5b5061051c600480360381019061051791906143df565b61138d565b6040516105299190613fa3565b60405180910390f35b34801561053e57600080fd5b506105596004803603810190610554919061427d565b6114e2565b005b34801561056757600080fd5b506105706116d2565b60405161057d919061443b565b60405180910390f35b34801561059257600080fd5b506105ad60048036038101906105a8919061427d565b6116f8565b005b3480156105bb57600080fd5b506105d660048036038101906105d19190614136565b6118e8565b6040516105e39190613fa3565b60405180910390f35b3480156105f857600080fd5b50610601611952565b60405161060e919061400b565b60405180910390f35b34801561062357600080fd5b5061063e6004803603810190610639919061427d565b611976565b005b34801561064c57600080fd5b5061066760048036038101906106629190614052565b611b05565b60405161067d9a999897969594939291906144cd565b60405180910390f35b34801561069257600080fd5b5061069b611be6565b6040516106a891906145c8565b60405180910390f35b3480156106bd57600080fd5b506106d860048036038101906106d39190614052565b611c0c565b6040516106ea96959493929190614215565b60405180910390f35b3480156106ff57600080fd5b50610708611d0a565b604051610715919061400b565b60405180910390f35b34801561072a57600080fd5b5061074560048036038101906107409190614052565b611d11565b60405161075291906146eb565b60405180910390f35b34801561076757600080fd5b50610782600480360381019061077d9190614052565b611f5f565b005b61079e60048036038101906107999190614707565b6122af565b005b3480156107ac57600080fd5b506107c760048036038101906107c2919061427d565b61265c565b005b3480156107d557600080fd5b506107de61276b565b6040516107eb9190614768565b60405180910390f35b34801561080057600080fd5b5061081b60048036038101906108169190614783565b612791565b604051610828919061400b565b60405180910390f35b34801561083d57600080fd5b5061085860048036038101906108539190614136565b6127c2565b005b34801561086657600080fd5b5061086f6127e4565b60405161087c91906147e4565b60405180910390f35b34801561089157600080fd5b506108ac60048036038101906108a791906147ff565b61280a565b6040516108b991906146eb565b60405180910390f35b3480156108ce57600080fd5b506108e960048036038101906108e4919061427d565b6128c6565b6040516108f69190613fa3565b60405180910390f35b61091960048036038101906109149190614052565b6128e6565b005b34801561092757600080fd5b50610942600480360381019061093d9190614052565b612c1c565b60405161094f919061443b565b60405180910390f35b34801561096457600080fd5b5061096d612cb7565b60405161097a919061400b565b60405180910390f35b34801561098f57600080fd5b506109aa60048036038101906109a5919061427d565b612cdb565b6040516109b79190614915565b60405180910390f35b60007f7965db0b000000000000000000000000000000000000000000000000000000007bffffffffffffffffffffffffffffffffffffffffffffffffffffffff1916827bffffffffffffffffffffffffffffffffffffffffffffffffffffffff19161480610a335750610a3282612d72565b5b9050919050565b60085481565b7f2a5f906c256a5d799494fcd066e1f6c077689de1cdb65052a1624de4bace99bf81565b6000806000838152602001908152602001600020600101549050919050565b60078181548110610a9357600080fd5b906000526020600020016000915090505481565b610ab082610a64565b610ab981612ddc565b610ac38383612df0565b50505050565b610ad1612ee1565b73ffffffffffffffffffffffffffffffffffffffff168173ffffffffffffffffffffffffffffffffffffffff1614610b35576040517f6697b23200000000000000000000000000000000000000000000000000000000815260040160405180910390fd5b610b3f8282612ee9565b505050565b60068181548110610b5457600080fd5b90600052602060002090600402016000915090508060000154908060010154908060020160009054906101000a900473ffffffffffffffffffffffffffffffffffffffff16908060020160149054906101000a900460ff16908060020160159054906101000a900460ff1690806003018054610bcf90614966565b80601f0160208091040260200160405190810160405280929190818152602001828054610bfb90614966565b8015610c485780601f10610c1d57610100808354040283529160200191610c48565b820191906000526020600020905b815481529060010190602001808311610c2b57829003601f168201915b5050505050905086565b600b60009054906101000a900473ffffffffffffffffffffffffffffffffffffffff1673ffffffffffffffffffffffffffffffffffffffff166391d148546000801b336040518363ffffffff1660e01b8152600401610cb2929190614997565b602060405180830381865afa158015610ccf573d6000803e3d6000fd5b505050506040513d601f19601f82011682018060405250810190610cf391906149ec565b50600a60009054906101000a900473ffffffffffffffffffffffffffffffffffffffff1673ffffffffffffffffffffffffffffffffffffffff16630357371d33476040518363ffffffff1660e01b8152600401610d51929190614a19565b600060405180830381600087803b158015610d6b57600080fd5b505af1158015610d7f573d6000803e3d6000fd5b50505050565b600160003373ffffffffffffffffffffffffffffffffffffffff1673ffffffffffffffffffffffffffffffffffffffff16815260200190815260200160002060009054906101000a900460ff1615610e12576040517f08c379a0000000000000000000000000000000000000000000000000000000008152600401610e0990614a8e565b60405180910390fd5b600b60009054906101000a900473ffffffffffffffffffffffffffffffffffffffff1673ffffffffffffffffffffffffffffffffffffffff166391d148547f2a5f906c256a5d799494fcd066e1f6c077689de1cdb65052a1624de4bace99bf336040518363ffffffff1660e01b8152600401610e8f929190614997565b602060405180830381865afa158015610eac573d6000803e3d6000fd5b505050506040513d601f19601f82011682018060405250810190610ed091906149ec565b610f0f576040517f08c379a0000000000000000000000000000000000000000000000000000000008152600401610f0690614afa565b60405180910390fd5b3373ffffffffffffffffffffffffffffffffffffffff166003600083815260200190815260200160002060030160009054906101000a900473ffffffffffffffffffffffffffffffffffffffff1673ffffffffffffffffffffffffffffffffffffffff160361109657600380600083815260200190815260200160002060080160006101000a81548160ff02191690836008811115610fb157610fb0614456565b5b0217905550600a60009054906101000a900473ffffffffffffffffffffffffffffffffffffffff1673ffffffffffffffffffffffffffffffffffffffff16630357371d6003600084815260200190815260200160002060020160009054906101000a900473ffffffffffffffffffffffffffffffffffffffff1660036000858152602001908152602001600020600701546040518363ffffffff1660e01b815260040161105f929190614a19565b600060405180830381600087803b15801561107957600080fd5b505af115801561108d573d6000803e3d6000fd5b505050506110d1565b6040517f08c379a00000000000000000000000000000000000000000000000000000000081526004016110c890614b8c565b60405180910390fd5b50565b6000801b6110e181612ddc565b61110b7ffbd454f36a7e1a388bd6fc3ab10d434aa4578f811acbbcf33afb1c697486313c836127c2565b5050565b6000801b61111c81612ddc565b816111477feefb95e842a3287179d933b4460be539a1d5af11aa8b325bb45c5c8dc92de4ed826118e8565b1561118957806040517f375795b90000000000000000000000000000000000000000000000000000000081526004016111809190614bf8565b60405180910390fd5b6111b37f2a5f906c256a5d799494fcd066e1f6c077689de1cdb65052a1624de4bace99bf826118e8565b156111f557806040517f375795b90000000000000000000000000000000000000000000000000000000081526004016111ec9190614c72565b60405180910390fd5b61121f7ffbd454f36a7e1a388bd6fc3ab10d434aa4578f811acbbcf33afb1c697486313c826118e8565b1561126157806040517f375795b90000000000000000000000000000000000000000000000000000000081526004016112589190614cec565b60405180910390fd5b600073ffffffffffffffffffffffffffffffffffffffff168173ffffffffffffffffffffffffffffffffffffffff16036112d0576040517f08c379a00000000000000000000000000000000000000000000000000000000081526004016112c790614a8e565b60405180910390fd5b6112fa7feefb95e842a3287179d933b4460be539a1d5af11aa8b325bb45c5c8dc92de4ed84610aa7565b505050565b60026020528060005260406000206000915090505481565b6000801b61132481612ddc565b61134e7feefb95e842a3287179d933b4460be539a1d5af11aa8b325bb45c5c8dc92de4ed836127c2565b5050565b6000801b61135f81612ddc565b6113897f2a5f906c256a5d799494fcd066e1f6c077689de1cdb65052a1624de4bace99bf836127c2565b5050565b6000807feefb95e842a3287179d933b4460be539a1d5af11aa8b325bb45c5c8dc92de4ed8480519060200120036113e6577feefb95e842a3287179d933b4460be539a1d5af11aa8b325bb45c5c8dc92de4ed90506114cf565b7ffbd454f36a7e1a388bd6fc3ab10d434aa4578f811acbbcf33afb1c697486313c84805190602001200361143c577ffbd454f36a7e1a388bd6fc3ab10d434aa4578f811acbbcf33afb1c697486313c90506114ce565b7f2a5f906c256a5d799494fcd066e1f6c077689de1cdb65052a1624de4bace99bf848051906020012003611492577f2a5f906c256a5d799494fcd066e1f6c077689de1cdb65052a1624de4bace99bf90506114cd565b6040517f08c379a00000000000000000000000000000000000000000000000000000000081526004016114c490614d66565b60405180910390fd5b5b5b6114d981846118e8565b91505092915050565b6000801b6114ef81612ddc565b8161151a7feefb95e842a3287179d933b4460be539a1d5af11aa8b325bb45c5c8dc92de4ed826118e8565b1561155c57806040517f375795b90000000000000000000000000000000000000000000000000000000081526004016115539190614bf8565b60405180910390fd5b6115867f2a5f906c256a5d799494fcd066e1f6c077689de1cdb65052a1624de4bace99bf826118e8565b156115c857806040517f375795b90000000000000000000000000000000000000000000000000000000081526004016115bf9190614c72565b60405180910390fd5b6115f27ffbd454f36a7e1a388bd6fc3ab10d434aa4578f811acbbcf33afb1c697486313c826118e8565b1561163457806040517f375795b900000000000000000000000000000000000000000000000000000000815260040161162b9190614cec565b60405180910390fd5b600073ffffffffffffffffffffffffffffffffffffffff168173ffffffffffffffffffffffffffffffffffffffff16036116a3576040517f08c379a000000000000000000000000000000000000000000000000000000000815260040161169a90614a8e565b60405180910390fd5b6116cd7ffbd454f36a7e1a388bd6fc3ab10d434aa4578f811acbbcf33afb1c697486313c84610aa7565b505050565b600c60009054906101000a900473ffffffffffffffffffffffffffffffffffffffff1681565b6000801b61170581612ddc565b816117307feefb95e842a3287179d933b4460be539a1d5af11aa8b325bb45c5c8dc92de4ed826118e8565b1561177257806040517f375795b90000000000000000000000000000000000000000000000000000000081526004016117699190614bf8565b60405180910390fd5b61179c7f2a5f906c256a5d799494fcd066e1f6c077689de1cdb65052a1624de4bace99bf826118e8565b156117de57806040517f375795b90000000000000000000000000000000000000000000000000000000081526004016117d59190614c72565b60405180910390fd5b6118087ffbd454f36a7e1a388bd6fc3ab10d434aa4578f811acbbcf33afb1c697486313c826118e8565b1561184a57806040517f375795b90000000000000000000000000000000000000000000000000000000081526004016118419190614cec565b60405180910390fd5b600073ffffffffffffffffffffffffffffffffffffffff168173ffffffffffffffffffffffffffffffffffffffff16036118b9576040517f08c379a00000000000000000000000000000000000000000000000000000000081526004016118b090614a8e565b60405180910390fd5b6118e37f2a5f906c256a5d799494fcd066e1f6c077689de1cdb65052a1624de4bace99bf84610aa7565b505050565b600080600084815260200190815260200160002060000160008373ffffffffffffffffffffffffffffffffffffffff1673ffffffffffffffffffffffffffffffffffffffff16815260200190815260200160002060009054906101000a900460ff16905092915050565b7feefb95e842a3287179d933b4460be539a1d5af11aa8b325bb45c5c8dc92de4ed81565b6000801b61198381612ddc565b600073ffffffffffffffffffffffffffffffffffffffff168273ffffffffffffffffffffffffffffffffffffffff16036119f2576040517f08c379a00000000000000000000000000000000000000000000000000000000081526004016119e990614dd2565b60405180910390fd5b60018060008473ffffffffffffffffffffffffffffffffffffffff1673ffffffffffffffffffffffffffffffffffffffff16815260200190815260200160002060006101000a81548160ff021916908315150217905550611a737feefb95e842a3287179d933b4460be539a1d5af11aa8b325bb45c5c8dc92de4ed83612ee9565b50611a9e7ffbd454f36a7e1a388bd6fc3ab10d434aa4578f811acbbcf33afb1c697486313c83612ee9565b50611ac97f2a5f906c256a5d799494fcd066e1f6c077689de1cdb65052a1624de4bace99bf83612ee9565b507f90811a8edd3b3c17eeaefffc17f639cc69145d41a359c9843994dc253820369082604051611af9919061443b565b60405180910390a15050565b60036020528060005260406000206000915090508060000154908060010160009054906101000a900473ffffffffffffffffffffffffffffffffffffffff16908060020160009054906101000a900473ffffffffffffffffffffffffffffffffffffffff16908060030160009054906101000a900473ffffffffffffffffffffffffffffffffffffffff16908060040154908060050154908060060154908060070154908060080160009054906101000a900460ff16908060080160019054906101000a900473ffffffffffffffffffffffffffffffffffffffff1690508a565b600960009054906101000a900473ffffffffffffffffffffffffffffffffffffffff1681565b60046020528060005260406000206000915090508060000154908060010154908060020160009054906101000a900473ffffffffffffffffffffffffffffffffffffffff16908060020160149054906101000a900460ff16908060020160159054906101000a900460ff1690806003018054611c8790614966565b80601f0160208091040260200160405190810160405280929190818152602001828054611cb390614966565b8015611d005780601f10611cd557610100808354040283529160200191611d00565b820191906000526020600020905b815481529060010190602001808311611ce357829003601f168201915b5050505050905086565b6000801b81565b611d19613e2f565b6000801b600360008481526020019081526020016000206000015403611d74576040517f08c379a0000000000000000000000000000000000000000000000000000000008152600401611d6b90614e3e565b60405180910390fd5b6003600083815260200190815260200160002060405180610140016040529081600082015481526020016001820160009054906101000a900473ffffffffffffffffffffffffffffffffffffffff1673ffffffffffffffffffffffffffffffffffffffff1673ffffffffffffffffffffffffffffffffffffffff1681526020016002820160009054906101000a900473ffffffffffffffffffffffffffffffffffffffff1673ffffffffffffffffffffffffffffffffffffffff1673ffffffffffffffffffffffffffffffffffffffff1681526020016003820160009054906101000a900473ffffffffffffffffffffffffffffffffffffffff1673ffffffffffffffffffffffffffffffffffffffff1673ffffffffffffffffffffffffffffffffffffffff168152602001600482015481526020016005820154815260200160068201548152602001600782015481526020016008820160009054906101000a900460ff166008811115611eec57611eeb614456565b5b6008811115611efe57611efd614456565b5b81526020016008820160019054906101000a900473ffffffffffffffffffffffffffffffffffffffff1673ffffffffffffffffffffffffffffffffffffffff1673ffffffffffffffffffffffffffffffffffffffff16815250509050919050565b600160003373ffffffffffffffffffffffffffffffffffffffff1673ffffffffffffffffffffffffffffffffffffffff16815260200190815260200160002060009054906101000a900460ff1615611fec576040517f08c379a0000000000000000000000000000000000000000000000000000000008152600401611fe390614a8e565b60405180910390fd5b600b60009054906101000a900473ffffffffffffffffffffffffffffffffffffffff1673ffffffffffffffffffffffffffffffffffffffff166391d148547ffbd454f36a7e1a388bd6fc3ab10d434aa4578f811acbbcf33afb1c697486313c336040518363ffffffff1660e01b8152600401612069929190614997565b602060405180830381865afa158015612086573d6000803e3d6000fd5b505050506040513d601f19601f820116820180604052508101906120aa91906149ec565b6120e9576040517f08c379a00000000000000000000000000000000000000000000000000000000081526004016120e090614eaa565b60405180910390fd5b3373ffffffffffffffffffffffffffffffffffffffff166003600083815260200190815260200160002060020160009054906101000a900473ffffffffffffffffffffffffffffffffffffffff1673ffffffffffffffffffffffffffffffffffffffff16036122715760016003600083815260200190815260200160002060080160006101000a81548160ff0219169083600881111561218c5761218b614456565b5b0217905550600a60009054906101000a900473ffffffffffffffffffffffffffffffffffffffff1673ffffffffffffffffffffffffffffffffffffffff16630357371d6003600084815260200190815260200160002060010160009054906101000a900473ffffffffffffffffffffffffffffffffffffffff1660036000858152602001908152602001600020600601546040518363ffffffff1660e01b815260040161223a929190614a19565b600060405180830381600087803b15801561225457600080fd5b505af1158015612268573d6000803e3d6000fd5b505050506122ac565b6040517f08c379a00000000000000000000000000000000000000000000000000000000081526004016122a390614b8c565b60405180910390fd5b50565b600160003373ffffffffffffffffffffffffffffffffffffffff1673ffffffffffffffffffffffffffffffffffffffff16815260200190815260200160002060009054906101000a900460ff161561233c576040517f08c379a000000000000000000000000000000000000000000000000000000000815260040161233390614a8e565b60405180910390fd5b6123468282612fdb565b600360008381526020019081526020016000206006015434101561239f576040517f08c379a000000000000000000000000000000000000000000000000000000000815260040161239690614f16565b60405180910390fd5b600a60009054906101000a900473ffffffffffffffffffffffffffffffffffffffff1673ffffffffffffffffffffffffffffffffffffffff1663ad7fadc534336003600087815260200190815260200160002060010160009054906101000a900473ffffffffffffffffffffffffffffffffffffffff166040518463ffffffff1660e01b8152600401612433929190614f36565b6000604051808303818588803b15801561244c57600080fd5b505af1158015612460573d6000803e3d6000fd5b5050505050806003600084815260200190815260200160002060070181905550426003600084815260200190815260200160002060050181905550336003600084815260200190815260200160002060020160006101000a81548173ffffffffffffffffffffffffffffffffffffffff021916908373ffffffffffffffffffffffffffffffffffffffff160217905550600560003373ffffffffffffffffffffffffffffffffffffffff1673ffffffffffffffffffffffffffffffffffffffff16815260200190815260200160002082908060018154018082558091505060019003906000526020600020016000909190919091505560016003600084815260200190815260200160002060080160006101000a81548160ff021916908360088111156125905761258f614456565b5b0217905550817f78dec01f974668793fa9048dc94c45a25b01bbabc6b89300c8ed2995d74005d56003600085815260200190815260200160002060020160009054906101000a900473ffffffffffffffffffffffffffffffffffffffff166003600086815260200190815260200160002060080160009054906101000a900460ff16600360008781526020019081526020016000206006015460036000888152602001908152602001600020600501546040516126509493929190614f5f565b60405180910390a25050565b6000801b61266981612ddc565b600073ffffffffffffffffffffffffffffffffffffffff168273ffffffffffffffffffffffffffffffffffffffff16036126d8576040517f08c379a00000000000000000000000000000000000000000000000000000000081526004016126cf90614ff0565b60405180910390fd5b6000600160008473ffffffffffffffffffffffffffffffffffffffff1673ffffffffffffffffffffffffffffffffffffffff16815260200190815260200160002060006101000a81548160ff0219169083151502179055507fc3776b472ebf54114339eec9e4dc924e7ce307a97f5c1ee72b6d474e6e5e8b7c8260405161275f919061443b565b60405180910390a15050565b600b60009054906101000a900473ffffffffffffffffffffffffffffffffffffffff1681565b600560205281600052604060002081815481106127ad57600080fd5b90600052602060002001600091509150505481565b6127cb82610a64565b6127d481612ddc565b6127de8383612ee9565b50505050565b600a60009054906101000a900473ffffffffffffffffffffffffffffffffffffffff1681565b612812613e2f565b600160003373ffffffffffffffffffffffffffffffffffffffff1673ffffffffffffffffffffffffffffffffffffffff16815260200190815260200160002060009054906101000a900460ff161561289f576040517f08c379a000000000000000000000000000000000000000000000000000000000815260040161289690614a8e565b60405180910390fd5b6128aa85858561335a565b60006128b88686868661364e565b905080915050949350505050565b60016020528060005260406000206000915054906101000a900460ff1681565b600160003373ffffffffffffffffffffffffffffffffffffffff1673ffffffffffffffffffffffffffffffffffffffff16815260200190815260200160002060009054906101000a900460ff1615612973576040517f08c379a000000000000000000000000000000000000000000000000000000000815260040161296a90614a8e565b60405180910390fd5b61297c81613a4a565b600a60009054906101000a900473ffffffffffffffffffffffffffffffffffffffff1673ffffffffffffffffffffffffffffffffffffffff1663ad7fadc534336003600086815260200190815260200160002060020160009054906101000a900473ffffffffffffffffffffffffffffffffffffffff166040518463ffffffff1660e01b8152600401612a10929190614f36565b6000604051808303818588803b158015612a2957600080fd5b505af1158015612a3d573d6000803e3d6000fd5b5050505050426003600083815260200190815260200160002060050181905550336003600083815260200190815260200160002060030160006101000a81548173ffffffffffffffffffffffffffffffffffffffff021916908373ffffffffffffffffffffffffffffffffffffffff160217905550600560003373ffffffffffffffffffffffffffffffffffffffff1673ffffffffffffffffffffffffffffffffffffffff168152602001908152602001600020819080600181540180825580915050600190039060005260206000200160009091909190915055600380600083815260200190815260200160002060080160006101000a81548160ff02191690836008811115612b5157612b50614456565b5b0217905550807fd5bf0453cd492c459ba9477de283c3662783c2fb8a03df42555d15741b1848d46003600084815260200190815260200160002060030160009054906101000a900473ffffffffffffffffffffffffffffffffffffffff166003600085815260200190815260200160002060080160009054906101000a900460ff1660036000868152602001908152602001600020600601546003600087815260200190815260200160002060050154604051612c119493929190614f5f565b60405180910390a250565b60008060001b600360008481526020019081526020016000206000015403612c79576040517f08c379a0000000000000000000000000000000000000000000000000000000008152600401612c7090614e3e565b60405180910390fd5b6003600083815260200190815260200160002060080160019054906101000a900473ffffffffffffffffffffffffffffffffffffffff169050919050565b7ffbd454f36a7e1a388bd6fc3ab10d434aa4578f811acbbcf33afb1c697486313c81565b6060600560008373ffffffffffffffffffffffffffffffffffffffff1673ffffffffffffffffffffffffffffffffffffffff168152602001908152602001600020805480602002602001604051908101604052809291908181526020018280548015612d6657602002820191906000526020600020905b815481526020019060010190808311612d52575b50505050509050919050565b60007f01ffc9a7000000000000000000000000000000000000000000000000000000007bffffffffffffffffffffffffffffffffffffffffffffffffffffffff1916827bffffffffffffffffffffffffffffffffffffffffffffffffffffffff1916149050919050565b612ded81612de8612ee1565b613dde565b50565b6000612dfc83836118e8565b612ed657600160008085815260200190815260200160002060000160008473ffffffffffffffffffffffffffffffffffffffff1673ffffffffffffffffffffffffffffffffffffffff16815260200190815260200160002060006101000a81548160ff021916908315150217905550612e73612ee1565b73ffffffffffffffffffffffffffffffffffffffff168273ffffffffffffffffffffffffffffffffffffffff16847f2f8788117e7eff1d82e926ec794901d17c78024a50270940304540a733656f0d60405160405180910390a460019050612edb565b600090505b92915050565b600033905090565b6000612ef583836118e8565b15612fd057600080600085815260200190815260200160002060000160008473ffffffffffffffffffffffffffffffffffffffff1673ffffffffffffffffffffffffffffffffffffffff16815260200190815260200160002060006101000a81548160ff021916908315150217905550612f6d612ee1565b73ffffffffffffffffffffffffffffffffffffffff168273ffffffffffffffffffffffffffffffffffffffff16847ff6391f5c32d9c69d2a47ea670b442974b53935d1edc7fd64eb21e047a839171b60405160405180910390a460019050612fd5565b600090505b92915050565b600b60009054906101000a900473ffffffffffffffffffffffffffffffffffffffff1673ffffffffffffffffffffffffffffffffffffffff166391d148547ffbd454f36a7e1a388bd6fc3ab10d434aa4578f811acbbcf33afb1c697486313c336040518363ffffffff1660e01b8152600401613058929190614997565b602060405180830381865afa158015613075573d6000803e3d6000fd5b505050506040513d601f19601f8201168201806040525081019061309991906149ec565b6130d8576040517f08c379a00000000000000000000000000000000000000000000000000000000081526004016130cf90614eaa565b60405180910390fd5b600073ffffffffffffffffffffffffffffffffffffffff166003600084815260200190815260200160002060020160009054906101000a900473ffffffffffffffffffffffffffffffffffffffff1673ffffffffffffffffffffffffffffffffffffffff161461317d576040517f08c379a000000000000000000000000000000000000000000000000000000000815260040161317490615082565b60405180910390fd5b6000801b6003600084815260200190815260200160002060000154036131d8576040517f08c379a00000000000000000000000000000000000000000000000000000000081526004016131cf90614e3e565b60405180910390fd5b600060088111156131ec576131eb614456565b5b6003600084815260200190815260200160002060080160009054906101000a900460ff16600881111561322257613221614456565b5b14613262576040517f08c379a000000000000000000000000000000000000000000000000000000000815260040161325990615114565b60405180910390fd5b426003600084815260200190815260200160002060040154116132ba576040517f08c379a00000000000000000000000000000000000000000000000000000000081526004016132b190615180565b60405180910390fd5b6003600083815260200190815260200160002060060154341015613313576040517f08c379a000000000000000000000000000000000000000000000000000000000815260040161330a906151ec565b60405180910390fd5b60008111613356576040517f08c379a000000000000000000000000000000000000000000000000000000000815260040161334d9061527e565b60405180910390fd5b5050565b600b60009054906101000a900473ffffffffffffffffffffffffffffffffffffffff1673ffffffffffffffffffffffffffffffffffffffff166391d148547feefb95e842a3287179d933b4460be539a1d5af11aa8b325bb45c5c8dc92de4ed336040518363ffffffff1660e01b81526004016133d7929190614997565b602060405180830381865afa1580156133f4573d6000803e3d6000fd5b505050506040513d601f19601f8201168201806040525081019061341891906149ec565b613457576040517f08c379a000000000000000000000000000000000000000000000000000000000815260040161344e906152ea565b60405180910390fd5b600b60009054906101000a900473ffffffffffffffffffffffffffffffffffffffff1673ffffffffffffffffffffffffffffffffffffffff166391d148547feefb95e842a3287179d933b4460be539a1d5af11aa8b325bb45c5c8dc92de4ed856040518363ffffffff1660e01b81526004016134d4929190614997565b602060405180830381865afa1580156134f1573d6000803e3d6000fd5b505050506040513d601f19601f8201168201806040525081019061351591906149ec565b613554576040517f08c379a000000000000000000000000000000000000000000000000000000000815260040161354b9061537c565b60405180910390fd5b600073ffffffffffffffffffffffffffffffffffffffff168373ffffffffffffffffffffffffffffffffffffffff16036135c3576040517f08c379a00000000000000000000000000000000000000000000000000000000081526004016135ba9061540e565b60405180910390fd5b42821015613606576040517f08c379a00000000000000000000000000000000000000000000000000000000081526004016135fd906154a0565b60405180910390fd5b60008111613649576040517f08c379a00000000000000000000000000000000000000000000000000000000081526004016136409061550c565b60405180910390fd5b505050565b613656613e2f565b61365e613e2f565b6000816101000190600881111561367857613677614456565b5b9081600881111561368c5761368b614456565b5b81525050428160a00181815250508281610120019073ffffffffffffffffffffffffffffffffffffffff16908173ffffffffffffffffffffffffffffffffffffffff1681525050600860008154809291906136e69061555b565b919050555085816020019073ffffffffffffffffffffffffffffffffffffffff16908173ffffffffffffffffffffffffffffffffffffffff168152505084816080018181525050838160c00181815250506000600260003373ffffffffffffffffffffffffffffffffffffffff1673ffffffffffffffffffffffffffffffffffffffff16815260200190815260200160002060008154809291906137899061555b565b91905055905081602001518260a00151826040516020016137ac9392919061560c565b604051602081830303815290604052805190602001208260000181815250506007826000015190806001815401808255809150506001900390600052602060002001600090919091909150558160036000846000015181526020019081526020016000206000820151816000015560208201518160010160006101000a81548173ffffffffffffffffffffffffffffffffffffffff021916908373ffffffffffffffffffffffffffffffffffffffff16021790555060408201518160020160006101000a81548173ffffffffffffffffffffffffffffffffffffffff021916908373ffffffffffffffffffffffffffffffffffffffff16021790555060608201518160030160006101000a81548173ffffffffffffffffffffffffffffffffffffffff021916908373ffffffffffffffffffffffffffffffffffffffff1602179055506080820151816004015560a0820151816005015560c0820151816006015560e082015181600701556101008201518160080160006101000a81548160ff0219169083600881111561394357613942614456565b5b02179055506101208201518160080160016101000a81548173ffffffffffffffffffffffffffffffffffffffff021916908373ffffffffffffffffffffffffffffffffffffffff160217905550905050600560008873ffffffffffffffffffffffffffffffffffffffff1673ffffffffffffffffffffffffffffffffffffffff1681526020019081526020016000208260000151908060018154018082558091505060019003906000526020600020016000909190919091505581600001517f142fb4f6af814b9c2a0fc64fa90bca80d84d17f165530aa799ede76f9882ec2e8360a00151604051613a359190613fd7565b60405180910390a28192505050949350505050565b600b60009054906101000a900473ffffffffffffffffffffffffffffffffffffffff1673ffffffffffffffffffffffffffffffffffffffff166391d148547f2a5f906c256a5d799494fcd066e1f6c077689de1cdb65052a1624de4bace99bf336040518363ffffffff1660e01b8152600401613ac7929190614997565b602060405180830381865afa158015613ae4573d6000803e3d6000fd5b505050506040513d601f19601f82011682018060405250810190613b0891906149ec565b613b47576040517f08c379a0000000000000000000000000000000000000000000000000000000008152600401613b3e90614afa565b60405180910390fd5b600073ffffffffffffffffffffffffffffffffffffffff166003600083815260200190815260200160002060030160009054906101000a900473ffffffffffffffffffffffffffffffffffffffff1673ffffffffffffffffffffffffffffffffffffffff1614613bec576040517f08c379a0000000000000000000000000000000000000000000000000000000008152600401613be3906156bb565b60405180910390fd5b6000801b600360008381526020019081526020016000206000015403613c47576040517f08c379a0000000000000000000000000000000000000000000000000000000008152600401613c3e90614e3e565b60405180910390fd5b60016008811115613c5b57613c5a614456565b5b6003600083815260200190815260200160002060080160009054906101000a900460ff166008811115613c9157613c90614456565b5b14613cd1576040517f08c379a0000000000000000000000000000000000000000000000000000000008152600401613cc89061574d565b60405180910390fd5b42600360008381526020019081526020016000206004015411613d29576040517f08c379a0000000000000000000000000000000000000000000000000000000008152600401613d2090615180565b60405180910390fd5b6003600082815260200190815260200160002060070154341015613d82576040517f08c379a0000000000000000000000000000000000000000000000000000000008152600401613d79906157df565b60405180910390fd5b6000600360008381526020019081526020016000206007015411613ddb576040517f08c379a0000000000000000000000000000000000000000000000000000000008152600401613dd29061584b565b60405180910390fd5b50565b613de882826118e8565b613e2b5780826040517fe2517d3f000000000000000000000000000000000000000000000000000000008152600401613e2292919061586b565b60405180910390fd5b5050565b60405180610140016040528060008019168152602001600073ffffffffffffffffffffffffffffffffffffffff168152602001600073ffffffffffffffffffffffffffffffffffffffff168152602001600073ffffffffffffffffffffffffffffffffffffffff1681526020016000815260200160008152602001600081526020016000815260200160006008811115613ecc57613ecb614456565b5b8152602001600073ffffffffffffffffffffffffffffffffffffffff1681525090565b6000604051905090565b600080fd5b600080fd5b60007fffffffff0000000000000000000000000000000000000000000000000000000082169050919050565b613f3881613f03565b8114613f4357600080fd5b50565b600081359050613f5581613f2f565b92915050565b600060208284031215613f7157613f70613ef9565b5b6000613f7f84828501613f46565b91505092915050565b60008115159050919050565b613f9d81613f88565b82525050565b6000602082019050613fb86000830184613f94565b92915050565b6000819050919050565b613fd181613fbe565b82525050565b6000602082019050613fec6000830184613fc8565b92915050565b6000819050919050565b61400581613ff2565b82525050565b60006020820190506140206000830184613ffc565b92915050565b61402f81613ff2565b811461403a57600080fd5b50565b60008135905061404c81614026565b92915050565b60006020828403121561406857614067613ef9565b5b60006140768482850161403d565b91505092915050565b61408881613fbe565b811461409357600080fd5b50565b6000813590506140a58161407f565b92915050565b6000602082840312156140c1576140c0613ef9565b5b60006140cf84828501614096565b91505092915050565b600073ffffffffffffffffffffffffffffffffffffffff82169050919050565b6000614103826140d8565b9050919050565b614113816140f8565b811461411e57600080fd5b50565b6000813590506141308161410a565b92915050565b6000806040838503121561414d5761414c613ef9565b5b600061415b8582860161403d565b925050602061416c85828601614121565b9150509250929050565b61417f816140f8565b82525050565b600081519050919050565b600082825260208201905092915050565b60005b838110156141bf5780820151818401526020810190506141a4565b60008484015250505050565b6000601f19601f8301169050919050565b60006141e782614185565b6141f18185614190565b93506142018185602086016141a1565b61420a816141cb565b840191505092915050565b600060c08201905061422a6000830189613ffc565b6142376020830188613fc8565b6142446040830187614176565b6142516060830186613f94565b61425e6080830185613f94565b81810360a083015261427081846141dc565b9050979650505050505050565b60006020828403121561429357614292613ef9565b5b60006142a184828501614121565b91505092915050565b600080fd5b600080fd5b7f4e487b7100000000000000000000000000000000000000000000000000000000600052604160045260246000fd5b6142ec826141cb565b810181811067ffffffffffffffff8211171561430b5761430a6142b4565b5b80604052505050565b600061431e613eef565b905061432a82826142e3565b919050565b600067ffffffffffffffff82111561434a576143496142b4565b5b614353826141cb565b9050602081019050919050565b82818337600083830152505050565b600061438261437d8461432f565b614314565b90508281526020810184848401111561439e5761439d6142af565b5b6143a9848285614360565b509392505050565b600082601f8301126143c6576143c56142aa565b5b81356143d684826020860161436f565b91505092915050565b600080604083850312156143f6576143f5613ef9565b5b600083013567ffffffffffffffff81111561441457614413613efe565b5b614420858286016143b1565b925050602061443185828601614121565b9150509250929050565b60006020820190506144506000830184614176565b92915050565b7f4e487b7100000000000000000000000000000000000000000000000000000000600052602160045260246000fd5b6009811061449657614495614456565b5b50565b60008190506144a782614485565b919050565b60006144b782614499565b9050919050565b6144c7816144ac565b82525050565b6000610140820190506144e3600083018d613ffc565b6144f0602083018c614176565b6144fd604083018b614176565b61450a606083018a614176565b6145176080830189613fc8565b61452460a0830188613fc8565b61453160c0830187613fc8565b61453e60e0830186613fc8565b61454c6101008301856144be565b61455a610120830184614176565b9b9a5050505050505050505050565b6000819050919050565b600061458e614589614584846140d8565b614569565b6140d8565b9050919050565b60006145a082614573565b9050919050565b60006145b282614595565b9050919050565b6145c2816145a7565b82525050565b60006020820190506145dd60008301846145b9565b92915050565b6145ec81613ff2565b82525050565b6145fb816140f8565b82525050565b61460a81613fbe565b82525050565b614619816144ac565b82525050565b6101408201600082015161463660008501826145e3565b50602082015161464960208501826145f2565b50604082015161465c60408501826145f2565b50606082015161466f60608501826145f2565b5060808201516146826080850182614601565b5060a082015161469560a0850182614601565b5060c08201516146a860c0850182614601565b5060e08201516146bb60e0850182614601565b506101008201516146d0610100850182614610565b506101208201516146e56101208501826145f2565b50505050565b600061014082019050614701600083018461461f565b92915050565b6000806040838503121561471e5761471d613ef9565b5b600061472c8582860161403d565b925050602061473d85828601614096565b9150509250929050565b600061475282614595565b9050919050565b61476281614747565b82525050565b600060208201905061477d6000830184614759565b92915050565b6000806040838503121561479a57614799613ef9565b5b60006147a885828601614121565b92505060206147b985828601614096565b9150509250929050565b60006147ce82614595565b9050919050565b6147de816147c3565b82525050565b60006020820190506147f960008301846147d5565b92915050565b6000806000806080858703121561481957614818613ef9565b5b600061482787828801614121565b945050602061483887828801614096565b935050604061484987828801614096565b925050606061485a87828801614121565b91505092959194509250565b600081519050919050565b600082825260208201905092915050565b6000819050602082019050919050565b600061489e83836145e3565b60208301905092915050565b6000602082019050919050565b60006148c282614866565b6148cc8185614871565b93506148d783614882565b8060005b838110156149085781516148ef8882614892565b97506148fa836148aa565b9250506001810190506148db565b5085935050505092915050565b6000602082019050818103600083015261492f81846148b7565b905092915050565b7f4e487b7100000000000000000000000000000000000000000000000000000000600052602260045260246000fd5b6000600282049050600182168061497e57607f821691505b60208210810361499157614990614937565b5b50919050565b60006040820190506149ac6000830185613ffc565b6149b96020830184614176565b9392505050565b6149c981613f88565b81146149d457600080fd5b50565b6000815190506149e6816149c0565b92915050565b600060208284031215614a0257614a01613ef9565b5b6000614a10848285016149d7565b91505092915050565b6000604082019050614a2e6000830185614176565b614a3b6020830184613fc8565b9392505050565b7f4164647265737320496e76616c69640000000000000000000000000000000000600082015250565b6000614a78600f83614190565b9150614a8382614a42565b602082019050919050565b60006020820190508181036000830152614aa781614a6b565b9050919050565b7f497473206e6f742052657461696c657200000000000000000000000000000000600082015250565b6000614ae4601083614190565b9150614aef82614aae565b602082019050919050565b60006020820190508181036000830152614b1381614ad7565b9050919050565b7f556e617574686f72697a656420746f206d61726b20746869732062617463682060008201527f6173207265636569766564000000000000000000000000000000000000000000602082015250565b6000614b76602b83614190565b9150614b8182614b1a565b604082019050919050565b60006020820190508181036000830152614ba581614b69565b9050919050565b7f4d616e7566616374757265720000000000000000000000000000000000000000600082015250565b6000614be2600c83614190565b9150614bed82614bac565b602082019050919050565b60006040820190508181036000830152614c1181614bd5565b9050614c206020830184614176565b92915050565b7f52657461696c6572000000000000000000000000000000000000000000000000600082015250565b6000614c5c600883614190565b9150614c6782614c26565b602082019050919050565b60006040820190508181036000830152614c8b81614c4f565b9050614c9a6020830184614176565b92915050565b7f4469737472696275746f72000000000000000000000000000000000000000000600082015250565b6000614cd6600b83614190565b9150614ce182614ca0565b602082019050919050565b60006040820190508181036000830152614d0581614cc9565b9050614d146020830184614176565b92915050565b7f496e76616c696420726f6c65206e616d65000000000000000000000000000000600082015250565b6000614d50601183614190565b9150614d5b82614d1a565b602082019050919050565b60006020820190508181036000830152614d7f81614d43565b9050919050565b7f43616e6e6f7420667265657a6520746865207a65726f20616464726573730000600082015250565b6000614dbc601e83614190565b9150614dc782614d86565b602082019050919050565b60006020820190508181036000830152614deb81614daf565b9050919050565b7f426174636820646f6573206e6f74206578697374000000000000000000000000600082015250565b6000614e28601483614190565b9150614e3382614df2565b602082019050919050565b60006020820190508181036000830152614e5781614e1b565b9050919050565b7f497473206e6f74204469737472696275746f7200000000000000000000000000600082015250565b6000614e94601383614190565b9150614e9f82614e5e565b602082019050919050565b60006020820190508181036000830152614ec381614e87565b9050919050565b7f4c6573732050726963652053656e740000000000000000000000000000000000600082015250565b6000614f00600f83614190565b9150614f0b82614eca565b602082019050919050565b60006020820190508181036000830152614f2f81614ef3565b9050919050565b6000604082019050614f4b6000830185614176565b614f586020830184614176565b9392505050565b6000608082019050614f746000830187614176565b614f8160208301866144be565b614f8e6040830185613fc8565b614f9b6060830184613fc8565b95945050505050565b7f43616e6e6f7420756e667265657a6520746865207a65726f2061646472657373600082015250565b6000614fda602083614190565b9150614fe582614fa4565b602082019050919050565b6000602082019050818103600083015261500981614fcd565b9050919050565b7f426174636820697320616c72656164792070757263686173656420627920616e60008201527f6f74686572206469737472696275746f72000000000000000000000000000000602082015250565b600061506c603183614190565b915061507782615010565b604082019050919050565b6000602082019050818103600083015261509b8161505f565b9050919050565b7f4261746368206973206e6f7420617661696c61626c6520666f7220707572636860008201527f617365206279204469737472696275746f720000000000000000000000000000602082015250565b60006150fe603283614190565b9150615109826150a2565b604082019050919050565b6000602082019050818103600083015261512d816150f1565b9050919050565b7f4261746368206861732065787069726564000000000000000000000000000000600082015250565b600061516a601183614190565b915061517582615134565b602082019050919050565b600060208201905081810360008301526151998161515d565b9050919050565b7f496e73756666696369656e742050726963652053656e74000000000000000000600082015250565b60006151d6601783614190565b91506151e1826151a0565b602082019050919050565b60006020820190508181036000830152615205816151c9565b9050919050565b7f50726f64756374207072696365206d757374206265206772656174657220746860008201527f616e207a65726f00000000000000000000000000000000000000000000000000602082015250565b6000615268602783614190565b91506152738261520c565b604082019050919050565b600060208201905081810360008301526152978161525b565b9050919050565b7f497473206e6f74204d616e756661637475726572000000000000000000000000600082015250565b60006152d4601483614190565b91506152df8261529e565b602082019050919050565b60006020820190508181036000830152615303816152c7565b9050919050565b7f4d616e7566616374757265722061646472657373206973206e6f74207265676960008201527f7374657265640000000000000000000000000000000000000000000000000000602082015250565b6000615366602683614190565b91506153718261530a565b604082019050919050565b6000602082019050818103600083015261539581615359565b9050919050565b7f4d616e75666163747572657220616464726573732063616e6e6f74206265207a60008201527f65726f0000000000000000000000000000000000000000000000000000000000602082015250565b60006153f8602383614190565b91506154038261539c565b604082019050919050565b60006020820190508181036000830152615427816153eb565b9050919050565b7f4578706972792064617465206d75737420626520696e2074686520667574757260008201527f6500000000000000000000000000000000000000000000000000000000000000602082015250565b600061548a602183614190565b91506154958261542e565b604082019050919050565b600060208201905081810360008301526154b98161547d565b9050919050565b7f5072696365206d7573742062652067726561746572207468616e207a65726f00600082015250565b60006154f6601f83614190565b9150615501826154c0565b602082019050919050565b60006020820190508181036000830152615525816154e9565b9050919050565b7f4e487b7100000000000000000000000000000000000000000000000000000000600052601160045260246000fd5b600061556682613fbe565b91507fffffffffffffffffffffffffffffffffffffffffffffffffffffffffffffffff82036155985761559761552c565b5b600182019050919050565b60008160601b9050919050565b60006155bb826155a3565b9050919050565b60006155cd826155b0565b9050919050565b6155e56155e0826140f8565b6155c2565b82525050565b6000819050919050565b61560661560182613fbe565b6155eb565b82525050565b600061561882866155d4565b60148201915061562882856155f5565b60208201915061563882846155f5565b602082019150819050949350505050565b7f426174636820697320616c72656164792070757263686173656420627920616e60008201527f6f746865722072657461696c6572000000000000000000000000000000000000602082015250565b60006156a5602e83614190565b91506156b082615649565b604082019050919050565b600060208201905081810360008301526156d481615698565b9050919050565b7f4261746368206973206e6f7420617661696c61626c6520666f7220707572636860008201527f6173652062792052657461696c65720000000000000000000000000000000000602082015250565b6000615737602f83614190565b9150615742826156db565b604082019050919050565b600060208201905081810360008301526157668161572a565b9050919050565b7f5061796d656e74206d7573742062652067726561746572207468616e2070726f60008201527f6475637450726963650000000000000000000000000000000000000000000000602082015250565b60006157c9602983614190565b91506157d48261576d565b604082019050919050565b600060208201905081810360008301526157f8816157bc565b9050919050565b7f50726f64756374205072696365206973206e6f74207365740000000000000000600082015250565b6000615835601883614190565b9150615840826157ff565b602082019050919050565b6000602082019050818103600083015261586481615828565b9050919050565b60006040820190506158806000830185614176565b61588d6020830184613ffc565b939250505056fea2646970667358221220721f6208c73185218d41780cd484674d1be475d5052fbe00df0325cd6fea8c7464736f6c634300081c0033",
  "linkReferences": {},
  "deployedLinkReferences": {}
}