{
  "_format": "hh-sol-artifact-1",
  "contractName": "BasicMechanism",
  "sourceName": "contracts/BasicMechanism.sol",
  "abi": [
    {
      "inputs": [
        {
          "internalType": "address",
          "name": "priceFeedAddress",
          "type": "address"
        },
        {
          "internalType": "address",
          "name": "escrowAddress",
          "type": "address"
        },
        {
          "internalType": "address",
          "name": "handlingAddresses",
          "type": "address"
        }
      ],
      "stateMutability": "nonpayable",
      "type": "constructor"
    },
    {
      "inputs": [],
      "name": "AccessControlBadConfirmation",
      "type": "error"
    },
    {
      "inputs": [
        {
          "internalType": "address",
          "name": "account",
          "type": "address"
        },
        {
          "internalType": "bytes32",
          "name": "neededRole",
          "type": "bytes32"
        }
      ],
      "name": "AccessControlUnauthorizedAccount",
      "type": "error"
    },
    {
      "inputs": [
        {
          "internalType": "string",
          "name": "role",
          "type": "string"
        },
        {
          "internalType": "address",
          "name": "account",
          "type": "address"
        }
      ],
      "name": "AddressAlreadyExists",
      "type": "error"
    },
    {
      "inputs": [
        {
          "internalType": "address",
          "name": "account",
          "type": "address"
        }
      ],
      "name": "AddressInvalid",
      "type": "error"
    },
    {
      "inputs": [
        {
          "internalType": "uint256",
          "name": "_usdAmount",
          "type": "uint256"
        }
      ],
      "name": "InvalidAmount",
      "type": "error"
    },
    {
      "anonymous": false,
      "inputs": [
        {
          "indexed": false,
          "internalType": "address",
          "name": "account",
          "type": "address"
        }
      ],
      "name": "AddressFrozen",
      "type": "event"
    },
    {
      "anonymous": false,
      "inputs": [
        {
          "indexed": false,
          "internalType": "address",
          "name": "account",
          "type": "address"
        }
      ],
      "name": "AddressUnfrozen",
      "type": "event"
    },
    {
      "anonymous": false,
      "inputs": [
        {
          "indexed": true,
          "internalType": "bytes32",
          "name": "batchId",
          "type": "bytes32"
        },
        {
          "indexed": false,
          "internalType": "uint256",
          "name": "timestamp",
          "type": "uint256"
        }
      ],
      "name": "BatchCreated",
      "type": "event"
    },
    {
      "anonymous": false,
      "inputs": [
        {
          "indexed": true,
          "internalType": "bytes32",
          "name": "batchId",
          "type": "bytes32"
        },
        {
          "indexed": false,
          "internalType": "address",
          "name": "distributor",
          "type": "address"
        },
        {
          "indexed": false,
          "internalType": "enum DrugSupplyChain.BatchStatus",
          "name": "statusEnum",
          "type": "uint8"
        },
        {
          "indexed": false,
          "internalType": "uint256",
          "name": "price",
          "type": "uint256"
        },
        {
          "indexed": false,
          "internalType": "uint256",
          "name": "timestamp",
          "type": "uint256"
        }
      ],
      "name": "DistributerPurchased",
      "type": "event"
    },
    {
      "anonymous": false,
      "inputs": [
        {
          "indexed": true,
          "internalType": "bytes32",
          "name": "batchId",
          "type": "bytes32"
        },
        {
          "indexed": false,
          "internalType": "enum DrugSupplyChain.BatchStatus",
          "name": "statusEnum",
          "type": "uint8"
        },
        {
          "indexed": true,
          "internalType": "address",
          "name": "distributor",
          "type": "address"
        },
        {
          "indexed": false,
          "internalType": "uint256",
          "name": "price",
          "type": "uint256"
        },
        {
          "indexed": false,
          "internalType": "uint256",
          "name": "timestamp",
          "type": "uint256"
        },
        {
          "indexed": false,
          "internalType": "string",
          "name": "reason",
          "type": "string"
        }
      ],
      "name": "EligibleForResell",
      "type": "event"
    },
    {
      "anonymous": false,
      "inputs": [
        {
          "indexed": true,
          "internalType": "bytes32",
          "name": "batchId",
          "type": "bytes32"
        },
        {
          "indexed": true,
          "internalType": "address",
          "name": "to",
          "type": "address"
        },
        {
          "indexed": true,
          "internalType": "uint256",
          "name": "timestamp",
          "type": "uint256"
        },
        {
          "indexed": false,
          "internalType": "bool",
          "name": "refunded",
          "type": "bool"
        },
        {
          "indexed": false,
          "internalType": "string",
          "name": "reason",
          "type": "string"
        }
      ],
      "name": "Refunded",
      "type": "event"
    },
    {
      "anonymous": false,
      "inputs": [
        {
          "indexed": true,
          "internalType": "bytes32",
          "name": "batchId",
          "type": "bytes32"
        },
        {
          "indexed": true,
          "internalType": "address",
          "name": "requester",
          "type": "address"
        },
        {
          "indexed": true,
          "internalType": "uint256",
          "name": "timestamp",
          "type": "uint256"
        },
        {
          "indexed": false,
          "internalType": "bool",
          "name": "approved",
          "type": "bool"
        },
        {
          "indexed": false,
          "internalType": "string",
          "name": "reason",
          "type": "string"
        }
      ],
      "name": "RequestApproved",
      "type": "event"
    },
    {
      "anonymous": false,
      "inputs": [
        {
          "indexed": true,
          "internalType": "bytes32",
          "name": "batchId",
          "type": "bytes32"
        },
        {
          "indexed": false,
          "internalType": "enum DrugSupplyChain.BatchStatus",
          "name": "statusEnum",
          "type": "uint8"
        },
        {
          "indexed": true,
          "internalType": "address",
          "name": "distributor",
          "type": "address"
        },
        {
          "indexed": false,
          "internalType": "uint256",
          "name": "price",
          "type": "uint256"
        },
        {
          "indexed": false,
          "internalType": "uint256",
          "name": "timestamp",
          "type": "uint256"
        }
      ],
      "name": "ResellingDone",
      "type": "event"
    },
    {
      "anonymous": false,
      "inputs": [
        {
          "indexed": true,
          "internalType": "bytes32",
          "name": "batchId",
          "type": "bytes32"
        },
        {
          "indexed": false,
          "internalType": "address",
          "name": "retailer",
          "type": "address"
        },
        {
          "indexed": false,
          "internalType": "enum DrugSupplyChain.BatchStatus",
          "name": "statusEnum",
          "type": "uint8"
        },
        {
          "indexed": false,
          "internalType": "uint256",
          "name": "price",
          "type": "uint256"
        },
        {
          "indexed": false,
          "internalType": "uint256",
          "name": "timestamp",
          "type": "uint256"
        }
      ],
      "name": "RetailerPurchased",
      "type": "event"
    },
    {
      "anonymous": false,
      "inputs": [
        {
          "indexed": true,
          "internalType": "bytes32",
          "name": "batchId",
          "type": "bytes32"
        },
        {
          "indexed": true,
          "internalType": "uint256",
          "name": "timestamp",
          "type": "uint256"
        },
        {
          "indexed": true,
          "internalType": "address",
          "name": "requester",
          "type": "address"
        },
        {
          "indexed": false,
          "internalType": "bool",
          "name": "approved",
          "type": "bool"
        },
        {
          "indexed": false,
          "internalType": "bool",
          "name": "refunded",
          "type": "bool"
        },
        {
          "indexed": false,
          "internalType": "string",
          "name": "reason",
          "type": "string"
        }
      ],
      "name": "ReturnRequested",
      "type": "event"
    },
    {
      "anonymous": false,
      "inputs": [
        {
          "indexed": true,
          "internalType": "bytes32",
          "name": "role",
          "type": "bytes32"
        },
        {
          "indexed": true,
          "internalType": "bytes32",
          "name": "previousAdminRole",
          "type": "bytes32"
        },
        {
          "indexed": true,
          "internalType": "bytes32",
          "name": "newAdminRole",
          "type": "bytes32"
        }
      ],
      "name": "RoleAdminChanged",
      "type": "event"
    },
    {
      "anonymous": false,
      "inputs": [
        {
          "indexed": true,
          "internalType": "bytes32",
          "name": "role",
          "type": "bytes32"
        },
        {
          "indexed": true,
          "internalType": "address",
          "name": "account",
          "type": "address"
        },
        {
          "indexed": true,
          "internalType": "address",
          "name": "sender",
          "type": "address"
        }
      ],
      "name": "RoleGranted",
      "type": "event"
    },
    {
      "anonymous": false,
      "inputs": [
        {
          "indexed": true,
          "internalType": "bytes32",
          "name": "role",
          "type": "bytes32"
        },
        {
          "indexed": true,
          "internalType": "address",
          "name": "account",
          "type": "address"
        },
        {
          "indexed": true,
          "internalType": "address",
          "name": "sender",
          "type": "address"
        }
      ],
      "name": "RoleRevoked",
      "type": "event"
    },
    {
      "inputs": [],
      "name": "DEFAULT_ADMIN_ROLE",
      "outputs": [
        {
          "internalType": "bytes32",
          "name": "",
          "type": "bytes32"
        }
      ],
      "stateMutability": "view",
      "type": "function"
    },
    {
      "inputs": [],
      "name": "DISTRIBUTOR_ROLE",
      "outputs": [
        {
          "internalType": "bytes32",
          "name": "",
          "type": "bytes32"
        }
      ],
      "stateMutability": "view",
      "type": "function"
    },
    {
      "inputs": [],
      "name": "MANUFACTURER_ROLE",
      "outputs": [
        {
          "internalType": "bytes32",
          "name": "",
          "type": "bytes32"
        }
      ],
      "stateMutability": "view",
      "type": "function"
    },
    {
      "inputs": [],
      "name": "RETAILER_ROLE",
      "outputs": [
        {
          "internalType": "bytes32",
          "name": "",
          "type": "bytes32"
        }
      ],
      "stateMutability": "view",
      "type": "function"
    },
    {
      "inputs": [
        {
          "internalType": "address",
          "name": "distributor",
          "type": "address"
        }
      ],
      "name": "addDistributor",
      "outputs": [],
      "stateMutability": "nonpayable",
      "type": "function"
    },
    {
      "inputs": [
        {
          "internalType": "address",
          "name": "manufacturer",
          "type": "address"
        }
      ],
      "name": "addManufacturer",
      "outputs": [],
      "stateMutability": "nonpayable",
      "type": "function"
    },
    {
      "inputs": [
        {
          "internalType": "address",
          "name": "retailer",
          "type": "address"
        }
      ],
      "name": "addRetailer",
      "outputs": [],
      "stateMutability": "nonpayable",
      "type": "function"
    },
    {
      "inputs": [
        {
          "internalType": "uint256",
          "name": "",
          "type": "uint256"
        }
      ],
      "name": "allBatchIds",
      "outputs": [
        {
          "internalType": "bytes32",
          "name": "",
          "type": "bytes32"
        }
      ],
      "stateMutability": "view",
      "type": "function"
    },
    {
      "inputs": [],
      "name": "batchCount",
      "outputs": [
        {
          "internalType": "uint256",
          "name": "",
          "type": "uint256"
        }
      ],
      "stateMutability": "view",
      "type": "function"
    },
    {
      "inputs": [
        {
          "internalType": "address",
          "name": "",
          "type": "address"
        }
      ],
      "name": "batchCounter",
      "outputs": [
        {
          "internalType": "uint256",
          "name": "",
          "type": "uint256"
        }
      ],
      "stateMutability": "view",
      "type": "function"
    },
    {
      "inputs": [
        {
          "internalType": "bytes32",
          "name": "",
          "type": "bytes32"
        }
      ],
      "name": "batchIdToBatch",
      "outputs": [
        {
          "internalType": "bytes32",
          "name": "batchId",
          "type": "bytes32"
        },
        {
          "internalType": "address",
          "name": "manufacturer",
          "type": "address"
        },
        {
          "internalType": "address",
          "name": "distributor",
          "type": "address"
        },
        {
          "internalType": "address",
          "name": "retailer",
          "type": "address"
        },
        {
          "internalType": "uint256",
          "name": "expiryDate",
          "type": "uint256"
        },
        {
          "internalType": "uint256",
          "name": "timestamp",
          "type": "uint256"
        },
        {
          "internalType": "uint256",
          "name": "price",
          "type": "uint256"
        },
        {
          "internalType": "uint256",
          "name": "productPrice",
          "type": "uint256"
        },
        {
          "internalType": "enum DrugSupplyChain.BatchStatus",
          "name": "statusEnum",
          "type": "uint8"
        },
        {
          "internalType": "address",
          "name": "ipfsHash",
          "type": "address"
        }
      ],
      "stateMutability": "view",
      "type": "function"
    },
    {
      "inputs": [
        {
          "internalType": "bytes32",
          "name": "_batchId",
          "type": "bytes32"
        }
      ],
      "name": "batchReceivedDistributor",
      "outputs": [],
      "stateMutability": "nonpayable",
      "type": "function"
    },
    {
      "inputs": [
        {
          "internalType": "bytes32",
          "name": "_batchId",
          "type": "bytes32"
        }
      ],
      "name": "batchReceivedRetailer",
      "outputs": [],
      "stateMutability": "payable",
      "type": "function"
    },
    {
      "inputs": [
        {
          "internalType": "bytes32",
          "name": "_batchId",
          "type": "bytes32"
        },
        {
          "internalType": "uint256",
          "name": "_productPrice",
          "type": "uint256"
        }
      ],
      "name": "buyBatchDistributor",
      "outputs": [],
      "stateMutability": "payable",
      "type": "function"
    },
    {
      "inputs": [
        {
          "internalType": "bytes32",
          "name": "_batchId",
          "type": "bytes32"
        }
      ],
      "name": "buyBatchRetailer",
      "outputs": [],
      "stateMutability": "payable",
      "type": "function"
    },
    {
      "inputs": [
        {
          "internalType": "string",
          "name": "roleName",
          "type": "string"
        },
        {
          "internalType": "address",
          "name": "account",
          "type": "address"
        }
      ],
      "name": "checkRole",
      "outputs": [
        {
          "internalType": "bool",
          "name": "",
          "type": "bool"
        }
      ],
      "stateMutability": "view",
      "type": "function"
    },
    {
      "inputs": [
        {
          "internalType": "address",
          "name": "manufacturer",
          "type": "address"
        },
        {
          "internalType": "uint256",
          "name": "expiryDate",
          "type": "uint256"
        },
        {
          "internalType": "uint256",
          "name": "price",
          "type": "uint256"
        },
        {
          "internalType": "address",
          "name": "ipfsHash",
          "type": "address"
        }
      ],
      "name": "createBatch",
      "outputs": [
        {
          "components": [
            {
              "internalType": "bytes32",
              "name": "batchId",
              "type": "bytes32"
            },
            {
              "internalType": "address",
              "name": "manufacturer",
              "type": "address"
            },
            {
              "internalType": "address",
              "name": "distributor",
              "type": "address"
            },
            {
              "internalType": "address",
              "name": "retailer",
              "type": "address"
            },
            {
              "internalType": "uint256",
              "name": "expiryDate",
              "type": "uint256"
            },
            {
              "internalType": "uint256",
              "name": "timestamp",
              "type": "uint256"
            },
            {
              "internalType": "uint256",
              "name": "price",
              "type": "uint256"
            },
            {
              "internalType": "uint256",
              "name": "productPrice",
              "type": "uint256"
            },
            {
              "internalType": "enum DrugSupplyChain.BatchStatus",
              "name": "statusEnum",
              "type": "uint8"
            },
            {
              "internalType": "address",
              "name": "ipfsHash",
              "type": "address"
            }
          ],
          "internalType": "struct DrugSupplyChain.Batch",
          "name": "",
          "type": "tuple"
        }
      ],
      "stateMutability": "nonpayable",
      "type": "function"
    },
    {
      "inputs": [],
      "name": "dataFeed",
      "outputs": [
        {
          "internalType": "contract AggregatorV3Interface",
          "name": "",
          "type": "address"
        }
      ],
      "stateMutability": "view",
      "type": "function"
    },
    {
      "inputs": [],
      "name": "escrowContract",
      "outputs": [
        {
          "internalType": "contract Escrow",
          "name": "",
          "type": "address"
        }
      ],
      "stateMutability": "view",
      "type": "function"
    },
    {
      "inputs": [
        {
          "internalType": "address",
          "name": "account",
          "type": "address"
        }
      ],
      "name": "frozeAddress",
      "outputs": [],
      "stateMutability": "nonpayable",
      "type": "function"
    },
    {
      "inputs": [
        {
          "internalType": "bytes32",
          "name": "_batchId",
          "type": "bytes32"
        }
      ],
      "name": "getBatchDetails",
      "outputs": [
        {
          "components": [
            {
              "internalType": "bytes32",
              "name": "batchId",
              "type": "bytes32"
            },
            {
              "internalType": "address",
              "name": "manufacturer",
              "type": "address"
            },
            {
              "internalType": "address",
              "name": "distributor",
              "type": "address"
            },
            {
              "internalType": "address",
              "name": "retailer",
              "type": "address"
            },
            {
              "internalType": "uint256",
              "name": "expiryDate",
              "type": "uint256"
            },
            {
              "internalType": "uint256",
              "name": "timestamp",
              "type": "uint256"
            },
            {
              "internalType": "uint256",
              "name": "price",
              "type": "uint256"
            },
            {
              "internalType": "uint256",
              "name": "productPrice",
              "type": "uint256"
            },
            {
              "internalType": "enum DrugSupplyChain.BatchStatus",
              "name": "statusEnum",
              "type": "uint8"
            },
            {
              "internalType": "address",
              "name": "ipfsHash",
              "type": "address"
            }
          ],
          "internalType": "struct DrugSupplyChain.Batch",
          "name": "",
          "type": "tuple"
        }
      ],
      "stateMutability": "view",
      "type": "function"
    },
    {
      "inputs": [
        {
          "internalType": "bytes32",
          "name": "_batchId",
          "type": "bytes32"
        }
      ],
      "name": "getIpfsHash",
      "outputs": [
        {
          "internalType": "address",
          "name": "",
          "type": "address"
        }
      ],
      "stateMutability": "view",
      "type": "function"
    },
    {
      "inputs": [
        {
          "internalType": "address",
          "name": "owner",
          "type": "address"
        }
      ],
      "name": "getOwnerBatches",
      "outputs": [
        {
          "internalType": "bytes32[]",
          "name": "",
          "type": "bytes32[]"
        }
      ],
      "stateMutability": "view",
      "type": "function"
    },
    {
      "inputs": [
        {
          "internalType": "bytes32",
          "name": "role",
          "type": "bytes32"
        }
      ],
      "name": "getRoleAdmin",
      "outputs": [
        {
          "internalType": "bytes32",
          "name": "",
          "type": "bytes32"
        }
      ],
      "stateMutability": "view",
      "type": "function"
    },
    {
      "inputs": [
        {
          "internalType": "bytes32",
          "name": "role",
          "type": "bytes32"
        },
        {
          "internalType": "address",
          "name": "account",
          "type": "address"
        }
      ],
      "name": "grantRole",
      "outputs": [],
      "stateMutability": "nonpayable",
      "type": "function"
    },
    {
      "inputs": [],
      "name": "handlingAddresses",
      "outputs": [
        {
          "internalType": "contract HandlingAddresses",
          "name": "",
          "type": "address"
        }
      ],
      "stateMutability": "view",
      "type": "function"
    },
    {
      "inputs": [
        {
          "internalType": "bytes32",
          "name": "role",
          "type": "bytes32"
        },
        {
          "internalType": "address",
          "name": "account",
          "type": "address"
        }
      ],
      "name": "hasRole",
      "outputs": [
        {
          "internalType": "bool",
          "name": "",
          "type": "bool"
        }
      ],
      "stateMutability": "view",
      "type": "function"
    },
    {
      "inputs": [
        {
          "internalType": "address",
          "name": "",
          "type": "address"
        }
      ],
      "name": "isFrozen",
      "outputs": [
        {
          "internalType": "bool",
          "name": "",
          "type": "bool"
        }
      ],
      "stateMutability": "view",
      "type": "function"
    },
    {
      "inputs": [],
      "name": "owner",
      "outputs": [
        {
          "internalType": "address",
          "name": "",
          "type": "address"
        }
      ],
      "stateMutability": "view",
      "type": "function"
    },
    {
      "inputs": [
        {
          "internalType": "address",
          "name": "",
          "type": "address"
        },
        {
          "internalType": "uint256",
          "name": "",
          "type": "uint256"
        }
      ],
      "name": "ownerToBatches",
      "outputs": [
        {
          "internalType": "bytes32",
          "name": "",
          "type": "bytes32"
        }
      ],
      "stateMutability": "view",
      "type": "function"
    },
    {
      "inputs": [
        {
          "internalType": "uint256",
          "name": "",
          "type": "uint256"
        }
      ],
      "name": "pendingRequests",
      "outputs": [
        {
          "internalType": "bytes32",
          "name": "batchId",
          "type": "bytes32"
        },
        {
          "internalType": "uint256",
          "name": "timestamp",
          "type": "uint256"
        },
        {
          "internalType": "address",
          "name": "requester",
          "type": "address"
        },
        {
          "internalType": "bool",
          "name": "refunded",
          "type": "bool"
        },
        {
          "internalType": "bool",
          "name": "approved",
          "type": "bool"
        },
        {
          "internalType": "string",
          "name": "reason",
          "type": "string"
        }
      ],
      "stateMutability": "view",
      "type": "function"
    },
    {
      "inputs": [
        {
          "internalType": "address",
          "name": "distributor",
          "type": "address"
        }
      ],
      "name": "removeDistributor",
      "outputs": [],
      "stateMutability": "nonpayable",
      "type": "function"
    },
    {
      "inputs": [
        {
          "internalType": "address",
          "name": "manufacturer",
          "type": "address"
        }
      ],
      "name": "removeManufacturer",
      "outputs": [],
      "stateMutability": "nonpayable",
      "type": "function"
    },
    {
      "inputs": [
        {
          "internalType": "address",
          "name": "retailer",
          "type": "address"
        }
      ],
      "name": "removeRetailer",
      "outputs": [],
      "stateMutability": "nonpayable",
      "type": "function"
    },
    {
      "inputs": [
        {
          "internalType": "bytes32",
          "name": "role",
          "type": "bytes32"
        },
        {
          "internalType": "address",
          "name": "callerConfirmation",
          "type": "address"
        }
      ],
      "name": "renounceRole",
      "outputs": [],
      "stateMutability": "nonpayable",
      "type": "function"
    },
    {
      "inputs": [
        {
          "internalType": "bytes32",
          "name": "",
          "type": "bytes32"
        }
      ],
      "name": "returnRequests",
      "outputs": [
        {
          "internalType": "bytes32",
          "name": "batchId",
          "type": "bytes32"
        },
        {
          "internalType": "uint256",
          "name": "timestamp",
          "type": "uint256"
        },
        {
          "internalType": "address",
          "name": "requester",
          "type": "address"
        },
        {
          "internalType": "bool",
          "name": "refunded",
          "type": "bool"
        },
        {
          "internalType": "bool",
          "name": "approved",
          "type": "bool"
        },
        {
          "internalType": "string",
          "name": "reason",
          "type": "string"
        }
      ],
      "stateMutability": "view",
      "type": "function"
    },
    {
      "inputs": [
        {
          "internalType": "bytes32",
          "name": "role",
          "type": "bytes32"
        },
        {
          "internalType": "address",
          "name": "account",
          "type": "address"
        }
      ],
      "name": "revokeRole",
      "outputs": [],
      "stateMutability": "nonpayable",
      "type": "function"
    },
    {
      "inputs": [
        {
          "internalType": "bytes4",
          "name": "interfaceId",
          "type": "bytes4"
        }
      ],
      "name": "supportsInterface",
      "outputs": [
        {
          "internalType": "bool",
          "name": "",
          "type": "bool"
        }
      ],
      "stateMutability": "view",
      "type": "function"
    },
    {
      "inputs": [
        {
          "internalType": "address",
          "name": "account",
          "type": "address"
        }
      ],
      "name": "unfreezeAddress",
      "outputs": [],
      "stateMutability": "nonpayable",
      "type": "function"
    },
    {
      "inputs": [],
      "name": "withdraw",
      "outputs": [],
      "stateMutability": "nonpayable",
      "type": "function"
    }
  ],
  "bytecode": "0x608060405234801561001057600080fd5b50604051615feb380380615feb8339818101604052810190610032919061032a565b8282826100486000801b3361015860201b60201c565b5033600c60006101000a81548173ffffffffffffffffffffffffffffffffffffffff021916908373ffffffffffffffffffffffffffffffffffffffff16021790555081600a60006101000a81548173ffffffffffffffffffffffffffffffffffffffff021916908373ffffffffffffffffffffffffffffffffffffffff16021790555082600960006101000a81548173ffffffffffffffffffffffffffffffffffffffff021916908373ffffffffffffffffffffffffffffffffffffffff16021790555080600b60006101000a81548173ffffffffffffffffffffffffffffffffffffffff021916908373ffffffffffffffffffffffffffffffffffffffff16021790555050505050505061037d565b600061016a838361025560201b60201c565b61024a57600160008085815260200190815260200160002060000160008473ffffffffffffffffffffffffffffffffffffffff1673ffffffffffffffffffffffffffffffffffffffff16815260200190815260200160002060006101000a81548160ff0219169083151502179055506101e76102bf60201b60201c565b73ffffffffffffffffffffffffffffffffffffffff168273ffffffffffffffffffffffffffffffffffffffff16847f2f8788117e7eff1d82e926ec794901d17c78024a50270940304540a733656f0d60405160405180910390a46001905061024f565b600090505b92915050565b600080600084815260200190815260200160002060000160008373ffffffffffffffffffffffffffffffffffffffff1673ffffffffffffffffffffffffffffffffffffffff16815260200190815260200160002060009054906101000a900460ff16905092915050565b600033905090565b600080fd5b600073ffffffffffffffffffffffffffffffffffffffff82169050919050565b60006102f7826102cc565b9050919050565b610307816102ec565b811461031257600080fd5b50565b600081519050610324816102fe565b92915050565b600080600060608486031215610343576103426102c7565b5b600061035186828701610315565b935050602061036286828701610315565b925050604061037386828701610315565b9150509250925092565b615c5f8061038c6000396000f3fe60806040526004361061023b5760003560e01c8063965288b01161012e578063c1c460a6116100ab578063e58398361161006f578063e5839836146108c2578063e94a741e146108ff578063eb1fbf151461091b578063f0bd87cc14610958578063fa031f84146109835761023b565b8063c1c460a6146107c9578063cf30c705146107f4578063d547741f14610831578063e42a96e71461085a578063e477a26c146108855761023b565b8063a217fddf116100f2578063a217fddf146106f3578063b21a7b3e1461071e578063b26c196a1461075b578063b75746ab14610784578063bfb80547146107a05761023b565b8063965288b0146105ec57806399fd9cfb146106175780639de7c3b7146106405780639e42ff90146106865780639fb65529146106b15761023b565b806357c1f9e2116101bc5780637026fe9c116101805780637026fe9c146104f55780637250e224146105325780638da5cb5b1461055b5780638ec4f5051461058657806391d14854146105af5761023b565b806357c1f9e2146104145780635f8a5afa1461043d5780636a0f9f70146104665780636a75323f146104a357806370099ec8146104cc5761023b565b80632f2ff15d116102035780632f2ff15d1461034d57806336568abe146103765780633c652a9a1461039f5780633ccfd60b146103e15780634e4fddb0146103f85761023b565b806301ffc9a71461024057806306f130561461027d5780632115e7bf146102a8578063248a9ca3146102d3578063290b17ec14610310575b600080fd5b34801561024c57600080fd5b50610267600480360381019061026291906140da565b6109c0565b6040516102749190614122565b60405180910390f35b34801561028957600080fd5b50610292610a3a565b60405161029f9190614156565b60405180910390f35b3480156102b457600080fd5b506102bd610a40565b6040516102ca919061418a565b60405180910390f35b3480156102df57600080fd5b506102fa60048036038101906102f591906141d1565b610a64565b604051610307919061418a565b60405180910390f35b34801561031c57600080fd5b506103376004803603810190610332919061422a565b610a83565b604051610344919061418a565b60405180910390f35b34801561035957600080fd5b50610374600480360381019061036f91906142b5565b610aa7565b005b34801561038257600080fd5b5061039d600480360381019061039891906142b5565b610ac9565b005b3480156103ab57600080fd5b506103c660048036038101906103c1919061422a565b610b44565b6040516103d896959493929190614394565b60405180910390f35b3480156103ed57600080fd5b506103f6610c52565b005b610412600480360381019061040d91906141d1565b610d85565b005b34801561042057600080fd5b5061043b600480360381019061043691906143fc565b6110dc565b005b34801561044957600080fd5b50610464600480360381019061045f91906143fc565b611117565b005b34801561047257600080fd5b5061048d600480360381019061048891906143fc565b611307565b60405161049a9190614156565b60405180910390f35b3480156104af57600080fd5b506104ca60048036038101906104c591906143fc565b61131f565b005b3480156104d857600080fd5b506104f360048036038101906104ee91906143fc565b61135a565b005b34801561050157600080fd5b5061051c6004803603810190610517919061455e565b611395565b6040516105299190614122565b60405180910390f35b34801561053e57600080fd5b50610559600480360381019061055491906143fc565b6114ea565b005b34801561056757600080fd5b506105706116da565b60405161057d91906145ba565b60405180910390f35b34801561059257600080fd5b506105ad60048036038101906105a891906143fc565b611700565b005b3480156105bb57600080fd5b506105d660048036038101906105d191906142b5565b6118f0565b6040516105e39190614122565b60405180910390f35b3480156105f857600080fd5b5061060161195a565b60405161060e919061418a565b60405180910390f35b34801561062357600080fd5b5061063e600480360381019061063991906143fc565b61197e565b005b34801561064c57600080fd5b50610667600480360381019061066291906141d1565b611b0d565b60405161067d9a9998979695949392919061464c565b60405180910390f35b34801561069257600080fd5b5061069b611bee565b6040516106a89190614747565b60405180910390f35b3480156106bd57600080fd5b506106d860048036038101906106d391906141d1565b611c14565b6040516106ea96959493929190614394565b60405180910390f35b3480156106ff57600080fd5b50610708611d12565b604051610715919061418a565b60405180910390f35b34801561072a57600080fd5b50610745600480360381019061074091906141d1565b611d19565b604051610752919061486a565b60405180910390f35b34801561076757600080fd5b50610782600480360381019061077d91906141d1565b611f67565b005b61079e60048036038101906107999190614886565b6122bf565b005b3480156107ac57600080fd5b506107c760048036038101906107c291906143fc565b612674565b005b3480156107d557600080fd5b506107de612783565b6040516107eb91906148e7565b60405180910390f35b34801561080057600080fd5b5061081b60048036038101906108169190614902565b6127a9565b604051610828919061418a565b60405180910390f35b34801561083d57600080fd5b50610858600480360381019061085391906142b5565b6127da565b005b34801561086657600080fd5b5061086f6127fc565b60405161087c9190614963565b60405180910390f35b34801561089157600080fd5b506108ac60048036038101906108a7919061497e565b612822565b6040516108b9919061486a565b60405180910390f35b3480156108ce57600080fd5b506108e960048036038101906108e491906143fc565b6128de565b6040516108f69190614122565b60405180910390f35b610919600480360381019061091491906141d1565b6128fe565b005b34801561092757600080fd5b50610942600480360381019061093d91906141d1565b612c3c565b60405161094f91906145ba565b60405180910390f35b34801561096457600080fd5b5061096d612cd7565b60405161097a919061418a565b60405180910390f35b34801561098f57600080fd5b506109aa60048036038101906109a591906143fc565b612cfb565b6040516109b79190614a94565b60405180910390f35b60007f7965db0b000000000000000000000000000000000000000000000000000000007bffffffffffffffffffffffffffffffffffffffffffffffffffffffff1916827bffffffffffffffffffffffffffffffffffffffffffffffffffffffff19161480610a335750610a3282612d92565b5b9050919050565b60085481565b7f2a5f906c256a5d799494fcd066e1f6c077689de1cdb65052a1624de4bace99bf81565b6000806000838152602001908152602001600020600101549050919050565b60078181548110610a9357600080fd5b906000526020600020016000915090505481565b610ab082610a64565b610ab981612dfc565b610ac38383612e10565b50505050565b610ad1612f01565b73ffffffffffffffffffffffffffffffffffffffff168173ffffffffffffffffffffffffffffffffffffffff1614610b35576040517f6697b23200000000000000000000000000000000000000000000000000000000815260040160405180910390fd5b610b3f8282612f09565b505050565b60068181548110610b5457600080fd5b90600052602060002090600402016000915090508060000154908060010154908060020160009054906101000a900473ffffffffffffffffffffffffffffffffffffffff16908060020160149054906101000a900460ff16908060020160159054906101000a900460ff1690806003018054610bcf90614ae5565b80601f0160208091040260200160405190810160405280929190818152602001828054610bfb90614ae5565b8015610c485780601f10610c1d57610100808354040283529160200191610c48565b820191906000526020600020905b815481529060010190602001808311610c2b57829003601f168201915b5050505050905086565b600b60009054906101000a900473ffffffffffffffffffffffffffffffffffffffff1673ffffffffffffffffffffffffffffffffffffffff166391d148546000801b336040518363ffffffff1660e01b8152600401610cb2929190614b16565b602060405180830381865afa158015610ccf573d6000803e3d6000fd5b505050506040513d601f19601f82011682018060405250810190610cf39190614b6b565b50600a60009054906101000a900473ffffffffffffffffffffffffffffffffffffffff1673ffffffffffffffffffffffffffffffffffffffff16630357371d33476040518363ffffffff1660e01b8152600401610d51929190614b98565b600060405180830381600087803b158015610d6b57600080fd5b505af1158015610d7f573d6000803e3d6000fd5b50505050565b600160003373ffffffffffffffffffffffffffffffffffffffff1673ffffffffffffffffffffffffffffffffffffffff16815260200190815260200160002060009054906101000a900460ff1615610e12576040517f08c379a0000000000000000000000000000000000000000000000000000000008152600401610e0990614c0d565b60405180910390fd5b600b60009054906101000a900473ffffffffffffffffffffffffffffffffffffffff1673ffffffffffffffffffffffffffffffffffffffff166391d148547f2a5f906c256a5d799494fcd066e1f6c077689de1cdb65052a1624de4bace99bf336040518363ffffffff1660e01b8152600401610e8f929190614b16565b602060405180830381865afa158015610eac573d6000803e3d6000fd5b505050506040513d601f19601f82011682018060405250810190610ed09190614b6b565b610f0f576040517f08c379a0000000000000000000000000000000000000000000000000000000008152600401610f0690614c79565b60405180910390fd5b3373ffffffffffffffffffffffffffffffffffffffff166003600083815260200190815260200160002060030160009054906101000a900473ffffffffffffffffffffffffffffffffffffffff1673ffffffffffffffffffffffffffffffffffffffff160361109e57600380600083815260200190815260200160002060080160006101000a81548160ff02191690836008811115610fb157610fb06145d5565b5b0217905550600a60009054906101000a900473ffffffffffffffffffffffffffffffffffffffff1673ffffffffffffffffffffffffffffffffffffffff16630357371d6003600084815260200190815260200160002060020160009054906101000a900473ffffffffffffffffffffffffffffffffffffffff1661104a6003600086815260200190815260200160002060070154612ffb565b6040518363ffffffff1660e01b8152600401611067929190614b98565b600060405180830381600087803b15801561108157600080fd5b505af1158015611095573d6000803e3d6000fd5b505050506110d9565b6040517f08c379a00000000000000000000000000000000000000000000000000000000081526004016110d090614d0b565b60405180910390fd5b50565b6000801b6110e981612dfc565b6111137ffbd454f36a7e1a388bd6fc3ab10d434aa4578f811acbbcf33afb1c697486313c836127da565b5050565b6000801b61112481612dfc565b8161114f7feefb95e842a3287179d933b4460be539a1d5af11aa8b325bb45c5c8dc92de4ed826118f0565b1561119157806040517f375795b90000000000000000000000000000000000000000000000000000000081526004016111889190614d77565b60405180910390fd5b6111bb7f2a5f906c256a5d799494fcd066e1f6c077689de1cdb65052a1624de4bace99bf826118f0565b156111fd57806040517f375795b90000000000000000000000000000000000000000000000000000000081526004016111f49190614df1565b60405180910390fd5b6112277ffbd454f36a7e1a388bd6fc3ab10d434aa4578f811acbbcf33afb1c697486313c826118f0565b1561126957806040517f375795b90000000000000000000000000000000000000000000000000000000081526004016112609190614e6b565b60405180910390fd5b600073ffffffffffffffffffffffffffffffffffffffff168173ffffffffffffffffffffffffffffffffffffffff16036112d8576040517f08c379a00000000000000000000000000000000000000000000000000000000081526004016112cf90614c0d565b60405180910390fd5b6113027feefb95e842a3287179d933b4460be539a1d5af11aa8b325bb45c5c8dc92de4ed84610aa7565b505050565b60026020528060005260406000206000915090505481565b6000801b61132c81612dfc565b6113567feefb95e842a3287179d933b4460be539a1d5af11aa8b325bb45c5c8dc92de4ed836127da565b5050565b6000801b61136781612dfc565b6113917f2a5f906c256a5d799494fcd066e1f6c077689de1cdb65052a1624de4bace99bf836127da565b5050565b6000807feefb95e842a3287179d933b4460be539a1d5af11aa8b325bb45c5c8dc92de4ed8480519060200120036113ee577feefb95e842a3287179d933b4460be539a1d5af11aa8b325bb45c5c8dc92de4ed90506114d7565b7ffbd454f36a7e1a388bd6fc3ab10d434aa4578f811acbbcf33afb1c697486313c848051906020012003611444577ffbd454f36a7e1a388bd6fc3ab10d434aa4578f811acbbcf33afb1c697486313c90506114d6565b7f2a5f906c256a5d799494fcd066e1f6c077689de1cdb65052a1624de4bace99bf84805190602001200361149a577f2a5f906c256a5d799494fcd066e1f6c077689de1cdb65052a1624de4bace99bf90506114d5565b6040517f08c379a00000000000000000000000000000000000000000000000000000000081526004016114cc90614ee5565b60405180910390fd5b5b5b6114e181846118f0565b91505092915050565b6000801b6114f781612dfc565b816115227feefb95e842a3287179d933b4460be539a1d5af11aa8b325bb45c5c8dc92de4ed826118f0565b1561156457806040517f375795b900000000000000000000000000000000000000000000000000000000815260040161155b9190614d77565b60405180910390fd5b61158e7f2a5f906c256a5d799494fcd066e1f6c077689de1cdb65052a1624de4bace99bf826118f0565b156115d057806040517f375795b90000000000000000000000000000000000000000000000000000000081526004016115c79190614df1565b60405180910390fd5b6115fa7ffbd454f36a7e1a388bd6fc3ab10d434aa4578f811acbbcf33afb1c697486313c826118f0565b1561163c57806040517f375795b90000000000000000000000000000000000000000000000000000000081526004016116339190614e6b565b60405180910390fd5b600073ffffffffffffffffffffffffffffffffffffffff168173ffffffffffffffffffffffffffffffffffffffff16036116ab576040517f08c379a00000000000000000000000000000000000000000000000000000000081526004016116a290614c0d565b60405180910390fd5b6116d57ffbd454f36a7e1a388bd6fc3ab10d434aa4578f811acbbcf33afb1c697486313c84610aa7565b505050565b600c60009054906101000a900473ffffffffffffffffffffffffffffffffffffffff1681565b6000801b61170d81612dfc565b816117387feefb95e842a3287179d933b4460be539a1d5af11aa8b325bb45c5c8dc92de4ed826118f0565b1561177a57806040517f375795b90000000000000000000000000000000000000000000000000000000081526004016117719190614d77565b60405180910390fd5b6117a47f2a5f906c256a5d799494fcd066e1f6c077689de1cdb65052a1624de4bace99bf826118f0565b156117e657806040517f375795b90000000000000000000000000000000000000000000000000000000081526004016117dd9190614df1565b60405180910390fd5b6118107ffbd454f36a7e1a388bd6fc3ab10d434aa4578f811acbbcf33afb1c697486313c826118f0565b1561185257806040517f375795b90000000000000000000000000000000000000000000000000000000081526004016118499190614e6b565b60405180910390fd5b600073ffffffffffffffffffffffffffffffffffffffff168173ffffffffffffffffffffffffffffffffffffffff16036118c1576040517f08c379a00000000000000000000000000000000000000000000000000000000081526004016118b890614c0d565b60405180910390fd5b6118eb7f2a5f906c256a5d799494fcd066e1f6c077689de1cdb65052a1624de4bace99bf84610aa7565b505050565b600080600084815260200190815260200160002060000160008373ffffffffffffffffffffffffffffffffffffffff1673ffffffffffffffffffffffffffffffffffffffff16815260200190815260200160002060009054906101000a900460ff16905092915050565b7feefb95e842a3287179d933b4460be539a1d5af11aa8b325bb45c5c8dc92de4ed81565b6000801b61198b81612dfc565b600073ffffffffffffffffffffffffffffffffffffffff168273ffffffffffffffffffffffffffffffffffffffff16036119fa576040517f08c379a00000000000000000000000000000000000000000000000000000000081526004016119f190614f51565b60405180910390fd5b60018060008473ffffffffffffffffffffffffffffffffffffffff1673ffffffffffffffffffffffffffffffffffffffff16815260200190815260200160002060006101000a81548160ff021916908315150217905550611a7b7feefb95e842a3287179d933b4460be539a1d5af11aa8b325bb45c5c8dc92de4ed83612f09565b50611aa67ffbd454f36a7e1a388bd6fc3ab10d434aa4578f811acbbcf33afb1c697486313c83612f09565b50611ad17f2a5f906c256a5d799494fcd066e1f6c077689de1cdb65052a1624de4bace99bf83612f09565b507f90811a8edd3b3c17eeaefffc17f639cc69145d41a359c9843994dc253820369082604051611b0191906145ba565b60405180910390a15050565b60036020528060005260406000206000915090508060000154908060010160009054906101000a900473ffffffffffffffffffffffffffffffffffffffff16908060020160009054906101000a900473ffffffffffffffffffffffffffffffffffffffff16908060030160009054906101000a900473ffffffffffffffffffffffffffffffffffffffff16908060040154908060050154908060060154908060070154908060080160009054906101000a900460ff16908060080160019054906101000a900473ffffffffffffffffffffffffffffffffffffffff1690508a565b600960009054906101000a900473ffffffffffffffffffffffffffffffffffffffff1681565b60046020528060005260406000206000915090508060000154908060010154908060020160009054906101000a900473ffffffffffffffffffffffffffffffffffffffff16908060020160149054906101000a900460ff16908060020160159054906101000a900460ff1690806003018054611c8f90614ae5565b80601f0160208091040260200160405190810160405280929190818152602001828054611cbb90614ae5565b8015611d085780601f10611cdd57610100808354040283529160200191611d08565b820191906000526020600020905b815481529060010190602001808311611ceb57829003601f168201915b5050505050905086565b6000801b81565b611d21613fae565b6000801b600360008481526020019081526020016000206000015403611d7c576040517f08c379a0000000000000000000000000000000000000000000000000000000008152600401611d7390614fbd565b60405180910390fd5b6003600083815260200190815260200160002060405180610140016040529081600082015481526020016001820160009054906101000a900473ffffffffffffffffffffffffffffffffffffffff1673ffffffffffffffffffffffffffffffffffffffff1673ffffffffffffffffffffffffffffffffffffffff1681526020016002820160009054906101000a900473ffffffffffffffffffffffffffffffffffffffff1673ffffffffffffffffffffffffffffffffffffffff1673ffffffffffffffffffffffffffffffffffffffff1681526020016003820160009054906101000a900473ffffffffffffffffffffffffffffffffffffffff1673ffffffffffffffffffffffffffffffffffffffff1673ffffffffffffffffffffffffffffffffffffffff168152602001600482015481526020016005820154815260200160068201548152602001600782015481526020016008820160009054906101000a900460ff166008811115611ef457611ef36145d5565b5b6008811115611f0657611f056145d5565b5b81526020016008820160019054906101000a900473ffffffffffffffffffffffffffffffffffffffff1673ffffffffffffffffffffffffffffffffffffffff1673ffffffffffffffffffffffffffffffffffffffff16815250509050919050565b600160003373ffffffffffffffffffffffffffffffffffffffff1673ffffffffffffffffffffffffffffffffffffffff16815260200190815260200160002060009054906101000a900460ff1615611ff4576040517f08c379a0000000000000000000000000000000000000000000000000000000008152600401611feb90614c0d565b60405180910390fd5b600b60009054906101000a900473ffffffffffffffffffffffffffffffffffffffff1673ffffffffffffffffffffffffffffffffffffffff166391d148547ffbd454f36a7e1a388bd6fc3ab10d434aa4578f811acbbcf33afb1c697486313c336040518363ffffffff1660e01b8152600401612071929190614b16565b602060405180830381865afa15801561208e573d6000803e3d6000fd5b505050506040513d601f19601f820116820180604052508101906120b29190614b6b565b6120f1576040517f08c379a00000000000000000000000000000000000000000000000000000000081526004016120e890615029565b60405180910390fd5b3373ffffffffffffffffffffffffffffffffffffffff166003600083815260200190815260200160002060020160009054906101000a900473ffffffffffffffffffffffffffffffffffffffff1673ffffffffffffffffffffffffffffffffffffffff16036122815760016003600083815260200190815260200160002060080160006101000a81548160ff02191690836008811115612194576121936145d5565b5b0217905550600a60009054906101000a900473ffffffffffffffffffffffffffffffffffffffff1673ffffffffffffffffffffffffffffffffffffffff16630357371d6003600084815260200190815260200160002060010160009054906101000a900473ffffffffffffffffffffffffffffffffffffffff1661222d6003600086815260200190815260200160002060060154612ffb565b6040518363ffffffff1660e01b815260040161224a929190614b98565b600060405180830381600087803b15801561226457600080fd5b505af1158015612278573d6000803e3d6000fd5b505050506122bc565b6040517f08c379a00000000000000000000000000000000000000000000000000000000081526004016122b390614d0b565b60405180910390fd5b50565b600160003373ffffffffffffffffffffffffffffffffffffffff1673ffffffffffffffffffffffffffffffffffffffff16815260200190815260200160002060009054906101000a900460ff161561234c576040517f08c379a000000000000000000000000000000000000000000000000000000000815260040161234390614c0d565b60405180910390fd5b61235682826130b9565b60036000838152602001908152602001600020600601543410156123af576040517f08c379a00000000000000000000000000000000000000000000000000000000081526004016123a690615095565b60405180910390fd5b600a60009054906101000a900473ffffffffffffffffffffffffffffffffffffffff1673ffffffffffffffffffffffffffffffffffffffff1663ad7fadc56123f634612ffb565b336003600087815260200190815260200160002060010160009054906101000a900473ffffffffffffffffffffffffffffffffffffffff166040518463ffffffff1660e01b815260040161244b9291906150b5565b6000604051808303818588803b15801561246457600080fd5b505af1158015612478573d6000803e3d6000fd5b5050505050806003600084815260200190815260200160002060070181905550426003600084815260200190815260200160002060050181905550336003600084815260200190815260200160002060020160006101000a81548173ffffffffffffffffffffffffffffffffffffffff021916908373ffffffffffffffffffffffffffffffffffffffff160217905550600560003373ffffffffffffffffffffffffffffffffffffffff1673ffffffffffffffffffffffffffffffffffffffff16815260200190815260200160002082908060018154018082558091505060019003906000526020600020016000909190919091505560016003600084815260200190815260200160002060080160006101000a81548160ff021916908360088111156125a8576125a76145d5565b5b0217905550817f78dec01f974668793fa9048dc94c45a25b01bbabc6b89300c8ed2995d74005d56003600085815260200190815260200160002060020160009054906101000a900473ffffffffffffffffffffffffffffffffffffffff166003600086815260200190815260200160002060080160009054906101000a900460ff166003600087815260200190815260200160002060060154600360008881526020019081526020016000206005015460405161266894939291906150de565b60405180910390a25050565b6000801b61268181612dfc565b600073ffffffffffffffffffffffffffffffffffffffff168273ffffffffffffffffffffffffffffffffffffffff16036126f0576040517f08c379a00000000000000000000000000000000000000000000000000000000081526004016126e79061516f565b60405180910390fd5b6000600160008473ffffffffffffffffffffffffffffffffffffffff1673ffffffffffffffffffffffffffffffffffffffff16815260200190815260200160002060006101000a81548160ff0219169083151502179055507fc3776b472ebf54114339eec9e4dc924e7ce307a97f5c1ee72b6d474e6e5e8b7c8260405161277791906145ba565b60405180910390a15050565b600b60009054906101000a900473ffffffffffffffffffffffffffffffffffffffff1681565b600560205281600052604060002081815481106127c557600080fd5b90600052602060002001600091509150505481565b6127e382610a64565b6127ec81612dfc565b6127f68383612f09565b50505050565b600a60009054906101000a900473ffffffffffffffffffffffffffffffffffffffff1681565b61282a613fae565b600160003373ffffffffffffffffffffffffffffffffffffffff1673ffffffffffffffffffffffffffffffffffffffff16815260200190815260200160002060009054906101000a900460ff16156128b7576040517f08c379a00000000000000000000000000000000000000000000000000000000081526004016128ae90614c0d565b60405180910390fd5b6128c2858585613438565b60006128d08686868661372c565b905080915050949350505050565b60016020528060005260406000206000915054906101000a900460ff1681565b600160003373ffffffffffffffffffffffffffffffffffffffff1673ffffffffffffffffffffffffffffffffffffffff16815260200190815260200160002060009054906101000a900460ff161561298b576040517f08c379a000000000000000000000000000000000000000000000000000000000815260040161298290614c0d565b60405180910390fd5b61299481613b28565b600a60009054906101000a900473ffffffffffffffffffffffffffffffffffffffff1673ffffffffffffffffffffffffffffffffffffffff1663ad7fadc56129db34612ffb565b336003600086815260200190815260200160002060020160009054906101000a900473ffffffffffffffffffffffffffffffffffffffff166040518463ffffffff1660e01b8152600401612a309291906150b5565b6000604051808303818588803b158015612a4957600080fd5b505af1158015612a5d573d6000803e3d6000fd5b5050505050426003600083815260200190815260200160002060050181905550336003600083815260200190815260200160002060030160006101000a81548173ffffffffffffffffffffffffffffffffffffffff021916908373ffffffffffffffffffffffffffffffffffffffff160217905550600560003373ffffffffffffffffffffffffffffffffffffffff1673ffffffffffffffffffffffffffffffffffffffff168152602001908152602001600020819080600181540180825580915050600190039060005260206000200160009091909190915055600380600083815260200190815260200160002060080160006101000a81548160ff02191690836008811115612b7157612b706145d5565b5b0217905550807fd5bf0453cd492c459ba9477de283c3662783c2fb8a03df42555d15741b1848d46003600084815260200190815260200160002060030160009054906101000a900473ffffffffffffffffffffffffffffffffffffffff166003600085815260200190815260200160002060080160009054906101000a900460ff1660036000868152602001908152602001600020600601546003600087815260200190815260200160002060050154604051612c3194939291906150de565b60405180910390a250565b60008060001b600360008481526020019081526020016000206000015403612c99576040517f08c379a0000000000000000000000000000000000000000000000000000000008152600401612c9090614fbd565b60405180910390fd5b6003600083815260200190815260200160002060080160019054906101000a900473ffffffffffffffffffffffffffffffffffffffff169050919050565b7ffbd454f36a7e1a388bd6fc3ab10d434aa4578f811acbbcf33afb1c697486313c81565b6060600560008373ffffffffffffffffffffffffffffffffffffffff1673ffffffffffffffffffffffffffffffffffffffff168152602001908152602001600020805480602002602001604051908101604052809291908181526020018280548015612d8657602002820191906000526020600020905b815481526020019060010190808311612d72575b50505050509050919050565b60007f01ffc9a7000000000000000000000000000000000000000000000000000000007bffffffffffffffffffffffffffffffffffffffffffffffffffffffff1916827bffffffffffffffffffffffffffffffffffffffffffffffffffffffff1916149050919050565b612e0d81612e08612f01565b613ebc565b50565b6000612e1c83836118f0565b612ef657600160008085815260200190815260200160002060000160008473ffffffffffffffffffffffffffffffffffffffff1673ffffffffffffffffffffffffffffffffffffffff16815260200190815260200160002060006101000a81548160ff021916908315150217905550612e93612f01565b73ffffffffffffffffffffffffffffffffffffffff168273ffffffffffffffffffffffffffffffffffffffff16847f2f8788117e7eff1d82e926ec794901d17c78024a50270940304540a733656f0d60405160405180910390a460019050612efb565b600090505b92915050565b600033905090565b6000612f1583836118f0565b15612ff057600080600085815260200190815260200160002060000160008473ffffffffffffffffffffffffffffffffffffffff1673ffffffffffffffffffffffffffffffffffffffff16815260200190815260200160002060006101000a81548160ff021916908315150217905550612f8d612f01565b73ffffffffffffffffffffffffffffffffffffffff168273ffffffffffffffffffffffffffffffffffffffff16847ff6391f5c32d9c69d2a47ea670b442974b53935d1edc7fd64eb21e047a839171b60405160405180910390a460019050612ff5565b600090505b92915050565b600080613006613f0d565b90506000811161304b576040517f08c379a0000000000000000000000000000000000000000000000000000000008152600401613042906151db565b60405180910390fd5b6000831161309057826040517f3728b83d0000000000000000000000000000000000000000000000000000000081526004016130879190614156565b60405180910390fd5b6000816305f5e100856130a3919061522a565b6130ad919061529b565b90508092505050919050565b600b60009054906101000a900473ffffffffffffffffffffffffffffffffffffffff1673ffffffffffffffffffffffffffffffffffffffff166391d148547ffbd454f36a7e1a388bd6fc3ab10d434aa4578f811acbbcf33afb1c697486313c336040518363ffffffff1660e01b8152600401613136929190614b16565b602060405180830381865afa158015613153573d6000803e3d6000fd5b505050506040513d601f19601f820116820180604052508101906131779190614b6b565b6131b6576040517f08c379a00000000000000000000000000000000000000000000000000000000081526004016131ad90615029565b60405180910390fd5b600073ffffffffffffffffffffffffffffffffffffffff166003600084815260200190815260200160002060020160009054906101000a900473ffffffffffffffffffffffffffffffffffffffff1673ffffffffffffffffffffffffffffffffffffffff161461325b576040517f08c379a00000000000000000000000000000000000000000000000000000000081526004016132529061533e565b60405180910390fd5b6000801b6003600084815260200190815260200160002060000154036132b6576040517f08c379a00000000000000000000000000000000000000000000000000000000081526004016132ad90614fbd565b60405180910390fd5b600060088111156132ca576132c96145d5565b5b6003600084815260200190815260200160002060080160009054906101000a900460ff166008811115613300576132ff6145d5565b5b14613340576040517f08c379a0000000000000000000000000000000000000000000000000000000008152600401613337906153d0565b60405180910390fd5b42600360008481526020019081526020016000206004015411613398576040517f08c379a000000000000000000000000000000000000000000000000000000000815260040161338f9061543c565b60405180910390fd5b60036000838152602001908152602001600020600601543410156133f1576040517f08c379a00000000000000000000000000000000000000000000000000000000081526004016133e8906154a8565b60405180910390fd5b60008111613434576040517f08c379a000000000000000000000000000000000000000000000000000000000815260040161342b9061553a565b60405180910390fd5b5050565b600b60009054906101000a900473ffffffffffffffffffffffffffffffffffffffff1673ffffffffffffffffffffffffffffffffffffffff166391d148547feefb95e842a3287179d933b4460be539a1d5af11aa8b325bb45c5c8dc92de4ed336040518363ffffffff1660e01b81526004016134b5929190614b16565b602060405180830381865afa1580156134d2573d6000803e3d6000fd5b505050506040513d601f19601f820116820180604052508101906134f69190614b6b565b613535576040517f08c379a000000000000000000000000000000000000000000000000000000000815260040161352c906155a6565b60405180910390fd5b600b60009054906101000a900473ffffffffffffffffffffffffffffffffffffffff1673ffffffffffffffffffffffffffffffffffffffff166391d148547feefb95e842a3287179d933b4460be539a1d5af11aa8b325bb45c5c8dc92de4ed856040518363ffffffff1660e01b81526004016135b2929190614b16565b602060405180830381865afa1580156135cf573d6000803e3d6000fd5b505050506040513d601f19601f820116820180604052508101906135f39190614b6b565b613632576040517f08c379a000000000000000000000000000000000000000000000000000000000815260040161362990615638565b60405180910390fd5b600073ffffffffffffffffffffffffffffffffffffffff168373ffffffffffffffffffffffffffffffffffffffff16036136a1576040517f08c379a0000000000000000000000000000000000000000000000000000000008152600401613698906156ca565b60405180910390fd5b428210156136e4576040517f08c379a00000000000000000000000000000000000000000000000000000000081526004016136db9061575c565b60405180910390fd5b60008111613727576040517f08c379a000000000000000000000000000000000000000000000000000000000815260040161371e906157c8565b60405180910390fd5b505050565b613734613fae565b61373c613fae565b60008161010001906008811115613756576137556145d5565b5b9081600881111561376a576137696145d5565b5b81525050428160a00181815250508281610120019073ffffffffffffffffffffffffffffffffffffffff16908173ffffffffffffffffffffffffffffffffffffffff1681525050600860008154809291906137c4906157e8565b919050555085816020019073ffffffffffffffffffffffffffffffffffffffff16908173ffffffffffffffffffffffffffffffffffffffff168152505084816080018181525050838160c00181815250506000600260003373ffffffffffffffffffffffffffffffffffffffff1673ffffffffffffffffffffffffffffffffffffffff1681526020019081526020016000206000815480929190613867906157e8565b91905055905081602001518260a001518260405160200161388a93929190615899565b604051602081830303815290604052805190602001208260000181815250506007826000015190806001815401808255809150506001900390600052602060002001600090919091909150558160036000846000015181526020019081526020016000206000820151816000015560208201518160010160006101000a81548173ffffffffffffffffffffffffffffffffffffffff021916908373ffffffffffffffffffffffffffffffffffffffff16021790555060408201518160020160006101000a81548173ffffffffffffffffffffffffffffffffffffffff021916908373ffffffffffffffffffffffffffffffffffffffff16021790555060608201518160030160006101000a81548173ffffffffffffffffffffffffffffffffffffffff021916908373ffffffffffffffffffffffffffffffffffffffff1602179055506080820151816004015560a0820151816005015560c0820151816006015560e082015181600701556101008201518160080160006101000a81548160ff02191690836008811115613a2157613a206145d5565b5b02179055506101208201518160080160016101000a81548173ffffffffffffffffffffffffffffffffffffffff021916908373ffffffffffffffffffffffffffffffffffffffff160217905550905050600560008873ffffffffffffffffffffffffffffffffffffffff1673ffffffffffffffffffffffffffffffffffffffff1681526020019081526020016000208260000151908060018154018082558091505060019003906000526020600020016000909190919091505581600001517f142fb4f6af814b9c2a0fc64fa90bca80d84d17f165530aa799ede76f9882ec2e8360a00151604051613b139190614156565b60405180910390a28192505050949350505050565b600b60009054906101000a900473ffffffffffffffffffffffffffffffffffffffff1673ffffffffffffffffffffffffffffffffffffffff166391d148547f2a5f906c256a5d799494fcd066e1f6c077689de1cdb65052a1624de4bace99bf336040518363ffffffff1660e01b8152600401613ba5929190614b16565b602060405180830381865afa158015613bc2573d6000803e3d6000fd5b505050506040513d601f19601f82011682018060405250810190613be69190614b6b565b613c25576040517f08c379a0000000000000000000000000000000000000000000000000000000008152600401613c1c90614c79565b60405180910390fd5b600073ffffffffffffffffffffffffffffffffffffffff166003600083815260200190815260200160002060030160009054906101000a900473ffffffffffffffffffffffffffffffffffffffff1673ffffffffffffffffffffffffffffffffffffffff1614613cca576040517f08c379a0000000000000000000000000000000000000000000000000000000008152600401613cc190615948565b60405180910390fd5b6000801b600360008381526020019081526020016000206000015403613d25576040517f08c379a0000000000000000000000000000000000000000000000000000000008152600401613d1c90614fbd565b60405180910390fd5b60016008811115613d3957613d386145d5565b5b6003600083815260200190815260200160002060080160009054906101000a900460ff166008811115613d6f57613d6e6145d5565b5b14613daf576040517f08c379a0000000000000000000000000000000000000000000000000000000008152600401613da6906159da565b60405180910390fd5b42600360008381526020019081526020016000206004015411613e07576040517f08c379a0000000000000000000000000000000000000000000000000000000008152600401613dfe9061543c565b60405180910390fd5b6003600082815260200190815260200160002060070154341015613e60576040517f08c379a0000000000000000000000000000000000000000000000000000000008152600401613e5790615a6c565b60405180910390fd5b6000600360008381526020019081526020016000206007015411613eb9576040517f08c379a0000000000000000000000000000000000000000000000000000000008152600401613eb090615ad8565b60405180910390fd5b50565b613ec682826118f0565b613f095780826040517fe2517d3f000000000000000000000000000000000000000000000000000000008152600401613f00929190615af8565b60405180910390fd5b5050565b600080600960009054906101000a900473ffffffffffffffffffffffffffffffffffffffff1673ffffffffffffffffffffffffffffffffffffffff1663feaf968c6040518163ffffffff1660e01b815260040160a060405180830381865afa158015613f7d573d6000803e3d6000fd5b505050506040513d601f19601f82011682018060405250810190613fa19190615bae565b5050509150508091505090565b60405180610140016040528060008019168152602001600073ffffffffffffffffffffffffffffffffffffffff168152602001600073ffffffffffffffffffffffffffffffffffffffff168152602001600073ffffffffffffffffffffffffffffffffffffffff168152602001600081526020016000815260200160008152602001600081526020016000600881111561404b5761404a6145d5565b5b8152602001600073ffffffffffffffffffffffffffffffffffffffff1681525090565b6000604051905090565b600080fd5b600080fd5b60007fffffffff0000000000000000000000000000000000000000000000000000000082169050919050565b6140b781614082565b81146140c257600080fd5b50565b6000813590506140d4816140ae565b92915050565b6000602082840312156140f0576140ef614078565b5b60006140fe848285016140c5565b91505092915050565b60008115159050919050565b61411c81614107565b82525050565b60006020820190506141376000830184614113565b92915050565b6000819050919050565b6141508161413d565b82525050565b600060208201905061416b6000830184614147565b92915050565b6000819050919050565b61418481614171565b82525050565b600060208201905061419f600083018461417b565b92915050565b6141ae81614171565b81146141b957600080fd5b50565b6000813590506141cb816141a5565b92915050565b6000602082840312156141e7576141e6614078565b5b60006141f5848285016141bc565b91505092915050565b6142078161413d565b811461421257600080fd5b50565b600081359050614224816141fe565b92915050565b6000602082840312156142405761423f614078565b5b600061424e84828501614215565b91505092915050565b600073ffffffffffffffffffffffffffffffffffffffff82169050919050565b600061428282614257565b9050919050565b61429281614277565b811461429d57600080fd5b50565b6000813590506142af81614289565b92915050565b600080604083850312156142cc576142cb614078565b5b60006142da858286016141bc565b92505060206142eb858286016142a0565b9150509250929050565b6142fe81614277565b82525050565b600081519050919050565b600082825260208201905092915050565b60005b8381101561433e578082015181840152602081019050614323565b60008484015250505050565b6000601f19601f8301169050919050565b600061436682614304565b614370818561430f565b9350614380818560208601614320565b6143898161434a565b840191505092915050565b600060c0820190506143a9600083018961417b565b6143b66020830188614147565b6143c360408301876142f5565b6143d06060830186614113565b6143dd6080830185614113565b81810360a08301526143ef818461435b565b9050979650505050505050565b60006020828403121561441257614411614078565b5b6000614420848285016142a0565b91505092915050565b600080fd5b600080fd5b7f4e487b7100000000000000000000000000000000000000000000000000000000600052604160045260246000fd5b61446b8261434a565b810181811067ffffffffffffffff8211171561448a57614489614433565b5b80604052505050565b600061449d61406e565b90506144a98282614462565b919050565b600067ffffffffffffffff8211156144c9576144c8614433565b5b6144d28261434a565b9050602081019050919050565b82818337600083830152505050565b60006145016144fc846144ae565b614493565b90508281526020810184848401111561451d5761451c61442e565b5b6145288482856144df565b509392505050565b600082601f83011261454557614544614429565b5b81356145558482602086016144ee565b91505092915050565b6000806040838503121561457557614574614078565b5b600083013567ffffffffffffffff8111156145935761459261407d565b5b61459f85828601614530565b92505060206145b0858286016142a0565b9150509250929050565b60006020820190506145cf60008301846142f5565b92915050565b7f4e487b7100000000000000000000000000000000000000000000000000000000600052602160045260246000fd5b60098110614615576146146145d5565b5b50565b600081905061462682614604565b919050565b600061463682614618565b9050919050565b6146468161462b565b82525050565b600061014082019050614662600083018d61417b565b61466f602083018c6142f5565b61467c604083018b6142f5565b614689606083018a6142f5565b6146966080830189614147565b6146a360a0830188614147565b6146b060c0830187614147565b6146bd60e0830186614147565b6146cb61010083018561463d565b6146d96101208301846142f5565b9b9a5050505050505050505050565b6000819050919050565b600061470d61470861470384614257565b6146e8565b614257565b9050919050565b600061471f826146f2565b9050919050565b600061473182614714565b9050919050565b61474181614726565b82525050565b600060208201905061475c6000830184614738565b92915050565b61476b81614171565b82525050565b61477a81614277565b82525050565b6147898161413d565b82525050565b6147988161462b565b82525050565b610140820160008201516147b56000850182614762565b5060208201516147c86020850182614771565b5060408201516147db6040850182614771565b5060608201516147ee6060850182614771565b5060808201516148016080850182614780565b5060a082015161481460a0850182614780565b5060c082015161482760c0850182614780565b5060e082015161483a60e0850182614780565b5061010082015161484f61010085018261478f565b50610120820151614864610120850182614771565b50505050565b600061014082019050614880600083018461479e565b92915050565b6000806040838503121561489d5761489c614078565b5b60006148ab858286016141bc565b92505060206148bc85828601614215565b9150509250929050565b60006148d182614714565b9050919050565b6148e1816148c6565b82525050565b60006020820190506148fc60008301846148d8565b92915050565b6000806040838503121561491957614918614078565b5b6000614927858286016142a0565b925050602061493885828601614215565b9150509250929050565b600061494d82614714565b9050919050565b61495d81614942565b82525050565b60006020820190506149786000830184614954565b92915050565b6000806000806080858703121561499857614997614078565b5b60006149a6878288016142a0565b94505060206149b787828801614215565b93505060406149c887828801614215565b92505060606149d9878288016142a0565b91505092959194509250565b600081519050919050565b600082825260208201905092915050565b6000819050602082019050919050565b6000614a1d8383614762565b60208301905092915050565b6000602082019050919050565b6000614a41826149e5565b614a4b81856149f0565b9350614a5683614a01565b8060005b83811015614a87578151614a6e8882614a11565b9750614a7983614a29565b925050600181019050614a5a565b5085935050505092915050565b60006020820190508181036000830152614aae8184614a36565b905092915050565b7f4e487b7100000000000000000000000000000000000000000000000000000000600052602260045260246000fd5b60006002820490506001821680614afd57607f821691505b602082108103614b1057614b0f614ab6565b5b50919050565b6000604082019050614b2b600083018561417b565b614b3860208301846142f5565b9392505050565b614b4881614107565b8114614b5357600080fd5b50565b600081519050614b6581614b3f565b92915050565b600060208284031215614b8157614b80614078565b5b6000614b8f84828501614b56565b91505092915050565b6000604082019050614bad60008301856142f5565b614bba6020830184614147565b9392505050565b7f4164647265737320496e76616c69640000000000000000000000000000000000600082015250565b6000614bf7600f8361430f565b9150614c0282614bc1565b602082019050919050565b60006020820190508181036000830152614c2681614bea565b9050919050565b7f497473206e6f742052657461696c657200000000000000000000000000000000600082015250565b6000614c6360108361430f565b9150614c6e82614c2d565b602082019050919050565b60006020820190508181036000830152614c9281614c56565b9050919050565b7f556e617574686f72697a656420746f206d61726b20746869732062617463682060008201527f6173207265636569766564000000000000000000000000000000000000000000602082015250565b6000614cf5602b8361430f565b9150614d0082614c99565b604082019050919050565b60006020820190508181036000830152614d2481614ce8565b9050919050565b7f4d616e7566616374757265720000000000000000000000000000000000000000600082015250565b6000614d61600c8361430f565b9150614d6c82614d2b565b602082019050919050565b60006040820190508181036000830152614d9081614d54565b9050614d9f60208301846142f5565b92915050565b7f52657461696c6572000000000000000000000000000000000000000000000000600082015250565b6000614ddb60088361430f565b9150614de682614da5565b602082019050919050565b60006040820190508181036000830152614e0a81614dce565b9050614e1960208301846142f5565b92915050565b7f4469737472696275746f72000000000000000000000000000000000000000000600082015250565b6000614e55600b8361430f565b9150614e6082614e1f565b602082019050919050565b60006040820190508181036000830152614e8481614e48565b9050614e9360208301846142f5565b92915050565b7f496e76616c696420726f6c65206e616d65000000000000000000000000000000600082015250565b6000614ecf60118361430f565b9150614eda82614e99565b602082019050919050565b60006020820190508181036000830152614efe81614ec2565b9050919050565b7f43616e6e6f7420667265657a6520746865207a65726f20616464726573730000600082015250565b6000614f3b601e8361430f565b9150614f4682614f05565b602082019050919050565b60006020820190508181036000830152614f6a81614f2e565b9050919050565b7f426174636820646f6573206e6f74206578697374000000000000000000000000600082015250565b6000614fa760148361430f565b9150614fb282614f71565b602082019050919050565b60006020820190508181036000830152614fd681614f9a565b9050919050565b7f497473206e6f74204469737472696275746f7200000000000000000000000000600082015250565b600061501360138361430f565b915061501e82614fdd565b602082019050919050565b6000602082019050818103600083015261504281615006565b9050919050565b7f4c6573732050726963652053656e740000000000000000000000000000000000600082015250565b600061507f600f8361430f565b915061508a82615049565b602082019050919050565b600060208201905081810360008301526150ae81615072565b9050919050565b60006040820190506150ca60008301856142f5565b6150d760208301846142f5565b9392505050565b60006080820190506150f360008301876142f5565b615100602083018661463d565b61510d6040830185614147565b61511a6060830184614147565b95945050505050565b7f43616e6e6f7420756e667265657a6520746865207a65726f2061646472657373600082015250565b600061515960208361430f565b915061516482615123565b602082019050919050565b600060208201905081810360008301526151888161514c565b9050919050565b7f496e76616c696420707269636520666565642064617461000000000000000000600082015250565b60006151c560178361430f565b91506151d08261518f565b602082019050919050565b600060208201905081810360008301526151f4816151b8565b9050919050565b7f4e487b7100000000000000000000000000000000000000000000000000000000600052601160045260246000fd5b60006152358261413d565b91506152408361413d565b925082820261524e8161413d565b91508282048414831517615265576152646151fb565b5b5092915050565b7f4e487b7100000000000000000000000000000000000000000000000000000000600052601260045260246000fd5b60006152a68261413d565b91506152b18361413d565b9250826152c1576152c061526c565b5b828204905092915050565b7f426174636820697320616c72656164792070757263686173656420627920616e60008201527f6f74686572206469737472696275746f72000000000000000000000000000000602082015250565b600061532860318361430f565b9150615333826152cc565b604082019050919050565b600060208201905081810360008301526153578161531b565b9050919050565b7f4261746368206973206e6f7420617661696c61626c6520666f7220707572636860008201527f617365206279204469737472696275746f720000000000000000000000000000602082015250565b60006153ba60328361430f565b91506153c58261535e565b604082019050919050565b600060208201905081810360008301526153e9816153ad565b9050919050565b7f4261746368206861732065787069726564000000000000000000000000000000600082015250565b600061542660118361430f565b9150615431826153f0565b602082019050919050565b6000602082019050818103600083015261545581615419565b9050919050565b7f496e73756666696369656e742050726963652053656e74000000000000000000600082015250565b600061549260178361430f565b915061549d8261545c565b602082019050919050565b600060208201905081810360008301526154c181615485565b9050919050565b7f50726f64756374207072696365206d757374206265206772656174657220746860008201527f616e207a65726f00000000000000000000000000000000000000000000000000602082015250565b600061552460278361430f565b915061552f826154c8565b604082019050919050565b6000602082019050818103600083015261555381615517565b9050919050565b7f497473206e6f74204d616e756661637475726572000000000000000000000000600082015250565b600061559060148361430f565b915061559b8261555a565b602082019050919050565b600060208201905081810360008301526155bf81615583565b9050919050565b7f4d616e7566616374757265722061646472657373206973206e6f74207265676960008201527f7374657265640000000000000000000000000000000000000000000000000000602082015250565b600061562260268361430f565b915061562d826155c6565b604082019050919050565b6000602082019050818103600083015261565181615615565b9050919050565b7f4d616e75666163747572657220616464726573732063616e6e6f74206265207a60008201527f65726f0000000000000000000000000000000000000000000000000000000000602082015250565b60006156b460238361430f565b91506156bf82615658565b604082019050919050565b600060208201905081810360008301526156e3816156a7565b9050919050565b7f4578706972792064617465206d75737420626520696e2074686520667574757260008201527f6500000000000000000000000000000000000000000000000000000000000000602082015250565b600061574660218361430f565b9150615751826156ea565b604082019050919050565b6000602082019050818103600083015261577581615739565b9050919050565b7f5072696365206d7573742062652067726561746572207468616e207a65726f00600082015250565b60006157b2601f8361430f565b91506157bd8261577c565b602082019050919050565b600060208201905081810360008301526157e1816157a5565b9050919050565b60006157f38261413d565b91507fffffffffffffffffffffffffffffffffffffffffffffffffffffffffffffffff8203615825576158246151fb565b5b600182019050919050565b60008160601b9050919050565b600061584882615830565b9050919050565b600061585a8261583d565b9050919050565b61587261586d82614277565b61584f565b82525050565b6000819050919050565b61589361588e8261413d565b615878565b82525050565b60006158a58286615861565b6014820191506158b58285615882565b6020820191506158c58284615882565b602082019150819050949350505050565b7f426174636820697320616c72656164792070757263686173656420627920616e60008201527f6f746865722072657461696c6572000000000000000000000000000000000000602082015250565b6000615932602e8361430f565b915061593d826158d6565b604082019050919050565b6000602082019050818103600083015261596181615925565b9050919050565b7f4261746368206973206e6f7420617661696c61626c6520666f7220707572636860008201527f6173652062792052657461696c65720000000000000000000000000000000000602082015250565b60006159c4602f8361430f565b91506159cf82615968565b604082019050919050565b600060208201905081810360008301526159f3816159b7565b9050919050565b7f5061796d656e74206d7573742062652067726561746572207468616e2070726f60008201527f6475637450726963650000000000000000000000000000000000000000000000602082015250565b6000615a5660298361430f565b9150615a61826159fa565b604082019050919050565b60006020820190508181036000830152615a8581615a49565b9050919050565b7f50726f64756374205072696365206973206e6f74207365740000000000000000600082015250565b6000615ac260188361430f565b9150615acd82615a8c565b602082019050919050565b60006020820190508181036000830152615af181615ab5565b9050919050565b6000604082019050615b0d60008301856142f5565b615b1a602083018461417b565b9392505050565b600069ffffffffffffffffffff82169050919050565b615b4081615b21565b8114615b4b57600080fd5b50565b600081519050615b5d81615b37565b92915050565b6000819050919050565b615b7681615b63565b8114615b8157600080fd5b50565b600081519050615b9381615b6d565b92915050565b600081519050615ba8816141fe565b92915050565b600080600080600060a08688031215615bca57615bc9614078565b5b6000615bd888828901615b4e565b9550506020615be988828901615b84565b9450506040615bfa88828901615b99565b9350506060615c0b88828901615b99565b9250506080615c1c88828901615b4e565b915050929550929590935056fea26469706673582212206797bd32914a5ad4b8d901afeecbb6c0269f320dcc495a28faa8dec97b49e13e64736f6c634300081c0033",
  "linkReferences": {},
  "deployedLinkReferences": {}
}