{
  "_format": "hh-sol-artifact-1",
  "contractName": "BasicMechanism",
  "sourceName": "contracts/BasicMechanism.sol",
  "abi": [
    {
      "inputs": [
        {
          "internalType": "address",
          "name": "priceFeedAddress",
          "type": "address"
        },
        {
          "internalType": "address",
          "name": "escrowAddress",
          "type": "address"
        },
        {
          "internalType": "address",
          "name": "handlingAddresses",
          "type": "address"
        }
      ],
      "stateMutability": "nonpayable",
      "type": "constructor"
    },
    {
      "inputs": [],
      "name": "AccessControlBadConfirmation",
      "type": "error"
    },
    {
      "inputs": [
        {
          "internalType": "address",
          "name": "account",
          "type": "address"
        },
        {
          "internalType": "bytes32",
          "name": "neededRole",
          "type": "bytes32"
        }
      ],
      "name": "AccessControlUnauthorizedAccount",
      "type": "error"
    },
    {
      "inputs": [
        {
          "internalType": "string",
          "name": "role",
          "type": "string"
        },
        {
          "internalType": "address",
          "name": "account",
          "type": "address"
        }
      ],
      "name": "AddressAlreadyExists",
      "type": "error"
    },
    {
      "inputs": [
        {
          "internalType": "address",
          "name": "account",
          "type": "address"
        }
      ],
      "name": "AddressInvalid",
      "type": "error"
    },
    {
      "inputs": [
        {
          "internalType": "uint256",
          "name": "_usdAmount",
          "type": "uint256"
        }
      ],
      "name": "InvalidAmount",
      "type": "error"
    },
    {
      "anonymous": false,
      "inputs": [
        {
          "indexed": false,
          "internalType": "address",
          "name": "account",
          "type": "address"
        }
      ],
      "name": "AddressFrozen",
      "type": "event"
    },
    {
      "anonymous": false,
      "inputs": [
        {
          "indexed": false,
          "internalType": "address",
          "name": "account",
          "type": "address"
        }
      ],
      "name": "AddressUnfrozen",
      "type": "event"
    },
    {
      "anonymous": false,
      "inputs": [
        {
          "indexed": true,
          "internalType": "bytes32",
          "name": "batchId",
          "type": "bytes32"
        },
        {
          "indexed": false,
          "internalType": "uint256",
          "name": "timestamp",
          "type": "uint256"
        }
      ],
      "name": "BatchCreated",
      "type": "event"
    },
    {
      "anonymous": false,
      "inputs": [
        {
          "indexed": true,
          "internalType": "bytes32",
          "name": "batchId",
          "type": "bytes32"
        },
        {
          "indexed": false,
          "internalType": "address",
          "name": "distributor",
          "type": "address"
        },
        {
          "indexed": false,
          "internalType": "enum DrugSupplyChain.BatchStatus",
          "name": "statusEnum",
          "type": "uint8"
        },
        {
          "indexed": false,
          "internalType": "uint256",
          "name": "price",
          "type": "uint256"
        },
        {
          "indexed": false,
          "internalType": "uint256",
          "name": "timestamp",
          "type": "uint256"
        }
      ],
      "name": "DistributerPurchased",
      "type": "event"
    },
    {
      "anonymous": false,
      "inputs": [
        {
          "indexed": true,
          "internalType": "bytes32",
          "name": "batchId",
          "type": "bytes32"
        },
        {
          "indexed": false,
          "internalType": "enum DrugSupplyChain.BatchStatus",
          "name": "statusEnum",
          "type": "uint8"
        },
        {
          "indexed": true,
          "internalType": "address",
          "name": "distributor",
          "type": "address"
        },
        {
          "indexed": false,
          "internalType": "uint256",
          "name": "price",
          "type": "uint256"
        },
        {
          "indexed": false,
          "internalType": "uint256",
          "name": "timestamp",
          "type": "uint256"
        },
        {
          "indexed": false,
          "internalType": "string",
          "name": "reason",
          "type": "string"
        }
      ],
      "name": "EligibleForResell",
      "type": "event"
    },
    {
      "anonymous": false,
      "inputs": [
        {
          "indexed": true,
          "internalType": "bytes32",
          "name": "batchId",
          "type": "bytes32"
        },
        {
          "indexed": true,
          "internalType": "address",
          "name": "to",
          "type": "address"
        },
        {
          "indexed": true,
          "internalType": "uint256",
          "name": "timestamp",
          "type": "uint256"
        },
        {
          "indexed": false,
          "internalType": "bool",
          "name": "refunded",
          "type": "bool"
        },
        {
          "indexed": false,
          "internalType": "string",
          "name": "reason",
          "type": "string"
        }
      ],
      "name": "Refunded",
      "type": "event"
    },
    {
      "anonymous": false,
      "inputs": [
        {
          "indexed": true,
          "internalType": "bytes32",
          "name": "batchId",
          "type": "bytes32"
        },
        {
          "indexed": true,
          "internalType": "address",
          "name": "requester",
          "type": "address"
        },
        {
          "indexed": true,
          "internalType": "uint256",
          "name": "timestamp",
          "type": "uint256"
        },
        {
          "indexed": false,
          "internalType": "bool",
          "name": "approved",
          "type": "bool"
        },
        {
          "indexed": false,
          "internalType": "string",
          "name": "reason",
          "type": "string"
        }
      ],
      "name": "RequestApproved",
      "type": "event"
    },
    {
      "anonymous": false,
      "inputs": [
        {
          "indexed": true,
          "internalType": "bytes32",
          "name": "batchId",
          "type": "bytes32"
        },
        {
          "indexed": false,
          "internalType": "enum DrugSupplyChain.BatchStatus",
          "name": "statusEnum",
          "type": "uint8"
        },
        {
          "indexed": true,
          "internalType": "address",
          "name": "distributor",
          "type": "address"
        },
        {
          "indexed": false,
          "internalType": "uint256",
          "name": "price",
          "type": "uint256"
        },
        {
          "indexed": false,
          "internalType": "uint256",
          "name": "timestamp",
          "type": "uint256"
        }
      ],
      "name": "ResellingDone",
      "type": "event"
    },
    {
      "anonymous": false,
      "inputs": [
        {
          "indexed": true,
          "internalType": "bytes32",
          "name": "batchId",
          "type": "bytes32"
        },
        {
          "indexed": false,
          "internalType": "address",
          "name": "retailer",
          "type": "address"
        },
        {
          "indexed": false,
          "internalType": "enum DrugSupplyChain.BatchStatus",
          "name": "statusEnum",
          "type": "uint8"
        },
        {
          "indexed": false,
          "internalType": "uint256",
          "name": "price",
          "type": "uint256"
        },
        {
          "indexed": false,
          "internalType": "uint256",
          "name": "timestamp",
          "type": "uint256"
        }
      ],
      "name": "RetailerPurchased",
      "type": "event"
    },
    {
      "anonymous": false,
      "inputs": [
        {
          "indexed": true,
          "internalType": "bytes32",
          "name": "batchId",
          "type": "bytes32"
        },
        {
          "indexed": true,
          "internalType": "uint256",
          "name": "timestamp",
          "type": "uint256"
        },
        {
          "indexed": true,
          "internalType": "address",
          "name": "requester",
          "type": "address"
        },
        {
          "indexed": false,
          "internalType": "bool",
          "name": "approved",
          "type": "bool"
        },
        {
          "indexed": false,
          "internalType": "bool",
          "name": "refunded",
          "type": "bool"
        },
        {
          "indexed": false,
          "internalType": "string",
          "name": "reason",
          "type": "string"
        }
      ],
      "name": "ReturnRequested",
      "type": "event"
    },
    {
      "anonymous": false,
      "inputs": [
        {
          "indexed": true,
          "internalType": "bytes32",
          "name": "role",
          "type": "bytes32"
        },
        {
          "indexed": true,
          "internalType": "bytes32",
          "name": "previousAdminRole",
          "type": "bytes32"
        },
        {
          "indexed": true,
          "internalType": "bytes32",
          "name": "newAdminRole",
          "type": "bytes32"
        }
      ],
      "name": "RoleAdminChanged",
      "type": "event"
    },
    {
      "anonymous": false,
      "inputs": [
        {
          "indexed": true,
          "internalType": "bytes32",
          "name": "role",
          "type": "bytes32"
        },
        {
          "indexed": true,
          "internalType": "address",
          "name": "account",
          "type": "address"
        },
        {
          "indexed": true,
          "internalType": "address",
          "name": "sender",
          "type": "address"
        }
      ],
      "name": "RoleGranted",
      "type": "event"
    },
    {
      "anonymous": false,
      "inputs": [
        {
          "indexed": true,
          "internalType": "bytes32",
          "name": "role",
          "type": "bytes32"
        },
        {
          "indexed": true,
          "internalType": "address",
          "name": "account",
          "type": "address"
        },
        {
          "indexed": true,
          "internalType": "address",
          "name": "sender",
          "type": "address"
        }
      ],
      "name": "RoleRevoked",
      "type": "event"
    },
    {
      "inputs": [],
      "name": "DEFAULT_ADMIN_ROLE",
      "outputs": [
        {
          "internalType": "bytes32",
          "name": "",
          "type": "bytes32"
        }
      ],
      "stateMutability": "view",
      "type": "function"
    },
    {
      "inputs": [],
      "name": "DISTRIBUTOR_ROLE",
      "outputs": [
        {
          "internalType": "bytes32",
          "name": "",
          "type": "bytes32"
        }
      ],
      "stateMutability": "view",
      "type": "function"
    },
    {
      "inputs": [],
      "name": "MANUFACTURER_ROLE",
      "outputs": [
        {
          "internalType": "bytes32",
          "name": "",
          "type": "bytes32"
        }
      ],
      "stateMutability": "view",
      "type": "function"
    },
    {
      "inputs": [],
      "name": "RETAILER_ROLE",
      "outputs": [
        {
          "internalType": "bytes32",
          "name": "",
          "type": "bytes32"
        }
      ],
      "stateMutability": "view",
      "type": "function"
    },
    {
      "inputs": [
        {
          "internalType": "address",
          "name": "distributor",
          "type": "address"
        }
      ],
      "name": "addDistributor",
      "outputs": [],
      "stateMutability": "nonpayable",
      "type": "function"
    },
    {
      "inputs": [
        {
          "internalType": "address",
          "name": "manufacturer",
          "type": "address"
        }
      ],
      "name": "addManufacturer",
      "outputs": [],
      "stateMutability": "nonpayable",
      "type": "function"
    },
    {
      "inputs": [
        {
          "internalType": "address",
          "name": "retailer",
          "type": "address"
        }
      ],
      "name": "addRetailer",
      "outputs": [],
      "stateMutability": "nonpayable",
      "type": "function"
    },
    {
      "inputs": [
        {
          "internalType": "uint256",
          "name": "",
          "type": "uint256"
        }
      ],
      "name": "allBatchIds",
      "outputs": [
        {
          "internalType": "bytes32",
          "name": "",
          "type": "bytes32"
        }
      ],
      "stateMutability": "view",
      "type": "function"
    },
    {
      "inputs": [],
      "name": "batchCount",
      "outputs": [
        {
          "internalType": "uint256",
          "name": "",
          "type": "uint256"
        }
      ],
      "stateMutability": "view",
      "type": "function"
    },
    {
      "inputs": [
        {
          "internalType": "address",
          "name": "",
          "type": "address"
        }
      ],
      "name": "batchCounter",
      "outputs": [
        {
          "internalType": "uint256",
          "name": "",
          "type": "uint256"
        }
      ],
      "stateMutability": "view",
      "type": "function"
    },
    {
      "inputs": [
        {
          "internalType": "bytes32",
          "name": "",
          "type": "bytes32"
        }
      ],
      "name": "batchIdToBatch",
      "outputs": [
        {
          "internalType": "bytes32",
          "name": "batchId",
          "type": "bytes32"
        },
        {
          "internalType": "address",
          "name": "manufacturer",
          "type": "address"
        },
        {
          "internalType": "address",
          "name": "distributor",
          "type": "address"
        },
        {
          "internalType": "address",
          "name": "retailer",
          "type": "address"
        },
        {
          "internalType": "uint256",
          "name": "expiryDate",
          "type": "uint256"
        },
        {
          "internalType": "uint256",
          "name": "timestamp",
          "type": "uint256"
        },
        {
          "internalType": "uint256",
          "name": "price",
          "type": "uint256"
        },
        {
          "internalType": "uint256",
          "name": "productPrice",
          "type": "uint256"
        },
        {
          "internalType": "enum DrugSupplyChain.BatchStatus",
          "name": "statusEnum",
          "type": "uint8"
        },
        {
          "internalType": "address",
          "name": "ipfsHash",
          "type": "address"
        }
      ],
      "stateMutability": "view",
      "type": "function"
    },
    {
      "inputs": [
        {
          "internalType": "bytes32",
          "name": "_batchId",
          "type": "bytes32"
        }
      ],
      "name": "batchReceivedDistributor",
      "outputs": [],
      "stateMutability": "nonpayable",
      "type": "function"
    },
    {
      "inputs": [
        {
          "internalType": "bytes32",
          "name": "_batchId",
          "type": "bytes32"
        }
      ],
      "name": "batchReceivedRetailer",
      "outputs": [],
      "stateMutability": "payable",
      "type": "function"
    },
    {
      "inputs": [
        {
          "internalType": "bytes32",
          "name": "_batchId",
          "type": "bytes32"
        },
        {
          "internalType": "uint256",
          "name": "_productPrice",
          "type": "uint256"
        }
      ],
      "name": "buyBatchDistributor",
      "outputs": [],
      "stateMutability": "payable",
      "type": "function"
    },
    {
      "inputs": [
        {
          "internalType": "bytes32",
          "name": "_batchId",
          "type": "bytes32"
        }
      ],
      "name": "buyBatchRetailer",
      "outputs": [],
      "stateMutability": "payable",
      "type": "function"
    },
    {
      "inputs": [
        {
          "internalType": "uint256",
          "name": "_usdAmount",
          "type": "uint256"
        }
      ],
      "name": "calculateEthfromUSD",
      "outputs": [
        {
          "internalType": "uint256",
          "name": "",
          "type": "uint256"
        }
      ],
      "stateMutability": "view",
      "type": "function"
    },
    {
      "inputs": [
        {
          "internalType": "string",
          "name": "roleName",
          "type": "string"
        },
        {
          "internalType": "address",
          "name": "account",
          "type": "address"
        }
      ],
      "name": "checkRole",
      "outputs": [
        {
          "internalType": "bool",
          "name": "",
          "type": "bool"
        }
      ],
      "stateMutability": "view",
      "type": "function"
    },
    {
      "inputs": [
        {
          "internalType": "address",
          "name": "manufacturer",
          "type": "address"
        },
        {
          "internalType": "uint256",
          "name": "expiryDate",
          "type": "uint256"
        },
        {
          "internalType": "uint256",
          "name": "price",
          "type": "uint256"
        },
        {
          "internalType": "address",
          "name": "ipfsHash",
          "type": "address"
        }
      ],
      "name": "createBatch",
      "outputs": [
        {
          "components": [
            {
              "internalType": "bytes32",
              "name": "batchId",
              "type": "bytes32"
            },
            {
              "internalType": "address",
              "name": "manufacturer",
              "type": "address"
            },
            {
              "internalType": "address",
              "name": "distributor",
              "type": "address"
            },
            {
              "internalType": "address",
              "name": "retailer",
              "type": "address"
            },
            {
              "internalType": "uint256",
              "name": "expiryDate",
              "type": "uint256"
            },
            {
              "internalType": "uint256",
              "name": "timestamp",
              "type": "uint256"
            },
            {
              "internalType": "uint256",
              "name": "price",
              "type": "uint256"
            },
            {
              "internalType": "uint256",
              "name": "productPrice",
              "type": "uint256"
            },
            {
              "internalType": "enum DrugSupplyChain.BatchStatus",
              "name": "statusEnum",
              "type": "uint8"
            },
            {
              "internalType": "address",
              "name": "ipfsHash",
              "type": "address"
            }
          ],
          "internalType": "struct DrugSupplyChain.Batch",
          "name": "",
          "type": "tuple"
        }
      ],
      "stateMutability": "nonpayable",
      "type": "function"
    },
    {
      "inputs": [],
      "name": "dataFeed",
      "outputs": [
        {
          "internalType": "contract AggregatorV3Interface",
          "name": "",
          "type": "address"
        }
      ],
      "stateMutability": "view",
      "type": "function"
    },
    {
      "inputs": [],
      "name": "escrowContract",
      "outputs": [
        {
          "internalType": "contract Escrow",
          "name": "",
          "type": "address"
        }
      ],
      "stateMutability": "view",
      "type": "function"
    },
    {
      "inputs": [
        {
          "internalType": "address",
          "name": "account",
          "type": "address"
        }
      ],
      "name": "frozeAddress",
      "outputs": [],
      "stateMutability": "nonpayable",
      "type": "function"
    },
    {
      "inputs": [
        {
          "internalType": "bytes32",
          "name": "_batchId",
          "type": "bytes32"
        }
      ],
      "name": "getBatchDetails",
      "outputs": [
        {
          "components": [
            {
              "internalType": "bytes32",
              "name": "batchId",
              "type": "bytes32"
            },
            {
              "internalType": "address",
              "name": "manufacturer",
              "type": "address"
            },
            {
              "internalType": "address",
              "name": "distributor",
              "type": "address"
            },
            {
              "internalType": "address",
              "name": "retailer",
              "type": "address"
            },
            {
              "internalType": "uint256",
              "name": "expiryDate",
              "type": "uint256"
            },
            {
              "internalType": "uint256",
              "name": "timestamp",
              "type": "uint256"
            },
            {
              "internalType": "uint256",
              "name": "price",
              "type": "uint256"
            },
            {
              "internalType": "uint256",
              "name": "productPrice",
              "type": "uint256"
            },
            {
              "internalType": "enum DrugSupplyChain.BatchStatus",
              "name": "statusEnum",
              "type": "uint8"
            },
            {
              "internalType": "address",
              "name": "ipfsHash",
              "type": "address"
            }
          ],
          "internalType": "struct DrugSupplyChain.Batch",
          "name": "",
          "type": "tuple"
        }
      ],
      "stateMutability": "view",
      "type": "function"
    },
    {
      "inputs": [
        {
          "internalType": "bytes32",
          "name": "_batchId",
          "type": "bytes32"
        }
      ],
      "name": "getIpfsHash",
      "outputs": [
        {
          "internalType": "address",
          "name": "",
          "type": "address"
        }
      ],
      "stateMutability": "view",
      "type": "function"
    },
    {
      "inputs": [
        {
          "internalType": "address",
          "name": "owner",
          "type": "address"
        }
      ],
      "name": "getOwnerBatches",
      "outputs": [
        {
          "internalType": "bytes32[]",
          "name": "",
          "type": "bytes32[]"
        }
      ],
      "stateMutability": "view",
      "type": "function"
    },
    {
      "inputs": [
        {
          "internalType": "bytes32",
          "name": "role",
          "type": "bytes32"
        }
      ],
      "name": "getRoleAdmin",
      "outputs": [
        {
          "internalType": "bytes32",
          "name": "",
          "type": "bytes32"
        }
      ],
      "stateMutability": "view",
      "type": "function"
    },
    {
      "inputs": [
        {
          "internalType": "bytes32",
          "name": "role",
          "type": "bytes32"
        },
        {
          "internalType": "address",
          "name": "account",
          "type": "address"
        }
      ],
      "name": "grantRole",
      "outputs": [],
      "stateMutability": "nonpayable",
      "type": "function"
    },
    {
      "inputs": [],
      "name": "handlingAddresses",
      "outputs": [
        {
          "internalType": "contract HandlingAddresses",
          "name": "",
          "type": "address"
        }
      ],
      "stateMutability": "view",
      "type": "function"
    },
    {
      "inputs": [
        {
          "internalType": "bytes32",
          "name": "role",
          "type": "bytes32"
        },
        {
          "internalType": "address",
          "name": "account",
          "type": "address"
        }
      ],
      "name": "hasRole",
      "outputs": [
        {
          "internalType": "bool",
          "name": "",
          "type": "bool"
        }
      ],
      "stateMutability": "view",
      "type": "function"
    },
    {
      "inputs": [
        {
          "internalType": "address",
          "name": "",
          "type": "address"
        }
      ],
      "name": "isFrozen",
      "outputs": [
        {
          "internalType": "bool",
          "name": "",
          "type": "bool"
        }
      ],
      "stateMutability": "view",
      "type": "function"
    },
    {
      "inputs": [],
      "name": "owner",
      "outputs": [
        {
          "internalType": "address",
          "name": "",
          "type": "address"
        }
      ],
      "stateMutability": "view",
      "type": "function"
    },
    {
      "inputs": [
        {
          "internalType": "address",
          "name": "",
          "type": "address"
        },
        {
          "internalType": "uint256",
          "name": "",
          "type": "uint256"
        }
      ],
      "name": "ownerToBatches",
      "outputs": [
        {
          "internalType": "bytes32",
          "name": "",
          "type": "bytes32"
        }
      ],
      "stateMutability": "view",
      "type": "function"
    },
    {
      "inputs": [
        {
          "internalType": "uint256",
          "name": "",
          "type": "uint256"
        }
      ],
      "name": "pendingRequests",
      "outputs": [
        {
          "internalType": "bytes32",
          "name": "batchId",
          "type": "bytes32"
        },
        {
          "internalType": "uint256",
          "name": "timestamp",
          "type": "uint256"
        },
        {
          "internalType": "address",
          "name": "requester",
          "type": "address"
        },
        {
          "internalType": "bool",
          "name": "refunded",
          "type": "bool"
        },
        {
          "internalType": "bool",
          "name": "approved",
          "type": "bool"
        },
        {
          "internalType": "string",
          "name": "reason",
          "type": "string"
        }
      ],
      "stateMutability": "view",
      "type": "function"
    },
    {
      "inputs": [
        {
          "internalType": "address",
          "name": "distributor",
          "type": "address"
        }
      ],
      "name": "removeDistributor",
      "outputs": [],
      "stateMutability": "nonpayable",
      "type": "function"
    },
    {
      "inputs": [
        {
          "internalType": "address",
          "name": "manufacturer",
          "type": "address"
        }
      ],
      "name": "removeManufacturer",
      "outputs": [],
      "stateMutability": "nonpayable",
      "type": "function"
    },
    {
      "inputs": [
        {
          "internalType": "address",
          "name": "retailer",
          "type": "address"
        }
      ],
      "name": "removeRetailer",
      "outputs": [],
      "stateMutability": "nonpayable",
      "type": "function"
    },
    {
      "inputs": [
        {
          "internalType": "bytes32",
          "name": "role",
          "type": "bytes32"
        },
        {
          "internalType": "address",
          "name": "callerConfirmation",
          "type": "address"
        }
      ],
      "name": "renounceRole",
      "outputs": [],
      "stateMutability": "nonpayable",
      "type": "function"
    },
    {
      "inputs": [
        {
          "internalType": "bytes32",
          "name": "",
          "type": "bytes32"
        }
      ],
      "name": "returnRequests",
      "outputs": [
        {
          "internalType": "bytes32",
          "name": "batchId",
          "type": "bytes32"
        },
        {
          "internalType": "uint256",
          "name": "timestamp",
          "type": "uint256"
        },
        {
          "internalType": "address",
          "name": "requester",
          "type": "address"
        },
        {
          "internalType": "bool",
          "name": "refunded",
          "type": "bool"
        },
        {
          "internalType": "bool",
          "name": "approved",
          "type": "bool"
        },
        {
          "internalType": "string",
          "name": "reason",
          "type": "string"
        }
      ],
      "stateMutability": "view",
      "type": "function"
    },
    {
      "inputs": [
        {
          "internalType": "bytes32",
          "name": "role",
          "type": "bytes32"
        },
        {
          "internalType": "address",
          "name": "account",
          "type": "address"
        }
      ],
      "name": "revokeRole",
      "outputs": [],
      "stateMutability": "nonpayable",
      "type": "function"
    },
    {
      "inputs": [
        {
          "internalType": "bytes4",
          "name": "interfaceId",
          "type": "bytes4"
        }
      ],
      "name": "supportsInterface",
      "outputs": [
        {
          "internalType": "bool",
          "name": "",
          "type": "bool"
        }
      ],
      "stateMutability": "view",
      "type": "function"
    },
    {
      "inputs": [
        {
          "internalType": "address",
          "name": "account",
          "type": "address"
        }
      ],
      "name": "unfreezeAddress",
      "outputs": [],
      "stateMutability": "nonpayable",
      "type": "function"
    },
    {
      "inputs": [],
      "name": "withdraw",
      "outputs": [],
      "stateMutability": "nonpayable",
      "type": "function"
    }
  ],
  "bytecode": "0x608060405234801561001057600080fd5b5060405161601a38038061601a8339818101604052810190610032919061032a565b8282826100486000801b3361015860201b60201c565b5033600c60006101000a81548173ffffffffffffffffffffffffffffffffffffffff021916908373ffffffffffffffffffffffffffffffffffffffff16021790555081600a60006101000a81548173ffffffffffffffffffffffffffffffffffffffff021916908373ffffffffffffffffffffffffffffffffffffffff16021790555082600960006101000a81548173ffffffffffffffffffffffffffffffffffffffff021916908373ffffffffffffffffffffffffffffffffffffffff16021790555080600b60006101000a81548173ffffffffffffffffffffffffffffffffffffffff021916908373ffffffffffffffffffffffffffffffffffffffff16021790555050505050505061037d565b600061016a838361025560201b60201c565b61024a57600160008085815260200190815260200160002060000160008473ffffffffffffffffffffffffffffffffffffffff1673ffffffffffffffffffffffffffffffffffffffff16815260200190815260200160002060006101000a81548160ff0219169083151502179055506101e76102bf60201b60201c565b73ffffffffffffffffffffffffffffffffffffffff168273ffffffffffffffffffffffffffffffffffffffff16847f2f8788117e7eff1d82e926ec794901d17c78024a50270940304540a733656f0d60405160405180910390a46001905061024f565b600090505b92915050565b600080600084815260200190815260200160002060000160008373ffffffffffffffffffffffffffffffffffffffff1673ffffffffffffffffffffffffffffffffffffffff16815260200190815260200160002060009054906101000a900460ff16905092915050565b600033905090565b600080fd5b600073ffffffffffffffffffffffffffffffffffffffff82169050919050565b60006102f7826102cc565b9050919050565b610307816102ec565b811461031257600080fd5b50565b600081519050610324816102fe565b92915050565b600080600060608486031215610343576103426102c7565b5b600061035186828701610315565b935050602061036286828701610315565b925050604061037386828701610315565b9150509250925092565b615c8e8061038c6000396000f3fe6080604052600436106102465760003560e01c806391d1485411610139578063bfb80547116100b6578063e477a26c1161007a578063e477a26c146108cd578063e58398361461090a578063e94a741e14610947578063eb1fbf1514610963578063f0bd87cc146109a0578063fa031f84146109cb57610246565b8063bfb80547146107e8578063c1c460a614610811578063cf30c7051461083c578063d547741f14610879578063e42a96e7146108a257610246565b80639fb65529116100fd5780639fb65529146106f9578063a217fddf1461073b578063b21a7b3e14610766578063b26c196a146107a3578063b75746ab146107cc57610246565b806391d14854146105f7578063965288b01461063457806399fd9cfb1461065f5780639de7c3b7146106885780639e42ff90146106ce57610246565b806357c1f9e2116101c757806370099ec81161018b57806370099ec8146105145780637026fe9c1461053d5780637250e2241461057a5780638da5cb5b146105a35780638ec4f505146105ce57610246565b806357c1f9e21461041f5780635f8a5afa14610448578063606b5c42146104715780636a0f9f70146104ae5780636a75323f146104eb57610246565b80632f2ff15d1161020e5780632f2ff15d1461035857806336568abe146103815780633c652a9a146103aa5780633ccfd60b146103ec5780634e4fddb01461040357610246565b806301ffc9a71461024b57806306f13056146102885780632115e7bf146102b3578063248a9ca3146102de578063290b17ec1461031b575b600080fd5b34801561025757600080fd5b50610272600480360381019061026d9190614109565b610a08565b60405161027f9190614151565b60405180910390f35b34801561029457600080fd5b5061029d610a82565b6040516102aa9190614185565b60405180910390f35b3480156102bf57600080fd5b506102c8610a88565b6040516102d591906141b9565b60405180910390f35b3480156102ea57600080fd5b5061030560048036038101906103009190614200565b610aac565b60405161031291906141b9565b60405180910390f35b34801561032757600080fd5b50610342600480360381019061033d9190614259565b610acb565b60405161034f91906141b9565b60405180910390f35b34801561036457600080fd5b5061037f600480360381019061037a91906142e4565b610aef565b005b34801561038d57600080fd5b506103a860048036038101906103a391906142e4565b610b11565b005b3480156103b657600080fd5b506103d160048036038101906103cc9190614259565b610b8c565b6040516103e3969594939291906143c3565b60405180910390f35b3480156103f857600080fd5b50610401610c9a565b005b61041d60048036038101906104189190614200565b610dcd565b005b34801561042b57600080fd5b506104466004803603810190610441919061442b565b61111c565b005b34801561045457600080fd5b5061046f600480360381019061046a919061442b565b611157565b005b34801561047d57600080fd5b5061049860048036038101906104939190614259565b611347565b6040516104a59190614185565b60405180910390f35b3480156104ba57600080fd5b506104d560048036038101906104d0919061442b565b61140c565b6040516104e29190614185565b60405180910390f35b3480156104f757600080fd5b50610512600480360381019061050d919061442b565b611424565b005b34801561052057600080fd5b5061053b6004803603810190610536919061442b565b61145f565b005b34801561054957600080fd5b50610564600480360381019061055f919061458d565b61149a565b6040516105719190614151565b60405180910390f35b34801561058657600080fd5b506105a1600480360381019061059c919061442b565b6115ef565b005b3480156105af57600080fd5b506105b86117df565b6040516105c591906145e9565b60405180910390f35b3480156105da57600080fd5b506105f560048036038101906105f0919061442b565b611805565b005b34801561060357600080fd5b5061061e600480360381019061061991906142e4565b6119f5565b60405161062b9190614151565b60405180910390f35b34801561064057600080fd5b50610649611a5f565b60405161065691906141b9565b60405180910390f35b34801561066b57600080fd5b506106866004803603810190610681919061442b565b611a83565b005b34801561069457600080fd5b506106af60048036038101906106aa9190614200565b611c12565b6040516106c59a9998979695949392919061467b565b60405180910390f35b3480156106da57600080fd5b506106e3611cf3565b6040516106f09190614776565b60405180910390f35b34801561070557600080fd5b50610720600480360381019061071b9190614200565b611d19565b604051610732969594939291906143c3565b60405180910390f35b34801561074757600080fd5b50610750611e17565b60405161075d91906141b9565b60405180910390f35b34801561077257600080fd5b5061078d60048036038101906107889190614200565b611e1e565b60405161079a9190614899565b60405180910390f35b3480156107af57600080fd5b506107ca60048036038101906107c59190614200565b61206c565b005b6107e660048036038101906107e191906148b5565b6123bc565b005b3480156107f457600080fd5b5061080f600480360381019061080a919061442b565b612769565b005b34801561081d57600080fd5b50610826612878565b6040516108339190614916565b60405180910390f35b34801561084857600080fd5b50610863600480360381019061085e9190614931565b61289e565b60405161087091906141b9565b60405180910390f35b34801561088557600080fd5b506108a0600480360381019061089b91906142e4565b6128cf565b005b3480156108ae57600080fd5b506108b76128f1565b6040516108c49190614992565b60405180910390f35b3480156108d957600080fd5b506108f460048036038101906108ef91906149ad565b612917565b6040516109019190614899565b60405180910390f35b34801561091657600080fd5b50610931600480360381019061092c919061442b565b6129d3565b60405161093e9190614151565b60405180910390f35b610961600480360381019061095c9190614200565b6129f3565b005b34801561096f57600080fd5b5061098a60048036038101906109859190614200565b612d29565b60405161099791906145e9565b60405180910390f35b3480156109ac57600080fd5b506109b5612dc4565b6040516109c291906141b9565b60405180910390f35b3480156109d757600080fd5b506109f260048036038101906109ed919061442b565b612de8565b6040516109ff9190614ac3565b60405180910390f35b60007f7965db0b000000000000000000000000000000000000000000000000000000007bffffffffffffffffffffffffffffffffffffffffffffffffffffffff1916827bffffffffffffffffffffffffffffffffffffffffffffffffffffffff19161480610a7b5750610a7a82612e7f565b5b9050919050565b60085481565b7f2a5f906c256a5d799494fcd066e1f6c077689de1cdb65052a1624de4bace99bf81565b6000806000838152602001908152602001600020600101549050919050565b60078181548110610adb57600080fd5b906000526020600020016000915090505481565b610af882610aac565b610b0181612ee9565b610b0b8383612efd565b50505050565b610b19612fee565b73ffffffffffffffffffffffffffffffffffffffff168173ffffffffffffffffffffffffffffffffffffffff1614610b7d576040517f6697b23200000000000000000000000000000000000000000000000000000000815260040160405180910390fd5b610b878282612ff6565b505050565b60068181548110610b9c57600080fd5b90600052602060002090600402016000915090508060000154908060010154908060020160009054906101000a900473ffffffffffffffffffffffffffffffffffffffff16908060020160149054906101000a900460ff16908060020160159054906101000a900460ff1690806003018054610c1790614b14565b80601f0160208091040260200160405190810160405280929190818152602001828054610c4390614b14565b8015610c905780601f10610c6557610100808354040283529160200191610c90565b820191906000526020600020905b815481529060010190602001808311610c7357829003601f168201915b5050505050905086565b600b60009054906101000a900473ffffffffffffffffffffffffffffffffffffffff1673ffffffffffffffffffffffffffffffffffffffff166391d148546000801b336040518363ffffffff1660e01b8152600401610cfa929190614b45565b602060405180830381865afa158015610d17573d6000803e3d6000fd5b505050506040513d601f19601f82011682018060405250810190610d3b9190614b9a565b50600a60009054906101000a900473ffffffffffffffffffffffffffffffffffffffff1673ffffffffffffffffffffffffffffffffffffffff16630357371d33476040518363ffffffff1660e01b8152600401610d99929190614bc7565b600060405180830381600087803b158015610db357600080fd5b505af1158015610dc7573d6000803e3d6000fd5b50505050565b600160003373ffffffffffffffffffffffffffffffffffffffff1673ffffffffffffffffffffffffffffffffffffffff16815260200190815260200160002060009054906101000a900460ff1615610e5a576040517f08c379a0000000000000000000000000000000000000000000000000000000008152600401610e5190614c3c565b60405180910390fd5b600b60009054906101000a900473ffffffffffffffffffffffffffffffffffffffff1673ffffffffffffffffffffffffffffffffffffffff166391d148547f2a5f906c256a5d799494fcd066e1f6c077689de1cdb65052a1624de4bace99bf336040518363ffffffff1660e01b8152600401610ed7929190614b45565b602060405180830381865afa158015610ef4573d6000803e3d6000fd5b505050506040513d601f19601f82011682018060405250810190610f189190614b9a565b610f57576040517f08c379a0000000000000000000000000000000000000000000000000000000008152600401610f4e90614ca8565b60405180910390fd5b3373ffffffffffffffffffffffffffffffffffffffff166003600083815260200190815260200160002060030160009054906101000a900473ffffffffffffffffffffffffffffffffffffffff1673ffffffffffffffffffffffffffffffffffffffff16036110de57600380600083815260200190815260200160002060080160006101000a81548160ff02191690836008811115610ff957610ff8614604565b5b0217905550600a60009054906101000a900473ffffffffffffffffffffffffffffffffffffffff1673ffffffffffffffffffffffffffffffffffffffff16630357371d6003600084815260200190815260200160002060020160009054906101000a900473ffffffffffffffffffffffffffffffffffffffff1660036000858152602001908152602001600020600701546040518363ffffffff1660e01b81526004016110a7929190614bc7565b600060405180830381600087803b1580156110c157600080fd5b505af11580156110d5573d6000803e3d6000fd5b50505050611119565b6040517f08c379a000000000000000000000000000000000000000000000000000000000815260040161111090614d3a565b60405180910390fd5b50565b6000801b61112981612ee9565b6111537ffbd454f36a7e1a388bd6fc3ab10d434aa4578f811acbbcf33afb1c697486313c836128cf565b5050565b6000801b61116481612ee9565b8161118f7feefb95e842a3287179d933b4460be539a1d5af11aa8b325bb45c5c8dc92de4ed826119f5565b156111d157806040517f375795b90000000000000000000000000000000000000000000000000000000081526004016111c89190614da6565b60405180910390fd5b6111fb7f2a5f906c256a5d799494fcd066e1f6c077689de1cdb65052a1624de4bace99bf826119f5565b1561123d57806040517f375795b90000000000000000000000000000000000000000000000000000000081526004016112349190614e20565b60405180910390fd5b6112677ffbd454f36a7e1a388bd6fc3ab10d434aa4578f811acbbcf33afb1c697486313c826119f5565b156112a957806040517f375795b90000000000000000000000000000000000000000000000000000000081526004016112a09190614e9a565b60405180910390fd5b600073ffffffffffffffffffffffffffffffffffffffff168173ffffffffffffffffffffffffffffffffffffffff1603611318576040517f08c379a000000000000000000000000000000000000000000000000000000000815260040161130f90614c3c565b60405180910390fd5b6113427feefb95e842a3287179d933b4460be539a1d5af11aa8b325bb45c5c8dc92de4ed84610aef565b505050565b6000806113526130e8565b905060008111611397576040517f08c379a000000000000000000000000000000000000000000000000000000000815260040161138e90614f14565b60405180910390fd5b600083116113dc57826040517f3728b83d0000000000000000000000000000000000000000000000000000000081526004016113d39190614185565b60405180910390fd5b6000816a52b7d2dcc80cd2e4000000856113f69190614f63565b6114009190614fd4565b90508092505050919050565b60026020528060005260406000206000915090505481565b6000801b61143181612ee9565b61145b7feefb95e842a3287179d933b4460be539a1d5af11aa8b325bb45c5c8dc92de4ed836128cf565b5050565b6000801b61146c81612ee9565b6114967f2a5f906c256a5d799494fcd066e1f6c077689de1cdb65052a1624de4bace99bf836128cf565b5050565b6000807feefb95e842a3287179d933b4460be539a1d5af11aa8b325bb45c5c8dc92de4ed8480519060200120036114f3577feefb95e842a3287179d933b4460be539a1d5af11aa8b325bb45c5c8dc92de4ed90506115dc565b7ffbd454f36a7e1a388bd6fc3ab10d434aa4578f811acbbcf33afb1c697486313c848051906020012003611549577ffbd454f36a7e1a388bd6fc3ab10d434aa4578f811acbbcf33afb1c697486313c90506115db565b7f2a5f906c256a5d799494fcd066e1f6c077689de1cdb65052a1624de4bace99bf84805190602001200361159f577f2a5f906c256a5d799494fcd066e1f6c077689de1cdb65052a1624de4bace99bf90506115da565b6040517f08c379a00000000000000000000000000000000000000000000000000000000081526004016115d190615051565b60405180910390fd5b5b5b6115e681846119f5565b91505092915050565b6000801b6115fc81612ee9565b816116277feefb95e842a3287179d933b4460be539a1d5af11aa8b325bb45c5c8dc92de4ed826119f5565b1561166957806040517f375795b90000000000000000000000000000000000000000000000000000000081526004016116609190614da6565b60405180910390fd5b6116937f2a5f906c256a5d799494fcd066e1f6c077689de1cdb65052a1624de4bace99bf826119f5565b156116d557806040517f375795b90000000000000000000000000000000000000000000000000000000081526004016116cc9190614e20565b60405180910390fd5b6116ff7ffbd454f36a7e1a388bd6fc3ab10d434aa4578f811acbbcf33afb1c697486313c826119f5565b1561174157806040517f375795b90000000000000000000000000000000000000000000000000000000081526004016117389190614e9a565b60405180910390fd5b600073ffffffffffffffffffffffffffffffffffffffff168173ffffffffffffffffffffffffffffffffffffffff16036117b0576040517f08c379a00000000000000000000000000000000000000000000000000000000081526004016117a790614c3c565b60405180910390fd5b6117da7ffbd454f36a7e1a388bd6fc3ab10d434aa4578f811acbbcf33afb1c697486313c84610aef565b505050565b600c60009054906101000a900473ffffffffffffffffffffffffffffffffffffffff1681565b6000801b61181281612ee9565b8161183d7feefb95e842a3287179d933b4460be539a1d5af11aa8b325bb45c5c8dc92de4ed826119f5565b1561187f57806040517f375795b90000000000000000000000000000000000000000000000000000000081526004016118769190614da6565b60405180910390fd5b6118a97f2a5f906c256a5d799494fcd066e1f6c077689de1cdb65052a1624de4bace99bf826119f5565b156118eb57806040517f375795b90000000000000000000000000000000000000000000000000000000081526004016118e29190614e20565b60405180910390fd5b6119157ffbd454f36a7e1a388bd6fc3ab10d434aa4578f811acbbcf33afb1c697486313c826119f5565b1561195757806040517f375795b900000000000000000000000000000000000000000000000000000000815260040161194e9190614e9a565b60405180910390fd5b600073ffffffffffffffffffffffffffffffffffffffff168173ffffffffffffffffffffffffffffffffffffffff16036119c6576040517f08c379a00000000000000000000000000000000000000000000000000000000081526004016119bd90614c3c565b60405180910390fd5b6119f07f2a5f906c256a5d799494fcd066e1f6c077689de1cdb65052a1624de4bace99bf84610aef565b505050565b600080600084815260200190815260200160002060000160008373ffffffffffffffffffffffffffffffffffffffff1673ffffffffffffffffffffffffffffffffffffffff16815260200190815260200160002060009054906101000a900460ff16905092915050565b7feefb95e842a3287179d933b4460be539a1d5af11aa8b325bb45c5c8dc92de4ed81565b6000801b611a9081612ee9565b600073ffffffffffffffffffffffffffffffffffffffff168273ffffffffffffffffffffffffffffffffffffffff1603611aff576040517f08c379a0000000000000000000000000000000000000000000000000000000008152600401611af6906150bd565b60405180910390fd5b60018060008473ffffffffffffffffffffffffffffffffffffffff1673ffffffffffffffffffffffffffffffffffffffff16815260200190815260200160002060006101000a81548160ff021916908315150217905550611b807feefb95e842a3287179d933b4460be539a1d5af11aa8b325bb45c5c8dc92de4ed83612ff6565b50611bab7ffbd454f36a7e1a388bd6fc3ab10d434aa4578f811acbbcf33afb1c697486313c83612ff6565b50611bd67f2a5f906c256a5d799494fcd066e1f6c077689de1cdb65052a1624de4bace99bf83612ff6565b507f90811a8edd3b3c17eeaefffc17f639cc69145d41a359c9843994dc253820369082604051611c0691906145e9565b60405180910390a15050565b60036020528060005260406000206000915090508060000154908060010160009054906101000a900473ffffffffffffffffffffffffffffffffffffffff16908060020160009054906101000a900473ffffffffffffffffffffffffffffffffffffffff16908060030160009054906101000a900473ffffffffffffffffffffffffffffffffffffffff16908060040154908060050154908060060154908060070154908060080160009054906101000a900460ff16908060080160019054906101000a900473ffffffffffffffffffffffffffffffffffffffff1690508a565b600960009054906101000a900473ffffffffffffffffffffffffffffffffffffffff1681565b60046020528060005260406000206000915090508060000154908060010154908060020160009054906101000a900473ffffffffffffffffffffffffffffffffffffffff16908060020160149054906101000a900460ff16908060020160159054906101000a900460ff1690806003018054611d9490614b14565b80601f0160208091040260200160405190810160405280929190818152602001828054611dc090614b14565b8015611e0d5780601f10611de257610100808354040283529160200191611e0d565b820191906000526020600020905b815481529060010190602001808311611df057829003601f168201915b5050505050905086565b6000801b81565b611e26613fdd565b6000801b600360008481526020019081526020016000206000015403611e81576040517f08c379a0000000000000000000000000000000000000000000000000000000008152600401611e7890615129565b60405180910390fd5b6003600083815260200190815260200160002060405180610140016040529081600082015481526020016001820160009054906101000a900473ffffffffffffffffffffffffffffffffffffffff1673ffffffffffffffffffffffffffffffffffffffff1673ffffffffffffffffffffffffffffffffffffffff1681526020016002820160009054906101000a900473ffffffffffffffffffffffffffffffffffffffff1673ffffffffffffffffffffffffffffffffffffffff1673ffffffffffffffffffffffffffffffffffffffff1681526020016003820160009054906101000a900473ffffffffffffffffffffffffffffffffffffffff1673ffffffffffffffffffffffffffffffffffffffff1673ffffffffffffffffffffffffffffffffffffffff168152602001600482015481526020016005820154815260200160068201548152602001600782015481526020016008820160009054906101000a900460ff166008811115611ff957611ff8614604565b5b600881111561200b5761200a614604565b5b81526020016008820160019054906101000a900473ffffffffffffffffffffffffffffffffffffffff1673ffffffffffffffffffffffffffffffffffffffff1673ffffffffffffffffffffffffffffffffffffffff16815250509050919050565b600160003373ffffffffffffffffffffffffffffffffffffffff1673ffffffffffffffffffffffffffffffffffffffff16815260200190815260200160002060009054906101000a900460ff16156120f9576040517f08c379a00000000000000000000000000000000000000000000000000000000081526004016120f090614c3c565b60405180910390fd5b600b60009054906101000a900473ffffffffffffffffffffffffffffffffffffffff1673ffffffffffffffffffffffffffffffffffffffff166391d148547ffbd454f36a7e1a388bd6fc3ab10d434aa4578f811acbbcf33afb1c697486313c336040518363ffffffff1660e01b8152600401612176929190614b45565b602060405180830381865afa158015612193573d6000803e3d6000fd5b505050506040513d601f19601f820116820180604052508101906121b79190614b9a565b6121f6576040517f08c379a00000000000000000000000000000000000000000000000000000000081526004016121ed90615195565b60405180910390fd5b3373ffffffffffffffffffffffffffffffffffffffff166003600083815260200190815260200160002060020160009054906101000a900473ffffffffffffffffffffffffffffffffffffffff1673ffffffffffffffffffffffffffffffffffffffff160361237e5760016003600083815260200190815260200160002060080160006101000a81548160ff0219169083600881111561229957612298614604565b5b0217905550600a60009054906101000a900473ffffffffffffffffffffffffffffffffffffffff1673ffffffffffffffffffffffffffffffffffffffff16630357371d6003600084815260200190815260200160002060010160009054906101000a900473ffffffffffffffffffffffffffffffffffffffff1660036000858152602001908152602001600020600601546040518363ffffffff1660e01b8152600401612347929190614bc7565b600060405180830381600087803b15801561236157600080fd5b505af1158015612375573d6000803e3d6000fd5b505050506123b9565b6040517f08c379a00000000000000000000000000000000000000000000000000000000081526004016123b090614d3a565b60405180910390fd5b50565b600160003373ffffffffffffffffffffffffffffffffffffffff1673ffffffffffffffffffffffffffffffffffffffff16815260200190815260200160002060009054906101000a900460ff1615612449576040517f08c379a000000000000000000000000000000000000000000000000000000000815260040161244090614c3c565b60405180910390fd5b6124538282613189565b60036000838152602001908152602001600020600601543410156124ac576040517f08c379a00000000000000000000000000000000000000000000000000000000081526004016124a390615201565b60405180910390fd5b600a60009054906101000a900473ffffffffffffffffffffffffffffffffffffffff1673ffffffffffffffffffffffffffffffffffffffff1663ad7fadc534336003600087815260200190815260200160002060010160009054906101000a900473ffffffffffffffffffffffffffffffffffffffff166040518463ffffffff1660e01b8152600401612540929190615221565b6000604051808303818588803b15801561255957600080fd5b505af115801561256d573d6000803e3d6000fd5b5050505050806003600084815260200190815260200160002060070181905550426003600084815260200190815260200160002060050181905550336003600084815260200190815260200160002060020160006101000a81548173ffffffffffffffffffffffffffffffffffffffff021916908373ffffffffffffffffffffffffffffffffffffffff160217905550600560003373ffffffffffffffffffffffffffffffffffffffff1673ffffffffffffffffffffffffffffffffffffffff16815260200190815260200160002082908060018154018082558091505060019003906000526020600020016000909190919091505560016003600084815260200190815260200160002060080160006101000a81548160ff0219169083600881111561269d5761269c614604565b5b0217905550817f78dec01f974668793fa9048dc94c45a25b01bbabc6b89300c8ed2995d74005d56003600085815260200190815260200160002060020160009054906101000a900473ffffffffffffffffffffffffffffffffffffffff166003600086815260200190815260200160002060080160009054906101000a900460ff166003600087815260200190815260200160002060060154600360008881526020019081526020016000206005015460405161275d949392919061524a565b60405180910390a25050565b6000801b61277681612ee9565b600073ffffffffffffffffffffffffffffffffffffffff168273ffffffffffffffffffffffffffffffffffffffff16036127e5576040517f08c379a00000000000000000000000000000000000000000000000000000000081526004016127dc906152db565b60405180910390fd5b6000600160008473ffffffffffffffffffffffffffffffffffffffff1673ffffffffffffffffffffffffffffffffffffffff16815260200190815260200160002060006101000a81548160ff0219169083151502179055507fc3776b472ebf54114339eec9e4dc924e7ce307a97f5c1ee72b6d474e6e5e8b7c8260405161286c91906145e9565b60405180910390a15050565b600b60009054906101000a900473ffffffffffffffffffffffffffffffffffffffff1681565b600560205281600052604060002081815481106128ba57600080fd5b90600052602060002001600091509150505481565b6128d882610aac565b6128e181612ee9565b6128eb8383612ff6565b50505050565b600a60009054906101000a900473ffffffffffffffffffffffffffffffffffffffff1681565b61291f613fdd565b600160003373ffffffffffffffffffffffffffffffffffffffff1673ffffffffffffffffffffffffffffffffffffffff16815260200190815260200160002060009054906101000a900460ff16156129ac576040517f08c379a00000000000000000000000000000000000000000000000000000000081526004016129a390614c3c565b60405180910390fd5b6129b7858585613508565b60006129c5868686866137fc565b905080915050949350505050565b60016020528060005260406000206000915054906101000a900460ff1681565b600160003373ffffffffffffffffffffffffffffffffffffffff1673ffffffffffffffffffffffffffffffffffffffff16815260200190815260200160002060009054906101000a900460ff1615612a80576040517f08c379a0000000000000000000000000000000000000000000000000000000008152600401612a7790614c3c565b60405180910390fd5b612a8981613bf8565b600a60009054906101000a900473ffffffffffffffffffffffffffffffffffffffff1673ffffffffffffffffffffffffffffffffffffffff1663ad7fadc534336003600086815260200190815260200160002060020160009054906101000a900473ffffffffffffffffffffffffffffffffffffffff166040518463ffffffff1660e01b8152600401612b1d929190615221565b6000604051808303818588803b158015612b3657600080fd5b505af1158015612b4a573d6000803e3d6000fd5b5050505050426003600083815260200190815260200160002060050181905550336003600083815260200190815260200160002060030160006101000a81548173ffffffffffffffffffffffffffffffffffffffff021916908373ffffffffffffffffffffffffffffffffffffffff160217905550600560003373ffffffffffffffffffffffffffffffffffffffff1673ffffffffffffffffffffffffffffffffffffffff168152602001908152602001600020819080600181540180825580915050600190039060005260206000200160009091909190915055600380600083815260200190815260200160002060080160006101000a81548160ff02191690836008811115612c5e57612c5d614604565b5b0217905550807fd5bf0453cd492c459ba9477de283c3662783c2fb8a03df42555d15741b1848d46003600084815260200190815260200160002060030160009054906101000a900473ffffffffffffffffffffffffffffffffffffffff166003600085815260200190815260200160002060080160009054906101000a900460ff1660036000868152602001908152602001600020600601546003600087815260200190815260200160002060050154604051612d1e949392919061524a565b60405180910390a250565b60008060001b600360008481526020019081526020016000206000015403612d86576040517f08c379a0000000000000000000000000000000000000000000000000000000008152600401612d7d90615129565b60405180910390fd5b6003600083815260200190815260200160002060080160019054906101000a900473ffffffffffffffffffffffffffffffffffffffff169050919050565b7ffbd454f36a7e1a388bd6fc3ab10d434aa4578f811acbbcf33afb1c697486313c81565b6060600560008373ffffffffffffffffffffffffffffffffffffffff1673ffffffffffffffffffffffffffffffffffffffff168152602001908152602001600020805480602002602001604051908101604052809291908181526020018280548015612e7357602002820191906000526020600020905b815481526020019060010190808311612e5f575b50505050509050919050565b60007f01ffc9a7000000000000000000000000000000000000000000000000000000007bffffffffffffffffffffffffffffffffffffffffffffffffffffffff1916827bffffffffffffffffffffffffffffffffffffffffffffffffffffffff1916149050919050565b612efa81612ef5612fee565b613f8c565b50565b6000612f0983836119f5565b612fe357600160008085815260200190815260200160002060000160008473ffffffffffffffffffffffffffffffffffffffff1673ffffffffffffffffffffffffffffffffffffffff16815260200190815260200160002060006101000a81548160ff021916908315150217905550612f80612fee565b73ffffffffffffffffffffffffffffffffffffffff168273ffffffffffffffffffffffffffffffffffffffff16847f2f8788117e7eff1d82e926ec794901d17c78024a50270940304540a733656f0d60405160405180910390a460019050612fe8565b600090505b92915050565b600033905090565b600061300283836119f5565b156130dd57600080600085815260200190815260200160002060000160008473ffffffffffffffffffffffffffffffffffffffff1673ffffffffffffffffffffffffffffffffffffffff16815260200190815260200160002060006101000a81548160ff02191690831515021790555061307a612fee565b73ffffffffffffffffffffffffffffffffffffffff168273ffffffffffffffffffffffffffffffffffffffff16847ff6391f5c32d9c69d2a47ea670b442974b53935d1edc7fd64eb21e047a839171b60405160405180910390a4600190506130e2565b600090505b92915050565b600080600960009054906101000a900473ffffffffffffffffffffffffffffffffffffffff1673ffffffffffffffffffffffffffffffffffffffff1663feaf968c6040518163ffffffff1660e01b815260040160a060405180830381865afa158015613158573d6000803e3d6000fd5b505050506040513d601f19601f8201168201806040525081019061317c9190615388565b5050509150508091505090565b600b60009054906101000a900473ffffffffffffffffffffffffffffffffffffffff1673ffffffffffffffffffffffffffffffffffffffff166391d148547ffbd454f36a7e1a388bd6fc3ab10d434aa4578f811acbbcf33afb1c697486313c336040518363ffffffff1660e01b8152600401613206929190614b45565b602060405180830381865afa158015613223573d6000803e3d6000fd5b505050506040513d601f19601f820116820180604052508101906132479190614b9a565b613286576040517f08c379a000000000000000000000000000000000000000000000000000000000815260040161327d90615195565b60405180910390fd5b600073ffffffffffffffffffffffffffffffffffffffff166003600084815260200190815260200160002060020160009054906101000a900473ffffffffffffffffffffffffffffffffffffffff1673ffffffffffffffffffffffffffffffffffffffff161461332b576040517f08c379a000000000000000000000000000000000000000000000000000000000815260040161332290615475565b60405180910390fd5b6000801b600360008481526020019081526020016000206000015403613386576040517f08c379a000000000000000000000000000000000000000000000000000000000815260040161337d90615129565b60405180910390fd5b6000600881111561339a57613399614604565b5b6003600084815260200190815260200160002060080160009054906101000a900460ff1660088111156133d0576133cf614604565b5b14613410576040517f08c379a000000000000000000000000000000000000000000000000000000000815260040161340790615507565b60405180910390fd5b42600360008481526020019081526020016000206004015411613468576040517f08c379a000000000000000000000000000000000000000000000000000000000815260040161345f90615573565b60405180910390fd5b60036000838152602001908152602001600020600601543410156134c1576040517f08c379a00000000000000000000000000000000000000000000000000000000081526004016134b8906155df565b60405180910390fd5b60008111613504576040517f08c379a00000000000000000000000000000000000000000000000000000000081526004016134fb90615671565b60405180910390fd5b5050565b600b60009054906101000a900473ffffffffffffffffffffffffffffffffffffffff1673ffffffffffffffffffffffffffffffffffffffff166391d148547feefb95e842a3287179d933b4460be539a1d5af11aa8b325bb45c5c8dc92de4ed336040518363ffffffff1660e01b8152600401613585929190614b45565b602060405180830381865afa1580156135a2573d6000803e3d6000fd5b505050506040513d601f19601f820116820180604052508101906135c69190614b9a565b613605576040517f08c379a00000000000000000000000000000000000000000000000000000000081526004016135fc906156dd565b60405180910390fd5b600b60009054906101000a900473ffffffffffffffffffffffffffffffffffffffff1673ffffffffffffffffffffffffffffffffffffffff166391d148547feefb95e842a3287179d933b4460be539a1d5af11aa8b325bb45c5c8dc92de4ed856040518363ffffffff1660e01b8152600401613682929190614b45565b602060405180830381865afa15801561369f573d6000803e3d6000fd5b505050506040513d601f19601f820116820180604052508101906136c39190614b9a565b613702576040517f08c379a00000000000000000000000000000000000000000000000000000000081526004016136f99061576f565b60405180910390fd5b600073ffffffffffffffffffffffffffffffffffffffff168373ffffffffffffffffffffffffffffffffffffffff1603613771576040517f08c379a000000000000000000000000000000000000000000000000000000000815260040161376890615801565b60405180910390fd5b428210156137b4576040517f08c379a00000000000000000000000000000000000000000000000000000000081526004016137ab90615893565b60405180910390fd5b600081116137f7576040517f08c379a00000000000000000000000000000000000000000000000000000000081526004016137ee906158ff565b60405180910390fd5b505050565b613804613fdd565b61380c613fdd565b6000816101000190600881111561382657613825614604565b5b9081600881111561383a57613839614604565b5b81525050428160a00181815250508281610120019073ffffffffffffffffffffffffffffffffffffffff16908173ffffffffffffffffffffffffffffffffffffffff1681525050600860008154809291906138949061591f565b919050555085816020019073ffffffffffffffffffffffffffffffffffffffff16908173ffffffffffffffffffffffffffffffffffffffff168152505084816080018181525050838160c00181815250506000600260003373ffffffffffffffffffffffffffffffffffffffff1673ffffffffffffffffffffffffffffffffffffffff16815260200190815260200160002060008154809291906139379061591f565b91905055905081602001518260a001518260405160200161395a939291906159d0565b604051602081830303815290604052805190602001208260000181815250506007826000015190806001815401808255809150506001900390600052602060002001600090919091909150558160036000846000015181526020019081526020016000206000820151816000015560208201518160010160006101000a81548173ffffffffffffffffffffffffffffffffffffffff021916908373ffffffffffffffffffffffffffffffffffffffff16021790555060408201518160020160006101000a81548173ffffffffffffffffffffffffffffffffffffffff021916908373ffffffffffffffffffffffffffffffffffffffff16021790555060608201518160030160006101000a81548173ffffffffffffffffffffffffffffffffffffffff021916908373ffffffffffffffffffffffffffffffffffffffff1602179055506080820151816004015560a0820151816005015560c0820151816006015560e082015181600701556101008201518160080160006101000a81548160ff02191690836008811115613af157613af0614604565b5b02179055506101208201518160080160016101000a81548173ffffffffffffffffffffffffffffffffffffffff021916908373ffffffffffffffffffffffffffffffffffffffff160217905550905050600560008873ffffffffffffffffffffffffffffffffffffffff1673ffffffffffffffffffffffffffffffffffffffff1681526020019081526020016000208260000151908060018154018082558091505060019003906000526020600020016000909190919091505581600001517f142fb4f6af814b9c2a0fc64fa90bca80d84d17f165530aa799ede76f9882ec2e8360a00151604051613be39190614185565b60405180910390a28192505050949350505050565b600b60009054906101000a900473ffffffffffffffffffffffffffffffffffffffff1673ffffffffffffffffffffffffffffffffffffffff166391d148547f2a5f906c256a5d799494fcd066e1f6c077689de1cdb65052a1624de4bace99bf336040518363ffffffff1660e01b8152600401613c75929190614b45565b602060405180830381865afa158015613c92573d6000803e3d6000fd5b505050506040513d601f19601f82011682018060405250810190613cb69190614b9a565b613cf5576040517f08c379a0000000000000000000000000000000000000000000000000000000008152600401613cec90614ca8565b60405180910390fd5b600073ffffffffffffffffffffffffffffffffffffffff166003600083815260200190815260200160002060030160009054906101000a900473ffffffffffffffffffffffffffffffffffffffff1673ffffffffffffffffffffffffffffffffffffffff1614613d9a576040517f08c379a0000000000000000000000000000000000000000000000000000000008152600401613d9190615a7f565b60405180910390fd5b6000801b600360008381526020019081526020016000206000015403613df5576040517f08c379a0000000000000000000000000000000000000000000000000000000008152600401613dec90615129565b60405180910390fd5b60016008811115613e0957613e08614604565b5b6003600083815260200190815260200160002060080160009054906101000a900460ff166008811115613e3f57613e3e614604565b5b14613e7f576040517f08c379a0000000000000000000000000000000000000000000000000000000008152600401613e7690615b11565b60405180910390fd5b42600360008381526020019081526020016000206004015411613ed7576040517f08c379a0000000000000000000000000000000000000000000000000000000008152600401613ece90615573565b60405180910390fd5b6003600082815260200190815260200160002060070154341015613f30576040517f08c379a0000000000000000000000000000000000000000000000000000000008152600401613f2790615ba3565b60405180910390fd5b6000600360008381526020019081526020016000206007015411613f89576040517f08c379a0000000000000000000000000000000000000000000000000000000008152600401613f8090615c0f565b60405180910390fd5b50565b613f9682826119f5565b613fd95780826040517fe2517d3f000000000000000000000000000000000000000000000000000000008152600401613fd0929190615c2f565b60405180910390fd5b5050565b60405180610140016040528060008019168152602001600073ffffffffffffffffffffffffffffffffffffffff168152602001600073ffffffffffffffffffffffffffffffffffffffff168152602001600073ffffffffffffffffffffffffffffffffffffffff168152602001600081526020016000815260200160008152602001600081526020016000600881111561407a57614079614604565b5b8152602001600073ffffffffffffffffffffffffffffffffffffffff1681525090565b6000604051905090565b600080fd5b600080fd5b60007fffffffff0000000000000000000000000000000000000000000000000000000082169050919050565b6140e6816140b1565b81146140f157600080fd5b50565b600081359050614103816140dd565b92915050565b60006020828403121561411f5761411e6140a7565b5b600061412d848285016140f4565b91505092915050565b60008115159050919050565b61414b81614136565b82525050565b60006020820190506141666000830184614142565b92915050565b6000819050919050565b61417f8161416c565b82525050565b600060208201905061419a6000830184614176565b92915050565b6000819050919050565b6141b3816141a0565b82525050565b60006020820190506141ce60008301846141aa565b92915050565b6141dd816141a0565b81146141e857600080fd5b50565b6000813590506141fa816141d4565b92915050565b600060208284031215614216576142156140a7565b5b6000614224848285016141eb565b91505092915050565b6142368161416c565b811461424157600080fd5b50565b6000813590506142538161422d565b92915050565b60006020828403121561426f5761426e6140a7565b5b600061427d84828501614244565b91505092915050565b600073ffffffffffffffffffffffffffffffffffffffff82169050919050565b60006142b182614286565b9050919050565b6142c1816142a6565b81146142cc57600080fd5b50565b6000813590506142de816142b8565b92915050565b600080604083850312156142fb576142fa6140a7565b5b6000614309858286016141eb565b925050602061431a858286016142cf565b9150509250929050565b61432d816142a6565b82525050565b600081519050919050565b600082825260208201905092915050565b60005b8381101561436d578082015181840152602081019050614352565b60008484015250505050565b6000601f19601f8301169050919050565b600061439582614333565b61439f818561433e565b93506143af81856020860161434f565b6143b881614379565b840191505092915050565b600060c0820190506143d860008301896141aa565b6143e56020830188614176565b6143f26040830187614324565b6143ff6060830186614142565b61440c6080830185614142565b81810360a083015261441e818461438a565b9050979650505050505050565b600060208284031215614441576144406140a7565b5b600061444f848285016142cf565b91505092915050565b600080fd5b600080fd5b7f4e487b7100000000000000000000000000000000000000000000000000000000600052604160045260246000fd5b61449a82614379565b810181811067ffffffffffffffff821117156144b9576144b8614462565b5b80604052505050565b60006144cc61409d565b90506144d88282614491565b919050565b600067ffffffffffffffff8211156144f8576144f7614462565b5b61450182614379565b9050602081019050919050565b82818337600083830152505050565b600061453061452b846144dd565b6144c2565b90508281526020810184848401111561454c5761454b61445d565b5b61455784828561450e565b509392505050565b600082601f83011261457457614573614458565b5b813561458484826020860161451d565b91505092915050565b600080604083850312156145a4576145a36140a7565b5b600083013567ffffffffffffffff8111156145c2576145c16140ac565b5b6145ce8582860161455f565b92505060206145df858286016142cf565b9150509250929050565b60006020820190506145fe6000830184614324565b92915050565b7f4e487b7100000000000000000000000000000000000000000000000000000000600052602160045260246000fd5b6009811061464457614643614604565b5b50565b600081905061465582614633565b919050565b600061466582614647565b9050919050565b6146758161465a565b82525050565b600061014082019050614691600083018d6141aa565b61469e602083018c614324565b6146ab604083018b614324565b6146b8606083018a614324565b6146c56080830189614176565b6146d260a0830188614176565b6146df60c0830187614176565b6146ec60e0830186614176565b6146fa61010083018561466c565b614708610120830184614324565b9b9a5050505050505050505050565b6000819050919050565b600061473c61473761473284614286565b614717565b614286565b9050919050565b600061474e82614721565b9050919050565b600061476082614743565b9050919050565b61477081614755565b82525050565b600060208201905061478b6000830184614767565b92915050565b61479a816141a0565b82525050565b6147a9816142a6565b82525050565b6147b88161416c565b82525050565b6147c78161465a565b82525050565b610140820160008201516147e46000850182614791565b5060208201516147f760208501826147a0565b50604082015161480a60408501826147a0565b50606082015161481d60608501826147a0565b50608082015161483060808501826147af565b5060a082015161484360a08501826147af565b5060c082015161485660c08501826147af565b5060e082015161486960e08501826147af565b5061010082015161487e6101008501826147be565b506101208201516148936101208501826147a0565b50505050565b6000610140820190506148af60008301846147cd565b92915050565b600080604083850312156148cc576148cb6140a7565b5b60006148da858286016141eb565b92505060206148eb85828601614244565b9150509250929050565b600061490082614743565b9050919050565b614910816148f5565b82525050565b600060208201905061492b6000830184614907565b92915050565b60008060408385031215614948576149476140a7565b5b6000614956858286016142cf565b925050602061496785828601614244565b9150509250929050565b600061497c82614743565b9050919050565b61498c81614971565b82525050565b60006020820190506149a76000830184614983565b92915050565b600080600080608085870312156149c7576149c66140a7565b5b60006149d5878288016142cf565b94505060206149e687828801614244565b93505060406149f787828801614244565b9250506060614a08878288016142cf565b91505092959194509250565b600081519050919050565b600082825260208201905092915050565b6000819050602082019050919050565b6000614a4c8383614791565b60208301905092915050565b6000602082019050919050565b6000614a7082614a14565b614a7a8185614a1f565b9350614a8583614a30565b8060005b83811015614ab6578151614a9d8882614a40565b9750614aa883614a58565b925050600181019050614a89565b5085935050505092915050565b60006020820190508181036000830152614add8184614a65565b905092915050565b7f4e487b7100000000000000000000000000000000000000000000000000000000600052602260045260246000fd5b60006002820490506001821680614b2c57607f821691505b602082108103614b3f57614b3e614ae5565b5b50919050565b6000604082019050614b5a60008301856141aa565b614b676020830184614324565b9392505050565b614b7781614136565b8114614b8257600080fd5b50565b600081519050614b9481614b6e565b92915050565b600060208284031215614bb057614baf6140a7565b5b6000614bbe84828501614b85565b91505092915050565b6000604082019050614bdc6000830185614324565b614be96020830184614176565b9392505050565b7f4164647265737320496e76616c69640000000000000000000000000000000000600082015250565b6000614c26600f8361433e565b9150614c3182614bf0565b602082019050919050565b60006020820190508181036000830152614c5581614c19565b9050919050565b7f497473206e6f742052657461696c657200000000000000000000000000000000600082015250565b6000614c9260108361433e565b9150614c9d82614c5c565b602082019050919050565b60006020820190508181036000830152614cc181614c85565b9050919050565b7f556e617574686f72697a656420746f206d61726b20746869732062617463682060008201527f6173207265636569766564000000000000000000000000000000000000000000602082015250565b6000614d24602b8361433e565b9150614d2f82614cc8565b604082019050919050565b60006020820190508181036000830152614d5381614d17565b9050919050565b7f4d616e7566616374757265720000000000000000000000000000000000000000600082015250565b6000614d90600c8361433e565b9150614d9b82614d5a565b602082019050919050565b60006040820190508181036000830152614dbf81614d83565b9050614dce6020830184614324565b92915050565b7f52657461696c6572000000000000000000000000000000000000000000000000600082015250565b6000614e0a60088361433e565b9150614e1582614dd4565b602082019050919050565b60006040820190508181036000830152614e3981614dfd565b9050614e486020830184614324565b92915050565b7f4469737472696275746f72000000000000000000000000000000000000000000600082015250565b6000614e84600b8361433e565b9150614e8f82614e4e565b602082019050919050565b60006040820190508181036000830152614eb381614e77565b9050614ec26020830184614324565b92915050565b7f496e76616c696420707269636520666565642064617461000000000000000000600082015250565b6000614efe60178361433e565b9150614f0982614ec8565b602082019050919050565b60006020820190508181036000830152614f2d81614ef1565b9050919050565b7f4e487b7100000000000000000000000000000000000000000000000000000000600052601160045260246000fd5b6000614f6e8261416c565b9150614f798361416c565b9250828202614f878161416c565b91508282048414831517614f9e57614f9d614f34565b5b5092915050565b7f4e487b7100000000000000000000000000000000000000000000000000000000600052601260045260246000fd5b6000614fdf8261416c565b9150614fea8361416c565b925082614ffa57614ff9614fa5565b5b828204905092915050565b7f496e76616c696420726f6c65206e616d65000000000000000000000000000000600082015250565b600061503b60118361433e565b915061504682615005565b602082019050919050565b6000602082019050818103600083015261506a8161502e565b9050919050565b7f43616e6e6f7420667265657a6520746865207a65726f20616464726573730000600082015250565b60006150a7601e8361433e565b91506150b282615071565b602082019050919050565b600060208201905081810360008301526150d68161509a565b9050919050565b7f426174636820646f6573206e6f74206578697374000000000000000000000000600082015250565b600061511360148361433e565b915061511e826150dd565b602082019050919050565b6000602082019050818103600083015261514281615106565b9050919050565b7f497473206e6f74204469737472696275746f7200000000000000000000000000600082015250565b600061517f60138361433e565b915061518a82615149565b602082019050919050565b600060208201905081810360008301526151ae81615172565b9050919050565b7f4c6573732050726963652053656e740000000000000000000000000000000000600082015250565b60006151eb600f8361433e565b91506151f6826151b5565b602082019050919050565b6000602082019050818103600083015261521a816151de565b9050919050565b60006040820190506152366000830185614324565b6152436020830184614324565b9392505050565b600060808201905061525f6000830187614324565b61526c602083018661466c565b6152796040830185614176565b6152866060830184614176565b95945050505050565b7f43616e6e6f7420756e667265657a6520746865207a65726f2061646472657373600082015250565b60006152c560208361433e565b91506152d08261528f565b602082019050919050565b600060208201905081810360008301526152f4816152b8565b9050919050565b600069ffffffffffffffffffff82169050919050565b61531a816152fb565b811461532557600080fd5b50565b60008151905061533781615311565b92915050565b6000819050919050565b6153508161533d565b811461535b57600080fd5b50565b60008151905061536d81615347565b92915050565b6000815190506153828161422d565b92915050565b600080600080600060a086880312156153a4576153a36140a7565b5b60006153b288828901615328565b95505060206153c38882890161535e565b94505060406153d488828901615373565b93505060606153e588828901615373565b92505060806153f688828901615328565b9150509295509295909350565b7f426174636820697320616c72656164792070757263686173656420627920616e60008201527f6f74686572206469737472696275746f72000000000000000000000000000000602082015250565b600061545f60318361433e565b915061546a82615403565b604082019050919050565b6000602082019050818103600083015261548e81615452565b9050919050565b7f4261746368206973206e6f7420617661696c61626c6520666f7220707572636860008201527f617365206279204469737472696275746f720000000000000000000000000000602082015250565b60006154f160328361433e565b91506154fc82615495565b604082019050919050565b60006020820190508181036000830152615520816154e4565b9050919050565b7f4261746368206861732065787069726564000000000000000000000000000000600082015250565b600061555d60118361433e565b915061556882615527565b602082019050919050565b6000602082019050818103600083015261558c81615550565b9050919050565b7f496e73756666696369656e742050726963652053656e74000000000000000000600082015250565b60006155c960178361433e565b91506155d482615593565b602082019050919050565b600060208201905081810360008301526155f8816155bc565b9050919050565b7f50726f64756374207072696365206d757374206265206772656174657220746860008201527f616e207a65726f00000000000000000000000000000000000000000000000000602082015250565b600061565b60278361433e565b9150615666826155ff565b604082019050919050565b6000602082019050818103600083015261568a8161564e565b9050919050565b7f497473206e6f74204d616e756661637475726572000000000000000000000000600082015250565b60006156c760148361433e565b91506156d282615691565b602082019050919050565b600060208201905081810360008301526156f6816156ba565b9050919050565b7f4d616e7566616374757265722061646472657373206973206e6f74207265676960008201527f7374657265640000000000000000000000000000000000000000000000000000602082015250565b600061575960268361433e565b9150615764826156fd565b604082019050919050565b600060208201905081810360008301526157888161574c565b9050919050565b7f4d616e75666163747572657220616464726573732063616e6e6f74206265207a60008201527f65726f0000000000000000000000000000000000000000000000000000000000602082015250565b60006157eb60238361433e565b91506157f68261578f565b604082019050919050565b6000602082019050818103600083015261581a816157de565b9050919050565b7f4578706972792064617465206d75737420626520696e2074686520667574757260008201527f6500000000000000000000000000000000000000000000000000000000000000602082015250565b600061587d60218361433e565b915061588882615821565b604082019050919050565b600060208201905081810360008301526158ac81615870565b9050919050565b7f5072696365206d7573742062652067726561746572207468616e207a65726f00600082015250565b60006158e9601f8361433e565b91506158f4826158b3565b602082019050919050565b60006020820190508181036000830152615918816158dc565b9050919050565b600061592a8261416c565b91507fffffffffffffffffffffffffffffffffffffffffffffffffffffffffffffffff820361595c5761595b614f34565b5b600182019050919050565b60008160601b9050919050565b600061597f82615967565b9050919050565b600061599182615974565b9050919050565b6159a96159a4826142a6565b615986565b82525050565b6000819050919050565b6159ca6159c58261416c565b6159af565b82525050565b60006159dc8286615998565b6014820191506159ec82856159b9565b6020820191506159fc82846159b9565b602082019150819050949350505050565b7f426174636820697320616c72656164792070757263686173656420627920616e60008201527f6f746865722072657461696c6572000000000000000000000000000000000000602082015250565b6000615a69602e8361433e565b9150615a7482615a0d565b604082019050919050565b60006020820190508181036000830152615a9881615a5c565b9050919050565b7f4261746368206973206e6f7420617661696c61626c6520666f7220707572636860008201527f6173652062792052657461696c65720000000000000000000000000000000000602082015250565b6000615afb602f8361433e565b9150615b0682615a9f565b604082019050919050565b60006020820190508181036000830152615b2a81615aee565b9050919050565b7f5061796d656e74206d7573742062652067726561746572207468616e2070726f60008201527f6475637450726963650000000000000000000000000000000000000000000000602082015250565b6000615b8d60298361433e565b9150615b9882615b31565b604082019050919050565b60006020820190508181036000830152615bbc81615b80565b9050919050565b7f50726f64756374205072696365206973206e6f74207365740000000000000000600082015250565b6000615bf960188361433e565b9150615c0482615bc3565b602082019050919050565b60006020820190508181036000830152615c2881615bec565b9050919050565b6000604082019050615c446000830185614324565b615c5160208301846141aa565b939250505056fea26469706673582212204e7533451f8eee938c3d38ed557f6a3d43187124a1796b395782789e7dfcb36d64736f6c634300081c0033",
  "linkReferences": {},
  "deployedLinkReferences": {}
}