{
  "_format": "hh-sol-artifact-1",
  "contractName": "BasicMechanism",
  "sourceName": "contracts/BasicMechanism.sol",
  "abi": [
    {
      "inputs": [
        {
          "internalType": "address",
          "name": "priceFeedAddress",
          "type": "address"
        },
        {
          "internalType": "address",
          "name": "escrowAddress",
          "type": "address"
        },
        {
          "internalType": "address",
          "name": "handlingAddresses",
          "type": "address"
        }
      ],
      "stateMutability": "nonpayable",
      "type": "constructor"
    },
    {
      "inputs": [],
      "name": "AccessControlBadConfirmation",
      "type": "error"
    },
    {
      "inputs": [
        {
          "internalType": "address",
          "name": "account",
          "type": "address"
        },
        {
          "internalType": "bytes32",
          "name": "neededRole",
          "type": "bytes32"
        }
      ],
      "name": "AccessControlUnauthorizedAccount",
      "type": "error"
    },
    {
      "inputs": [
        {
          "internalType": "string",
          "name": "role",
          "type": "string"
        },
        {
          "internalType": "address",
          "name": "account",
          "type": "address"
        }
      ],
      "name": "AddressAlreadyExists",
      "type": "error"
    },
    {
      "inputs": [
        {
          "internalType": "address",
          "name": "account",
          "type": "address"
        }
      ],
      "name": "AddressInvalid",
      "type": "error"
    },
    {
      "inputs": [
        {
          "internalType": "uint256",
          "name": "_usdAmount",
          "type": "uint256"
        }
      ],
      "name": "InvalidAmount",
      "type": "error"
    },
    {
      "anonymous": false,
      "inputs": [
        {
          "indexed": false,
          "internalType": "address",
          "name": "account",
          "type": "address"
        }
      ],
      "name": "AddressFrozen",
      "type": "event"
    },
    {
      "anonymous": false,
      "inputs": [
        {
          "indexed": false,
          "internalType": "address",
          "name": "account",
          "type": "address"
        }
      ],
      "name": "AddressUnfrozen",
      "type": "event"
    },
    {
      "anonymous": false,
      "inputs": [
        {
          "indexed": true,
          "internalType": "bytes32",
          "name": "batchId",
          "type": "bytes32"
        },
        {
          "indexed": false,
          "internalType": "uint256",
          "name": "timestamp",
          "type": "uint256"
        }
      ],
      "name": "BatchCreated",
      "type": "event"
    },
    {
      "anonymous": false,
      "inputs": [
        {
          "indexed": true,
          "internalType": "bytes32",
          "name": "batchId",
          "type": "bytes32"
        },
        {
          "indexed": false,
          "internalType": "address",
          "name": "distributor",
          "type": "address"
        },
        {
          "indexed": false,
          "internalType": "enum DrugSupplyChain.BatchStatus",
          "name": "statusEnum",
          "type": "uint8"
        },
        {
          "indexed": false,
          "internalType": "uint256",
          "name": "price",
          "type": "uint256"
        },
        {
          "indexed": false,
          "internalType": "uint256",
          "name": "timestamp",
          "type": "uint256"
        }
      ],
      "name": "DistributerPurchased",
      "type": "event"
    },
    {
      "anonymous": false,
      "inputs": [
        {
          "indexed": true,
          "internalType": "bytes32",
          "name": "batchId",
          "type": "bytes32"
        },
        {
          "indexed": false,
          "internalType": "enum DrugSupplyChain.BatchStatus",
          "name": "statusEnum",
          "type": "uint8"
        },
        {
          "indexed": true,
          "internalType": "address",
          "name": "distributor",
          "type": "address"
        },
        {
          "indexed": false,
          "internalType": "uint256",
          "name": "price",
          "type": "uint256"
        },
        {
          "indexed": false,
          "internalType": "uint256",
          "name": "timestamp",
          "type": "uint256"
        },
        {
          "indexed": false,
          "internalType": "string",
          "name": "reason",
          "type": "string"
        }
      ],
      "name": "EligibleForResell",
      "type": "event"
    },
    {
      "anonymous": false,
      "inputs": [
        {
          "indexed": true,
          "internalType": "bytes32",
          "name": "batchId",
          "type": "bytes32"
        },
        {
          "indexed": true,
          "internalType": "address",
          "name": "to",
          "type": "address"
        },
        {
          "indexed": true,
          "internalType": "uint256",
          "name": "timestamp",
          "type": "uint256"
        },
        {
          "indexed": false,
          "internalType": "bool",
          "name": "refunded",
          "type": "bool"
        },
        {
          "indexed": false,
          "internalType": "string",
          "name": "reason",
          "type": "string"
        }
      ],
      "name": "Refunded",
      "type": "event"
    },
    {
      "anonymous": false,
      "inputs": [
        {
          "indexed": true,
          "internalType": "bytes32",
          "name": "batchId",
          "type": "bytes32"
        },
        {
          "indexed": true,
          "internalType": "address",
          "name": "requester",
          "type": "address"
        },
        {
          "indexed": true,
          "internalType": "uint256",
          "name": "timestamp",
          "type": "uint256"
        },
        {
          "indexed": false,
          "internalType": "bool",
          "name": "approved",
          "type": "bool"
        },
        {
          "indexed": false,
          "internalType": "string",
          "name": "reason",
          "type": "string"
        }
      ],
      "name": "RequestApproved",
      "type": "event"
    },
    {
      "anonymous": false,
      "inputs": [
        {
          "indexed": true,
          "internalType": "bytes32",
          "name": "batchId",
          "type": "bytes32"
        },
        {
          "indexed": false,
          "internalType": "enum DrugSupplyChain.BatchStatus",
          "name": "statusEnum",
          "type": "uint8"
        },
        {
          "indexed": true,
          "internalType": "address",
          "name": "distributor",
          "type": "address"
        },
        {
          "indexed": false,
          "internalType": "uint256",
          "name": "price",
          "type": "uint256"
        },
        {
          "indexed": false,
          "internalType": "uint256",
          "name": "timestamp",
          "type": "uint256"
        }
      ],
      "name": "ResellingDone",
      "type": "event"
    },
    {
      "anonymous": false,
      "inputs": [
        {
          "indexed": true,
          "internalType": "bytes32",
          "name": "batchId",
          "type": "bytes32"
        },
        {
          "indexed": false,
          "internalType": "address",
          "name": "retailer",
          "type": "address"
        },
        {
          "indexed": false,
          "internalType": "enum DrugSupplyChain.BatchStatus",
          "name": "statusEnum",
          "type": "uint8"
        },
        {
          "indexed": false,
          "internalType": "uint256",
          "name": "price",
          "type": "uint256"
        },
        {
          "indexed": false,
          "internalType": "uint256",
          "name": "timestamp",
          "type": "uint256"
        }
      ],
      "name": "RetailerPurchased",
      "type": "event"
    },
    {
      "anonymous": false,
      "inputs": [
        {
          "indexed": true,
          "internalType": "bytes32",
          "name": "batchId",
          "type": "bytes32"
        },
        {
          "indexed": true,
          "internalType": "uint256",
          "name": "timestamp",
          "type": "uint256"
        },
        {
          "indexed": true,
          "internalType": "address",
          "name": "requester",
          "type": "address"
        },
        {
          "indexed": false,
          "internalType": "bool",
          "name": "approved",
          "type": "bool"
        },
        {
          "indexed": false,
          "internalType": "bool",
          "name": "refunded",
          "type": "bool"
        },
        {
          "indexed": false,
          "internalType": "string",
          "name": "reason",
          "type": "string"
        }
      ],
      "name": "ReturnRequested",
      "type": "event"
    },
    {
      "anonymous": false,
      "inputs": [
        {
          "indexed": true,
          "internalType": "bytes32",
          "name": "role",
          "type": "bytes32"
        },
        {
          "indexed": true,
          "internalType": "bytes32",
          "name": "previousAdminRole",
          "type": "bytes32"
        },
        {
          "indexed": true,
          "internalType": "bytes32",
          "name": "newAdminRole",
          "type": "bytes32"
        }
      ],
      "name": "RoleAdminChanged",
      "type": "event"
    },
    {
      "anonymous": false,
      "inputs": [
        {
          "indexed": true,
          "internalType": "bytes32",
          "name": "role",
          "type": "bytes32"
        },
        {
          "indexed": true,
          "internalType": "address",
          "name": "account",
          "type": "address"
        },
        {
          "indexed": true,
          "internalType": "address",
          "name": "sender",
          "type": "address"
        }
      ],
      "name": "RoleGranted",
      "type": "event"
    },
    {
      "anonymous": false,
      "inputs": [
        {
          "indexed": true,
          "internalType": "bytes32",
          "name": "role",
          "type": "bytes32"
        },
        {
          "indexed": true,
          "internalType": "address",
          "name": "account",
          "type": "address"
        },
        {
          "indexed": true,
          "internalType": "address",
          "name": "sender",
          "type": "address"
        }
      ],
      "name": "RoleRevoked",
      "type": "event"
    },
    {
      "inputs": [],
      "name": "DEFAULT_ADMIN_ROLE",
      "outputs": [
        {
          "internalType": "bytes32",
          "name": "",
          "type": "bytes32"
        }
      ],
      "stateMutability": "view",
      "type": "function"
    },
    {
      "inputs": [],
      "name": "DISTRIBUTOR_ROLE",
      "outputs": [
        {
          "internalType": "bytes32",
          "name": "",
          "type": "bytes32"
        }
      ],
      "stateMutability": "view",
      "type": "function"
    },
    {
      "inputs": [],
      "name": "MANUFACTURER_ROLE",
      "outputs": [
        {
          "internalType": "bytes32",
          "name": "",
          "type": "bytes32"
        }
      ],
      "stateMutability": "view",
      "type": "function"
    },
    {
      "inputs": [],
      "name": "RETAILER_ROLE",
      "outputs": [
        {
          "internalType": "bytes32",
          "name": "",
          "type": "bytes32"
        }
      ],
      "stateMutability": "view",
      "type": "function"
    },
    {
      "inputs": [
        {
          "internalType": "address",
          "name": "distributor",
          "type": "address"
        }
      ],
      "name": "addDistributor",
      "outputs": [],
      "stateMutability": "nonpayable",
      "type": "function"
    },
    {
      "inputs": [
        {
          "internalType": "address",
          "name": "manufacturer",
          "type": "address"
        }
      ],
      "name": "addManufacturer",
      "outputs": [],
      "stateMutability": "nonpayable",
      "type": "function"
    },
    {
      "inputs": [
        {
          "internalType": "address",
          "name": "retailer",
          "type": "address"
        }
      ],
      "name": "addRetailer",
      "outputs": [],
      "stateMutability": "nonpayable",
      "type": "function"
    },
    {
      "inputs": [
        {
          "internalType": "uint256",
          "name": "",
          "type": "uint256"
        }
      ],
      "name": "allBatchIds",
      "outputs": [
        {
          "internalType": "bytes32",
          "name": "",
          "type": "bytes32"
        }
      ],
      "stateMutability": "view",
      "type": "function"
    },
    {
      "inputs": [],
      "name": "batchCount",
      "outputs": [
        {
          "internalType": "uint256",
          "name": "",
          "type": "uint256"
        }
      ],
      "stateMutability": "view",
      "type": "function"
    },
    {
      "inputs": [
        {
          "internalType": "address",
          "name": "",
          "type": "address"
        }
      ],
      "name": "batchCounter",
      "outputs": [
        {
          "internalType": "uint256",
          "name": "",
          "type": "uint256"
        }
      ],
      "stateMutability": "view",
      "type": "function"
    },
    {
      "inputs": [
        {
          "internalType": "bytes32",
          "name": "",
          "type": "bytes32"
        }
      ],
      "name": "batchIdToBatch",
      "outputs": [
        {
          "internalType": "bytes32",
          "name": "batchId",
          "type": "bytes32"
        },
        {
          "internalType": "address",
          "name": "manufacturer",
          "type": "address"
        },
        {
          "internalType": "address",
          "name": "distributor",
          "type": "address"
        },
        {
          "internalType": "address",
          "name": "retailer",
          "type": "address"
        },
        {
          "internalType": "uint256",
          "name": "expiryDate",
          "type": "uint256"
        },
        {
          "internalType": "uint256",
          "name": "timestamp",
          "type": "uint256"
        },
        {
          "internalType": "uint256",
          "name": "price",
          "type": "uint256"
        },
        {
          "internalType": "uint256",
          "name": "productPrice",
          "type": "uint256"
        },
        {
          "internalType": "enum DrugSupplyChain.BatchStatus",
          "name": "statusEnum",
          "type": "uint8"
        },
        {
          "internalType": "address",
          "name": "ipfsHash",
          "type": "address"
        }
      ],
      "stateMutability": "view",
      "type": "function"
    },
    {
      "inputs": [
        {
          "internalType": "bytes32",
          "name": "_batchId",
          "type": "bytes32"
        }
      ],
      "name": "batchReceivedDistributor",
      "outputs": [],
      "stateMutability": "nonpayable",
      "type": "function"
    },
    {
      "inputs": [
        {
          "internalType": "bytes32",
          "name": "_batchId",
          "type": "bytes32"
        }
      ],
      "name": "batchReceivedRetailer",
      "outputs": [],
      "stateMutability": "payable",
      "type": "function"
    },
    {
      "inputs": [
        {
          "internalType": "bytes32",
          "name": "_batchId",
          "type": "bytes32"
        },
        {
          "internalType": "uint256",
          "name": "_productPrice",
          "type": "uint256"
        }
      ],
      "name": "buyBatchDistributor",
      "outputs": [],
      "stateMutability": "payable",
      "type": "function"
    },
    {
      "inputs": [
        {
          "internalType": "bytes32",
          "name": "_batchId",
          "type": "bytes32"
        }
      ],
      "name": "buyBatchRetailer",
      "outputs": [],
      "stateMutability": "payable",
      "type": "function"
    },
    {
      "inputs": [
        {
          "internalType": "string",
          "name": "roleName",
          "type": "string"
        },
        {
          "internalType": "address",
          "name": "account",
          "type": "address"
        }
      ],
      "name": "checkRole",
      "outputs": [
        {
          "internalType": "bool",
          "name": "",
          "type": "bool"
        }
      ],
      "stateMutability": "view",
      "type": "function"
    },
    {
      "inputs": [
        {
          "internalType": "address",
          "name": "manufacturer",
          "type": "address"
        },
        {
          "internalType": "uint256",
          "name": "expiryDate",
          "type": "uint256"
        },
        {
          "internalType": "uint256",
          "name": "price",
          "type": "uint256"
        },
        {
          "internalType": "address",
          "name": "ipfsHash",
          "type": "address"
        }
      ],
      "name": "createBatch",
      "outputs": [
        {
          "components": [
            {
              "internalType": "bytes32",
              "name": "batchId",
              "type": "bytes32"
            },
            {
              "internalType": "address",
              "name": "manufacturer",
              "type": "address"
            },
            {
              "internalType": "address",
              "name": "distributor",
              "type": "address"
            },
            {
              "internalType": "address",
              "name": "retailer",
              "type": "address"
            },
            {
              "internalType": "uint256",
              "name": "expiryDate",
              "type": "uint256"
            },
            {
              "internalType": "uint256",
              "name": "timestamp",
              "type": "uint256"
            },
            {
              "internalType": "uint256",
              "name": "price",
              "type": "uint256"
            },
            {
              "internalType": "uint256",
              "name": "productPrice",
              "type": "uint256"
            },
            {
              "internalType": "enum DrugSupplyChain.BatchStatus",
              "name": "statusEnum",
              "type": "uint8"
            },
            {
              "internalType": "address",
              "name": "ipfsHash",
              "type": "address"
            }
          ],
          "internalType": "struct DrugSupplyChain.Batch",
          "name": "",
          "type": "tuple"
        }
      ],
      "stateMutability": "nonpayable",
      "type": "function"
    },
    {
      "inputs": [],
      "name": "dataFeed",
      "outputs": [
        {
          "internalType": "contract AggregatorV3Interface",
          "name": "",
          "type": "address"
        }
      ],
      "stateMutability": "view",
      "type": "function"
    },
    {
      "inputs": [],
      "name": "escrowContract",
      "outputs": [
        {
          "internalType": "contract Escrow",
          "name": "",
          "type": "address"
        }
      ],
      "stateMutability": "view",
      "type": "function"
    },
    {
      "inputs": [
        {
          "internalType": "address",
          "name": "account",
          "type": "address"
        }
      ],
      "name": "frozeAddress",
      "outputs": [],
      "stateMutability": "nonpayable",
      "type": "function"
    },
    {
      "inputs": [
        {
          "internalType": "bytes32",
          "name": "_batchId",
          "type": "bytes32"
        }
      ],
      "name": "getBatchDetails",
      "outputs": [
        {
          "components": [
            {
              "internalType": "bytes32",
              "name": "batchId",
              "type": "bytes32"
            },
            {
              "internalType": "address",
              "name": "manufacturer",
              "type": "address"
            },
            {
              "internalType": "address",
              "name": "distributor",
              "type": "address"
            },
            {
              "internalType": "address",
              "name": "retailer",
              "type": "address"
            },
            {
              "internalType": "uint256",
              "name": "expiryDate",
              "type": "uint256"
            },
            {
              "internalType": "uint256",
              "name": "timestamp",
              "type": "uint256"
            },
            {
              "internalType": "uint256",
              "name": "price",
              "type": "uint256"
            },
            {
              "internalType": "uint256",
              "name": "productPrice",
              "type": "uint256"
            },
            {
              "internalType": "enum DrugSupplyChain.BatchStatus",
              "name": "statusEnum",
              "type": "uint8"
            },
            {
              "internalType": "address",
              "name": "ipfsHash",
              "type": "address"
            }
          ],
          "internalType": "struct DrugSupplyChain.Batch",
          "name": "",
          "type": "tuple"
        }
      ],
      "stateMutability": "view",
      "type": "function"
    },
    {
      "inputs": [
        {
          "internalType": "bytes32",
          "name": "_batchId",
          "type": "bytes32"
        }
      ],
      "name": "getIpfsHash",
      "outputs": [
        {
          "internalType": "address",
          "name": "",
          "type": "address"
        }
      ],
      "stateMutability": "view",
      "type": "function"
    },
    {
      "inputs": [
        {
          "internalType": "bytes32",
          "name": "role",
          "type": "bytes32"
        }
      ],
      "name": "getRoleAdmin",
      "outputs": [
        {
          "internalType": "bytes32",
          "name": "",
          "type": "bytes32"
        }
      ],
      "stateMutability": "view",
      "type": "function"
    },
    {
      "inputs": [
        {
          "internalType": "bytes32",
          "name": "role",
          "type": "bytes32"
        },
        {
          "internalType": "address",
          "name": "account",
          "type": "address"
        }
      ],
      "name": "grantRole",
      "outputs": [],
      "stateMutability": "nonpayable",
      "type": "function"
    },
    {
      "inputs": [],
      "name": "handlingAddresses",
      "outputs": [
        {
          "internalType": "contract HandlingAddresses",
          "name": "",
          "type": "address"
        }
      ],
      "stateMutability": "view",
      "type": "function"
    },
    {
      "inputs": [
        {
          "internalType": "bytes32",
          "name": "role",
          "type": "bytes32"
        },
        {
          "internalType": "address",
          "name": "account",
          "type": "address"
        }
      ],
      "name": "hasRole",
      "outputs": [
        {
          "internalType": "bool",
          "name": "",
          "type": "bool"
        }
      ],
      "stateMutability": "view",
      "type": "function"
    },
    {
      "inputs": [
        {
          "internalType": "address",
          "name": "",
          "type": "address"
        }
      ],
      "name": "isFrozen",
      "outputs": [
        {
          "internalType": "bool",
          "name": "",
          "type": "bool"
        }
      ],
      "stateMutability": "view",
      "type": "function"
    },
    {
      "inputs": [],
      "name": "owner",
      "outputs": [
        {
          "internalType": "address",
          "name": "",
          "type": "address"
        }
      ],
      "stateMutability": "view",
      "type": "function"
    },
    {
      "inputs": [
        {
          "internalType": "address",
          "name": "",
          "type": "address"
        },
        {
          "internalType": "uint256",
          "name": "",
          "type": "uint256"
        }
      ],
      "name": "ownerToBatches",
      "outputs": [
        {
          "internalType": "bytes32",
          "name": "",
          "type": "bytes32"
        }
      ],
      "stateMutability": "view",
      "type": "function"
    },
    {
      "inputs": [
        {
          "internalType": "uint256",
          "name": "",
          "type": "uint256"
        }
      ],
      "name": "pendingRequests",
      "outputs": [
        {
          "internalType": "bytes32",
          "name": "batchId",
          "type": "bytes32"
        },
        {
          "internalType": "uint256",
          "name": "timestamp",
          "type": "uint256"
        },
        {
          "internalType": "address",
          "name": "requester",
          "type": "address"
        },
        {
          "internalType": "bool",
          "name": "refunded",
          "type": "bool"
        },
        {
          "internalType": "bool",
          "name": "approved",
          "type": "bool"
        },
        {
          "internalType": "string",
          "name": "reason",
          "type": "string"
        }
      ],
      "stateMutability": "view",
      "type": "function"
    },
    {
      "inputs": [
        {
          "internalType": "address",
          "name": "distributor",
          "type": "address"
        }
      ],
      "name": "removeDistributor",
      "outputs": [],
      "stateMutability": "nonpayable",
      "type": "function"
    },
    {
      "inputs": [
        {
          "internalType": "address",
          "name": "manufacturer",
          "type": "address"
        }
      ],
      "name": "removeManufacturer",
      "outputs": [],
      "stateMutability": "nonpayable",
      "type": "function"
    },
    {
      "inputs": [
        {
          "internalType": "address",
          "name": "retailer",
          "type": "address"
        }
      ],
      "name": "removeRetailer",
      "outputs": [],
      "stateMutability": "nonpayable",
      "type": "function"
    },
    {
      "inputs": [
        {
          "internalType": "bytes32",
          "name": "role",
          "type": "bytes32"
        },
        {
          "internalType": "address",
          "name": "callerConfirmation",
          "type": "address"
        }
      ],
      "name": "renounceRole",
      "outputs": [],
      "stateMutability": "nonpayable",
      "type": "function"
    },
    {
      "inputs": [
        {
          "internalType": "bytes32",
          "name": "",
          "type": "bytes32"
        }
      ],
      "name": "returnRequests",
      "outputs": [
        {
          "internalType": "bytes32",
          "name": "batchId",
          "type": "bytes32"
        },
        {
          "internalType": "uint256",
          "name": "timestamp",
          "type": "uint256"
        },
        {
          "internalType": "address",
          "name": "requester",
          "type": "address"
        },
        {
          "internalType": "bool",
          "name": "refunded",
          "type": "bool"
        },
        {
          "internalType": "bool",
          "name": "approved",
          "type": "bool"
        },
        {
          "internalType": "string",
          "name": "reason",
          "type": "string"
        }
      ],
      "stateMutability": "view",
      "type": "function"
    },
    {
      "inputs": [
        {
          "internalType": "bytes32",
          "name": "role",
          "type": "bytes32"
        },
        {
          "internalType": "address",
          "name": "account",
          "type": "address"
        }
      ],
      "name": "revokeRole",
      "outputs": [],
      "stateMutability": "nonpayable",
      "type": "function"
    },
    {
      "inputs": [
        {
          "internalType": "bytes4",
          "name": "interfaceId",
          "type": "bytes4"
        }
      ],
      "name": "supportsInterface",
      "outputs": [
        {
          "internalType": "bool",
          "name": "",
          "type": "bool"
        }
      ],
      "stateMutability": "view",
      "type": "function"
    },
    {
      "inputs": [
        {
          "internalType": "address",
          "name": "account",
          "type": "address"
        }
      ],
      "name": "unfreezeAddress",
      "outputs": [],
      "stateMutability": "nonpayable",
      "type": "function"
    },
    {
      "inputs": [],
      "name": "withdraw",
      "outputs": [],
      "stateMutability": "nonpayable",
      "type": "function"
    }
  ],
  "bytecode": "0x608060405234801561001057600080fd5b50604051615aa6380380615aa68339818101604052810190610032919061032a565b8282826100486000801b3361015860201b60201c565b5033600c60006101000a81548173ffffffffffffffffffffffffffffffffffffffff021916908373ffffffffffffffffffffffffffffffffffffffff16021790555081600a60006101000a81548173ffffffffffffffffffffffffffffffffffffffff021916908373ffffffffffffffffffffffffffffffffffffffff16021790555082600960006101000a81548173ffffffffffffffffffffffffffffffffffffffff021916908373ffffffffffffffffffffffffffffffffffffffff16021790555080600b60006101000a81548173ffffffffffffffffffffffffffffffffffffffff021916908373ffffffffffffffffffffffffffffffffffffffff16021790555050505050505061037d565b600061016a838361025560201b60201c565b61024a57600160008085815260200190815260200160002060000160008473ffffffffffffffffffffffffffffffffffffffff1673ffffffffffffffffffffffffffffffffffffffff16815260200190815260200160002060006101000a81548160ff0219169083151502179055506101e76102bf60201b60201c565b73ffffffffffffffffffffffffffffffffffffffff168273ffffffffffffffffffffffffffffffffffffffff16847f2f8788117e7eff1d82e926ec794901d17c78024a50270940304540a733656f0d60405160405180910390a46001905061024f565b600090505b92915050565b600080600084815260200190815260200160002060000160008373ffffffffffffffffffffffffffffffffffffffff1673ffffffffffffffffffffffffffffffffffffffff16815260200190815260200160002060009054906101000a900460ff16905092915050565b600033905090565b600080fd5b600073ffffffffffffffffffffffffffffffffffffffff82169050919050565b60006102f7826102cc565b9050919050565b610307816102ec565b811461031257600080fd5b50565b600081519050610324816102fe565b92915050565b600080600060608486031215610343576103426102c7565b5b600061035186828701610315565b935050602061036286828701610315565b925050604061037386828701610315565b9150509250925092565b61571a8061038c6000396000f3fe6080604052600436106102305760003560e01c806391d148541161012e578063bfb80547116100ab578063e477a26c1161006f578063e477a26c1461087a578063e5839836146108b7578063e94a741e146108f4578063eb1fbf1514610910578063f0bd87cc1461094d57610230565b8063bfb8054714610795578063c1c460a6146107be578063cf30c705146107e9578063d547741f14610826578063e42a96e71461084f57610230565b80639fb65529116100f25780639fb65529146106a6578063a217fddf146106e8578063b21a7b3e14610713578063b26c196a14610750578063b75746ab1461077957610230565b806391d14854146105a4578063965288b0146105e157806399fd9cfb1461060c5780639de7c3b7146106355780639e42ff901461067b57610230565b80634e4fddb0116101bc57806370099ec81161018057806370099ec8146104c15780637026fe9c146104ea5780637250e224146105275780638da5cb5b146105505780638ec4f5051461057b57610230565b80634e4fddb0146103ed57806357c1f9e2146104095780635f8a5afa146104325780636a0f9f701461045b5780636a75323f1461049857610230565b8063290b17ec11610203578063290b17ec146103055780632f2ff15d1461034257806336568abe1461036b5780633c652a9a146103945780633ccfd60b146103d657610230565b806301ffc9a71461023557806306f13056146102725780632115e7bf1461029d578063248a9ca3146102c8575b600080fd5b34801561024157600080fd5b5061025c60048036038101906102579190613e7c565b610978565b6040516102699190613ec4565b60405180910390f35b34801561027e57600080fd5b506102876109f2565b6040516102949190613ef8565b60405180910390f35b3480156102a957600080fd5b506102b26109f8565b6040516102bf9190613f2c565b60405180910390f35b3480156102d457600080fd5b506102ef60048036038101906102ea9190613f73565b610a1c565b6040516102fc9190613f2c565b60405180910390f35b34801561031157600080fd5b5061032c60048036038101906103279190613fcc565b610a3b565b6040516103399190613f2c565b60405180910390f35b34801561034e57600080fd5b5061036960048036038101906103649190614057565b610a5f565b005b34801561037757600080fd5b50610392600480360381019061038d9190614057565b610a81565b005b3480156103a057600080fd5b506103bb60048036038101906103b69190613fcc565b610afc565b6040516103cd96959493929190614136565b60405180910390f35b3480156103e257600080fd5b506103eb610c0a565b005b61040760048036038101906104029190613f73565b610d3d565b005b34801561041557600080fd5b50610430600480360381019061042b919061419e565b61108c565b005b34801561043e57600080fd5b506104596004803603810190610454919061419e565b6110c7565b005b34801561046757600080fd5b50610482600480360381019061047d919061419e565b6112b7565b60405161048f9190613ef8565b60405180910390f35b3480156104a457600080fd5b506104bf60048036038101906104ba919061419e565b6112cf565b005b3480156104cd57600080fd5b506104e860048036038101906104e3919061419e565b61130a565b005b3480156104f657600080fd5b50610511600480360381019061050c9190614300565b611345565b60405161051e9190613ec4565b60405180910390f35b34801561053357600080fd5b5061054e6004803603810190610549919061419e565b61149a565b005b34801561055c57600080fd5b5061056561168a565b604051610572919061435c565b60405180910390f35b34801561058757600080fd5b506105a2600480360381019061059d919061419e565b6116b0565b005b3480156105b057600080fd5b506105cb60048036038101906105c69190614057565b6118a0565b6040516105d89190613ec4565b60405180910390f35b3480156105ed57600080fd5b506105f661190a565b6040516106039190613f2c565b60405180910390f35b34801561061857600080fd5b50610633600480360381019061062e919061419e565b61192e565b005b34801561064157600080fd5b5061065c60048036038101906106579190613f73565b611abd565b6040516106729a999897969594939291906143ee565b60405180910390f35b34801561068757600080fd5b50610690611b9e565b60405161069d91906144e9565b60405180910390f35b3480156106b257600080fd5b506106cd60048036038101906106c89190613f73565b611bc4565b6040516106df96959493929190614136565b60405180910390f35b3480156106f457600080fd5b506106fd611cc2565b60405161070a9190613f2c565b60405180910390f35b34801561071f57600080fd5b5061073a60048036038101906107359190613f73565b611cc9565b604051610747919061460c565b60405180910390f35b34801561075c57600080fd5b5061077760048036038101906107729190613f73565b611f17565b005b610793600480360381019061078e9190614628565b612267565b005b3480156107a157600080fd5b506107bc60048036038101906107b7919061419e565b612614565b005b3480156107ca57600080fd5b506107d3612723565b6040516107e09190614689565b60405180910390f35b3480156107f557600080fd5b50610810600480360381019061080b91906146a4565b612749565b60405161081d9190613f2c565b60405180910390f35b34801561083257600080fd5b5061084d60048036038101906108489190614057565b61277a565b005b34801561085b57600080fd5b5061086461279c565b6040516108719190614705565b60405180910390f35b34801561088657600080fd5b506108a1600480360381019061089c9190614720565b6127c2565b6040516108ae919061460c565b60405180910390f35b3480156108c357600080fd5b506108de60048036038101906108d9919061419e565b61287e565b6040516108eb9190613ec4565b60405180910390f35b61090e60048036038101906109099190613f73565b61289e565b005b34801561091c57600080fd5b5061093760048036038101906109329190613f73565b612bd4565b604051610944919061435c565b60405180910390f35b34801561095957600080fd5b50610962612c6f565b60405161096f9190613f2c565b60405180910390f35b60007f7965db0b000000000000000000000000000000000000000000000000000000007bffffffffffffffffffffffffffffffffffffffffffffffffffffffff1916827bffffffffffffffffffffffffffffffffffffffffffffffffffffffff191614806109eb57506109ea82612c93565b5b9050919050565b60085481565b7f2a5f906c256a5d799494fcd066e1f6c077689de1cdb65052a1624de4bace99bf81565b6000806000838152602001908152602001600020600101549050919050565b60078181548110610a4b57600080fd5b906000526020600020016000915090505481565b610a6882610a1c565b610a7181612cfd565b610a7b8383612d11565b50505050565b610a89612e02565b73ffffffffffffffffffffffffffffffffffffffff168173ffffffffffffffffffffffffffffffffffffffff1614610aed576040517f6697b23200000000000000000000000000000000000000000000000000000000815260040160405180910390fd5b610af78282612e0a565b505050565b60068181548110610b0c57600080fd5b90600052602060002090600402016000915090508060000154908060010154908060020160009054906101000a900473ffffffffffffffffffffffffffffffffffffffff16908060020160149054906101000a900460ff16908060020160159054906101000a900460ff1690806003018054610b87906147b6565b80601f0160208091040260200160405190810160405280929190818152602001828054610bb3906147b6565b8015610c005780601f10610bd557610100808354040283529160200191610c00565b820191906000526020600020905b815481529060010190602001808311610be357829003601f168201915b5050505050905086565b600b60009054906101000a900473ffffffffffffffffffffffffffffffffffffffff1673ffffffffffffffffffffffffffffffffffffffff166391d148546000801b336040518363ffffffff1660e01b8152600401610c6a9291906147e7565b602060405180830381865afa158015610c87573d6000803e3d6000fd5b505050506040513d601f19601f82011682018060405250810190610cab919061483c565b50600a60009054906101000a900473ffffffffffffffffffffffffffffffffffffffff1673ffffffffffffffffffffffffffffffffffffffff16630357371d33476040518363ffffffff1660e01b8152600401610d09929190614869565b600060405180830381600087803b158015610d2357600080fd5b505af1158015610d37573d6000803e3d6000fd5b50505050565b600160003373ffffffffffffffffffffffffffffffffffffffff1673ffffffffffffffffffffffffffffffffffffffff16815260200190815260200160002060009054906101000a900460ff1615610dca576040517f08c379a0000000000000000000000000000000000000000000000000000000008152600401610dc1906148de565b60405180910390fd5b600b60009054906101000a900473ffffffffffffffffffffffffffffffffffffffff1673ffffffffffffffffffffffffffffffffffffffff166391d148547f2a5f906c256a5d799494fcd066e1f6c077689de1cdb65052a1624de4bace99bf336040518363ffffffff1660e01b8152600401610e479291906147e7565b602060405180830381865afa158015610e64573d6000803e3d6000fd5b505050506040513d601f19601f82011682018060405250810190610e88919061483c565b610ec7576040517f08c379a0000000000000000000000000000000000000000000000000000000008152600401610ebe9061494a565b60405180910390fd5b3373ffffffffffffffffffffffffffffffffffffffff166003600083815260200190815260200160002060030160009054906101000a900473ffffffffffffffffffffffffffffffffffffffff1673ffffffffffffffffffffffffffffffffffffffff160361104e57600380600083815260200190815260200160002060080160006101000a81548160ff02191690836008811115610f6957610f68614377565b5b0217905550600a60009054906101000a900473ffffffffffffffffffffffffffffffffffffffff1673ffffffffffffffffffffffffffffffffffffffff16630357371d6003600084815260200190815260200160002060020160009054906101000a900473ffffffffffffffffffffffffffffffffffffffff1660036000858152602001908152602001600020600701546040518363ffffffff1660e01b8152600401611017929190614869565b600060405180830381600087803b15801561103157600080fd5b505af1158015611045573d6000803e3d6000fd5b50505050611089565b6040517f08c379a0000000000000000000000000000000000000000000000000000000008152600401611080906149dc565b60405180910390fd5b50565b6000801b61109981612cfd565b6110c37ffbd454f36a7e1a388bd6fc3ab10d434aa4578f811acbbcf33afb1c697486313c8361277a565b5050565b6000801b6110d481612cfd565b816110ff7feefb95e842a3287179d933b4460be539a1d5af11aa8b325bb45c5c8dc92de4ed826118a0565b1561114157806040517f375795b90000000000000000000000000000000000000000000000000000000081526004016111389190614a48565b60405180910390fd5b61116b7f2a5f906c256a5d799494fcd066e1f6c077689de1cdb65052a1624de4bace99bf826118a0565b156111ad57806040517f375795b90000000000000000000000000000000000000000000000000000000081526004016111a49190614ac2565b60405180910390fd5b6111d77ffbd454f36a7e1a388bd6fc3ab10d434aa4578f811acbbcf33afb1c697486313c826118a0565b1561121957806040517f375795b90000000000000000000000000000000000000000000000000000000081526004016112109190614b3c565b60405180910390fd5b600073ffffffffffffffffffffffffffffffffffffffff168173ffffffffffffffffffffffffffffffffffffffff1603611288576040517f08c379a000000000000000000000000000000000000000000000000000000000815260040161127f906148de565b60405180910390fd5b6112b27feefb95e842a3287179d933b4460be539a1d5af11aa8b325bb45c5c8dc92de4ed84610a5f565b505050565b60026020528060005260406000206000915090505481565b6000801b6112dc81612cfd565b6113067feefb95e842a3287179d933b4460be539a1d5af11aa8b325bb45c5c8dc92de4ed8361277a565b5050565b6000801b61131781612cfd565b6113417f2a5f906c256a5d799494fcd066e1f6c077689de1cdb65052a1624de4bace99bf8361277a565b5050565b6000807feefb95e842a3287179d933b4460be539a1d5af11aa8b325bb45c5c8dc92de4ed84805190602001200361139e577feefb95e842a3287179d933b4460be539a1d5af11aa8b325bb45c5c8dc92de4ed9050611487565b7ffbd454f36a7e1a388bd6fc3ab10d434aa4578f811acbbcf33afb1c697486313c8480519060200120036113f4577ffbd454f36a7e1a388bd6fc3ab10d434aa4578f811acbbcf33afb1c697486313c9050611486565b7f2a5f906c256a5d799494fcd066e1f6c077689de1cdb65052a1624de4bace99bf84805190602001200361144a577f2a5f906c256a5d799494fcd066e1f6c077689de1cdb65052a1624de4bace99bf9050611485565b6040517f08c379a000000000000000000000000000000000000000000000000000000000815260040161147c90614bb6565b60405180910390fd5b5b5b61149181846118a0565b91505092915050565b6000801b6114a781612cfd565b816114d27feefb95e842a3287179d933b4460be539a1d5af11aa8b325bb45c5c8dc92de4ed826118a0565b1561151457806040517f375795b900000000000000000000000000000000000000000000000000000000815260040161150b9190614a48565b60405180910390fd5b61153e7f2a5f906c256a5d799494fcd066e1f6c077689de1cdb65052a1624de4bace99bf826118a0565b1561158057806040517f375795b90000000000000000000000000000000000000000000000000000000081526004016115779190614ac2565b60405180910390fd5b6115aa7ffbd454f36a7e1a388bd6fc3ab10d434aa4578f811acbbcf33afb1c697486313c826118a0565b156115ec57806040517f375795b90000000000000000000000000000000000000000000000000000000081526004016115e39190614b3c565b60405180910390fd5b600073ffffffffffffffffffffffffffffffffffffffff168173ffffffffffffffffffffffffffffffffffffffff160361165b576040517f08c379a0000000000000000000000000000000000000000000000000000000008152600401611652906148de565b60405180910390fd5b6116857ffbd454f36a7e1a388bd6fc3ab10d434aa4578f811acbbcf33afb1c697486313c84610a5f565b505050565b600c60009054906101000a900473ffffffffffffffffffffffffffffffffffffffff1681565b6000801b6116bd81612cfd565b816116e87feefb95e842a3287179d933b4460be539a1d5af11aa8b325bb45c5c8dc92de4ed826118a0565b1561172a57806040517f375795b90000000000000000000000000000000000000000000000000000000081526004016117219190614a48565b60405180910390fd5b6117547f2a5f906c256a5d799494fcd066e1f6c077689de1cdb65052a1624de4bace99bf826118a0565b1561179657806040517f375795b900000000000000000000000000000000000000000000000000000000815260040161178d9190614ac2565b60405180910390fd5b6117c07ffbd454f36a7e1a388bd6fc3ab10d434aa4578f811acbbcf33afb1c697486313c826118a0565b1561180257806040517f375795b90000000000000000000000000000000000000000000000000000000081526004016117f99190614b3c565b60405180910390fd5b600073ffffffffffffffffffffffffffffffffffffffff168173ffffffffffffffffffffffffffffffffffffffff1603611871576040517f08c379a0000000000000000000000000000000000000000000000000000000008152600401611868906148de565b60405180910390fd5b61189b7f2a5f906c256a5d799494fcd066e1f6c077689de1cdb65052a1624de4bace99bf84610a5f565b505050565b600080600084815260200190815260200160002060000160008373ffffffffffffffffffffffffffffffffffffffff1673ffffffffffffffffffffffffffffffffffffffff16815260200190815260200160002060009054906101000a900460ff16905092915050565b7feefb95e842a3287179d933b4460be539a1d5af11aa8b325bb45c5c8dc92de4ed81565b6000801b61193b81612cfd565b600073ffffffffffffffffffffffffffffffffffffffff168273ffffffffffffffffffffffffffffffffffffffff16036119aa576040517f08c379a00000000000000000000000000000000000000000000000000000000081526004016119a190614c22565b60405180910390fd5b60018060008473ffffffffffffffffffffffffffffffffffffffff1673ffffffffffffffffffffffffffffffffffffffff16815260200190815260200160002060006101000a81548160ff021916908315150217905550611a2b7feefb95e842a3287179d933b4460be539a1d5af11aa8b325bb45c5c8dc92de4ed83612e0a565b50611a567ffbd454f36a7e1a388bd6fc3ab10d434aa4578f811acbbcf33afb1c697486313c83612e0a565b50611a817f2a5f906c256a5d799494fcd066e1f6c077689de1cdb65052a1624de4bace99bf83612e0a565b507f90811a8edd3b3c17eeaefffc17f639cc69145d41a359c9843994dc253820369082604051611ab1919061435c565b60405180910390a15050565b60036020528060005260406000206000915090508060000154908060010160009054906101000a900473ffffffffffffffffffffffffffffffffffffffff16908060020160009054906101000a900473ffffffffffffffffffffffffffffffffffffffff16908060030160009054906101000a900473ffffffffffffffffffffffffffffffffffffffff16908060040154908060050154908060060154908060070154908060080160009054906101000a900460ff16908060080160019054906101000a900473ffffffffffffffffffffffffffffffffffffffff1690508a565b600960009054906101000a900473ffffffffffffffffffffffffffffffffffffffff1681565b60046020528060005260406000206000915090508060000154908060010154908060020160009054906101000a900473ffffffffffffffffffffffffffffffffffffffff16908060020160149054906101000a900460ff16908060020160159054906101000a900460ff1690806003018054611c3f906147b6565b80601f0160208091040260200160405190810160405280929190818152602001828054611c6b906147b6565b8015611cb85780601f10611c8d57610100808354040283529160200191611cb8565b820191906000526020600020905b815481529060010190602001808311611c9b57829003601f168201915b5050505050905086565b6000801b81565b611cd1613d50565b6000801b600360008481526020019081526020016000206000015403611d2c576040517f08c379a0000000000000000000000000000000000000000000000000000000008152600401611d2390614c8e565b60405180910390fd5b6003600083815260200190815260200160002060405180610140016040529081600082015481526020016001820160009054906101000a900473ffffffffffffffffffffffffffffffffffffffff1673ffffffffffffffffffffffffffffffffffffffff1673ffffffffffffffffffffffffffffffffffffffff1681526020016002820160009054906101000a900473ffffffffffffffffffffffffffffffffffffffff1673ffffffffffffffffffffffffffffffffffffffff1673ffffffffffffffffffffffffffffffffffffffff1681526020016003820160009054906101000a900473ffffffffffffffffffffffffffffffffffffffff1673ffffffffffffffffffffffffffffffffffffffff1673ffffffffffffffffffffffffffffffffffffffff168152602001600482015481526020016005820154815260200160068201548152602001600782015481526020016008820160009054906101000a900460ff166008811115611ea457611ea3614377565b5b6008811115611eb657611eb5614377565b5b81526020016008820160019054906101000a900473ffffffffffffffffffffffffffffffffffffffff1673ffffffffffffffffffffffffffffffffffffffff1673ffffffffffffffffffffffffffffffffffffffff16815250509050919050565b600160003373ffffffffffffffffffffffffffffffffffffffff1673ffffffffffffffffffffffffffffffffffffffff16815260200190815260200160002060009054906101000a900460ff1615611fa4576040517f08c379a0000000000000000000000000000000000000000000000000000000008152600401611f9b906148de565b60405180910390fd5b600b60009054906101000a900473ffffffffffffffffffffffffffffffffffffffff1673ffffffffffffffffffffffffffffffffffffffff166391d148547ffbd454f36a7e1a388bd6fc3ab10d434aa4578f811acbbcf33afb1c697486313c336040518363ffffffff1660e01b81526004016120219291906147e7565b602060405180830381865afa15801561203e573d6000803e3d6000fd5b505050506040513d601f19601f82011682018060405250810190612062919061483c565b6120a1576040517f08c379a000000000000000000000000000000000000000000000000000000000815260040161209890614cfa565b60405180910390fd5b3373ffffffffffffffffffffffffffffffffffffffff166003600083815260200190815260200160002060020160009054906101000a900473ffffffffffffffffffffffffffffffffffffffff1673ffffffffffffffffffffffffffffffffffffffff16036122295760016003600083815260200190815260200160002060080160006101000a81548160ff0219169083600881111561214457612143614377565b5b0217905550600a60009054906101000a900473ffffffffffffffffffffffffffffffffffffffff1673ffffffffffffffffffffffffffffffffffffffff16630357371d6003600084815260200190815260200160002060010160009054906101000a900473ffffffffffffffffffffffffffffffffffffffff1660036000858152602001908152602001600020600601546040518363ffffffff1660e01b81526004016121f2929190614869565b600060405180830381600087803b15801561220c57600080fd5b505af1158015612220573d6000803e3d6000fd5b50505050612264565b6040517f08c379a000000000000000000000000000000000000000000000000000000000815260040161225b906149dc565b60405180910390fd5b50565b600160003373ffffffffffffffffffffffffffffffffffffffff1673ffffffffffffffffffffffffffffffffffffffff16815260200190815260200160002060009054906101000a900460ff16156122f4576040517f08c379a00000000000000000000000000000000000000000000000000000000081526004016122eb906148de565b60405180910390fd5b6122fe8282612efc565b6003600083815260200190815260200160002060060154341015612357576040517f08c379a000000000000000000000000000000000000000000000000000000000815260040161234e90614d66565b60405180910390fd5b600a60009054906101000a900473ffffffffffffffffffffffffffffffffffffffff1673ffffffffffffffffffffffffffffffffffffffff1663ad7fadc534336003600087815260200190815260200160002060010160009054906101000a900473ffffffffffffffffffffffffffffffffffffffff166040518463ffffffff1660e01b81526004016123eb929190614d86565b6000604051808303818588803b15801561240457600080fd5b505af1158015612418573d6000803e3d6000fd5b5050505050806003600084815260200190815260200160002060070181905550426003600084815260200190815260200160002060050181905550336003600084815260200190815260200160002060020160006101000a81548173ffffffffffffffffffffffffffffffffffffffff021916908373ffffffffffffffffffffffffffffffffffffffff160217905550600560003373ffffffffffffffffffffffffffffffffffffffff1673ffffffffffffffffffffffffffffffffffffffff16815260200190815260200160002082908060018154018082558091505060019003906000526020600020016000909190919091505560016003600084815260200190815260200160002060080160006101000a81548160ff0219169083600881111561254857612547614377565b5b0217905550817f78dec01f974668793fa9048dc94c45a25b01bbabc6b89300c8ed2995d74005d56003600085815260200190815260200160002060020160009054906101000a900473ffffffffffffffffffffffffffffffffffffffff166003600086815260200190815260200160002060080160009054906101000a900460ff16600360008781526020019081526020016000206006015460036000888152602001908152602001600020600501546040516126089493929190614daf565b60405180910390a25050565b6000801b61262181612cfd565b600073ffffffffffffffffffffffffffffffffffffffff168273ffffffffffffffffffffffffffffffffffffffff1603612690576040517f08c379a000000000000000000000000000000000000000000000000000000000815260040161268790614e40565b60405180910390fd5b6000600160008473ffffffffffffffffffffffffffffffffffffffff1673ffffffffffffffffffffffffffffffffffffffff16815260200190815260200160002060006101000a81548160ff0219169083151502179055507fc3776b472ebf54114339eec9e4dc924e7ce307a97f5c1ee72b6d474e6e5e8b7c82604051612717919061435c565b60405180910390a15050565b600b60009054906101000a900473ffffffffffffffffffffffffffffffffffffffff1681565b6005602052816000526040600020818154811061276557600080fd5b90600052602060002001600091509150505481565b61278382610a1c565b61278c81612cfd565b6127968383612e0a565b50505050565b600a60009054906101000a900473ffffffffffffffffffffffffffffffffffffffff1681565b6127ca613d50565b600160003373ffffffffffffffffffffffffffffffffffffffff1673ffffffffffffffffffffffffffffffffffffffff16815260200190815260200160002060009054906101000a900460ff1615612857576040517f08c379a000000000000000000000000000000000000000000000000000000000815260040161284e906148de565b60405180910390fd5b61286285858561327b565b60006128708686868661356f565b905080915050949350505050565b60016020528060005260406000206000915054906101000a900460ff1681565b600160003373ffffffffffffffffffffffffffffffffffffffff1673ffffffffffffffffffffffffffffffffffffffff16815260200190815260200160002060009054906101000a900460ff161561292b576040517f08c379a0000000000000000000000000000000000000000000000000000000008152600401612922906148de565b60405180910390fd5b6129348161396b565b600a60009054906101000a900473ffffffffffffffffffffffffffffffffffffffff1673ffffffffffffffffffffffffffffffffffffffff1663ad7fadc534336003600086815260200190815260200160002060020160009054906101000a900473ffffffffffffffffffffffffffffffffffffffff166040518463ffffffff1660e01b81526004016129c8929190614d86565b6000604051808303818588803b1580156129e157600080fd5b505af11580156129f5573d6000803e3d6000fd5b5050505050426003600083815260200190815260200160002060050181905550336003600083815260200190815260200160002060030160006101000a81548173ffffffffffffffffffffffffffffffffffffffff021916908373ffffffffffffffffffffffffffffffffffffffff160217905550600560003373ffffffffffffffffffffffffffffffffffffffff1673ffffffffffffffffffffffffffffffffffffffff168152602001908152602001600020819080600181540180825580915050600190039060005260206000200160009091909190915055600380600083815260200190815260200160002060080160006101000a81548160ff02191690836008811115612b0957612b08614377565b5b0217905550807fd5bf0453cd492c459ba9477de283c3662783c2fb8a03df42555d15741b1848d46003600084815260200190815260200160002060030160009054906101000a900473ffffffffffffffffffffffffffffffffffffffff166003600085815260200190815260200160002060080160009054906101000a900460ff1660036000868152602001908152602001600020600601546003600087815260200190815260200160002060050154604051612bc99493929190614daf565b60405180910390a250565b60008060001b600360008481526020019081526020016000206000015403612c31576040517f08c379a0000000000000000000000000000000000000000000000000000000008152600401612c2890614c8e565b60405180910390fd5b6003600083815260200190815260200160002060080160019054906101000a900473ffffffffffffffffffffffffffffffffffffffff169050919050565b7ffbd454f36a7e1a388bd6fc3ab10d434aa4578f811acbbcf33afb1c697486313c81565b60007f01ffc9a7000000000000000000000000000000000000000000000000000000007bffffffffffffffffffffffffffffffffffffffffffffffffffffffff1916827bffffffffffffffffffffffffffffffffffffffffffffffffffffffff1916149050919050565b612d0e81612d09612e02565b613cff565b50565b6000612d1d83836118a0565b612df757600160008085815260200190815260200160002060000160008473ffffffffffffffffffffffffffffffffffffffff1673ffffffffffffffffffffffffffffffffffffffff16815260200190815260200160002060006101000a81548160ff021916908315150217905550612d94612e02565b73ffffffffffffffffffffffffffffffffffffffff168273ffffffffffffffffffffffffffffffffffffffff16847f2f8788117e7eff1d82e926ec794901d17c78024a50270940304540a733656f0d60405160405180910390a460019050612dfc565b600090505b92915050565b600033905090565b6000612e1683836118a0565b15612ef157600080600085815260200190815260200160002060000160008473ffffffffffffffffffffffffffffffffffffffff1673ffffffffffffffffffffffffffffffffffffffff16815260200190815260200160002060006101000a81548160ff021916908315150217905550612e8e612e02565b73ffffffffffffffffffffffffffffffffffffffff168273ffffffffffffffffffffffffffffffffffffffff16847ff6391f5c32d9c69d2a47ea670b442974b53935d1edc7fd64eb21e047a839171b60405160405180910390a460019050612ef6565b600090505b92915050565b600b60009054906101000a900473ffffffffffffffffffffffffffffffffffffffff1673ffffffffffffffffffffffffffffffffffffffff166391d148547ffbd454f36a7e1a388bd6fc3ab10d434aa4578f811acbbcf33afb1c697486313c336040518363ffffffff1660e01b8152600401612f799291906147e7565b602060405180830381865afa158015612f96573d6000803e3d6000fd5b505050506040513d601f19601f82011682018060405250810190612fba919061483c565b612ff9576040517f08c379a0000000000000000000000000000000000000000000000000000000008152600401612ff090614cfa565b60405180910390fd5b600073ffffffffffffffffffffffffffffffffffffffff166003600084815260200190815260200160002060020160009054906101000a900473ffffffffffffffffffffffffffffffffffffffff1673ffffffffffffffffffffffffffffffffffffffff161461309e576040517f08c379a000000000000000000000000000000000000000000000000000000000815260040161309590614ed2565b60405180910390fd5b6000801b6003600084815260200190815260200160002060000154036130f9576040517f08c379a00000000000000000000000000000000000000000000000000000000081526004016130f090614c8e565b60405180910390fd5b6000600881111561310d5761310c614377565b5b6003600084815260200190815260200160002060080160009054906101000a900460ff16600881111561314357613142614377565b5b14613183576040517f08c379a000000000000000000000000000000000000000000000000000000000815260040161317a90614f64565b60405180910390fd5b426003600084815260200190815260200160002060040154116131db576040517f08c379a00000000000000000000000000000000000000000000000000000000081526004016131d290614fd0565b60405180910390fd5b6003600083815260200190815260200160002060060154341015613234576040517f08c379a000000000000000000000000000000000000000000000000000000000815260040161322b9061503c565b60405180910390fd5b60008111613277576040517f08c379a000000000000000000000000000000000000000000000000000000000815260040161326e906150ce565b60405180910390fd5b5050565b600b60009054906101000a900473ffffffffffffffffffffffffffffffffffffffff1673ffffffffffffffffffffffffffffffffffffffff166391d148547feefb95e842a3287179d933b4460be539a1d5af11aa8b325bb45c5c8dc92de4ed336040518363ffffffff1660e01b81526004016132f89291906147e7565b602060405180830381865afa158015613315573d6000803e3d6000fd5b505050506040513d601f19601f82011682018060405250810190613339919061483c565b613378576040517f08c379a000000000000000000000000000000000000000000000000000000000815260040161336f9061513a565b60405180910390fd5b600b60009054906101000a900473ffffffffffffffffffffffffffffffffffffffff1673ffffffffffffffffffffffffffffffffffffffff166391d148547feefb95e842a3287179d933b4460be539a1d5af11aa8b325bb45c5c8dc92de4ed856040518363ffffffff1660e01b81526004016133f59291906147e7565b602060405180830381865afa158015613412573d6000803e3d6000fd5b505050506040513d601f19601f82011682018060405250810190613436919061483c565b613475576040517f08c379a000000000000000000000000000000000000000000000000000000000815260040161346c906151cc565b60405180910390fd5b600073ffffffffffffffffffffffffffffffffffffffff168373ffffffffffffffffffffffffffffffffffffffff16036134e4576040517f08c379a00000000000000000000000000000000000000000000000000000000081526004016134db9061525e565b60405180910390fd5b42821015613527576040517f08c379a000000000000000000000000000000000000000000000000000000000815260040161351e906152f0565b60405180910390fd5b6000811161356a576040517f08c379a00000000000000000000000000000000000000000000000000000000081526004016135619061535c565b60405180910390fd5b505050565b613577613d50565b61357f613d50565b6000816101000190600881111561359957613598614377565b5b908160088111156135ad576135ac614377565b5b81525050428160a00181815250508281610120019073ffffffffffffffffffffffffffffffffffffffff16908173ffffffffffffffffffffffffffffffffffffffff168152505060086000815480929190613607906153ab565b919050555085816020019073ffffffffffffffffffffffffffffffffffffffff16908173ffffffffffffffffffffffffffffffffffffffff168152505084816080018181525050838160c00181815250506000600260003373ffffffffffffffffffffffffffffffffffffffff1673ffffffffffffffffffffffffffffffffffffffff16815260200190815260200160002060008154809291906136aa906153ab565b91905055905081602001518260a00151826040516020016136cd9392919061545c565b604051602081830303815290604052805190602001208260000181815250506007826000015190806001815401808255809150506001900390600052602060002001600090919091909150558160036000846000015181526020019081526020016000206000820151816000015560208201518160010160006101000a81548173ffffffffffffffffffffffffffffffffffffffff021916908373ffffffffffffffffffffffffffffffffffffffff16021790555060408201518160020160006101000a81548173ffffffffffffffffffffffffffffffffffffffff021916908373ffffffffffffffffffffffffffffffffffffffff16021790555060608201518160030160006101000a81548173ffffffffffffffffffffffffffffffffffffffff021916908373ffffffffffffffffffffffffffffffffffffffff1602179055506080820151816004015560a0820151816005015560c0820151816006015560e082015181600701556101008201518160080160006101000a81548160ff0219169083600881111561386457613863614377565b5b02179055506101208201518160080160016101000a81548173ffffffffffffffffffffffffffffffffffffffff021916908373ffffffffffffffffffffffffffffffffffffffff160217905550905050600560008873ffffffffffffffffffffffffffffffffffffffff1673ffffffffffffffffffffffffffffffffffffffff1681526020019081526020016000208260000151908060018154018082558091505060019003906000526020600020016000909190919091505581600001517f142fb4f6af814b9c2a0fc64fa90bca80d84d17f165530aa799ede76f9882ec2e8360a001516040516139569190613ef8565b60405180910390a28192505050949350505050565b600b60009054906101000a900473ffffffffffffffffffffffffffffffffffffffff1673ffffffffffffffffffffffffffffffffffffffff166391d148547f2a5f906c256a5d799494fcd066e1f6c077689de1cdb65052a1624de4bace99bf336040518363ffffffff1660e01b81526004016139e89291906147e7565b602060405180830381865afa158015613a05573d6000803e3d6000fd5b505050506040513d601f19601f82011682018060405250810190613a29919061483c565b613a68576040517f08c379a0000000000000000000000000000000000000000000000000000000008152600401613a5f9061494a565b60405180910390fd5b600073ffffffffffffffffffffffffffffffffffffffff166003600083815260200190815260200160002060030160009054906101000a900473ffffffffffffffffffffffffffffffffffffffff1673ffffffffffffffffffffffffffffffffffffffff1614613b0d576040517f08c379a0000000000000000000000000000000000000000000000000000000008152600401613b049061550b565b60405180910390fd5b6000801b600360008381526020019081526020016000206000015403613b68576040517f08c379a0000000000000000000000000000000000000000000000000000000008152600401613b5f90614c8e565b60405180910390fd5b60016008811115613b7c57613b7b614377565b5b6003600083815260200190815260200160002060080160009054906101000a900460ff166008811115613bb257613bb1614377565b5b14613bf2576040517f08c379a0000000000000000000000000000000000000000000000000000000008152600401613be99061559d565b60405180910390fd5b42600360008381526020019081526020016000206004015411613c4a576040517f08c379a0000000000000000000000000000000000000000000000000000000008152600401613c4190614fd0565b60405180910390fd5b6003600082815260200190815260200160002060070154341015613ca3576040517f08c379a0000000000000000000000000000000000000000000000000000000008152600401613c9a9061562f565b60405180910390fd5b6000600360008381526020019081526020016000206007015411613cfc576040517f08c379a0000000000000000000000000000000000000000000000000000000008152600401613cf39061569b565b60405180910390fd5b50565b613d0982826118a0565b613d4c5780826040517fe2517d3f000000000000000000000000000000000000000000000000000000008152600401613d439291906156bb565b60405180910390fd5b5050565b60405180610140016040528060008019168152602001600073ffffffffffffffffffffffffffffffffffffffff168152602001600073ffffffffffffffffffffffffffffffffffffffff168152602001600073ffffffffffffffffffffffffffffffffffffffff1681526020016000815260200160008152602001600081526020016000815260200160006008811115613ded57613dec614377565b5b8152602001600073ffffffffffffffffffffffffffffffffffffffff1681525090565b6000604051905090565b600080fd5b600080fd5b60007fffffffff0000000000000000000000000000000000000000000000000000000082169050919050565b613e5981613e24565b8114613e6457600080fd5b50565b600081359050613e7681613e50565b92915050565b600060208284031215613e9257613e91613e1a565b5b6000613ea084828501613e67565b91505092915050565b60008115159050919050565b613ebe81613ea9565b82525050565b6000602082019050613ed96000830184613eb5565b92915050565b6000819050919050565b613ef281613edf565b82525050565b6000602082019050613f0d6000830184613ee9565b92915050565b6000819050919050565b613f2681613f13565b82525050565b6000602082019050613f416000830184613f1d565b92915050565b613f5081613f13565b8114613f5b57600080fd5b50565b600081359050613f6d81613f47565b92915050565b600060208284031215613f8957613f88613e1a565b5b6000613f9784828501613f5e565b91505092915050565b613fa981613edf565b8114613fb457600080fd5b50565b600081359050613fc681613fa0565b92915050565b600060208284031215613fe257613fe1613e1a565b5b6000613ff084828501613fb7565b91505092915050565b600073ffffffffffffffffffffffffffffffffffffffff82169050919050565b600061402482613ff9565b9050919050565b61403481614019565b811461403f57600080fd5b50565b6000813590506140518161402b565b92915050565b6000806040838503121561406e5761406d613e1a565b5b600061407c85828601613f5e565b925050602061408d85828601614042565b9150509250929050565b6140a081614019565b82525050565b600081519050919050565b600082825260208201905092915050565b60005b838110156140e05780820151818401526020810190506140c5565b60008484015250505050565b6000601f19601f8301169050919050565b6000614108826140a6565b61411281856140b1565b93506141228185602086016140c2565b61412b816140ec565b840191505092915050565b600060c08201905061414b6000830189613f1d565b6141586020830188613ee9565b6141656040830187614097565b6141726060830186613eb5565b61417f6080830185613eb5565b81810360a083015261419181846140fd565b9050979650505050505050565b6000602082840312156141b4576141b3613e1a565b5b60006141c284828501614042565b91505092915050565b600080fd5b600080fd5b7f4e487b7100000000000000000000000000000000000000000000000000000000600052604160045260246000fd5b61420d826140ec565b810181811067ffffffffffffffff8211171561422c5761422b6141d5565b5b80604052505050565b600061423f613e10565b905061424b8282614204565b919050565b600067ffffffffffffffff82111561426b5761426a6141d5565b5b614274826140ec565b9050602081019050919050565b82818337600083830152505050565b60006142a361429e84614250565b614235565b9050828152602081018484840111156142bf576142be6141d0565b5b6142ca848285614281565b509392505050565b600082601f8301126142e7576142e66141cb565b5b81356142f7848260208601614290565b91505092915050565b6000806040838503121561431757614316613e1a565b5b600083013567ffffffffffffffff81111561433557614334613e1f565b5b614341858286016142d2565b925050602061435285828601614042565b9150509250929050565b60006020820190506143716000830184614097565b92915050565b7f4e487b7100000000000000000000000000000000000000000000000000000000600052602160045260246000fd5b600981106143b7576143b6614377565b5b50565b60008190506143c8826143a6565b919050565b60006143d8826143ba565b9050919050565b6143e8816143cd565b82525050565b600061014082019050614404600083018d613f1d565b614411602083018c614097565b61441e604083018b614097565b61442b606083018a614097565b6144386080830189613ee9565b61444560a0830188613ee9565b61445260c0830187613ee9565b61445f60e0830186613ee9565b61446d6101008301856143df565b61447b610120830184614097565b9b9a5050505050505050505050565b6000819050919050565b60006144af6144aa6144a584613ff9565b61448a565b613ff9565b9050919050565b60006144c182614494565b9050919050565b60006144d3826144b6565b9050919050565b6144e3816144c8565b82525050565b60006020820190506144fe60008301846144da565b92915050565b61450d81613f13565b82525050565b61451c81614019565b82525050565b61452b81613edf565b82525050565b61453a816143cd565b82525050565b610140820160008201516145576000850182614504565b50602082015161456a6020850182614513565b50604082015161457d6040850182614513565b5060608201516145906060850182614513565b5060808201516145a36080850182614522565b5060a08201516145b660a0850182614522565b5060c08201516145c960c0850182614522565b5060e08201516145dc60e0850182614522565b506101008201516145f1610100850182614531565b50610120820151614606610120850182614513565b50505050565b6000610140820190506146226000830184614540565b92915050565b6000806040838503121561463f5761463e613e1a565b5b600061464d85828601613f5e565b925050602061465e85828601613fb7565b9150509250929050565b6000614673826144b6565b9050919050565b61468381614668565b82525050565b600060208201905061469e600083018461467a565b92915050565b600080604083850312156146bb576146ba613e1a565b5b60006146c985828601614042565b92505060206146da85828601613fb7565b9150509250929050565b60006146ef826144b6565b9050919050565b6146ff816146e4565b82525050565b600060208201905061471a60008301846146f6565b92915050565b6000806000806080858703121561473a57614739613e1a565b5b600061474887828801614042565b945050602061475987828801613fb7565b935050604061476a87828801613fb7565b925050606061477b87828801614042565b91505092959194509250565b7f4e487b7100000000000000000000000000000000000000000000000000000000600052602260045260246000fd5b600060028204905060018216806147ce57607f821691505b6020821081036147e1576147e0614787565b5b50919050565b60006040820190506147fc6000830185613f1d565b6148096020830184614097565b9392505050565b61481981613ea9565b811461482457600080fd5b50565b60008151905061483681614810565b92915050565b60006020828403121561485257614851613e1a565b5b600061486084828501614827565b91505092915050565b600060408201905061487e6000830185614097565b61488b6020830184613ee9565b9392505050565b7f4164647265737320496e76616c69640000000000000000000000000000000000600082015250565b60006148c8600f836140b1565b91506148d382614892565b602082019050919050565b600060208201905081810360008301526148f7816148bb565b9050919050565b7f497473206e6f742052657461696c657200000000000000000000000000000000600082015250565b60006149346010836140b1565b915061493f826148fe565b602082019050919050565b6000602082019050818103600083015261496381614927565b9050919050565b7f556e617574686f72697a656420746f206d61726b20746869732062617463682060008201527f6173207265636569766564000000000000000000000000000000000000000000602082015250565b60006149c6602b836140b1565b91506149d18261496a565b604082019050919050565b600060208201905081810360008301526149f5816149b9565b9050919050565b7f4d616e7566616374757265720000000000000000000000000000000000000000600082015250565b6000614a32600c836140b1565b9150614a3d826149fc565b602082019050919050565b60006040820190508181036000830152614a6181614a25565b9050614a706020830184614097565b92915050565b7f52657461696c6572000000000000000000000000000000000000000000000000600082015250565b6000614aac6008836140b1565b9150614ab782614a76565b602082019050919050565b60006040820190508181036000830152614adb81614a9f565b9050614aea6020830184614097565b92915050565b7f4469737472696275746f72000000000000000000000000000000000000000000600082015250565b6000614b26600b836140b1565b9150614b3182614af0565b602082019050919050565b60006040820190508181036000830152614b5581614b19565b9050614b646020830184614097565b92915050565b7f496e76616c696420726f6c65206e616d65000000000000000000000000000000600082015250565b6000614ba06011836140b1565b9150614bab82614b6a565b602082019050919050565b60006020820190508181036000830152614bcf81614b93565b9050919050565b7f43616e6e6f7420667265657a6520746865207a65726f20616464726573730000600082015250565b6000614c0c601e836140b1565b9150614c1782614bd6565b602082019050919050565b60006020820190508181036000830152614c3b81614bff565b9050919050565b7f426174636820646f6573206e6f74206578697374000000000000000000000000600082015250565b6000614c786014836140b1565b9150614c8382614c42565b602082019050919050565b60006020820190508181036000830152614ca781614c6b565b9050919050565b7f497473206e6f74204469737472696275746f7200000000000000000000000000600082015250565b6000614ce46013836140b1565b9150614cef82614cae565b602082019050919050565b60006020820190508181036000830152614d1381614cd7565b9050919050565b7f4c6573732050726963652053656e740000000000000000000000000000000000600082015250565b6000614d50600f836140b1565b9150614d5b82614d1a565b602082019050919050565b60006020820190508181036000830152614d7f81614d43565b9050919050565b6000604082019050614d9b6000830185614097565b614da86020830184614097565b9392505050565b6000608082019050614dc46000830187614097565b614dd160208301866143df565b614dde6040830185613ee9565b614deb6060830184613ee9565b95945050505050565b7f43616e6e6f7420756e667265657a6520746865207a65726f2061646472657373600082015250565b6000614e2a6020836140b1565b9150614e3582614df4565b602082019050919050565b60006020820190508181036000830152614e5981614e1d565b9050919050565b7f426174636820697320616c72656164792070757263686173656420627920616e60008201527f6f74686572206469737472696275746f72000000000000000000000000000000602082015250565b6000614ebc6031836140b1565b9150614ec782614e60565b604082019050919050565b60006020820190508181036000830152614eeb81614eaf565b9050919050565b7f4261746368206973206e6f7420617661696c61626c6520666f7220707572636860008201527f617365206279204469737472696275746f720000000000000000000000000000602082015250565b6000614f4e6032836140b1565b9150614f5982614ef2565b604082019050919050565b60006020820190508181036000830152614f7d81614f41565b9050919050565b7f4261746368206861732065787069726564000000000000000000000000000000600082015250565b6000614fba6011836140b1565b9150614fc582614f84565b602082019050919050565b60006020820190508181036000830152614fe981614fad565b9050919050565b7f496e73756666696369656e742050726963652053656e74000000000000000000600082015250565b60006150266017836140b1565b915061503182614ff0565b602082019050919050565b6000602082019050818103600083015261505581615019565b9050919050565b7f50726f64756374207072696365206d757374206265206772656174657220746860008201527f616e207a65726f00000000000000000000000000000000000000000000000000602082015250565b60006150b86027836140b1565b91506150c38261505c565b604082019050919050565b600060208201905081810360008301526150e7816150ab565b9050919050565b7f497473206e6f74204d616e756661637475726572000000000000000000000000600082015250565b60006151246014836140b1565b915061512f826150ee565b602082019050919050565b6000602082019050818103600083015261515381615117565b9050919050565b7f4d616e7566616374757265722061646472657373206973206e6f74207265676960008201527f7374657265640000000000000000000000000000000000000000000000000000602082015250565b60006151b66026836140b1565b91506151c18261515a565b604082019050919050565b600060208201905081810360008301526151e5816151a9565b9050919050565b7f4d616e75666163747572657220616464726573732063616e6e6f74206265207a60008201527f65726f0000000000000000000000000000000000000000000000000000000000602082015250565b60006152486023836140b1565b9150615253826151ec565b604082019050919050565b600060208201905081810360008301526152778161523b565b9050919050565b7f4578706972792064617465206d75737420626520696e2074686520667574757260008201527f6500000000000000000000000000000000000000000000000000000000000000602082015250565b60006152da6021836140b1565b91506152e58261527e565b604082019050919050565b60006020820190508181036000830152615309816152cd565b9050919050565b7f5072696365206d7573742062652067726561746572207468616e207a65726f00600082015250565b6000615346601f836140b1565b915061535182615310565b602082019050919050565b6000602082019050818103600083015261537581615339565b9050919050565b7f4e487b7100000000000000000000000000000000000000000000000000000000600052601160045260246000fd5b60006153b682613edf565b91507fffffffffffffffffffffffffffffffffffffffffffffffffffffffffffffffff82036153e8576153e761537c565b5b600182019050919050565b60008160601b9050919050565b600061540b826153f3565b9050919050565b600061541d82615400565b9050919050565b61543561543082614019565b615412565b82525050565b6000819050919050565b61545661545182613edf565b61543b565b82525050565b60006154688286615424565b6014820191506154788285615445565b6020820191506154888284615445565b602082019150819050949350505050565b7f426174636820697320616c72656164792070757263686173656420627920616e60008201527f6f746865722072657461696c6572000000000000000000000000000000000000602082015250565b60006154f5602e836140b1565b915061550082615499565b604082019050919050565b60006020820190508181036000830152615524816154e8565b9050919050565b7f4261746368206973206e6f7420617661696c61626c6520666f7220707572636860008201527f6173652062792052657461696c65720000000000000000000000000000000000602082015250565b6000615587602f836140b1565b91506155928261552b565b604082019050919050565b600060208201905081810360008301526155b68161557a565b9050919050565b7f5061796d656e74206d7573742062652067726561746572207468616e2070726f60008201527f6475637450726963650000000000000000000000000000000000000000000000602082015250565b60006156196029836140b1565b9150615624826155bd565b604082019050919050565b600060208201905081810360008301526156488161560c565b9050919050565b7f50726f64756374205072696365206973206e6f74207365740000000000000000600082015250565b60006156856018836140b1565b91506156908261564f565b602082019050919050565b600060208201905081810360008301526156b481615678565b9050919050565b60006040820190506156d06000830185614097565b6156dd6020830184613f1d565b939250505056fea2646970667358221220487551f2a5956a54be40e7115ae4de54580002d5469c913919ccb1a95f0a76c864736f6c634300081c0033",
  "linkReferences": {},
  "deployedLinkReferences": {}
}