{
  "_format": "hh-sol-artifact-1",
  "contractName": "DrugSupplyChain",
  "sourceName": "contracts/DrugSupplyChain.sol",
  "abi": [
    {
      "inputs": [
        {
          "internalType": "address",
          "name": "_priceFeedAddress",
          "type": "address"
        },
        {
          "internalType": "address",
          "name": "_escrowAddress",
          "type": "address"
        },
        {
          "internalType": "address",
          "name": "_handlingAddresses",
          "type": "address"
        }
      ],
      "stateMutability": "nonpayable",
      "type": "constructor"
    },
    {
      "inputs": [],
      "name": "AccessControlBadConfirmation",
      "type": "error"
    },
    {
      "inputs": [
        {
          "internalType": "address",
          "name": "account",
          "type": "address"
        },
        {
          "internalType": "bytes32",
          "name": "neededRole",
          "type": "bytes32"
        }
      ],
      "name": "AccessControlUnauthorizedAccount",
      "type": "error"
    },
    {
      "inputs": [
        {
          "internalType": "string",
          "name": "role",
          "type": "string"
        },
        {
          "internalType": "address",
          "name": "account",
          "type": "address"
        }
      ],
      "name": "AddressAlreadyExists",
      "type": "error"
    },
    {
      "inputs": [
        {
          "internalType": "address",
          "name": "account",
          "type": "address"
        }
      ],
      "name": "AddressInvalid",
      "type": "error"
    },
    {
      "inputs": [
        {
          "internalType": "uint256",
          "name": "_usdAmount",
          "type": "uint256"
        }
      ],
      "name": "InvalidAmount",
      "type": "error"
    },
    {
      "anonymous": false,
      "inputs": [
        {
          "indexed": false,
          "internalType": "address",
          "name": "account",
          "type": "address"
        }
      ],
      "name": "AddressFrozen",
      "type": "event"
    },
    {
      "anonymous": false,
      "inputs": [
        {
          "indexed": false,
          "internalType": "address",
          "name": "account",
          "type": "address"
        }
      ],
      "name": "AddressUnfrozen",
      "type": "event"
    },
    {
      "anonymous": false,
      "inputs": [
        {
          "indexed": true,
          "internalType": "bytes32",
          "name": "batchId",
          "type": "bytes32"
        },
        {
          "indexed": false,
          "internalType": "uint256",
          "name": "timestamp",
          "type": "uint256"
        }
      ],
      "name": "BatchCreated",
      "type": "event"
    },
    {
      "anonymous": false,
      "inputs": [
        {
          "indexed": true,
          "internalType": "bytes32",
          "name": "batchId",
          "type": "bytes32"
        },
        {
          "indexed": false,
          "internalType": "address",
          "name": "distributor",
          "type": "address"
        },
        {
          "indexed": false,
          "internalType": "enum DrugSupplyChain.BatchStatus",
          "name": "statusEnum",
          "type": "uint8"
        },
        {
          "indexed": false,
          "internalType": "uint256",
          "name": "price",
          "type": "uint256"
        },
        {
          "indexed": false,
          "internalType": "uint256",
          "name": "timestamp",
          "type": "uint256"
        }
      ],
      "name": "DistributerPurchased",
      "type": "event"
    },
    {
      "anonymous": false,
      "inputs": [
        {
          "indexed": true,
          "internalType": "bytes32",
          "name": "batchId",
          "type": "bytes32"
        },
        {
          "indexed": false,
          "internalType": "enum DrugSupplyChain.BatchStatus",
          "name": "statusEnum",
          "type": "uint8"
        },
        {
          "indexed": true,
          "internalType": "address",
          "name": "distributor",
          "type": "address"
        },
        {
          "indexed": false,
          "internalType": "uint256",
          "name": "price",
          "type": "uint256"
        },
        {
          "indexed": false,
          "internalType": "uint256",
          "name": "timestamp",
          "type": "uint256"
        },
        {
          "indexed": false,
          "internalType": "string",
          "name": "reason",
          "type": "string"
        }
      ],
      "name": "EligibleForResell",
      "type": "event"
    },
    {
      "anonymous": false,
      "inputs": [
        {
          "indexed": true,
          "internalType": "bytes32",
          "name": "batchId",
          "type": "bytes32"
        },
        {
          "indexed": true,
          "internalType": "address",
          "name": "to",
          "type": "address"
        },
        {
          "indexed": true,
          "internalType": "uint256",
          "name": "timestamp",
          "type": "uint256"
        },
        {
          "indexed": false,
          "internalType": "bool",
          "name": "refunded",
          "type": "bool"
        },
        {
          "indexed": false,
          "internalType": "string",
          "name": "reason",
          "type": "string"
        }
      ],
      "name": "Refunded",
      "type": "event"
    },
    {
      "anonymous": false,
      "inputs": [
        {
          "indexed": true,
          "internalType": "bytes32",
          "name": "batchId",
          "type": "bytes32"
        },
        {
          "indexed": true,
          "internalType": "address",
          "name": "requester",
          "type": "address"
        },
        {
          "indexed": true,
          "internalType": "uint256",
          "name": "timestamp",
          "type": "uint256"
        },
        {
          "indexed": false,
          "internalType": "bool",
          "name": "approved",
          "type": "bool"
        },
        {
          "indexed": false,
          "internalType": "string",
          "name": "reason",
          "type": "string"
        }
      ],
      "name": "RequestApproved",
      "type": "event"
    },
    {
      "anonymous": false,
      "inputs": [
        {
          "indexed": true,
          "internalType": "bytes32",
          "name": "batchId",
          "type": "bytes32"
        },
        {
          "indexed": false,
          "internalType": "enum DrugSupplyChain.BatchStatus",
          "name": "statusEnum",
          "type": "uint8"
        },
        {
          "indexed": true,
          "internalType": "address",
          "name": "distributor",
          "type": "address"
        },
        {
          "indexed": false,
          "internalType": "uint256",
          "name": "price",
          "type": "uint256"
        },
        {
          "indexed": false,
          "internalType": "uint256",
          "name": "timestamp",
          "type": "uint256"
        }
      ],
      "name": "ResellingDone",
      "type": "event"
    },
    {
      "anonymous": false,
      "inputs": [
        {
          "indexed": true,
          "internalType": "bytes32",
          "name": "batchId",
          "type": "bytes32"
        },
        {
          "indexed": false,
          "internalType": "address",
          "name": "retailer",
          "type": "address"
        },
        {
          "indexed": false,
          "internalType": "enum DrugSupplyChain.BatchStatus",
          "name": "statusEnum",
          "type": "uint8"
        },
        {
          "indexed": false,
          "internalType": "uint256",
          "name": "price",
          "type": "uint256"
        },
        {
          "indexed": false,
          "internalType": "uint256",
          "name": "timestamp",
          "type": "uint256"
        }
      ],
      "name": "RetailerPurchased",
      "type": "event"
    },
    {
      "anonymous": false,
      "inputs": [
        {
          "indexed": true,
          "internalType": "bytes32",
          "name": "batchId",
          "type": "bytes32"
        },
        {
          "indexed": true,
          "internalType": "uint256",
          "name": "timestamp",
          "type": "uint256"
        },
        {
          "indexed": true,
          "internalType": "address",
          "name": "requester",
          "type": "address"
        },
        {
          "indexed": false,
          "internalType": "bool",
          "name": "approved",
          "type": "bool"
        },
        {
          "indexed": false,
          "internalType": "bool",
          "name": "refunded",
          "type": "bool"
        },
        {
          "indexed": false,
          "internalType": "string",
          "name": "reason",
          "type": "string"
        }
      ],
      "name": "ReturnRequested",
      "type": "event"
    },
    {
      "anonymous": false,
      "inputs": [
        {
          "indexed": true,
          "internalType": "bytes32",
          "name": "role",
          "type": "bytes32"
        },
        {
          "indexed": true,
          "internalType": "bytes32",
          "name": "previousAdminRole",
          "type": "bytes32"
        },
        {
          "indexed": true,
          "internalType": "bytes32",
          "name": "newAdminRole",
          "type": "bytes32"
        }
      ],
      "name": "RoleAdminChanged",
      "type": "event"
    },
    {
      "anonymous": false,
      "inputs": [
        {
          "indexed": true,
          "internalType": "bytes32",
          "name": "role",
          "type": "bytes32"
        },
        {
          "indexed": true,
          "internalType": "address",
          "name": "account",
          "type": "address"
        },
        {
          "indexed": true,
          "internalType": "address",
          "name": "sender",
          "type": "address"
        }
      ],
      "name": "RoleGranted",
      "type": "event"
    },
    {
      "anonymous": false,
      "inputs": [
        {
          "indexed": true,
          "internalType": "bytes32",
          "name": "role",
          "type": "bytes32"
        },
        {
          "indexed": true,
          "internalType": "address",
          "name": "account",
          "type": "address"
        },
        {
          "indexed": true,
          "internalType": "address",
          "name": "sender",
          "type": "address"
        }
      ],
      "name": "RoleRevoked",
      "type": "event"
    },
    {
      "inputs": [],
      "name": "DEFAULT_ADMIN_ROLE",
      "outputs": [
        {
          "internalType": "bytes32",
          "name": "",
          "type": "bytes32"
        }
      ],
      "stateMutability": "view",
      "type": "function"
    },
    {
      "inputs": [],
      "name": "DISTRIBUTOR_ROLE",
      "outputs": [
        {
          "internalType": "bytes32",
          "name": "",
          "type": "bytes32"
        }
      ],
      "stateMutability": "view",
      "type": "function"
    },
    {
      "inputs": [],
      "name": "MANUFACTURER_ROLE",
      "outputs": [
        {
          "internalType": "bytes32",
          "name": "",
          "type": "bytes32"
        }
      ],
      "stateMutability": "view",
      "type": "function"
    },
    {
      "inputs": [],
      "name": "RETAILER_ROLE",
      "outputs": [
        {
          "internalType": "bytes32",
          "name": "",
          "type": "bytes32"
        }
      ],
      "stateMutability": "view",
      "type": "function"
    },
    {
      "inputs": [
        {
          "internalType": "address",
          "name": "distributor",
          "type": "address"
        }
      ],
      "name": "addDistributor",
      "outputs": [],
      "stateMutability": "nonpayable",
      "type": "function"
    },
    {
      "inputs": [
        {
          "internalType": "address",
          "name": "manufacturer",
          "type": "address"
        }
      ],
      "name": "addManufacturer",
      "outputs": [],
      "stateMutability": "nonpayable",
      "type": "function"
    },
    {
      "inputs": [
        {
          "internalType": "address",
          "name": "retailer",
          "type": "address"
        }
      ],
      "name": "addRetailer",
      "outputs": [],
      "stateMutability": "nonpayable",
      "type": "function"
    },
    {
      "inputs": [
        {
          "internalType": "uint256",
          "name": "",
          "type": "uint256"
        }
      ],
      "name": "allBatchIds",
      "outputs": [
        {
          "internalType": "bytes32",
          "name": "",
          "type": "bytes32"
        }
      ],
      "stateMutability": "view",
      "type": "function"
    },
    {
      "inputs": [],
      "name": "batchCount",
      "outputs": [
        {
          "internalType": "uint256",
          "name": "",
          "type": "uint256"
        }
      ],
      "stateMutability": "view",
      "type": "function"
    },
    {
      "inputs": [
        {
          "internalType": "address",
          "name": "",
          "type": "address"
        }
      ],
      "name": "batchCounter",
      "outputs": [
        {
          "internalType": "uint256",
          "name": "",
          "type": "uint256"
        }
      ],
      "stateMutability": "view",
      "type": "function"
    },
    {
      "inputs": [
        {
          "internalType": "bytes32",
          "name": "",
          "type": "bytes32"
        }
      ],
      "name": "batchIdToBatch",
      "outputs": [
        {
          "internalType": "bytes32",
          "name": "batchId",
          "type": "bytes32"
        },
        {
          "internalType": "address",
          "name": "manufacturer",
          "type": "address"
        },
        {
          "internalType": "address",
          "name": "distributor",
          "type": "address"
        },
        {
          "internalType": "address",
          "name": "retailer",
          "type": "address"
        },
        {
          "internalType": "uint256",
          "name": "expiryDate",
          "type": "uint256"
        },
        {
          "internalType": "uint256",
          "name": "timestamp",
          "type": "uint256"
        },
        {
          "internalType": "uint256",
          "name": "price",
          "type": "uint256"
        },
        {
          "internalType": "uint256",
          "name": "productPrice",
          "type": "uint256"
        },
        {
          "internalType": "enum DrugSupplyChain.BatchStatus",
          "name": "statusEnum",
          "type": "uint8"
        },
        {
          "internalType": "address",
          "name": "ipfsHash",
          "type": "address"
        }
      ],
      "stateMutability": "view",
      "type": "function"
    },
    {
      "inputs": [
        {
          "internalType": "string",
          "name": "roleName",
          "type": "string"
        },
        {
          "internalType": "address",
          "name": "account",
          "type": "address"
        }
      ],
      "name": "checkRole",
      "outputs": [
        {
          "internalType": "bool",
          "name": "",
          "type": "bool"
        }
      ],
      "stateMutability": "view",
      "type": "function"
    },
    {
      "inputs": [],
      "name": "dataFeed",
      "outputs": [
        {
          "internalType": "contract AggregatorV3Interface",
          "name": "",
          "type": "address"
        }
      ],
      "stateMutability": "view",
      "type": "function"
    },
    {
      "inputs": [],
      "name": "escrowContract",
      "outputs": [
        {
          "internalType": "contract Escrow",
          "name": "",
          "type": "address"
        }
      ],
      "stateMutability": "view",
      "type": "function"
    },
    {
      "inputs": [
        {
          "internalType": "address",
          "name": "account",
          "type": "address"
        }
      ],
      "name": "frozeAddress",
      "outputs": [],
      "stateMutability": "nonpayable",
      "type": "function"
    },
    {
      "inputs": [
        {
          "internalType": "bytes32",
          "name": "role",
          "type": "bytes32"
        }
      ],
      "name": "getRoleAdmin",
      "outputs": [
        {
          "internalType": "bytes32",
          "name": "",
          "type": "bytes32"
        }
      ],
      "stateMutability": "view",
      "type": "function"
    },
    {
      "inputs": [
        {
          "internalType": "bytes32",
          "name": "role",
          "type": "bytes32"
        },
        {
          "internalType": "address",
          "name": "account",
          "type": "address"
        }
      ],
      "name": "grantRole",
      "outputs": [],
      "stateMutability": "nonpayable",
      "type": "function"
    },
    {
      "inputs": [],
      "name": "handlingAddresses",
      "outputs": [
        {
          "internalType": "contract HandlingAddresses",
          "name": "",
          "type": "address"
        }
      ],
      "stateMutability": "view",
      "type": "function"
    },
    {
      "inputs": [
        {
          "internalType": "bytes32",
          "name": "role",
          "type": "bytes32"
        },
        {
          "internalType": "address",
          "name": "account",
          "type": "address"
        }
      ],
      "name": "hasRole",
      "outputs": [
        {
          "internalType": "bool",
          "name": "",
          "type": "bool"
        }
      ],
      "stateMutability": "view",
      "type": "function"
    },
    {
      "inputs": [
        {
          "internalType": "address",
          "name": "",
          "type": "address"
        }
      ],
      "name": "isFrozen",
      "outputs": [
        {
          "internalType": "bool",
          "name": "",
          "type": "bool"
        }
      ],
      "stateMutability": "view",
      "type": "function"
    },
    {
      "inputs": [],
      "name": "owner",
      "outputs": [
        {
          "internalType": "address",
          "name": "",
          "type": "address"
        }
      ],
      "stateMutability": "view",
      "type": "function"
    },
    {
      "inputs": [
        {
          "internalType": "address",
          "name": "",
          "type": "address"
        },
        {
          "internalType": "uint256",
          "name": "",
          "type": "uint256"
        }
      ],
      "name": "ownerToBatches",
      "outputs": [
        {
          "internalType": "bytes32",
          "name": "",
          "type": "bytes32"
        }
      ],
      "stateMutability": "view",
      "type": "function"
    },
    {
      "inputs": [
        {
          "internalType": "uint256",
          "name": "",
          "type": "uint256"
        }
      ],
      "name": "pendingRequests",
      "outputs": [
        {
          "internalType": "bytes32",
          "name": "batchId",
          "type": "bytes32"
        },
        {
          "internalType": "uint256",
          "name": "timestamp",
          "type": "uint256"
        },
        {
          "internalType": "address",
          "name": "requester",
          "type": "address"
        },
        {
          "internalType": "bool",
          "name": "refunded",
          "type": "bool"
        },
        {
          "internalType": "bool",
          "name": "approved",
          "type": "bool"
        },
        {
          "internalType": "string",
          "name": "reason",
          "type": "string"
        }
      ],
      "stateMutability": "view",
      "type": "function"
    },
    {
      "inputs": [
        {
          "internalType": "address",
          "name": "distributor",
          "type": "address"
        }
      ],
      "name": "removeDistributor",
      "outputs": [],
      "stateMutability": "nonpayable",
      "type": "function"
    },
    {
      "inputs": [
        {
          "internalType": "address",
          "name": "manufacturer",
          "type": "address"
        }
      ],
      "name": "removeManufacturer",
      "outputs": [],
      "stateMutability": "nonpayable",
      "type": "function"
    },
    {
      "inputs": [
        {
          "internalType": "address",
          "name": "retailer",
          "type": "address"
        }
      ],
      "name": "removeRetailer",
      "outputs": [],
      "stateMutability": "nonpayable",
      "type": "function"
    },
    {
      "inputs": [
        {
          "internalType": "bytes32",
          "name": "role",
          "type": "bytes32"
        },
        {
          "internalType": "address",
          "name": "callerConfirmation",
          "type": "address"
        }
      ],
      "name": "renounceRole",
      "outputs": [],
      "stateMutability": "nonpayable",
      "type": "function"
    },
    {
      "inputs": [
        {
          "internalType": "bytes32",
          "name": "",
          "type": "bytes32"
        }
      ],
      "name": "returnRequests",
      "outputs": [
        {
          "internalType": "bytes32",
          "name": "batchId",
          "type": "bytes32"
        },
        {
          "internalType": "uint256",
          "name": "timestamp",
          "type": "uint256"
        },
        {
          "internalType": "address",
          "name": "requester",
          "type": "address"
        },
        {
          "internalType": "bool",
          "name": "refunded",
          "type": "bool"
        },
        {
          "internalType": "bool",
          "name": "approved",
          "type": "bool"
        },
        {
          "internalType": "string",
          "name": "reason",
          "type": "string"
        }
      ],
      "stateMutability": "view",
      "type": "function"
    },
    {
      "inputs": [
        {
          "internalType": "bytes32",
          "name": "role",
          "type": "bytes32"
        },
        {
          "internalType": "address",
          "name": "account",
          "type": "address"
        }
      ],
      "name": "revokeRole",
      "outputs": [],
      "stateMutability": "nonpayable",
      "type": "function"
    },
    {
      "inputs": [
        {
          "internalType": "bytes4",
          "name": "interfaceId",
          "type": "bytes4"
        }
      ],
      "name": "supportsInterface",
      "outputs": [
        {
          "internalType": "bool",
          "name": "",
          "type": "bool"
        }
      ],
      "stateMutability": "view",
      "type": "function"
    },
    {
      "inputs": [
        {
          "internalType": "address",
          "name": "account",
          "type": "address"
        }
      ],
      "name": "unfreezeAddress",
      "outputs": [],
      "stateMutability": "nonpayable",
      "type": "function"
    },
    {
      "inputs": [],
      "name": "withdraw",
      "outputs": [],
      "stateMutability": "nonpayable",
      "type": "function"
    }
  ],
  "bytecode": "0x608060405234801561001057600080fd5b50604051612acc380380612acc83398181016040528101906100329190610324565b6100456000801b3361015260201b60201c565b5033600c60006101000a81548173ffffffffffffffffffffffffffffffffffffffff021916908373ffffffffffffffffffffffffffffffffffffffff16021790555081600a60006101000a81548173ffffffffffffffffffffffffffffffffffffffff021916908373ffffffffffffffffffffffffffffffffffffffff16021790555082600960006101000a81548173ffffffffffffffffffffffffffffffffffffffff021916908373ffffffffffffffffffffffffffffffffffffffff16021790555080600b60006101000a81548173ffffffffffffffffffffffffffffffffffffffff021916908373ffffffffffffffffffffffffffffffffffffffff160217905550505050610377565b6000610164838361024f60201b60201c565b61024457600160008085815260200190815260200160002060000160008473ffffffffffffffffffffffffffffffffffffffff1673ffffffffffffffffffffffffffffffffffffffff16815260200190815260200160002060006101000a81548160ff0219169083151502179055506101e16102b960201b60201c565b73ffffffffffffffffffffffffffffffffffffffff168273ffffffffffffffffffffffffffffffffffffffff16847f2f8788117e7eff1d82e926ec794901d17c78024a50270940304540a733656f0d60405160405180910390a460019050610249565b600090505b92915050565b600080600084815260200190815260200160002060000160008373ffffffffffffffffffffffffffffffffffffffff1673ffffffffffffffffffffffffffffffffffffffff16815260200190815260200160002060009054906101000a900460ff16905092915050565b600033905090565b600080fd5b600073ffffffffffffffffffffffffffffffffffffffff82169050919050565b60006102f1826102c6565b9050919050565b610301816102e6565b811461030c57600080fd5b50565b60008151905061031e816102f8565b92915050565b60008060006060848603121561033d5761033c6102c1565b5b600061034b8682870161030f565b935050602061035c8682870161030f565b925050604061036d8682870161030f565b9150509250925092565b612746806103866000396000f3fe608060405234801561001057600080fd5b50600436106101f05760003560e01c80638da5cb5b1161010f578063a217fddf116100a2578063d547741f11610071578063d547741f146105dc578063e42a96e7146105f8578063e583983614610616578063f0bd87cc14610646576101f0565b8063a217fddf14610554578063bfb8054714610572578063c1c460a61461058e578063cf30c705146105ac576101f0565b806399fd9cfb116100de57806399fd9cfb146104ac5780639de7c3b7146104c85780639e42ff90146105015780639fb655291461051f576101f0565b80638da5cb5b146104245780638ec4f5051461044257806391d148541461045e578063965288b01461048e576101f0565b80633ccfd60b116101875780636a75323f116101565780636a75323f146103a057806370099ec8146103bc5780637026fe9c146103d85780637250e22414610408576101f0565b80633ccfd60b1461032e57806357c1f9e2146103385780635f8a5afa146103545780636a0f9f7014610370576101f0565b8063290b17ec116101c3578063290b17ec146102915780632f2ff15d146102c157806336568abe146102dd5780633c652a9a146102f9576101f0565b806301ffc9a7146101f557806306f13056146102255780632115e7bf14610243578063248a9ca314610261575b600080fd5b61020f600480360381019061020a9190611b7e565b610664565b60405161021c9190611bc6565b60405180910390f35b61022d6106de565b60405161023a9190611bfa565b60405180910390f35b61024b6106e4565b6040516102589190611c2e565b60405180910390f35b61027b60048036038101906102769190611c75565b610708565b6040516102889190611c2e565b60405180910390f35b6102ab60048036038101906102a69190611cce565b610727565b6040516102b89190611c2e565b60405180910390f35b6102db60048036038101906102d69190611d59565b61074b565b005b6102f760048036038101906102f29190611d59565b61076d565b005b610313600480360381019061030e9190611cce565b6107e8565b60405161032596959493929190611e38565b60405180910390f35b6103366108f6565b005b610352600480360381019061034d9190611ea0565b610a29565b005b61036e60048036038101906103699190611ea0565b610a64565b005b61038a60048036038101906103859190611ea0565b610c54565b6040516103979190611bfa565b60405180910390f35b6103ba60048036038101906103b59190611ea0565b610c6c565b005b6103d660048036038101906103d19190611ea0565b610ca7565b005b6103f260048036038101906103ed9190612002565b610ce2565b6040516103ff9190611bc6565b60405180910390f35b610422600480360381019061041d9190611ea0565b610e37565b005b61042c611027565b604051610439919061205e565b60405180910390f35b61045c60048036038101906104579190611ea0565b61104d565b005b61047860048036038101906104739190611d59565b61123d565b6040516104859190611bc6565b60405180910390f35b6104966112a7565b6040516104a39190611c2e565b60405180910390f35b6104c660048036038101906104c19190611ea0565b6112cb565b005b6104e260048036038101906104dd9190611c75565b61145a565b6040516104f89a999897969594939291906120f0565b60405180910390f35b61050961153b565b60405161051691906121eb565b60405180910390f35b61053960048036038101906105349190611c75565b611561565b60405161054b96959493929190611e38565b60405180910390f35b61055c61165f565b6040516105699190611c2e565b60405180910390f35b61058c60048036038101906105879190611ea0565b611666565b005b610596611775565b6040516105a39190612227565b60405180910390f35b6105c660048036038101906105c19190612242565b61179b565b6040516105d39190611c2e565b60405180910390f35b6105f660048036038101906105f19190611d59565b6117cc565b005b6106006117ee565b60405161060d91906122a3565b60405180910390f35b610630600480360381019061062b9190611ea0565b611814565b60405161063d9190611bc6565b60405180910390f35b61064e611834565b60405161065b9190611c2e565b60405180910390f35b60007f7965db0b000000000000000000000000000000000000000000000000000000007bffffffffffffffffffffffffffffffffffffffffffffffffffffffff1916827bffffffffffffffffffffffffffffffffffffffffffffffffffffffff191614806106d757506106d682611858565b5b9050919050565b60085481565b7f2a5f906c256a5d799494fcd066e1f6c077689de1cdb65052a1624de4bace99bf81565b6000806000838152602001908152602001600020600101549050919050565b6007818154811061073757600080fd5b906000526020600020016000915090505481565b61075482610708565b61075d816118c2565b61076783836118d6565b50505050565b6107756119c7565b73ffffffffffffffffffffffffffffffffffffffff168173ffffffffffffffffffffffffffffffffffffffff16146107d9576040517f6697b23200000000000000000000000000000000000000000000000000000000815260040160405180910390fd5b6107e382826119cf565b505050565b600681815481106107f857600080fd5b90600052602060002090600402016000915090508060000154908060010154908060020160009054906101000a900473ffffffffffffffffffffffffffffffffffffffff16908060020160149054906101000a900460ff16908060020160159054906101000a900460ff1690806003018054610873906122ed565b80601f016020809104026020016040519081016040528092919081815260200182805461089f906122ed565b80156108ec5780601f106108c1576101008083540402835291602001916108ec565b820191906000526020600020905b8154815290600101906020018083116108cf57829003601f168201915b5050505050905086565b600b60009054906101000a900473ffffffffffffffffffffffffffffffffffffffff1673ffffffffffffffffffffffffffffffffffffffff166391d148546000801b336040518363ffffffff1660e01b815260040161095692919061231e565b602060405180830381865afa158015610973573d6000803e3d6000fd5b505050506040513d601f19601f820116820180604052508101906109979190612373565b50600a60009054906101000a900473ffffffffffffffffffffffffffffffffffffffff1673ffffffffffffffffffffffffffffffffffffffff16630357371d33476040518363ffffffff1660e01b81526004016109f59291906123a0565b600060405180830381600087803b158015610a0f57600080fd5b505af1158015610a23573d6000803e3d6000fd5b50505050565b6000801b610a36816118c2565b610a607ffbd454f36a7e1a388bd6fc3ab10d434aa4578f811acbbcf33afb1c697486313c836117cc565b5050565b6000801b610a71816118c2565b81610a9c7feefb95e842a3287179d933b4460be539a1d5af11aa8b325bb45c5c8dc92de4ed8261123d565b15610ade57806040517f375795b9000000000000000000000000000000000000000000000000000000008152600401610ad59190612415565b60405180910390fd5b610b087f2a5f906c256a5d799494fcd066e1f6c077689de1cdb65052a1624de4bace99bf8261123d565b15610b4a57806040517f375795b9000000000000000000000000000000000000000000000000000000008152600401610b41919061248f565b60405180910390fd5b610b747ffbd454f36a7e1a388bd6fc3ab10d434aa4578f811acbbcf33afb1c697486313c8261123d565b15610bb657806040517f375795b9000000000000000000000000000000000000000000000000000000008152600401610bad9190612509565b60405180910390fd5b600073ffffffffffffffffffffffffffffffffffffffff168173ffffffffffffffffffffffffffffffffffffffff1603610c25576040517f08c379a0000000000000000000000000000000000000000000000000000000008152600401610c1c90612583565b60405180910390fd5b610c4f7feefb95e842a3287179d933b4460be539a1d5af11aa8b325bb45c5c8dc92de4ed8461074b565b505050565b60026020528060005260406000206000915090505481565b6000801b610c79816118c2565b610ca37feefb95e842a3287179d933b4460be539a1d5af11aa8b325bb45c5c8dc92de4ed836117cc565b5050565b6000801b610cb4816118c2565b610cde7f2a5f906c256a5d799494fcd066e1f6c077689de1cdb65052a1624de4bace99bf836117cc565b5050565b6000807feefb95e842a3287179d933b4460be539a1d5af11aa8b325bb45c5c8dc92de4ed848051906020012003610d3b577feefb95e842a3287179d933b4460be539a1d5af11aa8b325bb45c5c8dc92de4ed9050610e24565b7ffbd454f36a7e1a388bd6fc3ab10d434aa4578f811acbbcf33afb1c697486313c848051906020012003610d91577ffbd454f36a7e1a388bd6fc3ab10d434aa4578f811acbbcf33afb1c697486313c9050610e23565b7f2a5f906c256a5d799494fcd066e1f6c077689de1cdb65052a1624de4bace99bf848051906020012003610de7577f2a5f906c256a5d799494fcd066e1f6c077689de1cdb65052a1624de4bace99bf9050610e22565b6040517f08c379a0000000000000000000000000000000000000000000000000000000008152600401610e19906125ef565b60405180910390fd5b5b5b610e2e818461123d565b91505092915050565b6000801b610e44816118c2565b81610e6f7feefb95e842a3287179d933b4460be539a1d5af11aa8b325bb45c5c8dc92de4ed8261123d565b15610eb157806040517f375795b9000000000000000000000000000000000000000000000000000000008152600401610ea89190612415565b60405180910390fd5b610edb7f2a5f906c256a5d799494fcd066e1f6c077689de1cdb65052a1624de4bace99bf8261123d565b15610f1d57806040517f375795b9000000000000000000000000000000000000000000000000000000008152600401610f14919061248f565b60405180910390fd5b610f477ffbd454f36a7e1a388bd6fc3ab10d434aa4578f811acbbcf33afb1c697486313c8261123d565b15610f8957806040517f375795b9000000000000000000000000000000000000000000000000000000008152600401610f809190612509565b60405180910390fd5b600073ffffffffffffffffffffffffffffffffffffffff168173ffffffffffffffffffffffffffffffffffffffff1603610ff8576040517f08c379a0000000000000000000000000000000000000000000000000000000008152600401610fef90612583565b60405180910390fd5b6110227ffbd454f36a7e1a388bd6fc3ab10d434aa4578f811acbbcf33afb1c697486313c8461074b565b505050565b600c60009054906101000a900473ffffffffffffffffffffffffffffffffffffffff1681565b6000801b61105a816118c2565b816110857feefb95e842a3287179d933b4460be539a1d5af11aa8b325bb45c5c8dc92de4ed8261123d565b156110c757806040517f375795b90000000000000000000000000000000000000000000000000000000081526004016110be9190612415565b60405180910390fd5b6110f17f2a5f906c256a5d799494fcd066e1f6c077689de1cdb65052a1624de4bace99bf8261123d565b1561113357806040517f375795b900000000000000000000000000000000000000000000000000000000815260040161112a919061248f565b60405180910390fd5b61115d7ffbd454f36a7e1a388bd6fc3ab10d434aa4578f811acbbcf33afb1c697486313c8261123d565b1561119f57806040517f375795b90000000000000000000000000000000000000000000000000000000081526004016111969190612509565b60405180910390fd5b600073ffffffffffffffffffffffffffffffffffffffff168173ffffffffffffffffffffffffffffffffffffffff160361120e576040517f08c379a000000000000000000000000000000000000000000000000000000000815260040161120590612583565b60405180910390fd5b6112387f2a5f906c256a5d799494fcd066e1f6c077689de1cdb65052a1624de4bace99bf8461074b565b505050565b600080600084815260200190815260200160002060000160008373ffffffffffffffffffffffffffffffffffffffff1673ffffffffffffffffffffffffffffffffffffffff16815260200190815260200160002060009054906101000a900460ff16905092915050565b7feefb95e842a3287179d933b4460be539a1d5af11aa8b325bb45c5c8dc92de4ed81565b6000801b6112d8816118c2565b600073ffffffffffffffffffffffffffffffffffffffff168273ffffffffffffffffffffffffffffffffffffffff1603611347576040517f08c379a000000000000000000000000000000000000000000000000000000000815260040161133e9061265b565b60405180910390fd5b60018060008473ffffffffffffffffffffffffffffffffffffffff1673ffffffffffffffffffffffffffffffffffffffff16815260200190815260200160002060006101000a81548160ff0219169083151502179055506113c87feefb95e842a3287179d933b4460be539a1d5af11aa8b325bb45c5c8dc92de4ed836119cf565b506113f37ffbd454f36a7e1a388bd6fc3ab10d434aa4578f811acbbcf33afb1c697486313c836119cf565b5061141e7f2a5f906c256a5d799494fcd066e1f6c077689de1cdb65052a1624de4bace99bf836119cf565b507f90811a8edd3b3c17eeaefffc17f639cc69145d41a359c9843994dc25382036908260405161144e919061205e565b60405180910390a15050565b60036020528060005260406000206000915090508060000154908060010160009054906101000a900473ffffffffffffffffffffffffffffffffffffffff16908060020160009054906101000a900473ffffffffffffffffffffffffffffffffffffffff16908060030160009054906101000a900473ffffffffffffffffffffffffffffffffffffffff16908060040154908060050154908060060154908060070154908060080160009054906101000a900460ff16908060080160019054906101000a900473ffffffffffffffffffffffffffffffffffffffff1690508a565b600960009054906101000a900473ffffffffffffffffffffffffffffffffffffffff1681565b60046020528060005260406000206000915090508060000154908060010154908060020160009054906101000a900473ffffffffffffffffffffffffffffffffffffffff16908060020160149054906101000a900460ff16908060020160159054906101000a900460ff16908060030180546115dc906122ed565b80601f0160208091040260200160405190810160405280929190818152602001828054611608906122ed565b80156116555780601f1061162a57610100808354040283529160200191611655565b820191906000526020600020905b81548152906001019060200180831161163857829003601f168201915b5050505050905086565b6000801b81565b6000801b611673816118c2565b600073ffffffffffffffffffffffffffffffffffffffff168273ffffffffffffffffffffffffffffffffffffffff16036116e2576040517f08c379a00000000000000000000000000000000000000000000000000000000081526004016116d9906126c7565b60405180910390fd5b6000600160008473ffffffffffffffffffffffffffffffffffffffff1673ffffffffffffffffffffffffffffffffffffffff16815260200190815260200160002060006101000a81548160ff0219169083151502179055507fc3776b472ebf54114339eec9e4dc924e7ce307a97f5c1ee72b6d474e6e5e8b7c82604051611769919061205e565b60405180910390a15050565b600b60009054906101000a900473ffffffffffffffffffffffffffffffffffffffff1681565b600560205281600052604060002081815481106117b757600080fd5b90600052602060002001600091509150505481565b6117d582610708565b6117de816118c2565b6117e883836119cf565b50505050565b600a60009054906101000a900473ffffffffffffffffffffffffffffffffffffffff1681565b60016020528060005260406000206000915054906101000a900460ff1681565b7ffbd454f36a7e1a388bd6fc3ab10d434aa4578f811acbbcf33afb1c697486313c81565b60007f01ffc9a7000000000000000000000000000000000000000000000000000000007bffffffffffffffffffffffffffffffffffffffffffffffffffffffff1916827bffffffffffffffffffffffffffffffffffffffffffffffffffffffff1916149050919050565b6118d3816118ce6119c7565b611ac1565b50565b60006118e2838361123d565b6119bc57600160008085815260200190815260200160002060000160008473ffffffffffffffffffffffffffffffffffffffff1673ffffffffffffffffffffffffffffffffffffffff16815260200190815260200160002060006101000a81548160ff0219169083151502179055506119596119c7565b73ffffffffffffffffffffffffffffffffffffffff168273ffffffffffffffffffffffffffffffffffffffff16847f2f8788117e7eff1d82e926ec794901d17c78024a50270940304540a733656f0d60405160405180910390a4600190506119c1565b600090505b92915050565b600033905090565b60006119db838361123d565b15611ab657600080600085815260200190815260200160002060000160008473ffffffffffffffffffffffffffffffffffffffff1673ffffffffffffffffffffffffffffffffffffffff16815260200190815260200160002060006101000a81548160ff021916908315150217905550611a536119c7565b73ffffffffffffffffffffffffffffffffffffffff168273ffffffffffffffffffffffffffffffffffffffff16847ff6391f5c32d9c69d2a47ea670b442974b53935d1edc7fd64eb21e047a839171b60405160405180910390a460019050611abb565b600090505b92915050565b611acb828261123d565b611b0e5780826040517fe2517d3f000000000000000000000000000000000000000000000000000000008152600401611b059291906126e7565b60405180910390fd5b5050565b6000604051905090565b600080fd5b600080fd5b60007fffffffff0000000000000000000000000000000000000000000000000000000082169050919050565b611b5b81611b26565b8114611b6657600080fd5b50565b600081359050611b7881611b52565b92915050565b600060208284031215611b9457611b93611b1c565b5b6000611ba284828501611b69565b91505092915050565b60008115159050919050565b611bc081611bab565b82525050565b6000602082019050611bdb6000830184611bb7565b92915050565b6000819050919050565b611bf481611be1565b82525050565b6000602082019050611c0f6000830184611beb565b92915050565b6000819050919050565b611c2881611c15565b82525050565b6000602082019050611c436000830184611c1f565b92915050565b611c5281611c15565b8114611c5d57600080fd5b50565b600081359050611c6f81611c49565b92915050565b600060208284031215611c8b57611c8a611b1c565b5b6000611c9984828501611c60565b91505092915050565b611cab81611be1565b8114611cb657600080fd5b50565b600081359050611cc881611ca2565b92915050565b600060208284031215611ce457611ce3611b1c565b5b6000611cf284828501611cb9565b91505092915050565b600073ffffffffffffffffffffffffffffffffffffffff82169050919050565b6000611d2682611cfb565b9050919050565b611d3681611d1b565b8114611d4157600080fd5b50565b600081359050611d5381611d2d565b92915050565b60008060408385031215611d7057611d6f611b1c565b5b6000611d7e85828601611c60565b9250506020611d8f85828601611d44565b9150509250929050565b611da281611d1b565b82525050565b600081519050919050565b600082825260208201905092915050565b60005b83811015611de2578082015181840152602081019050611dc7565b60008484015250505050565b6000601f19601f8301169050919050565b6000611e0a82611da8565b611e148185611db3565b9350611e24818560208601611dc4565b611e2d81611dee565b840191505092915050565b600060c082019050611e4d6000830189611c1f565b611e5a6020830188611beb565b611e676040830187611d99565b611e746060830186611bb7565b611e816080830185611bb7565b81810360a0830152611e938184611dff565b9050979650505050505050565b600060208284031215611eb657611eb5611b1c565b5b6000611ec484828501611d44565b91505092915050565b600080fd5b600080fd5b7f4e487b7100000000000000000000000000000000000000000000000000000000600052604160045260246000fd5b611f0f82611dee565b810181811067ffffffffffffffff82111715611f2e57611f2d611ed7565b5b80604052505050565b6000611f41611b12565b9050611f4d8282611f06565b919050565b600067ffffffffffffffff821115611f6d57611f6c611ed7565b5b611f7682611dee565b9050602081019050919050565b82818337600083830152505050565b6000611fa5611fa084611f52565b611f37565b905082815260208101848484011115611fc157611fc0611ed2565b5b611fcc848285611f83565b509392505050565b600082601f830112611fe957611fe8611ecd565b5b8135611ff9848260208601611f92565b91505092915050565b6000806040838503121561201957612018611b1c565b5b600083013567ffffffffffffffff81111561203757612036611b21565b5b61204385828601611fd4565b925050602061205485828601611d44565b9150509250929050565b60006020820190506120736000830184611d99565b92915050565b7f4e487b7100000000000000000000000000000000000000000000000000000000600052602160045260246000fd5b600981106120b9576120b8612079565b5b50565b60008190506120ca826120a8565b919050565b60006120da826120bc565b9050919050565b6120ea816120cf565b82525050565b600061014082019050612106600083018d611c1f565b612113602083018c611d99565b612120604083018b611d99565b61212d606083018a611d99565b61213a6080830189611beb565b61214760a0830188611beb565b61215460c0830187611beb565b61216160e0830186611beb565b61216f6101008301856120e1565b61217d610120830184611d99565b9b9a5050505050505050505050565b6000819050919050565b60006121b16121ac6121a784611cfb565b61218c565b611cfb565b9050919050565b60006121c382612196565b9050919050565b60006121d5826121b8565b9050919050565b6121e5816121ca565b82525050565b600060208201905061220060008301846121dc565b92915050565b6000612211826121b8565b9050919050565b61222181612206565b82525050565b600060208201905061223c6000830184612218565b92915050565b6000806040838503121561225957612258611b1c565b5b600061226785828601611d44565b925050602061227885828601611cb9565b9150509250929050565b600061228d826121b8565b9050919050565b61229d81612282565b82525050565b60006020820190506122b86000830184612294565b92915050565b7f4e487b7100000000000000000000000000000000000000000000000000000000600052602260045260246000fd5b6000600282049050600182168061230557607f821691505b602082108103612318576123176122be565b5b50919050565b60006040820190506123336000830185611c1f565b6123406020830184611d99565b9392505050565b61235081611bab565b811461235b57600080fd5b50565b60008151905061236d81612347565b92915050565b60006020828403121561238957612388611b1c565b5b60006123978482850161235e565b91505092915050565b60006040820190506123b56000830185611d99565b6123c26020830184611beb565b9392505050565b7f4d616e7566616374757265720000000000000000000000000000000000000000600082015250565b60006123ff600c83611db3565b915061240a826123c9565b602082019050919050565b6000604082019050818103600083015261242e816123f2565b905061243d6020830184611d99565b92915050565b7f52657461696c6572000000000000000000000000000000000000000000000000600082015250565b6000612479600883611db3565b915061248482612443565b602082019050919050565b600060408201905081810360008301526124a88161246c565b90506124b76020830184611d99565b92915050565b7f4469737472696275746f72000000000000000000000000000000000000000000600082015250565b60006124f3600b83611db3565b91506124fe826124bd565b602082019050919050565b60006040820190508181036000830152612522816124e6565b90506125316020830184611d99565b92915050565b7f4164647265737320496e76616c69640000000000000000000000000000000000600082015250565b600061256d600f83611db3565b915061257882612537565b602082019050919050565b6000602082019050818103600083015261259c81612560565b9050919050565b7f496e76616c696420726f6c65206e616d65000000000000000000000000000000600082015250565b60006125d9601183611db3565b91506125e4826125a3565b602082019050919050565b60006020820190508181036000830152612608816125cc565b9050919050565b7f43616e6e6f7420667265657a6520746865207a65726f20616464726573730000600082015250565b6000612645601e83611db3565b91506126508261260f565b602082019050919050565b6000602082019050818103600083015261267481612638565b9050919050565b7f43616e6e6f7420756e667265657a6520746865207a65726f2061646472657373600082015250565b60006126b1602083611db3565b91506126bc8261267b565b602082019050919050565b600060208201905081810360008301526126e0816126a4565b9050919050565b60006040820190506126fc6000830185611d99565b6127096020830184611c1f565b939250505056fea264697066735822122093c764278deefd5fc594b1234f77d801c960112a944064179c0d0abe6b630f0164736f6c634300081c0033",
  "linkReferences": {},
  "deployedLinkReferences": {}
}