{
  "_format": "hh-sol-artifact-1",
  "contractName": "DrugSupplyChain",
  "sourceName": "contracts/DrugSupplyChain.sol",
  "abi": [
    {
      "inputs": [
        {
          "internalType": "address",
          "name": "_priceFeedAddress",
          "type": "address"
        },
        {
          "internalType": "address",
          "name": "_escrowAddress",
          "type": "address"
        },
        {
          "internalType": "address",
          "name": "_handlingAddresses",
          "type": "address"
        }
      ],
      "stateMutability": "nonpayable",
      "type": "constructor"
    },
    {
      "inputs": [],
      "name": "AccessControlBadConfirmation",
      "type": "error"
    },
    {
      "inputs": [
        {
          "internalType": "address",
          "name": "account",
          "type": "address"
        },
        {
          "internalType": "bytes32",
          "name": "neededRole",
          "type": "bytes32"
        }
      ],
      "name": "AccessControlUnauthorizedAccount",
      "type": "error"
    },
    {
      "inputs": [
        {
          "internalType": "string",
          "name": "role",
          "type": "string"
        },
        {
          "internalType": "address",
          "name": "account",
          "type": "address"
        }
      ],
      "name": "AddressAlreadyExists",
      "type": "error"
    },
    {
      "inputs": [
        {
          "internalType": "address",
          "name": "account",
          "type": "address"
        }
      ],
      "name": "AddressInvalid",
      "type": "error"
    },
    {
      "inputs": [
        {
          "internalType": "uint256",
          "name": "_usdAmount",
          "type": "uint256"
        }
      ],
      "name": "InvalidAmount",
      "type": "error"
    },
    {
      "anonymous": false,
      "inputs": [
        {
          "indexed": false,
          "internalType": "address",
          "name": "account",
          "type": "address"
        }
      ],
      "name": "AddressFrozen",
      "type": "event"
    },
    {
      "anonymous": false,
      "inputs": [
        {
          "indexed": false,
          "internalType": "address",
          "name": "account",
          "type": "address"
        }
      ],
      "name": "AddressUnfrozen",
      "type": "event"
    },
    {
      "anonymous": false,
      "inputs": [
        {
          "indexed": true,
          "internalType": "bytes32",
          "name": "batchId",
          "type": "bytes32"
        },
        {
          "indexed": false,
          "internalType": "uint256",
          "name": "timestamp",
          "type": "uint256"
        }
      ],
      "name": "BatchCreated",
      "type": "event"
    },
    {
      "anonymous": false,
      "inputs": [
        {
          "indexed": true,
          "internalType": "bytes32",
          "name": "batchId",
          "type": "bytes32"
        },
        {
          "indexed": false,
          "internalType": "address",
          "name": "distributor",
          "type": "address"
        },
        {
          "indexed": false,
          "internalType": "enum DrugSupplyChain.BatchStatus",
          "name": "statusEnum",
          "type": "uint8"
        },
        {
          "indexed": false,
          "internalType": "uint256",
          "name": "price",
          "type": "uint256"
        },
        {
          "indexed": false,
          "internalType": "uint256",
          "name": "timestamp",
          "type": "uint256"
        }
      ],
      "name": "DistributerPurchased",
      "type": "event"
    },
    {
      "anonymous": false,
      "inputs": [
        {
          "indexed": true,
          "internalType": "bytes32",
          "name": "batchId",
          "type": "bytes32"
        },
        {
          "indexed": false,
          "internalType": "enum DrugSupplyChain.BatchStatus",
          "name": "statusEnum",
          "type": "uint8"
        },
        {
          "indexed": true,
          "internalType": "address",
          "name": "distributor",
          "type": "address"
        },
        {
          "indexed": false,
          "internalType": "uint256",
          "name": "price",
          "type": "uint256"
        },
        {
          "indexed": false,
          "internalType": "uint256",
          "name": "timestamp",
          "type": "uint256"
        },
        {
          "indexed": false,
          "internalType": "string",
          "name": "reason",
          "type": "string"
        }
      ],
      "name": "EligibleForResell",
      "type": "event"
    },
    {
      "anonymous": false,
      "inputs": [
        {
          "indexed": true,
          "internalType": "bytes32",
          "name": "batchId",
          "type": "bytes32"
        },
        {
          "indexed": true,
          "internalType": "address",
          "name": "to",
          "type": "address"
        },
        {
          "indexed": true,
          "internalType": "uint256",
          "name": "timestamp",
          "type": "uint256"
        },
        {
          "indexed": false,
          "internalType": "bool",
          "name": "refunded",
          "type": "bool"
        },
        {
          "indexed": false,
          "internalType": "string",
          "name": "reason",
          "type": "string"
        }
      ],
      "name": "Refunded",
      "type": "event"
    },
    {
      "anonymous": false,
      "inputs": [
        {
          "indexed": true,
          "internalType": "bytes32",
          "name": "batchId",
          "type": "bytes32"
        },
        {
          "indexed": true,
          "internalType": "address",
          "name": "requester",
          "type": "address"
        },
        {
          "indexed": true,
          "internalType": "uint256",
          "name": "timestamp",
          "type": "uint256"
        },
        {
          "indexed": false,
          "internalType": "bool",
          "name": "approved",
          "type": "bool"
        },
        {
          "indexed": false,
          "internalType": "string",
          "name": "reason",
          "type": "string"
        }
      ],
      "name": "RequestApproved",
      "type": "event"
    },
    {
      "anonymous": false,
      "inputs": [
        {
          "indexed": true,
          "internalType": "bytes32",
          "name": "batchId",
          "type": "bytes32"
        },
        {
          "indexed": false,
          "internalType": "enum DrugSupplyChain.BatchStatus",
          "name": "statusEnum",
          "type": "uint8"
        },
        {
          "indexed": true,
          "internalType": "address",
          "name": "distributor",
          "type": "address"
        },
        {
          "indexed": false,
          "internalType": "uint256",
          "name": "price",
          "type": "uint256"
        },
        {
          "indexed": false,
          "internalType": "uint256",
          "name": "timestamp",
          "type": "uint256"
        }
      ],
      "name": "ResellingDone",
      "type": "event"
    },
    {
      "anonymous": false,
      "inputs": [
        {
          "indexed": true,
          "internalType": "bytes32",
          "name": "batchId",
          "type": "bytes32"
        },
        {
          "indexed": false,
          "internalType": "address",
          "name": "retailer",
          "type": "address"
        },
        {
          "indexed": false,
          "internalType": "enum DrugSupplyChain.BatchStatus",
          "name": "statusEnum",
          "type": "uint8"
        },
        {
          "indexed": false,
          "internalType": "uint256",
          "name": "price",
          "type": "uint256"
        },
        {
          "indexed": false,
          "internalType": "uint256",
          "name": "timestamp",
          "type": "uint256"
        }
      ],
      "name": "RetailerPurchased",
      "type": "event"
    },
    {
      "anonymous": false,
      "inputs": [
        {
          "indexed": true,
          "internalType": "bytes32",
          "name": "batchId",
          "type": "bytes32"
        },
        {
          "indexed": true,
          "internalType": "uint256",
          "name": "timestamp",
          "type": "uint256"
        },
        {
          "indexed": true,
          "internalType": "address",
          "name": "requester",
          "type": "address"
        },
        {
          "indexed": false,
          "internalType": "bool",
          "name": "approved",
          "type": "bool"
        },
        {
          "indexed": false,
          "internalType": "bool",
          "name": "refunded",
          "type": "bool"
        },
        {
          "indexed": false,
          "internalType": "string",
          "name": "reason",
          "type": "string"
        }
      ],
      "name": "ReturnRequested",
      "type": "event"
    },
    {
      "anonymous": false,
      "inputs": [
        {
          "indexed": true,
          "internalType": "bytes32",
          "name": "role",
          "type": "bytes32"
        },
        {
          "indexed": true,
          "internalType": "bytes32",
          "name": "previousAdminRole",
          "type": "bytes32"
        },
        {
          "indexed": true,
          "internalType": "bytes32",
          "name": "newAdminRole",
          "type": "bytes32"
        }
      ],
      "name": "RoleAdminChanged",
      "type": "event"
    },
    {
      "anonymous": false,
      "inputs": [
        {
          "indexed": true,
          "internalType": "bytes32",
          "name": "role",
          "type": "bytes32"
        },
        {
          "indexed": true,
          "internalType": "address",
          "name": "account",
          "type": "address"
        },
        {
          "indexed": true,
          "internalType": "address",
          "name": "sender",
          "type": "address"
        }
      ],
      "name": "RoleGranted",
      "type": "event"
    },
    {
      "anonymous": false,
      "inputs": [
        {
          "indexed": true,
          "internalType": "bytes32",
          "name": "role",
          "type": "bytes32"
        },
        {
          "indexed": true,
          "internalType": "address",
          "name": "account",
          "type": "address"
        },
        {
          "indexed": true,
          "internalType": "address",
          "name": "sender",
          "type": "address"
        }
      ],
      "name": "RoleRevoked",
      "type": "event"
    },
    {
      "inputs": [],
      "name": "DEFAULT_ADMIN_ROLE",
      "outputs": [
        {
          "internalType": "bytes32",
          "name": "",
          "type": "bytes32"
        }
      ],
      "stateMutability": "view",
      "type": "function"
    },
    {
      "inputs": [],
      "name": "DISTRIBUTOR_ROLE",
      "outputs": [
        {
          "internalType": "bytes32",
          "name": "",
          "type": "bytes32"
        }
      ],
      "stateMutability": "view",
      "type": "function"
    },
    {
      "inputs": [],
      "name": "MANUFACTURER_ROLE",
      "outputs": [
        {
          "internalType": "bytes32",
          "name": "",
          "type": "bytes32"
        }
      ],
      "stateMutability": "view",
      "type": "function"
    },
    {
      "inputs": [],
      "name": "RETAILER_ROLE",
      "outputs": [
        {
          "internalType": "bytes32",
          "name": "",
          "type": "bytes32"
        }
      ],
      "stateMutability": "view",
      "type": "function"
    },
    {
      "inputs": [
        {
          "internalType": "address",
          "name": "distributor",
          "type": "address"
        }
      ],
      "name": "addDistributor",
      "outputs": [],
      "stateMutability": "nonpayable",
      "type": "function"
    },
    {
      "inputs": [
        {
          "internalType": "address",
          "name": "manufacturer",
          "type": "address"
        }
      ],
      "name": "addManufacturer",
      "outputs": [],
      "stateMutability": "nonpayable",
      "type": "function"
    },
    {
      "inputs": [
        {
          "internalType": "address",
          "name": "retailer",
          "type": "address"
        }
      ],
      "name": "addRetailer",
      "outputs": [],
      "stateMutability": "nonpayable",
      "type": "function"
    },
    {
      "inputs": [
        {
          "internalType": "uint256",
          "name": "",
          "type": "uint256"
        }
      ],
      "name": "allBatchIds",
      "outputs": [
        {
          "internalType": "bytes32",
          "name": "",
          "type": "bytes32"
        }
      ],
      "stateMutability": "view",
      "type": "function"
    },
    {
      "inputs": [],
      "name": "batchCount",
      "outputs": [
        {
          "internalType": "uint256",
          "name": "",
          "type": "uint256"
        }
      ],
      "stateMutability": "view",
      "type": "function"
    },
    {
      "inputs": [
        {
          "internalType": "address",
          "name": "",
          "type": "address"
        }
      ],
      "name": "batchCounter",
      "outputs": [
        {
          "internalType": "uint256",
          "name": "",
          "type": "uint256"
        }
      ],
      "stateMutability": "view",
      "type": "function"
    },
    {
      "inputs": [
        {
          "internalType": "bytes32",
          "name": "",
          "type": "bytes32"
        }
      ],
      "name": "batchIdToBatch",
      "outputs": [
        {
          "internalType": "bytes32",
          "name": "batchId",
          "type": "bytes32"
        },
        {
          "internalType": "address",
          "name": "manufacturer",
          "type": "address"
        },
        {
          "internalType": "address",
          "name": "distributor",
          "type": "address"
        },
        {
          "internalType": "address",
          "name": "retailer",
          "type": "address"
        },
        {
          "internalType": "uint256",
          "name": "expiryDate",
          "type": "uint256"
        },
        {
          "internalType": "uint256",
          "name": "timestamp",
          "type": "uint256"
        },
        {
          "internalType": "uint256",
          "name": "price",
          "type": "uint256"
        },
        {
          "internalType": "uint256",
          "name": "productPrice",
          "type": "uint256"
        },
        {
          "internalType": "enum DrugSupplyChain.BatchStatus",
          "name": "statusEnum",
          "type": "uint8"
        },
        {
          "internalType": "address",
          "name": "ipfsHash",
          "type": "address"
        }
      ],
      "stateMutability": "view",
      "type": "function"
    },
    {
      "inputs": [
        {
          "internalType": "uint256",
          "name": "_usdAmount",
          "type": "uint256"
        }
      ],
      "name": "calculateEthfromUSD",
      "outputs": [
        {
          "internalType": "uint256",
          "name": "",
          "type": "uint256"
        }
      ],
      "stateMutability": "view",
      "type": "function"
    },
    {
      "inputs": [
        {
          "internalType": "string",
          "name": "roleName",
          "type": "string"
        },
        {
          "internalType": "address",
          "name": "account",
          "type": "address"
        }
      ],
      "name": "checkRole",
      "outputs": [
        {
          "internalType": "bool",
          "name": "",
          "type": "bool"
        }
      ],
      "stateMutability": "view",
      "type": "function"
    },
    {
      "inputs": [],
      "name": "dataFeed",
      "outputs": [
        {
          "internalType": "contract AggregatorV3Interface",
          "name": "",
          "type": "address"
        }
      ],
      "stateMutability": "view",
      "type": "function"
    },
    {
      "inputs": [],
      "name": "escrowContract",
      "outputs": [
        {
          "internalType": "contract Escrow",
          "name": "",
          "type": "address"
        }
      ],
      "stateMutability": "view",
      "type": "function"
    },
    {
      "inputs": [
        {
          "internalType": "address",
          "name": "account",
          "type": "address"
        }
      ],
      "name": "frozeAddress",
      "outputs": [],
      "stateMutability": "nonpayable",
      "type": "function"
    },
    {
      "inputs": [
        {
          "internalType": "bytes32",
          "name": "role",
          "type": "bytes32"
        }
      ],
      "name": "getRoleAdmin",
      "outputs": [
        {
          "internalType": "bytes32",
          "name": "",
          "type": "bytes32"
        }
      ],
      "stateMutability": "view",
      "type": "function"
    },
    {
      "inputs": [
        {
          "internalType": "bytes32",
          "name": "role",
          "type": "bytes32"
        },
        {
          "internalType": "address",
          "name": "account",
          "type": "address"
        }
      ],
      "name": "grantRole",
      "outputs": [],
      "stateMutability": "nonpayable",
      "type": "function"
    },
    {
      "inputs": [],
      "name": "handlingAddresses",
      "outputs": [
        {
          "internalType": "contract HandlingAddresses",
          "name": "",
          "type": "address"
        }
      ],
      "stateMutability": "view",
      "type": "function"
    },
    {
      "inputs": [
        {
          "internalType": "bytes32",
          "name": "role",
          "type": "bytes32"
        },
        {
          "internalType": "address",
          "name": "account",
          "type": "address"
        }
      ],
      "name": "hasRole",
      "outputs": [
        {
          "internalType": "bool",
          "name": "",
          "type": "bool"
        }
      ],
      "stateMutability": "view",
      "type": "function"
    },
    {
      "inputs": [
        {
          "internalType": "address",
          "name": "",
          "type": "address"
        }
      ],
      "name": "isFrozen",
      "outputs": [
        {
          "internalType": "bool",
          "name": "",
          "type": "bool"
        }
      ],
      "stateMutability": "view",
      "type": "function"
    },
    {
      "inputs": [],
      "name": "owner",
      "outputs": [
        {
          "internalType": "address",
          "name": "",
          "type": "address"
        }
      ],
      "stateMutability": "view",
      "type": "function"
    },
    {
      "inputs": [
        {
          "internalType": "address",
          "name": "",
          "type": "address"
        },
        {
          "internalType": "uint256",
          "name": "",
          "type": "uint256"
        }
      ],
      "name": "ownerToBatches",
      "outputs": [
        {
          "internalType": "bytes32",
          "name": "",
          "type": "bytes32"
        }
      ],
      "stateMutability": "view",
      "type": "function"
    },
    {
      "inputs": [
        {
          "internalType": "uint256",
          "name": "",
          "type": "uint256"
        }
      ],
      "name": "pendingRequests",
      "outputs": [
        {
          "internalType": "bytes32",
          "name": "batchId",
          "type": "bytes32"
        },
        {
          "internalType": "uint256",
          "name": "timestamp",
          "type": "uint256"
        },
        {
          "internalType": "address",
          "name": "requester",
          "type": "address"
        },
        {
          "internalType": "bool",
          "name": "refunded",
          "type": "bool"
        },
        {
          "internalType": "bool",
          "name": "approved",
          "type": "bool"
        },
        {
          "internalType": "string",
          "name": "reason",
          "type": "string"
        }
      ],
      "stateMutability": "view",
      "type": "function"
    },
    {
      "inputs": [
        {
          "internalType": "address",
          "name": "distributor",
          "type": "address"
        }
      ],
      "name": "removeDistributor",
      "outputs": [],
      "stateMutability": "nonpayable",
      "type": "function"
    },
    {
      "inputs": [
        {
          "internalType": "address",
          "name": "manufacturer",
          "type": "address"
        }
      ],
      "name": "removeManufacturer",
      "outputs": [],
      "stateMutability": "nonpayable",
      "type": "function"
    },
    {
      "inputs": [
        {
          "internalType": "address",
          "name": "retailer",
          "type": "address"
        }
      ],
      "name": "removeRetailer",
      "outputs": [],
      "stateMutability": "nonpayable",
      "type": "function"
    },
    {
      "inputs": [
        {
          "internalType": "bytes32",
          "name": "role",
          "type": "bytes32"
        },
        {
          "internalType": "address",
          "name": "callerConfirmation",
          "type": "address"
        }
      ],
      "name": "renounceRole",
      "outputs": [],
      "stateMutability": "nonpayable",
      "type": "function"
    },
    {
      "inputs": [
        {
          "internalType": "bytes32",
          "name": "",
          "type": "bytes32"
        }
      ],
      "name": "returnRequests",
      "outputs": [
        {
          "internalType": "bytes32",
          "name": "batchId",
          "type": "bytes32"
        },
        {
          "internalType": "uint256",
          "name": "timestamp",
          "type": "uint256"
        },
        {
          "internalType": "address",
          "name": "requester",
          "type": "address"
        },
        {
          "internalType": "bool",
          "name": "refunded",
          "type": "bool"
        },
        {
          "internalType": "bool",
          "name": "approved",
          "type": "bool"
        },
        {
          "internalType": "string",
          "name": "reason",
          "type": "string"
        }
      ],
      "stateMutability": "view",
      "type": "function"
    },
    {
      "inputs": [
        {
          "internalType": "bytes32",
          "name": "role",
          "type": "bytes32"
        },
        {
          "internalType": "address",
          "name": "account",
          "type": "address"
        }
      ],
      "name": "revokeRole",
      "outputs": [],
      "stateMutability": "nonpayable",
      "type": "function"
    },
    {
      "inputs": [
        {
          "internalType": "bytes4",
          "name": "interfaceId",
          "type": "bytes4"
        }
      ],
      "name": "supportsInterface",
      "outputs": [
        {
          "internalType": "bool",
          "name": "",
          "type": "bool"
        }
      ],
      "stateMutability": "view",
      "type": "function"
    },
    {
      "inputs": [
        {
          "internalType": "address",
          "name": "account",
          "type": "address"
        }
      ],
      "name": "unfreezeAddress",
      "outputs": [],
      "stateMutability": "nonpayable",
      "type": "function"
    },
    {
      "inputs": [],
      "name": "withdraw",
      "outputs": [],
      "stateMutability": "nonpayable",
      "type": "function"
    }
  ],
  "bytecode": "0x608060405234801561001057600080fd5b50604051612eb2380380612eb283398181016040528101906100329190610324565b6100456000801b3361015260201b60201c565b5033600c60006101000a81548173ffffffffffffffffffffffffffffffffffffffff021916908373ffffffffffffffffffffffffffffffffffffffff16021790555081600a60006101000a81548173ffffffffffffffffffffffffffffffffffffffff021916908373ffffffffffffffffffffffffffffffffffffffff16021790555082600960006101000a81548173ffffffffffffffffffffffffffffffffffffffff021916908373ffffffffffffffffffffffffffffffffffffffff16021790555080600b60006101000a81548173ffffffffffffffffffffffffffffffffffffffff021916908373ffffffffffffffffffffffffffffffffffffffff160217905550505050610377565b6000610164838361024f60201b60201c565b61024457600160008085815260200190815260200160002060000160008473ffffffffffffffffffffffffffffffffffffffff1673ffffffffffffffffffffffffffffffffffffffff16815260200190815260200160002060006101000a81548160ff0219169083151502179055506101e16102b960201b60201c565b73ffffffffffffffffffffffffffffffffffffffff168273ffffffffffffffffffffffffffffffffffffffff16847f2f8788117e7eff1d82e926ec794901d17c78024a50270940304540a733656f0d60405160405180910390a460019050610249565b600090505b92915050565b600080600084815260200190815260200160002060000160008373ffffffffffffffffffffffffffffffffffffffff1673ffffffffffffffffffffffffffffffffffffffff16815260200190815260200160002060009054906101000a900460ff16905092915050565b600033905090565b600080fd5b600073ffffffffffffffffffffffffffffffffffffffff82169050919050565b60006102f1826102c6565b9050919050565b610301816102e6565b811461030c57600080fd5b50565b60008151905061031e816102f8565b92915050565b60008060006060848603121561033d5761033c6102c1565b5b600061034b8682870161030f565b935050602061035c8682870161030f565b925050604061036d8682870161030f565b9150509250925092565b612b2c806103866000396000f3fe608060405234801561001057600080fd5b50600436106101fb5760003560e01c80637250e2241161011a5780639fb65529116100ad578063cf30c7051161007c578063cf30c705146105e7578063d547741f14610617578063e42a96e714610633578063e583983614610651578063f0bd87cc14610681576101fb565b80639fb655291461055a578063a217fddf1461058f578063bfb80547146105ad578063c1c460a6146105c9576101fb565b8063965288b0116100e9578063965288b0146104c957806399fd9cfb146104e75780639de7c3b7146105035780639e42ff901461053c576101fb565b80637250e224146104435780638da5cb5b1461045f5780638ec4f5051461047d57806391d1485414610499576101fb565b80633ccfd60b116101925780636a0f9f70116101615780636a0f9f70146103ab5780636a75323f146103db57806370099ec8146103f75780637026fe9c14610413576101fb565b80633ccfd60b1461033957806357c1f9e2146103435780635f8a5afa1461035f578063606b5c421461037b576101fb565b8063290b17ec116101ce578063290b17ec1461029c5780632f2ff15d146102cc57806336568abe146102e85780633c652a9a14610304576101fb565b806301ffc9a71461020057806306f13056146102305780632115e7bf1461024e578063248a9ca31461026c575b600080fd5b61021a60048036038101906102159190611d1f565b61069f565b6040516102279190611d67565b60405180910390f35b610238610719565b6040516102459190611d9b565b60405180910390f35b61025661071f565b6040516102639190611dcf565b60405180910390f35b61028660048036038101906102819190611e16565b610743565b6040516102939190611dcf565b60405180910390f35b6102b660048036038101906102b19190611e6f565b610762565b6040516102c39190611dcf565b60405180910390f35b6102e660048036038101906102e19190611efa565b610786565b005b61030260048036038101906102fd9190611efa565b6107a8565b005b61031e60048036038101906103199190611e6f565b610823565b60405161033096959493929190611fd9565b60405180910390f35b610341610931565b005b61035d60048036038101906103589190612041565b610a64565b005b61037960048036038101906103749190612041565b610a9f565b005b61039560048036038101906103909190611e6f565b610c8f565b6040516103a29190611d9b565b60405180910390f35b6103c560048036038101906103c09190612041565b610d54565b6040516103d29190611d9b565b60405180910390f35b6103f560048036038101906103f09190612041565b610d6c565b005b610411600480360381019061040c9190612041565b610da7565b005b61042d600480360381019061042891906121a3565b610de2565b60405161043a9190611d67565b60405180910390f35b61045d60048036038101906104589190612041565b610f37565b005b610467611127565b60405161047491906121ff565b60405180910390f35b61049760048036038101906104929190612041565b61114d565b005b6104b360048036038101906104ae9190611efa565b61133d565b6040516104c09190611d67565b60405180910390f35b6104d16113a7565b6040516104de9190611dcf565b60405180910390f35b61050160048036038101906104fc9190612041565b6113cb565b005b61051d60048036038101906105189190611e16565b61155a565b6040516105339a99989796959493929190612291565b60405180910390f35b61054461163b565b604051610551919061238c565b60405180910390f35b610574600480360381019061056f9190611e16565b611661565b60405161058696959493929190611fd9565b60405180910390f35b61059761175f565b6040516105a49190611dcf565b60405180910390f35b6105c760048036038101906105c29190612041565b611766565b005b6105d1611875565b6040516105de91906123c8565b60405180910390f35b61060160048036038101906105fc91906123e3565b61189b565b60405161060e9190611dcf565b60405180910390f35b610631600480360381019061062c9190611efa565b6118cc565b005b61063b6118ee565b6040516106489190612444565b60405180910390f35b61066b60048036038101906106669190612041565b611914565b6040516106789190611d67565b60405180910390f35b610689611934565b6040516106969190611dcf565b60405180910390f35b60007f7965db0b000000000000000000000000000000000000000000000000000000007bffffffffffffffffffffffffffffffffffffffffffffffffffffffff1916827bffffffffffffffffffffffffffffffffffffffffffffffffffffffff19161480610712575061071182611958565b5b9050919050565b60085481565b7f2a5f906c256a5d799494fcd066e1f6c077689de1cdb65052a1624de4bace99bf81565b6000806000838152602001908152602001600020600101549050919050565b6007818154811061077257600080fd5b906000526020600020016000915090505481565b61078f82610743565b610798816119c2565b6107a283836119d6565b50505050565b6107b0611ac7565b73ffffffffffffffffffffffffffffffffffffffff168173ffffffffffffffffffffffffffffffffffffffff1614610814576040517f6697b23200000000000000000000000000000000000000000000000000000000815260040160405180910390fd5b61081e8282611acf565b505050565b6006818154811061083357600080fd5b90600052602060002090600402016000915090508060000154908060010154908060020160009054906101000a900473ffffffffffffffffffffffffffffffffffffffff16908060020160149054906101000a900460ff16908060020160159054906101000a900460ff16908060030180546108ae9061248e565b80601f01602080910402602001604051908101604052809291908181526020018280546108da9061248e565b80156109275780601f106108fc57610100808354040283529160200191610927565b820191906000526020600020905b81548152906001019060200180831161090a57829003601f168201915b5050505050905086565b600b60009054906101000a900473ffffffffffffffffffffffffffffffffffffffff1673ffffffffffffffffffffffffffffffffffffffff166391d148546000801b336040518363ffffffff1660e01b81526004016109919291906124bf565b602060405180830381865afa1580156109ae573d6000803e3d6000fd5b505050506040513d601f19601f820116820180604052508101906109d29190612514565b50600a60009054906101000a900473ffffffffffffffffffffffffffffffffffffffff1673ffffffffffffffffffffffffffffffffffffffff16630357371d33476040518363ffffffff1660e01b8152600401610a30929190612541565b600060405180830381600087803b158015610a4a57600080fd5b505af1158015610a5e573d6000803e3d6000fd5b50505050565b6000801b610a71816119c2565b610a9b7ffbd454f36a7e1a388bd6fc3ab10d434aa4578f811acbbcf33afb1c697486313c836118cc565b5050565b6000801b610aac816119c2565b81610ad77feefb95e842a3287179d933b4460be539a1d5af11aa8b325bb45c5c8dc92de4ed8261133d565b15610b1957806040517f375795b9000000000000000000000000000000000000000000000000000000008152600401610b1091906125b6565b60405180910390fd5b610b437f2a5f906c256a5d799494fcd066e1f6c077689de1cdb65052a1624de4bace99bf8261133d565b15610b8557806040517f375795b9000000000000000000000000000000000000000000000000000000008152600401610b7c9190612630565b60405180910390fd5b610baf7ffbd454f36a7e1a388bd6fc3ab10d434aa4578f811acbbcf33afb1c697486313c8261133d565b15610bf157806040517f375795b9000000000000000000000000000000000000000000000000000000008152600401610be891906126aa565b60405180910390fd5b600073ffffffffffffffffffffffffffffffffffffffff168173ffffffffffffffffffffffffffffffffffffffff1603610c60576040517f08c379a0000000000000000000000000000000000000000000000000000000008152600401610c5790612724565b60405180910390fd5b610c8a7feefb95e842a3287179d933b4460be539a1d5af11aa8b325bb45c5c8dc92de4ed84610786565b505050565b600080610c9a611bc1565b905060008111610cdf576040517f08c379a0000000000000000000000000000000000000000000000000000000008152600401610cd690612790565b60405180910390fd5b60008311610d2457826040517f3728b83d000000000000000000000000000000000000000000000000000000008152600401610d1b9190611d9b565b60405180910390fd5b6000816a52b7d2dcc80cd2e400000085610d3e91906127df565b610d489190612850565b90508092505050919050565b60026020528060005260406000206000915090505481565b6000801b610d79816119c2565b610da37feefb95e842a3287179d933b4460be539a1d5af11aa8b325bb45c5c8dc92de4ed836118cc565b5050565b6000801b610db4816119c2565b610dde7f2a5f906c256a5d799494fcd066e1f6c077689de1cdb65052a1624de4bace99bf836118cc565b5050565b6000807feefb95e842a3287179d933b4460be539a1d5af11aa8b325bb45c5c8dc92de4ed848051906020012003610e3b577feefb95e842a3287179d933b4460be539a1d5af11aa8b325bb45c5c8dc92de4ed9050610f24565b7ffbd454f36a7e1a388bd6fc3ab10d434aa4578f811acbbcf33afb1c697486313c848051906020012003610e91577ffbd454f36a7e1a388bd6fc3ab10d434aa4578f811acbbcf33afb1c697486313c9050610f23565b7f2a5f906c256a5d799494fcd066e1f6c077689de1cdb65052a1624de4bace99bf848051906020012003610ee7577f2a5f906c256a5d799494fcd066e1f6c077689de1cdb65052a1624de4bace99bf9050610f22565b6040517f08c379a0000000000000000000000000000000000000000000000000000000008152600401610f19906128cd565b60405180910390fd5b5b5b610f2e818461133d565b91505092915050565b6000801b610f44816119c2565b81610f6f7feefb95e842a3287179d933b4460be539a1d5af11aa8b325bb45c5c8dc92de4ed8261133d565b15610fb157806040517f375795b9000000000000000000000000000000000000000000000000000000008152600401610fa891906125b6565b60405180910390fd5b610fdb7f2a5f906c256a5d799494fcd066e1f6c077689de1cdb65052a1624de4bace99bf8261133d565b1561101d57806040517f375795b90000000000000000000000000000000000000000000000000000000081526004016110149190612630565b60405180910390fd5b6110477ffbd454f36a7e1a388bd6fc3ab10d434aa4578f811acbbcf33afb1c697486313c8261133d565b1561108957806040517f375795b900000000000000000000000000000000000000000000000000000000815260040161108091906126aa565b60405180910390fd5b600073ffffffffffffffffffffffffffffffffffffffff168173ffffffffffffffffffffffffffffffffffffffff16036110f8576040517f08c379a00000000000000000000000000000000000000000000000000000000081526004016110ef90612724565b60405180910390fd5b6111227ffbd454f36a7e1a388bd6fc3ab10d434aa4578f811acbbcf33afb1c697486313c84610786565b505050565b600c60009054906101000a900473ffffffffffffffffffffffffffffffffffffffff1681565b6000801b61115a816119c2565b816111857feefb95e842a3287179d933b4460be539a1d5af11aa8b325bb45c5c8dc92de4ed8261133d565b156111c757806040517f375795b90000000000000000000000000000000000000000000000000000000081526004016111be91906125b6565b60405180910390fd5b6111f17f2a5f906c256a5d799494fcd066e1f6c077689de1cdb65052a1624de4bace99bf8261133d565b1561123357806040517f375795b900000000000000000000000000000000000000000000000000000000815260040161122a9190612630565b60405180910390fd5b61125d7ffbd454f36a7e1a388bd6fc3ab10d434aa4578f811acbbcf33afb1c697486313c8261133d565b1561129f57806040517f375795b900000000000000000000000000000000000000000000000000000000815260040161129691906126aa565b60405180910390fd5b600073ffffffffffffffffffffffffffffffffffffffff168173ffffffffffffffffffffffffffffffffffffffff160361130e576040517f08c379a000000000000000000000000000000000000000000000000000000000815260040161130590612724565b60405180910390fd5b6113387f2a5f906c256a5d799494fcd066e1f6c077689de1cdb65052a1624de4bace99bf84610786565b505050565b600080600084815260200190815260200160002060000160008373ffffffffffffffffffffffffffffffffffffffff1673ffffffffffffffffffffffffffffffffffffffff16815260200190815260200160002060009054906101000a900460ff16905092915050565b7feefb95e842a3287179d933b4460be539a1d5af11aa8b325bb45c5c8dc92de4ed81565b6000801b6113d8816119c2565b600073ffffffffffffffffffffffffffffffffffffffff168273ffffffffffffffffffffffffffffffffffffffff1603611447576040517f08c379a000000000000000000000000000000000000000000000000000000000815260040161143e90612939565b60405180910390fd5b60018060008473ffffffffffffffffffffffffffffffffffffffff1673ffffffffffffffffffffffffffffffffffffffff16815260200190815260200160002060006101000a81548160ff0219169083151502179055506114c87feefb95e842a3287179d933b4460be539a1d5af11aa8b325bb45c5c8dc92de4ed83611acf565b506114f37ffbd454f36a7e1a388bd6fc3ab10d434aa4578f811acbbcf33afb1c697486313c83611acf565b5061151e7f2a5f906c256a5d799494fcd066e1f6c077689de1cdb65052a1624de4bace99bf83611acf565b507f90811a8edd3b3c17eeaefffc17f639cc69145d41a359c9843994dc25382036908260405161154e91906121ff565b60405180910390a15050565b60036020528060005260406000206000915090508060000154908060010160009054906101000a900473ffffffffffffffffffffffffffffffffffffffff16908060020160009054906101000a900473ffffffffffffffffffffffffffffffffffffffff16908060030160009054906101000a900473ffffffffffffffffffffffffffffffffffffffff16908060040154908060050154908060060154908060070154908060080160009054906101000a900460ff16908060080160019054906101000a900473ffffffffffffffffffffffffffffffffffffffff1690508a565b600960009054906101000a900473ffffffffffffffffffffffffffffffffffffffff1681565b60046020528060005260406000206000915090508060000154908060010154908060020160009054906101000a900473ffffffffffffffffffffffffffffffffffffffff16908060020160149054906101000a900460ff16908060020160159054906101000a900460ff16908060030180546116dc9061248e565b80601f01602080910402602001604051908101604052809291908181526020018280546117089061248e565b80156117555780601f1061172a57610100808354040283529160200191611755565b820191906000526020600020905b81548152906001019060200180831161173857829003601f168201915b5050505050905086565b6000801b81565b6000801b611773816119c2565b600073ffffffffffffffffffffffffffffffffffffffff168273ffffffffffffffffffffffffffffffffffffffff16036117e2576040517f08c379a00000000000000000000000000000000000000000000000000000000081526004016117d9906129a5565b60405180910390fd5b6000600160008473ffffffffffffffffffffffffffffffffffffffff1673ffffffffffffffffffffffffffffffffffffffff16815260200190815260200160002060006101000a81548160ff0219169083151502179055507fc3776b472ebf54114339eec9e4dc924e7ce307a97f5c1ee72b6d474e6e5e8b7c8260405161186991906121ff565b60405180910390a15050565b600b60009054906101000a900473ffffffffffffffffffffffffffffffffffffffff1681565b600560205281600052604060002081815481106118b757600080fd5b90600052602060002001600091509150505481565b6118d582610743565b6118de816119c2565b6118e88383611acf565b50505050565b600a60009054906101000a900473ffffffffffffffffffffffffffffffffffffffff1681565b60016020528060005260406000206000915054906101000a900460ff1681565b7ffbd454f36a7e1a388bd6fc3ab10d434aa4578f811acbbcf33afb1c697486313c81565b60007f01ffc9a7000000000000000000000000000000000000000000000000000000007bffffffffffffffffffffffffffffffffffffffffffffffffffffffff1916827bffffffffffffffffffffffffffffffffffffffffffffffffffffffff1916149050919050565b6119d3816119ce611ac7565b611c62565b50565b60006119e2838361133d565b611abc57600160008085815260200190815260200160002060000160008473ffffffffffffffffffffffffffffffffffffffff1673ffffffffffffffffffffffffffffffffffffffff16815260200190815260200160002060006101000a81548160ff021916908315150217905550611a59611ac7565b73ffffffffffffffffffffffffffffffffffffffff168273ffffffffffffffffffffffffffffffffffffffff16847f2f8788117e7eff1d82e926ec794901d17c78024a50270940304540a733656f0d60405160405180910390a460019050611ac1565b600090505b92915050565b600033905090565b6000611adb838361133d565b15611bb657600080600085815260200190815260200160002060000160008473ffffffffffffffffffffffffffffffffffffffff1673ffffffffffffffffffffffffffffffffffffffff16815260200190815260200160002060006101000a81548160ff021916908315150217905550611b53611ac7565b73ffffffffffffffffffffffffffffffffffffffff168273ffffffffffffffffffffffffffffffffffffffff16847ff6391f5c32d9c69d2a47ea670b442974b53935d1edc7fd64eb21e047a839171b60405160405180910390a460019050611bbb565b600090505b92915050565b600080600960009054906101000a900473ffffffffffffffffffffffffffffffffffffffff1673ffffffffffffffffffffffffffffffffffffffff1663feaf968c6040518163ffffffff1660e01b815260040160a060405180830381865afa158015611c31573d6000803e3d6000fd5b505050506040513d601f19601f82011682018060405250810190611c559190612a52565b5050509150508091505090565b611c6c828261133d565b611caf5780826040517fe2517d3f000000000000000000000000000000000000000000000000000000008152600401611ca6929190612acd565b60405180910390fd5b5050565b6000604051905090565b600080fd5b600080fd5b60007fffffffff0000000000000000000000000000000000000000000000000000000082169050919050565b611cfc81611cc7565b8114611d0757600080fd5b50565b600081359050611d1981611cf3565b92915050565b600060208284031215611d3557611d34611cbd565b5b6000611d4384828501611d0a565b91505092915050565b60008115159050919050565b611d6181611d4c565b82525050565b6000602082019050611d7c6000830184611d58565b92915050565b6000819050919050565b611d9581611d82565b82525050565b6000602082019050611db06000830184611d8c565b92915050565b6000819050919050565b611dc981611db6565b82525050565b6000602082019050611de46000830184611dc0565b92915050565b611df381611db6565b8114611dfe57600080fd5b50565b600081359050611e1081611dea565b92915050565b600060208284031215611e2c57611e2b611cbd565b5b6000611e3a84828501611e01565b91505092915050565b611e4c81611d82565b8114611e5757600080fd5b50565b600081359050611e6981611e43565b92915050565b600060208284031215611e8557611e84611cbd565b5b6000611e9384828501611e5a565b91505092915050565b600073ffffffffffffffffffffffffffffffffffffffff82169050919050565b6000611ec782611e9c565b9050919050565b611ed781611ebc565b8114611ee257600080fd5b50565b600081359050611ef481611ece565b92915050565b60008060408385031215611f1157611f10611cbd565b5b6000611f1f85828601611e01565b9250506020611f3085828601611ee5565b9150509250929050565b611f4381611ebc565b82525050565b600081519050919050565b600082825260208201905092915050565b60005b83811015611f83578082015181840152602081019050611f68565b60008484015250505050565b6000601f19601f8301169050919050565b6000611fab82611f49565b611fb58185611f54565b9350611fc5818560208601611f65565b611fce81611f8f565b840191505092915050565b600060c082019050611fee6000830189611dc0565b611ffb6020830188611d8c565b6120086040830187611f3a565b6120156060830186611d58565b6120226080830185611d58565b81810360a08301526120348184611fa0565b9050979650505050505050565b60006020828403121561205757612056611cbd565b5b600061206584828501611ee5565b91505092915050565b600080fd5b600080fd5b7f4e487b7100000000000000000000000000000000000000000000000000000000600052604160045260246000fd5b6120b082611f8f565b810181811067ffffffffffffffff821117156120cf576120ce612078565b5b80604052505050565b60006120e2611cb3565b90506120ee82826120a7565b919050565b600067ffffffffffffffff82111561210e5761210d612078565b5b61211782611f8f565b9050602081019050919050565b82818337600083830152505050565b6000612146612141846120f3565b6120d8565b90508281526020810184848401111561216257612161612073565b5b61216d848285612124565b509392505050565b600082601f83011261218a5761218961206e565b5b813561219a848260208601612133565b91505092915050565b600080604083850312156121ba576121b9611cbd565b5b600083013567ffffffffffffffff8111156121d8576121d7611cc2565b5b6121e485828601612175565b92505060206121f585828601611ee5565b9150509250929050565b60006020820190506122146000830184611f3a565b92915050565b7f4e487b7100000000000000000000000000000000000000000000000000000000600052602160045260246000fd5b6009811061225a5761225961221a565b5b50565b600081905061226b82612249565b919050565b600061227b8261225d565b9050919050565b61228b81612270565b82525050565b6000610140820190506122a7600083018d611dc0565b6122b4602083018c611f3a565b6122c1604083018b611f3a565b6122ce606083018a611f3a565b6122db6080830189611d8c565b6122e860a0830188611d8c565b6122f560c0830187611d8c565b61230260e0830186611d8c565b612310610100830185612282565b61231e610120830184611f3a565b9b9a5050505050505050505050565b6000819050919050565b600061235261234d61234884611e9c565b61232d565b611e9c565b9050919050565b600061236482612337565b9050919050565b600061237682612359565b9050919050565b6123868161236b565b82525050565b60006020820190506123a1600083018461237d565b92915050565b60006123b282612359565b9050919050565b6123c2816123a7565b82525050565b60006020820190506123dd60008301846123b9565b92915050565b600080604083850312156123fa576123f9611cbd565b5b600061240885828601611ee5565b925050602061241985828601611e5a565b9150509250929050565b600061242e82612359565b9050919050565b61243e81612423565b82525050565b60006020820190506124596000830184612435565b92915050565b7f4e487b7100000000000000000000000000000000000000000000000000000000600052602260045260246000fd5b600060028204905060018216806124a657607f821691505b6020821081036124b9576124b861245f565b5b50919050565b60006040820190506124d46000830185611dc0565b6124e16020830184611f3a565b9392505050565b6124f181611d4c565b81146124fc57600080fd5b50565b60008151905061250e816124e8565b92915050565b60006020828403121561252a57612529611cbd565b5b6000612538848285016124ff565b91505092915050565b60006040820190506125566000830185611f3a565b6125636020830184611d8c565b9392505050565b7f4d616e7566616374757265720000000000000000000000000000000000000000600082015250565b60006125a0600c83611f54565b91506125ab8261256a565b602082019050919050565b600060408201905081810360008301526125cf81612593565b90506125de6020830184611f3a565b92915050565b7f52657461696c6572000000000000000000000000000000000000000000000000600082015250565b600061261a600883611f54565b9150612625826125e4565b602082019050919050565b600060408201905081810360008301526126498161260d565b90506126586020830184611f3a565b92915050565b7f4469737472696275746f72000000000000000000000000000000000000000000600082015250565b6000612694600b83611f54565b915061269f8261265e565b602082019050919050565b600060408201905081810360008301526126c381612687565b90506126d26020830184611f3a565b92915050565b7f4164647265737320496e76616c69640000000000000000000000000000000000600082015250565b600061270e600f83611f54565b9150612719826126d8565b602082019050919050565b6000602082019050818103600083015261273d81612701565b9050919050565b7f496e76616c696420707269636520666565642064617461000000000000000000600082015250565b600061277a601783611f54565b915061278582612744565b602082019050919050565b600060208201905081810360008301526127a98161276d565b9050919050565b7f4e487b7100000000000000000000000000000000000000000000000000000000600052601160045260246000fd5b60006127ea82611d82565b91506127f583611d82565b925082820261280381611d82565b9150828204841483151761281a576128196127b0565b5b5092915050565b7f4e487b7100000000000000000000000000000000000000000000000000000000600052601260045260246000fd5b600061285b82611d82565b915061286683611d82565b92508261287657612875612821565b5b828204905092915050565b7f496e76616c696420726f6c65206e616d65000000000000000000000000000000600082015250565b60006128b7601183611f54565b91506128c282612881565b602082019050919050565b600060208201905081810360008301526128e6816128aa565b9050919050565b7f43616e6e6f7420667265657a6520746865207a65726f20616464726573730000600082015250565b6000612923601e83611f54565b915061292e826128ed565b602082019050919050565b6000602082019050818103600083015261295281612916565b9050919050565b7f43616e6e6f7420756e667265657a6520746865207a65726f2061646472657373600082015250565b600061298f602083611f54565b915061299a82612959565b602082019050919050565b600060208201905081810360008301526129be81612982565b9050919050565b600069ffffffffffffffffffff82169050919050565b6129e4816129c5565b81146129ef57600080fd5b50565b600081519050612a01816129db565b92915050565b6000819050919050565b612a1a81612a07565b8114612a2557600080fd5b50565b600081519050612a3781612a11565b92915050565b600081519050612a4c81611e43565b92915050565b600080600080600060a08688031215612a6e57612a6d611cbd565b5b6000612a7c888289016129f2565b9550506020612a8d88828901612a28565b9450506040612a9e88828901612a3d565b9350506060612aaf88828901612a3d565b9250506080612ac0888289016129f2565b9150509295509295909350565b6000604082019050612ae26000830185611f3a565b612aef6020830184611dc0565b939250505056fea264697066735822122050f5b14dbc4c00014fc17e1188f91ecbe05b03f1001c9fb8c03a801b0424801364736f6c634300081c0033",
  "linkReferences": {},
  "deployedLinkReferences": {}
}