{
  "_format": "hh-sol-artifact-1",
  "contractName": "Escrow",
  "sourceName": "contracts/Escrow.sol",
  "abi": [
    {
      "inputs": [],
      "stateMutability": "nonpayable",
      "type": "constructor"
    },
    {
      "inputs": [
        {
          "internalType": "address",
          "name": "payer",
          "type": "address"
        },
        {
          "internalType": "address",
          "name": "payee",
          "type": "address"
        }
      ],
      "name": "buy",
      "outputs": [],
      "stateMutability": "payable",
      "type": "function"
    },
    {
      "inputs": [],
      "name": "owner",
      "outputs": [
        {
          "internalType": "address",
          "name": "",
          "type": "address"
        }
      ],
      "stateMutability": "view",
      "type": "function"
    },
    {
      "inputs": [
        {
          "internalType": "address",
          "name": "payee",
          "type": "address"
        },
        {
          "internalType": "uint256",
          "name": "amount",
          "type": "uint256"
        }
      ],
      "name": "release",
      "outputs": [],
      "stateMutability": "payable",
      "type": "function"
    }
  ],
  "bytecode": "0x6080604052348015600f57600080fd5b50336000806101000a81548173ffffffffffffffffffffffffffffffffffffffff021916908373ffffffffffffffffffffffffffffffffffffffff16021790555061056d8061005f6000396000f3fe6080604052600436106100345760003560e01c80630357371d146100395780638da5cb5b14610055578063ad7fadc514610080575b600080fd5b610053600480360381019061004e9190610338565b61009c565b005b34801561006157600080fd5b5061006a610156565b6040516100779190610387565b60405180910390f35b61009a600480360381019061009591906103a2565b61017a565b005b600073ffffffffffffffffffffffffffffffffffffffff168273ffffffffffffffffffffffffffffffffffffffff160361010b576040517f08c379a00000000000000000000000000000000000000000000000000000000081526004016101029061043f565b60405180910390fd5b8173ffffffffffffffffffffffffffffffffffffffff166108fc829081150290604051600060405180830381858888f19350505050158015610151573d6000803e3d6000fd5b505050565b60008054906101000a900473ffffffffffffffffffffffffffffffffffffffff1681565b600073ffffffffffffffffffffffffffffffffffffffff168273ffffffffffffffffffffffffffffffffffffffff16036101e9576040517f08c379a00000000000000000000000000000000000000000000000000000000081526004016101e0906104ab565b60405180910390fd5b600073ffffffffffffffffffffffffffffffffffffffff168173ffffffffffffffffffffffffffffffffffffffff1603610258576040517f08c379a000000000000000000000000000000000000000000000000000000000815260040161024f9061043f565b60405180910390fd5b6000341161029b576040517f08c379a000000000000000000000000000000000000000000000000000000000815260040161029290610517565b60405180910390fd5b5050565b600080fd5b600073ffffffffffffffffffffffffffffffffffffffff82169050919050565b60006102cf826102a4565b9050919050565b6102df816102c4565b81146102ea57600080fd5b50565b6000813590506102fc816102d6565b92915050565b6000819050919050565b61031581610302565b811461032057600080fd5b50565b6000813590506103328161030c565b92915050565b6000806040838503121561034f5761034e61029f565b5b600061035d858286016102ed565b925050602061036e85828601610323565b9150509250929050565b610381816102c4565b82525050565b600060208201905061039c6000830184610378565b92915050565b600080604083850312156103b9576103b861029f565b5b60006103c7858286016102ed565b92505060206103d8858286016102ed565b9150509250929050565b600082825260208201905092915050565b7f506179656520616464726573732063616e6e6f74206265207a65726f00000000600082015250565b6000610429601c836103e2565b9150610434826103f3565b602082019050919050565b600060208201905081810360008301526104588161041c565b9050919050565b7f506179657220616464726573732063616e6e6f74206265207a65726f00000000600082015250565b6000610495601c836103e2565b91506104a08261045f565b602082019050919050565b600060208201905081810360008301526104c481610488565b9050919050565b7f496e73756666696369656e74207061796d656e742073656e7400000000000000600082015250565b60006105016019836103e2565b915061050c826104cb565b602082019050919050565b60006020820190508181036000830152610530816104f4565b905091905056fea2646970667358221220a3659c83c4b20e38f04e22f7285368757d6cfbe0cd04024508eca2cb735b44f564736f6c634300081c0033",
  "linkReferences": {},
  "deployedLinkReferences": {}
}