{
  "_format": "hh-sol-artifact-1",
  "contractName": "HandlingAddresses",
  "sourceName": "contracts/HandlingAddresses.sol",
  "abi": [
    {
      "inputs": [],
      "stateMutability": "nonpayable",
      "type": "constructor"
    },
    {
      "inputs": [],
      "name": "AccessControlBadConfirmation",
      "type": "error"
    },
    {
      "inputs": [
        {
          "internalType": "address",
          "name": "account",
          "type": "address"
        },
        {
          "internalType": "bytes32",
          "name": "neededRole",
          "type": "bytes32"
        }
      ],
      "name": "AccessControlUnauthorizedAccount",
      "type": "error"
    },
    {
      "inputs": [
        {
          "internalType": "string",
          "name": "role",
          "type": "string"
        },
        {
          "internalType": "address",
          "name": "account",
          "type": "address"
        }
      ],
      "name": "AddressAlreadyExists",
      "type": "error"
    },
    {
      "anonymous": false,
      "inputs": [
        {
          "indexed": false,
          "internalType": "address",
          "name": "account",
          "type": "address"
        }
      ],
      "name": "AddressFrozen",
      "type": "event"
    },
    {
      "anonymous": false,
      "inputs": [
        {
          "indexed": false,
          "internalType": "address",
          "name": "account",
          "type": "address"
        }
      ],
      "name": "AddressUnfrozen",
      "type": "event"
    },
    {
      "anonymous": false,
      "inputs": [
        {
          "indexed": true,
          "internalType": "bytes32",
          "name": "role",
          "type": "bytes32"
        },
        {
          "indexed": true,
          "internalType": "bytes32",
          "name": "previousAdminRole",
          "type": "bytes32"
        },
        {
          "indexed": true,
          "internalType": "bytes32",
          "name": "newAdminRole",
          "type": "bytes32"
        }
      ],
      "name": "RoleAdminChanged",
      "type": "event"
    },
    {
      "anonymous": false,
      "inputs": [
        {
          "indexed": true,
          "internalType": "bytes32",
          "name": "role",
          "type": "bytes32"
        },
        {
          "indexed": true,
          "internalType": "address",
          "name": "account",
          "type": "address"
        },
        {
          "indexed": true,
          "internalType": "address",
          "name": "sender",
          "type": "address"
        }
      ],
      "name": "RoleGranted",
      "type": "event"
    },
    {
      "anonymous": false,
      "inputs": [
        {
          "indexed": true,
          "internalType": "bytes32",
          "name": "role",
          "type": "bytes32"
        },
        {
          "indexed": true,
          "internalType": "address",
          "name": "account",
          "type": "address"
        },
        {
          "indexed": true,
          "internalType": "address",
          "name": "sender",
          "type": "address"
        }
      ],
      "name": "RoleRevoked",
      "type": "event"
    },
    {
      "inputs": [],
      "name": "DEFAULT_ADMIN_ROLE",
      "outputs": [
        {
          "internalType": "bytes32",
          "name": "",
          "type": "bytes32"
        }
      ],
      "stateMutability": "view",
      "type": "function"
    },
    {
      "inputs": [],
      "name": "DISTRIBUTOR_ROLE",
      "outputs": [
        {
          "internalType": "bytes32",
          "name": "",
          "type": "bytes32"
        }
      ],
      "stateMutability": "view",
      "type": "function"
    },
    {
      "inputs": [],
      "name": "MANUFACTURER_ROLE",
      "outputs": [
        {
          "internalType": "bytes32",
          "name": "",
          "type": "bytes32"
        }
      ],
      "stateMutability": "view",
      "type": "function"
    },
    {
      "inputs": [],
      "name": "RETAILER_ROLE",
      "outputs": [
        {
          "internalType": "bytes32",
          "name": "",
          "type": "bytes32"
        }
      ],
      "stateMutability": "view",
      "type": "function"
    },
    {
      "inputs": [
        {
          "internalType": "address",
          "name": "distributor",
          "type": "address"
        }
      ],
      "name": "addDistributor",
      "outputs": [],
      "stateMutability": "nonpayable",
      "type": "function"
    },
    {
      "inputs": [
        {
          "internalType": "address",
          "name": "manufacturer",
          "type": "address"
        }
      ],
      "name": "addManufacturer",
      "outputs": [],
      "stateMutability": "nonpayable",
      "type": "function"
    },
    {
      "inputs": [
        {
          "internalType": "address",
          "name": "retailer",
          "type": "address"
        }
      ],
      "name": "addRetailer",
      "outputs": [],
      "stateMutability": "nonpayable",
      "type": "function"
    },
    {
      "inputs": [
        {
          "internalType": "string",
          "name": "roleName",
          "type": "string"
        },
        {
          "internalType": "address",
          "name": "account",
          "type": "address"
        }
      ],
      "name": "checkRole",
      "outputs": [
        {
          "internalType": "bool",
          "name": "",
          "type": "bool"
        }
      ],
      "stateMutability": "view",
      "type": "function"
    },
    {
      "inputs": [
        {
          "internalType": "address",
          "name": "account",
          "type": "address"
        }
      ],
      "name": "frozeAddress",
      "outputs": [],
      "stateMutability": "nonpayable",
      "type": "function"
    },
    {
      "inputs": [
        {
          "internalType": "bytes32",
          "name": "role",
          "type": "bytes32"
        }
      ],
      "name": "getRoleAdmin",
      "outputs": [
        {
          "internalType": "bytes32",
          "name": "",
          "type": "bytes32"
        }
      ],
      "stateMutability": "view",
      "type": "function"
    },
    {
      "inputs": [
        {
          "internalType": "bytes32",
          "name": "role",
          "type": "bytes32"
        },
        {
          "internalType": "address",
          "name": "account",
          "type": "address"
        }
      ],
      "name": "grantRole",
      "outputs": [],
      "stateMutability": "nonpayable",
      "type": "function"
    },
    {
      "inputs": [
        {
          "internalType": "bytes32",
          "name": "role",
          "type": "bytes32"
        },
        {
          "internalType": "address",
          "name": "account",
          "type": "address"
        }
      ],
      "name": "hasRole",
      "outputs": [
        {
          "internalType": "bool",
          "name": "",
          "type": "bool"
        }
      ],
      "stateMutability": "view",
      "type": "function"
    },
    {
      "inputs": [
        {
          "internalType": "address",
          "name": "",
          "type": "address"
        }
      ],
      "name": "isFrozen",
      "outputs": [
        {
          "internalType": "bool",
          "name": "",
          "type": "bool"
        }
      ],
      "stateMutability": "view",
      "type": "function"
    },
    {
      "inputs": [
        {
          "internalType": "address",
          "name": "distributor",
          "type": "address"
        }
      ],
      "name": "removeDistributor",
      "outputs": [],
      "stateMutability": "nonpayable",
      "type": "function"
    },
    {
      "inputs": [
        {
          "internalType": "address",
          "name": "manufacturer",
          "type": "address"
        }
      ],
      "name": "removeManufacturer",
      "outputs": [],
      "stateMutability": "nonpayable",
      "type": "function"
    },
    {
      "inputs": [
        {
          "internalType": "address",
          "name": "retailer",
          "type": "address"
        }
      ],
      "name": "removeRetailer",
      "outputs": [],
      "stateMutability": "nonpayable",
      "type": "function"
    },
    {
      "inputs": [
        {
          "internalType": "bytes32",
          "name": "role",
          "type": "bytes32"
        },
        {
          "internalType": "address",
          "name": "callerConfirmation",
          "type": "address"
        }
      ],
      "name": "renounceRole",
      "outputs": [],
      "stateMutability": "nonpayable",
      "type": "function"
    },
    {
      "inputs": [
        {
          "internalType": "bytes32",
          "name": "role",
          "type": "bytes32"
        },
        {
          "internalType": "address",
          "name": "account",
          "type": "address"
        }
      ],
      "name": "revokeRole",
      "outputs": [],
      "stateMutability": "nonpayable",
      "type": "function"
    },
    {
      "inputs": [
        {
          "internalType": "bytes4",
          "name": "interfaceId",
          "type": "bytes4"
        }
      ],
      "name": "supportsInterface",
      "outputs": [
        {
          "internalType": "bool",
          "name": "",
          "type": "bool"
        }
      ],
      "stateMutability": "view",
      "type": "function"
    },
    {
      "inputs": [
        {
          "internalType": "address",
          "name": "account",
          "type": "address"
        }
      ],
      "name": "unfreezeAddress",
      "outputs": [],
      "stateMutability": "nonpayable",
      "type": "function"
    }
  ],
  "bytecode": "0x608060405234801561001057600080fd5b506100246000801b3361002a60201b60201c565b50610199565b600061003c838361012760201b60201c565b61011c57600160008085815260200190815260200160002060000160008473ffffffffffffffffffffffffffffffffffffffff1673ffffffffffffffffffffffffffffffffffffffff16815260200190815260200160002060006101000a81548160ff0219169083151502179055506100b961019160201b60201c565b73ffffffffffffffffffffffffffffffffffffffff168273ffffffffffffffffffffffffffffffffffffffff16847f2f8788117e7eff1d82e926ec794901d17c78024a50270940304540a733656f0d60405160405180910390a460019050610121565b600090505b92915050565b600080600084815260200190815260200160002060000160008373ffffffffffffffffffffffffffffffffffffffff1673ffffffffffffffffffffffffffffffffffffffff16815260200190815260200160002060009054906101000a900460ff16905092915050565b600033905090565b611ad1806101a86000396000f3fe608060405234801561001057600080fd5b506004361061012c5760003560e01c80637250e224116100ad578063a217fddf11610071578063a217fddf14610329578063bfb8054714610347578063d547741f14610363578063e58398361461037f578063f0bd87cc146103af5761012c565b80637250e224146102875780638ec4f505146102a357806391d14854146102bf578063965288b0146102ef57806399fd9cfb1461030d5761012c565b806357c1f9e2116100f457806357c1f9e2146101e75780635f8a5afa146102035780636a75323f1461021f57806370099ec81461023b5780637026fe9c146102575761012c565b806301ffc9a7146101315780632115e7bf14610161578063248a9ca31461017f5780632f2ff15d146101af57806336568abe146101cb575b600080fd5b61014b600480360381019061014691906113bc565b6103cd565b6040516101589190611404565b60405180910390f35b610169610447565b6040516101769190611438565b60405180910390f35b6101996004803603810190610194919061147f565b61046b565b6040516101a69190611438565b60405180910390f35b6101c960048036038101906101c4919061150a565b61048a565b005b6101e560048036038101906101e0919061150a565b6104ac565b005b61020160048036038101906101fc919061154a565b610527565b005b61021d6004803603810190610218919061154a565b610562565b005b6102396004803603810190610234919061154a565b610752565b005b6102556004803603810190610250919061154a565b61078d565b005b610271600480360381019061026c91906116bd565b6107c8565b60405161027e9190611404565b60405180910390f35b6102a1600480360381019061029c919061154a565b61091d565b005b6102bd60048036038101906102b8919061154a565b610b0d565b005b6102d960048036038101906102d4919061150a565b610cfd565b6040516102e69190611404565b60405180910390f35b6102f7610d67565b6040516103049190611438565b60405180910390f35b6103276004803603810190610322919061154a565b610d8b565b005b610331610f1a565b60405161033e9190611438565b60405180910390f35b610361600480360381019061035c919061154a565b610f21565b005b61037d6004803603810190610378919061150a565b611030565b005b6103996004803603810190610394919061154a565b611052565b6040516103a69190611404565b60405180910390f35b6103b7611072565b6040516103c49190611438565b60405180910390f35b60007f7965db0b000000000000000000000000000000000000000000000000000000007bffffffffffffffffffffffffffffffffffffffffffffffffffffffff1916827bffffffffffffffffffffffffffffffffffffffffffffffffffffffff19161480610440575061043f82611096565b5b9050919050565b7f2a5f906c256a5d799494fcd066e1f6c077689de1cdb65052a1624de4bace99bf81565b6000806000838152602001908152602001600020600101549050919050565b6104938261046b565b61049c81611100565b6104a68383611114565b50505050565b6104b4611205565b73ffffffffffffffffffffffffffffffffffffffff168173ffffffffffffffffffffffffffffffffffffffff1614610518576040517f6697b23200000000000000000000000000000000000000000000000000000000815260040160405180910390fd5b610522828261120d565b505050565b6000801b61053481611100565b61055e7ffbd454f36a7e1a388bd6fc3ab10d434aa4578f811acbbcf33afb1c697486313c83611030565b5050565b6000801b61056f81611100565b8161059a7feefb95e842a3287179d933b4460be539a1d5af11aa8b325bb45c5c8dc92de4ed82610cfd565b156105dc57806040517f375795b90000000000000000000000000000000000000000000000000000000081526004016105d39190611785565b60405180910390fd5b6106067f2a5f906c256a5d799494fcd066e1f6c077689de1cdb65052a1624de4bace99bf82610cfd565b1561064857806040517f375795b900000000000000000000000000000000000000000000000000000000815260040161063f91906117ff565b60405180910390fd5b6106727ffbd454f36a7e1a388bd6fc3ab10d434aa4578f811acbbcf33afb1c697486313c82610cfd565b156106b457806040517f375795b90000000000000000000000000000000000000000000000000000000081526004016106ab9190611879565b60405180910390fd5b600073ffffffffffffffffffffffffffffffffffffffff168173ffffffffffffffffffffffffffffffffffffffff1603610723576040517f08c379a000000000000000000000000000000000000000000000000000000000815260040161071a906118f3565b60405180910390fd5b61074d7feefb95e842a3287179d933b4460be539a1d5af11aa8b325bb45c5c8dc92de4ed8461048a565b505050565b6000801b61075f81611100565b6107897feefb95e842a3287179d933b4460be539a1d5af11aa8b325bb45c5c8dc92de4ed83611030565b5050565b6000801b61079a81611100565b6107c47f2a5f906c256a5d799494fcd066e1f6c077689de1cdb65052a1624de4bace99bf83611030565b5050565b6000807feefb95e842a3287179d933b4460be539a1d5af11aa8b325bb45c5c8dc92de4ed848051906020012003610821577feefb95e842a3287179d933b4460be539a1d5af11aa8b325bb45c5c8dc92de4ed905061090a565b7ffbd454f36a7e1a388bd6fc3ab10d434aa4578f811acbbcf33afb1c697486313c848051906020012003610877577ffbd454f36a7e1a388bd6fc3ab10d434aa4578f811acbbcf33afb1c697486313c9050610909565b7f2a5f906c256a5d799494fcd066e1f6c077689de1cdb65052a1624de4bace99bf8480519060200120036108cd577f2a5f906c256a5d799494fcd066e1f6c077689de1cdb65052a1624de4bace99bf9050610908565b6040517f08c379a00000000000000000000000000000000000000000000000000000000081526004016108ff9061195f565b60405180910390fd5b5b5b6109148184610cfd565b91505092915050565b6000801b61092a81611100565b816109557feefb95e842a3287179d933b4460be539a1d5af11aa8b325bb45c5c8dc92de4ed82610cfd565b1561099757806040517f375795b900000000000000000000000000000000000000000000000000000000815260040161098e9190611785565b60405180910390fd5b6109c17f2a5f906c256a5d799494fcd066e1f6c077689de1cdb65052a1624de4bace99bf82610cfd565b15610a0357806040517f375795b90000000000000000000000000000000000000000000000000000000081526004016109fa91906117ff565b60405180910390fd5b610a2d7ffbd454f36a7e1a388bd6fc3ab10d434aa4578f811acbbcf33afb1c697486313c82610cfd565b15610a6f57806040517f375795b9000000000000000000000000000000000000000000000000000000008152600401610a669190611879565b60405180910390fd5b600073ffffffffffffffffffffffffffffffffffffffff168173ffffffffffffffffffffffffffffffffffffffff1603610ade576040517f08c379a0000000000000000000000000000000000000000000000000000000008152600401610ad5906118f3565b60405180910390fd5b610b087ffbd454f36a7e1a388bd6fc3ab10d434aa4578f811acbbcf33afb1c697486313c8461048a565b505050565b6000801b610b1a81611100565b81610b457feefb95e842a3287179d933b4460be539a1d5af11aa8b325bb45c5c8dc92de4ed82610cfd565b15610b8757806040517f375795b9000000000000000000000000000000000000000000000000000000008152600401610b7e9190611785565b60405180910390fd5b610bb17f2a5f906c256a5d799494fcd066e1f6c077689de1cdb65052a1624de4bace99bf82610cfd565b15610bf357806040517f375795b9000000000000000000000000000000000000000000000000000000008152600401610bea91906117ff565b60405180910390fd5b610c1d7ffbd454f36a7e1a388bd6fc3ab10d434aa4578f811acbbcf33afb1c697486313c82610cfd565b15610c5f57806040517f375795b9000000000000000000000000000000000000000000000000000000008152600401610c569190611879565b60405180910390fd5b600073ffffffffffffffffffffffffffffffffffffffff168173ffffffffffffffffffffffffffffffffffffffff1603610cce576040517f08c379a0000000000000000000000000000000000000000000000000000000008152600401610cc5906118f3565b60405180910390fd5b610cf87f2a5f906c256a5d799494fcd066e1f6c077689de1cdb65052a1624de4bace99bf8461048a565b505050565b600080600084815260200190815260200160002060000160008373ffffffffffffffffffffffffffffffffffffffff1673ffffffffffffffffffffffffffffffffffffffff16815260200190815260200160002060009054906101000a900460ff16905092915050565b7feefb95e842a3287179d933b4460be539a1d5af11aa8b325bb45c5c8dc92de4ed81565b6000801b610d9881611100565b600073ffffffffffffffffffffffffffffffffffffffff168273ffffffffffffffffffffffffffffffffffffffff1603610e07576040517f08c379a0000000000000000000000000000000000000000000000000000000008152600401610dfe906119cb565b60405180910390fd5b60018060008473ffffffffffffffffffffffffffffffffffffffff1673ffffffffffffffffffffffffffffffffffffffff16815260200190815260200160002060006101000a81548160ff021916908315150217905550610e887feefb95e842a3287179d933b4460be539a1d5af11aa8b325bb45c5c8dc92de4ed8361120d565b50610eb37ffbd454f36a7e1a388bd6fc3ab10d434aa4578f811acbbcf33afb1c697486313c8361120d565b50610ede7f2a5f906c256a5d799494fcd066e1f6c077689de1cdb65052a1624de4bace99bf8361120d565b507f90811a8edd3b3c17eeaefffc17f639cc69145d41a359c9843994dc253820369082604051610f0e91906119eb565b60405180910390a15050565b6000801b81565b6000801b610f2e81611100565b600073ffffffffffffffffffffffffffffffffffffffff168273ffffffffffffffffffffffffffffffffffffffff1603610f9d576040517f08c379a0000000000000000000000000000000000000000000000000000000008152600401610f9490611a52565b60405180910390fd5b6000600160008473ffffffffffffffffffffffffffffffffffffffff1673ffffffffffffffffffffffffffffffffffffffff16815260200190815260200160002060006101000a81548160ff0219169083151502179055507fc3776b472ebf54114339eec9e4dc924e7ce307a97f5c1ee72b6d474e6e5e8b7c8260405161102491906119eb565b60405180910390a15050565b6110398261046b565b61104281611100565b61104c838361120d565b50505050565b60016020528060005260406000206000915054906101000a900460ff1681565b7ffbd454f36a7e1a388bd6fc3ab10d434aa4578f811acbbcf33afb1c697486313c81565b60007f01ffc9a7000000000000000000000000000000000000000000000000000000007bffffffffffffffffffffffffffffffffffffffffffffffffffffffff1916827bffffffffffffffffffffffffffffffffffffffffffffffffffffffff1916149050919050565b6111118161110c611205565b6112ff565b50565b60006111208383610cfd565b6111fa57600160008085815260200190815260200160002060000160008473ffffffffffffffffffffffffffffffffffffffff1673ffffffffffffffffffffffffffffffffffffffff16815260200190815260200160002060006101000a81548160ff021916908315150217905550611197611205565b73ffffffffffffffffffffffffffffffffffffffff168273ffffffffffffffffffffffffffffffffffffffff16847f2f8788117e7eff1d82e926ec794901d17c78024a50270940304540a733656f0d60405160405180910390a4600190506111ff565b600090505b92915050565b600033905090565b60006112198383610cfd565b156112f457600080600085815260200190815260200160002060000160008473ffffffffffffffffffffffffffffffffffffffff1673ffffffffffffffffffffffffffffffffffffffff16815260200190815260200160002060006101000a81548160ff021916908315150217905550611291611205565b73ffffffffffffffffffffffffffffffffffffffff168273ffffffffffffffffffffffffffffffffffffffff16847ff6391f5c32d9c69d2a47ea670b442974b53935d1edc7fd64eb21e047a839171b60405160405180910390a4600190506112f9565b600090505b92915050565b6113098282610cfd565b61134c5780826040517fe2517d3f000000000000000000000000000000000000000000000000000000008152600401611343929190611a72565b60405180910390fd5b5050565b6000604051905090565b600080fd5b600080fd5b60007fffffffff0000000000000000000000000000000000000000000000000000000082169050919050565b61139981611364565b81146113a457600080fd5b50565b6000813590506113b681611390565b92915050565b6000602082840312156113d2576113d161135a565b5b60006113e0848285016113a7565b91505092915050565b60008115159050919050565b6113fe816113e9565b82525050565b600060208201905061141960008301846113f5565b92915050565b6000819050919050565b6114328161141f565b82525050565b600060208201905061144d6000830184611429565b92915050565b61145c8161141f565b811461146757600080fd5b50565b60008135905061147981611453565b92915050565b6000602082840312156114955761149461135a565b5b60006114a38482850161146a565b91505092915050565b600073ffffffffffffffffffffffffffffffffffffffff82169050919050565b60006114d7826114ac565b9050919050565b6114e7816114cc565b81146114f257600080fd5b50565b600081359050611504816114de565b92915050565b600080604083850312156115215761152061135a565b5b600061152f8582860161146a565b9250506020611540858286016114f5565b9150509250929050565b6000602082840312156115605761155f61135a565b5b600061156e848285016114f5565b91505092915050565b600080fd5b600080fd5b6000601f19601f8301169050919050565b7f4e487b7100000000000000000000000000000000000000000000000000000000600052604160045260246000fd5b6115ca82611581565b810181811067ffffffffffffffff821117156115e9576115e8611592565b5b80604052505050565b60006115fc611350565b905061160882826115c1565b919050565b600067ffffffffffffffff82111561162857611627611592565b5b61163182611581565b9050602081019050919050565b82818337600083830152505050565b600061166061165b8461160d565b6115f2565b90508281526020810184848401111561167c5761167b61157c565b5b61168784828561163e565b509392505050565b600082601f8301126116a4576116a3611577565b5b81356116b484826020860161164d565b91505092915050565b600080604083850312156116d4576116d361135a565b5b600083013567ffffffffffffffff8111156116f2576116f161135f565b5b6116fe8582860161168f565b925050602061170f858286016114f5565b9150509250929050565b600082825260208201905092915050565b7f4d616e7566616374757265720000000000000000000000000000000000000000600082015250565b6000611760600c83611719565b915061176b8261172a565b602082019050919050565b61177f816114cc565b82525050565b6000604082019050818103600083015261179e81611753565b90506117ad6020830184611776565b92915050565b7f52657461696c6572000000000000000000000000000000000000000000000000600082015250565b60006117e9600883611719565b91506117f4826117b3565b602082019050919050565b60006040820190508181036000830152611818816117dc565b90506118276020830184611776565b92915050565b7f4469737472696275746f72000000000000000000000000000000000000000000600082015250565b6000611863600b83611719565b915061186e8261182d565b602082019050919050565b6000604082019050818103600083015261189281611856565b90506118a16020830184611776565b92915050565b7f4164647265737320496e76616c69640000000000000000000000000000000000600082015250565b60006118dd600f83611719565b91506118e8826118a7565b602082019050919050565b6000602082019050818103600083015261190c816118d0565b9050919050565b7f496e76616c696420726f6c65206e616d65000000000000000000000000000000600082015250565b6000611949601183611719565b915061195482611913565b602082019050919050565b600060208201905081810360008301526119788161193c565b9050919050565b7f43616e6e6f7420667265657a6520746865207a65726f20616464726573730000600082015250565b60006119b5601e83611719565b91506119c08261197f565b602082019050919050565b600060208201905081810360008301526119e4816119a8565b9050919050565b6000602082019050611a006000830184611776565b92915050565b7f43616e6e6f7420756e667265657a6520746865207a65726f2061646472657373600082015250565b6000611a3c602083611719565b9150611a4782611a06565b602082019050919050565b60006020820190508181036000830152611a6b81611a2f565b9050919050565b6000604082019050611a876000830185611776565b611a946020830184611429565b939250505056fea2646970667358221220680ce33e46cd36bf0ccba1e6f8f6dd142f085c40bfaf27010ef6d9d01d2a02a264736f6c634300081c0033",
  "linkReferences": {},
  "deployedLinkReferences": {}
}