{
  "_format": "hh-sol-artifact-1",
  "contractName": "HandlingRequests",
  "sourceName": "contracts/HandlingRequests.sol",
  "abi": [
    {
      "inputs": [
        {
          "internalType": "address",
          "name": "priceFeedAddress",
          "type": "address"
        },
        {
          "internalType": "address",
          "name": "escrowAddress",
          "type": "address"
        },
        {
          "internalType": "address",
          "name": "handlingAddresses",
          "type": "address"
        }
      ],
      "stateMutability": "nonpayable",
      "type": "constructor"
    },
    {
      "inputs": [],
      "name": "AccessControlBadConfirmation",
      "type": "error"
    },
    {
      "inputs": [
        {
          "internalType": "address",
          "name": "account",
          "type": "address"
        },
        {
          "internalType": "bytes32",
          "name": "neededRole",
          "type": "bytes32"
        }
      ],
      "name": "AccessControlUnauthorizedAccount",
      "type": "error"
    },
    {
      "inputs": [
        {
          "internalType": "string",
          "name": "role",
          "type": "string"
        },
        {
          "internalType": "address",
          "name": "account",
          "type": "address"
        }
      ],
      "name": "AddressAlreadyExists",
      "type": "error"
    },
    {
      "inputs": [
        {
          "internalType": "address",
          "name": "account",
          "type": "address"
        }
      ],
      "name": "AddressInvalid",
      "type": "error"
    },
    {
      "inputs": [
        {
          "internalType": "uint256",
          "name": "_usdAmount",
          "type": "uint256"
        }
      ],
      "name": "InvalidAmount",
      "type": "error"
    },
    {
      "anonymous": false,
      "inputs": [
        {
          "indexed": false,
          "internalType": "address",
          "name": "account",
          "type": "address"
        }
      ],
      "name": "AddressFrozen",
      "type": "event"
    },
    {
      "anonymous": false,
      "inputs": [
        {
          "indexed": false,
          "internalType": "address",
          "name": "account",
          "type": "address"
        }
      ],
      "name": "AddressUnfrozen",
      "type": "event"
    },
    {
      "anonymous": false,
      "inputs": [
        {
          "indexed": true,
          "internalType": "bytes32",
          "name": "batchId",
          "type": "bytes32"
        },
        {
          "indexed": false,
          "internalType": "uint256",
          "name": "timestamp",
          "type": "uint256"
        }
      ],
      "name": "BatchCreated",
      "type": "event"
    },
    {
      "anonymous": false,
      "inputs": [
        {
          "indexed": true,
          "internalType": "bytes32",
          "name": "batchId",
          "type": "bytes32"
        },
        {
          "indexed": false,
          "internalType": "address",
          "name": "distributor",
          "type": "address"
        },
        {
          "indexed": false,
          "internalType": "enum DrugSupplyChain.BatchStatus",
          "name": "statusEnum",
          "type": "uint8"
        },
        {
          "indexed": false,
          "internalType": "uint256",
          "name": "price",
          "type": "uint256"
        },
        {
          "indexed": false,
          "internalType": "uint256",
          "name": "timestamp",
          "type": "uint256"
        }
      ],
      "name": "DistributerPurchased",
      "type": "event"
    },
    {
      "anonymous": false,
      "inputs": [
        {
          "indexed": true,
          "internalType": "bytes32",
          "name": "batchId",
          "type": "bytes32"
        },
        {
          "indexed": false,
          "internalType": "enum DrugSupplyChain.BatchStatus",
          "name": "statusEnum",
          "type": "uint8"
        },
        {
          "indexed": true,
          "internalType": "address",
          "name": "distributor",
          "type": "address"
        },
        {
          "indexed": false,
          "internalType": "uint256",
          "name": "price",
          "type": "uint256"
        },
        {
          "indexed": false,
          "internalType": "uint256",
          "name": "timestamp",
          "type": "uint256"
        },
        {
          "indexed": false,
          "internalType": "string",
          "name": "reason",
          "type": "string"
        }
      ],
      "name": "EligibleForResell",
      "type": "event"
    },
    {
      "anonymous": false,
      "inputs": [
        {
          "indexed": true,
          "internalType": "bytes32",
          "name": "batchId",
          "type": "bytes32"
        },
        {
          "indexed": true,
          "internalType": "address",
          "name": "to",
          "type": "address"
        },
        {
          "indexed": true,
          "internalType": "uint256",
          "name": "timestamp",
          "type": "uint256"
        },
        {
          "indexed": false,
          "internalType": "bool",
          "name": "refunded",
          "type": "bool"
        },
        {
          "indexed": false,
          "internalType": "string",
          "name": "reason",
          "type": "string"
        }
      ],
      "name": "Refunded",
      "type": "event"
    },
    {
      "anonymous": false,
      "inputs": [
        {
          "indexed": true,
          "internalType": "bytes32",
          "name": "batchId",
          "type": "bytes32"
        },
        {
          "indexed": true,
          "internalType": "address",
          "name": "requester",
          "type": "address"
        },
        {
          "indexed": true,
          "internalType": "uint256",
          "name": "timestamp",
          "type": "uint256"
        },
        {
          "indexed": false,
          "internalType": "bool",
          "name": "approved",
          "type": "bool"
        },
        {
          "indexed": false,
          "internalType": "string",
          "name": "reason",
          "type": "string"
        }
      ],
      "name": "RequestApproved",
      "type": "event"
    },
    {
      "anonymous": false,
      "inputs": [
        {
          "indexed": true,
          "internalType": "bytes32",
          "name": "batchId",
          "type": "bytes32"
        },
        {
          "indexed": false,
          "internalType": "enum DrugSupplyChain.BatchStatus",
          "name": "statusEnum",
          "type": "uint8"
        },
        {
          "indexed": true,
          "internalType": "address",
          "name": "distributor",
          "type": "address"
        },
        {
          "indexed": false,
          "internalType": "uint256",
          "name": "price",
          "type": "uint256"
        },
        {
          "indexed": false,
          "internalType": "uint256",
          "name": "timestamp",
          "type": "uint256"
        }
      ],
      "name": "ResellingDone",
      "type": "event"
    },
    {
      "anonymous": false,
      "inputs": [
        {
          "indexed": true,
          "internalType": "bytes32",
          "name": "batchId",
          "type": "bytes32"
        },
        {
          "indexed": false,
          "internalType": "address",
          "name": "retailer",
          "type": "address"
        },
        {
          "indexed": false,
          "internalType": "enum DrugSupplyChain.BatchStatus",
          "name": "statusEnum",
          "type": "uint8"
        },
        {
          "indexed": false,
          "internalType": "uint256",
          "name": "price",
          "type": "uint256"
        },
        {
          "indexed": false,
          "internalType": "uint256",
          "name": "timestamp",
          "type": "uint256"
        }
      ],
      "name": "RetailerPurchased",
      "type": "event"
    },
    {
      "anonymous": false,
      "inputs": [
        {
          "indexed": true,
          "internalType": "bytes32",
          "name": "batchId",
          "type": "bytes32"
        },
        {
          "indexed": true,
          "internalType": "uint256",
          "name": "timestamp",
          "type": "uint256"
        },
        {
          "indexed": true,
          "internalType": "address",
          "name": "requester",
          "type": "address"
        },
        {
          "indexed": false,
          "internalType": "bool",
          "name": "approved",
          "type": "bool"
        },
        {
          "indexed": false,
          "internalType": "bool",
          "name": "refunded",
          "type": "bool"
        },
        {
          "indexed": false,
          "internalType": "string",
          "name": "reason",
          "type": "string"
        }
      ],
      "name": "ReturnRequested",
      "type": "event"
    },
    {
      "anonymous": false,
      "inputs": [
        {
          "indexed": true,
          "internalType": "bytes32",
          "name": "role",
          "type": "bytes32"
        },
        {
          "indexed": true,
          "internalType": "bytes32",
          "name": "previousAdminRole",
          "type": "bytes32"
        },
        {
          "indexed": true,
          "internalType": "bytes32",
          "name": "newAdminRole",
          "type": "bytes32"
        }
      ],
      "name": "RoleAdminChanged",
      "type": "event"
    },
    {
      "anonymous": false,
      "inputs": [
        {
          "indexed": true,
          "internalType": "bytes32",
          "name": "role",
          "type": "bytes32"
        },
        {
          "indexed": true,
          "internalType": "address",
          "name": "account",
          "type": "address"
        },
        {
          "indexed": true,
          "internalType": "address",
          "name": "sender",
          "type": "address"
        }
      ],
      "name": "RoleGranted",
      "type": "event"
    },
    {
      "anonymous": false,
      "inputs": [
        {
          "indexed": true,
          "internalType": "bytes32",
          "name": "role",
          "type": "bytes32"
        },
        {
          "indexed": true,
          "internalType": "address",
          "name": "account",
          "type": "address"
        },
        {
          "indexed": true,
          "internalType": "address",
          "name": "sender",
          "type": "address"
        }
      ],
      "name": "RoleRevoked",
      "type": "event"
    },
    {
      "inputs": [],
      "name": "DEFAULT_ADMIN_ROLE",
      "outputs": [
        {
          "internalType": "bytes32",
          "name": "",
          "type": "bytes32"
        }
      ],
      "stateMutability": "view",
      "type": "function"
    },
    {
      "inputs": [],
      "name": "DISTRIBUTOR_ROLE",
      "outputs": [
        {
          "internalType": "bytes32",
          "name": "",
          "type": "bytes32"
        }
      ],
      "stateMutability": "view",
      "type": "function"
    },
    {
      "inputs": [],
      "name": "MANUFACTURER_ROLE",
      "outputs": [
        {
          "internalType": "bytes32",
          "name": "",
          "type": "bytes32"
        }
      ],
      "stateMutability": "view",
      "type": "function"
    },
    {
      "inputs": [],
      "name": "RETAILER_ROLE",
      "outputs": [
        {
          "internalType": "bytes32",
          "name": "",
          "type": "bytes32"
        }
      ],
      "stateMutability": "view",
      "type": "function"
    },
    {
      "inputs": [
        {
          "internalType": "address",
          "name": "distributor",
          "type": "address"
        }
      ],
      "name": "addDistributor",
      "outputs": [],
      "stateMutability": "nonpayable",
      "type": "function"
    },
    {
      "inputs": [
        {
          "internalType": "address",
          "name": "manufacturer",
          "type": "address"
        }
      ],
      "name": "addManufacturer",
      "outputs": [],
      "stateMutability": "nonpayable",
      "type": "function"
    },
    {
      "inputs": [
        {
          "internalType": "address",
          "name": "retailer",
          "type": "address"
        }
      ],
      "name": "addRetailer",
      "outputs": [],
      "stateMutability": "nonpayable",
      "type": "function"
    },
    {
      "inputs": [
        {
          "internalType": "uint256",
          "name": "",
          "type": "uint256"
        }
      ],
      "name": "allBatchIds",
      "outputs": [
        {
          "internalType": "bytes32",
          "name": "",
          "type": "bytes32"
        }
      ],
      "stateMutability": "view",
      "type": "function"
    },
    {
      "inputs": [
        {
          "internalType": "bytes32",
          "name": "_batchId",
          "type": "bytes32"
        }
      ],
      "name": "approveRequestDistributor",
      "outputs": [],
      "stateMutability": "nonpayable",
      "type": "function"
    },
    {
      "inputs": [
        {
          "internalType": "bytes32",
          "name": "_batchId",
          "type": "bytes32"
        }
      ],
      "name": "approveRequestRetailer",
      "outputs": [],
      "stateMutability": "nonpayable",
      "type": "function"
    },
    {
      "inputs": [],
      "name": "batchCount",
      "outputs": [
        {
          "internalType": "uint256",
          "name": "",
          "type": "uint256"
        }
      ],
      "stateMutability": "view",
      "type": "function"
    },
    {
      "inputs": [
        {
          "internalType": "address",
          "name": "",
          "type": "address"
        }
      ],
      "name": "batchCounter",
      "outputs": [
        {
          "internalType": "uint256",
          "name": "",
          "type": "uint256"
        }
      ],
      "stateMutability": "view",
      "type": "function"
    },
    {
      "inputs": [
        {
          "internalType": "bytes32",
          "name": "",
          "type": "bytes32"
        }
      ],
      "name": "batchIdToBatch",
      "outputs": [
        {
          "internalType": "bytes32",
          "name": "batchId",
          "type": "bytes32"
        },
        {
          "internalType": "address",
          "name": "manufacturer",
          "type": "address"
        },
        {
          "internalType": "address",
          "name": "distributor",
          "type": "address"
        },
        {
          "internalType": "address",
          "name": "retailer",
          "type": "address"
        },
        {
          "internalType": "uint256",
          "name": "expiryDate",
          "type": "uint256"
        },
        {
          "internalType": "uint256",
          "name": "timestamp",
          "type": "uint256"
        },
        {
          "internalType": "uint256",
          "name": "price",
          "type": "uint256"
        },
        {
          "internalType": "uint256",
          "name": "productPrice",
          "type": "uint256"
        },
        {
          "internalType": "enum DrugSupplyChain.BatchStatus",
          "name": "statusEnum",
          "type": "uint8"
        },
        {
          "internalType": "address",
          "name": "ipfsHash",
          "type": "address"
        }
      ],
      "stateMutability": "view",
      "type": "function"
    },
    {
      "inputs": [
        {
          "internalType": "string",
          "name": "roleName",
          "type": "string"
        },
        {
          "internalType": "address",
          "name": "account",
          "type": "address"
        }
      ],
      "name": "checkRole",
      "outputs": [
        {
          "internalType": "bool",
          "name": "",
          "type": "bool"
        }
      ],
      "stateMutability": "view",
      "type": "function"
    },
    {
      "inputs": [],
      "name": "dataFeed",
      "outputs": [
        {
          "internalType": "contract AggregatorV3Interface",
          "name": "",
          "type": "address"
        }
      ],
      "stateMutability": "view",
      "type": "function"
    },
    {
      "inputs": [],
      "name": "escrowContract",
      "outputs": [
        {
          "internalType": "contract Escrow",
          "name": "",
          "type": "address"
        }
      ],
      "stateMutability": "view",
      "type": "function"
    },
    {
      "inputs": [
        {
          "internalType": "address",
          "name": "account",
          "type": "address"
        }
      ],
      "name": "frozeAddress",
      "outputs": [],
      "stateMutability": "nonpayable",
      "type": "function"
    },
    {
      "inputs": [
        {
          "internalType": "bytes32",
          "name": "role",
          "type": "bytes32"
        }
      ],
      "name": "getRoleAdmin",
      "outputs": [
        {
          "internalType": "bytes32",
          "name": "",
          "type": "bytes32"
        }
      ],
      "stateMutability": "view",
      "type": "function"
    },
    {
      "inputs": [
        {
          "internalType": "bytes32",
          "name": "role",
          "type": "bytes32"
        },
        {
          "internalType": "address",
          "name": "account",
          "type": "address"
        }
      ],
      "name": "grantRole",
      "outputs": [],
      "stateMutability": "nonpayable",
      "type": "function"
    },
    {
      "inputs": [],
      "name": "handlingAddresses",
      "outputs": [
        {
          "internalType": "contract HandlingAddresses",
          "name": "",
          "type": "address"
        }
      ],
      "stateMutability": "view",
      "type": "function"
    },
    {
      "inputs": [
        {
          "internalType": "bytes32",
          "name": "role",
          "type": "bytes32"
        },
        {
          "internalType": "address",
          "name": "account",
          "type": "address"
        }
      ],
      "name": "hasRole",
      "outputs": [
        {
          "internalType": "bool",
          "name": "",
          "type": "bool"
        }
      ],
      "stateMutability": "view",
      "type": "function"
    },
    {
      "inputs": [
        {
          "internalType": "address",
          "name": "",
          "type": "address"
        }
      ],
      "name": "isFrozen",
      "outputs": [
        {
          "internalType": "bool",
          "name": "",
          "type": "bool"
        }
      ],
      "stateMutability": "view",
      "type": "function"
    },
    {
      "inputs": [],
      "name": "owner",
      "outputs": [
        {
          "internalType": "address",
          "name": "",
          "type": "address"
        }
      ],
      "stateMutability": "view",
      "type": "function"
    },
    {
      "inputs": [
        {
          "internalType": "address",
          "name": "",
          "type": "address"
        },
        {
          "internalType": "uint256",
          "name": "",
          "type": "uint256"
        }
      ],
      "name": "ownerToBatches",
      "outputs": [
        {
          "internalType": "bytes32",
          "name": "",
          "type": "bytes32"
        }
      ],
      "stateMutability": "view",
      "type": "function"
    },
    {
      "inputs": [
        {
          "internalType": "uint256",
          "name": "",
          "type": "uint256"
        }
      ],
      "name": "pendingRequests",
      "outputs": [
        {
          "internalType": "bytes32",
          "name": "batchId",
          "type": "bytes32"
        },
        {
          "internalType": "uint256",
          "name": "timestamp",
          "type": "uint256"
        },
        {
          "internalType": "address",
          "name": "requester",
          "type": "address"
        },
        {
          "internalType": "bool",
          "name": "refunded",
          "type": "bool"
        },
        {
          "internalType": "bool",
          "name": "approved",
          "type": "bool"
        },
        {
          "internalType": "string",
          "name": "reason",
          "type": "string"
        }
      ],
      "stateMutability": "view",
      "type": "function"
    },
    {
      "inputs": [
        {
          "internalType": "bytes32",
          "name": "_batchId",
          "type": "bytes32"
        }
      ],
      "name": "rejectRequest",
      "outputs": [],
      "stateMutability": "nonpayable",
      "type": "function"
    },
    {
      "inputs": [
        {
          "internalType": "address",
          "name": "distributor",
          "type": "address"
        }
      ],
      "name": "removeDistributor",
      "outputs": [],
      "stateMutability": "nonpayable",
      "type": "function"
    },
    {
      "inputs": [
        {
          "internalType": "address",
          "name": "manufacturer",
          "type": "address"
        }
      ],
      "name": "removeManufacturer",
      "outputs": [],
      "stateMutability": "nonpayable",
      "type": "function"
    },
    {
      "inputs": [
        {
          "internalType": "address",
          "name": "retailer",
          "type": "address"
        }
      ],
      "name": "removeRetailer",
      "outputs": [],
      "stateMutability": "nonpayable",
      "type": "function"
    },
    {
      "inputs": [
        {
          "internalType": "bytes32",
          "name": "role",
          "type": "bytes32"
        },
        {
          "internalType": "address",
          "name": "callerConfirmation",
          "type": "address"
        }
      ],
      "name": "renounceRole",
      "outputs": [],
      "stateMutability": "nonpayable",
      "type": "function"
    },
    {
      "inputs": [
        {
          "internalType": "bytes32",
          "name": "_batchId",
          "type": "bytes32"
        },
        {
          "internalType": "string",
          "name": "reason",
          "type": "string"
        }
      ],
      "name": "requestReturn",
      "outputs": [],
      "stateMutability": "nonpayable",
      "type": "function"
    },
    {
      "inputs": [
        {
          "internalType": "bytes32",
          "name": "",
          "type": "bytes32"
        }
      ],
      "name": "returnRequests",
      "outputs": [
        {
          "internalType": "bytes32",
          "name": "batchId",
          "type": "bytes32"
        },
        {
          "internalType": "uint256",
          "name": "timestamp",
          "type": "uint256"
        },
        {
          "internalType": "address",
          "name": "requester",
          "type": "address"
        },
        {
          "internalType": "bool",
          "name": "refunded",
          "type": "bool"
        },
        {
          "internalType": "bool",
          "name": "approved",
          "type": "bool"
        },
        {
          "internalType": "string",
          "name": "reason",
          "type": "string"
        }
      ],
      "stateMutability": "view",
      "type": "function"
    },
    {
      "inputs": [
        {
          "internalType": "bytes32",
          "name": "role",
          "type": "bytes32"
        },
        {
          "internalType": "address",
          "name": "account",
          "type": "address"
        }
      ],
      "name": "revokeRole",
      "outputs": [],
      "stateMutability": "nonpayable",
      "type": "function"
    },
    {
      "inputs": [
        {
          "internalType": "bytes4",
          "name": "interfaceId",
          "type": "bytes4"
        }
      ],
      "name": "supportsInterface",
      "outputs": [
        {
          "internalType": "bool",
          "name": "",
          "type": "bool"
        }
      ],
      "stateMutability": "view",
      "type": "function"
    },
    {
      "inputs": [
        {
          "internalType": "address",
          "name": "account",
          "type": "address"
        }
      ],
      "name": "unfreezeAddress",
      "outputs": [],
      "stateMutability": "nonpayable",
      "type": "function"
    },
    {
      "inputs": [],
      "name": "withdraw",
      "outputs": [],
      "stateMutability": "nonpayable",
      "type": "function"
    }
  ],
  "bytecode": "0x608060405234801561001057600080fd5b506040516151353803806151358339818101604052810190610032919061032a565b8282826100486000801b3361015860201b60201c565b5033600c60006101000a81548173ffffffffffffffffffffffffffffffffffffffff021916908373ffffffffffffffffffffffffffffffffffffffff16021790555081600a60006101000a81548173ffffffffffffffffffffffffffffffffffffffff021916908373ffffffffffffffffffffffffffffffffffffffff16021790555082600960006101000a81548173ffffffffffffffffffffffffffffffffffffffff021916908373ffffffffffffffffffffffffffffffffffffffff16021790555080600b60006101000a81548173ffffffffffffffffffffffffffffffffffffffff021916908373ffffffffffffffffffffffffffffffffffffffff16021790555050505050505061037d565b600061016a838361025560201b60201c565b61024a57600160008085815260200190815260200160002060000160008473ffffffffffffffffffffffffffffffffffffffff1673ffffffffffffffffffffffffffffffffffffffff16815260200190815260200160002060006101000a81548160ff0219169083151502179055506101e76102bf60201b60201c565b73ffffffffffffffffffffffffffffffffffffffff168273ffffffffffffffffffffffffffffffffffffffff16847f2f8788117e7eff1d82e926ec794901d17c78024a50270940304540a733656f0d60405160405180910390a46001905061024f565b600090505b92915050565b600080600084815260200190815260200160002060000160008373ffffffffffffffffffffffffffffffffffffffff1673ffffffffffffffffffffffffffffffffffffffff16815260200190815260200160002060009054906101000a900460ff16905092915050565b600033905090565b600080fd5b600073ffffffffffffffffffffffffffffffffffffffff82169050919050565b60006102f7826102cc565b9050919050565b610307816102ec565b811461031257600080fd5b50565b600081519050610324816102fe565b92915050565b600080600060608486031215610343576103426102c7565b5b600061035186828701610315565b935050602061036286828701610315565b925050604061037386828701610315565b9150509250925092565b614da98061038c6000396000f3fe608060405234801561001057600080fd5b506004361061021c5760003560e01c80638da5cb5b11610125578063a217fddf116100ad578063d547741f1161007c578063d547741f1461065c578063e42a96e714610678578063e583983614610696578063edec7fde146106c6578063f0bd87cc146106e25761021c565b8063a217fddf146105d4578063bfb80547146105f2578063c1c460a61461060e578063cf30c7051461062c5761021c565b8063965288b0116100f4578063965288b01461050e57806399fd9cfb1461052c5780639de7c3b7146105485780639e42ff90146105815780639fb655291461059f5761021c565b80638da5cb5b146104885780638ec4f505146104a657806391d14854146104c257806395587d03146104f25761021c565b80633c652a9a116101a85780636a0f9f70116101775780636a0f9f70146103d45780636a75323f1461040457806370099ec8146104205780637026fe9c1461043c5780637250e2241461046c5761021c565b80633c652a9a1461035d5780633ccfd60b1461039257806357c1f9e21461039c5780635f8a5afa146103b85761021c565b8063290b17ec116101ef578063290b17ec146102bd5780632f2ff15d146102ed5780633175a5e81461030957806336568abe1461032557806337fd8ee4146103415761021c565b806301ffc9a71461022157806306f13056146102515780632115e7bf1461026f578063248a9ca31461028d575b600080fd5b61023b600480360381019061023691906134da565b610700565b6040516102489190613522565b60405180910390f35b61025961077a565b6040516102669190613556565b60405180910390f35b610277610780565b604051610284919061358a565b60405180910390f35b6102a760048036038101906102a291906135d1565b6107a4565b6040516102b4919061358a565b60405180910390f35b6102d760048036038101906102d2919061362a565b6107c3565b6040516102e4919061358a565b60405180910390f35b610307600480360381019061030291906136b5565b6107e7565b005b610323600480360381019061031e919061383b565b610809565b005b61033f600480360381019061033a91906136b5565b610c20565b005b61035b600480360381019061035691906135d1565b610c9b565b005b6103776004803603810190610372919061362a565b61104c565b60405161038996959493929190613925565b60405180910390f35b61039a61115a565b005b6103b660048036038101906103b1919061398d565b61128d565b005b6103d260048036038101906103cd919061398d565b6112c8565b005b6103ee60048036038101906103e9919061398d565b6114b8565b6040516103fb9190613556565b60405180910390f35b61041e6004803603810190610419919061398d565b6114d0565b005b61043a6004803603810190610435919061398d565b61150b565b005b610456600480360381019061045191906139ba565b611546565b6040516104639190613522565b60405180910390f35b6104866004803603810190610481919061398d565b61169b565b005b61049061188b565b60405161049d9190613a16565b60405180910390f35b6104c060048036038101906104bb919061398d565b6118b1565b005b6104dc60048036038101906104d791906136b5565b611aa1565b6040516104e99190613522565b60405180910390f35b61050c600480360381019061050791906135d1565b611b0b565b005b610516611ddc565b604051610523919061358a565b60405180910390f35b6105466004803603810190610541919061398d565b611e00565b005b610562600480360381019061055d91906135d1565b611f8f565b6040516105789a99989796959493929190613aa8565b60405180910390f35b610589612070565b6040516105969190613ba3565b60405180910390f35b6105b960048036038101906105b491906135d1565b612096565b6040516105cb96959493929190613925565b60405180910390f35b6105dc612194565b6040516105e9919061358a565b60405180910390f35b61060c6004803603810190610607919061398d565b61219b565b005b6106166122aa565b6040516106239190613bdf565b60405180910390f35b61064660048036038101906106419190613bfa565b6122d0565b604051610653919061358a565b60405180910390f35b610676600480360381019061067191906136b5565b612301565b005b610680612323565b60405161068d9190613c5b565b60405180910390f35b6106b060048036038101906106ab919061398d565b612349565b6040516106bd9190613522565b60405180910390f35b6106e060048036038101906106db91906135d1565b612369565b005b6106ea61271a565b6040516106f7919061358a565b60405180910390f35b60007f7965db0b000000000000000000000000000000000000000000000000000000007bffffffffffffffffffffffffffffffffffffffffffffffffffffffff1916827bffffffffffffffffffffffffffffffffffffffffffffffffffffffff1916148061077357506107728261273e565b5b9050919050565b60085481565b7f2a5f906c256a5d799494fcd066e1f6c077689de1cdb65052a1624de4bace99bf81565b6000806000838152602001908152602001600020600101549050919050565b600781815481106107d357600080fd5b906000526020600020016000915090505481565b6107f0826107a4565b6107f9816127a8565b61080383836127bc565b50505050565b600160003373ffffffffffffffffffffffffffffffffffffffff1673ffffffffffffffffffffffffffffffffffffffff16815260200190815260200160002060009054906101000a900460ff1615610896576040517f08c379a000000000000000000000000000000000000000000000000000000000815260040161088d90613cc2565b60405180910390fd5b6108a082826128ad565b6040518060c001604052808381526020014281526020013373ffffffffffffffffffffffffffffffffffffffff1681526020016000151581526020016000151581526020018281525060046000848152602001908152602001600020600082015181600001556020820151816001015560408201518160020160006101000a81548173ffffffffffffffffffffffffffffffffffffffff021916908373ffffffffffffffffffffffffffffffffffffffff16021790555060608201518160020160146101000a81548160ff02191690831515021790555060808201518160020160156101000a81548160ff02191690831515021790555060a08201518160030190816109ac9190613ee4565b50905050600660046000848152602001908152602001600020908060018154018082558091505060019003906000526020600020906004020160009091909190915060008201548160000155600182015481600101556002820160009054906101000a900473ffffffffffffffffffffffffffffffffffffffff168160020160006101000a81548173ffffffffffffffffffffffffffffffffffffffff021916908373ffffffffffffffffffffffffffffffffffffffff1602179055506002820160149054906101000a900460ff168160020160146101000a81548160ff0219169083151502179055506002820160159054906101000a900460ff168160020160156101000a81548160ff02191690831515021790555060038201816003019081610ad79190613fcc565b5050506003600083815260200190815260200160002060030160009054906101000a900473ffffffffffffffffffffffffffffffffffffffff1673ffffffffffffffffffffffffffffffffffffffff163373ffffffffffffffffffffffffffffffffffffffff1603610b875760046003600084815260200190815260200160002060080160006101000a81548160ff02191690836008811115610b7d57610b7c613a31565b5b0217905550610bc7565b60056003600084815260200190815260200160002060080160006101000a81548160ff02191690836008811115610bc157610bc0613a31565b5b02179055505b3373ffffffffffffffffffffffffffffffffffffffff1642837fc06a34dcf81b54b1e49726bec391ac7b6c2af22a7e3b3594d60445f3a9c68cbe60008086604051610c14939291906140b4565b60405180910390a45050565b610c28612ab0565b73ffffffffffffffffffffffffffffffffffffffff168173ffffffffffffffffffffffffffffffffffffffff1614610c8c576040517f6697b23200000000000000000000000000000000000000000000000000000000815260040160405180910390fd5b610c968282612ab8565b505050565b600160003373ffffffffffffffffffffffffffffffffffffffff1673ffffffffffffffffffffffffffffffffffffffff16815260200190815260200160002060009054906101000a900460ff1615610d28576040517f08c379a0000000000000000000000000000000000000000000000000000000008152600401610d1f90613cc2565b60405180910390fd5b600b60009054906101000a900473ffffffffffffffffffffffffffffffffffffffff1673ffffffffffffffffffffffffffffffffffffffff166391d148547feefb95e842a3287179d933b4460be539a1d5af11aa8b325bb45c5c8dc92de4ed336040518363ffffffff1660e01b8152600401610da59291906140f2565b602060405180830381865afa158015610dc2573d6000803e3d6000fd5b505050506040513d601f19601f82011682018060405250810190610de69190614147565b610e25576040517f08c379a0000000000000000000000000000000000000000000000000000000008152600401610e1c906141c0565b60405180910390fd5b610e2e81612baa565b60006004600083815260200190815260200160002060020160009054906101000a900473ffffffffffffffffffffffffffffffffffffffff1690506003600083815260200190815260200160002060020160009054906101000a900473ffffffffffffffffffffffffffffffffffffffff1673ffffffffffffffffffffffffffffffffffffffff168173ffffffffffffffffffffffffffffffffffffffff1603610fa55760016004600084815260200190815260200160002060020160156101000a81548160ff021916908315150217905550610f0b8282612d81565b60006003600084815260200190815260200160002060020160006101000a81548173ffffffffffffffffffffffffffffffffffffffff021916908373ffffffffffffffffffffffffffffffffffffffff16021790555060076003600084815260200190815260200160002060080160006101000a81548160ff02191690836008811115610f9b57610f9a613a31565b5b0217905550610fe0565b6040517f08c379a0000000000000000000000000000000000000000000000000000000008152600401610fd790614252565b60405180910390fd5b428173ffffffffffffffffffffffffffffffffffffffff16837f19766b5afd8e309c7c73edf73647cd312ca6979822a5397524d466148653d36a6001600460008881526020019081526020016000206003016040516110409291906142f6565b60405180910390a45050565b6006818154811061105c57600080fd5b90600052602060002090600402016000915090508060000154908060010154908060020160009054906101000a900473ffffffffffffffffffffffffffffffffffffffff16908060020160149054906101000a900460ff16908060020160159054906101000a900460ff16908060030180546110d790613d11565b80601f016020809104026020016040519081016040528092919081815260200182805461110390613d11565b80156111505780601f1061112557610100808354040283529160200191611150565b820191906000526020600020905b81548152906001019060200180831161113357829003601f168201915b5050505050905086565b600b60009054906101000a900473ffffffffffffffffffffffffffffffffffffffff1673ffffffffffffffffffffffffffffffffffffffff166391d148546000801b336040518363ffffffff1660e01b81526004016111ba9291906140f2565b602060405180830381865afa1580156111d7573d6000803e3d6000fd5b505050506040513d601f19601f820116820180604052508101906111fb9190614147565b50600a60009054906101000a900473ffffffffffffffffffffffffffffffffffffffff1673ffffffffffffffffffffffffffffffffffffffff16630357371d33476040518363ffffffff1660e01b8152600401611259929190614326565b600060405180830381600087803b15801561127357600080fd5b505af1158015611287573d6000803e3d6000fd5b50505050565b6000801b61129a816127a8565b6112c47ffbd454f36a7e1a388bd6fc3ab10d434aa4578f811acbbcf33afb1c697486313c83612301565b5050565b6000801b6112d5816127a8565b816113007feefb95e842a3287179d933b4460be539a1d5af11aa8b325bb45c5c8dc92de4ed82611aa1565b1561134257806040517f375795b9000000000000000000000000000000000000000000000000000000008152600401611339919061439b565b60405180910390fd5b61136c7f2a5f906c256a5d799494fcd066e1f6c077689de1cdb65052a1624de4bace99bf82611aa1565b156113ae57806040517f375795b90000000000000000000000000000000000000000000000000000000081526004016113a59190614415565b60405180910390fd5b6113d87ffbd454f36a7e1a388bd6fc3ab10d434aa4578f811acbbcf33afb1c697486313c82611aa1565b1561141a57806040517f375795b9000000000000000000000000000000000000000000000000000000008152600401611411919061448f565b60405180910390fd5b600073ffffffffffffffffffffffffffffffffffffffff168173ffffffffffffffffffffffffffffffffffffffff1603611489576040517f08c379a000000000000000000000000000000000000000000000000000000000815260040161148090613cc2565b60405180910390fd5b6114b37feefb95e842a3287179d933b4460be539a1d5af11aa8b325bb45c5c8dc92de4ed846107e7565b505050565b60026020528060005260406000206000915090505481565b6000801b6114dd816127a8565b6115077feefb95e842a3287179d933b4460be539a1d5af11aa8b325bb45c5c8dc92de4ed83612301565b5050565b6000801b611518816127a8565b6115427f2a5f906c256a5d799494fcd066e1f6c077689de1cdb65052a1624de4bace99bf83612301565b5050565b6000807feefb95e842a3287179d933b4460be539a1d5af11aa8b325bb45c5c8dc92de4ed84805190602001200361159f577feefb95e842a3287179d933b4460be539a1d5af11aa8b325bb45c5c8dc92de4ed9050611688565b7ffbd454f36a7e1a388bd6fc3ab10d434aa4578f811acbbcf33afb1c697486313c8480519060200120036115f5577ffbd454f36a7e1a388bd6fc3ab10d434aa4578f811acbbcf33afb1c697486313c9050611687565b7f2a5f906c256a5d799494fcd066e1f6c077689de1cdb65052a1624de4bace99bf84805190602001200361164b577f2a5f906c256a5d799494fcd066e1f6c077689de1cdb65052a1624de4bace99bf9050611686565b6040517f08c379a000000000000000000000000000000000000000000000000000000000815260040161167d90614509565b60405180910390fd5b5b5b6116928184611aa1565b91505092915050565b6000801b6116a8816127a8565b816116d37feefb95e842a3287179d933b4460be539a1d5af11aa8b325bb45c5c8dc92de4ed82611aa1565b1561171557806040517f375795b900000000000000000000000000000000000000000000000000000000815260040161170c919061439b565b60405180910390fd5b61173f7f2a5f906c256a5d799494fcd066e1f6c077689de1cdb65052a1624de4bace99bf82611aa1565b1561178157806040517f375795b90000000000000000000000000000000000000000000000000000000081526004016117789190614415565b60405180910390fd5b6117ab7ffbd454f36a7e1a388bd6fc3ab10d434aa4578f811acbbcf33afb1c697486313c82611aa1565b156117ed57806040517f375795b90000000000000000000000000000000000000000000000000000000081526004016117e4919061448f565b60405180910390fd5b600073ffffffffffffffffffffffffffffffffffffffff168173ffffffffffffffffffffffffffffffffffffffff160361185c576040517f08c379a000000000000000000000000000000000000000000000000000000000815260040161185390613cc2565b60405180910390fd5b6118867ffbd454f36a7e1a388bd6fc3ab10d434aa4578f811acbbcf33afb1c697486313c846107e7565b505050565b600c60009054906101000a900473ffffffffffffffffffffffffffffffffffffffff1681565b6000801b6118be816127a8565b816118e97feefb95e842a3287179d933b4460be539a1d5af11aa8b325bb45c5c8dc92de4ed82611aa1565b1561192b57806040517f375795b9000000000000000000000000000000000000000000000000000000008152600401611922919061439b565b60405180910390fd5b6119557f2a5f906c256a5d799494fcd066e1f6c077689de1cdb65052a1624de4bace99bf82611aa1565b1561199757806040517f375795b900000000000000000000000000000000000000000000000000000000815260040161198e9190614415565b60405180910390fd5b6119c17ffbd454f36a7e1a388bd6fc3ab10d434aa4578f811acbbcf33afb1c697486313c82611aa1565b15611a0357806040517f375795b90000000000000000000000000000000000000000000000000000000081526004016119fa919061448f565b60405180910390fd5b600073ffffffffffffffffffffffffffffffffffffffff168173ffffffffffffffffffffffffffffffffffffffff1603611a72576040517f08c379a0000000000000000000000000000000000000000000000000000000008152600401611a6990613cc2565b60405180910390fd5b611a9c7f2a5f906c256a5d799494fcd066e1f6c077689de1cdb65052a1624de4bace99bf846107e7565b505050565b600080600084815260200190815260200160002060000160008373ffffffffffffffffffffffffffffffffffffffff1673ffffffffffffffffffffffffffffffffffffffff16815260200190815260200160002060009054906101000a900460ff16905092915050565b611b1481612baa565b60006004600083815260200190815260200160002060020160009054906101000a900473ffffffffffffffffffffffffffffffffffffffff1690506003600083815260200190815260200160002060030160009054906101000a900473ffffffffffffffffffffffffffffffffffffffff1673ffffffffffffffffffffffffffffffffffffffff168173ffffffffffffffffffffffffffffffffffffffff16148015611be65750611be57ffbd454f36a7e1a388bd6fc3ab10d434aa4578f811acbbcf33afb1c697486313c33611aa1565b5b15611c2e57600380600084815260200190815260200160002060080160006101000a81548160ff02191690836008811115611c2457611c23613a31565b5b0217905550611d4a565b6003600083815260200190815260200160002060020160009054906101000a900473ffffffffffffffffffffffffffffffffffffffff1673ffffffffffffffffffffffffffffffffffffffff168173ffffffffffffffffffffffffffffffffffffffff16148015611cc55750611cc47feefb95e842a3287179d933b4460be539a1d5af11aa8b325bb45c5c8dc92de4ed33611aa1565b5b15611d0e5760016003600084815260200190815260200160002060080160006101000a81548160ff02191690836008811115611d0457611d03613a31565b5b0217905550611d49565b6040517f08c379a0000000000000000000000000000000000000000000000000000000008152600401611d409061459b565b60405180910390fd5b5b611d538261301d565b6004600083815260200190815260200160002060008082016000905560018201600090556002820160006101000a81549073ffffffffffffffffffffffffffffffffffffffff02191690556002820160146101000a81549060ff02191690556002820160156101000a81549060ff0219169055600382016000611dd69190613411565b50505050565b7feefb95e842a3287179d933b4460be539a1d5af11aa8b325bb45c5c8dc92de4ed81565b6000801b611e0d816127a8565b600073ffffffffffffffffffffffffffffffffffffffff168273ffffffffffffffffffffffffffffffffffffffff1603611e7c576040517f08c379a0000000000000000000000000000000000000000000000000000000008152600401611e7390614607565b60405180910390fd5b60018060008473ffffffffffffffffffffffffffffffffffffffff1673ffffffffffffffffffffffffffffffffffffffff16815260200190815260200160002060006101000a81548160ff021916908315150217905550611efd7feefb95e842a3287179d933b4460be539a1d5af11aa8b325bb45c5c8dc92de4ed83612ab8565b50611f287ffbd454f36a7e1a388bd6fc3ab10d434aa4578f811acbbcf33afb1c697486313c83612ab8565b50611f537f2a5f906c256a5d799494fcd066e1f6c077689de1cdb65052a1624de4bace99bf83612ab8565b507f90811a8edd3b3c17eeaefffc17f639cc69145d41a359c9843994dc253820369082604051611f839190613a16565b60405180910390a15050565b60036020528060005260406000206000915090508060000154908060010160009054906101000a900473ffffffffffffffffffffffffffffffffffffffff16908060020160009054906101000a900473ffffffffffffffffffffffffffffffffffffffff16908060030160009054906101000a900473ffffffffffffffffffffffffffffffffffffffff16908060040154908060050154908060060154908060070154908060080160009054906101000a900460ff16908060080160019054906101000a900473ffffffffffffffffffffffffffffffffffffffff1690508a565b600960009054906101000a900473ffffffffffffffffffffffffffffffffffffffff1681565b60046020528060005260406000206000915090508060000154908060010154908060020160009054906101000a900473ffffffffffffffffffffffffffffffffffffffff16908060020160149054906101000a900460ff16908060020160159054906101000a900460ff169080600301805461211190613d11565b80601f016020809104026020016040519081016040528092919081815260200182805461213d90613d11565b801561218a5780601f1061215f5761010080835404028352916020019161218a565b820191906000526020600020905b81548152906001019060200180831161216d57829003601f168201915b5050505050905086565b6000801b81565b6000801b6121a8816127a8565b600073ffffffffffffffffffffffffffffffffffffffff168273ffffffffffffffffffffffffffffffffffffffff1603612217576040517f08c379a000000000000000000000000000000000000000000000000000000000815260040161220e90614673565b60405180910390fd5b6000600160008473ffffffffffffffffffffffffffffffffffffffff1673ffffffffffffffffffffffffffffffffffffffff16815260200190815260200160002060006101000a81548160ff0219169083151502179055507fc3776b472ebf54114339eec9e4dc924e7ce307a97f5c1ee72b6d474e6e5e8b7c8260405161229e9190613a16565b60405180910390a15050565b600b60009054906101000a900473ffffffffffffffffffffffffffffffffffffffff1681565b600560205281600052604060002081815481106122ec57600080fd5b90600052602060002001600091509150505481565b61230a826107a4565b612313816127a8565b61231d8383612ab8565b50505050565b600a60009054906101000a900473ffffffffffffffffffffffffffffffffffffffff1681565b60016020528060005260406000206000915054906101000a900460ff1681565b600160003373ffffffffffffffffffffffffffffffffffffffff1673ffffffffffffffffffffffffffffffffffffffff16815260200190815260200160002060009054906101000a900460ff16156123f6576040517f08c379a00000000000000000000000000000000000000000000000000000000081526004016123ed90613cc2565b60405180910390fd5b600b60009054906101000a900473ffffffffffffffffffffffffffffffffffffffff1673ffffffffffffffffffffffffffffffffffffffff166391d148547ffbd454f36a7e1a388bd6fc3ab10d434aa4578f811acbbcf33afb1c697486313c336040518363ffffffff1660e01b81526004016124739291906140f2565b602060405180830381865afa158015612490573d6000803e3d6000fd5b505050506040513d601f19601f820116820180604052508101906124b49190614147565b6124f3576040517f08c379a00000000000000000000000000000000000000000000000000000000081526004016124ea906146df565b60405180910390fd5b6124fc81612baa565b60006004600083815260200190815260200160002060020160009054906101000a900473ffffffffffffffffffffffffffffffffffffffff1690506003600083815260200190815260200160002060030160009054906101000a900473ffffffffffffffffffffffffffffffffffffffff1673ffffffffffffffffffffffffffffffffffffffff168173ffffffffffffffffffffffffffffffffffffffff16036126735760016004600084815260200190815260200160002060020160156101000a81548160ff0219169083151502179055506125d98282612d81565b60006003600084815260200190815260200160002060030160006101000a81548173ffffffffffffffffffffffffffffffffffffffff021916908373ffffffffffffffffffffffffffffffffffffffff16021790555060066003600084815260200190815260200160002060080160006101000a81548160ff0219169083600881111561266957612668613a31565b5b02179055506126ae565b6040517f08c379a00000000000000000000000000000000000000000000000000000000081526004016126a590614252565b60405180910390fd5b428173ffffffffffffffffffffffffffffffffffffffff16837f19766b5afd8e309c7c73edf73647cd312ca6979822a5397524d466148653d36a60016004600088815260200190815260200160002060030160405161270e9291906142f6565b60405180910390a45050565b7ffbd454f36a7e1a388bd6fc3ab10d434aa4578f811acbbcf33afb1c697486313c81565b60007f01ffc9a7000000000000000000000000000000000000000000000000000000007bffffffffffffffffffffffffffffffffffffffffffffffffffffffff1916827bffffffffffffffffffffffffffffffffffffffffffffffffffffffff1916149050919050565b6127b9816127b4612ab0565b613261565b50565b60006127c88383611aa1565b6128a257600160008085815260200190815260200160002060000160008473ffffffffffffffffffffffffffffffffffffffff1673ffffffffffffffffffffffffffffffffffffffff16815260200190815260200160002060006101000a81548160ff02191690831515021790555061283f612ab0565b73ffffffffffffffffffffffffffffffffffffffff168273ffffffffffffffffffffffffffffffffffffffff16847f2f8788117e7eff1d82e926ec794901d17c78024a50270940304540a733656f0d60405160405180910390a4600190506128a7565b600090505b92915050565b610100815111156128f3576040517f08c379a00000000000000000000000000000000000000000000000000000000081526004016128ea9061474b565b60405180910390fd5b600073ffffffffffffffffffffffffffffffffffffffff166004600084815260200190815260200160002060020160009054906101000a900473ffffffffffffffffffffffffffffffffffffffff1673ffffffffffffffffffffffffffffffffffffffff1614612998576040517f08c379a000000000000000000000000000000000000000000000000000000000815260040161298f906147dd565b60405180910390fd5b6003600083815260200190815260200160002060030160009054906101000a900473ffffffffffffffffffffffffffffffffffffffff1673ffffffffffffffffffffffffffffffffffffffff163373ffffffffffffffffffffffffffffffffffffffff1614158015612a6c57506003600083815260200190815260200160002060020160009054906101000a900473ffffffffffffffffffffffffffffffffffffffff1673ffffffffffffffffffffffffffffffffffffffff163373ffffffffffffffffffffffffffffffffffffffff1614155b15612aac576040517f08c379a0000000000000000000000000000000000000000000000000000000008152600401612aa39061486f565b60405180910390fd5b5050565b600033905090565b6000612ac48383611aa1565b15612b9f57600080600085815260200190815260200160002060000160008473ffffffffffffffffffffffffffffffffffffffff1673ffffffffffffffffffffffffffffffffffffffff16815260200190815260200160002060006101000a81548160ff021916908315150217905550612b3c612ab0565b73ffffffffffffffffffffffffffffffffffffffff168273ffffffffffffffffffffffffffffffffffffffff16847ff6391f5c32d9c69d2a47ea670b442974b53935d1edc7fd64eb21e047a839171b60405160405180910390a460019050612ba4565b600090505b92915050565b600073ffffffffffffffffffffffffffffffffffffffff166004600083815260200190815260200160002060020160009054906101000a900473ffffffffffffffffffffffffffffffffffffffff1673ffffffffffffffffffffffffffffffffffffffff1603612c4f576040517f08c379a0000000000000000000000000000000000000000000000000000000008152600401612c46906148db565b60405180910390fd5b6004600082815260200190815260200160002060020160159054906101000a900460ff1615612cb3576040517f08c379a0000000000000000000000000000000000000000000000000000000008152600401612caa90614947565b60405180910390fd5b6004600082815260200190815260200160002060020160149054906101000a900460ff1615612d17576040517f08c379a0000000000000000000000000000000000000000000000000000000008152600401612d0e906149b3565b60405180910390fd5b4262093a806004600084815260200190815260200160002060010154612d3d9190614a02565b1015612d7e576040517f08c379a0000000000000000000000000000000000000000000000000000000008152600401612d7590614a82565b60405180910390fd5b50565b600160003373ffffffffffffffffffffffffffffffffffffffff1673ffffffffffffffffffffffffffffffffffffffff16815260200190815260200160002060009054906101000a900460ff1615612e0e576040517f08c379a0000000000000000000000000000000000000000000000000000000008152600401612e0590613cc2565b60405180910390fd5b60016004600084815260200190815260200160002060020160146101000a81548160ff0219169083151502179055506003600083815260200190815260200160002060010160009054906101000a900473ffffffffffffffffffffffffffffffffffffffff169050600a60009054906101000a900473ffffffffffffffffffffffffffffffffffffffff1673ffffffffffffffffffffffffffffffffffffffff16630357371d82612ed460036000878152602001908152602001600020600601546132b2565b6040518363ffffffff1660e01b8152600401612ef1929190614326565b600060405180830381600087803b158015612f0b57600080fd5b505af1158015612f1f573d6000803e3d6000fd5b50505050612f2c8261301d565b6004600083815260200190815260200160002060008082016000905560018201600090556002820160006101000a81549073ffffffffffffffffffffffffffffffffffffffff02191690556002820160146101000a81549060ff02191690556002820160156101000a81549060ff0219169055600382016000612faf9190613411565b5050428173ffffffffffffffffffffffffffffffffffffffff16837fd10aed24016cac91d014d03affaaa7a129ad8c910443f27a898f3d028caa5bfb6001600460008881526020019081526020016000206003016040516130119291906142f6565b60405180910390a45050565b60005b60068054905081101561325d5760046000838152602001908152602001600020600001546006828154811061305857613057614aa2565b5b9060005260206000209060040201600001540361325057600660016006805490506130839190614ad1565b8154811061309457613093614aa2565b5b9060005260206000209060040201600682815481106130b6576130b5614aa2565b5b906000526020600020906004020160008201548160000155600182015481600101556002820160009054906101000a900473ffffffffffffffffffffffffffffffffffffffff168160020160006101000a81548173ffffffffffffffffffffffffffffffffffffffff021916908373ffffffffffffffffffffffffffffffffffffffff1602179055506002820160149054906101000a900460ff168160020160146101000a81548160ff0219169083151502179055506002820160159054906101000a900460ff168160020160156101000a81548160ff021916908315150217905550600382018160030190816131ad9190613fcc565b5090505060068054806131c3576131c2614b05565b5b600190038181906000526020600020906004020160008082016000905560018201600090556002820160006101000a81549073ffffffffffffffffffffffffffffffffffffffff02191690556002820160146101000a81549060ff02191690556002820160156101000a81549060ff02191690556003820160006132479190613411565b5050905561325d565b8080600101915050613020565b5050565b61326b8282611aa1565b6132ae5780826040517fe2517d3f0000000000000000000000000000000000000000000000000000000081526004016132a5929190614b34565b60405180910390fd5b5050565b6000806132bd613370565b905060008111613302576040517f08c379a00000000000000000000000000000000000000000000000000000000081526004016132f990614ba9565b60405180910390fd5b6000831161334757826040517f3728b83d00000000000000000000000000000000000000000000000000000000815260040161333e9190613556565b60405180910390fd5b6000816305f5e1008561335a9190614bc9565b6133649190614c3a565b90508092505050919050565b600080600960009054906101000a900473ffffffffffffffffffffffffffffffffffffffff1673ffffffffffffffffffffffffffffffffffffffff1663feaf968c6040518163ffffffff1660e01b815260040160a060405180830381865afa1580156133e0573d6000803e3d6000fd5b505050506040513d601f19601f820116820180604052508101906134049190614cf8565b5050509150508091505090565b50805461341d90613d11565b6000825580601f1061342f575061344e565b601f01602090049060005260206000209081019061344d9190613451565b5b50565b5b8082111561346a576000816000905550600101613452565b5090565b6000604051905090565b600080fd5b600080fd5b60007fffffffff0000000000000000000000000000000000000000000000000000000082169050919050565b6134b781613482565b81146134c257600080fd5b50565b6000813590506134d4816134ae565b92915050565b6000602082840312156134f0576134ef613478565b5b60006134fe848285016134c5565b91505092915050565b60008115159050919050565b61351c81613507565b82525050565b60006020820190506135376000830184613513565b92915050565b6000819050919050565b6135508161353d565b82525050565b600060208201905061356b6000830184613547565b92915050565b6000819050919050565b61358481613571565b82525050565b600060208201905061359f600083018461357b565b92915050565b6135ae81613571565b81146135b957600080fd5b50565b6000813590506135cb816135a5565b92915050565b6000602082840312156135e7576135e6613478565b5b60006135f5848285016135bc565b91505092915050565b6136078161353d565b811461361257600080fd5b50565b600081359050613624816135fe565b92915050565b6000602082840312156136405761363f613478565b5b600061364e84828501613615565b91505092915050565b600073ffffffffffffffffffffffffffffffffffffffff82169050919050565b600061368282613657565b9050919050565b61369281613677565b811461369d57600080fd5b50565b6000813590506136af81613689565b92915050565b600080604083850312156136cc576136cb613478565b5b60006136da858286016135bc565b92505060206136eb858286016136a0565b9150509250929050565b600080fd5b600080fd5b6000601f19601f8301169050919050565b7f4e487b7100000000000000000000000000000000000000000000000000000000600052604160045260246000fd5b613748826136ff565b810181811067ffffffffffffffff8211171561376757613766613710565b5b80604052505050565b600061377a61346e565b9050613786828261373f565b919050565b600067ffffffffffffffff8211156137a6576137a5613710565b5b6137af826136ff565b9050602081019050919050565b82818337600083830152505050565b60006137de6137d98461378b565b613770565b9050828152602081018484840111156137fa576137f96136fa565b5b6138058482856137bc565b509392505050565b600082601f830112613822576138216136f5565b5b81356138328482602086016137cb565b91505092915050565b6000806040838503121561385257613851613478565b5b6000613860858286016135bc565b925050602083013567ffffffffffffffff8111156138815761388061347d565b5b61388d8582860161380d565b9150509250929050565b6138a081613677565b82525050565b600081519050919050565b600082825260208201905092915050565b60005b838110156138e05780820151818401526020810190506138c5565b60008484015250505050565b60006138f7826138a6565b61390181856138b1565b93506139118185602086016138c2565b61391a816136ff565b840191505092915050565b600060c08201905061393a600083018961357b565b6139476020830188613547565b6139546040830187613897565b6139616060830186613513565b61396e6080830185613513565b81810360a083015261398081846138ec565b9050979650505050505050565b6000602082840312156139a3576139a2613478565b5b60006139b1848285016136a0565b91505092915050565b600080604083850312156139d1576139d0613478565b5b600083013567ffffffffffffffff8111156139ef576139ee61347d565b5b6139fb8582860161380d565b9250506020613a0c858286016136a0565b9150509250929050565b6000602082019050613a2b6000830184613897565b92915050565b7f4e487b7100000000000000000000000000000000000000000000000000000000600052602160045260246000fd5b60098110613a7157613a70613a31565b5b50565b6000819050613a8282613a60565b919050565b6000613a9282613a74565b9050919050565b613aa281613a87565b82525050565b600061014082019050613abe600083018d61357b565b613acb602083018c613897565b613ad8604083018b613897565b613ae5606083018a613897565b613af26080830189613547565b613aff60a0830188613547565b613b0c60c0830187613547565b613b1960e0830186613547565b613b27610100830185613a99565b613b35610120830184613897565b9b9a5050505050505050505050565b6000819050919050565b6000613b69613b64613b5f84613657565b613b44565b613657565b9050919050565b6000613b7b82613b4e565b9050919050565b6000613b8d82613b70565b9050919050565b613b9d81613b82565b82525050565b6000602082019050613bb86000830184613b94565b92915050565b6000613bc982613b70565b9050919050565b613bd981613bbe565b82525050565b6000602082019050613bf46000830184613bd0565b92915050565b60008060408385031215613c1157613c10613478565b5b6000613c1f858286016136a0565b9250506020613c3085828601613615565b9150509250929050565b6000613c4582613b70565b9050919050565b613c5581613c3a565b82525050565b6000602082019050613c706000830184613c4c565b92915050565b7f4164647265737320496e76616c69640000000000000000000000000000000000600082015250565b6000613cac600f836138b1565b9150613cb782613c76565b602082019050919050565b60006020820190508181036000830152613cdb81613c9f565b9050919050565b7f4e487b7100000000000000000000000000000000000000000000000000000000600052602260045260246000fd5b60006002820490506001821680613d2957607f821691505b602082108103613d3c57613d3b613ce2565b5b50919050565b60008190508160005260206000209050919050565b60006020601f8301049050919050565b600082821b905092915050565b600060088302613da47fffffffffffffffffffffffffffffffffffffffffffffffffffffffffffffffff82613d67565b613dae8683613d67565b95508019841693508086168417925050509392505050565b6000613de1613ddc613dd78461353d565b613b44565b61353d565b9050919050565b6000819050919050565b613dfb83613dc6565b613e0f613e0782613de8565b848454613d74565b825550505050565b600090565b613e24613e17565b613e2f818484613df2565b505050565b5b81811015613e5357613e48600082613e1c565b600181019050613e35565b5050565b601f821115613e9857613e6981613d42565b613e7284613d57565b81016020851015613e81578190505b613e95613e8d85613d57565b830182613e34565b50505b505050565b600082821c905092915050565b6000613ebb60001984600802613e9d565b1980831691505092915050565b6000613ed48383613eaa565b9150826002028217905092915050565b613eed826138a6565b67ffffffffffffffff811115613f0657613f05613710565b5b613f108254613d11565b613f1b828285613e57565b600060209050601f831160018114613f4e5760008415613f3c578287015190505b613f468582613ec8565b865550613fae565b601f198416613f5c86613d42565b60005b82811015613f8457848901518255600182019150602085019450602081019050613f5f565b86831015613fa15784890151613f9d601f891682613eaa565b8355505b6001600288020188555050505b505050505050565b600081549050613fc581613d11565b9050919050565b818103613fda5750506140b2565b613fe382613fb6565b67ffffffffffffffff811115613ffc57613ffb613710565b5b6140068254613d11565b614011828285613e57565b6000601f831160018114614040576000841561402e578287015490505b6140388582613ec8565b8655506140ab565b601f19841661404e87613d42565b965061405986613d42565b60005b828110156140815784890154825560018201915060018501945060208101905061405c565b8683101561409e578489015461409a601f891682613eaa565b8355505b6001600288020188555050505b5050505050505b565b60006060820190506140c96000830186613513565b6140d66020830185613513565b81810360408301526140e881846138ec565b9050949350505050565b6000604082019050614107600083018561357b565b6141146020830184613897565b9392505050565b61412481613507565b811461412f57600080fd5b50565b6000815190506141418161411b565b92915050565b60006020828403121561415d5761415c613478565b5b600061416b84828501614132565b91505092915050565b7f497473206e6f74204d616e756661637475726572000000000000000000000000600082015250565b60006141aa6014836138b1565b91506141b582614174565b602082019050919050565b600060208201905081810360008301526141d98161419d565b9050919050565b7f556e617574686f72697a65642063616c6c657220666f7220617070726f76696e60008201527f6720746869732072657475726e00000000000000000000000000000000000000602082015250565b600061423c602d836138b1565b9150614247826141e0565b604082019050919050565b6000602082019050818103600083015261426b8161422f565b9050919050565b6000815461427f81613d11565b61428981866138b1565b945060018216600081146142a457600181146142ba576142ed565b60ff1983168652811515602002860193506142ed565b6142c385613d42565b60005b838110156142e5578154818901526001820191506020810190506142c6565b808801955050505b50505092915050565b600060408201905061430b6000830185613513565b818103602083015261431d8184614272565b90509392505050565b600060408201905061433b6000830185613897565b6143486020830184613547565b9392505050565b7f4d616e7566616374757265720000000000000000000000000000000000000000600082015250565b6000614385600c836138b1565b91506143908261434f565b602082019050919050565b600060408201905081810360008301526143b481614378565b90506143c36020830184613897565b92915050565b7f52657461696c6572000000000000000000000000000000000000000000000000600082015250565b60006143ff6008836138b1565b915061440a826143c9565b602082019050919050565b6000604082019050818103600083015261442e816143f2565b905061443d6020830184613897565b92915050565b7f4469737472696275746f72000000000000000000000000000000000000000000600082015250565b6000614479600b836138b1565b915061448482614443565b602082019050919050565b600060408201905081810360008301526144a88161446c565b90506144b76020830184613897565b92915050565b7f496e76616c696420726f6c65206e616d65000000000000000000000000000000600082015250565b60006144f36011836138b1565b91506144fe826144bd565b602082019050919050565b60006020820190508181036000830152614522816144e6565b9050919050565b7f556e617574686f72697a656420746f2072656a6563742074686973207265717560008201527f6573740000000000000000000000000000000000000000000000000000000000602082015250565b60006145856023836138b1565b915061459082614529565b604082019050919050565b600060208201905081810360008301526145b481614578565b9050919050565b7f43616e6e6f7420667265657a6520746865207a65726f20616464726573730000600082015250565b60006145f1601e836138b1565b91506145fc826145bb565b602082019050919050565b60006020820190508181036000830152614620816145e4565b9050919050565b7f43616e6e6f7420756e667265657a6520746865207a65726f2061646472657373600082015250565b600061465d6020836138b1565b915061466882614627565b602082019050919050565b6000602082019050818103600083015261468c81614650565b9050919050565b7f497473206e6f74204469737472696275746f7200000000000000000000000000600082015250565b60006146c96013836138b1565b91506146d482614693565b602082019050919050565b600060208201905081810360008301526146f8816146bc565b9050919050565b7f526561736f6e20746f6f206c6f6e670000000000000000000000000000000000600082015250565b6000614735600f836138b1565b9150614740826146ff565b602082019050919050565b6000602082019050818103600083015261476481614728565b9050919050565b7f52657475726e207265717565737420666f72207468697320626174636820616c60008201527f7265616479206578697374730000000000000000000000000000000000000000602082015250565b60006147c7602c836138b1565b91506147d28261476b565b604082019050919050565b600060208201905081810360008301526147f6816147ba565b9050919050565b7f596f7520617265206e6f7420746865206f776e6572206f66207468697320626160008201527f7463680000000000000000000000000000000000000000000000000000000000602082015250565b60006148596023836138b1565b9150614864826147fd565b604082019050919050565b600060208201905081810360008301526148888161484c565b9050919050565b7f4e6f2072657475726e207265717565737420666f756e64000000000000000000600082015250565b60006148c56017836138b1565b91506148d08261488f565b602082019050919050565b600060208201905081810360008301526148f4816148b8565b9050919050565b7f5265717565737420616c726561647920617070726f7665640000000000000000600082015250565b60006149316018836138b1565b915061493c826148fb565b602082019050919050565b6000602082019050818103600083015261496081614924565b9050919050565b7f5265717565737420616c726561647920726566756e6465640000000000000000600082015250565b600061499d6018836138b1565b91506149a882614967565b602082019050919050565b600060208201905081810360008301526149cc81614990565b9050919050565b7f4e487b7100000000000000000000000000000000000000000000000000000000600052601160045260246000fd5b6000614a0d8261353d565b9150614a188361353d565b9250828201905080821115614a3057614a2f6149d3565b5b92915050565b7f5265717565737420686173206578706972656400000000000000000000000000600082015250565b6000614a6c6013836138b1565b9150614a7782614a36565b602082019050919050565b60006020820190508181036000830152614a9b81614a5f565b9050919050565b7f4e487b7100000000000000000000000000000000000000000000000000000000600052603260045260246000fd5b6000614adc8261353d565b9150614ae78361353d565b9250828203905081811115614aff57614afe6149d3565b5b92915050565b7f4e487b7100000000000000000000000000000000000000000000000000000000600052603160045260246000fd5b6000604082019050614b496000830185613897565b614b56602083018461357b565b9392505050565b7f496e76616c696420707269636520666565642064617461000000000000000000600082015250565b6000614b936017836138b1565b9150614b9e82614b5d565b602082019050919050565b60006020820190508181036000830152614bc281614b86565b9050919050565b6000614bd48261353d565b9150614bdf8361353d565b9250828202614bed8161353d565b91508282048414831517614c0457614c036149d3565b5b5092915050565b7f4e487b7100000000000000000000000000000000000000000000000000000000600052601260045260246000fd5b6000614c458261353d565b9150614c508361353d565b925082614c6057614c5f614c0b565b5b828204905092915050565b600069ffffffffffffffffffff82169050919050565b614c8a81614c6b565b8114614c9557600080fd5b50565b600081519050614ca781614c81565b92915050565b6000819050919050565b614cc081614cad565b8114614ccb57600080fd5b50565b600081519050614cdd81614cb7565b92915050565b600081519050614cf2816135fe565b92915050565b600080600080600060a08688031215614d1457614d13613478565b5b6000614d2288828901614c98565b9550506020614d3388828901614cce565b9450506040614d4488828901614ce3565b9350506060614d5588828901614ce3565b9250506080614d6688828901614c98565b915050929550929590935056fea26469706673582212208951bfa63842682188849b8655426ac3bc7c120a55c6d62cba88466e4ef614da64736f6c634300081c0033",
  "linkReferences": {},
  "deployedLinkReferences": {}
}