{
  "_format": "hh-sol-artifact-1",
  "contractName": "HandlingAddresses",
  "sourceName": "contracts/HandlingAddresses.sol",
  "abi": [
    {
      "inputs": [],
      "stateMutability": "nonpayable",
      "type": "constructor"
    },
    {
      "inputs": [],
      "name": "AccessControlBadConfirmation",
      "type": "error"
    },
    {
      "inputs": [
        {
          "internalType": "address",
          "name": "account",
          "type": "address"
        },
        {
          "internalType": "bytes32",
          "name": "neededRole",
          "type": "bytes32"
        }
      ],
      "name": "AccessControlUnauthorizedAccount",
      "type": "error"
    },
    {
      "inputs": [
        {
          "internalType": "string",
          "name": "role",
          "type": "string"
        },
        {
          "internalType": "address",
          "name": "account",
          "type": "address"
        }
      ],
      "name": "AddressAlreadyExists",
      "type": "error"
    },
    {
      "anonymous": false,
      "inputs": [
        {
          "indexed": false,
          "internalType": "address",
          "name": "account",
          "type": "address"
        }
      ],
      "name": "AddressFrozen",
      "type": "event"
    },
    {
      "anonymous": false,
      "inputs": [
        {
          "indexed": false,
          "internalType": "address",
          "name": "account",
          "type": "address"
        }
      ],
      "name": "AddressUnfrozen",
      "type": "event"
    },
    {
      "anonymous": false,
      "inputs": [
        {
          "indexed": true,
          "internalType": "bytes32",
          "name": "role",
          "type": "bytes32"
        },
        {
          "indexed": true,
          "internalType": "bytes32",
          "name": "previousAdminRole",
          "type": "bytes32"
        },
        {
          "indexed": true,
          "internalType": "bytes32",
          "name": "newAdminRole",
          "type": "bytes32"
        }
      ],
      "name": "RoleAdminChanged",
      "type": "event"
    },
    {
      "anonymous": false,
      "inputs": [
        {
          "indexed": true,
          "internalType": "bytes32",
          "name": "role",
          "type": "bytes32"
        },
        {
          "indexed": true,
          "internalType": "address",
          "name": "account",
          "type": "address"
        },
        {
          "indexed": true,
          "internalType": "address",
          "name": "sender",
          "type": "address"
        }
      ],
      "name": "RoleGranted",
      "type": "event"
    },
    {
      "anonymous": false,
      "inputs": [
        {
          "indexed": true,
          "internalType": "bytes32",
          "name": "role",
          "type": "bytes32"
        },
        {
          "indexed": true,
          "internalType": "address",
          "name": "account",
          "type": "address"
        },
        {
          "indexed": true,
          "internalType": "address",
          "name": "sender",
          "type": "address"
        }
      ],
      "name": "RoleRevoked",
      "type": "event"
    },
    {
      "inputs": [],
      "name": "DEFAULT_ADMIN_ROLE",
      "outputs": [
        {
          "internalType": "bytes32",
          "name": "",
          "type": "bytes32"
        }
      ],
      "stateMutability": "view",
      "type": "function"
    },
    {
      "inputs": [],
      "name": "DISTRIBUTOR_ROLE",
      "outputs": [
        {
          "internalType": "bytes32",
          "name": "",
          "type": "bytes32"
        }
      ],
      "stateMutability": "view",
      "type": "function"
    },
    {
      "inputs": [],
      "name": "MANUFACTURER_ROLE",
      "outputs": [
        {
          "internalType": "bytes32",
          "name": "",
          "type": "bytes32"
        }
      ],
      "stateMutability": "view",
      "type": "function"
    },
    {
      "inputs": [],
      "name": "RETAILER_ROLE",
      "outputs": [
        {
          "internalType": "bytes32",
          "name": "",
          "type": "bytes32"
        }
      ],
      "stateMutability": "view",
      "type": "function"
    },
    {
      "inputs": [
        {
          "internalType": "address",
          "name": "distributor",
          "type": "address"
        }
      ],
      "name": "addDistributor",
      "outputs": [],
      "stateMutability": "nonpayable",
      "type": "function"
    },
    {
      "inputs": [
        {
          "internalType": "address",
          "name": "manufacturer",
          "type": "address"
        }
      ],
      "name": "addManufacturer",
      "outputs": [],
      "stateMutability": "nonpayable",
      "type": "function"
    },
    {
      "inputs": [
        {
          "internalType": "address",
          "name": "retailer",
          "type": "address"
        }
      ],
      "name": "addRetailer",
      "outputs": [],
      "stateMutability": "nonpayable",
      "type": "function"
    },
    {
      "inputs": [
        {
          "internalType": "address",
          "name": "account",
          "type": "address"
        }
      ],
      "name": "frozeAddress",
      "outputs": [],
      "stateMutability": "nonpayable",
      "type": "function"
    },
    {
      "inputs": [
        {
          "internalType": "bytes32",
          "name": "role",
          "type": "bytes32"
        }
      ],
      "name": "getRoleAdmin",
      "outputs": [
        {
          "internalType": "bytes32",
          "name": "",
          "type": "bytes32"
        }
      ],
      "stateMutability": "view",
      "type": "function"
    },
    {
      "inputs": [
        {
          "internalType": "bytes32",
          "name": "role",
          "type": "bytes32"
        },
        {
          "internalType": "address",
          "name": "account",
          "type": "address"
        }
      ],
      "name": "grantRole",
      "outputs": [],
      "stateMutability": "nonpayable",
      "type": "function"
    },
    {
      "inputs": [
        {
          "internalType": "bytes32",
          "name": "role",
          "type": "bytes32"
        },
        {
          "internalType": "address",
          "name": "account",
          "type": "address"
        }
      ],
      "name": "hasRole",
      "outputs": [
        {
          "internalType": "bool",
          "name": "",
          "type": "bool"
        }
      ],
      "stateMutability": "view",
      "type": "function"
    },
    {
      "inputs": [
        {
          "internalType": "address",
          "name": "",
          "type": "address"
        }
      ],
      "name": "isFrozen",
      "outputs": [
        {
          "internalType": "bool",
          "name": "",
          "type": "bool"
        }
      ],
      "stateMutability": "view",
      "type": "function"
    },
    {
      "inputs": [
        {
          "internalType": "address",
          "name": "distributor",
          "type": "address"
        }
      ],
      "name": "removeDistributor",
      "outputs": [],
      "stateMutability": "nonpayable",
      "type": "function"
    },
    {
      "inputs": [
        {
          "internalType": "address",
          "name": "manufacturer",
          "type": "address"
        }
      ],
      "name": "removeManufacturer",
      "outputs": [],
      "stateMutability": "nonpayable",
      "type": "function"
    },
    {
      "inputs": [
        {
          "internalType": "address",
          "name": "retailer",
          "type": "address"
        }
      ],
      "name": "removeRetailer",
      "outputs": [],
      "stateMutability": "nonpayable",
      "type": "function"
    },
    {
      "inputs": [
        {
          "internalType": "bytes32",
          "name": "role",
          "type": "bytes32"
        },
        {
          "internalType": "address",
          "name": "callerConfirmation",
          "type": "address"
        }
      ],
      "name": "renounceRole",
      "outputs": [],
      "stateMutability": "nonpayable",
      "type": "function"
    },
    {
      "inputs": [
        {
          "internalType": "bytes32",
          "name": "role",
          "type": "bytes32"
        },
        {
          "internalType": "address",
          "name": "account",
          "type": "address"
        }
      ],
      "name": "revokeRole",
      "outputs": [],
      "stateMutability": "nonpayable",
      "type": "function"
    },
    {
      "inputs": [
        {
          "internalType": "bytes4",
          "name": "interfaceId",
          "type": "bytes4"
        }
      ],
      "name": "supportsInterface",
      "outputs": [
        {
          "internalType": "bool",
          "name": "",
          "type": "bool"
        }
      ],
      "stateMutability": "view",
      "type": "function"
    },
    {
      "inputs": [
        {
          "internalType": "address",
          "name": "account",
          "type": "address"
        }
      ],
      "name": "unfreezeAddress",
      "outputs": [],
      "stateMutability": "nonpayable",
      "type": "function"
    }
  ],
  "bytecode": "0x608060405234801561001057600080fd5b506100246000801b3361002a60201b60201c565b50610199565b600061003c838361012760201b60201c565b61011c57600160008085815260200190815260200160002060000160008473ffffffffffffffffffffffffffffffffffffffff1673ffffffffffffffffffffffffffffffffffffffff16815260200190815260200160002060006101000a81548160ff0219169083151502179055506100b961019160201b60201c565b73ffffffffffffffffffffffffffffffffffffffff168273ffffffffffffffffffffffffffffffffffffffff16847f2f8788117e7eff1d82e926ec794901d17c78024a50270940304540a733656f0d60405160405180910390a460019050610121565b600090505b92915050565b600080600084815260200190815260200160002060000160008373ffffffffffffffffffffffffffffffffffffffff1673ffffffffffffffffffffffffffffffffffffffff16815260200190815260200160002060009054906101000a900460ff16905092915050565b600033905090565b611724806101a86000396000f3fe608060405234801561001057600080fd5b50600436106101215760003560e01c80637250e224116100ad578063a217fddf11610071578063a217fddf146102ee578063bfb805471461030c578063d547741f14610328578063e583983614610344578063f0bd87cc1461037457610121565b80637250e2241461024c5780638ec4f5051461026857806391d1485414610284578063965288b0146102b457806399fd9cfb146102d257610121565b806336568abe116100f457806336568abe146101c057806357c1f9e2146101dc5780635f8a5afa146101f85780636a75323f1461021457806370099ec81461023057610121565b806301ffc9a7146101265780632115e7bf14610156578063248a9ca3146101745780632f2ff15d146101a4575b600080fd5b610140600480360381019061013b919061121d565b610392565b60405161014d9190611265565b60405180910390f35b61015e61040c565b60405161016b9190611299565b60405180910390f35b61018e600480360381019061018991906112e0565b610430565b60405161019b9190611299565b60405180910390f35b6101be60048036038101906101b9919061136b565b61044f565b005b6101da60048036038101906101d5919061136b565b610471565b005b6101f660048036038101906101f191906113ab565b6104ec565b005b610212600480360381019061020d91906113ab565b610527565b005b61022e600480360381019061022991906113ab565b610717565b005b61024a600480360381019061024591906113ab565b610752565b005b610266600480360381019061026191906113ab565b61078d565b005b610282600480360381019061027d91906113ab565b61097d565b005b61029e6004803603810190610299919061136b565b610b6d565b6040516102ab9190611265565b60405180910390f35b6102bc610bd7565b6040516102c99190611299565b60405180910390f35b6102ec60048036038101906102e791906113ab565b610bfb565b005b6102f6610d8a565b6040516103039190611299565b60405180910390f35b610326600480360381019061032191906113ab565b610d91565b005b610342600480360381019061033d919061136b565b610ea0565b005b61035e600480360381019061035991906113ab565b610ec2565b60405161036b9190611265565b60405180910390f35b61037c610ee2565b6040516103899190611299565b60405180910390f35b60007f7965db0b000000000000000000000000000000000000000000000000000000007bffffffffffffffffffffffffffffffffffffffffffffffffffffffff1916827bffffffffffffffffffffffffffffffffffffffffffffffffffffffff19161480610405575061040482610f06565b5b9050919050565b7f2a5f906c256a5d799494fcd066e1f6c077689de1cdb65052a1624de4bace99bf81565b6000806000838152602001908152602001600020600101549050919050565b61045882610430565b61046181610f70565b61046b8383610f84565b50505050565b610479611075565b73ffffffffffffffffffffffffffffffffffffffff168173ffffffffffffffffffffffffffffffffffffffff16146104dd576040517f6697b23200000000000000000000000000000000000000000000000000000000815260040160405180910390fd5b6104e7828261107d565b505050565b6000801b6104f981610f70565b6105237ffbd454f36a7e1a388bd6fc3ab10d434aa4578f811acbbcf33afb1c697486313c83610ea0565b5050565b6000801b61053481610f70565b8161055f7feefb95e842a3287179d933b4460be539a1d5af11aa8b325bb45c5c8dc92de4ed82610b6d565b156105a157806040517f375795b90000000000000000000000000000000000000000000000000000000081526004016105989190611444565b60405180910390fd5b6105cb7f2a5f906c256a5d799494fcd066e1f6c077689de1cdb65052a1624de4bace99bf82610b6d565b1561060d57806040517f375795b900000000000000000000000000000000000000000000000000000000815260040161060491906114be565b60405180910390fd5b6106377ffbd454f36a7e1a388bd6fc3ab10d434aa4578f811acbbcf33afb1c697486313c82610b6d565b1561067957806040517f375795b90000000000000000000000000000000000000000000000000000000081526004016106709190611538565b60405180910390fd5b600073ffffffffffffffffffffffffffffffffffffffff168173ffffffffffffffffffffffffffffffffffffffff16036106e8576040517f08c379a00000000000000000000000000000000000000000000000000000000081526004016106df906115b2565b60405180910390fd5b6107127feefb95e842a3287179d933b4460be539a1d5af11aa8b325bb45c5c8dc92de4ed8461044f565b505050565b6000801b61072481610f70565b61074e7feefb95e842a3287179d933b4460be539a1d5af11aa8b325bb45c5c8dc92de4ed83610ea0565b5050565b6000801b61075f81610f70565b6107897f2a5f906c256a5d799494fcd066e1f6c077689de1cdb65052a1624de4bace99bf83610ea0565b5050565b6000801b61079a81610f70565b816107c57feefb95e842a3287179d933b4460be539a1d5af11aa8b325bb45c5c8dc92de4ed82610b6d565b1561080757806040517f375795b90000000000000000000000000000000000000000000000000000000081526004016107fe9190611444565b60405180910390fd5b6108317f2a5f906c256a5d799494fcd066e1f6c077689de1cdb65052a1624de4bace99bf82610b6d565b1561087357806040517f375795b900000000000000000000000000000000000000000000000000000000815260040161086a91906114be565b60405180910390fd5b61089d7ffbd454f36a7e1a388bd6fc3ab10d434aa4578f811acbbcf33afb1c697486313c82610b6d565b156108df57806040517f375795b90000000000000000000000000000000000000000000000000000000081526004016108d69190611538565b60405180910390fd5b600073ffffffffffffffffffffffffffffffffffffffff168173ffffffffffffffffffffffffffffffffffffffff160361094e576040517f08c379a0000000000000000000000000000000000000000000000000000000008152600401610945906115b2565b60405180910390fd5b6109787ffbd454f36a7e1a388bd6fc3ab10d434aa4578f811acbbcf33afb1c697486313c8461044f565b505050565b6000801b61098a81610f70565b816109b57feefb95e842a3287179d933b4460be539a1d5af11aa8b325bb45c5c8dc92de4ed82610b6d565b156109f757806040517f375795b90000000000000000000000000000000000000000000000000000000081526004016109ee9190611444565b60405180910390fd5b610a217f2a5f906c256a5d799494fcd066e1f6c077689de1cdb65052a1624de4bace99bf82610b6d565b15610a6357806040517f375795b9000000000000000000000000000000000000000000000000000000008152600401610a5a91906114be565b60405180910390fd5b610a8d7ffbd454f36a7e1a388bd6fc3ab10d434aa4578f811acbbcf33afb1c697486313c82610b6d565b15610acf57806040517f375795b9000000000000000000000000000000000000000000000000000000008152600401610ac69190611538565b60405180910390fd5b600073ffffffffffffffffffffffffffffffffffffffff168173ffffffffffffffffffffffffffffffffffffffff1603610b3e576040517f08c379a0000000000000000000000000000000000000000000000000000000008152600401610b35906115b2565b60405180910390fd5b610b687f2a5f906c256a5d799494fcd066e1f6c077689de1cdb65052a1624de4bace99bf8461044f565b505050565b600080600084815260200190815260200160002060000160008373ffffffffffffffffffffffffffffffffffffffff1673ffffffffffffffffffffffffffffffffffffffff16815260200190815260200160002060009054906101000a900460ff16905092915050565b7feefb95e842a3287179d933b4460be539a1d5af11aa8b325bb45c5c8dc92de4ed81565b6000801b610c0881610f70565b600073ffffffffffffffffffffffffffffffffffffffff168273ffffffffffffffffffffffffffffffffffffffff1603610c77576040517f08c379a0000000000000000000000000000000000000000000000000000000008152600401610c6e9061161e565b60405180910390fd5b60018060008473ffffffffffffffffffffffffffffffffffffffff1673ffffffffffffffffffffffffffffffffffffffff16815260200190815260200160002060006101000a81548160ff021916908315150217905550610cf87feefb95e842a3287179d933b4460be539a1d5af11aa8b325bb45c5c8dc92de4ed8361107d565b50610d237ffbd454f36a7e1a388bd6fc3ab10d434aa4578f811acbbcf33afb1c697486313c8361107d565b50610d4e7f2a5f906c256a5d799494fcd066e1f6c077689de1cdb65052a1624de4bace99bf8361107d565b507f90811a8edd3b3c17eeaefffc17f639cc69145d41a359c9843994dc253820369082604051610d7e919061163e565b60405180910390a15050565b6000801b81565b6000801b610d9e81610f70565b600073ffffffffffffffffffffffffffffffffffffffff168273ffffffffffffffffffffffffffffffffffffffff1603610e0d576040517f08c379a0000000000000000000000000000000000000000000000000000000008152600401610e04906116a5565b60405180910390fd5b6000600160008473ffffffffffffffffffffffffffffffffffffffff1673ffffffffffffffffffffffffffffffffffffffff16815260200190815260200160002060006101000a81548160ff0219169083151502179055507fc3776b472ebf54114339eec9e4dc924e7ce307a97f5c1ee72b6d474e6e5e8b7c82604051610e94919061163e565b60405180910390a15050565b610ea982610430565b610eb281610f70565b610ebc838361107d565b50505050565b60016020528060005260406000206000915054906101000a900460ff1681565b7ffbd454f36a7e1a388bd6fc3ab10d434aa4578f811acbbcf33afb1c697486313c81565b60007f01ffc9a7000000000000000000000000000000000000000000000000000000007bffffffffffffffffffffffffffffffffffffffffffffffffffffffff1916827bffffffffffffffffffffffffffffffffffffffffffffffffffffffff1916149050919050565b610f8181610f7c611075565b61116f565b50565b6000610f908383610b6d565b61106a57600160008085815260200190815260200160002060000160008473ffffffffffffffffffffffffffffffffffffffff1673ffffffffffffffffffffffffffffffffffffffff16815260200190815260200160002060006101000a81548160ff021916908315150217905550611007611075565b73ffffffffffffffffffffffffffffffffffffffff168273ffffffffffffffffffffffffffffffffffffffff16847f2f8788117e7eff1d82e926ec794901d17c78024a50270940304540a733656f0d60405160405180910390a46001905061106f565b600090505b92915050565b600033905090565b60006110898383610b6d565b1561116457600080600085815260200190815260200160002060000160008473ffffffffffffffffffffffffffffffffffffffff1673ffffffffffffffffffffffffffffffffffffffff16815260200190815260200160002060006101000a81548160ff021916908315150217905550611101611075565b73ffffffffffffffffffffffffffffffffffffffff168273ffffffffffffffffffffffffffffffffffffffff16847ff6391f5c32d9c69d2a47ea670b442974b53935d1edc7fd64eb21e047a839171b60405160405180910390a460019050611169565b600090505b92915050565b6111798282610b6d565b6111bc5780826040517fe2517d3f0000000000000000000000000000000000000000000000000000000081526004016111b39291906116c5565b60405180910390fd5b5050565b600080fd5b60007fffffffff0000000000000000000000000000000000000000000000000000000082169050919050565b6111fa816111c5565b811461120557600080fd5b50565b600081359050611217816111f1565b92915050565b600060208284031215611233576112326111c0565b5b600061124184828501611208565b91505092915050565b60008115159050919050565b61125f8161124a565b82525050565b600060208201905061127a6000830184611256565b92915050565b6000819050919050565b61129381611280565b82525050565b60006020820190506112ae600083018461128a565b92915050565b6112bd81611280565b81146112c857600080fd5b50565b6000813590506112da816112b4565b92915050565b6000602082840312156112f6576112f56111c0565b5b6000611304848285016112cb565b91505092915050565b600073ffffffffffffffffffffffffffffffffffffffff82169050919050565b60006113388261130d565b9050919050565b6113488161132d565b811461135357600080fd5b50565b6000813590506113658161133f565b92915050565b60008060408385031215611382576113816111c0565b5b6000611390858286016112cb565b92505060206113a185828601611356565b9150509250929050565b6000602082840312156113c1576113c06111c0565b5b60006113cf84828501611356565b91505092915050565b600082825260208201905092915050565b7f4d616e7566616374757265720000000000000000000000000000000000000000600082015250565b600061141f600c836113d8565b915061142a826113e9565b602082019050919050565b61143e8161132d565b82525050565b6000604082019050818103600083015261145d81611412565b905061146c6020830184611435565b92915050565b7f52657461696c6572000000000000000000000000000000000000000000000000600082015250565b60006114a86008836113d8565b91506114b382611472565b602082019050919050565b600060408201905081810360008301526114d78161149b565b90506114e66020830184611435565b92915050565b7f4469737472696275746f72000000000000000000000000000000000000000000600082015250565b6000611522600b836113d8565b915061152d826114ec565b602082019050919050565b6000604082019050818103600083015261155181611515565b90506115606020830184611435565b92915050565b7f4164647265737320496e76616c69640000000000000000000000000000000000600082015250565b600061159c600f836113d8565b91506115a782611566565b602082019050919050565b600060208201905081810360008301526115cb8161158f565b9050919050565b7f43616e6e6f7420667265657a6520746865207a65726f20616464726573730000600082015250565b6000611608601e836113d8565b9150611613826115d2565b602082019050919050565b60006020820190508181036000830152611637816115fb565b9050919050565b60006020820190506116536000830184611435565b92915050565b7f43616e6e6f7420756e667265657a6520746865207a65726f2061646472657373600082015250565b600061168f6020836113d8565b915061169a82611659565b602082019050919050565b600060208201905081810360008301526116be81611682565b9050919050565b60006040820190506116da6000830185611435565b6116e7602083018461128a565b939250505056fea2646970667358221220f989689c07083cd9c7bb5ac736a3d6541f9871814dd7c3ef089f6f4c6e679e5964736f6c634300081c0033",
  "linkReferences": {},
  "deployedLinkReferences": {}
}