{
  "_format": "hh-sol-artifact-1",
  "contractName": "HandlingRequests",
  "sourceName": "contracts/HandlingRequests.sol",
  "abi": [
    {
      "inputs": [
        {
          "internalType": "address",
          "name": "priceFeedAddress",
          "type": "address"
        },
        {
          "internalType": "address",
          "name": "escrowAddress",
          "type": "address"
        },
        {
          "internalType": "address",
          "name": "handlingAddresses",
          "type": "address"
        }
      ],
      "stateMutability": "nonpayable",
      "type": "constructor"
    },
    {
      "inputs": [],
      "name": "AccessControlBadConfirmation",
      "type": "error"
    },
    {
      "inputs": [
        {
          "internalType": "address",
          "name": "account",
          "type": "address"
        },
        {
          "internalType": "bytes32",
          "name": "neededRole",
          "type": "bytes32"
        }
      ],
      "name": "AccessControlUnauthorizedAccount",
      "type": "error"
    },
    {
      "inputs": [
        {
          "internalType": "string",
          "name": "role",
          "type": "string"
        },
        {
          "internalType": "address",
          "name": "account",
          "type": "address"
        }
      ],
      "name": "AddressAlreadyExists",
      "type": "error"
    },
    {
      "inputs": [
        {
          "internalType": "address",
          "name": "account",
          "type": "address"
        }
      ],
      "name": "AddressInvalid",
      "type": "error"
    },
    {
      "inputs": [
        {
          "internalType": "uint256",
          "name": "_usdAmount",
          "type": "uint256"
        }
      ],
      "name": "InvalidAmount",
      "type": "error"
    },
    {
      "anonymous": false,
      "inputs": [
        {
          "indexed": false,
          "internalType": "address",
          "name": "account",
          "type": "address"
        }
      ],
      "name": "AddressFrozen",
      "type": "event"
    },
    {
      "anonymous": false,
      "inputs": [
        {
          "indexed": false,
          "internalType": "address",
          "name": "account",
          "type": "address"
        }
      ],
      "name": "AddressUnfrozen",
      "type": "event"
    },
    {
      "anonymous": false,
      "inputs": [
        {
          "indexed": true,
          "internalType": "bytes32",
          "name": "batchId",
          "type": "bytes32"
        },
        {
          "indexed": false,
          "internalType": "uint256",
          "name": "timestamp",
          "type": "uint256"
        }
      ],
      "name": "BatchCreated",
      "type": "event"
    },
    {
      "anonymous": false,
      "inputs": [
        {
          "indexed": true,
          "internalType": "bytes32",
          "name": "batchId",
          "type": "bytes32"
        },
        {
          "indexed": false,
          "internalType": "address",
          "name": "distributor",
          "type": "address"
        },
        {
          "indexed": false,
          "internalType": "enum DrugSupplyChain.BatchStatus",
          "name": "statusEnum",
          "type": "uint8"
        },
        {
          "indexed": false,
          "internalType": "uint256",
          "name": "price",
          "type": "uint256"
        },
        {
          "indexed": false,
          "internalType": "uint256",
          "name": "timestamp",
          "type": "uint256"
        }
      ],
      "name": "DistributerPurchased",
      "type": "event"
    },
    {
      "anonymous": false,
      "inputs": [
        {
          "indexed": true,
          "internalType": "bytes32",
          "name": "batchId",
          "type": "bytes32"
        },
        {
          "indexed": false,
          "internalType": "enum DrugSupplyChain.BatchStatus",
          "name": "statusEnum",
          "type": "uint8"
        },
        {
          "indexed": true,
          "internalType": "address",
          "name": "distributor",
          "type": "address"
        },
        {
          "indexed": false,
          "internalType": "uint256",
          "name": "price",
          "type": "uint256"
        },
        {
          "indexed": false,
          "internalType": "uint256",
          "name": "timestamp",
          "type": "uint256"
        },
        {
          "indexed": false,
          "internalType": "string",
          "name": "reason",
          "type": "string"
        }
      ],
      "name": "EligibleForResell",
      "type": "event"
    },
    {
      "anonymous": false,
      "inputs": [
        {
          "indexed": true,
          "internalType": "bytes32",
          "name": "batchId",
          "type": "bytes32"
        },
        {
          "indexed": true,
          "internalType": "address",
          "name": "to",
          "type": "address"
        },
        {
          "indexed": true,
          "internalType": "uint256",
          "name": "timestamp",
          "type": "uint256"
        },
        {
          "indexed": false,
          "internalType": "bool",
          "name": "refunded",
          "type": "bool"
        },
        {
          "indexed": false,
          "internalType": "string",
          "name": "reason",
          "type": "string"
        }
      ],
      "name": "Refunded",
      "type": "event"
    },
    {
      "anonymous": false,
      "inputs": [
        {
          "indexed": true,
          "internalType": "bytes32",
          "name": "batchId",
          "type": "bytes32"
        },
        {
          "indexed": true,
          "internalType": "address",
          "name": "requester",
          "type": "address"
        },
        {
          "indexed": true,
          "internalType": "uint256",
          "name": "timestamp",
          "type": "uint256"
        },
        {
          "indexed": false,
          "internalType": "bool",
          "name": "approved",
          "type": "bool"
        },
        {
          "indexed": false,
          "internalType": "string",
          "name": "reason",
          "type": "string"
        }
      ],
      "name": "RequestApproved",
      "type": "event"
    },
    {
      "anonymous": false,
      "inputs": [
        {
          "indexed": true,
          "internalType": "bytes32",
          "name": "batchId",
          "type": "bytes32"
        },
        {
          "indexed": false,
          "internalType": "enum DrugSupplyChain.BatchStatus",
          "name": "statusEnum",
          "type": "uint8"
        },
        {
          "indexed": true,
          "internalType": "address",
          "name": "distributor",
          "type": "address"
        },
        {
          "indexed": false,
          "internalType": "uint256",
          "name": "price",
          "type": "uint256"
        },
        {
          "indexed": false,
          "internalType": "uint256",
          "name": "timestamp",
          "type": "uint256"
        }
      ],
      "name": "ResellingDone",
      "type": "event"
    },
    {
      "anonymous": false,
      "inputs": [
        {
          "indexed": true,
          "internalType": "bytes32",
          "name": "batchId",
          "type": "bytes32"
        },
        {
          "indexed": false,
          "internalType": "address",
          "name": "retailer",
          "type": "address"
        },
        {
          "indexed": false,
          "internalType": "enum DrugSupplyChain.BatchStatus",
          "name": "statusEnum",
          "type": "uint8"
        },
        {
          "indexed": false,
          "internalType": "uint256",
          "name": "price",
          "type": "uint256"
        },
        {
          "indexed": false,
          "internalType": "uint256",
          "name": "timestamp",
          "type": "uint256"
        }
      ],
      "name": "RetailerPurchased",
      "type": "event"
    },
    {
      "anonymous": false,
      "inputs": [
        {
          "indexed": true,
          "internalType": "bytes32",
          "name": "batchId",
          "type": "bytes32"
        },
        {
          "indexed": true,
          "internalType": "uint256",
          "name": "timestamp",
          "type": "uint256"
        },
        {
          "indexed": true,
          "internalType": "address",
          "name": "requester",
          "type": "address"
        },
        {
          "indexed": false,
          "internalType": "bool",
          "name": "approved",
          "type": "bool"
        },
        {
          "indexed": false,
          "internalType": "bool",
          "name": "refunded",
          "type": "bool"
        },
        {
          "indexed": false,
          "internalType": "string",
          "name": "reason",
          "type": "string"
        }
      ],
      "name": "ReturnRequested",
      "type": "event"
    },
    {
      "anonymous": false,
      "inputs": [
        {
          "indexed": true,
          "internalType": "bytes32",
          "name": "role",
          "type": "bytes32"
        },
        {
          "indexed": true,
          "internalType": "bytes32",
          "name": "previousAdminRole",
          "type": "bytes32"
        },
        {
          "indexed": true,
          "internalType": "bytes32",
          "name": "newAdminRole",
          "type": "bytes32"
        }
      ],
      "name": "RoleAdminChanged",
      "type": "event"
    },
    {
      "anonymous": false,
      "inputs": [
        {
          "indexed": true,
          "internalType": "bytes32",
          "name": "role",
          "type": "bytes32"
        },
        {
          "indexed": true,
          "internalType": "address",
          "name": "account",
          "type": "address"
        },
        {
          "indexed": true,
          "internalType": "address",
          "name": "sender",
          "type": "address"
        }
      ],
      "name": "RoleGranted",
      "type": "event"
    },
    {
      "anonymous": false,
      "inputs": [
        {
          "indexed": true,
          "internalType": "bytes32",
          "name": "role",
          "type": "bytes32"
        },
        {
          "indexed": true,
          "internalType": "address",
          "name": "account",
          "type": "address"
        },
        {
          "indexed": true,
          "internalType": "address",
          "name": "sender",
          "type": "address"
        }
      ],
      "name": "RoleRevoked",
      "type": "event"
    },
    {
      "inputs": [],
      "name": "DEFAULT_ADMIN_ROLE",
      "outputs": [
        {
          "internalType": "bytes32",
          "name": "",
          "type": "bytes32"
        }
      ],
      "stateMutability": "view",
      "type": "function"
    },
    {
      "inputs": [],
      "name": "DISTRIBUTOR_ROLE",
      "outputs": [
        {
          "internalType": "bytes32",
          "name": "",
          "type": "bytes32"
        }
      ],
      "stateMutability": "view",
      "type": "function"
    },
    {
      "inputs": [],
      "name": "MANUFACTURER_ROLE",
      "outputs": [
        {
          "internalType": "bytes32",
          "name": "",
          "type": "bytes32"
        }
      ],
      "stateMutability": "view",
      "type": "function"
    },
    {
      "inputs": [],
      "name": "RETAILER_ROLE",
      "outputs": [
        {
          "internalType": "bytes32",
          "name": "",
          "type": "bytes32"
        }
      ],
      "stateMutability": "view",
      "type": "function"
    },
    {
      "inputs": [
        {
          "internalType": "address",
          "name": "distributor",
          "type": "address"
        }
      ],
      "name": "addDistributor",
      "outputs": [],
      "stateMutability": "nonpayable",
      "type": "function"
    },
    {
      "inputs": [
        {
          "internalType": "address",
          "name": "manufacturer",
          "type": "address"
        }
      ],
      "name": "addManufacturer",
      "outputs": [],
      "stateMutability": "nonpayable",
      "type": "function"
    },
    {
      "inputs": [
        {
          "internalType": "address",
          "name": "retailer",
          "type": "address"
        }
      ],
      "name": "addRetailer",
      "outputs": [],
      "stateMutability": "nonpayable",
      "type": "function"
    },
    {
      "inputs": [
        {
          "internalType": "uint256",
          "name": "",
          "type": "uint256"
        }
      ],
      "name": "allBatchIds",
      "outputs": [
        {
          "internalType": "bytes32",
          "name": "",
          "type": "bytes32"
        }
      ],
      "stateMutability": "view",
      "type": "function"
    },
    {
      "inputs": [
        {
          "internalType": "bytes32",
          "name": "_batchId",
          "type": "bytes32"
        }
      ],
      "name": "approveRequestDistributor",
      "outputs": [],
      "stateMutability": "nonpayable",
      "type": "function"
    },
    {
      "inputs": [
        {
          "internalType": "bytes32",
          "name": "_batchId",
          "type": "bytes32"
        }
      ],
      "name": "approveRequestRetailer",
      "outputs": [],
      "stateMutability": "nonpayable",
      "type": "function"
    },
    {
      "inputs": [],
      "name": "batchCount",
      "outputs": [
        {
          "internalType": "uint256",
          "name": "",
          "type": "uint256"
        }
      ],
      "stateMutability": "view",
      "type": "function"
    },
    {
      "inputs": [
        {
          "internalType": "address",
          "name": "",
          "type": "address"
        }
      ],
      "name": "batchCounter",
      "outputs": [
        {
          "internalType": "uint256",
          "name": "",
          "type": "uint256"
        }
      ],
      "stateMutability": "view",
      "type": "function"
    },
    {
      "inputs": [
        {
          "internalType": "bytes32",
          "name": "",
          "type": "bytes32"
        }
      ],
      "name": "batchIdToBatch",
      "outputs": [
        {
          "internalType": "bytes32",
          "name": "batchId",
          "type": "bytes32"
        },
        {
          "internalType": "address",
          "name": "manufacturer",
          "type": "address"
        },
        {
          "internalType": "address",
          "name": "distributor",
          "type": "address"
        },
        {
          "internalType": "address",
          "name": "retailer",
          "type": "address"
        },
        {
          "internalType": "uint256",
          "name": "expiryDate",
          "type": "uint256"
        },
        {
          "internalType": "uint256",
          "name": "timestamp",
          "type": "uint256"
        },
        {
          "internalType": "uint256",
          "name": "price",
          "type": "uint256"
        },
        {
          "internalType": "uint256",
          "name": "productPrice",
          "type": "uint256"
        },
        {
          "internalType": "enum DrugSupplyChain.BatchStatus",
          "name": "statusEnum",
          "type": "uint8"
        },
        {
          "internalType": "address",
          "name": "ipfsHash",
          "type": "address"
        }
      ],
      "stateMutability": "view",
      "type": "function"
    },
    {
      "inputs": [
        {
          "internalType": "string",
          "name": "roleName",
          "type": "string"
        },
        {
          "internalType": "address",
          "name": "account",
          "type": "address"
        }
      ],
      "name": "checkRole",
      "outputs": [
        {
          "internalType": "bool",
          "name": "",
          "type": "bool"
        }
      ],
      "stateMutability": "view",
      "type": "function"
    },
    {
      "inputs": [],
      "name": "dataFeed",
      "outputs": [
        {
          "internalType": "contract AggregatorV3Interface",
          "name": "",
          "type": "address"
        }
      ],
      "stateMutability": "view",
      "type": "function"
    },
    {
      "inputs": [],
      "name": "escrowContract",
      "outputs": [
        {
          "internalType": "contract Escrow",
          "name": "",
          "type": "address"
        }
      ],
      "stateMutability": "view",
      "type": "function"
    },
    {
      "inputs": [
        {
          "internalType": "address",
          "name": "account",
          "type": "address"
        }
      ],
      "name": "frozeAddress",
      "outputs": [],
      "stateMutability": "nonpayable",
      "type": "function"
    },
    {
      "inputs": [
        {
          "internalType": "bytes32",
          "name": "role",
          "type": "bytes32"
        }
      ],
      "name": "getRoleAdmin",
      "outputs": [
        {
          "internalType": "bytes32",
          "name": "",
          "type": "bytes32"
        }
      ],
      "stateMutability": "view",
      "type": "function"
    },
    {
      "inputs": [
        {
          "internalType": "bytes32",
          "name": "role",
          "type": "bytes32"
        },
        {
          "internalType": "address",
          "name": "account",
          "type": "address"
        }
      ],
      "name": "grantRole",
      "outputs": [],
      "stateMutability": "nonpayable",
      "type": "function"
    },
    {
      "inputs": [],
      "name": "handlingAddresses",
      "outputs": [
        {
          "internalType": "contract HandlingAddresses",
          "name": "",
          "type": "address"
        }
      ],
      "stateMutability": "view",
      "type": "function"
    },
    {
      "inputs": [
        {
          "internalType": "bytes32",
          "name": "role",
          "type": "bytes32"
        },
        {
          "internalType": "address",
          "name": "account",
          "type": "address"
        }
      ],
      "name": "hasRole",
      "outputs": [
        {
          "internalType": "bool",
          "name": "",
          "type": "bool"
        }
      ],
      "stateMutability": "view",
      "type": "function"
    },
    {
      "inputs": [
        {
          "internalType": "address",
          "name": "",
          "type": "address"
        }
      ],
      "name": "isFrozen",
      "outputs": [
        {
          "internalType": "bool",
          "name": "",
          "type": "bool"
        }
      ],
      "stateMutability": "view",
      "type": "function"
    },
    {
      "inputs": [],
      "name": "owner",
      "outputs": [
        {
          "internalType": "address",
          "name": "",
          "type": "address"
        }
      ],
      "stateMutability": "view",
      "type": "function"
    },
    {
      "inputs": [
        {
          "internalType": "address",
          "name": "",
          "type": "address"
        },
        {
          "internalType": "uint256",
          "name": "",
          "type": "uint256"
        }
      ],
      "name": "ownerToBatches",
      "outputs": [
        {
          "internalType": "bytes32",
          "name": "",
          "type": "bytes32"
        }
      ],
      "stateMutability": "view",
      "type": "function"
    },
    {
      "inputs": [
        {
          "internalType": "uint256",
          "name": "",
          "type": "uint256"
        }
      ],
      "name": "pendingRequests",
      "outputs": [
        {
          "internalType": "bytes32",
          "name": "batchId",
          "type": "bytes32"
        },
        {
          "internalType": "uint256",
          "name": "timestamp",
          "type": "uint256"
        },
        {
          "internalType": "address",
          "name": "requester",
          "type": "address"
        },
        {
          "internalType": "bool",
          "name": "refunded",
          "type": "bool"
        },
        {
          "internalType": "bool",
          "name": "approved",
          "type": "bool"
        },
        {
          "internalType": "string",
          "name": "reason",
          "type": "string"
        }
      ],
      "stateMutability": "view",
      "type": "function"
    },
    {
      "inputs": [
        {
          "internalType": "bytes32",
          "name": "_batchId",
          "type": "bytes32"
        }
      ],
      "name": "rejectRequest",
      "outputs": [],
      "stateMutability": "nonpayable",
      "type": "function"
    },
    {
      "inputs": [
        {
          "internalType": "address",
          "name": "distributor",
          "type": "address"
        }
      ],
      "name": "removeDistributor",
      "outputs": [],
      "stateMutability": "nonpayable",
      "type": "function"
    },
    {
      "inputs": [
        {
          "internalType": "address",
          "name": "manufacturer",
          "type": "address"
        }
      ],
      "name": "removeManufacturer",
      "outputs": [],
      "stateMutability": "nonpayable",
      "type": "function"
    },
    {
      "inputs": [
        {
          "internalType": "address",
          "name": "retailer",
          "type": "address"
        }
      ],
      "name": "removeRetailer",
      "outputs": [],
      "stateMutability": "nonpayable",
      "type": "function"
    },
    {
      "inputs": [
        {
          "internalType": "bytes32",
          "name": "role",
          "type": "bytes32"
        },
        {
          "internalType": "address",
          "name": "callerConfirmation",
          "type": "address"
        }
      ],
      "name": "renounceRole",
      "outputs": [],
      "stateMutability": "nonpayable",
      "type": "function"
    },
    {
      "inputs": [
        {
          "internalType": "bytes32",
          "name": "_batchId",
          "type": "bytes32"
        },
        {
          "internalType": "string",
          "name": "reason",
          "type": "string"
        }
      ],
      "name": "requestReturn",
      "outputs": [],
      "stateMutability": "nonpayable",
      "type": "function"
    },
    {
      "inputs": [
        {
          "internalType": "bytes32",
          "name": "",
          "type": "bytes32"
        }
      ],
      "name": "returnRequests",
      "outputs": [
        {
          "internalType": "bytes32",
          "name": "batchId",
          "type": "bytes32"
        },
        {
          "internalType": "uint256",
          "name": "timestamp",
          "type": "uint256"
        },
        {
          "internalType": "address",
          "name": "requester",
          "type": "address"
        },
        {
          "internalType": "bool",
          "name": "refunded",
          "type": "bool"
        },
        {
          "internalType": "bool",
          "name": "approved",
          "type": "bool"
        },
        {
          "internalType": "string",
          "name": "reason",
          "type": "string"
        }
      ],
      "stateMutability": "view",
      "type": "function"
    },
    {
      "inputs": [
        {
          "internalType": "bytes32",
          "name": "role",
          "type": "bytes32"
        },
        {
          "internalType": "address",
          "name": "account",
          "type": "address"
        }
      ],
      "name": "revokeRole",
      "outputs": [],
      "stateMutability": "nonpayable",
      "type": "function"
    },
    {
      "inputs": [
        {
          "internalType": "bytes4",
          "name": "interfaceId",
          "type": "bytes4"
        }
      ],
      "name": "supportsInterface",
      "outputs": [
        {
          "internalType": "bool",
          "name": "",
          "type": "bool"
        }
      ],
      "stateMutability": "view",
      "type": "function"
    },
    {
      "inputs": [
        {
          "internalType": "address",
          "name": "account",
          "type": "address"
        }
      ],
      "name": "unfreezeAddress",
      "outputs": [],
      "stateMutability": "nonpayable",
      "type": "function"
    },
    {
      "inputs": [],
      "name": "withdraw",
      "outputs": [],
      "stateMutability": "nonpayable",
      "type": "function"
    }
  ],
  "bytecode": "0x608060405234801561001057600080fd5b50604051614db8380380614db88339818101604052810190610032919061032a565b8282826100486000801b3361015860201b60201c565b5033600c60006101000a81548173ffffffffffffffffffffffffffffffffffffffff021916908373ffffffffffffffffffffffffffffffffffffffff16021790555081600a60006101000a81548173ffffffffffffffffffffffffffffffffffffffff021916908373ffffffffffffffffffffffffffffffffffffffff16021790555082600960006101000a81548173ffffffffffffffffffffffffffffffffffffffff021916908373ffffffffffffffffffffffffffffffffffffffff16021790555080600b60006101000a81548173ffffffffffffffffffffffffffffffffffffffff021916908373ffffffffffffffffffffffffffffffffffffffff16021790555050505050505061037d565b600061016a838361025560201b60201c565b61024a57600160008085815260200190815260200160002060000160008473ffffffffffffffffffffffffffffffffffffffff1673ffffffffffffffffffffffffffffffffffffffff16815260200190815260200160002060006101000a81548160ff0219169083151502179055506101e76102bf60201b60201c565b73ffffffffffffffffffffffffffffffffffffffff168273ffffffffffffffffffffffffffffffffffffffff16847f2f8788117e7eff1d82e926ec794901d17c78024a50270940304540a733656f0d60405160405180910390a46001905061024f565b600090505b92915050565b600080600084815260200190815260200160002060000160008373ffffffffffffffffffffffffffffffffffffffff1673ffffffffffffffffffffffffffffffffffffffff16815260200190815260200160002060009054906101000a900460ff16905092915050565b600033905090565b600080fd5b600073ffffffffffffffffffffffffffffffffffffffff82169050919050565b60006102f7826102cc565b9050919050565b610307816102ec565b811461031257600080fd5b50565b600081519050610324816102fe565b92915050565b600080600060608486031215610343576103426102c7565b5b600061035186828701610315565b935050602061036286828701610315565b925050604061037386828701610315565b9150509250925092565b614a2c8061038c6000396000f3fe608060405234801561001057600080fd5b506004361061021c5760003560e01c80638da5cb5b11610125578063a217fddf116100ad578063d547741f1161007c578063d547741f1461065c578063e42a96e714610678578063e583983614610696578063edec7fde146106c6578063f0bd87cc146106e25761021c565b8063a217fddf146105d4578063bfb80547146105f2578063c1c460a61461060e578063cf30c7051461062c5761021c565b8063965288b0116100f4578063965288b01461050e57806399fd9cfb1461052c5780639de7c3b7146105485780639e42ff90146105815780639fb655291461059f5761021c565b80638da5cb5b146104885780638ec4f505146104a657806391d14854146104c257806395587d03146104f25761021c565b80633c652a9a116101a85780636a0f9f70116101775780636a0f9f70146103d45780636a75323f1461040457806370099ec8146104205780637026fe9c1461043c5780637250e2241461046c5761021c565b80633c652a9a1461035d5780633ccfd60b1461039257806357c1f9e21461039c5780635f8a5afa146103b85761021c565b8063290b17ec116101ef578063290b17ec146102bd5780632f2ff15d146102ed5780633175a5e81461030957806336568abe1461032557806337fd8ee4146103415761021c565b806301ffc9a71461022157806306f13056146102515780632115e7bf1461026f578063248a9ca31461028d575b600080fd5b61023b60048036038101906102369190613373565b610700565b60405161024891906133bb565b60405180910390f35b61025961077a565b60405161026691906133ef565b60405180910390f35b610277610780565b6040516102849190613423565b60405180910390f35b6102a760048036038101906102a2919061346a565b6107a4565b6040516102b49190613423565b60405180910390f35b6102d760048036038101906102d291906134c3565b6107c3565b6040516102e49190613423565b60405180910390f35b6103076004803603810190610302919061354e565b6107e7565b005b610323600480360381019061031e91906136d4565b610809565b005b61033f600480360381019061033a919061354e565b610c20565b005b61035b6004803603810190610356919061346a565b610c9b565b005b610377600480360381019061037291906134c3565b61104c565b604051610389969594939291906137be565b60405180910390f35b61039a61115a565b005b6103b660048036038101906103b19190613826565b61128d565b005b6103d260048036038101906103cd9190613826565b6112c8565b005b6103ee60048036038101906103e99190613826565b6114b8565b6040516103fb91906133ef565b60405180910390f35b61041e60048036038101906104199190613826565b6114d0565b005b61043a60048036038101906104359190613826565b61150b565b005b61045660048036038101906104519190613853565b611546565b60405161046391906133bb565b60405180910390f35b61048660048036038101906104819190613826565b61169b565b005b61049061188b565b60405161049d91906138af565b60405180910390f35b6104c060048036038101906104bb9190613826565b6118b1565b005b6104dc60048036038101906104d7919061354e565b611aa1565b6040516104e991906133bb565b60405180910390f35b61050c6004803603810190610507919061346a565b611b0b565b005b610516611ddc565b6040516105239190613423565b60405180910390f35b61054660048036038101906105419190613826565b611e00565b005b610562600480360381019061055d919061346a565b611f8f565b6040516105789a99989796959493929190613941565b60405180910390f35b610589612070565b6040516105969190613a3c565b60405180910390f35b6105b960048036038101906105b4919061346a565b612096565b6040516105cb969594939291906137be565b60405180910390f35b6105dc612194565b6040516105e99190613423565b60405180910390f35b61060c60048036038101906106079190613826565b61219b565b005b6106166122aa565b6040516106239190613a78565b60405180910390f35b61064660048036038101906106419190613a93565b6122d0565b6040516106539190613423565b60405180910390f35b6106766004803603810190610671919061354e565b612301565b005b610680612323565b60405161068d9190613af4565b60405180910390f35b6106b060048036038101906106ab9190613826565b612349565b6040516106bd91906133bb565b60405180910390f35b6106e060048036038101906106db919061346a565b612369565b005b6106ea61271a565b6040516106f79190613423565b60405180910390f35b60007f7965db0b000000000000000000000000000000000000000000000000000000007bffffffffffffffffffffffffffffffffffffffffffffffffffffffff1916827bffffffffffffffffffffffffffffffffffffffffffffffffffffffff1916148061077357506107728261273e565b5b9050919050565b60085481565b7f2a5f906c256a5d799494fcd066e1f6c077689de1cdb65052a1624de4bace99bf81565b6000806000838152602001908152602001600020600101549050919050565b600781815481106107d357600080fd5b906000526020600020016000915090505481565b6107f0826107a4565b6107f9816127a8565b61080383836127bc565b50505050565b600160003373ffffffffffffffffffffffffffffffffffffffff1673ffffffffffffffffffffffffffffffffffffffff16815260200190815260200160002060009054906101000a900460ff1615610896576040517f08c379a000000000000000000000000000000000000000000000000000000000815260040161088d90613b5b565b60405180910390fd5b6108a082826128ad565b6040518060c001604052808381526020014281526020013373ffffffffffffffffffffffffffffffffffffffff1681526020016000151581526020016000151581526020018281525060046000848152602001908152602001600020600082015181600001556020820151816001015560408201518160020160006101000a81548173ffffffffffffffffffffffffffffffffffffffff021916908373ffffffffffffffffffffffffffffffffffffffff16021790555060608201518160020160146101000a81548160ff02191690831515021790555060808201518160020160156101000a81548160ff02191690831515021790555060a08201518160030190816109ac9190613d7d565b50905050600660046000848152602001908152602001600020908060018154018082558091505060019003906000526020600020906004020160009091909190915060008201548160000155600182015481600101556002820160009054906101000a900473ffffffffffffffffffffffffffffffffffffffff168160020160006101000a81548173ffffffffffffffffffffffffffffffffffffffff021916908373ffffffffffffffffffffffffffffffffffffffff1602179055506002820160149054906101000a900460ff168160020160146101000a81548160ff0219169083151502179055506002820160159054906101000a900460ff168160020160156101000a81548160ff02191690831515021790555060038201816003019081610ad79190613e65565b5050506003600083815260200190815260200160002060030160009054906101000a900473ffffffffffffffffffffffffffffffffffffffff1673ffffffffffffffffffffffffffffffffffffffff163373ffffffffffffffffffffffffffffffffffffffff1603610b875760046003600084815260200190815260200160002060080160006101000a81548160ff02191690836008811115610b7d57610b7c6138ca565b5b0217905550610bc7565b60056003600084815260200190815260200160002060080160006101000a81548160ff02191690836008811115610bc157610bc06138ca565b5b02179055505b3373ffffffffffffffffffffffffffffffffffffffff1642837fc06a34dcf81b54b1e49726bec391ac7b6c2af22a7e3b3594d60445f3a9c68cbe60008086604051610c1493929190613f4d565b60405180910390a45050565b610c28612ab0565b73ffffffffffffffffffffffffffffffffffffffff168173ffffffffffffffffffffffffffffffffffffffff1614610c8c576040517f6697b23200000000000000000000000000000000000000000000000000000000815260040160405180910390fd5b610c968282612ab8565b505050565b600160003373ffffffffffffffffffffffffffffffffffffffff1673ffffffffffffffffffffffffffffffffffffffff16815260200190815260200160002060009054906101000a900460ff1615610d28576040517f08c379a0000000000000000000000000000000000000000000000000000000008152600401610d1f90613b5b565b60405180910390fd5b600b60009054906101000a900473ffffffffffffffffffffffffffffffffffffffff1673ffffffffffffffffffffffffffffffffffffffff166391d148547feefb95e842a3287179d933b4460be539a1d5af11aa8b325bb45c5c8dc92de4ed336040518363ffffffff1660e01b8152600401610da5929190613f8b565b602060405180830381865afa158015610dc2573d6000803e3d6000fd5b505050506040513d601f19601f82011682018060405250810190610de69190613fe0565b610e25576040517f08c379a0000000000000000000000000000000000000000000000000000000008152600401610e1c90614059565b60405180910390fd5b610e2e81612baa565b60006004600083815260200190815260200160002060020160009054906101000a900473ffffffffffffffffffffffffffffffffffffffff1690506003600083815260200190815260200160002060020160009054906101000a900473ffffffffffffffffffffffffffffffffffffffff1673ffffffffffffffffffffffffffffffffffffffff168173ffffffffffffffffffffffffffffffffffffffff1603610fa55760016004600084815260200190815260200160002060020160156101000a81548160ff021916908315150217905550610f0b8282612d81565b60006003600084815260200190815260200160002060020160006101000a81548173ffffffffffffffffffffffffffffffffffffffff021916908373ffffffffffffffffffffffffffffffffffffffff16021790555060076003600084815260200190815260200160002060080160006101000a81548160ff02191690836008811115610f9b57610f9a6138ca565b5b0217905550610fe0565b6040517f08c379a0000000000000000000000000000000000000000000000000000000008152600401610fd7906140eb565b60405180910390fd5b428173ffffffffffffffffffffffffffffffffffffffff16837f19766b5afd8e309c7c73edf73647cd312ca6979822a5397524d466148653d36a60016004600088815260200190815260200160002060030160405161104092919061418f565b60405180910390a45050565b6006818154811061105c57600080fd5b90600052602060002090600402016000915090508060000154908060010154908060020160009054906101000a900473ffffffffffffffffffffffffffffffffffffffff16908060020160149054906101000a900460ff16908060020160159054906101000a900460ff16908060030180546110d790613baa565b80601f016020809104026020016040519081016040528092919081815260200182805461110390613baa565b80156111505780601f1061112557610100808354040283529160200191611150565b820191906000526020600020905b81548152906001019060200180831161113357829003601f168201915b5050505050905086565b600b60009054906101000a900473ffffffffffffffffffffffffffffffffffffffff1673ffffffffffffffffffffffffffffffffffffffff166391d148546000801b336040518363ffffffff1660e01b81526004016111ba929190613f8b565b602060405180830381865afa1580156111d7573d6000803e3d6000fd5b505050506040513d601f19601f820116820180604052508101906111fb9190613fe0565b50600a60009054906101000a900473ffffffffffffffffffffffffffffffffffffffff1673ffffffffffffffffffffffffffffffffffffffff16630357371d33476040518363ffffffff1660e01b81526004016112599291906141bf565b600060405180830381600087803b15801561127357600080fd5b505af1158015611287573d6000803e3d6000fd5b50505050565b6000801b61129a816127a8565b6112c47ffbd454f36a7e1a388bd6fc3ab10d434aa4578f811acbbcf33afb1c697486313c83612301565b5050565b6000801b6112d5816127a8565b816113007feefb95e842a3287179d933b4460be539a1d5af11aa8b325bb45c5c8dc92de4ed82611aa1565b1561134257806040517f375795b90000000000000000000000000000000000000000000000000000000081526004016113399190614234565b60405180910390fd5b61136c7f2a5f906c256a5d799494fcd066e1f6c077689de1cdb65052a1624de4bace99bf82611aa1565b156113ae57806040517f375795b90000000000000000000000000000000000000000000000000000000081526004016113a591906142ae565b60405180910390fd5b6113d87ffbd454f36a7e1a388bd6fc3ab10d434aa4578f811acbbcf33afb1c697486313c82611aa1565b1561141a57806040517f375795b90000000000000000000000000000000000000000000000000000000081526004016114119190614328565b60405180910390fd5b600073ffffffffffffffffffffffffffffffffffffffff168173ffffffffffffffffffffffffffffffffffffffff1603611489576040517f08c379a000000000000000000000000000000000000000000000000000000000815260040161148090613b5b565b60405180910390fd5b6114b37feefb95e842a3287179d933b4460be539a1d5af11aa8b325bb45c5c8dc92de4ed846107e7565b505050565b60026020528060005260406000206000915090505481565b6000801b6114dd816127a8565b6115077feefb95e842a3287179d933b4460be539a1d5af11aa8b325bb45c5c8dc92de4ed83612301565b5050565b6000801b611518816127a8565b6115427f2a5f906c256a5d799494fcd066e1f6c077689de1cdb65052a1624de4bace99bf83612301565b5050565b6000807feefb95e842a3287179d933b4460be539a1d5af11aa8b325bb45c5c8dc92de4ed84805190602001200361159f577feefb95e842a3287179d933b4460be539a1d5af11aa8b325bb45c5c8dc92de4ed9050611688565b7ffbd454f36a7e1a388bd6fc3ab10d434aa4578f811acbbcf33afb1c697486313c8480519060200120036115f5577ffbd454f36a7e1a388bd6fc3ab10d434aa4578f811acbbcf33afb1c697486313c9050611687565b7f2a5f906c256a5d799494fcd066e1f6c077689de1cdb65052a1624de4bace99bf84805190602001200361164b577f2a5f906c256a5d799494fcd066e1f6c077689de1cdb65052a1624de4bace99bf9050611686565b6040517f08c379a000000000000000000000000000000000000000000000000000000000815260040161167d906143a2565b60405180910390fd5b5b5b6116928184611aa1565b91505092915050565b6000801b6116a8816127a8565b816116d37feefb95e842a3287179d933b4460be539a1d5af11aa8b325bb45c5c8dc92de4ed82611aa1565b1561171557806040517f375795b900000000000000000000000000000000000000000000000000000000815260040161170c9190614234565b60405180910390fd5b61173f7f2a5f906c256a5d799494fcd066e1f6c077689de1cdb65052a1624de4bace99bf82611aa1565b1561178157806040517f375795b900000000000000000000000000000000000000000000000000000000815260040161177891906142ae565b60405180910390fd5b6117ab7ffbd454f36a7e1a388bd6fc3ab10d434aa4578f811acbbcf33afb1c697486313c82611aa1565b156117ed57806040517f375795b90000000000000000000000000000000000000000000000000000000081526004016117e49190614328565b60405180910390fd5b600073ffffffffffffffffffffffffffffffffffffffff168173ffffffffffffffffffffffffffffffffffffffff160361185c576040517f08c379a000000000000000000000000000000000000000000000000000000000815260040161185390613b5b565b60405180910390fd5b6118867ffbd454f36a7e1a388bd6fc3ab10d434aa4578f811acbbcf33afb1c697486313c846107e7565b505050565b600c60009054906101000a900473ffffffffffffffffffffffffffffffffffffffff1681565b6000801b6118be816127a8565b816118e97feefb95e842a3287179d933b4460be539a1d5af11aa8b325bb45c5c8dc92de4ed82611aa1565b1561192b57806040517f375795b90000000000000000000000000000000000000000000000000000000081526004016119229190614234565b60405180910390fd5b6119557f2a5f906c256a5d799494fcd066e1f6c077689de1cdb65052a1624de4bace99bf82611aa1565b1561199757806040517f375795b900000000000000000000000000000000000000000000000000000000815260040161198e91906142ae565b60405180910390fd5b6119c17ffbd454f36a7e1a388bd6fc3ab10d434aa4578f811acbbcf33afb1c697486313c82611aa1565b15611a0357806040517f375795b90000000000000000000000000000000000000000000000000000000081526004016119fa9190614328565b60405180910390fd5b600073ffffffffffffffffffffffffffffffffffffffff168173ffffffffffffffffffffffffffffffffffffffff1603611a72576040517f08c379a0000000000000000000000000000000000000000000000000000000008152600401611a6990613b5b565b60405180910390fd5b611a9c7f2a5f906c256a5d799494fcd066e1f6c077689de1cdb65052a1624de4bace99bf846107e7565b505050565b600080600084815260200190815260200160002060000160008373ffffffffffffffffffffffffffffffffffffffff1673ffffffffffffffffffffffffffffffffffffffff16815260200190815260200160002060009054906101000a900460ff16905092915050565b611b1481612baa565b60006004600083815260200190815260200160002060020160009054906101000a900473ffffffffffffffffffffffffffffffffffffffff1690506003600083815260200190815260200160002060030160009054906101000a900473ffffffffffffffffffffffffffffffffffffffff1673ffffffffffffffffffffffffffffffffffffffff168173ffffffffffffffffffffffffffffffffffffffff16148015611be65750611be57ffbd454f36a7e1a388bd6fc3ab10d434aa4578f811acbbcf33afb1c697486313c33611aa1565b5b15611c2e57600380600084815260200190815260200160002060080160006101000a81548160ff02191690836008811115611c2457611c236138ca565b5b0217905550611d4a565b6003600083815260200190815260200160002060020160009054906101000a900473ffffffffffffffffffffffffffffffffffffffff1673ffffffffffffffffffffffffffffffffffffffff168173ffffffffffffffffffffffffffffffffffffffff16148015611cc55750611cc47feefb95e842a3287179d933b4460be539a1d5af11aa8b325bb45c5c8dc92de4ed33611aa1565b5b15611d0e5760016003600084815260200190815260200160002060080160006101000a81548160ff02191690836008811115611d0457611d036138ca565b5b0217905550611d49565b6040517f08c379a0000000000000000000000000000000000000000000000000000000008152600401611d4090614434565b60405180910390fd5b5b611d5382613015565b6004600083815260200190815260200160002060008082016000905560018201600090556002820160006101000a81549073ffffffffffffffffffffffffffffffffffffffff02191690556002820160146101000a81549060ff02191690556002820160156101000a81549060ff0219169055600382016000611dd691906132aa565b50505050565b7feefb95e842a3287179d933b4460be539a1d5af11aa8b325bb45c5c8dc92de4ed81565b6000801b611e0d816127a8565b600073ffffffffffffffffffffffffffffffffffffffff168273ffffffffffffffffffffffffffffffffffffffff1603611e7c576040517f08c379a0000000000000000000000000000000000000000000000000000000008152600401611e73906144a0565b60405180910390fd5b60018060008473ffffffffffffffffffffffffffffffffffffffff1673ffffffffffffffffffffffffffffffffffffffff16815260200190815260200160002060006101000a81548160ff021916908315150217905550611efd7feefb95e842a3287179d933b4460be539a1d5af11aa8b325bb45c5c8dc92de4ed83612ab8565b50611f287ffbd454f36a7e1a388bd6fc3ab10d434aa4578f811acbbcf33afb1c697486313c83612ab8565b50611f537f2a5f906c256a5d799494fcd066e1f6c077689de1cdb65052a1624de4bace99bf83612ab8565b507f90811a8edd3b3c17eeaefffc17f639cc69145d41a359c9843994dc253820369082604051611f8391906138af565b60405180910390a15050565b60036020528060005260406000206000915090508060000154908060010160009054906101000a900473ffffffffffffffffffffffffffffffffffffffff16908060020160009054906101000a900473ffffffffffffffffffffffffffffffffffffffff16908060030160009054906101000a900473ffffffffffffffffffffffffffffffffffffffff16908060040154908060050154908060060154908060070154908060080160009054906101000a900460ff16908060080160019054906101000a900473ffffffffffffffffffffffffffffffffffffffff1690508a565b600960009054906101000a900473ffffffffffffffffffffffffffffffffffffffff1681565b60046020528060005260406000206000915090508060000154908060010154908060020160009054906101000a900473ffffffffffffffffffffffffffffffffffffffff16908060020160149054906101000a900460ff16908060020160159054906101000a900460ff169080600301805461211190613baa565b80601f016020809104026020016040519081016040528092919081815260200182805461213d90613baa565b801561218a5780601f1061215f5761010080835404028352916020019161218a565b820191906000526020600020905b81548152906001019060200180831161216d57829003601f168201915b5050505050905086565b6000801b81565b6000801b6121a8816127a8565b600073ffffffffffffffffffffffffffffffffffffffff168273ffffffffffffffffffffffffffffffffffffffff1603612217576040517f08c379a000000000000000000000000000000000000000000000000000000000815260040161220e9061450c565b60405180910390fd5b6000600160008473ffffffffffffffffffffffffffffffffffffffff1673ffffffffffffffffffffffffffffffffffffffff16815260200190815260200160002060006101000a81548160ff0219169083151502179055507fc3776b472ebf54114339eec9e4dc924e7ce307a97f5c1ee72b6d474e6e5e8b7c8260405161229e91906138af565b60405180910390a15050565b600b60009054906101000a900473ffffffffffffffffffffffffffffffffffffffff1681565b600560205281600052604060002081815481106122ec57600080fd5b90600052602060002001600091509150505481565b61230a826107a4565b612313816127a8565b61231d8383612ab8565b50505050565b600a60009054906101000a900473ffffffffffffffffffffffffffffffffffffffff1681565b60016020528060005260406000206000915054906101000a900460ff1681565b600160003373ffffffffffffffffffffffffffffffffffffffff1673ffffffffffffffffffffffffffffffffffffffff16815260200190815260200160002060009054906101000a900460ff16156123f6576040517f08c379a00000000000000000000000000000000000000000000000000000000081526004016123ed90613b5b565b60405180910390fd5b600b60009054906101000a900473ffffffffffffffffffffffffffffffffffffffff1673ffffffffffffffffffffffffffffffffffffffff166391d148547ffbd454f36a7e1a388bd6fc3ab10d434aa4578f811acbbcf33afb1c697486313c336040518363ffffffff1660e01b8152600401612473929190613f8b565b602060405180830381865afa158015612490573d6000803e3d6000fd5b505050506040513d601f19601f820116820180604052508101906124b49190613fe0565b6124f3576040517f08c379a00000000000000000000000000000000000000000000000000000000081526004016124ea90614578565b60405180910390fd5b6124fc81612baa565b60006004600083815260200190815260200160002060020160009054906101000a900473ffffffffffffffffffffffffffffffffffffffff1690506003600083815260200190815260200160002060030160009054906101000a900473ffffffffffffffffffffffffffffffffffffffff1673ffffffffffffffffffffffffffffffffffffffff168173ffffffffffffffffffffffffffffffffffffffff16036126735760016004600084815260200190815260200160002060020160156101000a81548160ff0219169083151502179055506125d98282612d81565b60006003600084815260200190815260200160002060030160006101000a81548173ffffffffffffffffffffffffffffffffffffffff021916908373ffffffffffffffffffffffffffffffffffffffff16021790555060066003600084815260200190815260200160002060080160006101000a81548160ff02191690836008811115612669576126686138ca565b5b02179055506126ae565b6040517f08c379a00000000000000000000000000000000000000000000000000000000081526004016126a5906140eb565b60405180910390fd5b428173ffffffffffffffffffffffffffffffffffffffff16837f19766b5afd8e309c7c73edf73647cd312ca6979822a5397524d466148653d36a60016004600088815260200190815260200160002060030160405161270e92919061418f565b60405180910390a45050565b7ffbd454f36a7e1a388bd6fc3ab10d434aa4578f811acbbcf33afb1c697486313c81565b60007f01ffc9a7000000000000000000000000000000000000000000000000000000007bffffffffffffffffffffffffffffffffffffffffffffffffffffffff1916827bffffffffffffffffffffffffffffffffffffffffffffffffffffffff1916149050919050565b6127b9816127b4612ab0565b613259565b50565b60006127c88383611aa1565b6128a257600160008085815260200190815260200160002060000160008473ffffffffffffffffffffffffffffffffffffffff1673ffffffffffffffffffffffffffffffffffffffff16815260200190815260200160002060006101000a81548160ff02191690831515021790555061283f612ab0565b73ffffffffffffffffffffffffffffffffffffffff168273ffffffffffffffffffffffffffffffffffffffff16847f2f8788117e7eff1d82e926ec794901d17c78024a50270940304540a733656f0d60405160405180910390a4600190506128a7565b600090505b92915050565b610100815111156128f3576040517f08c379a00000000000000000000000000000000000000000000000000000000081526004016128ea906145e4565b60405180910390fd5b600073ffffffffffffffffffffffffffffffffffffffff166004600084815260200190815260200160002060020160009054906101000a900473ffffffffffffffffffffffffffffffffffffffff1673ffffffffffffffffffffffffffffffffffffffff1614612998576040517f08c379a000000000000000000000000000000000000000000000000000000000815260040161298f90614676565b60405180910390fd5b6003600083815260200190815260200160002060030160009054906101000a900473ffffffffffffffffffffffffffffffffffffffff1673ffffffffffffffffffffffffffffffffffffffff163373ffffffffffffffffffffffffffffffffffffffff1614158015612a6c57506003600083815260200190815260200160002060020160009054906101000a900473ffffffffffffffffffffffffffffffffffffffff1673ffffffffffffffffffffffffffffffffffffffff163373ffffffffffffffffffffffffffffffffffffffff1614155b15612aac576040517f08c379a0000000000000000000000000000000000000000000000000000000008152600401612aa390614708565b60405180910390fd5b5050565b600033905090565b6000612ac48383611aa1565b15612b9f57600080600085815260200190815260200160002060000160008473ffffffffffffffffffffffffffffffffffffffff1673ffffffffffffffffffffffffffffffffffffffff16815260200190815260200160002060006101000a81548160ff021916908315150217905550612b3c612ab0565b73ffffffffffffffffffffffffffffffffffffffff168273ffffffffffffffffffffffffffffffffffffffff16847ff6391f5c32d9c69d2a47ea670b442974b53935d1edc7fd64eb21e047a839171b60405160405180910390a460019050612ba4565b600090505b92915050565b600073ffffffffffffffffffffffffffffffffffffffff166004600083815260200190815260200160002060020160009054906101000a900473ffffffffffffffffffffffffffffffffffffffff1673ffffffffffffffffffffffffffffffffffffffff1603612c4f576040517f08c379a0000000000000000000000000000000000000000000000000000000008152600401612c4690614774565b60405180910390fd5b6004600082815260200190815260200160002060020160159054906101000a900460ff1615612cb3576040517f08c379a0000000000000000000000000000000000000000000000000000000008152600401612caa906147e0565b60405180910390fd5b6004600082815260200190815260200160002060020160149054906101000a900460ff1615612d17576040517f08c379a0000000000000000000000000000000000000000000000000000000008152600401612d0e9061484c565b60405180910390fd5b4262093a806004600084815260200190815260200160002060010154612d3d919061489b565b1015612d7e576040517f08c379a0000000000000000000000000000000000000000000000000000000008152600401612d759061491b565b60405180910390fd5b50565b600160003373ffffffffffffffffffffffffffffffffffffffff1673ffffffffffffffffffffffffffffffffffffffff16815260200190815260200160002060009054906101000a900460ff1615612e0e576040517f08c379a0000000000000000000000000000000000000000000000000000000008152600401612e0590613b5b565b60405180910390fd5b60016004600084815260200190815260200160002060020160146101000a81548160ff0219169083151502179055506003600083815260200190815260200160002060010160009054906101000a900473ffffffffffffffffffffffffffffffffffffffff169050600a60009054906101000a900473ffffffffffffffffffffffffffffffffffffffff1673ffffffffffffffffffffffffffffffffffffffff16630357371d8260036000868152602001908152602001600020600601546040518363ffffffff1660e01b8152600401612ee99291906141bf565b600060405180830381600087803b158015612f0357600080fd5b505af1158015612f17573d6000803e3d6000fd5b50505050612f2482613015565b6004600083815260200190815260200160002060008082016000905560018201600090556002820160006101000a81549073ffffffffffffffffffffffffffffffffffffffff02191690556002820160146101000a81549060ff02191690556002820160156101000a81549060ff0219169055600382016000612fa791906132aa565b5050428173ffffffffffffffffffffffffffffffffffffffff16837fd10aed24016cac91d014d03affaaa7a129ad8c910443f27a898f3d028caa5bfb60016004600088815260200190815260200160002060030160405161300992919061418f565b60405180910390a45050565b60005b600680549050811015613255576004600083815260200190815260200160002060000154600682815481106130505761304f61493b565b5b90600052602060002090600402016000015403613248576006600160068054905061307b919061496a565b8154811061308c5761308b61493b565b5b9060005260206000209060040201600682815481106130ae576130ad61493b565b5b906000526020600020906004020160008201548160000155600182015481600101556002820160009054906101000a900473ffffffffffffffffffffffffffffffffffffffff168160020160006101000a81548173ffffffffffffffffffffffffffffffffffffffff021916908373ffffffffffffffffffffffffffffffffffffffff1602179055506002820160149054906101000a900460ff168160020160146101000a81548160ff0219169083151502179055506002820160159054906101000a900460ff168160020160156101000a81548160ff021916908315150217905550600382018160030190816131a59190613e65565b5090505060068054806131bb576131ba61499e565b5b600190038181906000526020600020906004020160008082016000905560018201600090556002820160006101000a81549073ffffffffffffffffffffffffffffffffffffffff02191690556002820160146101000a81549060ff02191690556002820160156101000a81549060ff021916905560038201600061323f91906132aa565b50509055613255565b8080600101915050613018565b5050565b6132638282611aa1565b6132a65780826040517fe2517d3f00000000000000000000000000000000000000000000000000000000815260040161329d9291906149cd565b60405180910390fd5b5050565b5080546132b690613baa565b6000825580601f106132c857506132e7565b601f0160209004906000526020600020908101906132e691906132ea565b5b50565b5b808211156133035760008160009055506001016132eb565b5090565b6000604051905090565b600080fd5b600080fd5b60007fffffffff0000000000000000000000000000000000000000000000000000000082169050919050565b6133508161331b565b811461335b57600080fd5b50565b60008135905061336d81613347565b92915050565b60006020828403121561338957613388613311565b5b60006133978482850161335e565b91505092915050565b60008115159050919050565b6133b5816133a0565b82525050565b60006020820190506133d060008301846133ac565b92915050565b6000819050919050565b6133e9816133d6565b82525050565b600060208201905061340460008301846133e0565b92915050565b6000819050919050565b61341d8161340a565b82525050565b60006020820190506134386000830184613414565b92915050565b6134478161340a565b811461345257600080fd5b50565b6000813590506134648161343e565b92915050565b6000602082840312156134805761347f613311565b5b600061348e84828501613455565b91505092915050565b6134a0816133d6565b81146134ab57600080fd5b50565b6000813590506134bd81613497565b92915050565b6000602082840312156134d9576134d8613311565b5b60006134e7848285016134ae565b91505092915050565b600073ffffffffffffffffffffffffffffffffffffffff82169050919050565b600061351b826134f0565b9050919050565b61352b81613510565b811461353657600080fd5b50565b60008135905061354881613522565b92915050565b6000806040838503121561356557613564613311565b5b600061357385828601613455565b925050602061358485828601613539565b9150509250929050565b600080fd5b600080fd5b6000601f19601f8301169050919050565b7f4e487b7100000000000000000000000000000000000000000000000000000000600052604160045260246000fd5b6135e182613598565b810181811067ffffffffffffffff82111715613600576135ff6135a9565b5b80604052505050565b6000613613613307565b905061361f82826135d8565b919050565b600067ffffffffffffffff82111561363f5761363e6135a9565b5b61364882613598565b9050602081019050919050565b82818337600083830152505050565b600061367761367284613624565b613609565b90508281526020810184848401111561369357613692613593565b5b61369e848285613655565b509392505050565b600082601f8301126136bb576136ba61358e565b5b81356136cb848260208601613664565b91505092915050565b600080604083850312156136eb576136ea613311565b5b60006136f985828601613455565b925050602083013567ffffffffffffffff81111561371a57613719613316565b5b613726858286016136a6565b9150509250929050565b61373981613510565b82525050565b600081519050919050565b600082825260208201905092915050565b60005b8381101561377957808201518184015260208101905061375e565b60008484015250505050565b60006137908261373f565b61379a818561374a565b93506137aa81856020860161375b565b6137b381613598565b840191505092915050565b600060c0820190506137d36000830189613414565b6137e060208301886133e0565b6137ed6040830187613730565b6137fa60608301866133ac565b61380760808301856133ac565b81810360a08301526138198184613785565b9050979650505050505050565b60006020828403121561383c5761383b613311565b5b600061384a84828501613539565b91505092915050565b6000806040838503121561386a57613869613311565b5b600083013567ffffffffffffffff81111561388857613887613316565b5b613894858286016136a6565b92505060206138a585828601613539565b9150509250929050565b60006020820190506138c46000830184613730565b92915050565b7f4e487b7100000000000000000000000000000000000000000000000000000000600052602160045260246000fd5b6009811061390a576139096138ca565b5b50565b600081905061391b826138f9565b919050565b600061392b8261390d565b9050919050565b61393b81613920565b82525050565b600061014082019050613957600083018d613414565b613964602083018c613730565b613971604083018b613730565b61397e606083018a613730565b61398b60808301896133e0565b61399860a08301886133e0565b6139a560c08301876133e0565b6139b260e08301866133e0565b6139c0610100830185613932565b6139ce610120830184613730565b9b9a5050505050505050505050565b6000819050919050565b6000613a026139fd6139f8846134f0565b6139dd565b6134f0565b9050919050565b6000613a14826139e7565b9050919050565b6000613a2682613a09565b9050919050565b613a3681613a1b565b82525050565b6000602082019050613a516000830184613a2d565b92915050565b6000613a6282613a09565b9050919050565b613a7281613a57565b82525050565b6000602082019050613a8d6000830184613a69565b92915050565b60008060408385031215613aaa57613aa9613311565b5b6000613ab885828601613539565b9250506020613ac9858286016134ae565b9150509250929050565b6000613ade82613a09565b9050919050565b613aee81613ad3565b82525050565b6000602082019050613b096000830184613ae5565b92915050565b7f4164647265737320496e76616c69640000000000000000000000000000000000600082015250565b6000613b45600f8361374a565b9150613b5082613b0f565b602082019050919050565b60006020820190508181036000830152613b7481613b38565b9050919050565b7f4e487b7100000000000000000000000000000000000000000000000000000000600052602260045260246000fd5b60006002820490506001821680613bc257607f821691505b602082108103613bd557613bd4613b7b565b5b50919050565b60008190508160005260206000209050919050565b60006020601f8301049050919050565b600082821b905092915050565b600060088302613c3d7fffffffffffffffffffffffffffffffffffffffffffffffffffffffffffffffff82613c00565b613c478683613c00565b95508019841693508086168417925050509392505050565b6000613c7a613c75613c70846133d6565b6139dd565b6133d6565b9050919050565b6000819050919050565b613c9483613c5f565b613ca8613ca082613c81565b848454613c0d565b825550505050565b600090565b613cbd613cb0565b613cc8818484613c8b565b505050565b5b81811015613cec57613ce1600082613cb5565b600181019050613cce565b5050565b601f821115613d3157613d0281613bdb565b613d0b84613bf0565b81016020851015613d1a578190505b613d2e613d2685613bf0565b830182613ccd565b50505b505050565b600082821c905092915050565b6000613d5460001984600802613d36565b1980831691505092915050565b6000613d6d8383613d43565b9150826002028217905092915050565b613d868261373f565b67ffffffffffffffff811115613d9f57613d9e6135a9565b5b613da98254613baa565b613db4828285613cf0565b600060209050601f831160018114613de75760008415613dd5578287015190505b613ddf8582613d61565b865550613e47565b601f198416613df586613bdb565b60005b82811015613e1d57848901518255600182019150602085019450602081019050613df8565b86831015613e3a5784890151613e36601f891682613d43565b8355505b6001600288020188555050505b505050505050565b600081549050613e5e81613baa565b9050919050565b818103613e73575050613f4b565b613e7c82613e4f565b67ffffffffffffffff811115613e9557613e946135a9565b5b613e9f8254613baa565b613eaa828285613cf0565b6000601f831160018114613ed95760008415613ec7578287015490505b613ed18582613d61565b865550613f44565b601f198416613ee787613bdb565b9650613ef286613bdb565b60005b82811015613f1a57848901548255600182019150600185019450602081019050613ef5565b86831015613f375784890154613f33601f891682613d43565b8355505b6001600288020188555050505b5050505050505b565b6000606082019050613f6260008301866133ac565b613f6f60208301856133ac565b8181036040830152613f818184613785565b9050949350505050565b6000604082019050613fa06000830185613414565b613fad6020830184613730565b9392505050565b613fbd816133a0565b8114613fc857600080fd5b50565b600081519050613fda81613fb4565b92915050565b600060208284031215613ff657613ff5613311565b5b600061400484828501613fcb565b91505092915050565b7f497473206e6f74204d616e756661637475726572000000000000000000000000600082015250565b600061404360148361374a565b915061404e8261400d565b602082019050919050565b6000602082019050818103600083015261407281614036565b9050919050565b7f556e617574686f72697a65642063616c6c657220666f7220617070726f76696e60008201527f6720746869732072657475726e00000000000000000000000000000000000000602082015250565b60006140d5602d8361374a565b91506140e082614079565b604082019050919050565b60006020820190508181036000830152614104816140c8565b9050919050565b6000815461411881613baa565b614122818661374a565b9450600182166000811461413d576001811461415357614186565b60ff198316865281151560200286019350614186565b61415c85613bdb565b60005b8381101561417e5781548189015260018201915060208101905061415f565b808801955050505b50505092915050565b60006040820190506141a460008301856133ac565b81810360208301526141b6818461410b565b90509392505050565b60006040820190506141d46000830185613730565b6141e160208301846133e0565b9392505050565b7f4d616e7566616374757265720000000000000000000000000000000000000000600082015250565b600061421e600c8361374a565b9150614229826141e8565b602082019050919050565b6000604082019050818103600083015261424d81614211565b905061425c6020830184613730565b92915050565b7f52657461696c6572000000000000000000000000000000000000000000000000600082015250565b600061429860088361374a565b91506142a382614262565b602082019050919050565b600060408201905081810360008301526142c78161428b565b90506142d66020830184613730565b92915050565b7f4469737472696275746f72000000000000000000000000000000000000000000600082015250565b6000614312600b8361374a565b915061431d826142dc565b602082019050919050565b6000604082019050818103600083015261434181614305565b90506143506020830184613730565b92915050565b7f496e76616c696420726f6c65206e616d65000000000000000000000000000000600082015250565b600061438c60118361374a565b915061439782614356565b602082019050919050565b600060208201905081810360008301526143bb8161437f565b9050919050565b7f556e617574686f72697a656420746f2072656a6563742074686973207265717560008201527f6573740000000000000000000000000000000000000000000000000000000000602082015250565b600061441e60238361374a565b9150614429826143c2565b604082019050919050565b6000602082019050818103600083015261444d81614411565b9050919050565b7f43616e6e6f7420667265657a6520746865207a65726f20616464726573730000600082015250565b600061448a601e8361374a565b915061449582614454565b602082019050919050565b600060208201905081810360008301526144b98161447d565b9050919050565b7f43616e6e6f7420756e667265657a6520746865207a65726f2061646472657373600082015250565b60006144f660208361374a565b9150614501826144c0565b602082019050919050565b60006020820190508181036000830152614525816144e9565b9050919050565b7f497473206e6f74204469737472696275746f7200000000000000000000000000600082015250565b600061456260138361374a565b915061456d8261452c565b602082019050919050565b6000602082019050818103600083015261459181614555565b9050919050565b7f526561736f6e20746f6f206c6f6e670000000000000000000000000000000000600082015250565b60006145ce600f8361374a565b91506145d982614598565b602082019050919050565b600060208201905081810360008301526145fd816145c1565b9050919050565b7f52657475726e207265717565737420666f72207468697320626174636820616c60008201527f7265616479206578697374730000000000000000000000000000000000000000602082015250565b6000614660602c8361374a565b915061466b82614604565b604082019050919050565b6000602082019050818103600083015261468f81614653565b9050919050565b7f596f7520617265206e6f7420746865206f776e6572206f66207468697320626160008201527f7463680000000000000000000000000000000000000000000000000000000000602082015250565b60006146f260238361374a565b91506146fd82614696565b604082019050919050565b60006020820190508181036000830152614721816146e5565b9050919050565b7f4e6f2072657475726e207265717565737420666f756e64000000000000000000600082015250565b600061475e60178361374a565b915061476982614728565b602082019050919050565b6000602082019050818103600083015261478d81614751565b9050919050565b7f5265717565737420616c726561647920617070726f7665640000000000000000600082015250565b60006147ca60188361374a565b91506147d582614794565b602082019050919050565b600060208201905081810360008301526147f9816147bd565b9050919050565b7f5265717565737420616c726561647920726566756e6465640000000000000000600082015250565b600061483660188361374a565b915061484182614800565b602082019050919050565b6000602082019050818103600083015261486581614829565b9050919050565b7f4e487b7100000000000000000000000000000000000000000000000000000000600052601160045260246000fd5b60006148a6826133d6565b91506148b1836133d6565b92508282019050808211156148c9576148c861486c565b5b92915050565b7f5265717565737420686173206578706972656400000000000000000000000000600082015250565b600061490560138361374a565b9150614910826148cf565b602082019050919050565b60006020820190508181036000830152614934816148f8565b9050919050565b7f4e487b7100000000000000000000000000000000000000000000000000000000600052603260045260246000fd5b6000614975826133d6565b9150614980836133d6565b92508282039050818111156149985761499761486c565b5b92915050565b7f4e487b7100000000000000000000000000000000000000000000000000000000600052603160045260246000fd5b60006040820190506149e26000830185613730565b6149ef6020830184613414565b939250505056fea26469706673582212204ff2b9d9ce0d2d5a592fda0916c8d6871262acb09a9b5b6d0b7259b35d11792064736f6c634300081c0033",
  "linkReferences": {},
  "deployedLinkReferences": {}
}