{
  "_format": "hh-sol-artifact-1",
  "contractName": "HandlingRequests",
  "sourceName": "contracts/HandlingRequests.sol",
  "abi": [
    {
      "inputs": [
        {
          "internalType": "address",
          "name": "priceFeedAddress",
          "type": "address"
        },
        {
          "internalType": "address",
          "name": "escrowAddress",
          "type": "address"
        },
        {
          "internalType": "address",
          "name": "handlingAddresses",
          "type": "address"
        }
      ],
      "stateMutability": "nonpayable",
      "type": "constructor"
    },
    {
      "inputs": [],
      "name": "AccessControlBadConfirmation",
      "type": "error"
    },
    {
      "inputs": [
        {
          "internalType": "address",
          "name": "account",
          "type": "address"
        },
        {
          "internalType": "bytes32",
          "name": "neededRole",
          "type": "bytes32"
        }
      ],
      "name": "AccessControlUnauthorizedAccount",
      "type": "error"
    },
    {
      "inputs": [
        {
          "internalType": "string",
          "name": "role",
          "type": "string"
        },
        {
          "internalType": "address",
          "name": "account",
          "type": "address"
        }
      ],
      "name": "AddressAlreadyExists",
      "type": "error"
    },
    {
      "inputs": [
        {
          "internalType": "address",
          "name": "account",
          "type": "address"
        }
      ],
      "name": "AddressInvalid",
      "type": "error"
    },
    {
      "inputs": [
        {
          "internalType": "uint256",
          "name": "_usdAmount",
          "type": "uint256"
        }
      ],
      "name": "InvalidAmount",
      "type": "error"
    },
    {
      "anonymous": false,
      "inputs": [
        {
          "indexed": false,
          "internalType": "address",
          "name": "account",
          "type": "address"
        }
      ],
      "name": "AddressFrozen",
      "type": "event"
    },
    {
      "anonymous": false,
      "inputs": [
        {
          "indexed": false,
          "internalType": "address",
          "name": "account",
          "type": "address"
        }
      ],
      "name": "AddressUnfrozen",
      "type": "event"
    },
    {
      "anonymous": false,
      "inputs": [
        {
          "indexed": true,
          "internalType": "bytes32",
          "name": "batchId",
          "type": "bytes32"
        },
        {
          "indexed": false,
          "internalType": "uint256",
          "name": "timestamp",
          "type": "uint256"
        }
      ],
      "name": "BatchCreated",
      "type": "event"
    },
    {
      "anonymous": false,
      "inputs": [
        {
          "indexed": true,
          "internalType": "bytes32",
          "name": "batchId",
          "type": "bytes32"
        },
        {
          "indexed": false,
          "internalType": "address",
          "name": "distributor",
          "type": "address"
        },
        {
          "indexed": false,
          "internalType": "enum DrugSupplyChain.BatchStatus",
          "name": "statusEnum",
          "type": "uint8"
        },
        {
          "indexed": false,
          "internalType": "uint256",
          "name": "price",
          "type": "uint256"
        },
        {
          "indexed": false,
          "internalType": "uint256",
          "name": "timestamp",
          "type": "uint256"
        }
      ],
      "name": "DistributerPurchased",
      "type": "event"
    },
    {
      "anonymous": false,
      "inputs": [
        {
          "indexed": true,
          "internalType": "bytes32",
          "name": "batchId",
          "type": "bytes32"
        },
        {
          "indexed": false,
          "internalType": "enum DrugSupplyChain.BatchStatus",
          "name": "statusEnum",
          "type": "uint8"
        },
        {
          "indexed": true,
          "internalType": "address",
          "name": "distributor",
          "type": "address"
        },
        {
          "indexed": false,
          "internalType": "uint256",
          "name": "price",
          "type": "uint256"
        },
        {
          "indexed": false,
          "internalType": "uint256",
          "name": "timestamp",
          "type": "uint256"
        },
        {
          "indexed": false,
          "internalType": "string",
          "name": "reason",
          "type": "string"
        }
      ],
      "name": "EligibleForResell",
      "type": "event"
    },
    {
      "anonymous": false,
      "inputs": [
        {
          "indexed": true,
          "internalType": "bytes32",
          "name": "batchId",
          "type": "bytes32"
        },
        {
          "indexed": true,
          "internalType": "address",
          "name": "to",
          "type": "address"
        },
        {
          "indexed": true,
          "internalType": "uint256",
          "name": "timestamp",
          "type": "uint256"
        },
        {
          "indexed": false,
          "internalType": "bool",
          "name": "refunded",
          "type": "bool"
        },
        {
          "indexed": false,
          "internalType": "string",
          "name": "reason",
          "type": "string"
        }
      ],
      "name": "Refunded",
      "type": "event"
    },
    {
      "anonymous": false,
      "inputs": [
        {
          "indexed": true,
          "internalType": "bytes32",
          "name": "batchId",
          "type": "bytes32"
        },
        {
          "indexed": true,
          "internalType": "address",
          "name": "requester",
          "type": "address"
        },
        {
          "indexed": true,
          "internalType": "uint256",
          "name": "timestamp",
          "type": "uint256"
        },
        {
          "indexed": false,
          "internalType": "bool",
          "name": "approved",
          "type": "bool"
        },
        {
          "indexed": false,
          "internalType": "string",
          "name": "reason",
          "type": "string"
        }
      ],
      "name": "RequestApproved",
      "type": "event"
    },
    {
      "anonymous": false,
      "inputs": [
        {
          "indexed": true,
          "internalType": "bytes32",
          "name": "batchId",
          "type": "bytes32"
        },
        {
          "indexed": false,
          "internalType": "enum DrugSupplyChain.BatchStatus",
          "name": "statusEnum",
          "type": "uint8"
        },
        {
          "indexed": true,
          "internalType": "address",
          "name": "distributor",
          "type": "address"
        },
        {
          "indexed": false,
          "internalType": "uint256",
          "name": "price",
          "type": "uint256"
        },
        {
          "indexed": false,
          "internalType": "uint256",
          "name": "timestamp",
          "type": "uint256"
        }
      ],
      "name": "ResellingDone",
      "type": "event"
    },
    {
      "anonymous": false,
      "inputs": [
        {
          "indexed": true,
          "internalType": "bytes32",
          "name": "batchId",
          "type": "bytes32"
        },
        {
          "indexed": false,
          "internalType": "address",
          "name": "retailer",
          "type": "address"
        },
        {
          "indexed": false,
          "internalType": "enum DrugSupplyChain.BatchStatus",
          "name": "statusEnum",
          "type": "uint8"
        },
        {
          "indexed": false,
          "internalType": "uint256",
          "name": "price",
          "type": "uint256"
        },
        {
          "indexed": false,
          "internalType": "uint256",
          "name": "timestamp",
          "type": "uint256"
        }
      ],
      "name": "RetailerPurchased",
      "type": "event"
    },
    {
      "anonymous": false,
      "inputs": [
        {
          "indexed": true,
          "internalType": "bytes32",
          "name": "batchId",
          "type": "bytes32"
        },
        {
          "indexed": true,
          "internalType": "uint256",
          "name": "timestamp",
          "type": "uint256"
        },
        {
          "indexed": true,
          "internalType": "address",
          "name": "requester",
          "type": "address"
        },
        {
          "indexed": false,
          "internalType": "bool",
          "name": "approved",
          "type": "bool"
        },
        {
          "indexed": false,
          "internalType": "bool",
          "name": "refunded",
          "type": "bool"
        },
        {
          "indexed": false,
          "internalType": "string",
          "name": "reason",
          "type": "string"
        }
      ],
      "name": "ReturnRequested",
      "type": "event"
    },
    {
      "anonymous": false,
      "inputs": [
        {
          "indexed": true,
          "internalType": "bytes32",
          "name": "role",
          "type": "bytes32"
        },
        {
          "indexed": true,
          "internalType": "bytes32",
          "name": "previousAdminRole",
          "type": "bytes32"
        },
        {
          "indexed": true,
          "internalType": "bytes32",
          "name": "newAdminRole",
          "type": "bytes32"
        }
      ],
      "name": "RoleAdminChanged",
      "type": "event"
    },
    {
      "anonymous": false,
      "inputs": [
        {
          "indexed": true,
          "internalType": "bytes32",
          "name": "role",
          "type": "bytes32"
        },
        {
          "indexed": true,
          "internalType": "address",
          "name": "account",
          "type": "address"
        },
        {
          "indexed": true,
          "internalType": "address",
          "name": "sender",
          "type": "address"
        }
      ],
      "name": "RoleGranted",
      "type": "event"
    },
    {
      "anonymous": false,
      "inputs": [
        {
          "indexed": true,
          "internalType": "bytes32",
          "name": "role",
          "type": "bytes32"
        },
        {
          "indexed": true,
          "internalType": "address",
          "name": "account",
          "type": "address"
        },
        {
          "indexed": true,
          "internalType": "address",
          "name": "sender",
          "type": "address"
        }
      ],
      "name": "RoleRevoked",
      "type": "event"
    },
    {
      "inputs": [],
      "name": "DEFAULT_ADMIN_ROLE",
      "outputs": [
        {
          "internalType": "bytes32",
          "name": "",
          "type": "bytes32"
        }
      ],
      "stateMutability": "view",
      "type": "function"
    },
    {
      "inputs": [],
      "name": "DISTRIBUTOR_ROLE",
      "outputs": [
        {
          "internalType": "bytes32",
          "name": "",
          "type": "bytes32"
        }
      ],
      "stateMutability": "view",
      "type": "function"
    },
    {
      "inputs": [],
      "name": "MANUFACTURER_ROLE",
      "outputs": [
        {
          "internalType": "bytes32",
          "name": "",
          "type": "bytes32"
        }
      ],
      "stateMutability": "view",
      "type": "function"
    },
    {
      "inputs": [],
      "name": "RETAILER_ROLE",
      "outputs": [
        {
          "internalType": "bytes32",
          "name": "",
          "type": "bytes32"
        }
      ],
      "stateMutability": "view",
      "type": "function"
    },
    {
      "inputs": [
        {
          "internalType": "address",
          "name": "distributor",
          "type": "address"
        }
      ],
      "name": "addDistributor",
      "outputs": [],
      "stateMutability": "nonpayable",
      "type": "function"
    },
    {
      "inputs": [
        {
          "internalType": "address",
          "name": "manufacturer",
          "type": "address"
        }
      ],
      "name": "addManufacturer",
      "outputs": [],
      "stateMutability": "nonpayable",
      "type": "function"
    },
    {
      "inputs": [
        {
          "internalType": "address",
          "name": "retailer",
          "type": "address"
        }
      ],
      "name": "addRetailer",
      "outputs": [],
      "stateMutability": "nonpayable",
      "type": "function"
    },
    {
      "inputs": [
        {
          "internalType": "bytes32",
          "name": "_batchId",
          "type": "bytes32"
        }
      ],
      "name": "approveRequestDistributor",
      "outputs": [],
      "stateMutability": "nonpayable",
      "type": "function"
    },
    {
      "inputs": [
        {
          "internalType": "bytes32",
          "name": "_batchId",
          "type": "bytes32"
        }
      ],
      "name": "approveRequestRetailer",
      "outputs": [],
      "stateMutability": "nonpayable",
      "type": "function"
    },
    {
      "inputs": [],
      "name": "batchCount",
      "outputs": [
        {
          "internalType": "uint256",
          "name": "",
          "type": "uint256"
        }
      ],
      "stateMutability": "view",
      "type": "function"
    },
    {
      "inputs": [
        {
          "internalType": "address",
          "name": "",
          "type": "address"
        }
      ],
      "name": "batchCounter",
      "outputs": [
        {
          "internalType": "uint256",
          "name": "",
          "type": "uint256"
        }
      ],
      "stateMutability": "view",
      "type": "function"
    },
    {
      "inputs": [
        {
          "internalType": "bytes32",
          "name": "",
          "type": "bytes32"
        }
      ],
      "name": "batchIdToBatch",
      "outputs": [
        {
          "internalType": "bytes32",
          "name": "batchId",
          "type": "bytes32"
        },
        {
          "internalType": "address",
          "name": "manufacturer",
          "type": "address"
        },
        {
          "internalType": "address",
          "name": "distributor",
          "type": "address"
        },
        {
          "internalType": "address",
          "name": "retailer",
          "type": "address"
        },
        {
          "internalType": "uint256",
          "name": "expiryDate",
          "type": "uint256"
        },
        {
          "internalType": "uint256",
          "name": "timestamp",
          "type": "uint256"
        },
        {
          "internalType": "uint256",
          "name": "price",
          "type": "uint256"
        },
        {
          "internalType": "uint256",
          "name": "productPrice",
          "type": "uint256"
        },
        {
          "internalType": "enum DrugSupplyChain.BatchStatus",
          "name": "statusEnum",
          "type": "uint8"
        },
        {
          "internalType": "address",
          "name": "ipfsHash",
          "type": "address"
        }
      ],
      "stateMutability": "view",
      "type": "function"
    },
    {
      "inputs": [],
      "name": "dataFeed",
      "outputs": [
        {
          "internalType": "contract AggregatorV3Interface",
          "name": "",
          "type": "address"
        }
      ],
      "stateMutability": "view",
      "type": "function"
    },
    {
      "inputs": [],
      "name": "escrowContract",
      "outputs": [
        {
          "internalType": "contract Escrow",
          "name": "",
          "type": "address"
        }
      ],
      "stateMutability": "view",
      "type": "function"
    },
    {
      "inputs": [
        {
          "internalType": "address",
          "name": "account",
          "type": "address"
        }
      ],
      "name": "frozeAddress",
      "outputs": [],
      "stateMutability": "nonpayable",
      "type": "function"
    },
    {
      "inputs": [
        {
          "internalType": "bytes32",
          "name": "role",
          "type": "bytes32"
        }
      ],
      "name": "getRoleAdmin",
      "outputs": [
        {
          "internalType": "bytes32",
          "name": "",
          "type": "bytes32"
        }
      ],
      "stateMutability": "view",
      "type": "function"
    },
    {
      "inputs": [
        {
          "internalType": "bytes32",
          "name": "role",
          "type": "bytes32"
        },
        {
          "internalType": "address",
          "name": "account",
          "type": "address"
        }
      ],
      "name": "grantRole",
      "outputs": [],
      "stateMutability": "nonpayable",
      "type": "function"
    },
    {
      "inputs": [],
      "name": "handlingAddresses",
      "outputs": [
        {
          "internalType": "contract HandlingAddresses",
          "name": "",
          "type": "address"
        }
      ],
      "stateMutability": "view",
      "type": "function"
    },
    {
      "inputs": [
        {
          "internalType": "bytes32",
          "name": "role",
          "type": "bytes32"
        },
        {
          "internalType": "address",
          "name": "account",
          "type": "address"
        }
      ],
      "name": "hasRole",
      "outputs": [
        {
          "internalType": "bool",
          "name": "",
          "type": "bool"
        }
      ],
      "stateMutability": "view",
      "type": "function"
    },
    {
      "inputs": [
        {
          "internalType": "address",
          "name": "",
          "type": "address"
        }
      ],
      "name": "isFrozen",
      "outputs": [
        {
          "internalType": "bool",
          "name": "",
          "type": "bool"
        }
      ],
      "stateMutability": "view",
      "type": "function"
    },
    {
      "inputs": [],
      "name": "owner",
      "outputs": [
        {
          "internalType": "address",
          "name": "",
          "type": "address"
        }
      ],
      "stateMutability": "view",
      "type": "function"
    },
    {
      "inputs": [
        {
          "internalType": "uint256",
          "name": "",
          "type": "uint256"
        }
      ],
      "name": "pendingRequests",
      "outputs": [
        {
          "internalType": "bytes32",
          "name": "batchId",
          "type": "bytes32"
        },
        {
          "internalType": "uint256",
          "name": "timestamp",
          "type": "uint256"
        },
        {
          "internalType": "address",
          "name": "requester",
          "type": "address"
        },
        {
          "internalType": "bool",
          "name": "refunded",
          "type": "bool"
        },
        {
          "internalType": "bool",
          "name": "approved",
          "type": "bool"
        },
        {
          "internalType": "string",
          "name": "reason",
          "type": "string"
        }
      ],
      "stateMutability": "view",
      "type": "function"
    },
    {
      "inputs": [
        {
          "internalType": "bytes32",
          "name": "_batchId",
          "type": "bytes32"
        }
      ],
      "name": "rejectRequest",
      "outputs": [],
      "stateMutability": "nonpayable",
      "type": "function"
    },
    {
      "inputs": [
        {
          "internalType": "address",
          "name": "distributor",
          "type": "address"
        }
      ],
      "name": "removeDistributor",
      "outputs": [],
      "stateMutability": "nonpayable",
      "type": "function"
    },
    {
      "inputs": [
        {
          "internalType": "address",
          "name": "manufacturer",
          "type": "address"
        }
      ],
      "name": "removeManufacturer",
      "outputs": [],
      "stateMutability": "nonpayable",
      "type": "function"
    },
    {
      "inputs": [
        {
          "internalType": "address",
          "name": "retailer",
          "type": "address"
        }
      ],
      "name": "removeRetailer",
      "outputs": [],
      "stateMutability": "nonpayable",
      "type": "function"
    },
    {
      "inputs": [
        {
          "internalType": "bytes32",
          "name": "role",
          "type": "bytes32"
        },
        {
          "internalType": "address",
          "name": "callerConfirmation",
          "type": "address"
        }
      ],
      "name": "renounceRole",
      "outputs": [],
      "stateMutability": "nonpayable",
      "type": "function"
    },
    {
      "inputs": [
        {
          "internalType": "bytes32",
          "name": "_batchId",
          "type": "bytes32"
        },
        {
          "internalType": "string",
          "name": "reason",
          "type": "string"
        }
      ],
      "name": "requestReturn",
      "outputs": [],
      "stateMutability": "nonpayable",
      "type": "function"
    },
    {
      "inputs": [
        {
          "internalType": "bytes32",
          "name": "",
          "type": "bytes32"
        }
      ],
      "name": "returnRequests",
      "outputs": [
        {
          "internalType": "bytes32",
          "name": "batchId",
          "type": "bytes32"
        },
        {
          "internalType": "uint256",
          "name": "timestamp",
          "type": "uint256"
        },
        {
          "internalType": "address",
          "name": "requester",
          "type": "address"
        },
        {
          "internalType": "bool",
          "name": "refunded",
          "type": "bool"
        },
        {
          "internalType": "bool",
          "name": "approved",
          "type": "bool"
        },
        {
          "internalType": "string",
          "name": "reason",
          "type": "string"
        }
      ],
      "stateMutability": "view",
      "type": "function"
    },
    {
      "inputs": [
        {
          "internalType": "bytes32",
          "name": "role",
          "type": "bytes32"
        },
        {
          "internalType": "address",
          "name": "account",
          "type": "address"
        }
      ],
      "name": "revokeRole",
      "outputs": [],
      "stateMutability": "nonpayable",
      "type": "function"
    },
    {
      "inputs": [
        {
          "internalType": "bytes4",
          "name": "interfaceId",
          "type": "bytes4"
        }
      ],
      "name": "supportsInterface",
      "outputs": [
        {
          "internalType": "bool",
          "name": "",
          "type": "bool"
        }
      ],
      "stateMutability": "view",
      "type": "function"
    },
    {
      "inputs": [
        {
          "internalType": "address",
          "name": "account",
          "type": "address"
        }
      ],
      "name": "unfreezeAddress",
      "outputs": [],
      "stateMutability": "nonpayable",
      "type": "function"
    },
    {
      "inputs": [],
      "name": "withdraw",
      "outputs": [],
      "stateMutability": "nonpayable",
      "type": "function"
    }
  ],
  "bytecode": "0x608060405234801561001057600080fd5b50604051614a55380380614a558339818101604052810190610032919061032a565b8282826100486000801b3361015860201b60201c565b5033600a60006101000a81548173ffffffffffffffffffffffffffffffffffffffff021916908373ffffffffffffffffffffffffffffffffffffffff16021790555081600860006101000a81548173ffffffffffffffffffffffffffffffffffffffff021916908373ffffffffffffffffffffffffffffffffffffffff16021790555082600760006101000a81548173ffffffffffffffffffffffffffffffffffffffff021916908373ffffffffffffffffffffffffffffffffffffffff16021790555080600960006101000a81548173ffffffffffffffffffffffffffffffffffffffff021916908373ffffffffffffffffffffffffffffffffffffffff16021790555050505050505061037d565b600061016a838361025560201b60201c565b61024a57600160008085815260200190815260200160002060000160008473ffffffffffffffffffffffffffffffffffffffff1673ffffffffffffffffffffffffffffffffffffffff16815260200190815260200160002060006101000a81548160ff0219169083151502179055506101e76102bf60201b60201c565b73ffffffffffffffffffffffffffffffffffffffff168273ffffffffffffffffffffffffffffffffffffffff16847f2f8788117e7eff1d82e926ec794901d17c78024a50270940304540a733656f0d60405160405180910390a46001905061024f565b600090505b92915050565b600080600084815260200190815260200160002060000160008373ffffffffffffffffffffffffffffffffffffffff1673ffffffffffffffffffffffffffffffffffffffff16815260200190815260200160002060009054906101000a900460ff16905092915050565b600033905090565b600080fd5b600073ffffffffffffffffffffffffffffffffffffffff82169050919050565b60006102f7826102cc565b9050919050565b610307816102ec565b811461031257600080fd5b50565b600081519050610324816102fe565b92915050565b600080600060608486031215610343576103426102c7565b5b600061035186828701610315565b935050602061036286828701610315565b925050604061037386828701610315565b9150509250925092565b6146c98061038c6000396000f3fe608060405234801561001057600080fd5b50600436106101fb5760003560e01c80638da5cb5b1161011a5780639fb65529116100ad578063d547741f1161007c578063d547741f146105ab578063e42a96e7146105c7578063e5839836146105e5578063edec7fde14610615578063f0bd87cc14610631576101fb565b80639fb655291461051e578063a217fddf14610553578063bfb8054714610571578063c1c460a61461058d576101fb565b8063965288b0116100e9578063965288b01461048d57806399fd9cfb146104ab5780639de7c3b7146104c75780639e42ff9014610500576101fb565b80638da5cb5b146104075780638ec4f5051461042557806391d148541461044157806395587d0314610471576101fb565b80633c652a9a116101925780636a0f9f70116101615780636a0f9f70146103835780636a75323f146103b357806370099ec8146103cf5780637250e224146103eb576101fb565b80633c652a9a1461030c5780633ccfd60b1461034157806357c1f9e21461034b5780635f8a5afa14610367576101fb565b80632f2ff15d116101ce5780632f2ff15d1461029c5780633175a5e8146102b857806336568abe146102d457806337fd8ee4146102f0576101fb565b806301ffc9a71461020057806306f13056146102305780632115e7bf1461024e578063248a9ca31461026c575b600080fd5b61021a60048036038101906102159190613118565b61064f565b6040516102279190613160565b60405180910390f35b6102386106c9565b6040516102459190613194565b60405180910390f35b6102566106cf565b60405161026391906131c8565b60405180910390f35b6102866004803603810190610281919061320f565b6106f3565b60405161029391906131c8565b60405180910390f35b6102b660048036038101906102b1919061329a565b610712565b005b6102d260048036038101906102cd9190613420565b610734565b005b6102ee60048036038101906102e9919061329a565b610b4b565b005b61030a6004803603810190610305919061320f565b610bc6565b005b610326600480360381019061032191906134a8565b610f77565b60405161033896959493929190613563565b60405180910390f35b610349611085565b005b610365600480360381019061036091906135cb565b6111b8565b005b610381600480360381019061037c91906135cb565b6111f3565b005b61039d600480360381019061039891906135cb565b6113e3565b6040516103aa9190613194565b60405180910390f35b6103cd60048036038101906103c891906135cb565b6113fb565b005b6103e960048036038101906103e491906135cb565b611436565b005b610405600480360381019061040091906135cb565b611471565b005b61040f611661565b60405161041c91906135f8565b60405180910390f35b61043f600480360381019061043a91906135cb565b611687565b005b61045b6004803603810190610456919061329a565b611877565b6040516104689190613160565b60405180910390f35b61048b6004803603810190610486919061320f565b6118e1565b005b610495611bb2565b6040516104a291906131c8565b60405180910390f35b6104c560048036038101906104c091906135cb565b611bd6565b005b6104e160048036038101906104dc919061320f565b611d65565b6040516104f79a9998979695949392919061368a565b60405180910390f35b610508611e46565b6040516105159190613785565b60405180910390f35b6105386004803603810190610533919061320f565b611e6c565b60405161054a96959493929190613563565b60405180910390f35b61055b611f6a565b60405161056891906131c8565b60405180910390f35b61058b600480360381019061058691906135cb565b611f71565b005b610595612080565b6040516105a291906137c1565b60405180910390f35b6105c560048036038101906105c0919061329a565b6120a6565b005b6105cf6120c8565b6040516105dc91906137fd565b60405180910390f35b6105ff60048036038101906105fa91906135cb565b6120ee565b60405161060c9190613160565b60405180910390f35b61062f600480360381019061062a919061320f565b61210e565b005b6106396124bf565b60405161064691906131c8565b60405180910390f35b60007f7965db0b000000000000000000000000000000000000000000000000000000007bffffffffffffffffffffffffffffffffffffffffffffffffffffffff1916827bffffffffffffffffffffffffffffffffffffffffffffffffffffffff191614806106c257506106c1826124e3565b5b9050919050565b60065481565b7f2a5f906c256a5d799494fcd066e1f6c077689de1cdb65052a1624de4bace99bf81565b6000806000838152602001908152602001600020600101549050919050565b61071b826106f3565b6107248161254d565b61072e8383612561565b50505050565b600160003373ffffffffffffffffffffffffffffffffffffffff1673ffffffffffffffffffffffffffffffffffffffff16815260200190815260200160002060009054906101000a900460ff16156107c1576040517f08c379a00000000000000000000000000000000000000000000000000000000081526004016107b890613864565b60405180910390fd5b6107cb8282612652565b6040518060c001604052808381526020014281526020013373ffffffffffffffffffffffffffffffffffffffff1681526020016000151581526020016000151581526020018281525060046000848152602001908152602001600020600082015181600001556020820151816001015560408201518160020160006101000a81548173ffffffffffffffffffffffffffffffffffffffff021916908373ffffffffffffffffffffffffffffffffffffffff16021790555060608201518160020160146101000a81548160ff02191690831515021790555060808201518160020160156101000a81548160ff02191690831515021790555060a08201518160030190816108d79190613a86565b50905050600560046000848152602001908152602001600020908060018154018082558091505060019003906000526020600020906004020160009091909190915060008201548160000155600182015481600101556002820160009054906101000a900473ffffffffffffffffffffffffffffffffffffffff168160020160006101000a81548173ffffffffffffffffffffffffffffffffffffffff021916908373ffffffffffffffffffffffffffffffffffffffff1602179055506002820160149054906101000a900460ff168160020160146101000a81548160ff0219169083151502179055506002820160159054906101000a900460ff168160020160156101000a81548160ff02191690831515021790555060038201816003019081610a029190613b6e565b5050506003600083815260200190815260200160002060030160009054906101000a900473ffffffffffffffffffffffffffffffffffffffff1673ffffffffffffffffffffffffffffffffffffffff163373ffffffffffffffffffffffffffffffffffffffff1603610ab25760046003600084815260200190815260200160002060080160006101000a81548160ff02191690836008811115610aa857610aa7613613565b5b0217905550610af2565b60056003600084815260200190815260200160002060080160006101000a81548160ff02191690836008811115610aec57610aeb613613565b5b02179055505b3373ffffffffffffffffffffffffffffffffffffffff1642837fc06a34dcf81b54b1e49726bec391ac7b6c2af22a7e3b3594d60445f3a9c68cbe60008086604051610b3f93929190613c56565b60405180910390a45050565b610b53612855565b73ffffffffffffffffffffffffffffffffffffffff168173ffffffffffffffffffffffffffffffffffffffff1614610bb7576040517f6697b23200000000000000000000000000000000000000000000000000000000815260040160405180910390fd5b610bc1828261285d565b505050565b600160003373ffffffffffffffffffffffffffffffffffffffff1673ffffffffffffffffffffffffffffffffffffffff16815260200190815260200160002060009054906101000a900460ff1615610c53576040517f08c379a0000000000000000000000000000000000000000000000000000000008152600401610c4a90613864565b60405180910390fd5b600960009054906101000a900473ffffffffffffffffffffffffffffffffffffffff1673ffffffffffffffffffffffffffffffffffffffff166391d148547feefb95e842a3287179d933b4460be539a1d5af11aa8b325bb45c5c8dc92de4ed336040518363ffffffff1660e01b8152600401610cd0929190613c94565b602060405180830381865afa158015610ced573d6000803e3d6000fd5b505050506040513d601f19601f82011682018060405250810190610d119190613ce9565b610d50576040517f08c379a0000000000000000000000000000000000000000000000000000000008152600401610d4790613d62565b60405180910390fd5b610d598161294f565b60006004600083815260200190815260200160002060020160009054906101000a900473ffffffffffffffffffffffffffffffffffffffff1690506003600083815260200190815260200160002060020160009054906101000a900473ffffffffffffffffffffffffffffffffffffffff1673ffffffffffffffffffffffffffffffffffffffff168173ffffffffffffffffffffffffffffffffffffffff1603610ed05760016004600084815260200190815260200160002060020160156101000a81548160ff021916908315150217905550610e368282612b26565b60006003600084815260200190815260200160002060020160006101000a81548173ffffffffffffffffffffffffffffffffffffffff021916908373ffffffffffffffffffffffffffffffffffffffff16021790555060076003600084815260200190815260200160002060080160006101000a81548160ff02191690836008811115610ec657610ec5613613565b5b0217905550610f0b565b6040517f08c379a0000000000000000000000000000000000000000000000000000000008152600401610f0290613df4565b60405180910390fd5b428173ffffffffffffffffffffffffffffffffffffffff16837f19766b5afd8e309c7c73edf73647cd312ca6979822a5397524d466148653d36a600160046000888152602001908152602001600020600301604051610f6b929190613e98565b60405180910390a45050565b60058181548110610f8757600080fd5b90600052602060002090600402016000915090508060000154908060010154908060020160009054906101000a900473ffffffffffffffffffffffffffffffffffffffff16908060020160149054906101000a900460ff16908060020160159054906101000a900460ff1690806003018054611002906138b3565b80601f016020809104026020016040519081016040528092919081815260200182805461102e906138b3565b801561107b5780601f106110505761010080835404028352916020019161107b565b820191906000526020600020905b81548152906001019060200180831161105e57829003601f168201915b5050505050905086565b600960009054906101000a900473ffffffffffffffffffffffffffffffffffffffff1673ffffffffffffffffffffffffffffffffffffffff166391d148546000801b336040518363ffffffff1660e01b81526004016110e5929190613c94565b602060405180830381865afa158015611102573d6000803e3d6000fd5b505050506040513d601f19601f820116820180604052508101906111269190613ce9565b50600860009054906101000a900473ffffffffffffffffffffffffffffffffffffffff1673ffffffffffffffffffffffffffffffffffffffff16630357371d33476040518363ffffffff1660e01b8152600401611184929190613ec8565b600060405180830381600087803b15801561119e57600080fd5b505af11580156111b2573d6000803e3d6000fd5b50505050565b6000801b6111c58161254d565b6111ef7ffbd454f36a7e1a388bd6fc3ab10d434aa4578f811acbbcf33afb1c697486313c836120a6565b5050565b6000801b6112008161254d565b8161122b7feefb95e842a3287179d933b4460be539a1d5af11aa8b325bb45c5c8dc92de4ed82611877565b1561126d57806040517f375795b90000000000000000000000000000000000000000000000000000000081526004016112649190613f3d565b60405180910390fd5b6112977f2a5f906c256a5d799494fcd066e1f6c077689de1cdb65052a1624de4bace99bf82611877565b156112d957806040517f375795b90000000000000000000000000000000000000000000000000000000081526004016112d09190613fb7565b60405180910390fd5b6113037ffbd454f36a7e1a388bd6fc3ab10d434aa4578f811acbbcf33afb1c697486313c82611877565b1561134557806040517f375795b900000000000000000000000000000000000000000000000000000000815260040161133c9190614031565b60405180910390fd5b600073ffffffffffffffffffffffffffffffffffffffff168173ffffffffffffffffffffffffffffffffffffffff16036113b4576040517f08c379a00000000000000000000000000000000000000000000000000000000081526004016113ab90613864565b60405180910390fd5b6113de7feefb95e842a3287179d933b4460be539a1d5af11aa8b325bb45c5c8dc92de4ed84610712565b505050565b60026020528060005260406000206000915090505481565b6000801b6114088161254d565b6114327feefb95e842a3287179d933b4460be539a1d5af11aa8b325bb45c5c8dc92de4ed836120a6565b5050565b6000801b6114438161254d565b61146d7f2a5f906c256a5d799494fcd066e1f6c077689de1cdb65052a1624de4bace99bf836120a6565b5050565b6000801b61147e8161254d565b816114a97feefb95e842a3287179d933b4460be539a1d5af11aa8b325bb45c5c8dc92de4ed82611877565b156114eb57806040517f375795b90000000000000000000000000000000000000000000000000000000081526004016114e29190613f3d565b60405180910390fd5b6115157f2a5f906c256a5d799494fcd066e1f6c077689de1cdb65052a1624de4bace99bf82611877565b1561155757806040517f375795b900000000000000000000000000000000000000000000000000000000815260040161154e9190613fb7565b60405180910390fd5b6115817ffbd454f36a7e1a388bd6fc3ab10d434aa4578f811acbbcf33afb1c697486313c82611877565b156115c357806040517f375795b90000000000000000000000000000000000000000000000000000000081526004016115ba9190614031565b60405180910390fd5b600073ffffffffffffffffffffffffffffffffffffffff168173ffffffffffffffffffffffffffffffffffffffff1603611632576040517f08c379a000000000000000000000000000000000000000000000000000000000815260040161162990613864565b60405180910390fd5b61165c7ffbd454f36a7e1a388bd6fc3ab10d434aa4578f811acbbcf33afb1c697486313c84610712565b505050565b600a60009054906101000a900473ffffffffffffffffffffffffffffffffffffffff1681565b6000801b6116948161254d565b816116bf7feefb95e842a3287179d933b4460be539a1d5af11aa8b325bb45c5c8dc92de4ed82611877565b1561170157806040517f375795b90000000000000000000000000000000000000000000000000000000081526004016116f89190613f3d565b60405180910390fd5b61172b7f2a5f906c256a5d799494fcd066e1f6c077689de1cdb65052a1624de4bace99bf82611877565b1561176d57806040517f375795b90000000000000000000000000000000000000000000000000000000081526004016117649190613fb7565b60405180910390fd5b6117977ffbd454f36a7e1a388bd6fc3ab10d434aa4578f811acbbcf33afb1c697486313c82611877565b156117d957806040517f375795b90000000000000000000000000000000000000000000000000000000081526004016117d09190614031565b60405180910390fd5b600073ffffffffffffffffffffffffffffffffffffffff168173ffffffffffffffffffffffffffffffffffffffff1603611848576040517f08c379a000000000000000000000000000000000000000000000000000000000815260040161183f90613864565b60405180910390fd5b6118727f2a5f906c256a5d799494fcd066e1f6c077689de1cdb65052a1624de4bace99bf84610712565b505050565b600080600084815260200190815260200160002060000160008373ffffffffffffffffffffffffffffffffffffffff1673ffffffffffffffffffffffffffffffffffffffff16815260200190815260200160002060009054906101000a900460ff16905092915050565b6118ea8161294f565b60006004600083815260200190815260200160002060020160009054906101000a900473ffffffffffffffffffffffffffffffffffffffff1690506003600083815260200190815260200160002060030160009054906101000a900473ffffffffffffffffffffffffffffffffffffffff1673ffffffffffffffffffffffffffffffffffffffff168173ffffffffffffffffffffffffffffffffffffffff161480156119bc57506119bb7ffbd454f36a7e1a388bd6fc3ab10d434aa4578f811acbbcf33afb1c697486313c33611877565b5b15611a0457600380600084815260200190815260200160002060080160006101000a81548160ff021916908360088111156119fa576119f9613613565b5b0217905550611b20565b6003600083815260200190815260200160002060020160009054906101000a900473ffffffffffffffffffffffffffffffffffffffff1673ffffffffffffffffffffffffffffffffffffffff168173ffffffffffffffffffffffffffffffffffffffff16148015611a9b5750611a9a7feefb95e842a3287179d933b4460be539a1d5af11aa8b325bb45c5c8dc92de4ed33611877565b5b15611ae45760016003600084815260200190815260200160002060080160006101000a81548160ff02191690836008811115611ada57611ad9613613565b5b0217905550611b1f565b6040517f08c379a0000000000000000000000000000000000000000000000000000000008152600401611b16906140d1565b60405180910390fd5b5b611b2982612dba565b6004600083815260200190815260200160002060008082016000905560018201600090556002820160006101000a81549073ffffffffffffffffffffffffffffffffffffffff02191690556002820160146101000a81549060ff02191690556002820160156101000a81549060ff0219169055600382016000611bac919061304f565b50505050565b7feefb95e842a3287179d933b4460be539a1d5af11aa8b325bb45c5c8dc92de4ed81565b6000801b611be38161254d565b600073ffffffffffffffffffffffffffffffffffffffff168273ffffffffffffffffffffffffffffffffffffffff1603611c52576040517f08c379a0000000000000000000000000000000000000000000000000000000008152600401611c499061413d565b60405180910390fd5b60018060008473ffffffffffffffffffffffffffffffffffffffff1673ffffffffffffffffffffffffffffffffffffffff16815260200190815260200160002060006101000a81548160ff021916908315150217905550611cd37feefb95e842a3287179d933b4460be539a1d5af11aa8b325bb45c5c8dc92de4ed8361285d565b50611cfe7ffbd454f36a7e1a388bd6fc3ab10d434aa4578f811acbbcf33afb1c697486313c8361285d565b50611d297f2a5f906c256a5d799494fcd066e1f6c077689de1cdb65052a1624de4bace99bf8361285d565b507f90811a8edd3b3c17eeaefffc17f639cc69145d41a359c9843994dc253820369082604051611d5991906135f8565b60405180910390a15050565b60036020528060005260406000206000915090508060000154908060010160009054906101000a900473ffffffffffffffffffffffffffffffffffffffff16908060020160009054906101000a900473ffffffffffffffffffffffffffffffffffffffff16908060030160009054906101000a900473ffffffffffffffffffffffffffffffffffffffff16908060040154908060050154908060060154908060070154908060080160009054906101000a900460ff16908060080160019054906101000a900473ffffffffffffffffffffffffffffffffffffffff1690508a565b600760009054906101000a900473ffffffffffffffffffffffffffffffffffffffff1681565b60046020528060005260406000206000915090508060000154908060010154908060020160009054906101000a900473ffffffffffffffffffffffffffffffffffffffff16908060020160149054906101000a900460ff16908060020160159054906101000a900460ff1690806003018054611ee7906138b3565b80601f0160208091040260200160405190810160405280929190818152602001828054611f13906138b3565b8015611f605780601f10611f3557610100808354040283529160200191611f60565b820191906000526020600020905b815481529060010190602001808311611f4357829003601f168201915b5050505050905086565b6000801b81565b6000801b611f7e8161254d565b600073ffffffffffffffffffffffffffffffffffffffff168273ffffffffffffffffffffffffffffffffffffffff1603611fed576040517f08c379a0000000000000000000000000000000000000000000000000000000008152600401611fe4906141a9565b60405180910390fd5b6000600160008473ffffffffffffffffffffffffffffffffffffffff1673ffffffffffffffffffffffffffffffffffffffff16815260200190815260200160002060006101000a81548160ff0219169083151502179055507fc3776b472ebf54114339eec9e4dc924e7ce307a97f5c1ee72b6d474e6e5e8b7c8260405161207491906135f8565b60405180910390a15050565b600960009054906101000a900473ffffffffffffffffffffffffffffffffffffffff1681565b6120af826106f3565b6120b88161254d565b6120c2838361285d565b50505050565b600860009054906101000a900473ffffffffffffffffffffffffffffffffffffffff1681565b60016020528060005260406000206000915054906101000a900460ff1681565b600160003373ffffffffffffffffffffffffffffffffffffffff1673ffffffffffffffffffffffffffffffffffffffff16815260200190815260200160002060009054906101000a900460ff161561219b576040517f08c379a000000000000000000000000000000000000000000000000000000000815260040161219290613864565b60405180910390fd5b600960009054906101000a900473ffffffffffffffffffffffffffffffffffffffff1673ffffffffffffffffffffffffffffffffffffffff166391d148547ffbd454f36a7e1a388bd6fc3ab10d434aa4578f811acbbcf33afb1c697486313c336040518363ffffffff1660e01b8152600401612218929190613c94565b602060405180830381865afa158015612235573d6000803e3d6000fd5b505050506040513d601f19601f820116820180604052508101906122599190613ce9565b612298576040517f08c379a000000000000000000000000000000000000000000000000000000000815260040161228f90614215565b60405180910390fd5b6122a18161294f565b60006004600083815260200190815260200160002060020160009054906101000a900473ffffffffffffffffffffffffffffffffffffffff1690506003600083815260200190815260200160002060030160009054906101000a900473ffffffffffffffffffffffffffffffffffffffff1673ffffffffffffffffffffffffffffffffffffffff168173ffffffffffffffffffffffffffffffffffffffff16036124185760016004600084815260200190815260200160002060020160156101000a81548160ff02191690831515021790555061237e8282612b26565b60006003600084815260200190815260200160002060030160006101000a81548173ffffffffffffffffffffffffffffffffffffffff021916908373ffffffffffffffffffffffffffffffffffffffff16021790555060066003600084815260200190815260200160002060080160006101000a81548160ff0219169083600881111561240e5761240d613613565b5b0217905550612453565b6040517f08c379a000000000000000000000000000000000000000000000000000000000815260040161244a90613df4565b60405180910390fd5b428173ffffffffffffffffffffffffffffffffffffffff16837f19766b5afd8e309c7c73edf73647cd312ca6979822a5397524d466148653d36a6001600460008881526020019081526020016000206003016040516124b3929190613e98565b60405180910390a45050565b7ffbd454f36a7e1a388bd6fc3ab10d434aa4578f811acbbcf33afb1c697486313c81565b60007f01ffc9a7000000000000000000000000000000000000000000000000000000007bffffffffffffffffffffffffffffffffffffffffffffffffffffffff1916827bffffffffffffffffffffffffffffffffffffffffffffffffffffffff1916149050919050565b61255e81612559612855565b612ffe565b50565b600061256d8383611877565b61264757600160008085815260200190815260200160002060000160008473ffffffffffffffffffffffffffffffffffffffff1673ffffffffffffffffffffffffffffffffffffffff16815260200190815260200160002060006101000a81548160ff0219169083151502179055506125e4612855565b73ffffffffffffffffffffffffffffffffffffffff168273ffffffffffffffffffffffffffffffffffffffff16847f2f8788117e7eff1d82e926ec794901d17c78024a50270940304540a733656f0d60405160405180910390a46001905061264c565b600090505b92915050565b61010081511115612698576040517f08c379a000000000000000000000000000000000000000000000000000000000815260040161268f90614281565b60405180910390fd5b600073ffffffffffffffffffffffffffffffffffffffff166004600084815260200190815260200160002060020160009054906101000a900473ffffffffffffffffffffffffffffffffffffffff1673ffffffffffffffffffffffffffffffffffffffff161461273d576040517f08c379a000000000000000000000000000000000000000000000000000000000815260040161273490614313565b60405180910390fd5b6003600083815260200190815260200160002060030160009054906101000a900473ffffffffffffffffffffffffffffffffffffffff1673ffffffffffffffffffffffffffffffffffffffff163373ffffffffffffffffffffffffffffffffffffffff161415801561281157506003600083815260200190815260200160002060020160009054906101000a900473ffffffffffffffffffffffffffffffffffffffff1673ffffffffffffffffffffffffffffffffffffffff163373ffffffffffffffffffffffffffffffffffffffff1614155b15612851576040517f08c379a0000000000000000000000000000000000000000000000000000000008152600401612848906143a5565b60405180910390fd5b5050565b600033905090565b60006128698383611877565b1561294457600080600085815260200190815260200160002060000160008473ffffffffffffffffffffffffffffffffffffffff1673ffffffffffffffffffffffffffffffffffffffff16815260200190815260200160002060006101000a81548160ff0219169083151502179055506128e1612855565b73ffffffffffffffffffffffffffffffffffffffff168273ffffffffffffffffffffffffffffffffffffffff16847ff6391f5c32d9c69d2a47ea670b442974b53935d1edc7fd64eb21e047a839171b60405160405180910390a460019050612949565b600090505b92915050565b600073ffffffffffffffffffffffffffffffffffffffff166004600083815260200190815260200160002060020160009054906101000a900473ffffffffffffffffffffffffffffffffffffffff1673ffffffffffffffffffffffffffffffffffffffff16036129f4576040517f08c379a00000000000000000000000000000000000000000000000000000000081526004016129eb90614411565b60405180910390fd5b6004600082815260200190815260200160002060020160159054906101000a900460ff1615612a58576040517f08c379a0000000000000000000000000000000000000000000000000000000008152600401612a4f9061447d565b60405180910390fd5b6004600082815260200190815260200160002060020160149054906101000a900460ff1615612abc576040517f08c379a0000000000000000000000000000000000000000000000000000000008152600401612ab3906144e9565b60405180910390fd5b4262093a806004600084815260200190815260200160002060010154612ae29190614538565b1015612b23576040517f08c379a0000000000000000000000000000000000000000000000000000000008152600401612b1a906145b8565b60405180910390fd5b50565b600160003373ffffffffffffffffffffffffffffffffffffffff1673ffffffffffffffffffffffffffffffffffffffff16815260200190815260200160002060009054906101000a900460ff1615612bb3576040517f08c379a0000000000000000000000000000000000000000000000000000000008152600401612baa90613864565b60405180910390fd5b60016004600084815260200190815260200160002060020160146101000a81548160ff0219169083151502179055506003600083815260200190815260200160002060010160009054906101000a900473ffffffffffffffffffffffffffffffffffffffff169050600860009054906101000a900473ffffffffffffffffffffffffffffffffffffffff1673ffffffffffffffffffffffffffffffffffffffff16630357371d8260036000868152602001908152602001600020600601546040518363ffffffff1660e01b8152600401612c8e929190613ec8565b600060405180830381600087803b158015612ca857600080fd5b505af1158015612cbc573d6000803e3d6000fd5b50505050612cc982612dba565b6004600083815260200190815260200160002060008082016000905560018201600090556002820160006101000a81549073ffffffffffffffffffffffffffffffffffffffff02191690556002820160146101000a81549060ff02191690556002820160156101000a81549060ff0219169055600382016000612d4c919061304f565b5050428173ffffffffffffffffffffffffffffffffffffffff16837fd10aed24016cac91d014d03affaaa7a129ad8c910443f27a898f3d028caa5bfb600160046000888152602001908152602001600020600301604051612dae929190613e98565b60405180910390a45050565b60005b600580549050811015612ffa57600460008381526020019081526020016000206000015460058281548110612df557612df46145d8565b5b90600052602060002090600402016000015403612fed5760056001600580549050612e209190614607565b81548110612e3157612e306145d8565b5b906000526020600020906004020160058281548110612e5357612e526145d8565b5b906000526020600020906004020160008201548160000155600182015481600101556002820160009054906101000a900473ffffffffffffffffffffffffffffffffffffffff168160020160006101000a81548173ffffffffffffffffffffffffffffffffffffffff021916908373ffffffffffffffffffffffffffffffffffffffff1602179055506002820160149054906101000a900460ff168160020160146101000a81548160ff0219169083151502179055506002820160159054906101000a900460ff168160020160156101000a81548160ff02191690831515021790555060038201816003019081612f4a9190613b6e565b509050506005805480612f6057612f5f61463b565b5b600190038181906000526020600020906004020160008082016000905560018201600090556002820160006101000a81549073ffffffffffffffffffffffffffffffffffffffff02191690556002820160146101000a81549060ff02191690556002820160156101000a81549060ff0219169055600382016000612fe4919061304f565b50509055612ffa565b8080600101915050612dbd565b5050565b6130088282611877565b61304b5780826040517fe2517d3f00000000000000000000000000000000000000000000000000000000815260040161304292919061466a565b60405180910390fd5b5050565b50805461305b906138b3565b6000825580601f1061306d575061308c565b601f01602090049060005260206000209081019061308b919061308f565b5b50565b5b808211156130a8576000816000905550600101613090565b5090565b6000604051905090565b600080fd5b600080fd5b60007fffffffff0000000000000000000000000000000000000000000000000000000082169050919050565b6130f5816130c0565b811461310057600080fd5b50565b600081359050613112816130ec565b92915050565b60006020828403121561312e5761312d6130b6565b5b600061313c84828501613103565b91505092915050565b60008115159050919050565b61315a81613145565b82525050565b60006020820190506131756000830184613151565b92915050565b6000819050919050565b61318e8161317b565b82525050565b60006020820190506131a96000830184613185565b92915050565b6000819050919050565b6131c2816131af565b82525050565b60006020820190506131dd60008301846131b9565b92915050565b6131ec816131af565b81146131f757600080fd5b50565b600081359050613209816131e3565b92915050565b600060208284031215613225576132246130b6565b5b6000613233848285016131fa565b91505092915050565b600073ffffffffffffffffffffffffffffffffffffffff82169050919050565b60006132678261323c565b9050919050565b6132778161325c565b811461328257600080fd5b50565b6000813590506132948161326e565b92915050565b600080604083850312156132b1576132b06130b6565b5b60006132bf858286016131fa565b92505060206132d085828601613285565b9150509250929050565b600080fd5b600080fd5b6000601f19601f8301169050919050565b7f4e487b7100000000000000000000000000000000000000000000000000000000600052604160045260246000fd5b61332d826132e4565b810181811067ffffffffffffffff8211171561334c5761334b6132f5565b5b80604052505050565b600061335f6130ac565b905061336b8282613324565b919050565b600067ffffffffffffffff82111561338b5761338a6132f5565b5b613394826132e4565b9050602081019050919050565b82818337600083830152505050565b60006133c36133be84613370565b613355565b9050828152602081018484840111156133df576133de6132df565b5b6133ea8482856133a1565b509392505050565b600082601f830112613407576134066132da565b5b81356134178482602086016133b0565b91505092915050565b60008060408385031215613437576134366130b6565b5b6000613445858286016131fa565b925050602083013567ffffffffffffffff811115613466576134656130bb565b5b613472858286016133f2565b9150509250929050565b6134858161317b565b811461349057600080fd5b50565b6000813590506134a28161347c565b92915050565b6000602082840312156134be576134bd6130b6565b5b60006134cc84828501613493565b91505092915050565b6134de8161325c565b82525050565b600081519050919050565b600082825260208201905092915050565b60005b8381101561351e578082015181840152602081019050613503565b60008484015250505050565b6000613535826134e4565b61353f81856134ef565b935061354f818560208601613500565b613558816132e4565b840191505092915050565b600060c08201905061357860008301896131b9565b6135856020830188613185565b61359260408301876134d5565b61359f6060830186613151565b6135ac6080830185613151565b81810360a08301526135be818461352a565b9050979650505050505050565b6000602082840312156135e1576135e06130b6565b5b60006135ef84828501613285565b91505092915050565b600060208201905061360d60008301846134d5565b92915050565b7f4e487b7100000000000000000000000000000000000000000000000000000000600052602160045260246000fd5b6009811061365357613652613613565b5b50565b600081905061366482613642565b919050565b600061367482613656565b9050919050565b61368481613669565b82525050565b6000610140820190506136a0600083018d6131b9565b6136ad602083018c6134d5565b6136ba604083018b6134d5565b6136c7606083018a6134d5565b6136d46080830189613185565b6136e160a0830188613185565b6136ee60c0830187613185565b6136fb60e0830186613185565b61370961010083018561367b565b6137176101208301846134d5565b9b9a5050505050505050505050565b6000819050919050565b600061374b6137466137418461323c565b613726565b61323c565b9050919050565b600061375d82613730565b9050919050565b600061376f82613752565b9050919050565b61377f81613764565b82525050565b600060208201905061379a6000830184613776565b92915050565b60006137ab82613752565b9050919050565b6137bb816137a0565b82525050565b60006020820190506137d660008301846137b2565b92915050565b60006137e782613752565b9050919050565b6137f7816137dc565b82525050565b600060208201905061381260008301846137ee565b92915050565b7f4164647265737320496e76616c69640000000000000000000000000000000000600082015250565b600061384e600f836134ef565b915061385982613818565b602082019050919050565b6000602082019050818103600083015261387d81613841565b9050919050565b7f4e487b7100000000000000000000000000000000000000000000000000000000600052602260045260246000fd5b600060028204905060018216806138cb57607f821691505b6020821081036138de576138dd613884565b5b50919050565b60008190508160005260206000209050919050565b60006020601f8301049050919050565b600082821b905092915050565b6000600883026139467fffffffffffffffffffffffffffffffffffffffffffffffffffffffffffffffff82613909565b6139508683613909565b95508019841693508086168417925050509392505050565b600061398361397e6139798461317b565b613726565b61317b565b9050919050565b6000819050919050565b61399d83613968565b6139b16139a98261398a565b848454613916565b825550505050565b600090565b6139c66139b9565b6139d1818484613994565b505050565b5b818110156139f5576139ea6000826139be565b6001810190506139d7565b5050565b601f821115613a3a57613a0b816138e4565b613a14846138f9565b81016020851015613a23578190505b613a37613a2f856138f9565b8301826139d6565b50505b505050565b600082821c905092915050565b6000613a5d60001984600802613a3f565b1980831691505092915050565b6000613a768383613a4c565b9150826002028217905092915050565b613a8f826134e4565b67ffffffffffffffff811115613aa857613aa76132f5565b5b613ab282546138b3565b613abd8282856139f9565b600060209050601f831160018114613af05760008415613ade578287015190505b613ae88582613a6a565b865550613b50565b601f198416613afe866138e4565b60005b82811015613b2657848901518255600182019150602085019450602081019050613b01565b86831015613b435784890151613b3f601f891682613a4c565b8355505b6001600288020188555050505b505050505050565b600081549050613b67816138b3565b9050919050565b818103613b7c575050613c54565b613b8582613b58565b67ffffffffffffffff811115613b9e57613b9d6132f5565b5b613ba882546138b3565b613bb38282856139f9565b6000601f831160018114613be25760008415613bd0578287015490505b613bda8582613a6a565b865550613c4d565b601f198416613bf0876138e4565b9650613bfb866138e4565b60005b82811015613c2357848901548255600182019150600185019450602081019050613bfe565b86831015613c405784890154613c3c601f891682613a4c565b8355505b6001600288020188555050505b5050505050505b565b6000606082019050613c6b6000830186613151565b613c786020830185613151565b8181036040830152613c8a818461352a565b9050949350505050565b6000604082019050613ca960008301856131b9565b613cb660208301846134d5565b9392505050565b613cc681613145565b8114613cd157600080fd5b50565b600081519050613ce381613cbd565b92915050565b600060208284031215613cff57613cfe6130b6565b5b6000613d0d84828501613cd4565b91505092915050565b7f497473206e6f74204d616e756661637475726572000000000000000000000000600082015250565b6000613d4c6014836134ef565b9150613d5782613d16565b602082019050919050565b60006020820190508181036000830152613d7b81613d3f565b9050919050565b7f556e617574686f72697a65642063616c6c657220666f7220617070726f76696e60008201527f6720746869732072657475726e00000000000000000000000000000000000000602082015250565b6000613dde602d836134ef565b9150613de982613d82565b604082019050919050565b60006020820190508181036000830152613e0d81613dd1565b9050919050565b60008154613e21816138b3565b613e2b81866134ef565b94506001821660008114613e465760018114613e5c57613e8f565b60ff198316865281151560200286019350613e8f565b613e65856138e4565b60005b83811015613e8757815481890152600182019150602081019050613e68565b808801955050505b50505092915050565b6000604082019050613ead6000830185613151565b8181036020830152613ebf8184613e14565b90509392505050565b6000604082019050613edd60008301856134d5565b613eea6020830184613185565b9392505050565b7f4d616e7566616374757265720000000000000000000000000000000000000000600082015250565b6000613f27600c836134ef565b9150613f3282613ef1565b602082019050919050565b60006040820190508181036000830152613f5681613f1a565b9050613f6560208301846134d5565b92915050565b7f52657461696c6572000000000000000000000000000000000000000000000000600082015250565b6000613fa16008836134ef565b9150613fac82613f6b565b602082019050919050565b60006040820190508181036000830152613fd081613f94565b9050613fdf60208301846134d5565b92915050565b7f4469737472696275746f72000000000000000000000000000000000000000000600082015250565b600061401b600b836134ef565b915061402682613fe5565b602082019050919050565b6000604082019050818103600083015261404a8161400e565b905061405960208301846134d5565b92915050565b7f556e617574686f72697a656420746f2072656a6563742074686973207265717560008201527f6573740000000000000000000000000000000000000000000000000000000000602082015250565b60006140bb6023836134ef565b91506140c68261405f565b604082019050919050565b600060208201905081810360008301526140ea816140ae565b9050919050565b7f43616e6e6f7420667265657a6520746865207a65726f20616464726573730000600082015250565b6000614127601e836134ef565b9150614132826140f1565b602082019050919050565b600060208201905081810360008301526141568161411a565b9050919050565b7f43616e6e6f7420756e667265657a6520746865207a65726f2061646472657373600082015250565b60006141936020836134ef565b915061419e8261415d565b602082019050919050565b600060208201905081810360008301526141c281614186565b9050919050565b7f497473206e6f74204469737472696275746f7200000000000000000000000000600082015250565b60006141ff6013836134ef565b915061420a826141c9565b602082019050919050565b6000602082019050818103600083015261422e816141f2565b9050919050565b7f526561736f6e20746f6f206c6f6e670000000000000000000000000000000000600082015250565b600061426b600f836134ef565b915061427682614235565b602082019050919050565b6000602082019050818103600083015261429a8161425e565b9050919050565b7f52657475726e207265717565737420666f72207468697320626174636820616c60008201527f7265616479206578697374730000000000000000000000000000000000000000602082015250565b60006142fd602c836134ef565b9150614308826142a1565b604082019050919050565b6000602082019050818103600083015261432c816142f0565b9050919050565b7f596f7520617265206e6f7420746865206f776e6572206f66207468697320626160008201527f7463680000000000000000000000000000000000000000000000000000000000602082015250565b600061438f6023836134ef565b915061439a82614333565b604082019050919050565b600060208201905081810360008301526143be81614382565b9050919050565b7f4e6f2072657475726e207265717565737420666f756e64000000000000000000600082015250565b60006143fb6017836134ef565b9150614406826143c5565b602082019050919050565b6000602082019050818103600083015261442a816143ee565b9050919050565b7f5265717565737420616c726561647920617070726f7665640000000000000000600082015250565b60006144676018836134ef565b915061447282614431565b602082019050919050565b600060208201905081810360008301526144968161445a565b9050919050565b7f5265717565737420616c726561647920726566756e6465640000000000000000600082015250565b60006144d36018836134ef565b91506144de8261449d565b602082019050919050565b60006020820190508181036000830152614502816144c6565b9050919050565b7f4e487b7100000000000000000000000000000000000000000000000000000000600052601160045260246000fd5b60006145438261317b565b915061454e8361317b565b925082820190508082111561456657614565614509565b5b92915050565b7f5265717565737420686173206578706972656400000000000000000000000000600082015250565b60006145a26013836134ef565b91506145ad8261456c565b602082019050919050565b600060208201905081810360008301526145d181614595565b9050919050565b7f4e487b7100000000000000000000000000000000000000000000000000000000600052603260045260246000fd5b60006146128261317b565b915061461d8361317b565b925082820390508181111561463557614634614509565b5b92915050565b7f4e487b7100000000000000000000000000000000000000000000000000000000600052603160045260246000fd5b600060408201905061467f60008301856134d5565b61468c60208301846131b9565b939250505056fea2646970667358221220d2fe3f6850ae9d6110ae9f754eb4d468c4c08dd491c22b83ec829a13e2132c3064736f6c634300081c0033",
  "linkReferences": {},
  "deployedLinkReferences": {}
}