{
  "_format": "hh-sol-artifact-1",
  "contractName": "HandlingRequests",
  "sourceName": "contracts/HandlingRequests.sol",
  "abi": [
    {
      "inputs": [
        {
          "internalType": "address",
          "name": "priceFeedAddress",
          "type": "address"
        },
        {
          "internalType": "address",
          "name": "escrowAddress",
          "type": "address"
        },
        {
          "internalType": "address",
          "name": "handlingAddresses",
          "type": "address"
        }
      ],
      "stateMutability": "nonpayable",
      "type": "constructor"
    },
    {
      "inputs": [],
      "name": "AccessControlBadConfirmation",
      "type": "error"
    },
    {
      "inputs": [
        {
          "internalType": "address",
          "name": "account",
          "type": "address"
        },
        {
          "internalType": "bytes32",
          "name": "neededRole",
          "type": "bytes32"
        }
      ],
      "name": "AccessControlUnauthorizedAccount",
      "type": "error"
    },
    {
      "inputs": [
        {
          "internalType": "string",
          "name": "role",
          "type": "string"
        },
        {
          "internalType": "address",
          "name": "account",
          "type": "address"
        }
      ],
      "name": "AddressAlreadyExists",
      "type": "error"
    },
    {
      "inputs": [
        {
          "internalType": "address",
          "name": "account",
          "type": "address"
        }
      ],
      "name": "AddressInvalid",
      "type": "error"
    },
    {
      "inputs": [
        {
          "internalType": "uint256",
          "name": "_usdAmount",
          "type": "uint256"
        }
      ],
      "name": "InvalidAmount",
      "type": "error"
    },
    {
      "anonymous": false,
      "inputs": [
        {
          "indexed": false,
          "internalType": "address",
          "name": "account",
          "type": "address"
        }
      ],
      "name": "AddressFrozen",
      "type": "event"
    },
    {
      "anonymous": false,
      "inputs": [
        {
          "indexed": false,
          "internalType": "address",
          "name": "account",
          "type": "address"
        }
      ],
      "name": "AddressUnfrozen",
      "type": "event"
    },
    {
      "anonymous": false,
      "inputs": [
        {
          "indexed": true,
          "internalType": "bytes32",
          "name": "batchId",
          "type": "bytes32"
        },
        {
          "indexed": false,
          "internalType": "uint256",
          "name": "timestamp",
          "type": "uint256"
        }
      ],
      "name": "BatchCreated",
      "type": "event"
    },
    {
      "anonymous": false,
      "inputs": [
        {
          "indexed": true,
          "internalType": "bytes32",
          "name": "batchId",
          "type": "bytes32"
        },
        {
          "indexed": false,
          "internalType": "address",
          "name": "distributor",
          "type": "address"
        },
        {
          "indexed": false,
          "internalType": "enum DrugSupplyChain.BatchStatus",
          "name": "statusEnum",
          "type": "uint8"
        },
        {
          "indexed": false,
          "internalType": "uint256",
          "name": "price",
          "type": "uint256"
        },
        {
          "indexed": false,
          "internalType": "uint256",
          "name": "timestamp",
          "type": "uint256"
        }
      ],
      "name": "DistributerPurchased",
      "type": "event"
    },
    {
      "anonymous": false,
      "inputs": [
        {
          "indexed": true,
          "internalType": "bytes32",
          "name": "batchId",
          "type": "bytes32"
        },
        {
          "indexed": false,
          "internalType": "enum DrugSupplyChain.BatchStatus",
          "name": "statusEnum",
          "type": "uint8"
        },
        {
          "indexed": true,
          "internalType": "address",
          "name": "distributor",
          "type": "address"
        },
        {
          "indexed": false,
          "internalType": "uint256",
          "name": "price",
          "type": "uint256"
        },
        {
          "indexed": false,
          "internalType": "uint256",
          "name": "timestamp",
          "type": "uint256"
        },
        {
          "indexed": false,
          "internalType": "string",
          "name": "reason",
          "type": "string"
        }
      ],
      "name": "EligibleForResell",
      "type": "event"
    },
    {
      "anonymous": false,
      "inputs": [
        {
          "indexed": true,
          "internalType": "bytes32",
          "name": "batchId",
          "type": "bytes32"
        },
        {
          "indexed": true,
          "internalType": "address",
          "name": "to",
          "type": "address"
        },
        {
          "indexed": true,
          "internalType": "uint256",
          "name": "timestamp",
          "type": "uint256"
        },
        {
          "indexed": false,
          "internalType": "bool",
          "name": "refunded",
          "type": "bool"
        },
        {
          "indexed": false,
          "internalType": "string",
          "name": "reason",
          "type": "string"
        }
      ],
      "name": "Refunded",
      "type": "event"
    },
    {
      "anonymous": false,
      "inputs": [
        {
          "indexed": true,
          "internalType": "bytes32",
          "name": "batchId",
          "type": "bytes32"
        },
        {
          "indexed": true,
          "internalType": "address",
          "name": "requester",
          "type": "address"
        },
        {
          "indexed": true,
          "internalType": "uint256",
          "name": "timestamp",
          "type": "uint256"
        },
        {
          "indexed": false,
          "internalType": "bool",
          "name": "approved",
          "type": "bool"
        },
        {
          "indexed": false,
          "internalType": "string",
          "name": "reason",
          "type": "string"
        }
      ],
      "name": "RequestApproved",
      "type": "event"
    },
    {
      "anonymous": false,
      "inputs": [
        {
          "indexed": true,
          "internalType": "bytes32",
          "name": "batchId",
          "type": "bytes32"
        },
        {
          "indexed": false,
          "internalType": "enum DrugSupplyChain.BatchStatus",
          "name": "statusEnum",
          "type": "uint8"
        },
        {
          "indexed": true,
          "internalType": "address",
          "name": "distributor",
          "type": "address"
        },
        {
          "indexed": false,
          "internalType": "uint256",
          "name": "price",
          "type": "uint256"
        },
        {
          "indexed": false,
          "internalType": "uint256",
          "name": "timestamp",
          "type": "uint256"
        }
      ],
      "name": "ResellingDone",
      "type": "event"
    },
    {
      "anonymous": false,
      "inputs": [
        {
          "indexed": true,
          "internalType": "bytes32",
          "name": "batchId",
          "type": "bytes32"
        },
        {
          "indexed": false,
          "internalType": "address",
          "name": "retailer",
          "type": "address"
        },
        {
          "indexed": false,
          "internalType": "enum DrugSupplyChain.BatchStatus",
          "name": "statusEnum",
          "type": "uint8"
        },
        {
          "indexed": false,
          "internalType": "uint256",
          "name": "price",
          "type": "uint256"
        },
        {
          "indexed": false,
          "internalType": "uint256",
          "name": "timestamp",
          "type": "uint256"
        }
      ],
      "name": "RetailerPurchased",
      "type": "event"
    },
    {
      "anonymous": false,
      "inputs": [
        {
          "indexed": true,
          "internalType": "bytes32",
          "name": "batchId",
          "type": "bytes32"
        },
        {
          "indexed": true,
          "internalType": "uint256",
          "name": "timestamp",
          "type": "uint256"
        },
        {
          "indexed": true,
          "internalType": "address",
          "name": "requester",
          "type": "address"
        },
        {
          "indexed": false,
          "internalType": "bool",
          "name": "approved",
          "type": "bool"
        },
        {
          "indexed": false,
          "internalType": "bool",
          "name": "refunded",
          "type": "bool"
        },
        {
          "indexed": false,
          "internalType": "string",
          "name": "reason",
          "type": "string"
        }
      ],
      "name": "ReturnRequested",
      "type": "event"
    },
    {
      "anonymous": false,
      "inputs": [
        {
          "indexed": true,
          "internalType": "bytes32",
          "name": "role",
          "type": "bytes32"
        },
        {
          "indexed": true,
          "internalType": "bytes32",
          "name": "previousAdminRole",
          "type": "bytes32"
        },
        {
          "indexed": true,
          "internalType": "bytes32",
          "name": "newAdminRole",
          "type": "bytes32"
        }
      ],
      "name": "RoleAdminChanged",
      "type": "event"
    },
    {
      "anonymous": false,
      "inputs": [
        {
          "indexed": true,
          "internalType": "bytes32",
          "name": "role",
          "type": "bytes32"
        },
        {
          "indexed": true,
          "internalType": "address",
          "name": "account",
          "type": "address"
        },
        {
          "indexed": true,
          "internalType": "address",
          "name": "sender",
          "type": "address"
        }
      ],
      "name": "RoleGranted",
      "type": "event"
    },
    {
      "anonymous": false,
      "inputs": [
        {
          "indexed": true,
          "internalType": "bytes32",
          "name": "role",
          "type": "bytes32"
        },
        {
          "indexed": true,
          "internalType": "address",
          "name": "account",
          "type": "address"
        },
        {
          "indexed": true,
          "internalType": "address",
          "name": "sender",
          "type": "address"
        }
      ],
      "name": "RoleRevoked",
      "type": "event"
    },
    {
      "inputs": [],
      "name": "DEFAULT_ADMIN_ROLE",
      "outputs": [
        {
          "internalType": "bytes32",
          "name": "",
          "type": "bytes32"
        }
      ],
      "stateMutability": "view",
      "type": "function"
    },
    {
      "inputs": [],
      "name": "DISTRIBUTOR_ROLE",
      "outputs": [
        {
          "internalType": "bytes32",
          "name": "",
          "type": "bytes32"
        }
      ],
      "stateMutability": "view",
      "type": "function"
    },
    {
      "inputs": [],
      "name": "MANUFACTURER_ROLE",
      "outputs": [
        {
          "internalType": "bytes32",
          "name": "",
          "type": "bytes32"
        }
      ],
      "stateMutability": "view",
      "type": "function"
    },
    {
      "inputs": [],
      "name": "RETAILER_ROLE",
      "outputs": [
        {
          "internalType": "bytes32",
          "name": "",
          "type": "bytes32"
        }
      ],
      "stateMutability": "view",
      "type": "function"
    },
    {
      "inputs": [
        {
          "internalType": "address",
          "name": "distributor",
          "type": "address"
        }
      ],
      "name": "addDistributor",
      "outputs": [],
      "stateMutability": "nonpayable",
      "type": "function"
    },
    {
      "inputs": [
        {
          "internalType": "address",
          "name": "manufacturer",
          "type": "address"
        }
      ],
      "name": "addManufacturer",
      "outputs": [],
      "stateMutability": "nonpayable",
      "type": "function"
    },
    {
      "inputs": [
        {
          "internalType": "address",
          "name": "retailer",
          "type": "address"
        }
      ],
      "name": "addRetailer",
      "outputs": [],
      "stateMutability": "nonpayable",
      "type": "function"
    },
    {
      "inputs": [
        {
          "internalType": "uint256",
          "name": "",
          "type": "uint256"
        }
      ],
      "name": "allBatchIds",
      "outputs": [
        {
          "internalType": "bytes32",
          "name": "",
          "type": "bytes32"
        }
      ],
      "stateMutability": "view",
      "type": "function"
    },
    {
      "inputs": [
        {
          "internalType": "bytes32",
          "name": "_batchId",
          "type": "bytes32"
        }
      ],
      "name": "approveRequestDistributor",
      "outputs": [],
      "stateMutability": "nonpayable",
      "type": "function"
    },
    {
      "inputs": [
        {
          "internalType": "bytes32",
          "name": "_batchId",
          "type": "bytes32"
        }
      ],
      "name": "approveRequestRetailer",
      "outputs": [],
      "stateMutability": "nonpayable",
      "type": "function"
    },
    {
      "inputs": [],
      "name": "batchCount",
      "outputs": [
        {
          "internalType": "uint256",
          "name": "",
          "type": "uint256"
        }
      ],
      "stateMutability": "view",
      "type": "function"
    },
    {
      "inputs": [
        {
          "internalType": "address",
          "name": "",
          "type": "address"
        }
      ],
      "name": "batchCounter",
      "outputs": [
        {
          "internalType": "uint256",
          "name": "",
          "type": "uint256"
        }
      ],
      "stateMutability": "view",
      "type": "function"
    },
    {
      "inputs": [
        {
          "internalType": "bytes32",
          "name": "",
          "type": "bytes32"
        }
      ],
      "name": "batchIdToBatch",
      "outputs": [
        {
          "internalType": "bytes32",
          "name": "batchId",
          "type": "bytes32"
        },
        {
          "internalType": "address",
          "name": "manufacturer",
          "type": "address"
        },
        {
          "internalType": "address",
          "name": "distributor",
          "type": "address"
        },
        {
          "internalType": "address",
          "name": "retailer",
          "type": "address"
        },
        {
          "internalType": "uint256",
          "name": "expiryDate",
          "type": "uint256"
        },
        {
          "internalType": "uint256",
          "name": "timestamp",
          "type": "uint256"
        },
        {
          "internalType": "uint256",
          "name": "price",
          "type": "uint256"
        },
        {
          "internalType": "uint256",
          "name": "productPrice",
          "type": "uint256"
        },
        {
          "internalType": "enum DrugSupplyChain.BatchStatus",
          "name": "statusEnum",
          "type": "uint8"
        },
        {
          "internalType": "address",
          "name": "ipfsHash",
          "type": "address"
        }
      ],
      "stateMutability": "view",
      "type": "function"
    },
    {
      "inputs": [
        {
          "internalType": "uint256",
          "name": "_usdAmount",
          "type": "uint256"
        }
      ],
      "name": "calculateEthfromUSD",
      "outputs": [
        {
          "internalType": "uint256",
          "name": "",
          "type": "uint256"
        }
      ],
      "stateMutability": "view",
      "type": "function"
    },
    {
      "inputs": [
        {
          "internalType": "string",
          "name": "roleName",
          "type": "string"
        },
        {
          "internalType": "address",
          "name": "account",
          "type": "address"
        }
      ],
      "name": "checkRole",
      "outputs": [
        {
          "internalType": "bool",
          "name": "",
          "type": "bool"
        }
      ],
      "stateMutability": "view",
      "type": "function"
    },
    {
      "inputs": [],
      "name": "dataFeed",
      "outputs": [
        {
          "internalType": "contract AggregatorV3Interface",
          "name": "",
          "type": "address"
        }
      ],
      "stateMutability": "view",
      "type": "function"
    },
    {
      "inputs": [],
      "name": "escrowContract",
      "outputs": [
        {
          "internalType": "contract Escrow",
          "name": "",
          "type": "address"
        }
      ],
      "stateMutability": "view",
      "type": "function"
    },
    {
      "inputs": [
        {
          "internalType": "address",
          "name": "account",
          "type": "address"
        }
      ],
      "name": "frozeAddress",
      "outputs": [],
      "stateMutability": "nonpayable",
      "type": "function"
    },
    {
      "inputs": [
        {
          "internalType": "bytes32",
          "name": "role",
          "type": "bytes32"
        }
      ],
      "name": "getRoleAdmin",
      "outputs": [
        {
          "internalType": "bytes32",
          "name": "",
          "type": "bytes32"
        }
      ],
      "stateMutability": "view",
      "type": "function"
    },
    {
      "inputs": [
        {
          "internalType": "bytes32",
          "name": "role",
          "type": "bytes32"
        },
        {
          "internalType": "address",
          "name": "account",
          "type": "address"
        }
      ],
      "name": "grantRole",
      "outputs": [],
      "stateMutability": "nonpayable",
      "type": "function"
    },
    {
      "inputs": [],
      "name": "handlingAddresses",
      "outputs": [
        {
          "internalType": "contract HandlingAddresses",
          "name": "",
          "type": "address"
        }
      ],
      "stateMutability": "view",
      "type": "function"
    },
    {
      "inputs": [
        {
          "internalType": "bytes32",
          "name": "role",
          "type": "bytes32"
        },
        {
          "internalType": "address",
          "name": "account",
          "type": "address"
        }
      ],
      "name": "hasRole",
      "outputs": [
        {
          "internalType": "bool",
          "name": "",
          "type": "bool"
        }
      ],
      "stateMutability": "view",
      "type": "function"
    },
    {
      "inputs": [
        {
          "internalType": "address",
          "name": "",
          "type": "address"
        }
      ],
      "name": "isFrozen",
      "outputs": [
        {
          "internalType": "bool",
          "name": "",
          "type": "bool"
        }
      ],
      "stateMutability": "view",
      "type": "function"
    },
    {
      "inputs": [],
      "name": "owner",
      "outputs": [
        {
          "internalType": "address",
          "name": "",
          "type": "address"
        }
      ],
      "stateMutability": "view",
      "type": "function"
    },
    {
      "inputs": [
        {
          "internalType": "address",
          "name": "",
          "type": "address"
        },
        {
          "internalType": "uint256",
          "name": "",
          "type": "uint256"
        }
      ],
      "name": "ownerToBatches",
      "outputs": [
        {
          "internalType": "bytes32",
          "name": "",
          "type": "bytes32"
        }
      ],
      "stateMutability": "view",
      "type": "function"
    },
    {
      "inputs": [
        {
          "internalType": "uint256",
          "name": "",
          "type": "uint256"
        }
      ],
      "name": "pendingRequests",
      "outputs": [
        {
          "internalType": "bytes32",
          "name": "batchId",
          "type": "bytes32"
        },
        {
          "internalType": "uint256",
          "name": "timestamp",
          "type": "uint256"
        },
        {
          "internalType": "address",
          "name": "requester",
          "type": "address"
        },
        {
          "internalType": "bool",
          "name": "refunded",
          "type": "bool"
        },
        {
          "internalType": "bool",
          "name": "approved",
          "type": "bool"
        },
        {
          "internalType": "string",
          "name": "reason",
          "type": "string"
        }
      ],
      "stateMutability": "view",
      "type": "function"
    },
    {
      "inputs": [
        {
          "internalType": "bytes32",
          "name": "_batchId",
          "type": "bytes32"
        }
      ],
      "name": "rejectRequest",
      "outputs": [],
      "stateMutability": "nonpayable",
      "type": "function"
    },
    {
      "inputs": [
        {
          "internalType": "address",
          "name": "distributor",
          "type": "address"
        }
      ],
      "name": "removeDistributor",
      "outputs": [],
      "stateMutability": "nonpayable",
      "type": "function"
    },
    {
      "inputs": [
        {
          "internalType": "address",
          "name": "manufacturer",
          "type": "address"
        }
      ],
      "name": "removeManufacturer",
      "outputs": [],
      "stateMutability": "nonpayable",
      "type": "function"
    },
    {
      "inputs": [
        {
          "internalType": "address",
          "name": "retailer",
          "type": "address"
        }
      ],
      "name": "removeRetailer",
      "outputs": [],
      "stateMutability": "nonpayable",
      "type": "function"
    },
    {
      "inputs": [
        {
          "internalType": "bytes32",
          "name": "role",
          "type": "bytes32"
        },
        {
          "internalType": "address",
          "name": "callerConfirmation",
          "type": "address"
        }
      ],
      "name": "renounceRole",
      "outputs": [],
      "stateMutability": "nonpayable",
      "type": "function"
    },
    {
      "inputs": [
        {
          "internalType": "bytes32",
          "name": "_batchId",
          "type": "bytes32"
        },
        {
          "internalType": "string",
          "name": "reason",
          "type": "string"
        }
      ],
      "name": "requestReturn",
      "outputs": [],
      "stateMutability": "nonpayable",
      "type": "function"
    },
    {
      "inputs": [
        {
          "internalType": "bytes32",
          "name": "",
          "type": "bytes32"
        }
      ],
      "name": "returnRequests",
      "outputs": [
        {
          "internalType": "bytes32",
          "name": "batchId",
          "type": "bytes32"
        },
        {
          "internalType": "uint256",
          "name": "timestamp",
          "type": "uint256"
        },
        {
          "internalType": "address",
          "name": "requester",
          "type": "address"
        },
        {
          "internalType": "bool",
          "name": "refunded",
          "type": "bool"
        },
        {
          "internalType": "bool",
          "name": "approved",
          "type": "bool"
        },
        {
          "internalType": "string",
          "name": "reason",
          "type": "string"
        }
      ],
      "stateMutability": "view",
      "type": "function"
    },
    {
      "inputs": [
        {
          "internalType": "bytes32",
          "name": "role",
          "type": "bytes32"
        },
        {
          "internalType": "address",
          "name": "account",
          "type": "address"
        }
      ],
      "name": "revokeRole",
      "outputs": [],
      "stateMutability": "nonpayable",
      "type": "function"
    },
    {
      "inputs": [
        {
          "internalType": "bytes4",
          "name": "interfaceId",
          "type": "bytes4"
        }
      ],
      "name": "supportsInterface",
      "outputs": [
        {
          "internalType": "bool",
          "name": "",
          "type": "bool"
        }
      ],
      "stateMutability": "view",
      "type": "function"
    },
    {
      "inputs": [
        {
          "internalType": "address",
          "name": "account",
          "type": "address"
        }
      ],
      "name": "unfreezeAddress",
      "outputs": [],
      "stateMutability": "nonpayable",
      "type": "function"
    },
    {
      "inputs": [],
      "name": "withdraw",
      "outputs": [],
      "stateMutability": "nonpayable",
      "type": "function"
    }
  ],
  "bytecode": "0x608060405234801561001057600080fd5b5060405161516f38038061516f8339818101604052810190610032919061032a565b8282826100486000801b3361015860201b60201c565b5033600c60006101000a81548173ffffffffffffffffffffffffffffffffffffffff021916908373ffffffffffffffffffffffffffffffffffffffff16021790555081600a60006101000a81548173ffffffffffffffffffffffffffffffffffffffff021916908373ffffffffffffffffffffffffffffffffffffffff16021790555082600960006101000a81548173ffffffffffffffffffffffffffffffffffffffff021916908373ffffffffffffffffffffffffffffffffffffffff16021790555080600b60006101000a81548173ffffffffffffffffffffffffffffffffffffffff021916908373ffffffffffffffffffffffffffffffffffffffff16021790555050505050505061037d565b600061016a838361025560201b60201c565b61024a57600160008085815260200190815260200160002060000160008473ffffffffffffffffffffffffffffffffffffffff1673ffffffffffffffffffffffffffffffffffffffff16815260200190815260200160002060006101000a81548160ff0219169083151502179055506101e76102bf60201b60201c565b73ffffffffffffffffffffffffffffffffffffffff168273ffffffffffffffffffffffffffffffffffffffff16847f2f8788117e7eff1d82e926ec794901d17c78024a50270940304540a733656f0d60405160405180910390a46001905061024f565b600090505b92915050565b600080600084815260200190815260200160002060000160008373ffffffffffffffffffffffffffffffffffffffff1673ffffffffffffffffffffffffffffffffffffffff16815260200190815260200160002060009054906101000a900460ff16905092915050565b600033905090565b600080fd5b600073ffffffffffffffffffffffffffffffffffffffff82169050919050565b60006102f7826102cc565b9050919050565b610307816102ec565b811461031257600080fd5b50565b600081519050610324816102fe565b92915050565b600080600060608486031215610343576103426102c7565b5b600061035186828701610315565b935050602061036286828701610315565b925050604061037386828701610315565b9150509250925092565b614de38061038c6000396000f3fe608060405234801561001057600080fd5b50600436106102275760003560e01c80637250e224116101305780639fb65529116100b8578063d547741f1161007c578063d547741f14610697578063e42a96e7146106b3578063e5839836146106d1578063edec7fde14610701578063f0bd87cc1461071d57610227565b80639fb65529146105da578063a217fddf1461060f578063bfb805471461062d578063c1c460a614610649578063cf30c7051461066757610227565b806395587d03116100ff57806395587d031461052d578063965288b01461054957806399fd9cfb146105675780639de7c3b7146105835780639e42ff90146105bc57610227565b80637250e224146104a75780638da5cb5b146104c35780638ec4f505146104e157806391d14854146104fd57610227565b80633c652a9a116101b3578063606b5c4211610182578063606b5c42146103df5780636a0f9f701461040f5780636a75323f1461043f57806370099ec81461045b5780637026fe9c1461047757610227565b80633c652a9a146103685780633ccfd60b1461039d57806357c1f9e2146103a75780635f8a5afa146103c357610227565b8063290b17ec116101fa578063290b17ec146102c85780632f2ff15d146102f85780633175a5e81461031457806336568abe1461033057806337fd8ee41461034c57610227565b806301ffc9a71461022c57806306f130561461025c5780632115e7bf1461027a578063248a9ca314610298575b600080fd5b61024660048036038101906102419190613514565b61073b565b604051610253919061355c565b60405180910390f35b6102646107b5565b6040516102719190613590565b60405180910390f35b6102826107bb565b60405161028f91906135c4565b60405180910390f35b6102b260048036038101906102ad919061360b565b6107df565b6040516102bf91906135c4565b60405180910390f35b6102e260048036038101906102dd9190613664565b6107fe565b6040516102ef91906135c4565b60405180910390f35b610312600480360381019061030d91906136ef565b610822565b005b61032e60048036038101906103299190613875565b610844565b005b61034a600480360381019061034591906136ef565b610c5b565b005b6103666004803603810190610361919061360b565b610cd6565b005b610382600480360381019061037d9190613664565b611087565b6040516103949695949392919061395f565b60405180910390f35b6103a5611195565b005b6103c160048036038101906103bc91906139c7565b6112c8565b005b6103dd60048036038101906103d891906139c7565b611303565b005b6103f960048036038101906103f49190613664565b6114f3565b6040516104069190613590565b60405180910390f35b610429600480360381019061042491906139c7565b6115b8565b6040516104369190613590565b60405180910390f35b610459600480360381019061045491906139c7565b6115d0565b005b610475600480360381019061047091906139c7565b61160b565b005b610491600480360381019061048c91906139f4565b611646565b60405161049e919061355c565b60405180910390f35b6104c160048036038101906104bc91906139c7565b61179b565b005b6104cb61198b565b6040516104d89190613a50565b60405180910390f35b6104fb60048036038101906104f691906139c7565b6119b1565b005b610517600480360381019061051291906136ef565b611ba1565b604051610524919061355c565b60405180910390f35b6105476004803603810190610542919061360b565b611c0b565b005b610551611edc565b60405161055e91906135c4565b60405180910390f35b610581600480360381019061057c91906139c7565b611f00565b005b61059d6004803603810190610598919061360b565b61208f565b6040516105b39a99989796959493929190613ae2565b60405180910390f35b6105c4612170565b6040516105d19190613bdd565b60405180910390f35b6105f460048036038101906105ef919061360b565b612196565b6040516106069695949392919061395f565b60405180910390f35b610617612294565b60405161062491906135c4565b60405180910390f35b610647600480360381019061064291906139c7565b61229b565b005b6106516123aa565b60405161065e9190613c19565b60405180910390f35b610681600480360381019061067c9190613c34565b6123d0565b60405161068e91906135c4565b60405180910390f35b6106b160048036038101906106ac91906136ef565b612401565b005b6106bb612423565b6040516106c89190613c95565b60405180910390f35b6106eb60048036038101906106e691906139c7565b612449565b6040516106f8919061355c565b60405180910390f35b61071b6004803603810190610716919061360b565b612469565b005b61072561281a565b60405161073291906135c4565b60405180910390f35b60007f7965db0b000000000000000000000000000000000000000000000000000000007bffffffffffffffffffffffffffffffffffffffffffffffffffffffff1916827bffffffffffffffffffffffffffffffffffffffffffffffffffffffff191614806107ae57506107ad8261283e565b5b9050919050565b60085481565b7f2a5f906c256a5d799494fcd066e1f6c077689de1cdb65052a1624de4bace99bf81565b6000806000838152602001908152602001600020600101549050919050565b6007818154811061080e57600080fd5b906000526020600020016000915090505481565b61082b826107df565b610834816128a8565b61083e83836128bc565b50505050565b600160003373ffffffffffffffffffffffffffffffffffffffff1673ffffffffffffffffffffffffffffffffffffffff16815260200190815260200160002060009054906101000a900460ff16156108d1576040517f08c379a00000000000000000000000000000000000000000000000000000000081526004016108c890613cfc565b60405180910390fd5b6108db82826129ad565b6040518060c001604052808381526020014281526020013373ffffffffffffffffffffffffffffffffffffffff1681526020016000151581526020016000151581526020018281525060046000848152602001908152602001600020600082015181600001556020820151816001015560408201518160020160006101000a81548173ffffffffffffffffffffffffffffffffffffffff021916908373ffffffffffffffffffffffffffffffffffffffff16021790555060608201518160020160146101000a81548160ff02191690831515021790555060808201518160020160156101000a81548160ff02191690831515021790555060a08201518160030190816109e79190613f1e565b50905050600660046000848152602001908152602001600020908060018154018082558091505060019003906000526020600020906004020160009091909190915060008201548160000155600182015481600101556002820160009054906101000a900473ffffffffffffffffffffffffffffffffffffffff168160020160006101000a81548173ffffffffffffffffffffffffffffffffffffffff021916908373ffffffffffffffffffffffffffffffffffffffff1602179055506002820160149054906101000a900460ff168160020160146101000a81548160ff0219169083151502179055506002820160159054906101000a900460ff168160020160156101000a81548160ff02191690831515021790555060038201816003019081610b129190614006565b5050506003600083815260200190815260200160002060030160009054906101000a900473ffffffffffffffffffffffffffffffffffffffff1673ffffffffffffffffffffffffffffffffffffffff163373ffffffffffffffffffffffffffffffffffffffff1603610bc25760046003600084815260200190815260200160002060080160006101000a81548160ff02191690836008811115610bb857610bb7613a6b565b5b0217905550610c02565b60056003600084815260200190815260200160002060080160006101000a81548160ff02191690836008811115610bfc57610bfb613a6b565b5b02179055505b3373ffffffffffffffffffffffffffffffffffffffff1642837fc06a34dcf81b54b1e49726bec391ac7b6c2af22a7e3b3594d60445f3a9c68cbe60008086604051610c4f939291906140ee565b60405180910390a45050565b610c63612bb0565b73ffffffffffffffffffffffffffffffffffffffff168173ffffffffffffffffffffffffffffffffffffffff1614610cc7576040517f6697b23200000000000000000000000000000000000000000000000000000000815260040160405180910390fd5b610cd18282612bb8565b505050565b600160003373ffffffffffffffffffffffffffffffffffffffff1673ffffffffffffffffffffffffffffffffffffffff16815260200190815260200160002060009054906101000a900460ff1615610d63576040517f08c379a0000000000000000000000000000000000000000000000000000000008152600401610d5a90613cfc565b60405180910390fd5b600b60009054906101000a900473ffffffffffffffffffffffffffffffffffffffff1673ffffffffffffffffffffffffffffffffffffffff166391d148547feefb95e842a3287179d933b4460be539a1d5af11aa8b325bb45c5c8dc92de4ed336040518363ffffffff1660e01b8152600401610de092919061412c565b602060405180830381865afa158015610dfd573d6000803e3d6000fd5b505050506040513d601f19601f82011682018060405250810190610e219190614181565b610e60576040517f08c379a0000000000000000000000000000000000000000000000000000000008152600401610e57906141fa565b60405180910390fd5b610e6981612caa565b60006004600083815260200190815260200160002060020160009054906101000a900473ffffffffffffffffffffffffffffffffffffffff1690506003600083815260200190815260200160002060020160009054906101000a900473ffffffffffffffffffffffffffffffffffffffff1673ffffffffffffffffffffffffffffffffffffffff168173ffffffffffffffffffffffffffffffffffffffff1603610fe05760016004600084815260200190815260200160002060020160156101000a81548160ff021916908315150217905550610f468282612e81565b60006003600084815260200190815260200160002060020160006101000a81548173ffffffffffffffffffffffffffffffffffffffff021916908373ffffffffffffffffffffffffffffffffffffffff16021790555060076003600084815260200190815260200160002060080160006101000a81548160ff02191690836008811115610fd657610fd5613a6b565b5b021790555061101b565b6040517f08c379a00000000000000000000000000000000000000000000000000000000081526004016110129061428c565b60405180910390fd5b428173ffffffffffffffffffffffffffffffffffffffff16837f19766b5afd8e309c7c73edf73647cd312ca6979822a5397524d466148653d36a60016004600088815260200190815260200160002060030160405161107b929190614330565b60405180910390a45050565b6006818154811061109757600080fd5b90600052602060002090600402016000915090508060000154908060010154908060020160009054906101000a900473ffffffffffffffffffffffffffffffffffffffff16908060020160149054906101000a900460ff16908060020160159054906101000a900460ff169080600301805461111290613d4b565b80601f016020809104026020016040519081016040528092919081815260200182805461113e90613d4b565b801561118b5780601f106111605761010080835404028352916020019161118b565b820191906000526020600020905b81548152906001019060200180831161116e57829003601f168201915b5050505050905086565b600b60009054906101000a900473ffffffffffffffffffffffffffffffffffffffff1673ffffffffffffffffffffffffffffffffffffffff166391d148546000801b336040518363ffffffff1660e01b81526004016111f592919061412c565b602060405180830381865afa158015611212573d6000803e3d6000fd5b505050506040513d601f19601f820116820180604052508101906112369190614181565b50600a60009054906101000a900473ffffffffffffffffffffffffffffffffffffffff1673ffffffffffffffffffffffffffffffffffffffff16630357371d33476040518363ffffffff1660e01b8152600401611294929190614360565b600060405180830381600087803b1580156112ae57600080fd5b505af11580156112c2573d6000803e3d6000fd5b50505050565b6000801b6112d5816128a8565b6112ff7ffbd454f36a7e1a388bd6fc3ab10d434aa4578f811acbbcf33afb1c697486313c83612401565b5050565b6000801b611310816128a8565b8161133b7feefb95e842a3287179d933b4460be539a1d5af11aa8b325bb45c5c8dc92de4ed82611ba1565b1561137d57806040517f375795b900000000000000000000000000000000000000000000000000000000815260040161137491906143d5565b60405180910390fd5b6113a77f2a5f906c256a5d799494fcd066e1f6c077689de1cdb65052a1624de4bace99bf82611ba1565b156113e957806040517f375795b90000000000000000000000000000000000000000000000000000000081526004016113e0919061444f565b60405180910390fd5b6114137ffbd454f36a7e1a388bd6fc3ab10d434aa4578f811acbbcf33afb1c697486313c82611ba1565b1561145557806040517f375795b900000000000000000000000000000000000000000000000000000000815260040161144c91906144c9565b60405180910390fd5b600073ffffffffffffffffffffffffffffffffffffffff168173ffffffffffffffffffffffffffffffffffffffff16036114c4576040517f08c379a00000000000000000000000000000000000000000000000000000000081526004016114bb90613cfc565b60405180910390fd5b6114ee7feefb95e842a3287179d933b4460be539a1d5af11aa8b325bb45c5c8dc92de4ed84610822565b505050565b6000806114fe613115565b905060008111611543576040517f08c379a000000000000000000000000000000000000000000000000000000000815260040161153a90614543565b60405180910390fd5b6000831161158857826040517f3728b83d00000000000000000000000000000000000000000000000000000000815260040161157f9190613590565b60405180910390fd5b6000816a52b7d2dcc80cd2e4000000856115a29190614592565b6115ac9190614603565b90508092505050919050565b60026020528060005260406000206000915090505481565b6000801b6115dd816128a8565b6116077feefb95e842a3287179d933b4460be539a1d5af11aa8b325bb45c5c8dc92de4ed83612401565b5050565b6000801b611618816128a8565b6116427f2a5f906c256a5d799494fcd066e1f6c077689de1cdb65052a1624de4bace99bf83612401565b5050565b6000807feefb95e842a3287179d933b4460be539a1d5af11aa8b325bb45c5c8dc92de4ed84805190602001200361169f577feefb95e842a3287179d933b4460be539a1d5af11aa8b325bb45c5c8dc92de4ed9050611788565b7ffbd454f36a7e1a388bd6fc3ab10d434aa4578f811acbbcf33afb1c697486313c8480519060200120036116f5577ffbd454f36a7e1a388bd6fc3ab10d434aa4578f811acbbcf33afb1c697486313c9050611787565b7f2a5f906c256a5d799494fcd066e1f6c077689de1cdb65052a1624de4bace99bf84805190602001200361174b577f2a5f906c256a5d799494fcd066e1f6c077689de1cdb65052a1624de4bace99bf9050611786565b6040517f08c379a000000000000000000000000000000000000000000000000000000000815260040161177d90614680565b60405180910390fd5b5b5b6117928184611ba1565b91505092915050565b6000801b6117a8816128a8565b816117d37feefb95e842a3287179d933b4460be539a1d5af11aa8b325bb45c5c8dc92de4ed82611ba1565b1561181557806040517f375795b900000000000000000000000000000000000000000000000000000000815260040161180c91906143d5565b60405180910390fd5b61183f7f2a5f906c256a5d799494fcd066e1f6c077689de1cdb65052a1624de4bace99bf82611ba1565b1561188157806040517f375795b9000000000000000000000000000000000000000000000000000000008152600401611878919061444f565b60405180910390fd5b6118ab7ffbd454f36a7e1a388bd6fc3ab10d434aa4578f811acbbcf33afb1c697486313c82611ba1565b156118ed57806040517f375795b90000000000000000000000000000000000000000000000000000000081526004016118e491906144c9565b60405180910390fd5b600073ffffffffffffffffffffffffffffffffffffffff168173ffffffffffffffffffffffffffffffffffffffff160361195c576040517f08c379a000000000000000000000000000000000000000000000000000000000815260040161195390613cfc565b60405180910390fd5b6119867ffbd454f36a7e1a388bd6fc3ab10d434aa4578f811acbbcf33afb1c697486313c84610822565b505050565b600c60009054906101000a900473ffffffffffffffffffffffffffffffffffffffff1681565b6000801b6119be816128a8565b816119e97feefb95e842a3287179d933b4460be539a1d5af11aa8b325bb45c5c8dc92de4ed82611ba1565b15611a2b57806040517f375795b9000000000000000000000000000000000000000000000000000000008152600401611a2291906143d5565b60405180910390fd5b611a557f2a5f906c256a5d799494fcd066e1f6c077689de1cdb65052a1624de4bace99bf82611ba1565b15611a9757806040517f375795b9000000000000000000000000000000000000000000000000000000008152600401611a8e919061444f565b60405180910390fd5b611ac17ffbd454f36a7e1a388bd6fc3ab10d434aa4578f811acbbcf33afb1c697486313c82611ba1565b15611b0357806040517f375795b9000000000000000000000000000000000000000000000000000000008152600401611afa91906144c9565b60405180910390fd5b600073ffffffffffffffffffffffffffffffffffffffff168173ffffffffffffffffffffffffffffffffffffffff1603611b72576040517f08c379a0000000000000000000000000000000000000000000000000000000008152600401611b6990613cfc565b60405180910390fd5b611b9c7f2a5f906c256a5d799494fcd066e1f6c077689de1cdb65052a1624de4bace99bf84610822565b505050565b600080600084815260200190815260200160002060000160008373ffffffffffffffffffffffffffffffffffffffff1673ffffffffffffffffffffffffffffffffffffffff16815260200190815260200160002060009054906101000a900460ff16905092915050565b611c1481612caa565b60006004600083815260200190815260200160002060020160009054906101000a900473ffffffffffffffffffffffffffffffffffffffff1690506003600083815260200190815260200160002060030160009054906101000a900473ffffffffffffffffffffffffffffffffffffffff1673ffffffffffffffffffffffffffffffffffffffff168173ffffffffffffffffffffffffffffffffffffffff16148015611ce65750611ce57ffbd454f36a7e1a388bd6fc3ab10d434aa4578f811acbbcf33afb1c697486313c33611ba1565b5b15611d2e57600380600084815260200190815260200160002060080160006101000a81548160ff02191690836008811115611d2457611d23613a6b565b5b0217905550611e4a565b6003600083815260200190815260200160002060020160009054906101000a900473ffffffffffffffffffffffffffffffffffffffff1673ffffffffffffffffffffffffffffffffffffffff168173ffffffffffffffffffffffffffffffffffffffff16148015611dc55750611dc47feefb95e842a3287179d933b4460be539a1d5af11aa8b325bb45c5c8dc92de4ed33611ba1565b5b15611e0e5760016003600084815260200190815260200160002060080160006101000a81548160ff02191690836008811115611e0457611e03613a6b565b5b0217905550611e49565b6040517f08c379a0000000000000000000000000000000000000000000000000000000008152600401611e4090614712565b60405180910390fd5b5b611e53826131b6565b6004600083815260200190815260200160002060008082016000905560018201600090556002820160006101000a81549073ffffffffffffffffffffffffffffffffffffffff02191690556002820160146101000a81549060ff02191690556002820160156101000a81549060ff0219169055600382016000611ed6919061344b565b50505050565b7feefb95e842a3287179d933b4460be539a1d5af11aa8b325bb45c5c8dc92de4ed81565b6000801b611f0d816128a8565b600073ffffffffffffffffffffffffffffffffffffffff168273ffffffffffffffffffffffffffffffffffffffff1603611f7c576040517f08c379a0000000000000000000000000000000000000000000000000000000008152600401611f739061477e565b60405180910390fd5b60018060008473ffffffffffffffffffffffffffffffffffffffff1673ffffffffffffffffffffffffffffffffffffffff16815260200190815260200160002060006101000a81548160ff021916908315150217905550611ffd7feefb95e842a3287179d933b4460be539a1d5af11aa8b325bb45c5c8dc92de4ed83612bb8565b506120287ffbd454f36a7e1a388bd6fc3ab10d434aa4578f811acbbcf33afb1c697486313c83612bb8565b506120537f2a5f906c256a5d799494fcd066e1f6c077689de1cdb65052a1624de4bace99bf83612bb8565b507f90811a8edd3b3c17eeaefffc17f639cc69145d41a359c9843994dc2538203690826040516120839190613a50565b60405180910390a15050565b60036020528060005260406000206000915090508060000154908060010160009054906101000a900473ffffffffffffffffffffffffffffffffffffffff16908060020160009054906101000a900473ffffffffffffffffffffffffffffffffffffffff16908060030160009054906101000a900473ffffffffffffffffffffffffffffffffffffffff16908060040154908060050154908060060154908060070154908060080160009054906101000a900460ff16908060080160019054906101000a900473ffffffffffffffffffffffffffffffffffffffff1690508a565b600960009054906101000a900473ffffffffffffffffffffffffffffffffffffffff1681565b60046020528060005260406000206000915090508060000154908060010154908060020160009054906101000a900473ffffffffffffffffffffffffffffffffffffffff16908060020160149054906101000a900460ff16908060020160159054906101000a900460ff169080600301805461221190613d4b565b80601f016020809104026020016040519081016040528092919081815260200182805461223d90613d4b565b801561228a5780601f1061225f5761010080835404028352916020019161228a565b820191906000526020600020905b81548152906001019060200180831161226d57829003601f168201915b5050505050905086565b6000801b81565b6000801b6122a8816128a8565b600073ffffffffffffffffffffffffffffffffffffffff168273ffffffffffffffffffffffffffffffffffffffff1603612317576040517f08c379a000000000000000000000000000000000000000000000000000000000815260040161230e906147ea565b60405180910390fd5b6000600160008473ffffffffffffffffffffffffffffffffffffffff1673ffffffffffffffffffffffffffffffffffffffff16815260200190815260200160002060006101000a81548160ff0219169083151502179055507fc3776b472ebf54114339eec9e4dc924e7ce307a97f5c1ee72b6d474e6e5e8b7c8260405161239e9190613a50565b60405180910390a15050565b600b60009054906101000a900473ffffffffffffffffffffffffffffffffffffffff1681565b600560205281600052604060002081815481106123ec57600080fd5b90600052602060002001600091509150505481565b61240a826107df565b612413816128a8565b61241d8383612bb8565b50505050565b600a60009054906101000a900473ffffffffffffffffffffffffffffffffffffffff1681565b60016020528060005260406000206000915054906101000a900460ff1681565b600160003373ffffffffffffffffffffffffffffffffffffffff1673ffffffffffffffffffffffffffffffffffffffff16815260200190815260200160002060009054906101000a900460ff16156124f6576040517f08c379a00000000000000000000000000000000000000000000000000000000081526004016124ed90613cfc565b60405180910390fd5b600b60009054906101000a900473ffffffffffffffffffffffffffffffffffffffff1673ffffffffffffffffffffffffffffffffffffffff166391d148547ffbd454f36a7e1a388bd6fc3ab10d434aa4578f811acbbcf33afb1c697486313c336040518363ffffffff1660e01b815260040161257392919061412c565b602060405180830381865afa158015612590573d6000803e3d6000fd5b505050506040513d601f19601f820116820180604052508101906125b49190614181565b6125f3576040517f08c379a00000000000000000000000000000000000000000000000000000000081526004016125ea90614856565b60405180910390fd5b6125fc81612caa565b60006004600083815260200190815260200160002060020160009054906101000a900473ffffffffffffffffffffffffffffffffffffffff1690506003600083815260200190815260200160002060030160009054906101000a900473ffffffffffffffffffffffffffffffffffffffff1673ffffffffffffffffffffffffffffffffffffffff168173ffffffffffffffffffffffffffffffffffffffff16036127735760016004600084815260200190815260200160002060020160156101000a81548160ff0219169083151502179055506126d98282612e81565b60006003600084815260200190815260200160002060030160006101000a81548173ffffffffffffffffffffffffffffffffffffffff021916908373ffffffffffffffffffffffffffffffffffffffff16021790555060066003600084815260200190815260200160002060080160006101000a81548160ff0219169083600881111561276957612768613a6b565b5b02179055506127ae565b6040517f08c379a00000000000000000000000000000000000000000000000000000000081526004016127a59061428c565b60405180910390fd5b428173ffffffffffffffffffffffffffffffffffffffff16837f19766b5afd8e309c7c73edf73647cd312ca6979822a5397524d466148653d36a60016004600088815260200190815260200160002060030160405161280e929190614330565b60405180910390a45050565b7ffbd454f36a7e1a388bd6fc3ab10d434aa4578f811acbbcf33afb1c697486313c81565b60007f01ffc9a7000000000000000000000000000000000000000000000000000000007bffffffffffffffffffffffffffffffffffffffffffffffffffffffff1916827bffffffffffffffffffffffffffffffffffffffffffffffffffffffff1916149050919050565b6128b9816128b4612bb0565b6133fa565b50565b60006128c88383611ba1565b6129a257600160008085815260200190815260200160002060000160008473ffffffffffffffffffffffffffffffffffffffff1673ffffffffffffffffffffffffffffffffffffffff16815260200190815260200160002060006101000a81548160ff02191690831515021790555061293f612bb0565b73ffffffffffffffffffffffffffffffffffffffff168273ffffffffffffffffffffffffffffffffffffffff16847f2f8788117e7eff1d82e926ec794901d17c78024a50270940304540a733656f0d60405160405180910390a4600190506129a7565b600090505b92915050565b610100815111156129f3576040517f08c379a00000000000000000000000000000000000000000000000000000000081526004016129ea906148c2565b60405180910390fd5b600073ffffffffffffffffffffffffffffffffffffffff166004600084815260200190815260200160002060020160009054906101000a900473ffffffffffffffffffffffffffffffffffffffff1673ffffffffffffffffffffffffffffffffffffffff1614612a98576040517f08c379a0000000000000000000000000000000000000000000000000000000008152600401612a8f90614954565b60405180910390fd5b6003600083815260200190815260200160002060030160009054906101000a900473ffffffffffffffffffffffffffffffffffffffff1673ffffffffffffffffffffffffffffffffffffffff163373ffffffffffffffffffffffffffffffffffffffff1614158015612b6c57506003600083815260200190815260200160002060020160009054906101000a900473ffffffffffffffffffffffffffffffffffffffff1673ffffffffffffffffffffffffffffffffffffffff163373ffffffffffffffffffffffffffffffffffffffff1614155b15612bac576040517f08c379a0000000000000000000000000000000000000000000000000000000008152600401612ba3906149e6565b60405180910390fd5b5050565b600033905090565b6000612bc48383611ba1565b15612c9f57600080600085815260200190815260200160002060000160008473ffffffffffffffffffffffffffffffffffffffff1673ffffffffffffffffffffffffffffffffffffffff16815260200190815260200160002060006101000a81548160ff021916908315150217905550612c3c612bb0565b73ffffffffffffffffffffffffffffffffffffffff168273ffffffffffffffffffffffffffffffffffffffff16847ff6391f5c32d9c69d2a47ea670b442974b53935d1edc7fd64eb21e047a839171b60405160405180910390a460019050612ca4565b600090505b92915050565b600073ffffffffffffffffffffffffffffffffffffffff166004600083815260200190815260200160002060020160009054906101000a900473ffffffffffffffffffffffffffffffffffffffff1673ffffffffffffffffffffffffffffffffffffffff1603612d4f576040517f08c379a0000000000000000000000000000000000000000000000000000000008152600401612d4690614a52565b60405180910390fd5b6004600082815260200190815260200160002060020160159054906101000a900460ff1615612db3576040517f08c379a0000000000000000000000000000000000000000000000000000000008152600401612daa90614abe565b60405180910390fd5b6004600082815260200190815260200160002060020160149054906101000a900460ff1615612e17576040517f08c379a0000000000000000000000000000000000000000000000000000000008152600401612e0e90614b2a565b60405180910390fd5b4262093a806004600084815260200190815260200160002060010154612e3d9190614b4a565b1015612e7e576040517f08c379a0000000000000000000000000000000000000000000000000000000008152600401612e7590614bca565b60405180910390fd5b50565b600160003373ffffffffffffffffffffffffffffffffffffffff1673ffffffffffffffffffffffffffffffffffffffff16815260200190815260200160002060009054906101000a900460ff1615612f0e576040517f08c379a0000000000000000000000000000000000000000000000000000000008152600401612f0590613cfc565b60405180910390fd5b60016004600084815260200190815260200160002060020160146101000a81548160ff0219169083151502179055506003600083815260200190815260200160002060010160009054906101000a900473ffffffffffffffffffffffffffffffffffffffff169050600a60009054906101000a900473ffffffffffffffffffffffffffffffffffffffff1673ffffffffffffffffffffffffffffffffffffffff16630357371d8260036000868152602001908152602001600020600601546040518363ffffffff1660e01b8152600401612fe9929190614360565b600060405180830381600087803b15801561300357600080fd5b505af1158015613017573d6000803e3d6000fd5b50505050613024826131b6565b6004600083815260200190815260200160002060008082016000905560018201600090556002820160006101000a81549073ffffffffffffffffffffffffffffffffffffffff02191690556002820160146101000a81549060ff02191690556002820160156101000a81549060ff02191690556003820160006130a7919061344b565b5050428173ffffffffffffffffffffffffffffffffffffffff16837fd10aed24016cac91d014d03affaaa7a129ad8c910443f27a898f3d028caa5bfb600160046000888152602001908152602001600020600301604051613109929190614330565b60405180910390a45050565b600080600960009054906101000a900473ffffffffffffffffffffffffffffffffffffffff1673ffffffffffffffffffffffffffffffffffffffff1663feaf968c6040518163ffffffff1660e01b815260040160a060405180830381865afa158015613185573d6000803e3d6000fd5b505050506040513d601f19601f820116820180604052508101906131a99190614c77565b5050509150508091505090565b60005b6006805490508110156133f6576004600083815260200190815260200160002060000154600682815481106131f1576131f0614cf2565b5b906000526020600020906004020160000154036133e9576006600160068054905061321c9190614d21565b8154811061322d5761322c614cf2565b5b90600052602060002090600402016006828154811061324f5761324e614cf2565b5b906000526020600020906004020160008201548160000155600182015481600101556002820160009054906101000a900473ffffffffffffffffffffffffffffffffffffffff168160020160006101000a81548173ffffffffffffffffffffffffffffffffffffffff021916908373ffffffffffffffffffffffffffffffffffffffff1602179055506002820160149054906101000a900460ff168160020160146101000a81548160ff0219169083151502179055506002820160159054906101000a900460ff168160020160156101000a81548160ff021916908315150217905550600382018160030190816133469190614006565b50905050600680548061335c5761335b614d55565b5b600190038181906000526020600020906004020160008082016000905560018201600090556002820160006101000a81549073ffffffffffffffffffffffffffffffffffffffff02191690556002820160146101000a81549060ff02191690556002820160156101000a81549060ff02191690556003820160006133e0919061344b565b505090556133f6565b80806001019150506131b9565b5050565b6134048282611ba1565b6134475780826040517fe2517d3f00000000000000000000000000000000000000000000000000000000815260040161343e929190614d84565b60405180910390fd5b5050565b50805461345790613d4b565b6000825580601f106134695750613488565b601f016020900490600052602060002090810190613487919061348b565b5b50565b5b808211156134a457600081600090555060010161348c565b5090565b6000604051905090565b600080fd5b600080fd5b60007fffffffff0000000000000000000000000000000000000000000000000000000082169050919050565b6134f1816134bc565b81146134fc57600080fd5b50565b60008135905061350e816134e8565b92915050565b60006020828403121561352a576135296134b2565b5b6000613538848285016134ff565b91505092915050565b60008115159050919050565b61355681613541565b82525050565b6000602082019050613571600083018461354d565b92915050565b6000819050919050565b61358a81613577565b82525050565b60006020820190506135a56000830184613581565b92915050565b6000819050919050565b6135be816135ab565b82525050565b60006020820190506135d960008301846135b5565b92915050565b6135e8816135ab565b81146135f357600080fd5b50565b600081359050613605816135df565b92915050565b600060208284031215613621576136206134b2565b5b600061362f848285016135f6565b91505092915050565b61364181613577565b811461364c57600080fd5b50565b60008135905061365e81613638565b92915050565b60006020828403121561367a576136796134b2565b5b60006136888482850161364f565b91505092915050565b600073ffffffffffffffffffffffffffffffffffffffff82169050919050565b60006136bc82613691565b9050919050565b6136cc816136b1565b81146136d757600080fd5b50565b6000813590506136e9816136c3565b92915050565b60008060408385031215613706576137056134b2565b5b6000613714858286016135f6565b9250506020613725858286016136da565b9150509250929050565b600080fd5b600080fd5b6000601f19601f8301169050919050565b7f4e487b7100000000000000000000000000000000000000000000000000000000600052604160045260246000fd5b61378282613739565b810181811067ffffffffffffffff821117156137a1576137a061374a565b5b80604052505050565b60006137b46134a8565b90506137c08282613779565b919050565b600067ffffffffffffffff8211156137e0576137df61374a565b5b6137e982613739565b9050602081019050919050565b82818337600083830152505050565b6000613818613813846137c5565b6137aa565b90508281526020810184848401111561383457613833613734565b5b61383f8482856137f6565b509392505050565b600082601f83011261385c5761385b61372f565b5b813561386c848260208601613805565b91505092915050565b6000806040838503121561388c5761388b6134b2565b5b600061389a858286016135f6565b925050602083013567ffffffffffffffff8111156138bb576138ba6134b7565b5b6138c785828601613847565b9150509250929050565b6138da816136b1565b82525050565b600081519050919050565b600082825260208201905092915050565b60005b8381101561391a5780820151818401526020810190506138ff565b60008484015250505050565b6000613931826138e0565b61393b81856138eb565b935061394b8185602086016138fc565b61395481613739565b840191505092915050565b600060c08201905061397460008301896135b5565b6139816020830188613581565b61398e60408301876138d1565b61399b606083018661354d565b6139a8608083018561354d565b81810360a08301526139ba8184613926565b9050979650505050505050565b6000602082840312156139dd576139dc6134b2565b5b60006139eb848285016136da565b91505092915050565b60008060408385031215613a0b57613a0a6134b2565b5b600083013567ffffffffffffffff811115613a2957613a286134b7565b5b613a3585828601613847565b9250506020613a46858286016136da565b9150509250929050565b6000602082019050613a6560008301846138d1565b92915050565b7f4e487b7100000000000000000000000000000000000000000000000000000000600052602160045260246000fd5b60098110613aab57613aaa613a6b565b5b50565b6000819050613abc82613a9a565b919050565b6000613acc82613aae565b9050919050565b613adc81613ac1565b82525050565b600061014082019050613af8600083018d6135b5565b613b05602083018c6138d1565b613b12604083018b6138d1565b613b1f606083018a6138d1565b613b2c6080830189613581565b613b3960a0830188613581565b613b4660c0830187613581565b613b5360e0830186613581565b613b61610100830185613ad3565b613b6f6101208301846138d1565b9b9a5050505050505050505050565b6000819050919050565b6000613ba3613b9e613b9984613691565b613b7e565b613691565b9050919050565b6000613bb582613b88565b9050919050565b6000613bc782613baa565b9050919050565b613bd781613bbc565b82525050565b6000602082019050613bf26000830184613bce565b92915050565b6000613c0382613baa565b9050919050565b613c1381613bf8565b82525050565b6000602082019050613c2e6000830184613c0a565b92915050565b60008060408385031215613c4b57613c4a6134b2565b5b6000613c59858286016136da565b9250506020613c6a8582860161364f565b9150509250929050565b6000613c7f82613baa565b9050919050565b613c8f81613c74565b82525050565b6000602082019050613caa6000830184613c86565b92915050565b7f4164647265737320496e76616c69640000000000000000000000000000000000600082015250565b6000613ce6600f836138eb565b9150613cf182613cb0565b602082019050919050565b60006020820190508181036000830152613d1581613cd9565b9050919050565b7f4e487b7100000000000000000000000000000000000000000000000000000000600052602260045260246000fd5b60006002820490506001821680613d6357607f821691505b602082108103613d7657613d75613d1c565b5b50919050565b60008190508160005260206000209050919050565b60006020601f8301049050919050565b600082821b905092915050565b600060088302613dde7fffffffffffffffffffffffffffffffffffffffffffffffffffffffffffffffff82613da1565b613de88683613da1565b95508019841693508086168417925050509392505050565b6000613e1b613e16613e1184613577565b613b7e565b613577565b9050919050565b6000819050919050565b613e3583613e00565b613e49613e4182613e22565b848454613dae565b825550505050565b600090565b613e5e613e51565b613e69818484613e2c565b505050565b5b81811015613e8d57613e82600082613e56565b600181019050613e6f565b5050565b601f821115613ed257613ea381613d7c565b613eac84613d91565b81016020851015613ebb578190505b613ecf613ec785613d91565b830182613e6e565b50505b505050565b600082821c905092915050565b6000613ef560001984600802613ed7565b1980831691505092915050565b6000613f0e8383613ee4565b9150826002028217905092915050565b613f27826138e0565b67ffffffffffffffff811115613f4057613f3f61374a565b5b613f4a8254613d4b565b613f55828285613e91565b600060209050601f831160018114613f885760008415613f76578287015190505b613f808582613f02565b865550613fe8565b601f198416613f9686613d7c565b60005b82811015613fbe57848901518255600182019150602085019450602081019050613f99565b86831015613fdb5784890151613fd7601f891682613ee4565b8355505b6001600288020188555050505b505050505050565b600081549050613fff81613d4b565b9050919050565b8181036140145750506140ec565b61401d82613ff0565b67ffffffffffffffff8111156140365761403561374a565b5b6140408254613d4b565b61404b828285613e91565b6000601f83116001811461407a5760008415614068578287015490505b6140728582613f02565b8655506140e5565b601f19841661408887613d7c565b965061409386613d7c565b60005b828110156140bb57848901548255600182019150600185019450602081019050614096565b868310156140d857848901546140d4601f891682613ee4565b8355505b6001600288020188555050505b5050505050505b565b6000606082019050614103600083018661354d565b614110602083018561354d565b81810360408301526141228184613926565b9050949350505050565b600060408201905061414160008301856135b5565b61414e60208301846138d1565b9392505050565b61415e81613541565b811461416957600080fd5b50565b60008151905061417b81614155565b92915050565b600060208284031215614197576141966134b2565b5b60006141a58482850161416c565b91505092915050565b7f497473206e6f74204d616e756661637475726572000000000000000000000000600082015250565b60006141e46014836138eb565b91506141ef826141ae565b602082019050919050565b60006020820190508181036000830152614213816141d7565b9050919050565b7f556e617574686f72697a65642063616c6c657220666f7220617070726f76696e60008201527f6720746869732072657475726e00000000000000000000000000000000000000602082015250565b6000614276602d836138eb565b91506142818261421a565b604082019050919050565b600060208201905081810360008301526142a581614269565b9050919050565b600081546142b981613d4b565b6142c381866138eb565b945060018216600081146142de57600181146142f457614327565b60ff198316865281151560200286019350614327565b6142fd85613d7c565b60005b8381101561431f57815481890152600182019150602081019050614300565b808801955050505b50505092915050565b6000604082019050614345600083018561354d565b818103602083015261435781846142ac565b90509392505050565b600060408201905061437560008301856138d1565b6143826020830184613581565b9392505050565b7f4d616e7566616374757265720000000000000000000000000000000000000000600082015250565b60006143bf600c836138eb565b91506143ca82614389565b602082019050919050565b600060408201905081810360008301526143ee816143b2565b90506143fd60208301846138d1565b92915050565b7f52657461696c6572000000000000000000000000000000000000000000000000600082015250565b60006144396008836138eb565b915061444482614403565b602082019050919050565b600060408201905081810360008301526144688161442c565b905061447760208301846138d1565b92915050565b7f4469737472696275746f72000000000000000000000000000000000000000000600082015250565b60006144b3600b836138eb565b91506144be8261447d565b602082019050919050565b600060408201905081810360008301526144e2816144a6565b90506144f160208301846138d1565b92915050565b7f496e76616c696420707269636520666565642064617461000000000000000000600082015250565b600061452d6017836138eb565b9150614538826144f7565b602082019050919050565b6000602082019050818103600083015261455c81614520565b9050919050565b7f4e487b7100000000000000000000000000000000000000000000000000000000600052601160045260246000fd5b600061459d82613577565b91506145a883613577565b92508282026145b681613577565b915082820484148315176145cd576145cc614563565b5b5092915050565b7f4e487b7100000000000000000000000000000000000000000000000000000000600052601260045260246000fd5b600061460e82613577565b915061461983613577565b925082614629576146286145d4565b5b828204905092915050565b7f496e76616c696420726f6c65206e616d65000000000000000000000000000000600082015250565b600061466a6011836138eb565b915061467582614634565b602082019050919050565b600060208201905081810360008301526146998161465d565b9050919050565b7f556e617574686f72697a656420746f2072656a6563742074686973207265717560008201527f6573740000000000000000000000000000000000000000000000000000000000602082015250565b60006146fc6023836138eb565b9150614707826146a0565b604082019050919050565b6000602082019050818103600083015261472b816146ef565b9050919050565b7f43616e6e6f7420667265657a6520746865207a65726f20616464726573730000600082015250565b6000614768601e836138eb565b915061477382614732565b602082019050919050565b600060208201905081810360008301526147978161475b565b9050919050565b7f43616e6e6f7420756e667265657a6520746865207a65726f2061646472657373600082015250565b60006147d46020836138eb565b91506147df8261479e565b602082019050919050565b60006020820190508181036000830152614803816147c7565b9050919050565b7f497473206e6f74204469737472696275746f7200000000000000000000000000600082015250565b60006148406013836138eb565b915061484b8261480a565b602082019050919050565b6000602082019050818103600083015261486f81614833565b9050919050565b7f526561736f6e20746f6f206c6f6e670000000000000000000000000000000000600082015250565b60006148ac600f836138eb565b91506148b782614876565b602082019050919050565b600060208201905081810360008301526148db8161489f565b9050919050565b7f52657475726e207265717565737420666f72207468697320626174636820616c60008201527f7265616479206578697374730000000000000000000000000000000000000000602082015250565b600061493e602c836138eb565b9150614949826148e2565b604082019050919050565b6000602082019050818103600083015261496d81614931565b9050919050565b7f596f7520617265206e6f7420746865206f776e6572206f66207468697320626160008201527f7463680000000000000000000000000000000000000000000000000000000000602082015250565b60006149d06023836138eb565b91506149db82614974565b604082019050919050565b600060208201905081810360008301526149ff816149c3565b9050919050565b7f4e6f2072657475726e207265717565737420666f756e64000000000000000000600082015250565b6000614a3c6017836138eb565b9150614a4782614a06565b602082019050919050565b60006020820190508181036000830152614a6b81614a2f565b9050919050565b7f5265717565737420616c726561647920617070726f7665640000000000000000600082015250565b6000614aa86018836138eb565b9150614ab382614a72565b602082019050919050565b60006020820190508181036000830152614ad781614a9b565b9050919050565b7f5265717565737420616c726561647920726566756e6465640000000000000000600082015250565b6000614b146018836138eb565b9150614b1f82614ade565b602082019050919050565b60006020820190508181036000830152614b4381614b07565b9050919050565b6000614b5582613577565b9150614b6083613577565b9250828201905080821115614b7857614b77614563565b5b92915050565b7f5265717565737420686173206578706972656400000000000000000000000000600082015250565b6000614bb46013836138eb565b9150614bbf82614b7e565b602082019050919050565b60006020820190508181036000830152614be381614ba7565b9050919050565b600069ffffffffffffffffffff82169050919050565b614c0981614bea565b8114614c1457600080fd5b50565b600081519050614c2681614c00565b92915050565b6000819050919050565b614c3f81614c2c565b8114614c4a57600080fd5b50565b600081519050614c5c81614c36565b92915050565b600081519050614c7181613638565b92915050565b600080600080600060a08688031215614c9357614c926134b2565b5b6000614ca188828901614c17565b9550506020614cb288828901614c4d565b9450506040614cc388828901614c62565b9350506060614cd488828901614c62565b9250506080614ce588828901614c17565b9150509295509295909350565b7f4e487b7100000000000000000000000000000000000000000000000000000000600052603260045260246000fd5b6000614d2c82613577565b9150614d3783613577565b9250828203905081811115614d4f57614d4e614563565b5b92915050565b7f4e487b7100000000000000000000000000000000000000000000000000000000600052603160045260246000fd5b6000604082019050614d9960008301856138d1565b614da660208301846135b5565b939250505056fea2646970667358221220be367b96b86c35e9a2d2396fe9177fa341e5a8740d5824cd12b721c301f781db64736f6c634300081c0033",
  "linkReferences": {},
  "deployedLinkReferences": {}
}