{
  "_format": "hh-sol-artifact-1",
  "contractName": "ResellMechanism",
  "sourceName": "contracts/ResellMechanism.sol",
  "abi": [
    {
      "inputs": [
        {
          "internalType": "address",
          "name": "priceFeedAddress",
          "type": "address"
        },
        {
          "internalType": "address",
          "name": "escrowAddress",
          "type": "address"
        },
        {
          "internalType": "address",
          "name": "handlingAddresses",
          "type": "address"
        }
      ],
      "stateMutability": "nonpayable",
      "type": "constructor"
    },
    {
      "inputs": [],
      "name": "AccessControlBadConfirmation",
      "type": "error"
    },
    {
      "inputs": [
        {
          "internalType": "address",
          "name": "account",
          "type": "address"
        },
        {
          "internalType": "bytes32",
          "name": "neededRole",
          "type": "bytes32"
        }
      ],
      "name": "AccessControlUnauthorizedAccount",
      "type": "error"
    },
    {
      "inputs": [
        {
          "internalType": "string",
          "name": "role",
          "type": "string"
        },
        {
          "internalType": "address",
          "name": "account",
          "type": "address"
        }
      ],
      "name": "AddressAlreadyExists",
      "type": "error"
    },
    {
      "inputs": [
        {
          "internalType": "address",
          "name": "account",
          "type": "address"
        }
      ],
      "name": "AddressInvalid",
      "type": "error"
    },
    {
      "inputs": [
        {
          "internalType": "uint256",
          "name": "_usdAmount",
          "type": "uint256"
        }
      ],
      "name": "InvalidAmount",
      "type": "error"
    },
    {
      "anonymous": false,
      "inputs": [
        {
          "indexed": false,
          "internalType": "address",
          "name": "account",
          "type": "address"
        }
      ],
      "name": "AddressFrozen",
      "type": "event"
    },
    {
      "anonymous": false,
      "inputs": [
        {
          "indexed": false,
          "internalType": "address",
          "name": "account",
          "type": "address"
        }
      ],
      "name": "AddressUnfrozen",
      "type": "event"
    },
    {
      "anonymous": false,
      "inputs": [
        {
          "indexed": true,
          "internalType": "bytes32",
          "name": "batchId",
          "type": "bytes32"
        },
        {
          "indexed": false,
          "internalType": "uint256",
          "name": "timestamp",
          "type": "uint256"
        }
      ],
      "name": "BatchCreated",
      "type": "event"
    },
    {
      "anonymous": false,
      "inputs": [
        {
          "indexed": true,
          "internalType": "bytes32",
          "name": "batchId",
          "type": "bytes32"
        },
        {
          "indexed": false,
          "internalType": "address",
          "name": "distributor",
          "type": "address"
        },
        {
          "indexed": false,
          "internalType": "enum DrugSupplyChain.BatchStatus",
          "name": "statusEnum",
          "type": "uint8"
        },
        {
          "indexed": false,
          "internalType": "uint256",
          "name": "price",
          "type": "uint256"
        },
        {
          "indexed": false,
          "internalType": "uint256",
          "name": "timestamp",
          "type": "uint256"
        }
      ],
      "name": "DistributerPurchased",
      "type": "event"
    },
    {
      "anonymous": false,
      "inputs": [
        {
          "indexed": true,
          "internalType": "bytes32",
          "name": "batchId",
          "type": "bytes32"
        },
        {
          "indexed": false,
          "internalType": "enum DrugSupplyChain.BatchStatus",
          "name": "statusEnum",
          "type": "uint8"
        },
        {
          "indexed": true,
          "internalType": "address",
          "name": "distributor",
          "type": "address"
        },
        {
          "indexed": false,
          "internalType": "uint256",
          "name": "price",
          "type": "uint256"
        },
        {
          "indexed": false,
          "internalType": "uint256",
          "name": "timestamp",
          "type": "uint256"
        },
        {
          "indexed": false,
          "internalType": "string",
          "name": "reason",
          "type": "string"
        }
      ],
      "name": "EligibleForResell",
      "type": "event"
    },
    {
      "anonymous": false,
      "inputs": [
        {
          "indexed": true,
          "internalType": "bytes32",
          "name": "batchId",
          "type": "bytes32"
        },
        {
          "indexed": true,
          "internalType": "address",
          "name": "to",
          "type": "address"
        },
        {
          "indexed": true,
          "internalType": "uint256",
          "name": "timestamp",
          "type": "uint256"
        },
        {
          "indexed": false,
          "internalType": "bool",
          "name": "refunded",
          "type": "bool"
        },
        {
          "indexed": false,
          "internalType": "string",
          "name": "reason",
          "type": "string"
        }
      ],
      "name": "Refunded",
      "type": "event"
    },
    {
      "anonymous": false,
      "inputs": [
        {
          "indexed": true,
          "internalType": "bytes32",
          "name": "batchId",
          "type": "bytes32"
        },
        {
          "indexed": true,
          "internalType": "address",
          "name": "requester",
          "type": "address"
        },
        {
          "indexed": true,
          "internalType": "uint256",
          "name": "timestamp",
          "type": "uint256"
        },
        {
          "indexed": false,
          "internalType": "bool",
          "name": "approved",
          "type": "bool"
        },
        {
          "indexed": false,
          "internalType": "string",
          "name": "reason",
          "type": "string"
        }
      ],
      "name": "RequestApproved",
      "type": "event"
    },
    {
      "anonymous": false,
      "inputs": [
        {
          "indexed": true,
          "internalType": "bytes32",
          "name": "batchId",
          "type": "bytes32"
        },
        {
          "indexed": false,
          "internalType": "enum DrugSupplyChain.BatchStatus",
          "name": "statusEnum",
          "type": "uint8"
        },
        {
          "indexed": true,
          "internalType": "address",
          "name": "distributor",
          "type": "address"
        },
        {
          "indexed": false,
          "internalType": "uint256",
          "name": "price",
          "type": "uint256"
        },
        {
          "indexed": false,
          "internalType": "uint256",
          "name": "timestamp",
          "type": "uint256"
        }
      ],
      "name": "ResellingDone",
      "type": "event"
    },
    {
      "anonymous": false,
      "inputs": [
        {
          "indexed": true,
          "internalType": "bytes32",
          "name": "batchId",
          "type": "bytes32"
        },
        {
          "indexed": false,
          "internalType": "address",
          "name": "retailer",
          "type": "address"
        },
        {
          "indexed": false,
          "internalType": "enum DrugSupplyChain.BatchStatus",
          "name": "statusEnum",
          "type": "uint8"
        },
        {
          "indexed": false,
          "internalType": "uint256",
          "name": "price",
          "type": "uint256"
        },
        {
          "indexed": false,
          "internalType": "uint256",
          "name": "timestamp",
          "type": "uint256"
        }
      ],
      "name": "RetailerPurchased",
      "type": "event"
    },
    {
      "anonymous": false,
      "inputs": [
        {
          "indexed": true,
          "internalType": "bytes32",
          "name": "batchId",
          "type": "bytes32"
        },
        {
          "indexed": true,
          "internalType": "uint256",
          "name": "timestamp",
          "type": "uint256"
        },
        {
          "indexed": true,
          "internalType": "address",
          "name": "requester",
          "type": "address"
        },
        {
          "indexed": false,
          "internalType": "bool",
          "name": "approved",
          "type": "bool"
        },
        {
          "indexed": false,
          "internalType": "bool",
          "name": "refunded",
          "type": "bool"
        },
        {
          "indexed": false,
          "internalType": "string",
          "name": "reason",
          "type": "string"
        }
      ],
      "name": "ReturnRequested",
      "type": "event"
    },
    {
      "anonymous": false,
      "inputs": [
        {
          "indexed": true,
          "internalType": "bytes32",
          "name": "role",
          "type": "bytes32"
        },
        {
          "indexed": true,
          "internalType": "bytes32",
          "name": "previousAdminRole",
          "type": "bytes32"
        },
        {
          "indexed": true,
          "internalType": "bytes32",
          "name": "newAdminRole",
          "type": "bytes32"
        }
      ],
      "name": "RoleAdminChanged",
      "type": "event"
    },
    {
      "anonymous": false,
      "inputs": [
        {
          "indexed": true,
          "internalType": "bytes32",
          "name": "role",
          "type": "bytes32"
        },
        {
          "indexed": true,
          "internalType": "address",
          "name": "account",
          "type": "address"
        },
        {
          "indexed": true,
          "internalType": "address",
          "name": "sender",
          "type": "address"
        }
      ],
      "name": "RoleGranted",
      "type": "event"
    },
    {
      "anonymous": false,
      "inputs": [
        {
          "indexed": true,
          "internalType": "bytes32",
          "name": "role",
          "type": "bytes32"
        },
        {
          "indexed": true,
          "internalType": "address",
          "name": "account",
          "type": "address"
        },
        {
          "indexed": true,
          "internalType": "address",
          "name": "sender",
          "type": "address"
        }
      ],
      "name": "RoleRevoked",
      "type": "event"
    },
    {
      "inputs": [],
      "name": "DEFAULT_ADMIN_ROLE",
      "outputs": [
        {
          "internalType": "bytes32",
          "name": "",
          "type": "bytes32"
        }
      ],
      "stateMutability": "view",
      "type": "function"
    },
    {
      "inputs": [],
      "name": "DISTRIBUTOR_ROLE",
      "outputs": [
        {
          "internalType": "bytes32",
          "name": "",
          "type": "bytes32"
        }
      ],
      "stateMutability": "view",
      "type": "function"
    },
    {
      "inputs": [],
      "name": "MANUFACTURER_ROLE",
      "outputs": [
        {
          "internalType": "bytes32",
          "name": "",
          "type": "bytes32"
        }
      ],
      "stateMutability": "view",
      "type": "function"
    },
    {
      "inputs": [],
      "name": "RETAILER_ROLE",
      "outputs": [
        {
          "internalType": "bytes32",
          "name": "",
          "type": "bytes32"
        }
      ],
      "stateMutability": "view",
      "type": "function"
    },
    {
      "inputs": [
        {
          "internalType": "address",
          "name": "distributor",
          "type": "address"
        }
      ],
      "name": "addDistributor",
      "outputs": [],
      "stateMutability": "nonpayable",
      "type": "function"
    },
    {
      "inputs": [
        {
          "internalType": "address",
          "name": "manufacturer",
          "type": "address"
        }
      ],
      "name": "addManufacturer",
      "outputs": [],
      "stateMutability": "nonpayable",
      "type": "function"
    },
    {
      "inputs": [
        {
          "internalType": "address",
          "name": "retailer",
          "type": "address"
        }
      ],
      "name": "addRetailer",
      "outputs": [],
      "stateMutability": "nonpayable",
      "type": "function"
    },
    {
      "inputs": [],
      "name": "batchCount",
      "outputs": [
        {
          "internalType": "uint256",
          "name": "",
          "type": "uint256"
        }
      ],
      "stateMutability": "view",
      "type": "function"
    },
    {
      "inputs": [
        {
          "internalType": "address",
          "name": "",
          "type": "address"
        }
      ],
      "name": "batchCounter",
      "outputs": [
        {
          "internalType": "uint256",
          "name": "",
          "type": "uint256"
        }
      ],
      "stateMutability": "view",
      "type": "function"
    },
    {
      "inputs": [
        {
          "internalType": "bytes32",
          "name": "",
          "type": "bytes32"
        }
      ],
      "name": "batchIdToBatch",
      "outputs": [
        {
          "internalType": "bytes32",
          "name": "batchId",
          "type": "bytes32"
        },
        {
          "internalType": "address",
          "name": "manufacturer",
          "type": "address"
        },
        {
          "internalType": "address",
          "name": "distributor",
          "type": "address"
        },
        {
          "internalType": "address",
          "name": "retailer",
          "type": "address"
        },
        {
          "internalType": "uint256",
          "name": "expiryDate",
          "type": "uint256"
        },
        {
          "internalType": "uint256",
          "name": "timestamp",
          "type": "uint256"
        },
        {
          "internalType": "uint256",
          "name": "price",
          "type": "uint256"
        },
        {
          "internalType": "uint256",
          "name": "productPrice",
          "type": "uint256"
        },
        {
          "internalType": "enum DrugSupplyChain.BatchStatus",
          "name": "statusEnum",
          "type": "uint8"
        },
        {
          "internalType": "address",
          "name": "ipfsHash",
          "type": "address"
        }
      ],
      "stateMutability": "view",
      "type": "function"
    },
    {
      "inputs": [
        {
          "internalType": "bytes32",
          "name": "_batchId",
          "type": "bytes32"
        },
        {
          "internalType": "address",
          "name": "distributor",
          "type": "address"
        }
      ],
      "name": "buyResellBatch",
      "outputs": [],
      "stateMutability": "payable",
      "type": "function"
    },
    {
      "inputs": [],
      "name": "dataFeed",
      "outputs": [
        {
          "internalType": "contract AggregatorV3Interface",
          "name": "",
          "type": "address"
        }
      ],
      "stateMutability": "view",
      "type": "function"
    },
    {
      "inputs": [
        {
          "internalType": "bytes32",
          "name": "_batchId",
          "type": "bytes32"
        },
        {
          "internalType": "string",
          "name": "reason",
          "type": "string"
        },
        {
          "internalType": "uint256",
          "name": "newPrice",
          "type": "uint256"
        }
      ],
      "name": "eligibleToResell",
      "outputs": [],
      "stateMutability": "nonpayable",
      "type": "function"
    },
    {
      "inputs": [],
      "name": "escrowContract",
      "outputs": [
        {
          "internalType": "contract Escrow",
          "name": "",
          "type": "address"
        }
      ],
      "stateMutability": "view",
      "type": "function"
    },
    {
      "inputs": [
        {
          "internalType": "address",
          "name": "account",
          "type": "address"
        }
      ],
      "name": "frozeAddress",
      "outputs": [],
      "stateMutability": "nonpayable",
      "type": "function"
    },
    {
      "inputs": [
        {
          "internalType": "bytes32",
          "name": "role",
          "type": "bytes32"
        }
      ],
      "name": "getRoleAdmin",
      "outputs": [
        {
          "internalType": "bytes32",
          "name": "",
          "type": "bytes32"
        }
      ],
      "stateMutability": "view",
      "type": "function"
    },
    {
      "inputs": [
        {
          "internalType": "bytes32",
          "name": "role",
          "type": "bytes32"
        },
        {
          "internalType": "address",
          "name": "account",
          "type": "address"
        }
      ],
      "name": "grantRole",
      "outputs": [],
      "stateMutability": "nonpayable",
      "type": "function"
    },
    {
      "inputs": [],
      "name": "handlingAddresses",
      "outputs": [
        {
          "internalType": "contract HandlingAddresses",
          "name": "",
          "type": "address"
        }
      ],
      "stateMutability": "view",
      "type": "function"
    },
    {
      "inputs": [
        {
          "internalType": "bytes32",
          "name": "role",
          "type": "bytes32"
        },
        {
          "internalType": "address",
          "name": "account",
          "type": "address"
        }
      ],
      "name": "hasRole",
      "outputs": [
        {
          "internalType": "bool",
          "name": "",
          "type": "bool"
        }
      ],
      "stateMutability": "view",
      "type": "function"
    },
    {
      "inputs": [
        {
          "internalType": "address",
          "name": "",
          "type": "address"
        }
      ],
      "name": "isFrozen",
      "outputs": [
        {
          "internalType": "bool",
          "name": "",
          "type": "bool"
        }
      ],
      "stateMutability": "view",
      "type": "function"
    },
    {
      "inputs": [],
      "name": "owner",
      "outputs": [
        {
          "internalType": "address",
          "name": "",
          "type": "address"
        }
      ],
      "stateMutability": "view",
      "type": "function"
    },
    {
      "inputs": [
        {
          "internalType": "uint256",
          "name": "",
          "type": "uint256"
        }
      ],
      "name": "pendingRequests",
      "outputs": [
        {
          "internalType": "bytes32",
          "name": "batchId",
          "type": "bytes32"
        },
        {
          "internalType": "uint256",
          "name": "timestamp",
          "type": "uint256"
        },
        {
          "internalType": "address",
          "name": "requester",
          "type": "address"
        },
        {
          "internalType": "bool",
          "name": "refunded",
          "type": "bool"
        },
        {
          "internalType": "bool",
          "name": "approved",
          "type": "bool"
        },
        {
          "internalType": "string",
          "name": "reason",
          "type": "string"
        }
      ],
      "stateMutability": "view",
      "type": "function"
    },
    {
      "inputs": [
        {
          "internalType": "address",
          "name": "distributor",
          "type": "address"
        }
      ],
      "name": "removeDistributor",
      "outputs": [],
      "stateMutability": "nonpayable",
      "type": "function"
    },
    {
      "inputs": [
        {
          "internalType": "address",
          "name": "manufacturer",
          "type": "address"
        }
      ],
      "name": "removeManufacturer",
      "outputs": [],
      "stateMutability": "nonpayable",
      "type": "function"
    },
    {
      "inputs": [
        {
          "internalType": "address",
          "name": "retailer",
          "type": "address"
        }
      ],
      "name": "removeRetailer",
      "outputs": [],
      "stateMutability": "nonpayable",
      "type": "function"
    },
    {
      "inputs": [
        {
          "internalType": "bytes32",
          "name": "role",
          "type": "bytes32"
        },
        {
          "internalType": "address",
          "name": "callerConfirmation",
          "type": "address"
        }
      ],
      "name": "renounceRole",
      "outputs": [],
      "stateMutability": "nonpayable",
      "type": "function"
    },
    {
      "inputs": [
        {
          "internalType": "bytes32",
          "name": "",
          "type": "bytes32"
        }
      ],
      "name": "returnRequests",
      "outputs": [
        {
          "internalType": "bytes32",
          "name": "batchId",
          "type": "bytes32"
        },
        {
          "internalType": "uint256",
          "name": "timestamp",
          "type": "uint256"
        },
        {
          "internalType": "address",
          "name": "requester",
          "type": "address"
        },
        {
          "internalType": "bool",
          "name": "refunded",
          "type": "bool"
        },
        {
          "internalType": "bool",
          "name": "approved",
          "type": "bool"
        },
        {
          "internalType": "string",
          "name": "reason",
          "type": "string"
        }
      ],
      "stateMutability": "view",
      "type": "function"
    },
    {
      "inputs": [
        {
          "internalType": "bytes32",
          "name": "role",
          "type": "bytes32"
        },
        {
          "internalType": "address",
          "name": "account",
          "type": "address"
        }
      ],
      "name": "revokeRole",
      "outputs": [],
      "stateMutability": "nonpayable",
      "type": "function"
    },
    {
      "inputs": [
        {
          "internalType": "bytes4",
          "name": "interfaceId",
          "type": "bytes4"
        }
      ],
      "name": "supportsInterface",
      "outputs": [
        {
          "internalType": "bool",
          "name": "",
          "type": "bool"
        }
      ],
      "stateMutability": "view",
      "type": "function"
    },
    {
      "inputs": [
        {
          "internalType": "address",
          "name": "account",
          "type": "address"
        }
      ],
      "name": "unfreezeAddress",
      "outputs": [],
      "stateMutability": "nonpayable",
      "type": "function"
    },
    {
      "inputs": [],
      "name": "withdraw",
      "outputs": [],
      "stateMutability": "nonpayable",
      "type": "function"
    }
  ],
  "bytecode": "0x608060405234801561001057600080fd5b50604051613abe380380613abe8339818101604052810190610032919061032a565b8282826100486000801b3361015860201b60201c565b5033600a60006101000a81548173ffffffffffffffffffffffffffffffffffffffff021916908373ffffffffffffffffffffffffffffffffffffffff16021790555081600860006101000a81548173ffffffffffffffffffffffffffffffffffffffff021916908373ffffffffffffffffffffffffffffffffffffffff16021790555082600760006101000a81548173ffffffffffffffffffffffffffffffffffffffff021916908373ffffffffffffffffffffffffffffffffffffffff16021790555080600960006101000a81548173ffffffffffffffffffffffffffffffffffffffff021916908373ffffffffffffffffffffffffffffffffffffffff16021790555050505050505061037d565b600061016a838361025560201b60201c565b61024a57600160008085815260200190815260200160002060000160008473ffffffffffffffffffffffffffffffffffffffff1673ffffffffffffffffffffffffffffffffffffffff16815260200190815260200160002060006101000a81548160ff0219169083151502179055506101e76102bf60201b60201c565b73ffffffffffffffffffffffffffffffffffffffff168273ffffffffffffffffffffffffffffffffffffffff16847f2f8788117e7eff1d82e926ec794901d17c78024a50270940304540a733656f0d60405160405180910390a46001905061024f565b600090505b92915050565b600080600084815260200190815260200160002060000160008373ffffffffffffffffffffffffffffffffffffffff1673ffffffffffffffffffffffffffffffffffffffff16815260200190815260200160002060009054906101000a900460ff16905092915050565b600033905090565b600080fd5b600073ffffffffffffffffffffffffffffffffffffffff82169050919050565b60006102f7826102cc565b9050919050565b610307816102ec565b811461031257600080fd5b50565b600081519050610324816102fe565b92915050565b600080600060608486031215610343576103426102c7565b5b600061035186828701610315565b935050602061036286828701610315565b925050604061037386828701610315565b9150509250925092565b6137328061038c6000396000f3fe6080604052600436106101d85760003560e01c80637e77e661116101025780639fb6552911610095578063d547741f11610064578063d547741f146106be578063e42a96e7146106e7578063e583983614610712578063f0bd87cc1461074f576101d8565b80639fb65529146105fd578063a217fddf1461063f578063bfb805471461066a578063c1c460a614610693576101d8565b8063965288b0116100d1578063965288b01461053857806399fd9cfb146105635780639de7c3b71461058c5780639e42ff90146105d2576101d8565b80637e77e6611461047e5780638da5cb5b146104a75780638ec4f505146104d257806391d14854146104fb576101d8565b80633c652a9a1161017a5780636a0f9f70116101495780636a0f9f70146103c65780636a75323f1461040357806370099ec81461042c5780637250e22414610455576101d8565b80633c652a9a1461031b5780633ccfd60b1461035d57806357c1f9e2146103745780635f8a5afa1461039d576101d8565b80632115e7bf116101b65780632115e7bf14610261578063248a9ca31461028c5780632f2ff15d146102c957806336568abe146102f2576101d8565b806301ffc9a7146101dd57806306f130561461021a5780631b18faa914610245575b600080fd5b3480156101e957600080fd5b5061020460048036038101906101ff91906126a7565b61077a565b60405161021191906126ef565b60405180910390f35b34801561022657600080fd5b5061022f6107f4565b60405161023c9190612723565b60405180910390f35b61025f600480360381019061025a91906127d2565b6107fa565b005b34801561026d57600080fd5b50610276610e64565b6040516102839190612821565b60405180910390f35b34801561029857600080fd5b506102b360048036038101906102ae919061283c565b610e88565b6040516102c09190612821565b60405180910390f35b3480156102d557600080fd5b506102f060048036038101906102eb91906127d2565b610ea7565b005b3480156102fe57600080fd5b50610319600480360381019061031491906127d2565b610ec9565b005b34801561032757600080fd5b50610342600480360381019061033d9190612895565b610f44565b60405161035496959493929190612961565b60405180910390f35b34801561036957600080fd5b50610372611052565b005b34801561038057600080fd5b5061039b600480360381019061039691906129c9565b611185565b005b3480156103a957600080fd5b506103c460048036038101906103bf91906129c9565b6111c0565b005b3480156103d257600080fd5b506103ed60048036038101906103e891906129c9565b6113b0565b6040516103fa9190612723565b60405180910390f35b34801561040f57600080fd5b5061042a600480360381019061042591906129c9565b6113c8565b005b34801561043857600080fd5b50610453600480360381019061044e91906129c9565b611403565b005b34801561046157600080fd5b5061047c600480360381019061047791906129c9565b61143e565b005b34801561048a57600080fd5b506104a560048036038101906104a09190612b2b565b61162e565b005b3480156104b357600080fd5b506104bc611b81565b6040516104c99190612b9a565b60405180910390f35b3480156104de57600080fd5b506104f960048036038101906104f491906129c9565b611ba7565b005b34801561050757600080fd5b50610522600480360381019061051d91906127d2565b611d97565b60405161052f91906126ef565b60405180910390f35b34801561054457600080fd5b5061054d611e01565b60405161055a9190612821565b60405180910390f35b34801561056f57600080fd5b5061058a600480360381019061058591906129c9565b611e25565b005b34801561059857600080fd5b506105b360048036038101906105ae919061283c565b611fb4565b6040516105c99a99989796959493929190612c2c565b60405180910390f35b3480156105de57600080fd5b506105e7612095565b6040516105f49190612d27565b60405180910390f35b34801561060957600080fd5b50610624600480360381019061061f919061283c565b6120bb565b60405161063696959493929190612961565b60405180910390f35b34801561064b57600080fd5b506106546121b9565b6040516106619190612821565b60405180910390f35b34801561067657600080fd5b50610691600480360381019061068c91906129c9565b6121c0565b005b34801561069f57600080fd5b506106a86122cf565b6040516106b59190612d63565b60405180910390f35b3480156106ca57600080fd5b506106e560048036038101906106e091906127d2565b6122f5565b005b3480156106f357600080fd5b506106fc612317565b6040516107099190612d9f565b60405180910390f35b34801561071e57600080fd5b50610739600480360381019061073491906129c9565b61233d565b60405161074691906126ef565b60405180910390f35b34801561075b57600080fd5b5061076461235d565b6040516107719190612821565b60405180910390f35b60007f7965db0b000000000000000000000000000000000000000000000000000000007bffffffffffffffffffffffffffffffffffffffffffffffffffffffff1916827bffffffffffffffffffffffffffffffffffffffffffffffffffffffff191614806107ed57506107ec82612381565b5b9050919050565b60065481565b600160003373ffffffffffffffffffffffffffffffffffffffff1673ffffffffffffffffffffffffffffffffffffffff16815260200190815260200160002060009054906101000a900460ff1615610887576040517f08c379a000000000000000000000000000000000000000000000000000000000815260040161087e90612e06565b60405180910390fd5b600960009054906101000a900473ffffffffffffffffffffffffffffffffffffffff1673ffffffffffffffffffffffffffffffffffffffff166391d148547ffbd454f36a7e1a388bd6fc3ab10d434aa4578f811acbbcf33afb1c697486313c336040518363ffffffff1660e01b8152600401610904929190612e26565b602060405180830381865afa158015610921573d6000803e3d6000fd5b505050506040513d601f19601f820116820180604052508101906109459190612e7b565b610984576040517f08c379a000000000000000000000000000000000000000000000000000000000815260040161097b90612ef4565b60405180910390fd5b8073ffffffffffffffffffffffffffffffffffffffff166003600084815260200190815260200160002060020160009054906101000a900473ffffffffffffffffffffffffffffffffffffffff1673ffffffffffffffffffffffffffffffffffffffff1614610a28576040517f08c379a0000000000000000000000000000000000000000000000000000000008152600401610a1f90612f86565b60405180910390fd5b42600360008481526020019081526020016000206004015411610a80576040517f08c379a0000000000000000000000000000000000000000000000000000000008152600401610a7790612ff2565b60405180910390fd5b600073ffffffffffffffffffffffffffffffffffffffff166003600084815260200190815260200160002060030160009054906101000a900473ffffffffffffffffffffffffffffffffffffffff1673ffffffffffffffffffffffffffffffffffffffff1614610b25576040517f08c379a0000000000000000000000000000000000000000000000000000000008152600401610b1c90613084565b60405180910390fd5b600034111580610b4a5750600360008381526020019081526020016000206006015434105b15610b8a576040517f08c379a0000000000000000000000000000000000000000000000000000000008152600401610b81906130f0565b60405180910390fd5b600880811115610b9d57610b9c612bb5565b5b6003600084815260200190815260200160002060080160009054906101000a900460ff166008811115610bd357610bd2612bb5565b5b14610c13576040517f08c379a0000000000000000000000000000000000000000000000000000000008152600401610c0a90613182565b60405180910390fd5b600860009054906101000a900473ffffffffffffffffffffffffffffffffffffffff1673ffffffffffffffffffffffffffffffffffffffff1663ad7fadc534336003600087815260200190815260200160002060020160009054906101000a900473ffffffffffffffffffffffffffffffffffffffff166040518463ffffffff1660e01b8152600401610ca79291906131a2565b6000604051808303818588803b158015610cc057600080fd5b505af1158015610cd4573d6000803e3d6000fd5b505050505042600360008481526020019081526020016000206005018190555060016003600084815260200190815260200160002060080160006101000a81548160ff02191690836008811115610d2e57610d2d612bb5565b5b0217905550336003600084815260200190815260200160002060020160006101000a81548173ffffffffffffffffffffffffffffffffffffffff021916908373ffffffffffffffffffffffffffffffffffffffff1602179055506003600083815260200190815260200160002060020160009054906101000a900473ffffffffffffffffffffffffffffffffffffffff1673ffffffffffffffffffffffffffffffffffffffff16827f4238cf66c2ffaa0c9ebebbaf229457729c234840b2e9790c74ef1fd800c678a26003600086815260200190815260200160002060080160009054906101000a900460ff1660036000878152602001908152602001600020600601546003600088815260200190815260200160002060050154604051610e58939291906131cb565b60405180910390a35050565b7f2a5f906c256a5d799494fcd066e1f6c077689de1cdb65052a1624de4bace99bf81565b6000806000838152602001908152602001600020600101549050919050565b610eb082610e88565b610eb9816123eb565b610ec383836123ff565b50505050565b610ed16124f0565b73ffffffffffffffffffffffffffffffffffffffff168173ffffffffffffffffffffffffffffffffffffffff1614610f35576040517f6697b23200000000000000000000000000000000000000000000000000000000815260040160405180910390fd5b610f3f82826124f8565b505050565b60058181548110610f5457600080fd5b90600052602060002090600402016000915090508060000154908060010154908060020160009054906101000a900473ffffffffffffffffffffffffffffffffffffffff16908060020160149054906101000a900460ff16908060020160159054906101000a900460ff1690806003018054610fcf90613231565b80601f0160208091040260200160405190810160405280929190818152602001828054610ffb90613231565b80156110485780601f1061101d57610100808354040283529160200191611048565b820191906000526020600020905b81548152906001019060200180831161102b57829003601f168201915b5050505050905086565b600960009054906101000a900473ffffffffffffffffffffffffffffffffffffffff1673ffffffffffffffffffffffffffffffffffffffff166391d148546000801b336040518363ffffffff1660e01b81526004016110b2929190612e26565b602060405180830381865afa1580156110cf573d6000803e3d6000fd5b505050506040513d601f19601f820116820180604052508101906110f39190612e7b565b50600860009054906101000a900473ffffffffffffffffffffffffffffffffffffffff1673ffffffffffffffffffffffffffffffffffffffff16630357371d33476040518363ffffffff1660e01b8152600401611151929190613262565b600060405180830381600087803b15801561116b57600080fd5b505af115801561117f573d6000803e3d6000fd5b50505050565b6000801b611192816123eb565b6111bc7ffbd454f36a7e1a388bd6fc3ab10d434aa4578f811acbbcf33afb1c697486313c836122f5565b5050565b6000801b6111cd816123eb565b816111f87feefb95e842a3287179d933b4460be539a1d5af11aa8b325bb45c5c8dc92de4ed82611d97565b1561123a57806040517f375795b900000000000000000000000000000000000000000000000000000000815260040161123191906132d7565b60405180910390fd5b6112647f2a5f906c256a5d799494fcd066e1f6c077689de1cdb65052a1624de4bace99bf82611d97565b156112a657806040517f375795b900000000000000000000000000000000000000000000000000000000815260040161129d9190613351565b60405180910390fd5b6112d07ffbd454f36a7e1a388bd6fc3ab10d434aa4578f811acbbcf33afb1c697486313c82611d97565b1561131257806040517f375795b900000000000000000000000000000000000000000000000000000000815260040161130991906133cb565b60405180910390fd5b600073ffffffffffffffffffffffffffffffffffffffff168173ffffffffffffffffffffffffffffffffffffffff1603611381576040517f08c379a000000000000000000000000000000000000000000000000000000000815260040161137890612e06565b60405180910390fd5b6113ab7feefb95e842a3287179d933b4460be539a1d5af11aa8b325bb45c5c8dc92de4ed84610ea7565b505050565b60026020528060005260406000206000915090505481565b6000801b6113d5816123eb565b6113ff7feefb95e842a3287179d933b4460be539a1d5af11aa8b325bb45c5c8dc92de4ed836122f5565b5050565b6000801b611410816123eb565b61143a7f2a5f906c256a5d799494fcd066e1f6c077689de1cdb65052a1624de4bace99bf836122f5565b5050565b6000801b61144b816123eb565b816114767feefb95e842a3287179d933b4460be539a1d5af11aa8b325bb45c5c8dc92de4ed82611d97565b156114b857806040517f375795b90000000000000000000000000000000000000000000000000000000081526004016114af91906132d7565b60405180910390fd5b6114e27f2a5f906c256a5d799494fcd066e1f6c077689de1cdb65052a1624de4bace99bf82611d97565b1561152457806040517f375795b900000000000000000000000000000000000000000000000000000000815260040161151b9190613351565b60405180910390fd5b61154e7ffbd454f36a7e1a388bd6fc3ab10d434aa4578f811acbbcf33afb1c697486313c82611d97565b1561159057806040517f375795b900000000000000000000000000000000000000000000000000000000815260040161158791906133cb565b60405180910390fd5b600073ffffffffffffffffffffffffffffffffffffffff168173ffffffffffffffffffffffffffffffffffffffff16036115ff576040517f08c379a00000000000000000000000000000000000000000000000000000000081526004016115f690612e06565b60405180910390fd5b6116297ffbd454f36a7e1a388bd6fc3ab10d434aa4578f811acbbcf33afb1c697486313c84610ea7565b505050565b600160003373ffffffffffffffffffffffffffffffffffffffff1673ffffffffffffffffffffffffffffffffffffffff16815260200190815260200160002060009054906101000a900460ff16156116bb576040517f08c379a00000000000000000000000000000000000000000000000000000000081526004016116b290612e06565b60405180910390fd5b600960009054906101000a900473ffffffffffffffffffffffffffffffffffffffff1673ffffffffffffffffffffffffffffffffffffffff166391d148547ffbd454f36a7e1a388bd6fc3ab10d434aa4578f811acbbcf33afb1c697486313c336040518363ffffffff1660e01b8152600401611738929190612e26565b602060405180830381865afa158015611755573d6000803e3d6000fd5b505050506040513d601f19601f820116820180604052508101906117799190612e7b565b6117b8576040517f08c379a00000000000000000000000000000000000000000000000000000000081526004016117af90612ef4565b60405180910390fd5b3373ffffffffffffffffffffffffffffffffffffffff166003600085815260200190815260200160002060020160009054906101000a900473ffffffffffffffffffffffffffffffffffffffff1673ffffffffffffffffffffffffffffffffffffffff161461185c576040517f08c379a00000000000000000000000000000000000000000000000000000000081526004016118539061346b565b60405180910390fd5b426003600085815260200190815260200160002060040154116118b4576040517f08c379a00000000000000000000000000000000000000000000000000000000081526004016118ab90612ff2565b60405180910390fd5b600073ffffffffffffffffffffffffffffffffffffffff166003600085815260200190815260200160002060030160009054906101000a900473ffffffffffffffffffffffffffffffffffffffff1673ffffffffffffffffffffffffffffffffffffffff1614611959576040517f08c379a000000000000000000000000000000000000000000000000000000000815260040161195090613084565b60405180910390fd5b60008111158061197e5750600360008481526020019081526020016000206006015481105b156119be576040517f08c379a00000000000000000000000000000000000000000000000000000000081526004016119b5906134fd565b60405180910390fd5b600160088111156119d2576119d1612bb5565b5b6003600085815260200190815260200160002060080160009054906101000a900460ff166008811115611a0857611a07612bb5565b5b14611a48576040517f08c379a0000000000000000000000000000000000000000000000000000000008152600401611a3f9061358f565b60405180910390fd5b80600360008581526020019081526020016000206006018190555060086003600085815260200190815260200160002060080160006101000a81548160ff02191690836008811115611a9d57611a9c612bb5565b5b02179055506003600084815260200190815260200160002060020160009054906101000a900473ffffffffffffffffffffffffffffffffffffffff1673ffffffffffffffffffffffffffffffffffffffff16837fb068edd06fda39fbfd74738b75e0eac89183acd7e6bbca610abe317d8f18fe826003600087815260200190815260200160002060080160009054906101000a900460ff166003600088815260200190815260200160002060060154600360008981526020019081526020016000206005015487604051611b7494939291906135af565b60405180910390a3505050565b600a60009054906101000a900473ffffffffffffffffffffffffffffffffffffffff1681565b6000801b611bb4816123eb565b81611bdf7feefb95e842a3287179d933b4460be539a1d5af11aa8b325bb45c5c8dc92de4ed82611d97565b15611c2157806040517f375795b9000000000000000000000000000000000000000000000000000000008152600401611c1891906132d7565b60405180910390fd5b611c4b7f2a5f906c256a5d799494fcd066e1f6c077689de1cdb65052a1624de4bace99bf82611d97565b15611c8d57806040517f375795b9000000000000000000000000000000000000000000000000000000008152600401611c849190613351565b60405180910390fd5b611cb77ffbd454f36a7e1a388bd6fc3ab10d434aa4578f811acbbcf33afb1c697486313c82611d97565b15611cf957806040517f375795b9000000000000000000000000000000000000000000000000000000008152600401611cf091906133cb565b60405180910390fd5b600073ffffffffffffffffffffffffffffffffffffffff168173ffffffffffffffffffffffffffffffffffffffff1603611d68576040517f08c379a0000000000000000000000000000000000000000000000000000000008152600401611d5f90612e06565b60405180910390fd5b611d927f2a5f906c256a5d799494fcd066e1f6c077689de1cdb65052a1624de4bace99bf84610ea7565b505050565b600080600084815260200190815260200160002060000160008373ffffffffffffffffffffffffffffffffffffffff1673ffffffffffffffffffffffffffffffffffffffff16815260200190815260200160002060009054906101000a900460ff16905092915050565b7feefb95e842a3287179d933b4460be539a1d5af11aa8b325bb45c5c8dc92de4ed81565b6000801b611e32816123eb565b600073ffffffffffffffffffffffffffffffffffffffff168273ffffffffffffffffffffffffffffffffffffffff1603611ea1576040517f08c379a0000000000000000000000000000000000000000000000000000000008152600401611e9890613647565b60405180910390fd5b60018060008473ffffffffffffffffffffffffffffffffffffffff1673ffffffffffffffffffffffffffffffffffffffff16815260200190815260200160002060006101000a81548160ff021916908315150217905550611f227feefb95e842a3287179d933b4460be539a1d5af11aa8b325bb45c5c8dc92de4ed836124f8565b50611f4d7ffbd454f36a7e1a388bd6fc3ab10d434aa4578f811acbbcf33afb1c697486313c836124f8565b50611f787f2a5f906c256a5d799494fcd066e1f6c077689de1cdb65052a1624de4bace99bf836124f8565b507f90811a8edd3b3c17eeaefffc17f639cc69145d41a359c9843994dc253820369082604051611fa89190612b9a565b60405180910390a15050565b60036020528060005260406000206000915090508060000154908060010160009054906101000a900473ffffffffffffffffffffffffffffffffffffffff16908060020160009054906101000a900473ffffffffffffffffffffffffffffffffffffffff16908060030160009054906101000a900473ffffffffffffffffffffffffffffffffffffffff16908060040154908060050154908060060154908060070154908060080160009054906101000a900460ff16908060080160019054906101000a900473ffffffffffffffffffffffffffffffffffffffff1690508a565b600760009054906101000a900473ffffffffffffffffffffffffffffffffffffffff1681565b60046020528060005260406000206000915090508060000154908060010154908060020160009054906101000a900473ffffffffffffffffffffffffffffffffffffffff16908060020160149054906101000a900460ff16908060020160159054906101000a900460ff169080600301805461213690613231565b80601f016020809104026020016040519081016040528092919081815260200182805461216290613231565b80156121af5780601f10612184576101008083540402835291602001916121af565b820191906000526020600020905b81548152906001019060200180831161219257829003601f168201915b5050505050905086565b6000801b81565b6000801b6121cd816123eb565b600073ffffffffffffffffffffffffffffffffffffffff168273ffffffffffffffffffffffffffffffffffffffff160361223c576040517f08c379a0000000000000000000000000000000000000000000000000000000008152600401612233906136b3565b60405180910390fd5b6000600160008473ffffffffffffffffffffffffffffffffffffffff1673ffffffffffffffffffffffffffffffffffffffff16815260200190815260200160002060006101000a81548160ff0219169083151502179055507fc3776b472ebf54114339eec9e4dc924e7ce307a97f5c1ee72b6d474e6e5e8b7c826040516122c39190612b9a565b60405180910390a15050565b600960009054906101000a900473ffffffffffffffffffffffffffffffffffffffff1681565b6122fe82610e88565b612307816123eb565b61231183836124f8565b50505050565b600860009054906101000a900473ffffffffffffffffffffffffffffffffffffffff1681565b60016020528060005260406000206000915054906101000a900460ff1681565b7ffbd454f36a7e1a388bd6fc3ab10d434aa4578f811acbbcf33afb1c697486313c81565b60007f01ffc9a7000000000000000000000000000000000000000000000000000000007bffffffffffffffffffffffffffffffffffffffffffffffffffffffff1916827bffffffffffffffffffffffffffffffffffffffffffffffffffffffff1916149050919050565b6123fc816123f76124f0565b6125ea565b50565b600061240b8383611d97565b6124e557600160008085815260200190815260200160002060000160008473ffffffffffffffffffffffffffffffffffffffff1673ffffffffffffffffffffffffffffffffffffffff16815260200190815260200160002060006101000a81548160ff0219169083151502179055506124826124f0565b73ffffffffffffffffffffffffffffffffffffffff168273ffffffffffffffffffffffffffffffffffffffff16847f2f8788117e7eff1d82e926ec794901d17c78024a50270940304540a733656f0d60405160405180910390a4600190506124ea565b600090505b92915050565b600033905090565b60006125048383611d97565b156125df57600080600085815260200190815260200160002060000160008473ffffffffffffffffffffffffffffffffffffffff1673ffffffffffffffffffffffffffffffffffffffff16815260200190815260200160002060006101000a81548160ff02191690831515021790555061257c6124f0565b73ffffffffffffffffffffffffffffffffffffffff168273ffffffffffffffffffffffffffffffffffffffff16847ff6391f5c32d9c69d2a47ea670b442974b53935d1edc7fd64eb21e047a839171b60405160405180910390a4600190506125e4565b600090505b92915050565b6125f48282611d97565b6126375780826040517fe2517d3f00000000000000000000000000000000000000000000000000000000815260040161262e9291906136d3565b60405180910390fd5b5050565b6000604051905090565b600080fd5b600080fd5b60007fffffffff0000000000000000000000000000000000000000000000000000000082169050919050565b6126848161264f565b811461268f57600080fd5b50565b6000813590506126a18161267b565b92915050565b6000602082840312156126bd576126bc612645565b5b60006126cb84828501612692565b91505092915050565b60008115159050919050565b6126e9816126d4565b82525050565b600060208201905061270460008301846126e0565b92915050565b6000819050919050565b61271d8161270a565b82525050565b60006020820190506127386000830184612714565b92915050565b6000819050919050565b6127518161273e565b811461275c57600080fd5b50565b60008135905061276e81612748565b92915050565b600073ffffffffffffffffffffffffffffffffffffffff82169050919050565b600061279f82612774565b9050919050565b6127af81612794565b81146127ba57600080fd5b50565b6000813590506127cc816127a6565b92915050565b600080604083850312156127e9576127e8612645565b5b60006127f78582860161275f565b9250506020612808858286016127bd565b9150509250929050565b61281b8161273e565b82525050565b60006020820190506128366000830184612812565b92915050565b60006020828403121561285257612851612645565b5b60006128608482850161275f565b91505092915050565b6128728161270a565b811461287d57600080fd5b50565b60008135905061288f81612869565b92915050565b6000602082840312156128ab576128aa612645565b5b60006128b984828501612880565b91505092915050565b6128cb81612794565b82525050565b600081519050919050565b600082825260208201905092915050565b60005b8381101561290b5780820151818401526020810190506128f0565b60008484015250505050565b6000601f19601f8301169050919050565b6000612933826128d1565b61293d81856128dc565b935061294d8185602086016128ed565b61295681612917565b840191505092915050565b600060c0820190506129766000830189612812565b6129836020830188612714565b61299060408301876128c2565b61299d60608301866126e0565b6129aa60808301856126e0565b81810360a08301526129bc8184612928565b9050979650505050505050565b6000602082840312156129df576129de612645565b5b60006129ed848285016127bd565b91505092915050565b600080fd5b600080fd5b7f4e487b7100000000000000000000000000000000000000000000000000000000600052604160045260246000fd5b612a3882612917565b810181811067ffffffffffffffff82111715612a5757612a56612a00565b5b80604052505050565b6000612a6a61263b565b9050612a768282612a2f565b919050565b600067ffffffffffffffff821115612a9657612a95612a00565b5b612a9f82612917565b9050602081019050919050565b82818337600083830152505050565b6000612ace612ac984612a7b565b612a60565b905082815260208101848484011115612aea57612ae96129fb565b5b612af5848285612aac565b509392505050565b600082601f830112612b1257612b116129f6565b5b8135612b22848260208601612abb565b91505092915050565b600080600060608486031215612b4457612b43612645565b5b6000612b528682870161275f565b935050602084013567ffffffffffffffff811115612b7357612b7261264a565b5b612b7f86828701612afd565b9250506040612b9086828701612880565b9150509250925092565b6000602082019050612baf60008301846128c2565b92915050565b7f4e487b7100000000000000000000000000000000000000000000000000000000600052602160045260246000fd5b60098110612bf557612bf4612bb5565b5b50565b6000819050612c0682612be4565b919050565b6000612c1682612bf8565b9050919050565b612c2681612c0b565b82525050565b600061014082019050612c42600083018d612812565b612c4f602083018c6128c2565b612c5c604083018b6128c2565b612c69606083018a6128c2565b612c766080830189612714565b612c8360a0830188612714565b612c9060c0830187612714565b612c9d60e0830186612714565b612cab610100830185612c1d565b612cb96101208301846128c2565b9b9a5050505050505050505050565b6000819050919050565b6000612ced612ce8612ce384612774565b612cc8565b612774565b9050919050565b6000612cff82612cd2565b9050919050565b6000612d1182612cf4565b9050919050565b612d2181612d06565b82525050565b6000602082019050612d3c6000830184612d18565b92915050565b6000612d4d82612cf4565b9050919050565b612d5d81612d42565b82525050565b6000602082019050612d786000830184612d54565b92915050565b6000612d8982612cf4565b9050919050565b612d9981612d7e565b82525050565b6000602082019050612db46000830184612d90565b92915050565b7f4164647265737320496e76616c69640000000000000000000000000000000000600082015250565b6000612df0600f836128dc565b9150612dfb82612dba565b602082019050919050565b60006020820190508181036000830152612e1f81612de3565b9050919050565b6000604082019050612e3b6000830185612812565b612e4860208301846128c2565b9392505050565b612e58816126d4565b8114612e6357600080fd5b50565b600081519050612e7581612e4f565b92915050565b600060208284031215612e9157612e90612645565b5b6000612e9f84828501612e66565b91505092915050565b7f497473206e6f74204469737472696275746f7200000000000000000000000000600082015250565b6000612ede6013836128dc565b9150612ee982612ea8565b602082019050919050565b60006020820190508181036000830152612f0d81612ed1565b9050919050565b7f54686973206469737472696275746f72206973206e6f7420746865206f776e6560008201527f72206f6620746869732062617463680000000000000000000000000000000000602082015250565b6000612f70602f836128dc565b9150612f7b82612f14565b604082019050919050565b60006020820190508181036000830152612f9f81612f63565b9050919050565b7f4261746368206861732065787069726564000000000000000000000000000000600082015250565b6000612fdc6011836128dc565b9150612fe782612fa6565b602082019050919050565b6000602082019050818103600083015261300b81612fcf565b9050919050565b7f426174636820697320616c72656164792070757263686173656420627920612060008201527f72657461696c6572000000000000000000000000000000000000000000000000602082015250565b600061306e6028836128dc565b915061307982613012565b604082019050919050565b6000602082019050818103600083015261309d81613061565b9050919050565b7f496e73696666696369656e74205061796d656e74000000000000000000000000600082015250565b60006130da6014836128dc565b91506130e5826130a4565b602082019050919050565b60006020820190508181036000830152613109816130cd565b9050919050565b7f4261746368206973206e6f7420617661696c61626c6520666f7220726573656c60008201527f6c00000000000000000000000000000000000000000000000000000000000000602082015250565b600061316c6021836128dc565b915061317782613110565b604082019050919050565b6000602082019050818103600083015261319b8161315f565b9050919050565b60006040820190506131b760008301856128c2565b6131c460208301846128c2565b9392505050565b60006060820190506131e06000830186612c1d565b6131ed6020830185612714565b6131fa6040830184612714565b949350505050565b7f4e487b7100000000000000000000000000000000000000000000000000000000600052602260045260246000fd5b6000600282049050600182168061324957607f821691505b60208210810361325c5761325b613202565b5b50919050565b600060408201905061327760008301856128c2565b6132846020830184612714565b9392505050565b7f4d616e7566616374757265720000000000000000000000000000000000000000600082015250565b60006132c1600c836128dc565b91506132cc8261328b565b602082019050919050565b600060408201905081810360008301526132f0816132b4565b90506132ff60208301846128c2565b92915050565b7f52657461696c6572000000000000000000000000000000000000000000000000600082015250565b600061333b6008836128dc565b915061334682613305565b602082019050919050565b6000604082019050818103600083015261336a8161332e565b905061337960208301846128c2565b92915050565b7f4469737472696275746f72000000000000000000000000000000000000000000600082015250565b60006133b5600b836128dc565b91506133c08261337f565b602082019050919050565b600060408201905081810360008301526133e4816133a8565b90506133f360208301846128c2565b92915050565b7f596f7520617265206e6f7420746865206f776e6572206f66207468697320626160008201527f7463680000000000000000000000000000000000000000000000000000000000602082015250565b60006134556023836128dc565b9150613460826133f9565b604082019050919050565b6000602082019050818103600083015261348481613448565b9050919050565b7f4e6577207072696365206d7573742062652067726561746572207468616e207a60008201527f65726f20616e642070726576696f757320707269636500000000000000000000602082015250565b60006134e76036836128dc565b91506134f28261348b565b604082019050919050565b60006020820190508181036000830152613516816134da565b9050919050565b7f4261746368206973206e6f74206f776e6564206279206469737472696275746f60008201527f7200000000000000000000000000000000000000000000000000000000000000602082015250565b60006135796021836128dc565b91506135848261351d565b604082019050919050565b600060208201905081810360008301526135a88161356c565b9050919050565b60006080820190506135c46000830187612c1d565b6135d16020830186612714565b6135de6040830185612714565b81810360608301526135f08184612928565b905095945050505050565b7f43616e6e6f7420667265657a6520746865207a65726f20616464726573730000600082015250565b6000613631601e836128dc565b915061363c826135fb565b602082019050919050565b6000602082019050818103600083015261366081613624565b9050919050565b7f43616e6e6f7420756e667265657a6520746865207a65726f2061646472657373600082015250565b600061369d6020836128dc565b91506136a882613667565b602082019050919050565b600060208201905081810360008301526136cc81613690565b9050919050565b60006040820190506136e860008301856128c2565b6136f56020830184612812565b939250505056fea26469706673582212205a211189ba60227cd1944577a4bbae61064dd8f079f76915f457952686f112a364736f6c634300081c0033",
  "linkReferences": {},
  "deployedLinkReferences": {}
}