{
  "_format": "hh-sol-artifact-1",
  "contractName": "ResellMechanism",
  "sourceName": "contracts/ResellMechanism.sol",
  "abi": [
    {
      "inputs": [
        {
          "internalType": "address",
          "name": "priceFeedAddress",
          "type": "address"
        },
        {
          "internalType": "address",
          "name": "escrowAddress",
          "type": "address"
        },
        {
          "internalType": "address",
          "name": "handlingAddresses",
          "type": "address"
        }
      ],
      "stateMutability": "nonpayable",
      "type": "constructor"
    },
    {
      "inputs": [],
      "name": "AccessControlBadConfirmation",
      "type": "error"
    },
    {
      "inputs": [
        {
          "internalType": "address",
          "name": "account",
          "type": "address"
        },
        {
          "internalType": "bytes32",
          "name": "neededRole",
          "type": "bytes32"
        }
      ],
      "name": "AccessControlUnauthorizedAccount",
      "type": "error"
    },
    {
      "inputs": [
        {
          "internalType": "string",
          "name": "role",
          "type": "string"
        },
        {
          "internalType": "address",
          "name": "account",
          "type": "address"
        }
      ],
      "name": "AddressAlreadyExists",
      "type": "error"
    },
    {
      "inputs": [
        {
          "internalType": "address",
          "name": "account",
          "type": "address"
        }
      ],
      "name": "AddressInvalid",
      "type": "error"
    },
    {
      "inputs": [
        {
          "internalType": "uint256",
          "name": "_usdAmount",
          "type": "uint256"
        }
      ],
      "name": "InvalidAmount",
      "type": "error"
    },
    {
      "anonymous": false,
      "inputs": [
        {
          "indexed": false,
          "internalType": "address",
          "name": "account",
          "type": "address"
        }
      ],
      "name": "AddressFrozen",
      "type": "event"
    },
    {
      "anonymous": false,
      "inputs": [
        {
          "indexed": false,
          "internalType": "address",
          "name": "account",
          "type": "address"
        }
      ],
      "name": "AddressUnfrozen",
      "type": "event"
    },
    {
      "anonymous": false,
      "inputs": [
        {
          "indexed": true,
          "internalType": "bytes32",
          "name": "batchId",
          "type": "bytes32"
        },
        {
          "indexed": false,
          "internalType": "uint256",
          "name": "timestamp",
          "type": "uint256"
        }
      ],
      "name": "BatchCreated",
      "type": "event"
    },
    {
      "anonymous": false,
      "inputs": [
        {
          "indexed": true,
          "internalType": "bytes32",
          "name": "batchId",
          "type": "bytes32"
        },
        {
          "indexed": false,
          "internalType": "address",
          "name": "distributor",
          "type": "address"
        },
        {
          "indexed": false,
          "internalType": "enum DrugSupplyChain.BatchStatus",
          "name": "statusEnum",
          "type": "uint8"
        },
        {
          "indexed": false,
          "internalType": "uint256",
          "name": "price",
          "type": "uint256"
        },
        {
          "indexed": false,
          "internalType": "uint256",
          "name": "timestamp",
          "type": "uint256"
        }
      ],
      "name": "DistributerPurchased",
      "type": "event"
    },
    {
      "anonymous": false,
      "inputs": [
        {
          "indexed": true,
          "internalType": "bytes32",
          "name": "batchId",
          "type": "bytes32"
        },
        {
          "indexed": false,
          "internalType": "enum DrugSupplyChain.BatchStatus",
          "name": "statusEnum",
          "type": "uint8"
        },
        {
          "indexed": true,
          "internalType": "address",
          "name": "distributor",
          "type": "address"
        },
        {
          "indexed": false,
          "internalType": "uint256",
          "name": "price",
          "type": "uint256"
        },
        {
          "indexed": false,
          "internalType": "uint256",
          "name": "timestamp",
          "type": "uint256"
        },
        {
          "indexed": false,
          "internalType": "string",
          "name": "reason",
          "type": "string"
        }
      ],
      "name": "EligibleForResell",
      "type": "event"
    },
    {
      "anonymous": false,
      "inputs": [
        {
          "indexed": true,
          "internalType": "bytes32",
          "name": "batchId",
          "type": "bytes32"
        },
        {
          "indexed": true,
          "internalType": "address",
          "name": "to",
          "type": "address"
        },
        {
          "indexed": true,
          "internalType": "uint256",
          "name": "timestamp",
          "type": "uint256"
        },
        {
          "indexed": false,
          "internalType": "bool",
          "name": "refunded",
          "type": "bool"
        },
        {
          "indexed": false,
          "internalType": "string",
          "name": "reason",
          "type": "string"
        }
      ],
      "name": "Refunded",
      "type": "event"
    },
    {
      "anonymous": false,
      "inputs": [
        {
          "indexed": true,
          "internalType": "bytes32",
          "name": "batchId",
          "type": "bytes32"
        },
        {
          "indexed": true,
          "internalType": "address",
          "name": "requester",
          "type": "address"
        },
        {
          "indexed": true,
          "internalType": "uint256",
          "name": "timestamp",
          "type": "uint256"
        },
        {
          "indexed": false,
          "internalType": "bool",
          "name": "approved",
          "type": "bool"
        },
        {
          "indexed": false,
          "internalType": "string",
          "name": "reason",
          "type": "string"
        }
      ],
      "name": "RequestApproved",
      "type": "event"
    },
    {
      "anonymous": false,
      "inputs": [
        {
          "indexed": true,
          "internalType": "bytes32",
          "name": "batchId",
          "type": "bytes32"
        },
        {
          "indexed": false,
          "internalType": "enum DrugSupplyChain.BatchStatus",
          "name": "statusEnum",
          "type": "uint8"
        },
        {
          "indexed": true,
          "internalType": "address",
          "name": "distributor",
          "type": "address"
        },
        {
          "indexed": false,
          "internalType": "uint256",
          "name": "price",
          "type": "uint256"
        },
        {
          "indexed": false,
          "internalType": "uint256",
          "name": "timestamp",
          "type": "uint256"
        }
      ],
      "name": "ResellingDone",
      "type": "event"
    },
    {
      "anonymous": false,
      "inputs": [
        {
          "indexed": true,
          "internalType": "bytes32",
          "name": "batchId",
          "type": "bytes32"
        },
        {
          "indexed": false,
          "internalType": "address",
          "name": "retailer",
          "type": "address"
        },
        {
          "indexed": false,
          "internalType": "enum DrugSupplyChain.BatchStatus",
          "name": "statusEnum",
          "type": "uint8"
        },
        {
          "indexed": false,
          "internalType": "uint256",
          "name": "price",
          "type": "uint256"
        },
        {
          "indexed": false,
          "internalType": "uint256",
          "name": "timestamp",
          "type": "uint256"
        }
      ],
      "name": "RetailerPurchased",
      "type": "event"
    },
    {
      "anonymous": false,
      "inputs": [
        {
          "indexed": true,
          "internalType": "bytes32",
          "name": "batchId",
          "type": "bytes32"
        },
        {
          "indexed": true,
          "internalType": "uint256",
          "name": "timestamp",
          "type": "uint256"
        },
        {
          "indexed": true,
          "internalType": "address",
          "name": "requester",
          "type": "address"
        },
        {
          "indexed": false,
          "internalType": "bool",
          "name": "approved",
          "type": "bool"
        },
        {
          "indexed": false,
          "internalType": "bool",
          "name": "refunded",
          "type": "bool"
        },
        {
          "indexed": false,
          "internalType": "string",
          "name": "reason",
          "type": "string"
        }
      ],
      "name": "ReturnRequested",
      "type": "event"
    },
    {
      "anonymous": false,
      "inputs": [
        {
          "indexed": true,
          "internalType": "bytes32",
          "name": "role",
          "type": "bytes32"
        },
        {
          "indexed": true,
          "internalType": "bytes32",
          "name": "previousAdminRole",
          "type": "bytes32"
        },
        {
          "indexed": true,
          "internalType": "bytes32",
          "name": "newAdminRole",
          "type": "bytes32"
        }
      ],
      "name": "RoleAdminChanged",
      "type": "event"
    },
    {
      "anonymous": false,
      "inputs": [
        {
          "indexed": true,
          "internalType": "bytes32",
          "name": "role",
          "type": "bytes32"
        },
        {
          "indexed": true,
          "internalType": "address",
          "name": "account",
          "type": "address"
        },
        {
          "indexed": true,
          "internalType": "address",
          "name": "sender",
          "type": "address"
        }
      ],
      "name": "RoleGranted",
      "type": "event"
    },
    {
      "anonymous": false,
      "inputs": [
        {
          "indexed": true,
          "internalType": "bytes32",
          "name": "role",
          "type": "bytes32"
        },
        {
          "indexed": true,
          "internalType": "address",
          "name": "account",
          "type": "address"
        },
        {
          "indexed": true,
          "internalType": "address",
          "name": "sender",
          "type": "address"
        }
      ],
      "name": "RoleRevoked",
      "type": "event"
    },
    {
      "inputs": [],
      "name": "DEFAULT_ADMIN_ROLE",
      "outputs": [
        {
          "internalType": "bytes32",
          "name": "",
          "type": "bytes32"
        }
      ],
      "stateMutability": "view",
      "type": "function"
    },
    {
      "inputs": [],
      "name": "DISTRIBUTOR_ROLE",
      "outputs": [
        {
          "internalType": "bytes32",
          "name": "",
          "type": "bytes32"
        }
      ],
      "stateMutability": "view",
      "type": "function"
    },
    {
      "inputs": [],
      "name": "MANUFACTURER_ROLE",
      "outputs": [
        {
          "internalType": "bytes32",
          "name": "",
          "type": "bytes32"
        }
      ],
      "stateMutability": "view",
      "type": "function"
    },
    {
      "inputs": [],
      "name": "RETAILER_ROLE",
      "outputs": [
        {
          "internalType": "bytes32",
          "name": "",
          "type": "bytes32"
        }
      ],
      "stateMutability": "view",
      "type": "function"
    },
    {
      "inputs": [
        {
          "internalType": "address",
          "name": "distributor",
          "type": "address"
        }
      ],
      "name": "addDistributor",
      "outputs": [],
      "stateMutability": "nonpayable",
      "type": "function"
    },
    {
      "inputs": [
        {
          "internalType": "address",
          "name": "manufacturer",
          "type": "address"
        }
      ],
      "name": "addManufacturer",
      "outputs": [],
      "stateMutability": "nonpayable",
      "type": "function"
    },
    {
      "inputs": [
        {
          "internalType": "address",
          "name": "retailer",
          "type": "address"
        }
      ],
      "name": "addRetailer",
      "outputs": [],
      "stateMutability": "nonpayable",
      "type": "function"
    },
    {
      "inputs": [
        {
          "internalType": "uint256",
          "name": "",
          "type": "uint256"
        }
      ],
      "name": "allBatchIds",
      "outputs": [
        {
          "internalType": "bytes32",
          "name": "",
          "type": "bytes32"
        }
      ],
      "stateMutability": "view",
      "type": "function"
    },
    {
      "inputs": [],
      "name": "batchCount",
      "outputs": [
        {
          "internalType": "uint256",
          "name": "",
          "type": "uint256"
        }
      ],
      "stateMutability": "view",
      "type": "function"
    },
    {
      "inputs": [
        {
          "internalType": "address",
          "name": "",
          "type": "address"
        }
      ],
      "name": "batchCounter",
      "outputs": [
        {
          "internalType": "uint256",
          "name": "",
          "type": "uint256"
        }
      ],
      "stateMutability": "view",
      "type": "function"
    },
    {
      "inputs": [
        {
          "internalType": "bytes32",
          "name": "",
          "type": "bytes32"
        }
      ],
      "name": "batchIdToBatch",
      "outputs": [
        {
          "internalType": "bytes32",
          "name": "batchId",
          "type": "bytes32"
        },
        {
          "internalType": "address",
          "name": "manufacturer",
          "type": "address"
        },
        {
          "internalType": "address",
          "name": "distributor",
          "type": "address"
        },
        {
          "internalType": "address",
          "name": "retailer",
          "type": "address"
        },
        {
          "internalType": "uint256",
          "name": "expiryDate",
          "type": "uint256"
        },
        {
          "internalType": "uint256",
          "name": "timestamp",
          "type": "uint256"
        },
        {
          "internalType": "uint256",
          "name": "price",
          "type": "uint256"
        },
        {
          "internalType": "uint256",
          "name": "productPrice",
          "type": "uint256"
        },
        {
          "internalType": "enum DrugSupplyChain.BatchStatus",
          "name": "statusEnum",
          "type": "uint8"
        },
        {
          "internalType": "address",
          "name": "ipfsHash",
          "type": "address"
        }
      ],
      "stateMutability": "view",
      "type": "function"
    },
    {
      "inputs": [
        {
          "internalType": "bytes32",
          "name": "_batchId",
          "type": "bytes32"
        },
        {
          "internalType": "address",
          "name": "distributor",
          "type": "address"
        }
      ],
      "name": "buyResellBatch",
      "outputs": [],
      "stateMutability": "payable",
      "type": "function"
    },
    {
      "inputs": [
        {
          "internalType": "uint256",
          "name": "_usdAmount",
          "type": "uint256"
        }
      ],
      "name": "calculateEthfromUSD",
      "outputs": [
        {
          "internalType": "uint256",
          "name": "",
          "type": "uint256"
        }
      ],
      "stateMutability": "view",
      "type": "function"
    },
    {
      "inputs": [
        {
          "internalType": "string",
          "name": "roleName",
          "type": "string"
        },
        {
          "internalType": "address",
          "name": "account",
          "type": "address"
        }
      ],
      "name": "checkRole",
      "outputs": [
        {
          "internalType": "bool",
          "name": "",
          "type": "bool"
        }
      ],
      "stateMutability": "view",
      "type": "function"
    },
    {
      "inputs": [],
      "name": "dataFeed",
      "outputs": [
        {
          "internalType": "contract AggregatorV3Interface",
          "name": "",
          "type": "address"
        }
      ],
      "stateMutability": "view",
      "type": "function"
    },
    {
      "inputs": [
        {
          "internalType": "bytes32",
          "name": "_batchId",
          "type": "bytes32"
        },
        {
          "internalType": "string",
          "name": "reason",
          "type": "string"
        },
        {
          "internalType": "uint256",
          "name": "newPrice",
          "type": "uint256"
        }
      ],
      "name": "eligibleToResell",
      "outputs": [],
      "stateMutability": "nonpayable",
      "type": "function"
    },
    {
      "inputs": [],
      "name": "escrowContract",
      "outputs": [
        {
          "internalType": "contract Escrow",
          "name": "",
          "type": "address"
        }
      ],
      "stateMutability": "view",
      "type": "function"
    },
    {
      "inputs": [
        {
          "internalType": "address",
          "name": "account",
          "type": "address"
        }
      ],
      "name": "frozeAddress",
      "outputs": [],
      "stateMutability": "nonpayable",
      "type": "function"
    },
    {
      "inputs": [
        {
          "internalType": "bytes32",
          "name": "role",
          "type": "bytes32"
        }
      ],
      "name": "getRoleAdmin",
      "outputs": [
        {
          "internalType": "bytes32",
          "name": "",
          "type": "bytes32"
        }
      ],
      "stateMutability": "view",
      "type": "function"
    },
    {
      "inputs": [
        {
          "internalType": "bytes32",
          "name": "role",
          "type": "bytes32"
        },
        {
          "internalType": "address",
          "name": "account",
          "type": "address"
        }
      ],
      "name": "grantRole",
      "outputs": [],
      "stateMutability": "nonpayable",
      "type": "function"
    },
    {
      "inputs": [],
      "name": "handlingAddresses",
      "outputs": [
        {
          "internalType": "contract HandlingAddresses",
          "name": "",
          "type": "address"
        }
      ],
      "stateMutability": "view",
      "type": "function"
    },
    {
      "inputs": [
        {
          "internalType": "bytes32",
          "name": "role",
          "type": "bytes32"
        },
        {
          "internalType": "address",
          "name": "account",
          "type": "address"
        }
      ],
      "name": "hasRole",
      "outputs": [
        {
          "internalType": "bool",
          "name": "",
          "type": "bool"
        }
      ],
      "stateMutability": "view",
      "type": "function"
    },
    {
      "inputs": [
        {
          "internalType": "address",
          "name": "",
          "type": "address"
        }
      ],
      "name": "isFrozen",
      "outputs": [
        {
          "internalType": "bool",
          "name": "",
          "type": "bool"
        }
      ],
      "stateMutability": "view",
      "type": "function"
    },
    {
      "inputs": [],
      "name": "owner",
      "outputs": [
        {
          "internalType": "address",
          "name": "",
          "type": "address"
        }
      ],
      "stateMutability": "view",
      "type": "function"
    },
    {
      "inputs": [
        {
          "internalType": "address",
          "name": "",
          "type": "address"
        },
        {
          "internalType": "uint256",
          "name": "",
          "type": "uint256"
        }
      ],
      "name": "ownerToBatches",
      "outputs": [
        {
          "internalType": "bytes32",
          "name": "",
          "type": "bytes32"
        }
      ],
      "stateMutability": "view",
      "type": "function"
    },
    {
      "inputs": [
        {
          "internalType": "uint256",
          "name": "",
          "type": "uint256"
        }
      ],
      "name": "pendingRequests",
      "outputs": [
        {
          "internalType": "bytes32",
          "name": "batchId",
          "type": "bytes32"
        },
        {
          "internalType": "uint256",
          "name": "timestamp",
          "type": "uint256"
        },
        {
          "internalType": "address",
          "name": "requester",
          "type": "address"
        },
        {
          "internalType": "bool",
          "name": "refunded",
          "type": "bool"
        },
        {
          "internalType": "bool",
          "name": "approved",
          "type": "bool"
        },
        {
          "internalType": "string",
          "name": "reason",
          "type": "string"
        }
      ],
      "stateMutability": "view",
      "type": "function"
    },
    {
      "inputs": [
        {
          "internalType": "address",
          "name": "distributor",
          "type": "address"
        }
      ],
      "name": "removeDistributor",
      "outputs": [],
      "stateMutability": "nonpayable",
      "type": "function"
    },
    {
      "inputs": [
        {
          "internalType": "address",
          "name": "manufacturer",
          "type": "address"
        }
      ],
      "name": "removeManufacturer",
      "outputs": [],
      "stateMutability": "nonpayable",
      "type": "function"
    },
    {
      "inputs": [
        {
          "internalType": "address",
          "name": "retailer",
          "type": "address"
        }
      ],
      "name": "removeRetailer",
      "outputs": [],
      "stateMutability": "nonpayable",
      "type": "function"
    },
    {
      "inputs": [
        {
          "internalType": "bytes32",
          "name": "role",
          "type": "bytes32"
        },
        {
          "internalType": "address",
          "name": "callerConfirmation",
          "type": "address"
        }
      ],
      "name": "renounceRole",
      "outputs": [],
      "stateMutability": "nonpayable",
      "type": "function"
    },
    {
      "inputs": [
        {
          "internalType": "bytes32",
          "name": "",
          "type": "bytes32"
        }
      ],
      "name": "returnRequests",
      "outputs": [
        {
          "internalType": "bytes32",
          "name": "batchId",
          "type": "bytes32"
        },
        {
          "internalType": "uint256",
          "name": "timestamp",
          "type": "uint256"
        },
        {
          "internalType": "address",
          "name": "requester",
          "type": "address"
        },
        {
          "internalType": "bool",
          "name": "refunded",
          "type": "bool"
        },
        {
          "internalType": "bool",
          "name": "approved",
          "type": "bool"
        },
        {
          "internalType": "string",
          "name": "reason",
          "type": "string"
        }
      ],
      "stateMutability": "view",
      "type": "function"
    },
    {
      "inputs": [
        {
          "internalType": "bytes32",
          "name": "role",
          "type": "bytes32"
        },
        {
          "internalType": "address",
          "name": "account",
          "type": "address"
        }
      ],
      "name": "revokeRole",
      "outputs": [],
      "stateMutability": "nonpayable",
      "type": "function"
    },
    {
      "inputs": [
        {
          "internalType": "bytes4",
          "name": "interfaceId",
          "type": "bytes4"
        }
      ],
      "name": "supportsInterface",
      "outputs": [
        {
          "internalType": "bool",
          "name": "",
          "type": "bool"
        }
      ],
      "stateMutability": "view",
      "type": "function"
    },
    {
      "inputs": [
        {
          "internalType": "address",
          "name": "account",
          "type": "address"
        }
      ],
      "name": "unfreezeAddress",
      "outputs": [],
      "stateMutability": "nonpayable",
      "type": "function"
    },
    {
      "inputs": [],
      "name": "withdraw",
      "outputs": [],
      "stateMutability": "nonpayable",
      "type": "function"
    }
  ],
  "bytecode": "0x608060405234801561001057600080fd5b5060405161423b38038061423b8339818101604052810190610032919061032a565b8282826100486000801b3361015860201b60201c565b5033600c60006101000a81548173ffffffffffffffffffffffffffffffffffffffff021916908373ffffffffffffffffffffffffffffffffffffffff16021790555081600a60006101000a81548173ffffffffffffffffffffffffffffffffffffffff021916908373ffffffffffffffffffffffffffffffffffffffff16021790555082600960006101000a81548173ffffffffffffffffffffffffffffffffffffffff021916908373ffffffffffffffffffffffffffffffffffffffff16021790555080600b60006101000a81548173ffffffffffffffffffffffffffffffffffffffff021916908373ffffffffffffffffffffffffffffffffffffffff16021790555050505050505061037d565b600061016a838361025560201b60201c565b61024a57600160008085815260200190815260200160002060000160008473ffffffffffffffffffffffffffffffffffffffff1673ffffffffffffffffffffffffffffffffffffffff16815260200190815260200160002060006101000a81548160ff0219169083151502179055506101e76102bf60201b60201c565b73ffffffffffffffffffffffffffffffffffffffff168273ffffffffffffffffffffffffffffffffffffffff16847f2f8788117e7eff1d82e926ec794901d17c78024a50270940304540a733656f0d60405160405180910390a46001905061024f565b600090505b92915050565b600080600084815260200190815260200160002060000160008373ffffffffffffffffffffffffffffffffffffffff1673ffffffffffffffffffffffffffffffffffffffff16815260200190815260200160002060009054906101000a900460ff16905092915050565b600033905090565b600080fd5b600073ffffffffffffffffffffffffffffffffffffffff82169050919050565b60006102f7826102cc565b9050919050565b610307816102ec565b811461031257600080fd5b50565b600081519050610324816102fe565b92915050565b600080600060608486031215610343576103426102c7565b5b600061035186828701610315565b935050602061036286828701610315565b925050604061037386828701610315565b9150509250925092565b613eaf8061038c6000396000f3fe6080604052600436106102045760003560e01c80637250e224116101185780639fb65529116100a0578063cf30c7051161006f578063cf30c705146107a1578063d547741f146107de578063e42a96e714610807578063e583983614610832578063f0bd87cc1461086f57610204565b80639fb65529146106e0578063a217fddf14610722578063bfb805471461074d578063c1c460a61461077657610204565b806391d14854116100e757806391d14854146105de578063965288b01461061b57806399fd9cfb146106465780639de7c3b71461066f5780639e42ff90146106b557610204565b80637250e224146105385780637e77e661146105615780638da5cb5b1461058a5780638ec4f505146105b557610204565b80633c652a9a1161019b578063606b5c421161016a578063606b5c421461042f5780636a0f9f701461046c5780636a75323f146104a957806370099ec8146104d25780637026fe9c146104fb57610204565b80633c652a9a146103845780633ccfd60b146103c657806357c1f9e2146103dd5780635f8a5afa1461040657610204565b8063248a9ca3116101d7578063248a9ca3146102b8578063290b17ec146102f55780632f2ff15d1461033257806336568abe1461035b57610204565b806301ffc9a71461020957806306f13056146102465780631b18faa9146102715780632115e7bf1461028d575b600080fd5b34801561021557600080fd5b50610230600480360381019061022b9190612ad7565b61089a565b60405161023d9190612b1f565b60405180910390f35b34801561025257600080fd5b5061025b610914565b6040516102689190612b53565b60405180910390f35b61028b60048036038101906102869190612c02565b61091a565b005b34801561029957600080fd5b506102a2610f84565b6040516102af9190612c51565b60405180910390f35b3480156102c457600080fd5b506102df60048036038101906102da9190612c6c565b610fa8565b6040516102ec9190612c51565b60405180910390f35b34801561030157600080fd5b5061031c60048036038101906103179190612cc5565b610fc7565b6040516103299190612c51565b60405180910390f35b34801561033e57600080fd5b5061035960048036038101906103549190612c02565b610feb565b005b34801561036757600080fd5b50610382600480360381019061037d9190612c02565b61100d565b005b34801561039057600080fd5b506103ab60048036038101906103a69190612cc5565b611088565b6040516103bd96959493929190612d91565b60405180910390f35b3480156103d257600080fd5b506103db611196565b005b3480156103e957600080fd5b5061040460048036038101906103ff9190612df9565b6112c9565b005b34801561041257600080fd5b5061042d60048036038101906104289190612df9565b611304565b005b34801561043b57600080fd5b5061045660048036038101906104519190612cc5565b6114f4565b6040516104639190612b53565b60405180910390f35b34801561047857600080fd5b50610493600480360381019061048e9190612df9565b6115b9565b6040516104a09190612b53565b60405180910390f35b3480156104b557600080fd5b506104d060048036038101906104cb9190612df9565b6115d1565b005b3480156104de57600080fd5b506104f960048036038101906104f49190612df9565b61160c565b005b34801561050757600080fd5b50610522600480360381019061051d9190612f5b565b611647565b60405161052f9190612b1f565b60405180910390f35b34801561054457600080fd5b5061055f600480360381019061055a9190612df9565b61179c565b005b34801561056d57600080fd5b5061058860048036038101906105839190612fb7565b61198c565b005b34801561059657600080fd5b5061059f611edf565b6040516105ac9190613026565b60405180910390f35b3480156105c157600080fd5b506105dc60048036038101906105d79190612df9565b611f05565b005b3480156105ea57600080fd5b5061060560048036038101906106009190612c02565b6120f5565b6040516106129190612b1f565b60405180910390f35b34801561062757600080fd5b5061063061215f565b60405161063d9190612c51565b60405180910390f35b34801561065257600080fd5b5061066d60048036038101906106689190612df9565b612183565b005b34801561067b57600080fd5b5061069660048036038101906106919190612c6c565b612312565b6040516106ac9a999897969594939291906130b8565b60405180910390f35b3480156106c157600080fd5b506106ca6123f3565b6040516106d791906131b3565b60405180910390f35b3480156106ec57600080fd5b5061070760048036038101906107029190612c6c565b612419565b60405161071996959493929190612d91565b60405180910390f35b34801561072e57600080fd5b50610737612517565b6040516107449190612c51565b60405180910390f35b34801561075957600080fd5b50610774600480360381019061076f9190612df9565b61251e565b005b34801561078257600080fd5b5061078b61262d565b60405161079891906131ef565b60405180910390f35b3480156107ad57600080fd5b506107c860048036038101906107c3919061320a565b612653565b6040516107d59190612c51565b60405180910390f35b3480156107ea57600080fd5b5061080560048036038101906108009190612c02565b612684565b005b34801561081357600080fd5b5061081c6126a6565b604051610829919061326b565b60405180910390f35b34801561083e57600080fd5b5061085960048036038101906108549190612df9565b6126cc565b6040516108669190612b1f565b60405180910390f35b34801561087b57600080fd5b506108846126ec565b6040516108919190612c51565b60405180910390f35b60007f7965db0b000000000000000000000000000000000000000000000000000000007bffffffffffffffffffffffffffffffffffffffffffffffffffffffff1916827bffffffffffffffffffffffffffffffffffffffffffffffffffffffff1916148061090d575061090c82612710565b5b9050919050565b60085481565b600160003373ffffffffffffffffffffffffffffffffffffffff1673ffffffffffffffffffffffffffffffffffffffff16815260200190815260200160002060009054906101000a900460ff16156109a7576040517f08c379a000000000000000000000000000000000000000000000000000000000815260040161099e906132d2565b60405180910390fd5b600b60009054906101000a900473ffffffffffffffffffffffffffffffffffffffff1673ffffffffffffffffffffffffffffffffffffffff166391d148547ffbd454f36a7e1a388bd6fc3ab10d434aa4578f811acbbcf33afb1c697486313c336040518363ffffffff1660e01b8152600401610a249291906132f2565b602060405180830381865afa158015610a41573d6000803e3d6000fd5b505050506040513d601f19601f82011682018060405250810190610a659190613347565b610aa4576040517f08c379a0000000000000000000000000000000000000000000000000000000008152600401610a9b906133c0565b60405180910390fd5b8073ffffffffffffffffffffffffffffffffffffffff166003600084815260200190815260200160002060020160009054906101000a900473ffffffffffffffffffffffffffffffffffffffff1673ffffffffffffffffffffffffffffffffffffffff1614610b48576040517f08c379a0000000000000000000000000000000000000000000000000000000008152600401610b3f90613452565b60405180910390fd5b42600360008481526020019081526020016000206004015411610ba0576040517f08c379a0000000000000000000000000000000000000000000000000000000008152600401610b97906134be565b60405180910390fd5b600073ffffffffffffffffffffffffffffffffffffffff166003600084815260200190815260200160002060030160009054906101000a900473ffffffffffffffffffffffffffffffffffffffff1673ffffffffffffffffffffffffffffffffffffffff1614610c45576040517f08c379a0000000000000000000000000000000000000000000000000000000008152600401610c3c90613550565b60405180910390fd5b600034111580610c6a5750600360008381526020019081526020016000206006015434105b15610caa576040517f08c379a0000000000000000000000000000000000000000000000000000000008152600401610ca1906135bc565b60405180910390fd5b600880811115610cbd57610cbc613041565b5b6003600084815260200190815260200160002060080160009054906101000a900460ff166008811115610cf357610cf2613041565b5b14610d33576040517f08c379a0000000000000000000000000000000000000000000000000000000008152600401610d2a9061364e565b60405180910390fd5b600a60009054906101000a900473ffffffffffffffffffffffffffffffffffffffff1673ffffffffffffffffffffffffffffffffffffffff1663ad7fadc534336003600087815260200190815260200160002060020160009054906101000a900473ffffffffffffffffffffffffffffffffffffffff166040518463ffffffff1660e01b8152600401610dc792919061366e565b6000604051808303818588803b158015610de057600080fd5b505af1158015610df4573d6000803e3d6000fd5b505050505042600360008481526020019081526020016000206005018190555060016003600084815260200190815260200160002060080160006101000a81548160ff02191690836008811115610e4e57610e4d613041565b5b0217905550336003600084815260200190815260200160002060020160006101000a81548173ffffffffffffffffffffffffffffffffffffffff021916908373ffffffffffffffffffffffffffffffffffffffff1602179055506003600083815260200190815260200160002060020160009054906101000a900473ffffffffffffffffffffffffffffffffffffffff1673ffffffffffffffffffffffffffffffffffffffff16827f4238cf66c2ffaa0c9ebebbaf229457729c234840b2e9790c74ef1fd800c678a26003600086815260200190815260200160002060080160009054906101000a900460ff1660036000878152602001908152602001600020600601546003600088815260200190815260200160002060050154604051610f7893929190613697565b60405180910390a35050565b7f2a5f906c256a5d799494fcd066e1f6c077689de1cdb65052a1624de4bace99bf81565b6000806000838152602001908152602001600020600101549050919050565b60078181548110610fd757600080fd5b906000526020600020016000915090505481565b610ff482610fa8565b610ffd8161277a565b611007838361278e565b50505050565b61101561287f565b73ffffffffffffffffffffffffffffffffffffffff168173ffffffffffffffffffffffffffffffffffffffff1614611079576040517f6697b23200000000000000000000000000000000000000000000000000000000815260040160405180910390fd5b6110838282612887565b505050565b6006818154811061109857600080fd5b90600052602060002090600402016000915090508060000154908060010154908060020160009054906101000a900473ffffffffffffffffffffffffffffffffffffffff16908060020160149054906101000a900460ff16908060020160159054906101000a900460ff1690806003018054611113906136fd565b80601f016020809104026020016040519081016040528092919081815260200182805461113f906136fd565b801561118c5780601f106111615761010080835404028352916020019161118c565b820191906000526020600020905b81548152906001019060200180831161116f57829003601f168201915b5050505050905086565b600b60009054906101000a900473ffffffffffffffffffffffffffffffffffffffff1673ffffffffffffffffffffffffffffffffffffffff166391d148546000801b336040518363ffffffff1660e01b81526004016111f69291906132f2565b602060405180830381865afa158015611213573d6000803e3d6000fd5b505050506040513d601f19601f820116820180604052508101906112379190613347565b50600a60009054906101000a900473ffffffffffffffffffffffffffffffffffffffff1673ffffffffffffffffffffffffffffffffffffffff16630357371d33476040518363ffffffff1660e01b815260040161129592919061372e565b600060405180830381600087803b1580156112af57600080fd5b505af11580156112c3573d6000803e3d6000fd5b50505050565b6000801b6112d68161277a565b6113007ffbd454f36a7e1a388bd6fc3ab10d434aa4578f811acbbcf33afb1c697486313c83612684565b5050565b6000801b6113118161277a565b8161133c7feefb95e842a3287179d933b4460be539a1d5af11aa8b325bb45c5c8dc92de4ed826120f5565b1561137e57806040517f375795b900000000000000000000000000000000000000000000000000000000815260040161137591906137a3565b60405180910390fd5b6113a87f2a5f906c256a5d799494fcd066e1f6c077689de1cdb65052a1624de4bace99bf826120f5565b156113ea57806040517f375795b90000000000000000000000000000000000000000000000000000000081526004016113e1919061381d565b60405180910390fd5b6114147ffbd454f36a7e1a388bd6fc3ab10d434aa4578f811acbbcf33afb1c697486313c826120f5565b1561145657806040517f375795b900000000000000000000000000000000000000000000000000000000815260040161144d9190613897565b60405180910390fd5b600073ffffffffffffffffffffffffffffffffffffffff168173ffffffffffffffffffffffffffffffffffffffff16036114c5576040517f08c379a00000000000000000000000000000000000000000000000000000000081526004016114bc906132d2565b60405180910390fd5b6114ef7feefb95e842a3287179d933b4460be539a1d5af11aa8b325bb45c5c8dc92de4ed84610feb565b505050565b6000806114ff612979565b905060008111611544576040517f08c379a000000000000000000000000000000000000000000000000000000000815260040161153b90613911565b60405180910390fd5b6000831161158957826040517f3728b83d0000000000000000000000000000000000000000000000000000000081526004016115809190612b53565b60405180910390fd5b6000816a52b7d2dcc80cd2e4000000856115a39190613960565b6115ad91906139d1565b90508092505050919050565b60026020528060005260406000206000915090505481565b6000801b6115de8161277a565b6116087feefb95e842a3287179d933b4460be539a1d5af11aa8b325bb45c5c8dc92de4ed83612684565b5050565b6000801b6116198161277a565b6116437f2a5f906c256a5d799494fcd066e1f6c077689de1cdb65052a1624de4bace99bf83612684565b5050565b6000807feefb95e842a3287179d933b4460be539a1d5af11aa8b325bb45c5c8dc92de4ed8480519060200120036116a0577feefb95e842a3287179d933b4460be539a1d5af11aa8b325bb45c5c8dc92de4ed9050611789565b7ffbd454f36a7e1a388bd6fc3ab10d434aa4578f811acbbcf33afb1c697486313c8480519060200120036116f6577ffbd454f36a7e1a388bd6fc3ab10d434aa4578f811acbbcf33afb1c697486313c9050611788565b7f2a5f906c256a5d799494fcd066e1f6c077689de1cdb65052a1624de4bace99bf84805190602001200361174c577f2a5f906c256a5d799494fcd066e1f6c077689de1cdb65052a1624de4bace99bf9050611787565b6040517f08c379a000000000000000000000000000000000000000000000000000000000815260040161177e90613a4e565b60405180910390fd5b5b5b61179381846120f5565b91505092915050565b6000801b6117a98161277a565b816117d47feefb95e842a3287179d933b4460be539a1d5af11aa8b325bb45c5c8dc92de4ed826120f5565b1561181657806040517f375795b900000000000000000000000000000000000000000000000000000000815260040161180d91906137a3565b60405180910390fd5b6118407f2a5f906c256a5d799494fcd066e1f6c077689de1cdb65052a1624de4bace99bf826120f5565b1561188257806040517f375795b9000000000000000000000000000000000000000000000000000000008152600401611879919061381d565b60405180910390fd5b6118ac7ffbd454f36a7e1a388bd6fc3ab10d434aa4578f811acbbcf33afb1c697486313c826120f5565b156118ee57806040517f375795b90000000000000000000000000000000000000000000000000000000081526004016118e59190613897565b60405180910390fd5b600073ffffffffffffffffffffffffffffffffffffffff168173ffffffffffffffffffffffffffffffffffffffff160361195d576040517f08c379a0000000000000000000000000000000000000000000000000000000008152600401611954906132d2565b60405180910390fd5b6119877ffbd454f36a7e1a388bd6fc3ab10d434aa4578f811acbbcf33afb1c697486313c84610feb565b505050565b600160003373ffffffffffffffffffffffffffffffffffffffff1673ffffffffffffffffffffffffffffffffffffffff16815260200190815260200160002060009054906101000a900460ff1615611a19576040517f08c379a0000000000000000000000000000000000000000000000000000000008152600401611a10906132d2565b60405180910390fd5b600b60009054906101000a900473ffffffffffffffffffffffffffffffffffffffff1673ffffffffffffffffffffffffffffffffffffffff166391d148547ffbd454f36a7e1a388bd6fc3ab10d434aa4578f811acbbcf33afb1c697486313c336040518363ffffffff1660e01b8152600401611a969291906132f2565b602060405180830381865afa158015611ab3573d6000803e3d6000fd5b505050506040513d601f19601f82011682018060405250810190611ad79190613347565b611b16576040517f08c379a0000000000000000000000000000000000000000000000000000000008152600401611b0d906133c0565b60405180910390fd5b3373ffffffffffffffffffffffffffffffffffffffff166003600085815260200190815260200160002060020160009054906101000a900473ffffffffffffffffffffffffffffffffffffffff1673ffffffffffffffffffffffffffffffffffffffff1614611bba576040517f08c379a0000000000000000000000000000000000000000000000000000000008152600401611bb190613ae0565b60405180910390fd5b42600360008581526020019081526020016000206004015411611c12576040517f08c379a0000000000000000000000000000000000000000000000000000000008152600401611c09906134be565b60405180910390fd5b600073ffffffffffffffffffffffffffffffffffffffff166003600085815260200190815260200160002060030160009054906101000a900473ffffffffffffffffffffffffffffffffffffffff1673ffffffffffffffffffffffffffffffffffffffff1614611cb7576040517f08c379a0000000000000000000000000000000000000000000000000000000008152600401611cae90613550565b60405180910390fd5b600081111580611cdc5750600360008481526020019081526020016000206006015481105b15611d1c576040517f08c379a0000000000000000000000000000000000000000000000000000000008152600401611d1390613b72565b60405180910390fd5b60016008811115611d3057611d2f613041565b5b6003600085815260200190815260200160002060080160009054906101000a900460ff166008811115611d6657611d65613041565b5b14611da6576040517f08c379a0000000000000000000000000000000000000000000000000000000008152600401611d9d90613c04565b60405180910390fd5b80600360008581526020019081526020016000206006018190555060086003600085815260200190815260200160002060080160006101000a81548160ff02191690836008811115611dfb57611dfa613041565b5b02179055506003600084815260200190815260200160002060020160009054906101000a900473ffffffffffffffffffffffffffffffffffffffff1673ffffffffffffffffffffffffffffffffffffffff16837fb068edd06fda39fbfd74738b75e0eac89183acd7e6bbca610abe317d8f18fe826003600087815260200190815260200160002060080160009054906101000a900460ff166003600088815260200190815260200160002060060154600360008981526020019081526020016000206005015487604051611ed29493929190613c24565b60405180910390a3505050565b600c60009054906101000a900473ffffffffffffffffffffffffffffffffffffffff1681565b6000801b611f128161277a565b81611f3d7feefb95e842a3287179d933b4460be539a1d5af11aa8b325bb45c5c8dc92de4ed826120f5565b15611f7f57806040517f375795b9000000000000000000000000000000000000000000000000000000008152600401611f7691906137a3565b60405180910390fd5b611fa97f2a5f906c256a5d799494fcd066e1f6c077689de1cdb65052a1624de4bace99bf826120f5565b15611feb57806040517f375795b9000000000000000000000000000000000000000000000000000000008152600401611fe2919061381d565b60405180910390fd5b6120157ffbd454f36a7e1a388bd6fc3ab10d434aa4578f811acbbcf33afb1c697486313c826120f5565b1561205757806040517f375795b900000000000000000000000000000000000000000000000000000000815260040161204e9190613897565b60405180910390fd5b600073ffffffffffffffffffffffffffffffffffffffff168173ffffffffffffffffffffffffffffffffffffffff16036120c6576040517f08c379a00000000000000000000000000000000000000000000000000000000081526004016120bd906132d2565b60405180910390fd5b6120f07f2a5f906c256a5d799494fcd066e1f6c077689de1cdb65052a1624de4bace99bf84610feb565b505050565b600080600084815260200190815260200160002060000160008373ffffffffffffffffffffffffffffffffffffffff1673ffffffffffffffffffffffffffffffffffffffff16815260200190815260200160002060009054906101000a900460ff16905092915050565b7feefb95e842a3287179d933b4460be539a1d5af11aa8b325bb45c5c8dc92de4ed81565b6000801b6121908161277a565b600073ffffffffffffffffffffffffffffffffffffffff168273ffffffffffffffffffffffffffffffffffffffff16036121ff576040517f08c379a00000000000000000000000000000000000000000000000000000000081526004016121f690613cbc565b60405180910390fd5b60018060008473ffffffffffffffffffffffffffffffffffffffff1673ffffffffffffffffffffffffffffffffffffffff16815260200190815260200160002060006101000a81548160ff0219169083151502179055506122807feefb95e842a3287179d933b4460be539a1d5af11aa8b325bb45c5c8dc92de4ed83612887565b506122ab7ffbd454f36a7e1a388bd6fc3ab10d434aa4578f811acbbcf33afb1c697486313c83612887565b506122d67f2a5f906c256a5d799494fcd066e1f6c077689de1cdb65052a1624de4bace99bf83612887565b507f90811a8edd3b3c17eeaefffc17f639cc69145d41a359c9843994dc2538203690826040516123069190613026565b60405180910390a15050565b60036020528060005260406000206000915090508060000154908060010160009054906101000a900473ffffffffffffffffffffffffffffffffffffffff16908060020160009054906101000a900473ffffffffffffffffffffffffffffffffffffffff16908060030160009054906101000a900473ffffffffffffffffffffffffffffffffffffffff16908060040154908060050154908060060154908060070154908060080160009054906101000a900460ff16908060080160019054906101000a900473ffffffffffffffffffffffffffffffffffffffff1690508a565b600960009054906101000a900473ffffffffffffffffffffffffffffffffffffffff1681565b60046020528060005260406000206000915090508060000154908060010154908060020160009054906101000a900473ffffffffffffffffffffffffffffffffffffffff16908060020160149054906101000a900460ff16908060020160159054906101000a900460ff1690806003018054612494906136fd565b80601f01602080910402602001604051908101604052809291908181526020018280546124c0906136fd565b801561250d5780601f106124e25761010080835404028352916020019161250d565b820191906000526020600020905b8154815290600101906020018083116124f057829003601f168201915b5050505050905086565b6000801b81565b6000801b61252b8161277a565b600073ffffffffffffffffffffffffffffffffffffffff168273ffffffffffffffffffffffffffffffffffffffff160361259a576040517f08c379a000000000000000000000000000000000000000000000000000000000815260040161259190613d28565b60405180910390fd5b6000600160008473ffffffffffffffffffffffffffffffffffffffff1673ffffffffffffffffffffffffffffffffffffffff16815260200190815260200160002060006101000a81548160ff0219169083151502179055507fc3776b472ebf54114339eec9e4dc924e7ce307a97f5c1ee72b6d474e6e5e8b7c826040516126219190613026565b60405180910390a15050565b600b60009054906101000a900473ffffffffffffffffffffffffffffffffffffffff1681565b6005602052816000526040600020818154811061266f57600080fd5b90600052602060002001600091509150505481565b61268d82610fa8565b6126968161277a565b6126a08383612887565b50505050565b600a60009054906101000a900473ffffffffffffffffffffffffffffffffffffffff1681565b60016020528060005260406000206000915054906101000a900460ff1681565b7ffbd454f36a7e1a388bd6fc3ab10d434aa4578f811acbbcf33afb1c697486313c81565b60007f01ffc9a7000000000000000000000000000000000000000000000000000000007bffffffffffffffffffffffffffffffffffffffffffffffffffffffff1916827bffffffffffffffffffffffffffffffffffffffffffffffffffffffff1916149050919050565b61278b8161278661287f565b612a1a565b50565b600061279a83836120f5565b61287457600160008085815260200190815260200160002060000160008473ffffffffffffffffffffffffffffffffffffffff1673ffffffffffffffffffffffffffffffffffffffff16815260200190815260200160002060006101000a81548160ff02191690831515021790555061281161287f565b73ffffffffffffffffffffffffffffffffffffffff168273ffffffffffffffffffffffffffffffffffffffff16847f2f8788117e7eff1d82e926ec794901d17c78024a50270940304540a733656f0d60405160405180910390a460019050612879565b600090505b92915050565b600033905090565b600061289383836120f5565b1561296e57600080600085815260200190815260200160002060000160008473ffffffffffffffffffffffffffffffffffffffff1673ffffffffffffffffffffffffffffffffffffffff16815260200190815260200160002060006101000a81548160ff02191690831515021790555061290b61287f565b73ffffffffffffffffffffffffffffffffffffffff168273ffffffffffffffffffffffffffffffffffffffff16847ff6391f5c32d9c69d2a47ea670b442974b53935d1edc7fd64eb21e047a839171b60405160405180910390a460019050612973565b600090505b92915050565b600080600960009054906101000a900473ffffffffffffffffffffffffffffffffffffffff1673ffffffffffffffffffffffffffffffffffffffff1663feaf968c6040518163ffffffff1660e01b815260040160a060405180830381865afa1580156129e9573d6000803e3d6000fd5b505050506040513d601f19601f82011682018060405250810190612a0d9190613dd5565b5050509150508091505090565b612a2482826120f5565b612a675780826040517fe2517d3f000000000000000000000000000000000000000000000000000000008152600401612a5e929190613e50565b60405180910390fd5b5050565b6000604051905090565b600080fd5b600080fd5b60007fffffffff0000000000000000000000000000000000000000000000000000000082169050919050565b612ab481612a7f565b8114612abf57600080fd5b50565b600081359050612ad181612aab565b92915050565b600060208284031215612aed57612aec612a75565b5b6000612afb84828501612ac2565b91505092915050565b60008115159050919050565b612b1981612b04565b82525050565b6000602082019050612b346000830184612b10565b92915050565b6000819050919050565b612b4d81612b3a565b82525050565b6000602082019050612b686000830184612b44565b92915050565b6000819050919050565b612b8181612b6e565b8114612b8c57600080fd5b50565b600081359050612b9e81612b78565b92915050565b600073ffffffffffffffffffffffffffffffffffffffff82169050919050565b6000612bcf82612ba4565b9050919050565b612bdf81612bc4565b8114612bea57600080fd5b50565b600081359050612bfc81612bd6565b92915050565b60008060408385031215612c1957612c18612a75565b5b6000612c2785828601612b8f565b9250506020612c3885828601612bed565b9150509250929050565b612c4b81612b6e565b82525050565b6000602082019050612c666000830184612c42565b92915050565b600060208284031215612c8257612c81612a75565b5b6000612c9084828501612b8f565b91505092915050565b612ca281612b3a565b8114612cad57600080fd5b50565b600081359050612cbf81612c99565b92915050565b600060208284031215612cdb57612cda612a75565b5b6000612ce984828501612cb0565b91505092915050565b612cfb81612bc4565b82525050565b600081519050919050565b600082825260208201905092915050565b60005b83811015612d3b578082015181840152602081019050612d20565b60008484015250505050565b6000601f19601f8301169050919050565b6000612d6382612d01565b612d6d8185612d0c565b9350612d7d818560208601612d1d565b612d8681612d47565b840191505092915050565b600060c082019050612da66000830189612c42565b612db36020830188612b44565b612dc06040830187612cf2565b612dcd6060830186612b10565b612dda6080830185612b10565b81810360a0830152612dec8184612d58565b9050979650505050505050565b600060208284031215612e0f57612e0e612a75565b5b6000612e1d84828501612bed565b91505092915050565b600080fd5b600080fd5b7f4e487b7100000000000000000000000000000000000000000000000000000000600052604160045260246000fd5b612e6882612d47565b810181811067ffffffffffffffff82111715612e8757612e86612e30565b5b80604052505050565b6000612e9a612a6b565b9050612ea68282612e5f565b919050565b600067ffffffffffffffff821115612ec657612ec5612e30565b5b612ecf82612d47565b9050602081019050919050565b82818337600083830152505050565b6000612efe612ef984612eab565b612e90565b905082815260208101848484011115612f1a57612f19612e2b565b5b612f25848285612edc565b509392505050565b600082601f830112612f4257612f41612e26565b5b8135612f52848260208601612eeb565b91505092915050565b60008060408385031215612f7257612f71612a75565b5b600083013567ffffffffffffffff811115612f9057612f8f612a7a565b5b612f9c85828601612f2d565b9250506020612fad85828601612bed565b9150509250929050565b600080600060608486031215612fd057612fcf612a75565b5b6000612fde86828701612b8f565b935050602084013567ffffffffffffffff811115612fff57612ffe612a7a565b5b61300b86828701612f2d565b925050604061301c86828701612cb0565b9150509250925092565b600060208201905061303b6000830184612cf2565b92915050565b7f4e487b7100000000000000000000000000000000000000000000000000000000600052602160045260246000fd5b6009811061308157613080613041565b5b50565b600081905061309282613070565b919050565b60006130a282613084565b9050919050565b6130b281613097565b82525050565b6000610140820190506130ce600083018d612c42565b6130db602083018c612cf2565b6130e8604083018b612cf2565b6130f5606083018a612cf2565b6131026080830189612b44565b61310f60a0830188612b44565b61311c60c0830187612b44565b61312960e0830186612b44565b6131376101008301856130a9565b613145610120830184612cf2565b9b9a5050505050505050505050565b6000819050919050565b600061317961317461316f84612ba4565b613154565b612ba4565b9050919050565b600061318b8261315e565b9050919050565b600061319d82613180565b9050919050565b6131ad81613192565b82525050565b60006020820190506131c860008301846131a4565b92915050565b60006131d982613180565b9050919050565b6131e9816131ce565b82525050565b600060208201905061320460008301846131e0565b92915050565b6000806040838503121561322157613220612a75565b5b600061322f85828601612bed565b925050602061324085828601612cb0565b9150509250929050565b600061325582613180565b9050919050565b6132658161324a565b82525050565b6000602082019050613280600083018461325c565b92915050565b7f4164647265737320496e76616c69640000000000000000000000000000000000600082015250565b60006132bc600f83612d0c565b91506132c782613286565b602082019050919050565b600060208201905081810360008301526132eb816132af565b9050919050565b60006040820190506133076000830185612c42565b6133146020830184612cf2565b9392505050565b61332481612b04565b811461332f57600080fd5b50565b6000815190506133418161331b565b92915050565b60006020828403121561335d5761335c612a75565b5b600061336b84828501613332565b91505092915050565b7f497473206e6f74204469737472696275746f7200000000000000000000000000600082015250565b60006133aa601383612d0c565b91506133b582613374565b602082019050919050565b600060208201905081810360008301526133d98161339d565b9050919050565b7f54686973206469737472696275746f72206973206e6f7420746865206f776e6560008201527f72206f6620746869732062617463680000000000000000000000000000000000602082015250565b600061343c602f83612d0c565b9150613447826133e0565b604082019050919050565b6000602082019050818103600083015261346b8161342f565b9050919050565b7f4261746368206861732065787069726564000000000000000000000000000000600082015250565b60006134a8601183612d0c565b91506134b382613472565b602082019050919050565b600060208201905081810360008301526134d78161349b565b9050919050565b7f426174636820697320616c72656164792070757263686173656420627920612060008201527f72657461696c6572000000000000000000000000000000000000000000000000602082015250565b600061353a602883612d0c565b9150613545826134de565b604082019050919050565b600060208201905081810360008301526135698161352d565b9050919050565b7f496e73696666696369656e74205061796d656e74000000000000000000000000600082015250565b60006135a6601483612d0c565b91506135b182613570565b602082019050919050565b600060208201905081810360008301526135d581613599565b9050919050565b7f4261746368206973206e6f7420617661696c61626c6520666f7220726573656c60008201527f6c00000000000000000000000000000000000000000000000000000000000000602082015250565b6000613638602183612d0c565b9150613643826135dc565b604082019050919050565b600060208201905081810360008301526136678161362b565b9050919050565b60006040820190506136836000830185612cf2565b6136906020830184612cf2565b9392505050565b60006060820190506136ac60008301866130a9565b6136b96020830185612b44565b6136c66040830184612b44565b949350505050565b7f4e487b7100000000000000000000000000000000000000000000000000000000600052602260045260246000fd5b6000600282049050600182168061371557607f821691505b602082108103613728576137276136ce565b5b50919050565b60006040820190506137436000830185612cf2565b6137506020830184612b44565b9392505050565b7f4d616e7566616374757265720000000000000000000000000000000000000000600082015250565b600061378d600c83612d0c565b915061379882613757565b602082019050919050565b600060408201905081810360008301526137bc81613780565b90506137cb6020830184612cf2565b92915050565b7f52657461696c6572000000000000000000000000000000000000000000000000600082015250565b6000613807600883612d0c565b9150613812826137d1565b602082019050919050565b60006040820190508181036000830152613836816137fa565b90506138456020830184612cf2565b92915050565b7f4469737472696275746f72000000000000000000000000000000000000000000600082015250565b6000613881600b83612d0c565b915061388c8261384b565b602082019050919050565b600060408201905081810360008301526138b081613874565b90506138bf6020830184612cf2565b92915050565b7f496e76616c696420707269636520666565642064617461000000000000000000600082015250565b60006138fb601783612d0c565b9150613906826138c5565b602082019050919050565b6000602082019050818103600083015261392a816138ee565b9050919050565b7f4e487b7100000000000000000000000000000000000000000000000000000000600052601160045260246000fd5b600061396b82612b3a565b915061397683612b3a565b925082820261398481612b3a565b9150828204841483151761399b5761399a613931565b5b5092915050565b7f4e487b7100000000000000000000000000000000000000000000000000000000600052601260045260246000fd5b60006139dc82612b3a565b91506139e783612b3a565b9250826139f7576139f66139a2565b5b828204905092915050565b7f496e76616c696420726f6c65206e616d65000000000000000000000000000000600082015250565b6000613a38601183612d0c565b9150613a4382613a02565b602082019050919050565b60006020820190508181036000830152613a6781613a2b565b9050919050565b7f596f7520617265206e6f7420746865206f776e6572206f66207468697320626160008201527f7463680000000000000000000000000000000000000000000000000000000000602082015250565b6000613aca602383612d0c565b9150613ad582613a6e565b604082019050919050565b60006020820190508181036000830152613af981613abd565b9050919050565b7f4e6577207072696365206d7573742062652067726561746572207468616e207a60008201527f65726f20616e642070726576696f757320707269636500000000000000000000602082015250565b6000613b5c603683612d0c565b9150613b6782613b00565b604082019050919050565b60006020820190508181036000830152613b8b81613b4f565b9050919050565b7f4261746368206973206e6f74206f776e6564206279206469737472696275746f60008201527f7200000000000000000000000000000000000000000000000000000000000000602082015250565b6000613bee602183612d0c565b9150613bf982613b92565b604082019050919050565b60006020820190508181036000830152613c1d81613be1565b9050919050565b6000608082019050613c3960008301876130a9565b613c466020830186612b44565b613c536040830185612b44565b8181036060830152613c658184612d58565b905095945050505050565b7f43616e6e6f7420667265657a6520746865207a65726f20616464726573730000600082015250565b6000613ca6601e83612d0c565b9150613cb182613c70565b602082019050919050565b60006020820190508181036000830152613cd581613c99565b9050919050565b7f43616e6e6f7420756e667265657a6520746865207a65726f2061646472657373600082015250565b6000613d12602083612d0c565b9150613d1d82613cdc565b602082019050919050565b60006020820190508181036000830152613d4181613d05565b9050919050565b600069ffffffffffffffffffff82169050919050565b613d6781613d48565b8114613d7257600080fd5b50565b600081519050613d8481613d5e565b92915050565b6000819050919050565b613d9d81613d8a565b8114613da857600080fd5b50565b600081519050613dba81613d94565b92915050565b600081519050613dcf81612c99565b92915050565b600080600080600060a08688031215613df157613df0612a75565b5b6000613dff88828901613d75565b9550506020613e1088828901613dab565b9450506040613e2188828901613dc0565b9350506060613e3288828901613dc0565b9250506080613e4388828901613d75565b9150509295509295909350565b6000604082019050613e656000830185612cf2565b613e726020830184612c42565b939250505056fea2646970667358221220791f9633ea5fec8d20fb89b69babcbb7f74bf21ab992786c68250a80c9c7637964736f6c634300081c0033",
  "linkReferences": {},
  "deployedLinkReferences": {}
}