{
  "_format": "hh-sol-artifact-1",
  "contractName": "ResellMechanism",
  "sourceName": "contracts/ResellMechanism.sol",
  "abi": [
    {
      "inputs": [
        {
          "internalType": "address",
          "name": "priceFeedAddress",
          "type": "address"
        },
        {
          "internalType": "address",
          "name": "escrowAddress",
          "type": "address"
        },
        {
          "internalType": "address",
          "name": "handlingAddresses",
          "type": "address"
        }
      ],
      "stateMutability": "nonpayable",
      "type": "constructor"
    },
    {
      "inputs": [],
      "name": "AccessControlBadConfirmation",
      "type": "error"
    },
    {
      "inputs": [
        {
          "internalType": "address",
          "name": "account",
          "type": "address"
        },
        {
          "internalType": "bytes32",
          "name": "neededRole",
          "type": "bytes32"
        }
      ],
      "name": "AccessControlUnauthorizedAccount",
      "type": "error"
    },
    {
      "inputs": [
        {
          "internalType": "string",
          "name": "role",
          "type": "string"
        },
        {
          "internalType": "address",
          "name": "account",
          "type": "address"
        }
      ],
      "name": "AddressAlreadyExists",
      "type": "error"
    },
    {
      "inputs": [
        {
          "internalType": "address",
          "name": "account",
          "type": "address"
        }
      ],
      "name": "AddressInvalid",
      "type": "error"
    },
    {
      "inputs": [
        {
          "internalType": "uint256",
          "name": "_usdAmount",
          "type": "uint256"
        }
      ],
      "name": "InvalidAmount",
      "type": "error"
    },
    {
      "anonymous": false,
      "inputs": [
        {
          "indexed": false,
          "internalType": "address",
          "name": "account",
          "type": "address"
        }
      ],
      "name": "AddressFrozen",
      "type": "event"
    },
    {
      "anonymous": false,
      "inputs": [
        {
          "indexed": false,
          "internalType": "address",
          "name": "account",
          "type": "address"
        }
      ],
      "name": "AddressUnfrozen",
      "type": "event"
    },
    {
      "anonymous": false,
      "inputs": [
        {
          "indexed": true,
          "internalType": "bytes32",
          "name": "batchId",
          "type": "bytes32"
        },
        {
          "indexed": false,
          "internalType": "uint256",
          "name": "timestamp",
          "type": "uint256"
        }
      ],
      "name": "BatchCreated",
      "type": "event"
    },
    {
      "anonymous": false,
      "inputs": [
        {
          "indexed": true,
          "internalType": "bytes32",
          "name": "batchId",
          "type": "bytes32"
        },
        {
          "indexed": false,
          "internalType": "address",
          "name": "distributor",
          "type": "address"
        },
        {
          "indexed": false,
          "internalType": "enum DrugSupplyChain.BatchStatus",
          "name": "statusEnum",
          "type": "uint8"
        },
        {
          "indexed": false,
          "internalType": "uint256",
          "name": "price",
          "type": "uint256"
        },
        {
          "indexed": false,
          "internalType": "uint256",
          "name": "timestamp",
          "type": "uint256"
        }
      ],
      "name": "DistributerPurchased",
      "type": "event"
    },
    {
      "anonymous": false,
      "inputs": [
        {
          "indexed": true,
          "internalType": "bytes32",
          "name": "batchId",
          "type": "bytes32"
        },
        {
          "indexed": false,
          "internalType": "enum DrugSupplyChain.BatchStatus",
          "name": "statusEnum",
          "type": "uint8"
        },
        {
          "indexed": true,
          "internalType": "address",
          "name": "distributor",
          "type": "address"
        },
        {
          "indexed": false,
          "internalType": "uint256",
          "name": "price",
          "type": "uint256"
        },
        {
          "indexed": false,
          "internalType": "uint256",
          "name": "timestamp",
          "type": "uint256"
        },
        {
          "indexed": false,
          "internalType": "string",
          "name": "reason",
          "type": "string"
        }
      ],
      "name": "EligibleForResell",
      "type": "event"
    },
    {
      "anonymous": false,
      "inputs": [
        {
          "indexed": true,
          "internalType": "bytes32",
          "name": "batchId",
          "type": "bytes32"
        },
        {
          "indexed": true,
          "internalType": "address",
          "name": "to",
          "type": "address"
        },
        {
          "indexed": true,
          "internalType": "uint256",
          "name": "timestamp",
          "type": "uint256"
        },
        {
          "indexed": false,
          "internalType": "bool",
          "name": "refunded",
          "type": "bool"
        },
        {
          "indexed": false,
          "internalType": "string",
          "name": "reason",
          "type": "string"
        }
      ],
      "name": "Refunded",
      "type": "event"
    },
    {
      "anonymous": false,
      "inputs": [
        {
          "indexed": true,
          "internalType": "bytes32",
          "name": "batchId",
          "type": "bytes32"
        },
        {
          "indexed": true,
          "internalType": "address",
          "name": "requester",
          "type": "address"
        },
        {
          "indexed": true,
          "internalType": "uint256",
          "name": "timestamp",
          "type": "uint256"
        },
        {
          "indexed": false,
          "internalType": "bool",
          "name": "approved",
          "type": "bool"
        },
        {
          "indexed": false,
          "internalType": "string",
          "name": "reason",
          "type": "string"
        }
      ],
      "name": "RequestApproved",
      "type": "event"
    },
    {
      "anonymous": false,
      "inputs": [
        {
          "indexed": true,
          "internalType": "bytes32",
          "name": "batchId",
          "type": "bytes32"
        },
        {
          "indexed": false,
          "internalType": "enum DrugSupplyChain.BatchStatus",
          "name": "statusEnum",
          "type": "uint8"
        },
        {
          "indexed": true,
          "internalType": "address",
          "name": "distributor",
          "type": "address"
        },
        {
          "indexed": false,
          "internalType": "uint256",
          "name": "price",
          "type": "uint256"
        },
        {
          "indexed": false,
          "internalType": "uint256",
          "name": "timestamp",
          "type": "uint256"
        }
      ],
      "name": "ResellingDone",
      "type": "event"
    },
    {
      "anonymous": false,
      "inputs": [
        {
          "indexed": true,
          "internalType": "bytes32",
          "name": "batchId",
          "type": "bytes32"
        },
        {
          "indexed": false,
          "internalType": "address",
          "name": "retailer",
          "type": "address"
        },
        {
          "indexed": false,
          "internalType": "enum DrugSupplyChain.BatchStatus",
          "name": "statusEnum",
          "type": "uint8"
        },
        {
          "indexed": false,
          "internalType": "uint256",
          "name": "price",
          "type": "uint256"
        },
        {
          "indexed": false,
          "internalType": "uint256",
          "name": "timestamp",
          "type": "uint256"
        }
      ],
      "name": "RetailerPurchased",
      "type": "event"
    },
    {
      "anonymous": false,
      "inputs": [
        {
          "indexed": true,
          "internalType": "bytes32",
          "name": "batchId",
          "type": "bytes32"
        },
        {
          "indexed": true,
          "internalType": "uint256",
          "name": "timestamp",
          "type": "uint256"
        },
        {
          "indexed": true,
          "internalType": "address",
          "name": "requester",
          "type": "address"
        },
        {
          "indexed": false,
          "internalType": "bool",
          "name": "approved",
          "type": "bool"
        },
        {
          "indexed": false,
          "internalType": "bool",
          "name": "refunded",
          "type": "bool"
        },
        {
          "indexed": false,
          "internalType": "string",
          "name": "reason",
          "type": "string"
        }
      ],
      "name": "ReturnRequested",
      "type": "event"
    },
    {
      "anonymous": false,
      "inputs": [
        {
          "indexed": true,
          "internalType": "bytes32",
          "name": "role",
          "type": "bytes32"
        },
        {
          "indexed": true,
          "internalType": "bytes32",
          "name": "previousAdminRole",
          "type": "bytes32"
        },
        {
          "indexed": true,
          "internalType": "bytes32",
          "name": "newAdminRole",
          "type": "bytes32"
        }
      ],
      "name": "RoleAdminChanged",
      "type": "event"
    },
    {
      "anonymous": false,
      "inputs": [
        {
          "indexed": true,
          "internalType": "bytes32",
          "name": "role",
          "type": "bytes32"
        },
        {
          "indexed": true,
          "internalType": "address",
          "name": "account",
          "type": "address"
        },
        {
          "indexed": true,
          "internalType": "address",
          "name": "sender",
          "type": "address"
        }
      ],
      "name": "RoleGranted",
      "type": "event"
    },
    {
      "anonymous": false,
      "inputs": [
        {
          "indexed": true,
          "internalType": "bytes32",
          "name": "role",
          "type": "bytes32"
        },
        {
          "indexed": true,
          "internalType": "address",
          "name": "account",
          "type": "address"
        },
        {
          "indexed": true,
          "internalType": "address",
          "name": "sender",
          "type": "address"
        }
      ],
      "name": "RoleRevoked",
      "type": "event"
    },
    {
      "inputs": [],
      "name": "DEFAULT_ADMIN_ROLE",
      "outputs": [
        {
          "internalType": "bytes32",
          "name": "",
          "type": "bytes32"
        }
      ],
      "stateMutability": "view",
      "type": "function"
    },
    {
      "inputs": [],
      "name": "DISTRIBUTOR_ROLE",
      "outputs": [
        {
          "internalType": "bytes32",
          "name": "",
          "type": "bytes32"
        }
      ],
      "stateMutability": "view",
      "type": "function"
    },
    {
      "inputs": [],
      "name": "MANUFACTURER_ROLE",
      "outputs": [
        {
          "internalType": "bytes32",
          "name": "",
          "type": "bytes32"
        }
      ],
      "stateMutability": "view",
      "type": "function"
    },
    {
      "inputs": [],
      "name": "RETAILER_ROLE",
      "outputs": [
        {
          "internalType": "bytes32",
          "name": "",
          "type": "bytes32"
        }
      ],
      "stateMutability": "view",
      "type": "function"
    },
    {
      "inputs": [
        {
          "internalType": "address",
          "name": "distributor",
          "type": "address"
        }
      ],
      "name": "addDistributor",
      "outputs": [],
      "stateMutability": "nonpayable",
      "type": "function"
    },
    {
      "inputs": [
        {
          "internalType": "address",
          "name": "manufacturer",
          "type": "address"
        }
      ],
      "name": "addManufacturer",
      "outputs": [],
      "stateMutability": "nonpayable",
      "type": "function"
    },
    {
      "inputs": [
        {
          "internalType": "address",
          "name": "retailer",
          "type": "address"
        }
      ],
      "name": "addRetailer",
      "outputs": [],
      "stateMutability": "nonpayable",
      "type": "function"
    },
    {
      "inputs": [
        {
          "internalType": "uint256",
          "name": "",
          "type": "uint256"
        }
      ],
      "name": "allBatchIds",
      "outputs": [
        {
          "internalType": "bytes32",
          "name": "",
          "type": "bytes32"
        }
      ],
      "stateMutability": "view",
      "type": "function"
    },
    {
      "inputs": [],
      "name": "batchCount",
      "outputs": [
        {
          "internalType": "uint256",
          "name": "",
          "type": "uint256"
        }
      ],
      "stateMutability": "view",
      "type": "function"
    },
    {
      "inputs": [
        {
          "internalType": "address",
          "name": "",
          "type": "address"
        }
      ],
      "name": "batchCounter",
      "outputs": [
        {
          "internalType": "uint256",
          "name": "",
          "type": "uint256"
        }
      ],
      "stateMutability": "view",
      "type": "function"
    },
    {
      "inputs": [
        {
          "internalType": "bytes32",
          "name": "",
          "type": "bytes32"
        }
      ],
      "name": "batchIdToBatch",
      "outputs": [
        {
          "internalType": "bytes32",
          "name": "batchId",
          "type": "bytes32"
        },
        {
          "internalType": "address",
          "name": "manufacturer",
          "type": "address"
        },
        {
          "internalType": "address",
          "name": "distributor",
          "type": "address"
        },
        {
          "internalType": "address",
          "name": "retailer",
          "type": "address"
        },
        {
          "internalType": "uint256",
          "name": "expiryDate",
          "type": "uint256"
        },
        {
          "internalType": "uint256",
          "name": "timestamp",
          "type": "uint256"
        },
        {
          "internalType": "uint256",
          "name": "price",
          "type": "uint256"
        },
        {
          "internalType": "uint256",
          "name": "productPrice",
          "type": "uint256"
        },
        {
          "internalType": "enum DrugSupplyChain.BatchStatus",
          "name": "statusEnum",
          "type": "uint8"
        },
        {
          "internalType": "address",
          "name": "ipfsHash",
          "type": "address"
        }
      ],
      "stateMutability": "view",
      "type": "function"
    },
    {
      "inputs": [
        {
          "internalType": "bytes32",
          "name": "_batchId",
          "type": "bytes32"
        },
        {
          "internalType": "address",
          "name": "distributor",
          "type": "address"
        }
      ],
      "name": "buyResellBatch",
      "outputs": [],
      "stateMutability": "payable",
      "type": "function"
    },
    {
      "inputs": [
        {
          "internalType": "string",
          "name": "roleName",
          "type": "string"
        },
        {
          "internalType": "address",
          "name": "account",
          "type": "address"
        }
      ],
      "name": "checkRole",
      "outputs": [
        {
          "internalType": "bool",
          "name": "",
          "type": "bool"
        }
      ],
      "stateMutability": "view",
      "type": "function"
    },
    {
      "inputs": [],
      "name": "dataFeed",
      "outputs": [
        {
          "internalType": "contract AggregatorV3Interface",
          "name": "",
          "type": "address"
        }
      ],
      "stateMutability": "view",
      "type": "function"
    },
    {
      "inputs": [
        {
          "internalType": "bytes32",
          "name": "_batchId",
          "type": "bytes32"
        },
        {
          "internalType": "string",
          "name": "reason",
          "type": "string"
        },
        {
          "internalType": "uint256",
          "name": "newPrice",
          "type": "uint256"
        }
      ],
      "name": "eligibleToResell",
      "outputs": [],
      "stateMutability": "nonpayable",
      "type": "function"
    },
    {
      "inputs": [],
      "name": "escrowContract",
      "outputs": [
        {
          "internalType": "contract Escrow",
          "name": "",
          "type": "address"
        }
      ],
      "stateMutability": "view",
      "type": "function"
    },
    {
      "inputs": [
        {
          "internalType": "address",
          "name": "account",
          "type": "address"
        }
      ],
      "name": "frozeAddress",
      "outputs": [],
      "stateMutability": "nonpayable",
      "type": "function"
    },
    {
      "inputs": [
        {
          "internalType": "bytes32",
          "name": "role",
          "type": "bytes32"
        }
      ],
      "name": "getRoleAdmin",
      "outputs": [
        {
          "internalType": "bytes32",
          "name": "",
          "type": "bytes32"
        }
      ],
      "stateMutability": "view",
      "type": "function"
    },
    {
      "inputs": [
        {
          "internalType": "bytes32",
          "name": "role",
          "type": "bytes32"
        },
        {
          "internalType": "address",
          "name": "account",
          "type": "address"
        }
      ],
      "name": "grantRole",
      "outputs": [],
      "stateMutability": "nonpayable",
      "type": "function"
    },
    {
      "inputs": [],
      "name": "handlingAddresses",
      "outputs": [
        {
          "internalType": "contract HandlingAddresses",
          "name": "",
          "type": "address"
        }
      ],
      "stateMutability": "view",
      "type": "function"
    },
    {
      "inputs": [
        {
          "internalType": "bytes32",
          "name": "role",
          "type": "bytes32"
        },
        {
          "internalType": "address",
          "name": "account",
          "type": "address"
        }
      ],
      "name": "hasRole",
      "outputs": [
        {
          "internalType": "bool",
          "name": "",
          "type": "bool"
        }
      ],
      "stateMutability": "view",
      "type": "function"
    },
    {
      "inputs": [
        {
          "internalType": "address",
          "name": "",
          "type": "address"
        }
      ],
      "name": "isFrozen",
      "outputs": [
        {
          "internalType": "bool",
          "name": "",
          "type": "bool"
        }
      ],
      "stateMutability": "view",
      "type": "function"
    },
    {
      "inputs": [],
      "name": "owner",
      "outputs": [
        {
          "internalType": "address",
          "name": "",
          "type": "address"
        }
      ],
      "stateMutability": "view",
      "type": "function"
    },
    {
      "inputs": [
        {
          "internalType": "address",
          "name": "",
          "type": "address"
        },
        {
          "internalType": "uint256",
          "name": "",
          "type": "uint256"
        }
      ],
      "name": "ownerToBatches",
      "outputs": [
        {
          "internalType": "bytes32",
          "name": "",
          "type": "bytes32"
        }
      ],
      "stateMutability": "view",
      "type": "function"
    },
    {
      "inputs": [
        {
          "internalType": "uint256",
          "name": "",
          "type": "uint256"
        }
      ],
      "name": "pendingRequests",
      "outputs": [
        {
          "internalType": "bytes32",
          "name": "batchId",
          "type": "bytes32"
        },
        {
          "internalType": "uint256",
          "name": "timestamp",
          "type": "uint256"
        },
        {
          "internalType": "address",
          "name": "requester",
          "type": "address"
        },
        {
          "internalType": "bool",
          "name": "refunded",
          "type": "bool"
        },
        {
          "internalType": "bool",
          "name": "approved",
          "type": "bool"
        },
        {
          "internalType": "string",
          "name": "reason",
          "type": "string"
        }
      ],
      "stateMutability": "view",
      "type": "function"
    },
    {
      "inputs": [
        {
          "internalType": "address",
          "name": "distributor",
          "type": "address"
        }
      ],
      "name": "removeDistributor",
      "outputs": [],
      "stateMutability": "nonpayable",
      "type": "function"
    },
    {
      "inputs": [
        {
          "internalType": "address",
          "name": "manufacturer",
          "type": "address"
        }
      ],
      "name": "removeManufacturer",
      "outputs": [],
      "stateMutability": "nonpayable",
      "type": "function"
    },
    {
      "inputs": [
        {
          "internalType": "address",
          "name": "retailer",
          "type": "address"
        }
      ],
      "name": "removeRetailer",
      "outputs": [],
      "stateMutability": "nonpayable",
      "type": "function"
    },
    {
      "inputs": [
        {
          "internalType": "bytes32",
          "name": "role",
          "type": "bytes32"
        },
        {
          "internalType": "address",
          "name": "callerConfirmation",
          "type": "address"
        }
      ],
      "name": "renounceRole",
      "outputs": [],
      "stateMutability": "nonpayable",
      "type": "function"
    },
    {
      "inputs": [
        {
          "internalType": "bytes32",
          "name": "",
          "type": "bytes32"
        }
      ],
      "name": "returnRequests",
      "outputs": [
        {
          "internalType": "bytes32",
          "name": "batchId",
          "type": "bytes32"
        },
        {
          "internalType": "uint256",
          "name": "timestamp",
          "type": "uint256"
        },
        {
          "internalType": "address",
          "name": "requester",
          "type": "address"
        },
        {
          "internalType": "bool",
          "name": "refunded",
          "type": "bool"
        },
        {
          "internalType": "bool",
          "name": "approved",
          "type": "bool"
        },
        {
          "internalType": "string",
          "name": "reason",
          "type": "string"
        }
      ],
      "stateMutability": "view",
      "type": "function"
    },
    {
      "inputs": [
        {
          "internalType": "bytes32",
          "name": "role",
          "type": "bytes32"
        },
        {
          "internalType": "address",
          "name": "account",
          "type": "address"
        }
      ],
      "name": "revokeRole",
      "outputs": [],
      "stateMutability": "nonpayable",
      "type": "function"
    },
    {
      "inputs": [
        {
          "internalType": "bytes4",
          "name": "interfaceId",
          "type": "bytes4"
        }
      ],
      "name": "supportsInterface",
      "outputs": [
        {
          "internalType": "bool",
          "name": "",
          "type": "bool"
        }
      ],
      "stateMutability": "view",
      "type": "function"
    },
    {
      "inputs": [
        {
          "internalType": "address",
          "name": "account",
          "type": "address"
        }
      ],
      "name": "unfreezeAddress",
      "outputs": [],
      "stateMutability": "nonpayable",
      "type": "function"
    },
    {
      "inputs": [],
      "name": "withdraw",
      "outputs": [],
      "stateMutability": "nonpayable",
      "type": "function"
    }
  ],
  "bytecode": "0x608060405234801561001057600080fd5b506040516141f43803806141f48339818101604052810190610032919061032a565b8282826100486000801b3361015860201b60201c565b5033600c60006101000a81548173ffffffffffffffffffffffffffffffffffffffff021916908373ffffffffffffffffffffffffffffffffffffffff16021790555081600a60006101000a81548173ffffffffffffffffffffffffffffffffffffffff021916908373ffffffffffffffffffffffffffffffffffffffff16021790555082600960006101000a81548173ffffffffffffffffffffffffffffffffffffffff021916908373ffffffffffffffffffffffffffffffffffffffff16021790555080600b60006101000a81548173ffffffffffffffffffffffffffffffffffffffff021916908373ffffffffffffffffffffffffffffffffffffffff16021790555050505050505061037d565b600061016a838361025560201b60201c565b61024a57600160008085815260200190815260200160002060000160008473ffffffffffffffffffffffffffffffffffffffff1673ffffffffffffffffffffffffffffffffffffffff16815260200190815260200160002060006101000a81548160ff0219169083151502179055506101e76102bf60201b60201c565b73ffffffffffffffffffffffffffffffffffffffff168273ffffffffffffffffffffffffffffffffffffffff16847f2f8788117e7eff1d82e926ec794901d17c78024a50270940304540a733656f0d60405160405180910390a46001905061024f565b600090505b92915050565b600080600084815260200190815260200160002060000160008373ffffffffffffffffffffffffffffffffffffffff1673ffffffffffffffffffffffffffffffffffffffff16815260200190815260200160002060009054906101000a900460ff16905092915050565b600033905090565b600080fd5b600073ffffffffffffffffffffffffffffffffffffffff82169050919050565b60006102f7826102cc565b9050919050565b610307816102ec565b811461031257600080fd5b50565b600081519050610324816102fe565b92915050565b600080600060608486031215610343576103426102c7565b5b600061035186828701610315565b935050602061036286828701610315565b925050604061037386828701610315565b9150509250925092565b613e688061038c6000396000f3fe6080604052600436106101f95760003560e01c80637e77e6611161010d5780639fb65529116100a0578063cf30c7051161006f578063cf30c70514610759578063d547741f14610796578063e42a96e7146107bf578063e5839836146107ea578063f0bd87cc14610827576101f9565b80639fb6552914610698578063a217fddf146106da578063bfb8054714610705578063c1c460a61461072e576101f9565b8063965288b0116100dc578063965288b0146105d357806399fd9cfb146105fe5780639de7c3b7146106275780639e42ff901461066d576101f9565b80637e77e661146105195780638da5cb5b146105425780638ec4f5051461056d57806391d1485414610596576101f9565b80633c652a9a116101905780636a0f9f701161015f5780636a0f9f70146104245780636a75323f1461046157806370099ec81461048a5780637026fe9c146104b35780637250e224146104f0576101f9565b80633c652a9a146103795780633ccfd60b146103bb57806357c1f9e2146103d25780635f8a5afa146103fb576101f9565b8063248a9ca3116101cc578063248a9ca3146102ad578063290b17ec146102ea5780632f2ff15d1461032757806336568abe14610350576101f9565b806301ffc9a7146101fe57806306f130561461023b5780631b18faa9146102665780632115e7bf14610282575b600080fd5b34801561020a57600080fd5b5061022560048036038101906102209190612a90565b610852565b6040516102329190612ad8565b60405180910390f35b34801561024757600080fd5b506102506108cc565b60405161025d9190612b0c565b60405180910390f35b610280600480360381019061027b9190612bbb565b6108d2565b005b34801561028e57600080fd5b50610297610f44565b6040516102a49190612c0a565b60405180910390f35b3480156102b957600080fd5b506102d460048036038101906102cf9190612c25565b610f68565b6040516102e19190612c0a565b60405180910390f35b3480156102f657600080fd5b50610311600480360381019061030c9190612c7e565b610f87565b60405161031e9190612c0a565b60405180910390f35b34801561033357600080fd5b5061034e60048036038101906103499190612bbb565b610fab565b005b34801561035c57600080fd5b5061037760048036038101906103729190612bbb565b610fcd565b005b34801561038557600080fd5b506103a0600480360381019061039b9190612c7e565b611048565b6040516103b296959493929190612d4a565b60405180910390f35b3480156103c757600080fd5b506103d0611156565b005b3480156103de57600080fd5b506103f960048036038101906103f49190612db2565b611289565b005b34801561040757600080fd5b50610422600480360381019061041d9190612db2565b6112c4565b005b34801561043057600080fd5b5061044b60048036038101906104469190612db2565b6114b4565b6040516104589190612b0c565b60405180910390f35b34801561046d57600080fd5b5061048860048036038101906104839190612db2565b6114cc565b005b34801561049657600080fd5b506104b160048036038101906104ac9190612db2565b611507565b005b3480156104bf57600080fd5b506104da60048036038101906104d59190612f14565b611542565b6040516104e79190612ad8565b60405180910390f35b3480156104fc57600080fd5b5061051760048036038101906105129190612db2565b611697565b005b34801561052557600080fd5b50610540600480360381019061053b9190612f70565b611887565b005b34801561054e57600080fd5b50610557611dda565b6040516105649190612fdf565b60405180910390f35b34801561057957600080fd5b50610594600480360381019061058f9190612db2565b611e00565b005b3480156105a257600080fd5b506105bd60048036038101906105b89190612bbb565b611ff0565b6040516105ca9190612ad8565b60405180910390f35b3480156105df57600080fd5b506105e861205a565b6040516105f59190612c0a565b60405180910390f35b34801561060a57600080fd5b5061062560048036038101906106209190612db2565b61207e565b005b34801561063357600080fd5b5061064e60048036038101906106499190612c25565b61220d565b6040516106649a99989796959493929190613071565b60405180910390f35b34801561067957600080fd5b506106826122ee565b60405161068f919061316c565b60405180910390f35b3480156106a457600080fd5b506106bf60048036038101906106ba9190612c25565b612314565b6040516106d196959493929190612d4a565b60405180910390f35b3480156106e657600080fd5b506106ef612412565b6040516106fc9190612c0a565b60405180910390f35b34801561071157600080fd5b5061072c60048036038101906107279190612db2565b612419565b005b34801561073a57600080fd5b50610743612528565b60405161075091906131a8565b60405180910390f35b34801561076557600080fd5b50610780600480360381019061077b91906131c3565b61254e565b60405161078d9190612c0a565b60405180910390f35b3480156107a257600080fd5b506107bd60048036038101906107b89190612bbb565b61257f565b005b3480156107cb57600080fd5b506107d46125a1565b6040516107e19190613224565b60405180910390f35b3480156107f657600080fd5b50610811600480360381019061080c9190612db2565b6125c7565b60405161081e9190612ad8565b60405180910390f35b34801561083357600080fd5b5061083c6125e7565b6040516108499190612c0a565b60405180910390f35b60007f7965db0b000000000000000000000000000000000000000000000000000000007bffffffffffffffffffffffffffffffffffffffffffffffffffffffff1916827bffffffffffffffffffffffffffffffffffffffffffffffffffffffff191614806108c557506108c48261260b565b5b9050919050565b60085481565b600160003373ffffffffffffffffffffffffffffffffffffffff1673ffffffffffffffffffffffffffffffffffffffff16815260200190815260200160002060009054906101000a900460ff161561095f576040517f08c379a00000000000000000000000000000000000000000000000000000000081526004016109569061328b565b60405180910390fd5b600b60009054906101000a900473ffffffffffffffffffffffffffffffffffffffff1673ffffffffffffffffffffffffffffffffffffffff166391d148547ffbd454f36a7e1a388bd6fc3ab10d434aa4578f811acbbcf33afb1c697486313c336040518363ffffffff1660e01b81526004016109dc9291906132ab565b602060405180830381865afa1580156109f9573d6000803e3d6000fd5b505050506040513d601f19601f82011682018060405250810190610a1d9190613300565b610a5c576040517f08c379a0000000000000000000000000000000000000000000000000000000008152600401610a5390613379565b60405180910390fd5b8073ffffffffffffffffffffffffffffffffffffffff166003600084815260200190815260200160002060020160009054906101000a900473ffffffffffffffffffffffffffffffffffffffff1673ffffffffffffffffffffffffffffffffffffffff1614610b00576040517f08c379a0000000000000000000000000000000000000000000000000000000008152600401610af79061340b565b60405180910390fd5b42600360008481526020019081526020016000206004015411610b58576040517f08c379a0000000000000000000000000000000000000000000000000000000008152600401610b4f90613477565b60405180910390fd5b600073ffffffffffffffffffffffffffffffffffffffff166003600084815260200190815260200160002060030160009054906101000a900473ffffffffffffffffffffffffffffffffffffffff1673ffffffffffffffffffffffffffffffffffffffff1614610bfd576040517f08c379a0000000000000000000000000000000000000000000000000000000008152600401610bf490613509565b60405180910390fd5b600034111580610c225750600360008381526020019081526020016000206006015434105b15610c62576040517f08c379a0000000000000000000000000000000000000000000000000000000008152600401610c5990613575565b60405180910390fd5b600880811115610c7557610c74612ffa565b5b6003600084815260200190815260200160002060080160009054906101000a900460ff166008811115610cab57610caa612ffa565b5b14610ceb576040517f08c379a0000000000000000000000000000000000000000000000000000000008152600401610ce290613607565b60405180910390fd5b600a60009054906101000a900473ffffffffffffffffffffffffffffffffffffffff1673ffffffffffffffffffffffffffffffffffffffff1663ad7fadc5610d3234612675565b336003600087815260200190815260200160002060020160009054906101000a900473ffffffffffffffffffffffffffffffffffffffff166040518463ffffffff1660e01b8152600401610d87929190613627565b6000604051808303818588803b158015610da057600080fd5b505af1158015610db4573d6000803e3d6000fd5b505050505042600360008481526020019081526020016000206005018190555060016003600084815260200190815260200160002060080160006101000a81548160ff02191690836008811115610e0e57610e0d612ffa565b5b0217905550336003600084815260200190815260200160002060020160006101000a81548173ffffffffffffffffffffffffffffffffffffffff021916908373ffffffffffffffffffffffffffffffffffffffff1602179055506003600083815260200190815260200160002060020160009054906101000a900473ffffffffffffffffffffffffffffffffffffffff1673ffffffffffffffffffffffffffffffffffffffff16827f4238cf66c2ffaa0c9ebebbaf229457729c234840b2e9790c74ef1fd800c678a26003600086815260200190815260200160002060080160009054906101000a900460ff1660036000878152602001908152602001600020600601546003600088815260200190815260200160002060050154604051610f3893929190613650565b60405180910390a35050565b7f2a5f906c256a5d799494fcd066e1f6c077689de1cdb65052a1624de4bace99bf81565b6000806000838152602001908152602001600020600101549050919050565b60078181548110610f9757600080fd5b906000526020600020016000915090505481565b610fb482610f68565b610fbd81612733565b610fc78383612747565b50505050565b610fd5612838565b73ffffffffffffffffffffffffffffffffffffffff168173ffffffffffffffffffffffffffffffffffffffff1614611039576040517f6697b23200000000000000000000000000000000000000000000000000000000815260040160405180910390fd5b6110438282612840565b505050565b6006818154811061105857600080fd5b90600052602060002090600402016000915090508060000154908060010154908060020160009054906101000a900473ffffffffffffffffffffffffffffffffffffffff16908060020160149054906101000a900460ff16908060020160159054906101000a900460ff16908060030180546110d3906136b6565b80601f01602080910402602001604051908101604052809291908181526020018280546110ff906136b6565b801561114c5780601f106111215761010080835404028352916020019161114c565b820191906000526020600020905b81548152906001019060200180831161112f57829003601f168201915b5050505050905086565b600b60009054906101000a900473ffffffffffffffffffffffffffffffffffffffff1673ffffffffffffffffffffffffffffffffffffffff166391d148546000801b336040518363ffffffff1660e01b81526004016111b69291906132ab565b602060405180830381865afa1580156111d3573d6000803e3d6000fd5b505050506040513d601f19601f820116820180604052508101906111f79190613300565b50600a60009054906101000a900473ffffffffffffffffffffffffffffffffffffffff1673ffffffffffffffffffffffffffffffffffffffff16630357371d33476040518363ffffffff1660e01b81526004016112559291906136e7565b600060405180830381600087803b15801561126f57600080fd5b505af1158015611283573d6000803e3d6000fd5b50505050565b6000801b61129681612733565b6112c07ffbd454f36a7e1a388bd6fc3ab10d434aa4578f811acbbcf33afb1c697486313c8361257f565b5050565b6000801b6112d181612733565b816112fc7feefb95e842a3287179d933b4460be539a1d5af11aa8b325bb45c5c8dc92de4ed82611ff0565b1561133e57806040517f375795b9000000000000000000000000000000000000000000000000000000008152600401611335919061375c565b60405180910390fd5b6113687f2a5f906c256a5d799494fcd066e1f6c077689de1cdb65052a1624de4bace99bf82611ff0565b156113aa57806040517f375795b90000000000000000000000000000000000000000000000000000000081526004016113a191906137d6565b60405180910390fd5b6113d47ffbd454f36a7e1a388bd6fc3ab10d434aa4578f811acbbcf33afb1c697486313c82611ff0565b1561141657806040517f375795b900000000000000000000000000000000000000000000000000000000815260040161140d9190613850565b60405180910390fd5b600073ffffffffffffffffffffffffffffffffffffffff168173ffffffffffffffffffffffffffffffffffffffff1603611485576040517f08c379a000000000000000000000000000000000000000000000000000000000815260040161147c9061328b565b60405180910390fd5b6114af7feefb95e842a3287179d933b4460be539a1d5af11aa8b325bb45c5c8dc92de4ed84610fab565b505050565b60026020528060005260406000206000915090505481565b6000801b6114d981612733565b6115037feefb95e842a3287179d933b4460be539a1d5af11aa8b325bb45c5c8dc92de4ed8361257f565b5050565b6000801b61151481612733565b61153e7f2a5f906c256a5d799494fcd066e1f6c077689de1cdb65052a1624de4bace99bf8361257f565b5050565b6000807feefb95e842a3287179d933b4460be539a1d5af11aa8b325bb45c5c8dc92de4ed84805190602001200361159b577feefb95e842a3287179d933b4460be539a1d5af11aa8b325bb45c5c8dc92de4ed9050611684565b7ffbd454f36a7e1a388bd6fc3ab10d434aa4578f811acbbcf33afb1c697486313c8480519060200120036115f1577ffbd454f36a7e1a388bd6fc3ab10d434aa4578f811acbbcf33afb1c697486313c9050611683565b7f2a5f906c256a5d799494fcd066e1f6c077689de1cdb65052a1624de4bace99bf848051906020012003611647577f2a5f906c256a5d799494fcd066e1f6c077689de1cdb65052a1624de4bace99bf9050611682565b6040517f08c379a0000000000000000000000000000000000000000000000000000000008152600401611679906138ca565b60405180910390fd5b5b5b61168e8184611ff0565b91505092915050565b6000801b6116a481612733565b816116cf7feefb95e842a3287179d933b4460be539a1d5af11aa8b325bb45c5c8dc92de4ed82611ff0565b1561171157806040517f375795b9000000000000000000000000000000000000000000000000000000008152600401611708919061375c565b60405180910390fd5b61173b7f2a5f906c256a5d799494fcd066e1f6c077689de1cdb65052a1624de4bace99bf82611ff0565b1561177d57806040517f375795b900000000000000000000000000000000000000000000000000000000815260040161177491906137d6565b60405180910390fd5b6117a77ffbd454f36a7e1a388bd6fc3ab10d434aa4578f811acbbcf33afb1c697486313c82611ff0565b156117e957806040517f375795b90000000000000000000000000000000000000000000000000000000081526004016117e09190613850565b60405180910390fd5b600073ffffffffffffffffffffffffffffffffffffffff168173ffffffffffffffffffffffffffffffffffffffff1603611858576040517f08c379a000000000000000000000000000000000000000000000000000000000815260040161184f9061328b565b60405180910390fd5b6118827ffbd454f36a7e1a388bd6fc3ab10d434aa4578f811acbbcf33afb1c697486313c84610fab565b505050565b600160003373ffffffffffffffffffffffffffffffffffffffff1673ffffffffffffffffffffffffffffffffffffffff16815260200190815260200160002060009054906101000a900460ff1615611914576040517f08c379a000000000000000000000000000000000000000000000000000000000815260040161190b9061328b565b60405180910390fd5b600b60009054906101000a900473ffffffffffffffffffffffffffffffffffffffff1673ffffffffffffffffffffffffffffffffffffffff166391d148547ffbd454f36a7e1a388bd6fc3ab10d434aa4578f811acbbcf33afb1c697486313c336040518363ffffffff1660e01b81526004016119919291906132ab565b602060405180830381865afa1580156119ae573d6000803e3d6000fd5b505050506040513d601f19601f820116820180604052508101906119d29190613300565b611a11576040517f08c379a0000000000000000000000000000000000000000000000000000000008152600401611a0890613379565b60405180910390fd5b3373ffffffffffffffffffffffffffffffffffffffff166003600085815260200190815260200160002060020160009054906101000a900473ffffffffffffffffffffffffffffffffffffffff1673ffffffffffffffffffffffffffffffffffffffff1614611ab5576040517f08c379a0000000000000000000000000000000000000000000000000000000008152600401611aac9061395c565b60405180910390fd5b42600360008581526020019081526020016000206004015411611b0d576040517f08c379a0000000000000000000000000000000000000000000000000000000008152600401611b0490613477565b60405180910390fd5b600073ffffffffffffffffffffffffffffffffffffffff166003600085815260200190815260200160002060030160009054906101000a900473ffffffffffffffffffffffffffffffffffffffff1673ffffffffffffffffffffffffffffffffffffffff1614611bb2576040517f08c379a0000000000000000000000000000000000000000000000000000000008152600401611ba990613509565b60405180910390fd5b600081111580611bd75750600360008481526020019081526020016000206006015481105b15611c17576040517f08c379a0000000000000000000000000000000000000000000000000000000008152600401611c0e906139ee565b60405180910390fd5b60016008811115611c2b57611c2a612ffa565b5b6003600085815260200190815260200160002060080160009054906101000a900460ff166008811115611c6157611c60612ffa565b5b14611ca1576040517f08c379a0000000000000000000000000000000000000000000000000000000008152600401611c9890613a80565b60405180910390fd5b80600360008581526020019081526020016000206006018190555060086003600085815260200190815260200160002060080160006101000a81548160ff02191690836008811115611cf657611cf5612ffa565b5b02179055506003600084815260200190815260200160002060020160009054906101000a900473ffffffffffffffffffffffffffffffffffffffff1673ffffffffffffffffffffffffffffffffffffffff16837fb068edd06fda39fbfd74738b75e0eac89183acd7e6bbca610abe317d8f18fe826003600087815260200190815260200160002060080160009054906101000a900460ff166003600088815260200190815260200160002060060154600360008981526020019081526020016000206005015487604051611dcd9493929190613aa0565b60405180910390a3505050565b600c60009054906101000a900473ffffffffffffffffffffffffffffffffffffffff1681565b6000801b611e0d81612733565b81611e387feefb95e842a3287179d933b4460be539a1d5af11aa8b325bb45c5c8dc92de4ed82611ff0565b15611e7a57806040517f375795b9000000000000000000000000000000000000000000000000000000008152600401611e71919061375c565b60405180910390fd5b611ea47f2a5f906c256a5d799494fcd066e1f6c077689de1cdb65052a1624de4bace99bf82611ff0565b15611ee657806040517f375795b9000000000000000000000000000000000000000000000000000000008152600401611edd91906137d6565b60405180910390fd5b611f107ffbd454f36a7e1a388bd6fc3ab10d434aa4578f811acbbcf33afb1c697486313c82611ff0565b15611f5257806040517f375795b9000000000000000000000000000000000000000000000000000000008152600401611f499190613850565b60405180910390fd5b600073ffffffffffffffffffffffffffffffffffffffff168173ffffffffffffffffffffffffffffffffffffffff1603611fc1576040517f08c379a0000000000000000000000000000000000000000000000000000000008152600401611fb89061328b565b60405180910390fd5b611feb7f2a5f906c256a5d799494fcd066e1f6c077689de1cdb65052a1624de4bace99bf84610fab565b505050565b600080600084815260200190815260200160002060000160008373ffffffffffffffffffffffffffffffffffffffff1673ffffffffffffffffffffffffffffffffffffffff16815260200190815260200160002060009054906101000a900460ff16905092915050565b7feefb95e842a3287179d933b4460be539a1d5af11aa8b325bb45c5c8dc92de4ed81565b6000801b61208b81612733565b600073ffffffffffffffffffffffffffffffffffffffff168273ffffffffffffffffffffffffffffffffffffffff16036120fa576040517f08c379a00000000000000000000000000000000000000000000000000000000081526004016120f190613b38565b60405180910390fd5b60018060008473ffffffffffffffffffffffffffffffffffffffff1673ffffffffffffffffffffffffffffffffffffffff16815260200190815260200160002060006101000a81548160ff02191690831515021790555061217b7feefb95e842a3287179d933b4460be539a1d5af11aa8b325bb45c5c8dc92de4ed83612840565b506121a67ffbd454f36a7e1a388bd6fc3ab10d434aa4578f811acbbcf33afb1c697486313c83612840565b506121d17f2a5f906c256a5d799494fcd066e1f6c077689de1cdb65052a1624de4bace99bf83612840565b507f90811a8edd3b3c17eeaefffc17f639cc69145d41a359c9843994dc2538203690826040516122019190612fdf565b60405180910390a15050565b60036020528060005260406000206000915090508060000154908060010160009054906101000a900473ffffffffffffffffffffffffffffffffffffffff16908060020160009054906101000a900473ffffffffffffffffffffffffffffffffffffffff16908060030160009054906101000a900473ffffffffffffffffffffffffffffffffffffffff16908060040154908060050154908060060154908060070154908060080160009054906101000a900460ff16908060080160019054906101000a900473ffffffffffffffffffffffffffffffffffffffff1690508a565b600960009054906101000a900473ffffffffffffffffffffffffffffffffffffffff1681565b60046020528060005260406000206000915090508060000154908060010154908060020160009054906101000a900473ffffffffffffffffffffffffffffffffffffffff16908060020160149054906101000a900460ff16908060020160159054906101000a900460ff169080600301805461238f906136b6565b80601f01602080910402602001604051908101604052809291908181526020018280546123bb906136b6565b80156124085780601f106123dd57610100808354040283529160200191612408565b820191906000526020600020905b8154815290600101906020018083116123eb57829003601f168201915b5050505050905086565b6000801b81565b6000801b61242681612733565b600073ffffffffffffffffffffffffffffffffffffffff168273ffffffffffffffffffffffffffffffffffffffff1603612495576040517f08c379a000000000000000000000000000000000000000000000000000000000815260040161248c90613ba4565b60405180910390fd5b6000600160008473ffffffffffffffffffffffffffffffffffffffff1673ffffffffffffffffffffffffffffffffffffffff16815260200190815260200160002060006101000a81548160ff0219169083151502179055507fc3776b472ebf54114339eec9e4dc924e7ce307a97f5c1ee72b6d474e6e5e8b7c8260405161251c9190612fdf565b60405180910390a15050565b600b60009054906101000a900473ffffffffffffffffffffffffffffffffffffffff1681565b6005602052816000526040600020818154811061256a57600080fd5b90600052602060002001600091509150505481565b61258882610f68565b61259181612733565b61259b8383612840565b50505050565b600a60009054906101000a900473ffffffffffffffffffffffffffffffffffffffff1681565b60016020528060005260406000206000915054906101000a900460ff1681565b7ffbd454f36a7e1a388bd6fc3ab10d434aa4578f811acbbcf33afb1c697486313c81565b60007f01ffc9a7000000000000000000000000000000000000000000000000000000007bffffffffffffffffffffffffffffffffffffffffffffffffffffffff1916827bffffffffffffffffffffffffffffffffffffffffffffffffffffffff1916149050919050565b600080612680612932565b9050600081116126c5576040517f08c379a00000000000000000000000000000000000000000000000000000000081526004016126bc90613c10565b60405180910390fd5b6000831161270a57826040517f3728b83d0000000000000000000000000000000000000000000000000000000081526004016127019190612b0c565b60405180910390fd5b6000816305f5e1008561271d9190613c5f565b6127279190613cd0565b90508092505050919050565b6127448161273f612838565b6129d3565b50565b60006127538383611ff0565b61282d57600160008085815260200190815260200160002060000160008473ffffffffffffffffffffffffffffffffffffffff1673ffffffffffffffffffffffffffffffffffffffff16815260200190815260200160002060006101000a81548160ff0219169083151502179055506127ca612838565b73ffffffffffffffffffffffffffffffffffffffff168273ffffffffffffffffffffffffffffffffffffffff16847f2f8788117e7eff1d82e926ec794901d17c78024a50270940304540a733656f0d60405160405180910390a460019050612832565b600090505b92915050565b600033905090565b600061284c8383611ff0565b1561292757600080600085815260200190815260200160002060000160008473ffffffffffffffffffffffffffffffffffffffff1673ffffffffffffffffffffffffffffffffffffffff16815260200190815260200160002060006101000a81548160ff0219169083151502179055506128c4612838565b73ffffffffffffffffffffffffffffffffffffffff168273ffffffffffffffffffffffffffffffffffffffff16847ff6391f5c32d9c69d2a47ea670b442974b53935d1edc7fd64eb21e047a839171b60405160405180910390a46001905061292c565b600090505b92915050565b600080600960009054906101000a900473ffffffffffffffffffffffffffffffffffffffff1673ffffffffffffffffffffffffffffffffffffffff1663feaf968c6040518163ffffffff1660e01b815260040160a060405180830381865afa1580156129a2573d6000803e3d6000fd5b505050506040513d601f19601f820116820180604052508101906129c69190613d8e565b5050509150508091505090565b6129dd8282611ff0565b612a205780826040517fe2517d3f000000000000000000000000000000000000000000000000000000008152600401612a17929190613e09565b60405180910390fd5b5050565b6000604051905090565b600080fd5b600080fd5b60007fffffffff0000000000000000000000000000000000000000000000000000000082169050919050565b612a6d81612a38565b8114612a7857600080fd5b50565b600081359050612a8a81612a64565b92915050565b600060208284031215612aa657612aa5612a2e565b5b6000612ab484828501612a7b565b91505092915050565b60008115159050919050565b612ad281612abd565b82525050565b6000602082019050612aed6000830184612ac9565b92915050565b6000819050919050565b612b0681612af3565b82525050565b6000602082019050612b216000830184612afd565b92915050565b6000819050919050565b612b3a81612b27565b8114612b4557600080fd5b50565b600081359050612b5781612b31565b92915050565b600073ffffffffffffffffffffffffffffffffffffffff82169050919050565b6000612b8882612b5d565b9050919050565b612b9881612b7d565b8114612ba357600080fd5b50565b600081359050612bb581612b8f565b92915050565b60008060408385031215612bd257612bd1612a2e565b5b6000612be085828601612b48565b9250506020612bf185828601612ba6565b9150509250929050565b612c0481612b27565b82525050565b6000602082019050612c1f6000830184612bfb565b92915050565b600060208284031215612c3b57612c3a612a2e565b5b6000612c4984828501612b48565b91505092915050565b612c5b81612af3565b8114612c6657600080fd5b50565b600081359050612c7881612c52565b92915050565b600060208284031215612c9457612c93612a2e565b5b6000612ca284828501612c69565b91505092915050565b612cb481612b7d565b82525050565b600081519050919050565b600082825260208201905092915050565b60005b83811015612cf4578082015181840152602081019050612cd9565b60008484015250505050565b6000601f19601f8301169050919050565b6000612d1c82612cba565b612d268185612cc5565b9350612d36818560208601612cd6565b612d3f81612d00565b840191505092915050565b600060c082019050612d5f6000830189612bfb565b612d6c6020830188612afd565b612d796040830187612cab565b612d866060830186612ac9565b612d936080830185612ac9565b81810360a0830152612da58184612d11565b9050979650505050505050565b600060208284031215612dc857612dc7612a2e565b5b6000612dd684828501612ba6565b91505092915050565b600080fd5b600080fd5b7f4e487b7100000000000000000000000000000000000000000000000000000000600052604160045260246000fd5b612e2182612d00565b810181811067ffffffffffffffff82111715612e4057612e3f612de9565b5b80604052505050565b6000612e53612a24565b9050612e5f8282612e18565b919050565b600067ffffffffffffffff821115612e7f57612e7e612de9565b5b612e8882612d00565b9050602081019050919050565b82818337600083830152505050565b6000612eb7612eb284612e64565b612e49565b905082815260208101848484011115612ed357612ed2612de4565b5b612ede848285612e95565b509392505050565b600082601f830112612efb57612efa612ddf565b5b8135612f0b848260208601612ea4565b91505092915050565b60008060408385031215612f2b57612f2a612a2e565b5b600083013567ffffffffffffffff811115612f4957612f48612a33565b5b612f5585828601612ee6565b9250506020612f6685828601612ba6565b9150509250929050565b600080600060608486031215612f8957612f88612a2e565b5b6000612f9786828701612b48565b935050602084013567ffffffffffffffff811115612fb857612fb7612a33565b5b612fc486828701612ee6565b9250506040612fd586828701612c69565b9150509250925092565b6000602082019050612ff46000830184612cab565b92915050565b7f4e487b7100000000000000000000000000000000000000000000000000000000600052602160045260246000fd5b6009811061303a57613039612ffa565b5b50565b600081905061304b82613029565b919050565b600061305b8261303d565b9050919050565b61306b81613050565b82525050565b600061014082019050613087600083018d612bfb565b613094602083018c612cab565b6130a1604083018b612cab565b6130ae606083018a612cab565b6130bb6080830189612afd565b6130c860a0830188612afd565b6130d560c0830187612afd565b6130e260e0830186612afd565b6130f0610100830185613062565b6130fe610120830184612cab565b9b9a5050505050505050505050565b6000819050919050565b600061313261312d61312884612b5d565b61310d565b612b5d565b9050919050565b600061314482613117565b9050919050565b600061315682613139565b9050919050565b6131668161314b565b82525050565b6000602082019050613181600083018461315d565b92915050565b600061319282613139565b9050919050565b6131a281613187565b82525050565b60006020820190506131bd6000830184613199565b92915050565b600080604083850312156131da576131d9612a2e565b5b60006131e885828601612ba6565b92505060206131f985828601612c69565b9150509250929050565b600061320e82613139565b9050919050565b61321e81613203565b82525050565b60006020820190506132396000830184613215565b92915050565b7f4164647265737320496e76616c69640000000000000000000000000000000000600082015250565b6000613275600f83612cc5565b91506132808261323f565b602082019050919050565b600060208201905081810360008301526132a481613268565b9050919050565b60006040820190506132c06000830185612bfb565b6132cd6020830184612cab565b9392505050565b6132dd81612abd565b81146132e857600080fd5b50565b6000815190506132fa816132d4565b92915050565b60006020828403121561331657613315612a2e565b5b6000613324848285016132eb565b91505092915050565b7f497473206e6f74204469737472696275746f7200000000000000000000000000600082015250565b6000613363601383612cc5565b915061336e8261332d565b602082019050919050565b6000602082019050818103600083015261339281613356565b9050919050565b7f54686973206469737472696275746f72206973206e6f7420746865206f776e6560008201527f72206f6620746869732062617463680000000000000000000000000000000000602082015250565b60006133f5602f83612cc5565b915061340082613399565b604082019050919050565b60006020820190508181036000830152613424816133e8565b9050919050565b7f4261746368206861732065787069726564000000000000000000000000000000600082015250565b6000613461601183612cc5565b915061346c8261342b565b602082019050919050565b6000602082019050818103600083015261349081613454565b9050919050565b7f426174636820697320616c72656164792070757263686173656420627920612060008201527f72657461696c6572000000000000000000000000000000000000000000000000602082015250565b60006134f3602883612cc5565b91506134fe82613497565b604082019050919050565b60006020820190508181036000830152613522816134e6565b9050919050565b7f496e73696666696369656e74205061796d656e74000000000000000000000000600082015250565b600061355f601483612cc5565b915061356a82613529565b602082019050919050565b6000602082019050818103600083015261358e81613552565b9050919050565b7f4261746368206973206e6f7420617661696c61626c6520666f7220726573656c60008201527f6c00000000000000000000000000000000000000000000000000000000000000602082015250565b60006135f1602183612cc5565b91506135fc82613595565b604082019050919050565b60006020820190508181036000830152613620816135e4565b9050919050565b600060408201905061363c6000830185612cab565b6136496020830184612cab565b9392505050565b60006060820190506136656000830186613062565b6136726020830185612afd565b61367f6040830184612afd565b949350505050565b7f4e487b7100000000000000000000000000000000000000000000000000000000600052602260045260246000fd5b600060028204905060018216806136ce57607f821691505b6020821081036136e1576136e0613687565b5b50919050565b60006040820190506136fc6000830185612cab565b6137096020830184612afd565b9392505050565b7f4d616e7566616374757265720000000000000000000000000000000000000000600082015250565b6000613746600c83612cc5565b915061375182613710565b602082019050919050565b6000604082019050818103600083015261377581613739565b90506137846020830184612cab565b92915050565b7f52657461696c6572000000000000000000000000000000000000000000000000600082015250565b60006137c0600883612cc5565b91506137cb8261378a565b602082019050919050565b600060408201905081810360008301526137ef816137b3565b90506137fe6020830184612cab565b92915050565b7f4469737472696275746f72000000000000000000000000000000000000000000600082015250565b600061383a600b83612cc5565b915061384582613804565b602082019050919050565b600060408201905081810360008301526138698161382d565b90506138786020830184612cab565b92915050565b7f496e76616c696420726f6c65206e616d65000000000000000000000000000000600082015250565b60006138b4601183612cc5565b91506138bf8261387e565b602082019050919050565b600060208201905081810360008301526138e3816138a7565b9050919050565b7f596f7520617265206e6f7420746865206f776e6572206f66207468697320626160008201527f7463680000000000000000000000000000000000000000000000000000000000602082015250565b6000613946602383612cc5565b9150613951826138ea565b604082019050919050565b6000602082019050818103600083015261397581613939565b9050919050565b7f4e6577207072696365206d7573742062652067726561746572207468616e207a60008201527f65726f20616e642070726576696f757320707269636500000000000000000000602082015250565b60006139d8603683612cc5565b91506139e38261397c565b604082019050919050565b60006020820190508181036000830152613a07816139cb565b9050919050565b7f4261746368206973206e6f74206f776e6564206279206469737472696275746f60008201527f7200000000000000000000000000000000000000000000000000000000000000602082015250565b6000613a6a602183612cc5565b9150613a7582613a0e565b604082019050919050565b60006020820190508181036000830152613a9981613a5d565b9050919050565b6000608082019050613ab56000830187613062565b613ac26020830186612afd565b613acf6040830185612afd565b8181036060830152613ae18184612d11565b905095945050505050565b7f43616e6e6f7420667265657a6520746865207a65726f20616464726573730000600082015250565b6000613b22601e83612cc5565b9150613b2d82613aec565b602082019050919050565b60006020820190508181036000830152613b5181613b15565b9050919050565b7f43616e6e6f7420756e667265657a6520746865207a65726f2061646472657373600082015250565b6000613b8e602083612cc5565b9150613b9982613b58565b602082019050919050565b60006020820190508181036000830152613bbd81613b81565b9050919050565b7f496e76616c696420707269636520666565642064617461000000000000000000600082015250565b6000613bfa601783612cc5565b9150613c0582613bc4565b602082019050919050565b60006020820190508181036000830152613c2981613bed565b9050919050565b7f4e487b7100000000000000000000000000000000000000000000000000000000600052601160045260246000fd5b6000613c6a82612af3565b9150613c7583612af3565b9250828202613c8381612af3565b91508282048414831517613c9a57613c99613c30565b5b5092915050565b7f4e487b7100000000000000000000000000000000000000000000000000000000600052601260045260246000fd5b6000613cdb82612af3565b9150613ce683612af3565b925082613cf657613cf5613ca1565b5b828204905092915050565b600069ffffffffffffffffffff82169050919050565b613d2081613d01565b8114613d2b57600080fd5b50565b600081519050613d3d81613d17565b92915050565b6000819050919050565b613d5681613d43565b8114613d6157600080fd5b50565b600081519050613d7381613d4d565b92915050565b600081519050613d8881612c52565b92915050565b600080600080600060a08688031215613daa57613da9612a2e565b5b6000613db888828901613d2e565b9550506020613dc988828901613d64565b9450506040613dda88828901613d79565b9350506060613deb88828901613d79565b9250506080613dfc88828901613d2e565b9150509295509295909350565b6000604082019050613e1e6000830185612cab565b613e2b6020830184612bfb565b939250505056fea26469706673582212201be3a3a2d788e559cd4a84f292aaff4be922ec910c3b3f69060cb66d9bc8e06364736f6c634300081c0033",
  "linkReferences": {},
  "deployedLinkReferences": {}
}