{
  "_format": "hh-sol-artifact-1",
  "contractName": "ResellMechanism",
  "sourceName": "contracts/ResellMechanism.sol",
  "abi": [
    {
      "inputs": [
        {
          "internalType": "address",
          "name": "priceFeedAddress",
          "type": "address"
        },
        {
          "internalType": "address",
          "name": "escrowAddress",
          "type": "address"
        },
        {
          "internalType": "address",
          "name": "handlingAddresses",
          "type": "address"
        }
      ],
      "stateMutability": "nonpayable",
      "type": "constructor"
    },
    {
      "inputs": [],
      "name": "AccessControlBadConfirmation",
      "type": "error"
    },
    {
      "inputs": [
        {
          "internalType": "address",
          "name": "account",
          "type": "address"
        },
        {
          "internalType": "bytes32",
          "name": "neededRole",
          "type": "bytes32"
        }
      ],
      "name": "AccessControlUnauthorizedAccount",
      "type": "error"
    },
    {
      "inputs": [
        {
          "internalType": "string",
          "name": "role",
          "type": "string"
        },
        {
          "internalType": "address",
          "name": "account",
          "type": "address"
        }
      ],
      "name": "AddressAlreadyExists",
      "type": "error"
    },
    {
      "inputs": [
        {
          "internalType": "address",
          "name": "account",
          "type": "address"
        }
      ],
      "name": "AddressInvalid",
      "type": "error"
    },
    {
      "inputs": [
        {
          "internalType": "uint256",
          "name": "_usdAmount",
          "type": "uint256"
        }
      ],
      "name": "InvalidAmount",
      "type": "error"
    },
    {
      "anonymous": false,
      "inputs": [
        {
          "indexed": false,
          "internalType": "address",
          "name": "account",
          "type": "address"
        }
      ],
      "name": "AddressFrozen",
      "type": "event"
    },
    {
      "anonymous": false,
      "inputs": [
        {
          "indexed": false,
          "internalType": "address",
          "name": "account",
          "type": "address"
        }
      ],
      "name": "AddressUnfrozen",
      "type": "event"
    },
    {
      "anonymous": false,
      "inputs": [
        {
          "indexed": true,
          "internalType": "bytes32",
          "name": "batchId",
          "type": "bytes32"
        },
        {
          "indexed": false,
          "internalType": "uint256",
          "name": "timestamp",
          "type": "uint256"
        }
      ],
      "name": "BatchCreated",
      "type": "event"
    },
    {
      "anonymous": false,
      "inputs": [
        {
          "indexed": true,
          "internalType": "bytes32",
          "name": "batchId",
          "type": "bytes32"
        },
        {
          "indexed": false,
          "internalType": "address",
          "name": "distributor",
          "type": "address"
        },
        {
          "indexed": false,
          "internalType": "enum DrugSupplyChain.BatchStatus",
          "name": "statusEnum",
          "type": "uint8"
        },
        {
          "indexed": false,
          "internalType": "uint256",
          "name": "price",
          "type": "uint256"
        },
        {
          "indexed": false,
          "internalType": "uint256",
          "name": "timestamp",
          "type": "uint256"
        }
      ],
      "name": "DistributerPurchased",
      "type": "event"
    },
    {
      "anonymous": false,
      "inputs": [
        {
          "indexed": true,
          "internalType": "bytes32",
          "name": "batchId",
          "type": "bytes32"
        },
        {
          "indexed": false,
          "internalType": "enum DrugSupplyChain.BatchStatus",
          "name": "statusEnum",
          "type": "uint8"
        },
        {
          "indexed": true,
          "internalType": "address",
          "name": "distributor",
          "type": "address"
        },
        {
          "indexed": false,
          "internalType": "uint256",
          "name": "price",
          "type": "uint256"
        },
        {
          "indexed": false,
          "internalType": "uint256",
          "name": "timestamp",
          "type": "uint256"
        },
        {
          "indexed": false,
          "internalType": "string",
          "name": "reason",
          "type": "string"
        }
      ],
      "name": "EligibleForResell",
      "type": "event"
    },
    {
      "anonymous": false,
      "inputs": [
        {
          "indexed": true,
          "internalType": "bytes32",
          "name": "batchId",
          "type": "bytes32"
        },
        {
          "indexed": true,
          "internalType": "address",
          "name": "to",
          "type": "address"
        },
        {
          "indexed": true,
          "internalType": "uint256",
          "name": "timestamp",
          "type": "uint256"
        },
        {
          "indexed": false,
          "internalType": "bool",
          "name": "refunded",
          "type": "bool"
        },
        {
          "indexed": false,
          "internalType": "string",
          "name": "reason",
          "type": "string"
        }
      ],
      "name": "Refunded",
      "type": "event"
    },
    {
      "anonymous": false,
      "inputs": [
        {
          "indexed": true,
          "internalType": "bytes32",
          "name": "batchId",
          "type": "bytes32"
        },
        {
          "indexed": true,
          "internalType": "address",
          "name": "requester",
          "type": "address"
        },
        {
          "indexed": true,
          "internalType": "uint256",
          "name": "timestamp",
          "type": "uint256"
        },
        {
          "indexed": false,
          "internalType": "bool",
          "name": "approved",
          "type": "bool"
        },
        {
          "indexed": false,
          "internalType": "string",
          "name": "reason",
          "type": "string"
        }
      ],
      "name": "RequestApproved",
      "type": "event"
    },
    {
      "anonymous": false,
      "inputs": [
        {
          "indexed": true,
          "internalType": "bytes32",
          "name": "batchId",
          "type": "bytes32"
        },
        {
          "indexed": false,
          "internalType": "enum DrugSupplyChain.BatchStatus",
          "name": "statusEnum",
          "type": "uint8"
        },
        {
          "indexed": true,
          "internalType": "address",
          "name": "distributor",
          "type": "address"
        },
        {
          "indexed": false,
          "internalType": "uint256",
          "name": "price",
          "type": "uint256"
        },
        {
          "indexed": false,
          "internalType": "uint256",
          "name": "timestamp",
          "type": "uint256"
        }
      ],
      "name": "ResellingDone",
      "type": "event"
    },
    {
      "anonymous": false,
      "inputs": [
        {
          "indexed": true,
          "internalType": "bytes32",
          "name": "batchId",
          "type": "bytes32"
        },
        {
          "indexed": false,
          "internalType": "address",
          "name": "retailer",
          "type": "address"
        },
        {
          "indexed": false,
          "internalType": "enum DrugSupplyChain.BatchStatus",
          "name": "statusEnum",
          "type": "uint8"
        },
        {
          "indexed": false,
          "internalType": "uint256",
          "name": "price",
          "type": "uint256"
        },
        {
          "indexed": false,
          "internalType": "uint256",
          "name": "timestamp",
          "type": "uint256"
        }
      ],
      "name": "RetailerPurchased",
      "type": "event"
    },
    {
      "anonymous": false,
      "inputs": [
        {
          "indexed": true,
          "internalType": "bytes32",
          "name": "batchId",
          "type": "bytes32"
        },
        {
          "indexed": true,
          "internalType": "uint256",
          "name": "timestamp",
          "type": "uint256"
        },
        {
          "indexed": true,
          "internalType": "address",
          "name": "requester",
          "type": "address"
        },
        {
          "indexed": false,
          "internalType": "bool",
          "name": "approved",
          "type": "bool"
        },
        {
          "indexed": false,
          "internalType": "bool",
          "name": "refunded",
          "type": "bool"
        },
        {
          "indexed": false,
          "internalType": "string",
          "name": "reason",
          "type": "string"
        }
      ],
      "name": "ReturnRequested",
      "type": "event"
    },
    {
      "anonymous": false,
      "inputs": [
        {
          "indexed": true,
          "internalType": "bytes32",
          "name": "role",
          "type": "bytes32"
        },
        {
          "indexed": true,
          "internalType": "bytes32",
          "name": "previousAdminRole",
          "type": "bytes32"
        },
        {
          "indexed": true,
          "internalType": "bytes32",
          "name": "newAdminRole",
          "type": "bytes32"
        }
      ],
      "name": "RoleAdminChanged",
      "type": "event"
    },
    {
      "anonymous": false,
      "inputs": [
        {
          "indexed": true,
          "internalType": "bytes32",
          "name": "role",
          "type": "bytes32"
        },
        {
          "indexed": true,
          "internalType": "address",
          "name": "account",
          "type": "address"
        },
        {
          "indexed": true,
          "internalType": "address",
          "name": "sender",
          "type": "address"
        }
      ],
      "name": "RoleGranted",
      "type": "event"
    },
    {
      "anonymous": false,
      "inputs": [
        {
          "indexed": true,
          "internalType": "bytes32",
          "name": "role",
          "type": "bytes32"
        },
        {
          "indexed": true,
          "internalType": "address",
          "name": "account",
          "type": "address"
        },
        {
          "indexed": true,
          "internalType": "address",
          "name": "sender",
          "type": "address"
        }
      ],
      "name": "RoleRevoked",
      "type": "event"
    },
    {
      "inputs": [],
      "name": "DEFAULT_ADMIN_ROLE",
      "outputs": [
        {
          "internalType": "bytes32",
          "name": "",
          "type": "bytes32"
        }
      ],
      "stateMutability": "view",
      "type": "function"
    },
    {
      "inputs": [],
      "name": "DISTRIBUTOR_ROLE",
      "outputs": [
        {
          "internalType": "bytes32",
          "name": "",
          "type": "bytes32"
        }
      ],
      "stateMutability": "view",
      "type": "function"
    },
    {
      "inputs": [],
      "name": "MANUFACTURER_ROLE",
      "outputs": [
        {
          "internalType": "bytes32",
          "name": "",
          "type": "bytes32"
        }
      ],
      "stateMutability": "view",
      "type": "function"
    },
    {
      "inputs": [],
      "name": "RETAILER_ROLE",
      "outputs": [
        {
          "internalType": "bytes32",
          "name": "",
          "type": "bytes32"
        }
      ],
      "stateMutability": "view",
      "type": "function"
    },
    {
      "inputs": [
        {
          "internalType": "address",
          "name": "distributor",
          "type": "address"
        }
      ],
      "name": "addDistributor",
      "outputs": [],
      "stateMutability": "nonpayable",
      "type": "function"
    },
    {
      "inputs": [
        {
          "internalType": "address",
          "name": "manufacturer",
          "type": "address"
        }
      ],
      "name": "addManufacturer",
      "outputs": [],
      "stateMutability": "nonpayable",
      "type": "function"
    },
    {
      "inputs": [
        {
          "internalType": "address",
          "name": "retailer",
          "type": "address"
        }
      ],
      "name": "addRetailer",
      "outputs": [],
      "stateMutability": "nonpayable",
      "type": "function"
    },
    {
      "inputs": [
        {
          "internalType": "uint256",
          "name": "",
          "type": "uint256"
        }
      ],
      "name": "allBatchIds",
      "outputs": [
        {
          "internalType": "bytes32",
          "name": "",
          "type": "bytes32"
        }
      ],
      "stateMutability": "view",
      "type": "function"
    },
    {
      "inputs": [],
      "name": "batchCount",
      "outputs": [
        {
          "internalType": "uint256",
          "name": "",
          "type": "uint256"
        }
      ],
      "stateMutability": "view",
      "type": "function"
    },
    {
      "inputs": [
        {
          "internalType": "address",
          "name": "",
          "type": "address"
        }
      ],
      "name": "batchCounter",
      "outputs": [
        {
          "internalType": "uint256",
          "name": "",
          "type": "uint256"
        }
      ],
      "stateMutability": "view",
      "type": "function"
    },
    {
      "inputs": [
        {
          "internalType": "bytes32",
          "name": "",
          "type": "bytes32"
        }
      ],
      "name": "batchIdToBatch",
      "outputs": [
        {
          "internalType": "bytes32",
          "name": "batchId",
          "type": "bytes32"
        },
        {
          "internalType": "address",
          "name": "manufacturer",
          "type": "address"
        },
        {
          "internalType": "address",
          "name": "distributor",
          "type": "address"
        },
        {
          "internalType": "address",
          "name": "retailer",
          "type": "address"
        },
        {
          "internalType": "uint256",
          "name": "expiryDate",
          "type": "uint256"
        },
        {
          "internalType": "uint256",
          "name": "timestamp",
          "type": "uint256"
        },
        {
          "internalType": "uint256",
          "name": "price",
          "type": "uint256"
        },
        {
          "internalType": "uint256",
          "name": "productPrice",
          "type": "uint256"
        },
        {
          "internalType": "enum DrugSupplyChain.BatchStatus",
          "name": "statusEnum",
          "type": "uint8"
        },
        {
          "internalType": "address",
          "name": "ipfsHash",
          "type": "address"
        }
      ],
      "stateMutability": "view",
      "type": "function"
    },
    {
      "inputs": [
        {
          "internalType": "bytes32",
          "name": "_batchId",
          "type": "bytes32"
        },
        {
          "internalType": "address",
          "name": "distributor",
          "type": "address"
        }
      ],
      "name": "buyResellBatch",
      "outputs": [],
      "stateMutability": "payable",
      "type": "function"
    },
    {
      "inputs": [
        {
          "internalType": "string",
          "name": "roleName",
          "type": "string"
        },
        {
          "internalType": "address",
          "name": "account",
          "type": "address"
        }
      ],
      "name": "checkRole",
      "outputs": [
        {
          "internalType": "bool",
          "name": "",
          "type": "bool"
        }
      ],
      "stateMutability": "view",
      "type": "function"
    },
    {
      "inputs": [],
      "name": "dataFeed",
      "outputs": [
        {
          "internalType": "contract AggregatorV3Interface",
          "name": "",
          "type": "address"
        }
      ],
      "stateMutability": "view",
      "type": "function"
    },
    {
      "inputs": [
        {
          "internalType": "bytes32",
          "name": "_batchId",
          "type": "bytes32"
        },
        {
          "internalType": "string",
          "name": "reason",
          "type": "string"
        },
        {
          "internalType": "uint256",
          "name": "newPrice",
          "type": "uint256"
        }
      ],
      "name": "eligibleToResell",
      "outputs": [],
      "stateMutability": "nonpayable",
      "type": "function"
    },
    {
      "inputs": [],
      "name": "escrowContract",
      "outputs": [
        {
          "internalType": "contract Escrow",
          "name": "",
          "type": "address"
        }
      ],
      "stateMutability": "view",
      "type": "function"
    },
    {
      "inputs": [
        {
          "internalType": "address",
          "name": "account",
          "type": "address"
        }
      ],
      "name": "frozeAddress",
      "outputs": [],
      "stateMutability": "nonpayable",
      "type": "function"
    },
    {
      "inputs": [
        {
          "internalType": "bytes32",
          "name": "role",
          "type": "bytes32"
        }
      ],
      "name": "getRoleAdmin",
      "outputs": [
        {
          "internalType": "bytes32",
          "name": "",
          "type": "bytes32"
        }
      ],
      "stateMutability": "view",
      "type": "function"
    },
    {
      "inputs": [
        {
          "internalType": "bytes32",
          "name": "role",
          "type": "bytes32"
        },
        {
          "internalType": "address",
          "name": "account",
          "type": "address"
        }
      ],
      "name": "grantRole",
      "outputs": [],
      "stateMutability": "nonpayable",
      "type": "function"
    },
    {
      "inputs": [],
      "name": "handlingAddresses",
      "outputs": [
        {
          "internalType": "contract HandlingAddresses",
          "name": "",
          "type": "address"
        }
      ],
      "stateMutability": "view",
      "type": "function"
    },
    {
      "inputs": [
        {
          "internalType": "bytes32",
          "name": "role",
          "type": "bytes32"
        },
        {
          "internalType": "address",
          "name": "account",
          "type": "address"
        }
      ],
      "name": "hasRole",
      "outputs": [
        {
          "internalType": "bool",
          "name": "",
          "type": "bool"
        }
      ],
      "stateMutability": "view",
      "type": "function"
    },
    {
      "inputs": [
        {
          "internalType": "address",
          "name": "",
          "type": "address"
        }
      ],
      "name": "isFrozen",
      "outputs": [
        {
          "internalType": "bool",
          "name": "",
          "type": "bool"
        }
      ],
      "stateMutability": "view",
      "type": "function"
    },
    {
      "inputs": [],
      "name": "owner",
      "outputs": [
        {
          "internalType": "address",
          "name": "",
          "type": "address"
        }
      ],
      "stateMutability": "view",
      "type": "function"
    },
    {
      "inputs": [
        {
          "internalType": "address",
          "name": "",
          "type": "address"
        },
        {
          "internalType": "uint256",
          "name": "",
          "type": "uint256"
        }
      ],
      "name": "ownerToBatches",
      "outputs": [
        {
          "internalType": "bytes32",
          "name": "",
          "type": "bytes32"
        }
      ],
      "stateMutability": "view",
      "type": "function"
    },
    {
      "inputs": [
        {
          "internalType": "uint256",
          "name": "",
          "type": "uint256"
        }
      ],
      "name": "pendingRequests",
      "outputs": [
        {
          "internalType": "bytes32",
          "name": "batchId",
          "type": "bytes32"
        },
        {
          "internalType": "uint256",
          "name": "timestamp",
          "type": "uint256"
        },
        {
          "internalType": "address",
          "name": "requester",
          "type": "address"
        },
        {
          "internalType": "bool",
          "name": "refunded",
          "type": "bool"
        },
        {
          "internalType": "bool",
          "name": "approved",
          "type": "bool"
        },
        {
          "internalType": "string",
          "name": "reason",
          "type": "string"
        }
      ],
      "stateMutability": "view",
      "type": "function"
    },
    {
      "inputs": [
        {
          "internalType": "address",
          "name": "distributor",
          "type": "address"
        }
      ],
      "name": "removeDistributor",
      "outputs": [],
      "stateMutability": "nonpayable",
      "type": "function"
    },
    {
      "inputs": [
        {
          "internalType": "address",
          "name": "manufacturer",
          "type": "address"
        }
      ],
      "name": "removeManufacturer",
      "outputs": [],
      "stateMutability": "nonpayable",
      "type": "function"
    },
    {
      "inputs": [
        {
          "internalType": "address",
          "name": "retailer",
          "type": "address"
        }
      ],
      "name": "removeRetailer",
      "outputs": [],
      "stateMutability": "nonpayable",
      "type": "function"
    },
    {
      "inputs": [
        {
          "internalType": "bytes32",
          "name": "role",
          "type": "bytes32"
        },
        {
          "internalType": "address",
          "name": "callerConfirmation",
          "type": "address"
        }
      ],
      "name": "renounceRole",
      "outputs": [],
      "stateMutability": "nonpayable",
      "type": "function"
    },
    {
      "inputs": [
        {
          "internalType": "bytes32",
          "name": "",
          "type": "bytes32"
        }
      ],
      "name": "returnRequests",
      "outputs": [
        {
          "internalType": "bytes32",
          "name": "batchId",
          "type": "bytes32"
        },
        {
          "internalType": "uint256",
          "name": "timestamp",
          "type": "uint256"
        },
        {
          "internalType": "address",
          "name": "requester",
          "type": "address"
        },
        {
          "internalType": "bool",
          "name": "refunded",
          "type": "bool"
        },
        {
          "internalType": "bool",
          "name": "approved",
          "type": "bool"
        },
        {
          "internalType": "string",
          "name": "reason",
          "type": "string"
        }
      ],
      "stateMutability": "view",
      "type": "function"
    },
    {
      "inputs": [
        {
          "internalType": "bytes32",
          "name": "role",
          "type": "bytes32"
        },
        {
          "internalType": "address",
          "name": "account",
          "type": "address"
        }
      ],
      "name": "revokeRole",
      "outputs": [],
      "stateMutability": "nonpayable",
      "type": "function"
    },
    {
      "inputs": [
        {
          "internalType": "bytes4",
          "name": "interfaceId",
          "type": "bytes4"
        }
      ],
      "name": "supportsInterface",
      "outputs": [
        {
          "internalType": "bool",
          "name": "",
          "type": "bool"
        }
      ],
      "stateMutability": "view",
      "type": "function"
    },
    {
      "inputs": [
        {
          "internalType": "address",
          "name": "account",
          "type": "address"
        }
      ],
      "name": "unfreezeAddress",
      "outputs": [],
      "stateMutability": "nonpayable",
      "type": "function"
    },
    {
      "inputs": [],
      "name": "withdraw",
      "outputs": [],
      "stateMutability": "nonpayable",
      "type": "function"
    }
  ],
  "bytecode": "0x608060405234801561001057600080fd5b50604051613e48380380613e488339818101604052810190610032919061032a565b8282826100486000801b3361015860201b60201c565b5033600c60006101000a81548173ffffffffffffffffffffffffffffffffffffffff021916908373ffffffffffffffffffffffffffffffffffffffff16021790555081600a60006101000a81548173ffffffffffffffffffffffffffffffffffffffff021916908373ffffffffffffffffffffffffffffffffffffffff16021790555082600960006101000a81548173ffffffffffffffffffffffffffffffffffffffff021916908373ffffffffffffffffffffffffffffffffffffffff16021790555080600b60006101000a81548173ffffffffffffffffffffffffffffffffffffffff021916908373ffffffffffffffffffffffffffffffffffffffff16021790555050505050505061037d565b600061016a838361025560201b60201c565b61024a57600160008085815260200190815260200160002060000160008473ffffffffffffffffffffffffffffffffffffffff1673ffffffffffffffffffffffffffffffffffffffff16815260200190815260200160002060006101000a81548160ff0219169083151502179055506101e76102bf60201b60201c565b73ffffffffffffffffffffffffffffffffffffffff168273ffffffffffffffffffffffffffffffffffffffff16847f2f8788117e7eff1d82e926ec794901d17c78024a50270940304540a733656f0d60405160405180910390a46001905061024f565b600090505b92915050565b600080600084815260200190815260200160002060000160008373ffffffffffffffffffffffffffffffffffffffff1673ffffffffffffffffffffffffffffffffffffffff16815260200190815260200160002060009054906101000a900460ff16905092915050565b600033905090565b600080fd5b600073ffffffffffffffffffffffffffffffffffffffff82169050919050565b60006102f7826102cc565b9050919050565b610307816102ec565b811461031257600080fd5b50565b600081519050610324816102fe565b92915050565b600080600060608486031215610343576103426102c7565b5b600061035186828701610315565b935050602061036286828701610315565b925050604061037386828701610315565b9150509250925092565b613abc8061038c6000396000f3fe6080604052600436106101f95760003560e01c80637e77e6611161010d5780639fb65529116100a0578063cf30c7051161006f578063cf30c70514610759578063d547741f14610796578063e42a96e7146107bf578063e5839836146107ea578063f0bd87cc14610827576101f9565b80639fb6552914610698578063a217fddf146106da578063bfb8054714610705578063c1c460a61461072e576101f9565b8063965288b0116100dc578063965288b0146105d357806399fd9cfb146105fe5780639de7c3b7146106275780639e42ff901461066d576101f9565b80637e77e661146105195780638da5cb5b146105425780638ec4f5051461056d57806391d1485414610596576101f9565b80633c652a9a116101905780636a0f9f701161015f5780636a0f9f70146104245780636a75323f1461046157806370099ec81461048a5780637026fe9c146104b35780637250e224146104f0576101f9565b80633c652a9a146103795780633ccfd60b146103bb57806357c1f9e2146103d25780635f8a5afa146103fb576101f9565b8063248a9ca3116101cc578063248a9ca3146102ad578063290b17ec146102ea5780632f2ff15d1461032757806336568abe14610350576101f9565b806301ffc9a7146101fe57806306f130561461023b5780631b18faa9146102665780632115e7bf14610282575b600080fd5b34801561020a57600080fd5b5061022560048036038101906102209190612929565b610852565b6040516102329190612971565b60405180910390f35b34801561024757600080fd5b506102506108cc565b60405161025d91906129a5565b60405180910390f35b610280600480360381019061027b9190612a54565b6108d2565b005b34801561028e57600080fd5b50610297610f3c565b6040516102a49190612aa3565b60405180910390f35b3480156102b957600080fd5b506102d460048036038101906102cf9190612abe565b610f60565b6040516102e19190612aa3565b60405180910390f35b3480156102f657600080fd5b50610311600480360381019061030c9190612b17565b610f7f565b60405161031e9190612aa3565b60405180910390f35b34801561033357600080fd5b5061034e60048036038101906103499190612a54565b610fa3565b005b34801561035c57600080fd5b5061037760048036038101906103729190612a54565b610fc5565b005b34801561038557600080fd5b506103a0600480360381019061039b9190612b17565b611040565b6040516103b296959493929190612be3565b60405180910390f35b3480156103c757600080fd5b506103d061114e565b005b3480156103de57600080fd5b506103f960048036038101906103f49190612c4b565b611281565b005b34801561040757600080fd5b50610422600480360381019061041d9190612c4b565b6112bc565b005b34801561043057600080fd5b5061044b60048036038101906104469190612c4b565b6114ac565b60405161045891906129a5565b60405180910390f35b34801561046d57600080fd5b5061048860048036038101906104839190612c4b565b6114c4565b005b34801561049657600080fd5b506104b160048036038101906104ac9190612c4b565b6114ff565b005b3480156104bf57600080fd5b506104da60048036038101906104d59190612dad565b61153a565b6040516104e79190612971565b60405180910390f35b3480156104fc57600080fd5b5061051760048036038101906105129190612c4b565b61168f565b005b34801561052557600080fd5b50610540600480360381019061053b9190612e09565b61187f565b005b34801561054e57600080fd5b50610557611dd2565b6040516105649190612e78565b60405180910390f35b34801561057957600080fd5b50610594600480360381019061058f9190612c4b565b611df8565b005b3480156105a257600080fd5b506105bd60048036038101906105b89190612a54565b611fe8565b6040516105ca9190612971565b60405180910390f35b3480156105df57600080fd5b506105e8612052565b6040516105f59190612aa3565b60405180910390f35b34801561060a57600080fd5b5061062560048036038101906106209190612c4b565b612076565b005b34801561063357600080fd5b5061064e60048036038101906106499190612abe565b612205565b6040516106649a99989796959493929190612f0a565b60405180910390f35b34801561067957600080fd5b506106826122e6565b60405161068f9190613005565b60405180910390f35b3480156106a457600080fd5b506106bf60048036038101906106ba9190612abe565b61230c565b6040516106d196959493929190612be3565b60405180910390f35b3480156106e657600080fd5b506106ef61240a565b6040516106fc9190612aa3565b60405180910390f35b34801561071157600080fd5b5061072c60048036038101906107279190612c4b565b612411565b005b34801561073a57600080fd5b50610743612520565b6040516107509190613041565b60405180910390f35b34801561076557600080fd5b50610780600480360381019061077b919061305c565b612546565b60405161078d9190612aa3565b60405180910390f35b3480156107a257600080fd5b506107bd60048036038101906107b89190612a54565b612577565b005b3480156107cb57600080fd5b506107d4612599565b6040516107e191906130bd565b60405180910390f35b3480156107f657600080fd5b50610811600480360381019061080c9190612c4b565b6125bf565b60405161081e9190612971565b60405180910390f35b34801561083357600080fd5b5061083c6125df565b6040516108499190612aa3565b60405180910390f35b60007f7965db0b000000000000000000000000000000000000000000000000000000007bffffffffffffffffffffffffffffffffffffffffffffffffffffffff1916827bffffffffffffffffffffffffffffffffffffffffffffffffffffffff191614806108c557506108c482612603565b5b9050919050565b60085481565b600160003373ffffffffffffffffffffffffffffffffffffffff1673ffffffffffffffffffffffffffffffffffffffff16815260200190815260200160002060009054906101000a900460ff161561095f576040517f08c379a000000000000000000000000000000000000000000000000000000000815260040161095690613124565b60405180910390fd5b600b60009054906101000a900473ffffffffffffffffffffffffffffffffffffffff1673ffffffffffffffffffffffffffffffffffffffff166391d148547ffbd454f36a7e1a388bd6fc3ab10d434aa4578f811acbbcf33afb1c697486313c336040518363ffffffff1660e01b81526004016109dc929190613144565b602060405180830381865afa1580156109f9573d6000803e3d6000fd5b505050506040513d601f19601f82011682018060405250810190610a1d9190613199565b610a5c576040517f08c379a0000000000000000000000000000000000000000000000000000000008152600401610a5390613212565b60405180910390fd5b8073ffffffffffffffffffffffffffffffffffffffff166003600084815260200190815260200160002060020160009054906101000a900473ffffffffffffffffffffffffffffffffffffffff1673ffffffffffffffffffffffffffffffffffffffff1614610b00576040517f08c379a0000000000000000000000000000000000000000000000000000000008152600401610af7906132a4565b60405180910390fd5b42600360008481526020019081526020016000206004015411610b58576040517f08c379a0000000000000000000000000000000000000000000000000000000008152600401610b4f90613310565b60405180910390fd5b600073ffffffffffffffffffffffffffffffffffffffff166003600084815260200190815260200160002060030160009054906101000a900473ffffffffffffffffffffffffffffffffffffffff1673ffffffffffffffffffffffffffffffffffffffff1614610bfd576040517f08c379a0000000000000000000000000000000000000000000000000000000008152600401610bf4906133a2565b60405180910390fd5b600034111580610c225750600360008381526020019081526020016000206006015434105b15610c62576040517f08c379a0000000000000000000000000000000000000000000000000000000008152600401610c599061340e565b60405180910390fd5b600880811115610c7557610c74612e93565b5b6003600084815260200190815260200160002060080160009054906101000a900460ff166008811115610cab57610caa612e93565b5b14610ceb576040517f08c379a0000000000000000000000000000000000000000000000000000000008152600401610ce2906134a0565b60405180910390fd5b600a60009054906101000a900473ffffffffffffffffffffffffffffffffffffffff1673ffffffffffffffffffffffffffffffffffffffff1663ad7fadc534336003600087815260200190815260200160002060020160009054906101000a900473ffffffffffffffffffffffffffffffffffffffff166040518463ffffffff1660e01b8152600401610d7f9291906134c0565b6000604051808303818588803b158015610d9857600080fd5b505af1158015610dac573d6000803e3d6000fd5b505050505042600360008481526020019081526020016000206005018190555060016003600084815260200190815260200160002060080160006101000a81548160ff02191690836008811115610e0657610e05612e93565b5b0217905550336003600084815260200190815260200160002060020160006101000a81548173ffffffffffffffffffffffffffffffffffffffff021916908373ffffffffffffffffffffffffffffffffffffffff1602179055506003600083815260200190815260200160002060020160009054906101000a900473ffffffffffffffffffffffffffffffffffffffff1673ffffffffffffffffffffffffffffffffffffffff16827f4238cf66c2ffaa0c9ebebbaf229457729c234840b2e9790c74ef1fd800c678a26003600086815260200190815260200160002060080160009054906101000a900460ff1660036000878152602001908152602001600020600601546003600088815260200190815260200160002060050154604051610f30939291906134e9565b60405180910390a35050565b7f2a5f906c256a5d799494fcd066e1f6c077689de1cdb65052a1624de4bace99bf81565b6000806000838152602001908152602001600020600101549050919050565b60078181548110610f8f57600080fd5b906000526020600020016000915090505481565b610fac82610f60565b610fb58161266d565b610fbf8383612681565b50505050565b610fcd612772565b73ffffffffffffffffffffffffffffffffffffffff168173ffffffffffffffffffffffffffffffffffffffff1614611031576040517f6697b23200000000000000000000000000000000000000000000000000000000815260040160405180910390fd5b61103b828261277a565b505050565b6006818154811061105057600080fd5b90600052602060002090600402016000915090508060000154908060010154908060020160009054906101000a900473ffffffffffffffffffffffffffffffffffffffff16908060020160149054906101000a900460ff16908060020160159054906101000a900460ff16908060030180546110cb9061354f565b80601f01602080910402602001604051908101604052809291908181526020018280546110f79061354f565b80156111445780601f1061111957610100808354040283529160200191611144565b820191906000526020600020905b81548152906001019060200180831161112757829003601f168201915b5050505050905086565b600b60009054906101000a900473ffffffffffffffffffffffffffffffffffffffff1673ffffffffffffffffffffffffffffffffffffffff166391d148546000801b336040518363ffffffff1660e01b81526004016111ae929190613144565b602060405180830381865afa1580156111cb573d6000803e3d6000fd5b505050506040513d601f19601f820116820180604052508101906111ef9190613199565b50600a60009054906101000a900473ffffffffffffffffffffffffffffffffffffffff1673ffffffffffffffffffffffffffffffffffffffff16630357371d33476040518363ffffffff1660e01b815260040161124d929190613580565b600060405180830381600087803b15801561126757600080fd5b505af115801561127b573d6000803e3d6000fd5b50505050565b6000801b61128e8161266d565b6112b87ffbd454f36a7e1a388bd6fc3ab10d434aa4578f811acbbcf33afb1c697486313c83612577565b5050565b6000801b6112c98161266d565b816112f47feefb95e842a3287179d933b4460be539a1d5af11aa8b325bb45c5c8dc92de4ed82611fe8565b1561133657806040517f375795b900000000000000000000000000000000000000000000000000000000815260040161132d91906135f5565b60405180910390fd5b6113607f2a5f906c256a5d799494fcd066e1f6c077689de1cdb65052a1624de4bace99bf82611fe8565b156113a257806040517f375795b9000000000000000000000000000000000000000000000000000000008152600401611399919061366f565b60405180910390fd5b6113cc7ffbd454f36a7e1a388bd6fc3ab10d434aa4578f811acbbcf33afb1c697486313c82611fe8565b1561140e57806040517f375795b900000000000000000000000000000000000000000000000000000000815260040161140591906136e9565b60405180910390fd5b600073ffffffffffffffffffffffffffffffffffffffff168173ffffffffffffffffffffffffffffffffffffffff160361147d576040517f08c379a000000000000000000000000000000000000000000000000000000000815260040161147490613124565b60405180910390fd5b6114a77feefb95e842a3287179d933b4460be539a1d5af11aa8b325bb45c5c8dc92de4ed84610fa3565b505050565b60026020528060005260406000206000915090505481565b6000801b6114d18161266d565b6114fb7feefb95e842a3287179d933b4460be539a1d5af11aa8b325bb45c5c8dc92de4ed83612577565b5050565b6000801b61150c8161266d565b6115367f2a5f906c256a5d799494fcd066e1f6c077689de1cdb65052a1624de4bace99bf83612577565b5050565b6000807feefb95e842a3287179d933b4460be539a1d5af11aa8b325bb45c5c8dc92de4ed848051906020012003611593577feefb95e842a3287179d933b4460be539a1d5af11aa8b325bb45c5c8dc92de4ed905061167c565b7ffbd454f36a7e1a388bd6fc3ab10d434aa4578f811acbbcf33afb1c697486313c8480519060200120036115e9577ffbd454f36a7e1a388bd6fc3ab10d434aa4578f811acbbcf33afb1c697486313c905061167b565b7f2a5f906c256a5d799494fcd066e1f6c077689de1cdb65052a1624de4bace99bf84805190602001200361163f577f2a5f906c256a5d799494fcd066e1f6c077689de1cdb65052a1624de4bace99bf905061167a565b6040517f08c379a000000000000000000000000000000000000000000000000000000000815260040161167190613763565b60405180910390fd5b5b5b6116868184611fe8565b91505092915050565b6000801b61169c8161266d565b816116c77feefb95e842a3287179d933b4460be539a1d5af11aa8b325bb45c5c8dc92de4ed82611fe8565b1561170957806040517f375795b900000000000000000000000000000000000000000000000000000000815260040161170091906135f5565b60405180910390fd5b6117337f2a5f906c256a5d799494fcd066e1f6c077689de1cdb65052a1624de4bace99bf82611fe8565b1561177557806040517f375795b900000000000000000000000000000000000000000000000000000000815260040161176c919061366f565b60405180910390fd5b61179f7ffbd454f36a7e1a388bd6fc3ab10d434aa4578f811acbbcf33afb1c697486313c82611fe8565b156117e157806040517f375795b90000000000000000000000000000000000000000000000000000000081526004016117d891906136e9565b60405180910390fd5b600073ffffffffffffffffffffffffffffffffffffffff168173ffffffffffffffffffffffffffffffffffffffff1603611850576040517f08c379a000000000000000000000000000000000000000000000000000000000815260040161184790613124565b60405180910390fd5b61187a7ffbd454f36a7e1a388bd6fc3ab10d434aa4578f811acbbcf33afb1c697486313c84610fa3565b505050565b600160003373ffffffffffffffffffffffffffffffffffffffff1673ffffffffffffffffffffffffffffffffffffffff16815260200190815260200160002060009054906101000a900460ff161561190c576040517f08c379a000000000000000000000000000000000000000000000000000000000815260040161190390613124565b60405180910390fd5b600b60009054906101000a900473ffffffffffffffffffffffffffffffffffffffff1673ffffffffffffffffffffffffffffffffffffffff166391d148547ffbd454f36a7e1a388bd6fc3ab10d434aa4578f811acbbcf33afb1c697486313c336040518363ffffffff1660e01b8152600401611989929190613144565b602060405180830381865afa1580156119a6573d6000803e3d6000fd5b505050506040513d601f19601f820116820180604052508101906119ca9190613199565b611a09576040517f08c379a0000000000000000000000000000000000000000000000000000000008152600401611a0090613212565b60405180910390fd5b3373ffffffffffffffffffffffffffffffffffffffff166003600085815260200190815260200160002060020160009054906101000a900473ffffffffffffffffffffffffffffffffffffffff1673ffffffffffffffffffffffffffffffffffffffff1614611aad576040517f08c379a0000000000000000000000000000000000000000000000000000000008152600401611aa4906137f5565b60405180910390fd5b42600360008581526020019081526020016000206004015411611b05576040517f08c379a0000000000000000000000000000000000000000000000000000000008152600401611afc90613310565b60405180910390fd5b600073ffffffffffffffffffffffffffffffffffffffff166003600085815260200190815260200160002060030160009054906101000a900473ffffffffffffffffffffffffffffffffffffffff1673ffffffffffffffffffffffffffffffffffffffff1614611baa576040517f08c379a0000000000000000000000000000000000000000000000000000000008152600401611ba1906133a2565b60405180910390fd5b600081111580611bcf5750600360008481526020019081526020016000206006015481105b15611c0f576040517f08c379a0000000000000000000000000000000000000000000000000000000008152600401611c0690613887565b60405180910390fd5b60016008811115611c2357611c22612e93565b5b6003600085815260200190815260200160002060080160009054906101000a900460ff166008811115611c5957611c58612e93565b5b14611c99576040517f08c379a0000000000000000000000000000000000000000000000000000000008152600401611c9090613919565b60405180910390fd5b80600360008581526020019081526020016000206006018190555060086003600085815260200190815260200160002060080160006101000a81548160ff02191690836008811115611cee57611ced612e93565b5b02179055506003600084815260200190815260200160002060020160009054906101000a900473ffffffffffffffffffffffffffffffffffffffff1673ffffffffffffffffffffffffffffffffffffffff16837fb068edd06fda39fbfd74738b75e0eac89183acd7e6bbca610abe317d8f18fe826003600087815260200190815260200160002060080160009054906101000a900460ff166003600088815260200190815260200160002060060154600360008981526020019081526020016000206005015487604051611dc59493929190613939565b60405180910390a3505050565b600c60009054906101000a900473ffffffffffffffffffffffffffffffffffffffff1681565b6000801b611e058161266d565b81611e307feefb95e842a3287179d933b4460be539a1d5af11aa8b325bb45c5c8dc92de4ed82611fe8565b15611e7257806040517f375795b9000000000000000000000000000000000000000000000000000000008152600401611e6991906135f5565b60405180910390fd5b611e9c7f2a5f906c256a5d799494fcd066e1f6c077689de1cdb65052a1624de4bace99bf82611fe8565b15611ede57806040517f375795b9000000000000000000000000000000000000000000000000000000008152600401611ed5919061366f565b60405180910390fd5b611f087ffbd454f36a7e1a388bd6fc3ab10d434aa4578f811acbbcf33afb1c697486313c82611fe8565b15611f4a57806040517f375795b9000000000000000000000000000000000000000000000000000000008152600401611f4191906136e9565b60405180910390fd5b600073ffffffffffffffffffffffffffffffffffffffff168173ffffffffffffffffffffffffffffffffffffffff1603611fb9576040517f08c379a0000000000000000000000000000000000000000000000000000000008152600401611fb090613124565b60405180910390fd5b611fe37f2a5f906c256a5d799494fcd066e1f6c077689de1cdb65052a1624de4bace99bf84610fa3565b505050565b600080600084815260200190815260200160002060000160008373ffffffffffffffffffffffffffffffffffffffff1673ffffffffffffffffffffffffffffffffffffffff16815260200190815260200160002060009054906101000a900460ff16905092915050565b7feefb95e842a3287179d933b4460be539a1d5af11aa8b325bb45c5c8dc92de4ed81565b6000801b6120838161266d565b600073ffffffffffffffffffffffffffffffffffffffff168273ffffffffffffffffffffffffffffffffffffffff16036120f2576040517f08c379a00000000000000000000000000000000000000000000000000000000081526004016120e9906139d1565b60405180910390fd5b60018060008473ffffffffffffffffffffffffffffffffffffffff1673ffffffffffffffffffffffffffffffffffffffff16815260200190815260200160002060006101000a81548160ff0219169083151502179055506121737feefb95e842a3287179d933b4460be539a1d5af11aa8b325bb45c5c8dc92de4ed8361277a565b5061219e7ffbd454f36a7e1a388bd6fc3ab10d434aa4578f811acbbcf33afb1c697486313c8361277a565b506121c97f2a5f906c256a5d799494fcd066e1f6c077689de1cdb65052a1624de4bace99bf8361277a565b507f90811a8edd3b3c17eeaefffc17f639cc69145d41a359c9843994dc2538203690826040516121f99190612e78565b60405180910390a15050565b60036020528060005260406000206000915090508060000154908060010160009054906101000a900473ffffffffffffffffffffffffffffffffffffffff16908060020160009054906101000a900473ffffffffffffffffffffffffffffffffffffffff16908060030160009054906101000a900473ffffffffffffffffffffffffffffffffffffffff16908060040154908060050154908060060154908060070154908060080160009054906101000a900460ff16908060080160019054906101000a900473ffffffffffffffffffffffffffffffffffffffff1690508a565b600960009054906101000a900473ffffffffffffffffffffffffffffffffffffffff1681565b60046020528060005260406000206000915090508060000154908060010154908060020160009054906101000a900473ffffffffffffffffffffffffffffffffffffffff16908060020160149054906101000a900460ff16908060020160159054906101000a900460ff16908060030180546123879061354f565b80601f01602080910402602001604051908101604052809291908181526020018280546123b39061354f565b80156124005780601f106123d557610100808354040283529160200191612400565b820191906000526020600020905b8154815290600101906020018083116123e357829003601f168201915b5050505050905086565b6000801b81565b6000801b61241e8161266d565b600073ffffffffffffffffffffffffffffffffffffffff168273ffffffffffffffffffffffffffffffffffffffff160361248d576040517f08c379a000000000000000000000000000000000000000000000000000000000815260040161248490613a3d565b60405180910390fd5b6000600160008473ffffffffffffffffffffffffffffffffffffffff1673ffffffffffffffffffffffffffffffffffffffff16815260200190815260200160002060006101000a81548160ff0219169083151502179055507fc3776b472ebf54114339eec9e4dc924e7ce307a97f5c1ee72b6d474e6e5e8b7c826040516125149190612e78565b60405180910390a15050565b600b60009054906101000a900473ffffffffffffffffffffffffffffffffffffffff1681565b6005602052816000526040600020818154811061256257600080fd5b90600052602060002001600091509150505481565b61258082610f60565b6125898161266d565b612593838361277a565b50505050565b600a60009054906101000a900473ffffffffffffffffffffffffffffffffffffffff1681565b60016020528060005260406000206000915054906101000a900460ff1681565b7ffbd454f36a7e1a388bd6fc3ab10d434aa4578f811acbbcf33afb1c697486313c81565b60007f01ffc9a7000000000000000000000000000000000000000000000000000000007bffffffffffffffffffffffffffffffffffffffffffffffffffffffff1916827bffffffffffffffffffffffffffffffffffffffffffffffffffffffff1916149050919050565b61267e81612679612772565b61286c565b50565b600061268d8383611fe8565b61276757600160008085815260200190815260200160002060000160008473ffffffffffffffffffffffffffffffffffffffff1673ffffffffffffffffffffffffffffffffffffffff16815260200190815260200160002060006101000a81548160ff021916908315150217905550612704612772565b73ffffffffffffffffffffffffffffffffffffffff168273ffffffffffffffffffffffffffffffffffffffff16847f2f8788117e7eff1d82e926ec794901d17c78024a50270940304540a733656f0d60405160405180910390a46001905061276c565b600090505b92915050565b600033905090565b60006127868383611fe8565b1561286157600080600085815260200190815260200160002060000160008473ffffffffffffffffffffffffffffffffffffffff1673ffffffffffffffffffffffffffffffffffffffff16815260200190815260200160002060006101000a81548160ff0219169083151502179055506127fe612772565b73ffffffffffffffffffffffffffffffffffffffff168273ffffffffffffffffffffffffffffffffffffffff16847ff6391f5c32d9c69d2a47ea670b442974b53935d1edc7fd64eb21e047a839171b60405160405180910390a460019050612866565b600090505b92915050565b6128768282611fe8565b6128b95780826040517fe2517d3f0000000000000000000000000000000000000000000000000000000081526004016128b0929190613a5d565b60405180910390fd5b5050565b6000604051905090565b600080fd5b600080fd5b60007fffffffff0000000000000000000000000000000000000000000000000000000082169050919050565b612906816128d1565b811461291157600080fd5b50565b600081359050612923816128fd565b92915050565b60006020828403121561293f5761293e6128c7565b5b600061294d84828501612914565b91505092915050565b60008115159050919050565b61296b81612956565b82525050565b60006020820190506129866000830184612962565b92915050565b6000819050919050565b61299f8161298c565b82525050565b60006020820190506129ba6000830184612996565b92915050565b6000819050919050565b6129d3816129c0565b81146129de57600080fd5b50565b6000813590506129f0816129ca565b92915050565b600073ffffffffffffffffffffffffffffffffffffffff82169050919050565b6000612a21826129f6565b9050919050565b612a3181612a16565b8114612a3c57600080fd5b50565b600081359050612a4e81612a28565b92915050565b60008060408385031215612a6b57612a6a6128c7565b5b6000612a79858286016129e1565b9250506020612a8a85828601612a3f565b9150509250929050565b612a9d816129c0565b82525050565b6000602082019050612ab86000830184612a94565b92915050565b600060208284031215612ad457612ad36128c7565b5b6000612ae2848285016129e1565b91505092915050565b612af48161298c565b8114612aff57600080fd5b50565b600081359050612b1181612aeb565b92915050565b600060208284031215612b2d57612b2c6128c7565b5b6000612b3b84828501612b02565b91505092915050565b612b4d81612a16565b82525050565b600081519050919050565b600082825260208201905092915050565b60005b83811015612b8d578082015181840152602081019050612b72565b60008484015250505050565b6000601f19601f8301169050919050565b6000612bb582612b53565b612bbf8185612b5e565b9350612bcf818560208601612b6f565b612bd881612b99565b840191505092915050565b600060c082019050612bf86000830189612a94565b612c056020830188612996565b612c126040830187612b44565b612c1f6060830186612962565b612c2c6080830185612962565b81810360a0830152612c3e8184612baa565b9050979650505050505050565b600060208284031215612c6157612c606128c7565b5b6000612c6f84828501612a3f565b91505092915050565b600080fd5b600080fd5b7f4e487b7100000000000000000000000000000000000000000000000000000000600052604160045260246000fd5b612cba82612b99565b810181811067ffffffffffffffff82111715612cd957612cd8612c82565b5b80604052505050565b6000612cec6128bd565b9050612cf88282612cb1565b919050565b600067ffffffffffffffff821115612d1857612d17612c82565b5b612d2182612b99565b9050602081019050919050565b82818337600083830152505050565b6000612d50612d4b84612cfd565b612ce2565b905082815260208101848484011115612d6c57612d6b612c7d565b5b612d77848285612d2e565b509392505050565b600082601f830112612d9457612d93612c78565b5b8135612da4848260208601612d3d565b91505092915050565b60008060408385031215612dc457612dc36128c7565b5b600083013567ffffffffffffffff811115612de257612de16128cc565b5b612dee85828601612d7f565b9250506020612dff85828601612a3f565b9150509250929050565b600080600060608486031215612e2257612e216128c7565b5b6000612e30868287016129e1565b935050602084013567ffffffffffffffff811115612e5157612e506128cc565b5b612e5d86828701612d7f565b9250506040612e6e86828701612b02565b9150509250925092565b6000602082019050612e8d6000830184612b44565b92915050565b7f4e487b7100000000000000000000000000000000000000000000000000000000600052602160045260246000fd5b60098110612ed357612ed2612e93565b5b50565b6000819050612ee482612ec2565b919050565b6000612ef482612ed6565b9050919050565b612f0481612ee9565b82525050565b600061014082019050612f20600083018d612a94565b612f2d602083018c612b44565b612f3a604083018b612b44565b612f47606083018a612b44565b612f546080830189612996565b612f6160a0830188612996565b612f6e60c0830187612996565b612f7b60e0830186612996565b612f89610100830185612efb565b612f97610120830184612b44565b9b9a5050505050505050505050565b6000819050919050565b6000612fcb612fc6612fc1846129f6565b612fa6565b6129f6565b9050919050565b6000612fdd82612fb0565b9050919050565b6000612fef82612fd2565b9050919050565b612fff81612fe4565b82525050565b600060208201905061301a6000830184612ff6565b92915050565b600061302b82612fd2565b9050919050565b61303b81613020565b82525050565b60006020820190506130566000830184613032565b92915050565b60008060408385031215613073576130726128c7565b5b600061308185828601612a3f565b925050602061309285828601612b02565b9150509250929050565b60006130a782612fd2565b9050919050565b6130b78161309c565b82525050565b60006020820190506130d260008301846130ae565b92915050565b7f4164647265737320496e76616c69640000000000000000000000000000000000600082015250565b600061310e600f83612b5e565b9150613119826130d8565b602082019050919050565b6000602082019050818103600083015261313d81613101565b9050919050565b60006040820190506131596000830185612a94565b6131666020830184612b44565b9392505050565b61317681612956565b811461318157600080fd5b50565b6000815190506131938161316d565b92915050565b6000602082840312156131af576131ae6128c7565b5b60006131bd84828501613184565b91505092915050565b7f497473206e6f74204469737472696275746f7200000000000000000000000000600082015250565b60006131fc601383612b5e565b9150613207826131c6565b602082019050919050565b6000602082019050818103600083015261322b816131ef565b9050919050565b7f54686973206469737472696275746f72206973206e6f7420746865206f776e6560008201527f72206f6620746869732062617463680000000000000000000000000000000000602082015250565b600061328e602f83612b5e565b915061329982613232565b604082019050919050565b600060208201905081810360008301526132bd81613281565b9050919050565b7f4261746368206861732065787069726564000000000000000000000000000000600082015250565b60006132fa601183612b5e565b9150613305826132c4565b602082019050919050565b60006020820190508181036000830152613329816132ed565b9050919050565b7f426174636820697320616c72656164792070757263686173656420627920612060008201527f72657461696c6572000000000000000000000000000000000000000000000000602082015250565b600061338c602883612b5e565b915061339782613330565b604082019050919050565b600060208201905081810360008301526133bb8161337f565b9050919050565b7f496e73696666696369656e74205061796d656e74000000000000000000000000600082015250565b60006133f8601483612b5e565b9150613403826133c2565b602082019050919050565b60006020820190508181036000830152613427816133eb565b9050919050565b7f4261746368206973206e6f7420617661696c61626c6520666f7220726573656c60008201527f6c00000000000000000000000000000000000000000000000000000000000000602082015250565b600061348a602183612b5e565b91506134958261342e565b604082019050919050565b600060208201905081810360008301526134b98161347d565b9050919050565b60006040820190506134d56000830185612b44565b6134e26020830184612b44565b9392505050565b60006060820190506134fe6000830186612efb565b61350b6020830185612996565b6135186040830184612996565b949350505050565b7f4e487b7100000000000000000000000000000000000000000000000000000000600052602260045260246000fd5b6000600282049050600182168061356757607f821691505b60208210810361357a57613579613520565b5b50919050565b60006040820190506135956000830185612b44565b6135a26020830184612996565b9392505050565b7f4d616e7566616374757265720000000000000000000000000000000000000000600082015250565b60006135df600c83612b5e565b91506135ea826135a9565b602082019050919050565b6000604082019050818103600083015261360e816135d2565b905061361d6020830184612b44565b92915050565b7f52657461696c6572000000000000000000000000000000000000000000000000600082015250565b6000613659600883612b5e565b915061366482613623565b602082019050919050565b600060408201905081810360008301526136888161364c565b90506136976020830184612b44565b92915050565b7f4469737472696275746f72000000000000000000000000000000000000000000600082015250565b60006136d3600b83612b5e565b91506136de8261369d565b602082019050919050565b60006040820190508181036000830152613702816136c6565b90506137116020830184612b44565b92915050565b7f496e76616c696420726f6c65206e616d65000000000000000000000000000000600082015250565b600061374d601183612b5e565b915061375882613717565b602082019050919050565b6000602082019050818103600083015261377c81613740565b9050919050565b7f596f7520617265206e6f7420746865206f776e6572206f66207468697320626160008201527f7463680000000000000000000000000000000000000000000000000000000000602082015250565b60006137df602383612b5e565b91506137ea82613783565b604082019050919050565b6000602082019050818103600083015261380e816137d2565b9050919050565b7f4e6577207072696365206d7573742062652067726561746572207468616e207a60008201527f65726f20616e642070726576696f757320707269636500000000000000000000602082015250565b6000613871603683612b5e565b915061387c82613815565b604082019050919050565b600060208201905081810360008301526138a081613864565b9050919050565b7f4261746368206973206e6f74206f776e6564206279206469737472696275746f60008201527f7200000000000000000000000000000000000000000000000000000000000000602082015250565b6000613903602183612b5e565b915061390e826138a7565b604082019050919050565b60006020820190508181036000830152613932816138f6565b9050919050565b600060808201905061394e6000830187612efb565b61395b6020830186612996565b6139686040830185612996565b818103606083015261397a8184612baa565b905095945050505050565b7f43616e6e6f7420667265657a6520746865207a65726f20616464726573730000600082015250565b60006139bb601e83612b5e565b91506139c682613985565b602082019050919050565b600060208201905081810360008301526139ea816139ae565b9050919050565b7f43616e6e6f7420756e667265657a6520746865207a65726f2061646472657373600082015250565b6000613a27602083612b5e565b9150613a32826139f1565b602082019050919050565b60006020820190508181036000830152613a5681613a1a565b9050919050565b6000604082019050613a726000830185612b44565b613a7f6020830184612a94565b939250505056fea2646970667358221220506e05bd5df8fcdaa5590bd20d2a97b0241d0498c844da643dee84319674410a64736f6c634300081c0033",
  "linkReferences": {},
  "deployedLinkReferences": {}
}