{
  "_format": "hh-sol-artifact-1",
  "contractName": "upKeep",
  "sourceName": "contracts/upKeep.sol",
  "abi": [
    {
      "inputs": [
        {
          "internalType": "address",
          "name": "priceFeedAddress",
          "type": "address"
        },
        {
          "internalType": "address",
          "name": "escrowAddress",
          "type": "address"
        },
        {
          "internalType": "address",
          "name": "handlingAddresses",
          "type": "address"
        }
      ],
      "stateMutability": "nonpayable",
      "type": "constructor"
    },
    {
      "inputs": [],
      "name": "AccessControlBadConfirmation",
      "type": "error"
    },
    {
      "inputs": [
        {
          "internalType": "address",
          "name": "account",
          "type": "address"
        },
        {
          "internalType": "bytes32",
          "name": "neededRole",
          "type": "bytes32"
        }
      ],
      "name": "AccessControlUnauthorizedAccount",
      "type": "error"
    },
    {
      "inputs": [
        {
          "internalType": "string",
          "name": "role",
          "type": "string"
        },
        {
          "internalType": "address",
          "name": "account",
          "type": "address"
        }
      ],
      "name": "AddressAlreadyExists",
      "type": "error"
    },
    {
      "inputs": [
        {
          "internalType": "address",
          "name": "account",
          "type": "address"
        }
      ],
      "name": "AddressInvalid",
      "type": "error"
    },
    {
      "inputs": [
        {
          "internalType": "uint256",
          "name": "_usdAmount",
          "type": "uint256"
        }
      ],
      "name": "InvalidAmount",
      "type": "error"
    },
    {
      "anonymous": false,
      "inputs": [
        {
          "indexed": false,
          "internalType": "address",
          "name": "account",
          "type": "address"
        }
      ],
      "name": "AddressFrozen",
      "type": "event"
    },
    {
      "anonymous": false,
      "inputs": [
        {
          "indexed": false,
          "internalType": "address",
          "name": "account",
          "type": "address"
        }
      ],
      "name": "AddressUnfrozen",
      "type": "event"
    },
    {
      "anonymous": false,
      "inputs": [
        {
          "indexed": true,
          "internalType": "bytes32",
          "name": "batchId",
          "type": "bytes32"
        },
        {
          "indexed": false,
          "internalType": "uint256",
          "name": "timestamp",
          "type": "uint256"
        }
      ],
      "name": "BatchCreated",
      "type": "event"
    },
    {
      "anonymous": false,
      "inputs": [
        {
          "indexed": true,
          "internalType": "bytes32",
          "name": "batchId",
          "type": "bytes32"
        },
        {
          "indexed": false,
          "internalType": "address",
          "name": "distributor",
          "type": "address"
        },
        {
          "indexed": false,
          "internalType": "enum DrugSupplyChain.BatchStatus",
          "name": "statusEnum",
          "type": "uint8"
        },
        {
          "indexed": false,
          "internalType": "uint256",
          "name": "price",
          "type": "uint256"
        },
        {
          "indexed": false,
          "internalType": "uint256",
          "name": "timestamp",
          "type": "uint256"
        }
      ],
      "name": "DistributerPurchased",
      "type": "event"
    },
    {
      "anonymous": false,
      "inputs": [
        {
          "indexed": true,
          "internalType": "bytes32",
          "name": "batchId",
          "type": "bytes32"
        },
        {
          "indexed": false,
          "internalType": "enum DrugSupplyChain.BatchStatus",
          "name": "statusEnum",
          "type": "uint8"
        },
        {
          "indexed": true,
          "internalType": "address",
          "name": "distributor",
          "type": "address"
        },
        {
          "indexed": false,
          "internalType": "uint256",
          "name": "price",
          "type": "uint256"
        },
        {
          "indexed": false,
          "internalType": "uint256",
          "name": "timestamp",
          "type": "uint256"
        },
        {
          "indexed": false,
          "internalType": "string",
          "name": "reason",
          "type": "string"
        }
      ],
      "name": "EligibleForResell",
      "type": "event"
    },
    {
      "anonymous": false,
      "inputs": [
        {
          "indexed": true,
          "internalType": "bytes32",
          "name": "batchId",
          "type": "bytes32"
        },
        {
          "indexed": true,
          "internalType": "address",
          "name": "to",
          "type": "address"
        },
        {
          "indexed": true,
          "internalType": "uint256",
          "name": "timestamp",
          "type": "uint256"
        },
        {
          "indexed": false,
          "internalType": "bool",
          "name": "refunded",
          "type": "bool"
        },
        {
          "indexed": false,
          "internalType": "string",
          "name": "reason",
          "type": "string"
        }
      ],
      "name": "Refunded",
      "type": "event"
    },
    {
      "anonymous": false,
      "inputs": [
        {
          "indexed": true,
          "internalType": "bytes32",
          "name": "batchId",
          "type": "bytes32"
        },
        {
          "indexed": true,
          "internalType": "address",
          "name": "requester",
          "type": "address"
        },
        {
          "indexed": true,
          "internalType": "uint256",
          "name": "timestamp",
          "type": "uint256"
        },
        {
          "indexed": false,
          "internalType": "bool",
          "name": "approved",
          "type": "bool"
        },
        {
          "indexed": false,
          "internalType": "string",
          "name": "reason",
          "type": "string"
        }
      ],
      "name": "RequestApproved",
      "type": "event"
    },
    {
      "anonymous": false,
      "inputs": [
        {
          "indexed": true,
          "internalType": "bytes32",
          "name": "batchId",
          "type": "bytes32"
        },
        {
          "indexed": false,
          "internalType": "enum DrugSupplyChain.BatchStatus",
          "name": "statusEnum",
          "type": "uint8"
        },
        {
          "indexed": true,
          "internalType": "address",
          "name": "distributor",
          "type": "address"
        },
        {
          "indexed": false,
          "internalType": "uint256",
          "name": "price",
          "type": "uint256"
        },
        {
          "indexed": false,
          "internalType": "uint256",
          "name": "timestamp",
          "type": "uint256"
        }
      ],
      "name": "ResellingDone",
      "type": "event"
    },
    {
      "anonymous": false,
      "inputs": [
        {
          "indexed": true,
          "internalType": "bytes32",
          "name": "batchId",
          "type": "bytes32"
        },
        {
          "indexed": false,
          "internalType": "address",
          "name": "retailer",
          "type": "address"
        },
        {
          "indexed": false,
          "internalType": "enum DrugSupplyChain.BatchStatus",
          "name": "statusEnum",
          "type": "uint8"
        },
        {
          "indexed": false,
          "internalType": "uint256",
          "name": "price",
          "type": "uint256"
        },
        {
          "indexed": false,
          "internalType": "uint256",
          "name": "timestamp",
          "type": "uint256"
        }
      ],
      "name": "RetailerPurchased",
      "type": "event"
    },
    {
      "anonymous": false,
      "inputs": [
        {
          "indexed": true,
          "internalType": "bytes32",
          "name": "batchId",
          "type": "bytes32"
        },
        {
          "indexed": true,
          "internalType": "uint256",
          "name": "timestamp",
          "type": "uint256"
        },
        {
          "indexed": true,
          "internalType": "address",
          "name": "requester",
          "type": "address"
        },
        {
          "indexed": false,
          "internalType": "bool",
          "name": "approved",
          "type": "bool"
        },
        {
          "indexed": false,
          "internalType": "bool",
          "name": "refunded",
          "type": "bool"
        },
        {
          "indexed": false,
          "internalType": "string",
          "name": "reason",
          "type": "string"
        }
      ],
      "name": "ReturnRequested",
      "type": "event"
    },
    {
      "anonymous": false,
      "inputs": [
        {
          "indexed": true,
          "internalType": "bytes32",
          "name": "role",
          "type": "bytes32"
        },
        {
          "indexed": true,
          "internalType": "bytes32",
          "name": "previousAdminRole",
          "type": "bytes32"
        },
        {
          "indexed": true,
          "internalType": "bytes32",
          "name": "newAdminRole",
          "type": "bytes32"
        }
      ],
      "name": "RoleAdminChanged",
      "type": "event"
    },
    {
      "anonymous": false,
      "inputs": [
        {
          "indexed": true,
          "internalType": "bytes32",
          "name": "role",
          "type": "bytes32"
        },
        {
          "indexed": true,
          "internalType": "address",
          "name": "account",
          "type": "address"
        },
        {
          "indexed": true,
          "internalType": "address",
          "name": "sender",
          "type": "address"
        }
      ],
      "name": "RoleGranted",
      "type": "event"
    },
    {
      "anonymous": false,
      "inputs": [
        {
          "indexed": true,
          "internalType": "bytes32",
          "name": "role",
          "type": "bytes32"
        },
        {
          "indexed": true,
          "internalType": "address",
          "name": "account",
          "type": "address"
        },
        {
          "indexed": true,
          "internalType": "address",
          "name": "sender",
          "type": "address"
        }
      ],
      "name": "RoleRevoked",
      "type": "event"
    },
    {
      "inputs": [],
      "name": "DEFAULT_ADMIN_ROLE",
      "outputs": [
        {
          "internalType": "bytes32",
          "name": "",
          "type": "bytes32"
        }
      ],
      "stateMutability": "view",
      "type": "function"
    },
    {
      "inputs": [],
      "name": "DISTRIBUTOR_ROLE",
      "outputs": [
        {
          "internalType": "bytes32",
          "name": "",
          "type": "bytes32"
        }
      ],
      "stateMutability": "view",
      "type": "function"
    },
    {
      "inputs": [],
      "name": "MANUFACTURER_ROLE",
      "outputs": [
        {
          "internalType": "bytes32",
          "name": "",
          "type": "bytes32"
        }
      ],
      "stateMutability": "view",
      "type": "function"
    },
    {
      "inputs": [],
      "name": "RETAILER_ROLE",
      "outputs": [
        {
          "internalType": "bytes32",
          "name": "",
          "type": "bytes32"
        }
      ],
      "stateMutability": "view",
      "type": "function"
    },
    {
      "inputs": [
        {
          "internalType": "address",
          "name": "distributor",
          "type": "address"
        }
      ],
      "name": "addDistributor",
      "outputs": [],
      "stateMutability": "nonpayable",
      "type": "function"
    },
    {
      "inputs": [
        {
          "internalType": "address",
          "name": "manufacturer",
          "type": "address"
        }
      ],
      "name": "addManufacturer",
      "outputs": [],
      "stateMutability": "nonpayable",
      "type": "function"
    },
    {
      "inputs": [
        {
          "internalType": "address",
          "name": "retailer",
          "type": "address"
        }
      ],
      "name": "addRetailer",
      "outputs": [],
      "stateMutability": "nonpayable",
      "type": "function"
    },
    {
      "inputs": [],
      "name": "batchCount",
      "outputs": [
        {
          "internalType": "uint256",
          "name": "",
          "type": "uint256"
        }
      ],
      "stateMutability": "view",
      "type": "function"
    },
    {
      "inputs": [
        {
          "internalType": "address",
          "name": "",
          "type": "address"
        }
      ],
      "name": "batchCounter",
      "outputs": [
        {
          "internalType": "uint256",
          "name": "",
          "type": "uint256"
        }
      ],
      "stateMutability": "view",
      "type": "function"
    },
    {
      "inputs": [
        {
          "internalType": "bytes32",
          "name": "",
          "type": "bytes32"
        }
      ],
      "name": "batchIdToBatch",
      "outputs": [
        {
          "internalType": "bytes32",
          "name": "batchId",
          "type": "bytes32"
        },
        {
          "internalType": "address",
          "name": "manufacturer",
          "type": "address"
        },
        {
          "internalType": "address",
          "name": "distributor",
          "type": "address"
        },
        {
          "internalType": "address",
          "name": "retailer",
          "type": "address"
        },
        {
          "internalType": "uint256",
          "name": "expiryDate",
          "type": "uint256"
        },
        {
          "internalType": "uint256",
          "name": "timestamp",
          "type": "uint256"
        },
        {
          "internalType": "uint256",
          "name": "price",
          "type": "uint256"
        },
        {
          "internalType": "uint256",
          "name": "productPrice",
          "type": "uint256"
        },
        {
          "internalType": "enum DrugSupplyChain.BatchStatus",
          "name": "statusEnum",
          "type": "uint8"
        },
        {
          "internalType": "address",
          "name": "ipfsHash",
          "type": "address"
        }
      ],
      "stateMutability": "view",
      "type": "function"
    },
    {
      "inputs": [
        {
          "internalType": "bytes",
          "name": "",
          "type": "bytes"
        }
      ],
      "name": "checkUpkeep",
      "outputs": [
        {
          "internalType": "bool",
          "name": "",
          "type": "bool"
        },
        {
          "internalType": "bytes",
          "name": "",
          "type": "bytes"
        }
      ],
      "stateMutability": "view",
      "type": "function"
    },
    {
      "inputs": [],
      "name": "dataFeed",
      "outputs": [
        {
          "internalType": "contract AggregatorV3Interface",
          "name": "",
          "type": "address"
        }
      ],
      "stateMutability": "view",
      "type": "function"
    },
    {
      "inputs": [],
      "name": "escrowContract",
      "outputs": [
        {
          "internalType": "contract Escrow",
          "name": "",
          "type": "address"
        }
      ],
      "stateMutability": "view",
      "type": "function"
    },
    {
      "inputs": [
        {
          "internalType": "address",
          "name": "account",
          "type": "address"
        }
      ],
      "name": "frozeAddress",
      "outputs": [],
      "stateMutability": "nonpayable",
      "type": "function"
    },
    {
      "inputs": [
        {
          "internalType": "bytes32",
          "name": "role",
          "type": "bytes32"
        }
      ],
      "name": "getRoleAdmin",
      "outputs": [
        {
          "internalType": "bytes32",
          "name": "",
          "type": "bytes32"
        }
      ],
      "stateMutability": "view",
      "type": "function"
    },
    {
      "inputs": [
        {
          "internalType": "bytes32",
          "name": "role",
          "type": "bytes32"
        },
        {
          "internalType": "address",
          "name": "account",
          "type": "address"
        }
      ],
      "name": "grantRole",
      "outputs": [],
      "stateMutability": "nonpayable",
      "type": "function"
    },
    {
      "inputs": [],
      "name": "handlingAddresses",
      "outputs": [
        {
          "internalType": "contract HandlingAddresses",
          "name": "",
          "type": "address"
        }
      ],
      "stateMutability": "view",
      "type": "function"
    },
    {
      "inputs": [
        {
          "internalType": "bytes32",
          "name": "role",
          "type": "bytes32"
        },
        {
          "internalType": "address",
          "name": "account",
          "type": "address"
        }
      ],
      "name": "hasRole",
      "outputs": [
        {
          "internalType": "bool",
          "name": "",
          "type": "bool"
        }
      ],
      "stateMutability": "view",
      "type": "function"
    },
    {
      "inputs": [
        {
          "internalType": "address",
          "name": "",
          "type": "address"
        }
      ],
      "name": "isFrozen",
      "outputs": [
        {
          "internalType": "bool",
          "name": "",
          "type": "bool"
        }
      ],
      "stateMutability": "view",
      "type": "function"
    },
    {
      "inputs": [],
      "name": "owner",
      "outputs": [
        {
          "internalType": "address",
          "name": "",
          "type": "address"
        }
      ],
      "stateMutability": "view",
      "type": "function"
    },
    {
      "inputs": [
        {
          "internalType": "uint256",
          "name": "",
          "type": "uint256"
        }
      ],
      "name": "pendingRequests",
      "outputs": [
        {
          "internalType": "bytes32",
          "name": "batchId",
          "type": "bytes32"
        },
        {
          "internalType": "uint256",
          "name": "timestamp",
          "type": "uint256"
        },
        {
          "internalType": "address",
          "name": "requester",
          "type": "address"
        },
        {
          "internalType": "bool",
          "name": "refunded",
          "type": "bool"
        },
        {
          "internalType": "bool",
          "name": "approved",
          "type": "bool"
        },
        {
          "internalType": "string",
          "name": "reason",
          "type": "string"
        }
      ],
      "stateMutability": "view",
      "type": "function"
    },
    {
      "inputs": [
        {
          "internalType": "bytes",
          "name": "performData",
          "type": "bytes"
        }
      ],
      "name": "performUpkeep",
      "outputs": [],
      "stateMutability": "nonpayable",
      "type": "function"
    },
    {
      "inputs": [
        {
          "internalType": "address",
          "name": "distributor",
          "type": "address"
        }
      ],
      "name": "removeDistributor",
      "outputs": [],
      "stateMutability": "nonpayable",
      "type": "function"
    },
    {
      "inputs": [
        {
          "internalType": "address",
          "name": "manufacturer",
          "type": "address"
        }
      ],
      "name": "removeManufacturer",
      "outputs": [],
      "stateMutability": "nonpayable",
      "type": "function"
    },
    {
      "inputs": [
        {
          "internalType": "address",
          "name": "retailer",
          "type": "address"
        }
      ],
      "name": "removeRetailer",
      "outputs": [],
      "stateMutability": "nonpayable",
      "type": "function"
    },
    {
      "inputs": [
        {
          "internalType": "bytes32",
          "name": "role",
          "type": "bytes32"
        },
        {
          "internalType": "address",
          "name": "callerConfirmation",
          "type": "address"
        }
      ],
      "name": "renounceRole",
      "outputs": [],
      "stateMutability": "nonpayable",
      "type": "function"
    },
    {
      "inputs": [
        {
          "internalType": "bytes32",
          "name": "",
          "type": "bytes32"
        }
      ],
      "name": "returnRequests",
      "outputs": [
        {
          "internalType": "bytes32",
          "name": "batchId",
          "type": "bytes32"
        },
        {
          "internalType": "uint256",
          "name": "timestamp",
          "type": "uint256"
        },
        {
          "internalType": "address",
          "name": "requester",
          "type": "address"
        },
        {
          "internalType": "bool",
          "name": "refunded",
          "type": "bool"
        },
        {
          "internalType": "bool",
          "name": "approved",
          "type": "bool"
        },
        {
          "internalType": "string",
          "name": "reason",
          "type": "string"
        }
      ],
      "stateMutability": "view",
      "type": "function"
    },
    {
      "inputs": [
        {
          "internalType": "bytes32",
          "name": "role",
          "type": "bytes32"
        },
        {
          "internalType": "address",
          "name": "account",
          "type": "address"
        }
      ],
      "name": "revokeRole",
      "outputs": [],
      "stateMutability": "nonpayable",
      "type": "function"
    },
    {
      "inputs": [
        {
          "internalType": "bytes4",
          "name": "interfaceId",
          "type": "bytes4"
        }
      ],
      "name": "supportsInterface",
      "outputs": [
        {
          "internalType": "bool",
          "name": "",
          "type": "bool"
        }
      ],
      "stateMutability": "view",
      "type": "function"
    },
    {
      "inputs": [
        {
          "internalType": "address",
          "name": "account",
          "type": "address"
        }
      ],
      "name": "unfreezeAddress",
      "outputs": [],
      "stateMutability": "nonpayable",
      "type": "function"
    },
    {
      "inputs": [],
      "name": "withdraw",
      "outputs": [],
      "stateMutability": "nonpayable",
      "type": "function"
    }
  ],
  "bytecode": "0x608060405234801561001057600080fd5b50604051612d38380380612d388339818101604052810190610032919061032a565b8282826100486000801b3361015860201b60201c565b5033600a60006101000a81548173ffffffffffffffffffffffffffffffffffffffff021916908373ffffffffffffffffffffffffffffffffffffffff16021790555081600860006101000a81548173ffffffffffffffffffffffffffffffffffffffff021916908373ffffffffffffffffffffffffffffffffffffffff16021790555082600760006101000a81548173ffffffffffffffffffffffffffffffffffffffff021916908373ffffffffffffffffffffffffffffffffffffffff16021790555080600960006101000a81548173ffffffffffffffffffffffffffffffffffffffff021916908373ffffffffffffffffffffffffffffffffffffffff16021790555050505050505061037d565b600061016a838361025560201b60201c565b61024a57600160008085815260200190815260200160002060000160008473ffffffffffffffffffffffffffffffffffffffff1673ffffffffffffffffffffffffffffffffffffffff16815260200190815260200160002060006101000a81548160ff0219169083151502179055506101e76102bf60201b60201c565b73ffffffffffffffffffffffffffffffffffffffff168273ffffffffffffffffffffffffffffffffffffffff16847f2f8788117e7eff1d82e926ec794901d17c78024a50270940304540a733656f0d60405160405180910390a46001905061024f565b600090505b92915050565b600080600084815260200190815260200160002060000160008373ffffffffffffffffffffffffffffffffffffffff1673ffffffffffffffffffffffffffffffffffffffff16815260200190815260200160002060009054906101000a900460ff16905092915050565b600033905090565b600080fd5b600073ffffffffffffffffffffffffffffffffffffffff82169050919050565b60006102f7826102cc565b9050919050565b610307816102ec565b811461031257600080fd5b50565b600081519050610324816102fe565b92915050565b600080600060608486031215610343576103426102c7565b5b600061035186828701610315565b935050602061036286828701610315565b925050604061037386828701610315565b9150509250925092565b6129ac8061038c6000396000f3fe608060405234801561001057600080fd5b50600436106101e55760003560e01c80637250e2241161010f5780639fb65529116100a2578063d547741f11610071578063d547741f1461058e578063e42a96e7146105aa578063e5839836146105c8578063f0bd87cc146105f8576101e5565b80639fb6552914610501578063a217fddf14610536578063bfb8054714610554578063c1c460a614610570576101e5565b8063965288b0116100de578063965288b01461047057806399fd9cfb1461048e5780639de7c3b7146104aa5780639e42ff90146104e3576101e5565b80637250e224146103ea5780638da5cb5b146104065780638ec4f5051461042457806391d1485414610440576101e5565b80633ccfd60b116101875780636a0f9f70116101565780636a0f9f70146103515780636a75323f146103815780636e04ff0d1461039d57806370099ec8146103ce576101e5565b80633ccfd60b146102f35780634585e33b146102fd57806357c1f9e2146103195780635f8a5afa14610335576101e5565b8063248a9ca3116101c3578063248a9ca3146102565780632f2ff15d1461028657806336568abe146102a25780633c652a9a146102be576101e5565b806301ffc9a7146101ea57806306f130561461021a5780632115e7bf14610238575b600080fd5b61020460048036038101906101ff9190611e58565b610616565b6040516102119190611ea0565b60405180910390f35b610222610690565b60405161022f9190611ed4565b60405180910390f35b610240610696565b60405161024d9190611f08565b60405180910390f35b610270600480360381019061026b9190611f4f565b6106ba565b60405161027d9190611f08565b60405180910390f35b6102a0600480360381019061029b9190611fda565b6106d9565b005b6102bc60048036038101906102b79190611fda565b6106fb565b005b6102d860048036038101906102d39190612046565b610776565b6040516102ea96959493929190612112565b60405180910390f35b6102fb610884565b005b610317600480360381019061031291906121df565b6109b7565b005b610333600480360381019061032e919061222c565b610d6a565b005b61034f600480360381019061034a919061222c565b610da5565b005b61036b6004803603810190610366919061222c565b610f95565b6040516103789190611ed4565b60405180910390f35b61039b6004803603810190610396919061222c565b610fad565b005b6103b760048036038101906103b291906121df565b610fe8565b6040516103c59291906122ae565b60405180910390f35b6103e860048036038101906103e3919061222c565b61104d565b005b61040460048036038101906103ff919061222c565b611088565b005b61040e611278565b60405161041b91906122de565b60405180910390f35b61043e6004803603810190610439919061222c565b61129e565b005b61045a60048036038101906104559190611fda565b61148e565b6040516104679190611ea0565b60405180910390f35b6104786114f8565b6040516104859190611f08565b60405180910390f35b6104a860048036038101906104a3919061222c565b61151c565b005b6104c460048036038101906104bf9190611f4f565b6116ab565b6040516104da9a99989796959493929190612370565b60405180910390f35b6104eb61178c565b6040516104f8919061246b565b60405180910390f35b61051b60048036038101906105169190611f4f565b6117b2565b60405161052d96959493929190612112565b60405180910390f35b61053e6118b0565b60405161054b9190611f08565b60405180910390f35b61056e6004803603810190610569919061222c565b6118b7565b005b6105786119c6565b60405161058591906124a7565b60405180910390f35b6105a860048036038101906105a39190611fda565b6119ec565b005b6105b2611a0e565b6040516105bf91906124e3565b60405180910390f35b6105e260048036038101906105dd919061222c565b611a34565b6040516105ef9190611ea0565b60405180910390f35b610600611a54565b60405161060d9190611f08565b60405180910390f35b60007f7965db0b000000000000000000000000000000000000000000000000000000007bffffffffffffffffffffffffffffffffffffffffffffffffffffffff1916827bffffffffffffffffffffffffffffffffffffffffffffffffffffffff19161480610689575061068882611a78565b5b9050919050565b60065481565b7f2a5f906c256a5d799494fcd066e1f6c077689de1cdb65052a1624de4bace99bf81565b6000806000838152602001908152602001600020600101549050919050565b6106e2826106ba565b6106eb81611ae2565b6106f58383611af6565b50505050565b610703611be7565b73ffffffffffffffffffffffffffffffffffffffff168173ffffffffffffffffffffffffffffffffffffffff1614610767576040517f6697b23200000000000000000000000000000000000000000000000000000000815260040160405180910390fd5b6107718282611bef565b505050565b6005818154811061078657600080fd5b90600052602060002090600402016000915090508060000154908060010154908060020160009054906101000a900473ffffffffffffffffffffffffffffffffffffffff16908060020160149054906101000a900460ff16908060020160159054906101000a900460ff16908060030180546108019061252d565b80601f016020809104026020016040519081016040528092919081815260200182805461082d9061252d565b801561087a5780601f1061084f5761010080835404028352916020019161087a565b820191906000526020600020905b81548152906001019060200180831161085d57829003601f168201915b5050505050905086565b600960009054906101000a900473ffffffffffffffffffffffffffffffffffffffff1673ffffffffffffffffffffffffffffffffffffffff166391d148546000801b336040518363ffffffff1660e01b81526004016108e492919061255e565b602060405180830381865afa158015610901573d6000803e3d6000fd5b505050506040513d601f19601f8201168201806040525081019061092591906125b3565b50600860009054906101000a900473ffffffffffffffffffffffffffffffffffffffff1673ffffffffffffffffffffffffffffffffffffffff16630357371d33476040518363ffffffff1660e01b81526004016109839291906125e0565b600060405180830381600087803b15801561099d57600080fd5b505af11580156109b1573d6000803e3d6000fd5b50505050565b600082828101906109c89190611f4f565b9050600073ffffffffffffffffffffffffffffffffffffffff166004600083815260200190815260200160002060020160009054906101000a900473ffffffffffffffffffffffffffffffffffffffff1673ffffffffffffffffffffffffffffffffffffffff1603610aa7576003600082815260200190815260200160002060030160009054906101000a900473ffffffffffffffffffffffffffffffffffffffff166040517f86414351000000000000000000000000000000000000000000000000000000008152600401610a9e91906122de565b60405180910390fd5b610b077ffbd454f36a7e1a388bd6fc3ab10d434aa4578f811acbbcf33afb1c697486313c6004600084815260200190815260200160002060020160009054906101000a900473ffffffffffffffffffffffffffffffffffffffff1661148e565b15610bec57600860009054906101000a900473ffffffffffffffffffffffffffffffffffffffff1673ffffffffffffffffffffffffffffffffffffffff16630357371d6004600084815260200190815260200160002060020160009054906101000a900473ffffffffffffffffffffffffffffffffffffffff1660036000858152602001908152602001600020600701546040518363ffffffff1660e01b8152600401610bb59291906125e0565b600060405180830381600087803b158015610bcf57600080fd5b505af1158015610be3573d6000803e3d6000fd5b50505050610cc8565b600860009054906101000a900473ffffffffffffffffffffffffffffffffffffffff1673ffffffffffffffffffffffffffffffffffffffff16630357371d6004600084815260200190815260200160002060020160009054906101000a900473ffffffffffffffffffffffffffffffffffffffff1660036000858152602001908152602001600020600601546040518363ffffffff1660e01b8152600401610c959291906125e0565b600060405180830381600087803b158015610caf57600080fd5b505af1158015610cc3573d6000803e3d6000fd5b505050505b60016004600083815260200190815260200160002060020160156101000a81548160ff02191690831515021790555060016004600083815260200190815260200160002060020160146101000a81548160ff02191690831515021790555060076003600083815260200190815260200160002060080160006101000a81548160ff02191690836008811115610d6057610d5f6122f9565b5b0217905550505050565b6000801b610d7781611ae2565b610da17ffbd454f36a7e1a388bd6fc3ab10d434aa4578f811acbbcf33afb1c697486313c836119ec565b5050565b6000801b610db281611ae2565b81610ddd7feefb95e842a3287179d933b4460be539a1d5af11aa8b325bb45c5c8dc92de4ed8261148e565b15610e1f57806040517f375795b9000000000000000000000000000000000000000000000000000000008152600401610e169190612655565b60405180910390fd5b610e497f2a5f906c256a5d799494fcd066e1f6c077689de1cdb65052a1624de4bace99bf8261148e565b15610e8b57806040517f375795b9000000000000000000000000000000000000000000000000000000008152600401610e8291906126cf565b60405180910390fd5b610eb57ffbd454f36a7e1a388bd6fc3ab10d434aa4578f811acbbcf33afb1c697486313c8261148e565b15610ef757806040517f375795b9000000000000000000000000000000000000000000000000000000008152600401610eee9190612749565b60405180910390fd5b600073ffffffffffffffffffffffffffffffffffffffff168173ffffffffffffffffffffffffffffffffffffffff1603610f66576040517f08c379a0000000000000000000000000000000000000000000000000000000008152600401610f5d906127c3565b60405180910390fd5b610f907feefb95e842a3287179d933b4460be539a1d5af11aa8b325bb45c5c8dc92de4ed846106d9565b505050565b60026020528060005260406000206000915090505481565b6000801b610fba81611ae2565b610fe47feefb95e842a3287179d933b4460be539a1d5af11aa8b325bb45c5c8dc92de4ed836119ec565b5050565b600060606000610ff6611ce1565b90506000801b811461102e576001816040516020016110159190611f08565b6040516020818303038152906040529250925050611046565b60006040518060200160405280600081525092509250505b9250929050565b6000801b61105a81611ae2565b6110847f2a5f906c256a5d799494fcd066e1f6c077689de1cdb65052a1624de4bace99bf836119ec565b5050565b6000801b61109581611ae2565b816110c07feefb95e842a3287179d933b4460be539a1d5af11aa8b325bb45c5c8dc92de4ed8261148e565b1561110257806040517f375795b90000000000000000000000000000000000000000000000000000000081526004016110f99190612655565b60405180910390fd5b61112c7f2a5f906c256a5d799494fcd066e1f6c077689de1cdb65052a1624de4bace99bf8261148e565b1561116e57806040517f375795b900000000000000000000000000000000000000000000000000000000815260040161116591906126cf565b60405180910390fd5b6111987ffbd454f36a7e1a388bd6fc3ab10d434aa4578f811acbbcf33afb1c697486313c8261148e565b156111da57806040517f375795b90000000000000000000000000000000000000000000000000000000081526004016111d19190612749565b60405180910390fd5b600073ffffffffffffffffffffffffffffffffffffffff168173ffffffffffffffffffffffffffffffffffffffff1603611249576040517f08c379a0000000000000000000000000000000000000000000000000000000008152600401611240906127c3565b60405180910390fd5b6112737ffbd454f36a7e1a388bd6fc3ab10d434aa4578f811acbbcf33afb1c697486313c846106d9565b505050565b600a60009054906101000a900473ffffffffffffffffffffffffffffffffffffffff1681565b6000801b6112ab81611ae2565b816112d67feefb95e842a3287179d933b4460be539a1d5af11aa8b325bb45c5c8dc92de4ed8261148e565b1561131857806040517f375795b900000000000000000000000000000000000000000000000000000000815260040161130f9190612655565b60405180910390fd5b6113427f2a5f906c256a5d799494fcd066e1f6c077689de1cdb65052a1624de4bace99bf8261148e565b1561138457806040517f375795b900000000000000000000000000000000000000000000000000000000815260040161137b91906126cf565b60405180910390fd5b6113ae7ffbd454f36a7e1a388bd6fc3ab10d434aa4578f811acbbcf33afb1c697486313c8261148e565b156113f057806040517f375795b90000000000000000000000000000000000000000000000000000000081526004016113e79190612749565b60405180910390fd5b600073ffffffffffffffffffffffffffffffffffffffff168173ffffffffffffffffffffffffffffffffffffffff160361145f576040517f08c379a0000000000000000000000000000000000000000000000000000000008152600401611456906127c3565b60405180910390fd5b6114897f2a5f906c256a5d799494fcd066e1f6c077689de1cdb65052a1624de4bace99bf846106d9565b505050565b600080600084815260200190815260200160002060000160008373ffffffffffffffffffffffffffffffffffffffff1673ffffffffffffffffffffffffffffffffffffffff16815260200190815260200160002060009054906101000a900460ff16905092915050565b7feefb95e842a3287179d933b4460be539a1d5af11aa8b325bb45c5c8dc92de4ed81565b6000801b61152981611ae2565b600073ffffffffffffffffffffffffffffffffffffffff168273ffffffffffffffffffffffffffffffffffffffff1603611598576040517f08c379a000000000000000000000000000000000000000000000000000000000815260040161158f9061282f565b60405180910390fd5b60018060008473ffffffffffffffffffffffffffffffffffffffff1673ffffffffffffffffffffffffffffffffffffffff16815260200190815260200160002060006101000a81548160ff0219169083151502179055506116197feefb95e842a3287179d933b4460be539a1d5af11aa8b325bb45c5c8dc92de4ed83611bef565b506116447ffbd454f36a7e1a388bd6fc3ab10d434aa4578f811acbbcf33afb1c697486313c83611bef565b5061166f7f2a5f906c256a5d799494fcd066e1f6c077689de1cdb65052a1624de4bace99bf83611bef565b507f90811a8edd3b3c17eeaefffc17f639cc69145d41a359c9843994dc25382036908260405161169f91906122de565b60405180910390a15050565b60036020528060005260406000206000915090508060000154908060010160009054906101000a900473ffffffffffffffffffffffffffffffffffffffff16908060020160009054906101000a900473ffffffffffffffffffffffffffffffffffffffff16908060030160009054906101000a900473ffffffffffffffffffffffffffffffffffffffff16908060040154908060050154908060060154908060070154908060080160009054906101000a900460ff16908060080160019054906101000a900473ffffffffffffffffffffffffffffffffffffffff1690508a565b600760009054906101000a900473ffffffffffffffffffffffffffffffffffffffff1681565b60046020528060005260406000206000915090508060000154908060010154908060020160009054906101000a900473ffffffffffffffffffffffffffffffffffffffff16908060020160149054906101000a900460ff16908060020160159054906101000a900460ff169080600301805461182d9061252d565b80601f01602080910402602001604051908101604052809291908181526020018280546118599061252d565b80156118a65780601f1061187b576101008083540402835291602001916118a6565b820191906000526020600020905b81548152906001019060200180831161188957829003601f168201915b5050505050905086565b6000801b81565b6000801b6118c481611ae2565b600073ffffffffffffffffffffffffffffffffffffffff168273ffffffffffffffffffffffffffffffffffffffff1603611933576040517f08c379a000000000000000000000000000000000000000000000000000000000815260040161192a9061289b565b60405180910390fd5b6000600160008473ffffffffffffffffffffffffffffffffffffffff1673ffffffffffffffffffffffffffffffffffffffff16815260200190815260200160002060006101000a81548160ff0219169083151502179055507fc3776b472ebf54114339eec9e4dc924e7ce307a97f5c1ee72b6d474e6e5e8b7c826040516119ba91906122de565b60405180910390a15050565b600960009054906101000a900473ffffffffffffffffffffffffffffffffffffffff1681565b6119f5826106ba565b6119fe81611ae2565b611a088383611bef565b50505050565b600860009054906101000a900473ffffffffffffffffffffffffffffffffffffffff1681565b60016020528060005260406000206000915054906101000a900460ff1681565b7ffbd454f36a7e1a388bd6fc3ab10d434aa4578f811acbbcf33afb1c697486313c81565b60007f01ffc9a7000000000000000000000000000000000000000000000000000000007bffffffffffffffffffffffffffffffffffffffffffffffffffffffff1916827bffffffffffffffffffffffffffffffffffffffffffffffffffffffff1916149050919050565b611af381611aee611be7565b611d51565b50565b6000611b02838361148e565b611bdc57600160008085815260200190815260200160002060000160008473ffffffffffffffffffffffffffffffffffffffff1673ffffffffffffffffffffffffffffffffffffffff16815260200190815260200160002060006101000a81548160ff021916908315150217905550611b79611be7565b73ffffffffffffffffffffffffffffffffffffffff168273ffffffffffffffffffffffffffffffffffffffff16847f2f8788117e7eff1d82e926ec794901d17c78024a50270940304540a733656f0d60405160405180910390a460019050611be1565b600090505b92915050565b600033905090565b6000611bfb838361148e565b15611cd657600080600085815260200190815260200160002060000160008473ffffffffffffffffffffffffffffffffffffffff1673ffffffffffffffffffffffffffffffffffffffff16815260200190815260200160002060006101000a81548160ff021916908315150217905550611c73611be7565b73ffffffffffffffffffffffffffffffffffffffff168273ffffffffffffffffffffffffffffffffffffffff16847ff6391f5c32d9c69d2a47ea670b442974b53935d1edc7fd64eb21e047a839171b60405160405180910390a460019050611cdb565b600090505b92915050565b600080600090505b600580549050811015611d4657600060058281548110611d0c57611d0b6128bb565b5b90600052602060002090600402019050611d2581611da2565b15611d3857806000015492505050611d4e565b508080600101915050611ce9565b506000801b90505b90565b611d5b828261148e565b611d9e5780826040517fe2517d3f000000000000000000000000000000000000000000000000000000008152600401611d959291906128ea565b60405180910390fd5b5050565b60006203f480826001015442611db89190612942565b118015611dd457508160020160159054906101000a900460ff16155b8015611def57508160020160149054906101000a900460ff16155b9050919050565b600080fd5b600080fd5b60007fffffffff0000000000000000000000000000000000000000000000000000000082169050919050565b611e3581611e00565b8114611e4057600080fd5b50565b600081359050611e5281611e2c565b92915050565b600060208284031215611e6e57611e6d611df6565b5b6000611e7c84828501611e43565b91505092915050565b60008115159050919050565b611e9a81611e85565b82525050565b6000602082019050611eb56000830184611e91565b92915050565b6000819050919050565b611ece81611ebb565b82525050565b6000602082019050611ee96000830184611ec5565b92915050565b6000819050919050565b611f0281611eef565b82525050565b6000602082019050611f1d6000830184611ef9565b92915050565b611f2c81611eef565b8114611f3757600080fd5b50565b600081359050611f4981611f23565b92915050565b600060208284031215611f6557611f64611df6565b5b6000611f7384828501611f3a565b91505092915050565b600073ffffffffffffffffffffffffffffffffffffffff82169050919050565b6000611fa782611f7c565b9050919050565b611fb781611f9c565b8114611fc257600080fd5b50565b600081359050611fd481611fae565b92915050565b60008060408385031215611ff157611ff0611df6565b5b6000611fff85828601611f3a565b925050602061201085828601611fc5565b9150509250929050565b61202381611ebb565b811461202e57600080fd5b50565b6000813590506120408161201a565b92915050565b60006020828403121561205c5761205b611df6565b5b600061206a84828501612031565b91505092915050565b61207c81611f9c565b82525050565b600081519050919050565b600082825260208201905092915050565b60005b838110156120bc5780820151818401526020810190506120a1565b60008484015250505050565b6000601f19601f8301169050919050565b60006120e482612082565b6120ee818561208d565b93506120fe81856020860161209e565b612107816120c8565b840191505092915050565b600060c0820190506121276000830189611ef9565b6121346020830188611ec5565b6121416040830187612073565b61214e6060830186611e91565b61215b6080830185611e91565b81810360a083015261216d81846120d9565b9050979650505050505050565b600080fd5b600080fd5b600080fd5b60008083601f84011261219f5761219e61217a565b5b8235905067ffffffffffffffff8111156121bc576121bb61217f565b5b6020830191508360018202830111156121d8576121d7612184565b5b9250929050565b600080602083850312156121f6576121f5611df6565b5b600083013567ffffffffffffffff81111561221457612213611dfb565b5b61222085828601612189565b92509250509250929050565b60006020828403121561224257612241611df6565b5b600061225084828501611fc5565b91505092915050565b600081519050919050565b600082825260208201905092915050565b600061228082612259565b61228a8185612264565b935061229a81856020860161209e565b6122a3816120c8565b840191505092915050565b60006040820190506122c36000830185611e91565b81810360208301526122d58184612275565b90509392505050565b60006020820190506122f36000830184612073565b92915050565b7f4e487b7100000000000000000000000000000000000000000000000000000000600052602160045260246000fd5b60098110612339576123386122f9565b5b50565b600081905061234a82612328565b919050565b600061235a8261233c565b9050919050565b61236a8161234f565b82525050565b600061014082019050612386600083018d611ef9565b612393602083018c612073565b6123a0604083018b612073565b6123ad606083018a612073565b6123ba6080830189611ec5565b6123c760a0830188611ec5565b6123d460c0830187611ec5565b6123e160e0830186611ec5565b6123ef610100830185612361565b6123fd610120830184612073565b9b9a5050505050505050505050565b6000819050919050565b600061243161242c61242784611f7c565b61240c565b611f7c565b9050919050565b600061244382612416565b9050919050565b600061245582612438565b9050919050565b6124658161244a565b82525050565b6000602082019050612480600083018461245c565b92915050565b600061249182612438565b9050919050565b6124a181612486565b82525050565b60006020820190506124bc6000830184612498565b92915050565b60006124cd82612438565b9050919050565b6124dd816124c2565b82525050565b60006020820190506124f860008301846124d4565b92915050565b7f4e487b7100000000000000000000000000000000000000000000000000000000600052602260045260246000fd5b6000600282049050600182168061254557607f821691505b602082108103612558576125576124fe565b5b50919050565b60006040820190506125736000830185611ef9565b6125806020830184612073565b9392505050565b61259081611e85565b811461259b57600080fd5b50565b6000815190506125ad81612587565b92915050565b6000602082840312156125c9576125c8611df6565b5b60006125d78482850161259e565b91505092915050565b60006040820190506125f56000830185612073565b6126026020830184611ec5565b9392505050565b7f4d616e7566616374757265720000000000000000000000000000000000000000600082015250565b600061263f600c8361208d565b915061264a82612609565b602082019050919050565b6000604082019050818103600083015261266e81612632565b905061267d6020830184612073565b92915050565b7f52657461696c6572000000000000000000000000000000000000000000000000600082015250565b60006126b960088361208d565b91506126c482612683565b602082019050919050565b600060408201905081810360008301526126e8816126ac565b90506126f76020830184612073565b92915050565b7f4469737472696275746f72000000000000000000000000000000000000000000600082015250565b6000612733600b8361208d565b915061273e826126fd565b602082019050919050565b6000604082019050818103600083015261276281612726565b90506127716020830184612073565b92915050565b7f4164647265737320496e76616c69640000000000000000000000000000000000600082015250565b60006127ad600f8361208d565b91506127b882612777565b602082019050919050565b600060208201905081810360008301526127dc816127a0565b9050919050565b7f43616e6e6f7420667265657a6520746865207a65726f20616464726573730000600082015250565b6000612819601e8361208d565b9150612824826127e3565b602082019050919050565b600060208201905081810360008301526128488161280c565b9050919050565b7f43616e6e6f7420756e667265657a6520746865207a65726f2061646472657373600082015250565b600061288560208361208d565b91506128908261284f565b602082019050919050565b600060208201905081810360008301526128b481612878565b9050919050565b7f4e487b7100000000000000000000000000000000000000000000000000000000600052603260045260246000fd5b60006040820190506128ff6000830185612073565b61290c6020830184611ef9565b9392505050565b7f4e487b7100000000000000000000000000000000000000000000000000000000600052601160045260246000fd5b600061294d82611ebb565b915061295883611ebb565b92508282039050818111156129705761296f612913565b5b9291505056fea26469706673582212202cad0149bea10198745d83663839534ab06e24a26dbd9101181ea400af0f7e3d64736f6c634300081c0033",
  "linkReferences": {},
  "deployedLinkReferences": {}
}