{
  "_format": "hh-sol-artifact-1",
  "contractName": "upKeep",
  "sourceName": "contracts/upKeep.sol",
  "abi": [
    {
      "inputs": [
        {
          "internalType": "address",
          "name": "priceFeedAddress",
          "type": "address"
        },
        {
          "internalType": "address",
          "name": "escrowAddress",
          "type": "address"
        },
        {
          "internalType": "address",
          "name": "handlingAddresses",
          "type": "address"
        }
      ],
      "stateMutability": "nonpayable",
      "type": "constructor"
    },
    {
      "inputs": [],
      "name": "AccessControlBadConfirmation",
      "type": "error"
    },
    {
      "inputs": [
        {
          "internalType": "address",
          "name": "account",
          "type": "address"
        },
        {
          "internalType": "bytes32",
          "name": "neededRole",
          "type": "bytes32"
        }
      ],
      "name": "AccessControlUnauthorizedAccount",
      "type": "error"
    },
    {
      "inputs": [
        {
          "internalType": "string",
          "name": "role",
          "type": "string"
        },
        {
          "internalType": "address",
          "name": "account",
          "type": "address"
        }
      ],
      "name": "AddressAlreadyExists",
      "type": "error"
    },
    {
      "inputs": [
        {
          "internalType": "address",
          "name": "account",
          "type": "address"
        }
      ],
      "name": "AddressInvalid",
      "type": "error"
    },
    {
      "inputs": [
        {
          "internalType": "uint256",
          "name": "_usdAmount",
          "type": "uint256"
        }
      ],
      "name": "InvalidAmount",
      "type": "error"
    },
    {
      "anonymous": false,
      "inputs": [
        {
          "indexed": false,
          "internalType": "address",
          "name": "account",
          "type": "address"
        }
      ],
      "name": "AddressFrozen",
      "type": "event"
    },
    {
      "anonymous": false,
      "inputs": [
        {
          "indexed": false,
          "internalType": "address",
          "name": "account",
          "type": "address"
        }
      ],
      "name": "AddressUnfrozen",
      "type": "event"
    },
    {
      "anonymous": false,
      "inputs": [
        {
          "indexed": true,
          "internalType": "bytes32",
          "name": "batchId",
          "type": "bytes32"
        },
        {
          "indexed": false,
          "internalType": "uint256",
          "name": "timestamp",
          "type": "uint256"
        }
      ],
      "name": "BatchCreated",
      "type": "event"
    },
    {
      "anonymous": false,
      "inputs": [
        {
          "indexed": true,
          "internalType": "bytes32",
          "name": "batchId",
          "type": "bytes32"
        },
        {
          "indexed": false,
          "internalType": "address",
          "name": "distributor",
          "type": "address"
        },
        {
          "indexed": false,
          "internalType": "enum DrugSupplyChain.BatchStatus",
          "name": "statusEnum",
          "type": "uint8"
        },
        {
          "indexed": false,
          "internalType": "uint256",
          "name": "price",
          "type": "uint256"
        },
        {
          "indexed": false,
          "internalType": "uint256",
          "name": "timestamp",
          "type": "uint256"
        }
      ],
      "name": "DistributerPurchased",
      "type": "event"
    },
    {
      "anonymous": false,
      "inputs": [
        {
          "indexed": true,
          "internalType": "bytes32",
          "name": "batchId",
          "type": "bytes32"
        },
        {
          "indexed": false,
          "internalType": "enum DrugSupplyChain.BatchStatus",
          "name": "statusEnum",
          "type": "uint8"
        },
        {
          "indexed": true,
          "internalType": "address",
          "name": "distributor",
          "type": "address"
        },
        {
          "indexed": false,
          "internalType": "uint256",
          "name": "price",
          "type": "uint256"
        },
        {
          "indexed": false,
          "internalType": "uint256",
          "name": "timestamp",
          "type": "uint256"
        },
        {
          "indexed": false,
          "internalType": "string",
          "name": "reason",
          "type": "string"
        }
      ],
      "name": "EligibleForResell",
      "type": "event"
    },
    {
      "anonymous": false,
      "inputs": [
        {
          "indexed": true,
          "internalType": "bytes32",
          "name": "batchId",
          "type": "bytes32"
        },
        {
          "indexed": true,
          "internalType": "address",
          "name": "to",
          "type": "address"
        },
        {
          "indexed": true,
          "internalType": "uint256",
          "name": "timestamp",
          "type": "uint256"
        },
        {
          "indexed": false,
          "internalType": "bool",
          "name": "refunded",
          "type": "bool"
        },
        {
          "indexed": false,
          "internalType": "string",
          "name": "reason",
          "type": "string"
        }
      ],
      "name": "Refunded",
      "type": "event"
    },
    {
      "anonymous": false,
      "inputs": [
        {
          "indexed": true,
          "internalType": "bytes32",
          "name": "batchId",
          "type": "bytes32"
        },
        {
          "indexed": true,
          "internalType": "address",
          "name": "requester",
          "type": "address"
        },
        {
          "indexed": true,
          "internalType": "uint256",
          "name": "timestamp",
          "type": "uint256"
        },
        {
          "indexed": false,
          "internalType": "bool",
          "name": "approved",
          "type": "bool"
        },
        {
          "indexed": false,
          "internalType": "string",
          "name": "reason",
          "type": "string"
        }
      ],
      "name": "RequestApproved",
      "type": "event"
    },
    {
      "anonymous": false,
      "inputs": [
        {
          "indexed": true,
          "internalType": "bytes32",
          "name": "batchId",
          "type": "bytes32"
        },
        {
          "indexed": false,
          "internalType": "enum DrugSupplyChain.BatchStatus",
          "name": "statusEnum",
          "type": "uint8"
        },
        {
          "indexed": true,
          "internalType": "address",
          "name": "distributor",
          "type": "address"
        },
        {
          "indexed": false,
          "internalType": "uint256",
          "name": "price",
          "type": "uint256"
        },
        {
          "indexed": false,
          "internalType": "uint256",
          "name": "timestamp",
          "type": "uint256"
        }
      ],
      "name": "ResellingDone",
      "type": "event"
    },
    {
      "anonymous": false,
      "inputs": [
        {
          "indexed": true,
          "internalType": "bytes32",
          "name": "batchId",
          "type": "bytes32"
        },
        {
          "indexed": false,
          "internalType": "address",
          "name": "retailer",
          "type": "address"
        },
        {
          "indexed": false,
          "internalType": "enum DrugSupplyChain.BatchStatus",
          "name": "statusEnum",
          "type": "uint8"
        },
        {
          "indexed": false,
          "internalType": "uint256",
          "name": "price",
          "type": "uint256"
        },
        {
          "indexed": false,
          "internalType": "uint256",
          "name": "timestamp",
          "type": "uint256"
        }
      ],
      "name": "RetailerPurchased",
      "type": "event"
    },
    {
      "anonymous": false,
      "inputs": [
        {
          "indexed": true,
          "internalType": "bytes32",
          "name": "batchId",
          "type": "bytes32"
        },
        {
          "indexed": true,
          "internalType": "uint256",
          "name": "timestamp",
          "type": "uint256"
        },
        {
          "indexed": true,
          "internalType": "address",
          "name": "requester",
          "type": "address"
        },
        {
          "indexed": false,
          "internalType": "bool",
          "name": "approved",
          "type": "bool"
        },
        {
          "indexed": false,
          "internalType": "bool",
          "name": "refunded",
          "type": "bool"
        },
        {
          "indexed": false,
          "internalType": "string",
          "name": "reason",
          "type": "string"
        }
      ],
      "name": "ReturnRequested",
      "type": "event"
    },
    {
      "anonymous": false,
      "inputs": [
        {
          "indexed": true,
          "internalType": "bytes32",
          "name": "role",
          "type": "bytes32"
        },
        {
          "indexed": true,
          "internalType": "bytes32",
          "name": "previousAdminRole",
          "type": "bytes32"
        },
        {
          "indexed": true,
          "internalType": "bytes32",
          "name": "newAdminRole",
          "type": "bytes32"
        }
      ],
      "name": "RoleAdminChanged",
      "type": "event"
    },
    {
      "anonymous": false,
      "inputs": [
        {
          "indexed": true,
          "internalType": "bytes32",
          "name": "role",
          "type": "bytes32"
        },
        {
          "indexed": true,
          "internalType": "address",
          "name": "account",
          "type": "address"
        },
        {
          "indexed": true,
          "internalType": "address",
          "name": "sender",
          "type": "address"
        }
      ],
      "name": "RoleGranted",
      "type": "event"
    },
    {
      "anonymous": false,
      "inputs": [
        {
          "indexed": true,
          "internalType": "bytes32",
          "name": "role",
          "type": "bytes32"
        },
        {
          "indexed": true,
          "internalType": "address",
          "name": "account",
          "type": "address"
        },
        {
          "indexed": true,
          "internalType": "address",
          "name": "sender",
          "type": "address"
        }
      ],
      "name": "RoleRevoked",
      "type": "event"
    },
    {
      "inputs": [],
      "name": "DEFAULT_ADMIN_ROLE",
      "outputs": [
        {
          "internalType": "bytes32",
          "name": "",
          "type": "bytes32"
        }
      ],
      "stateMutability": "view",
      "type": "function"
    },
    {
      "inputs": [],
      "name": "DISTRIBUTOR_ROLE",
      "outputs": [
        {
          "internalType": "bytes32",
          "name": "",
          "type": "bytes32"
        }
      ],
      "stateMutability": "view",
      "type": "function"
    },
    {
      "inputs": [],
      "name": "MANUFACTURER_ROLE",
      "outputs": [
        {
          "internalType": "bytes32",
          "name": "",
          "type": "bytes32"
        }
      ],
      "stateMutability": "view",
      "type": "function"
    },
    {
      "inputs": [],
      "name": "RETAILER_ROLE",
      "outputs": [
        {
          "internalType": "bytes32",
          "name": "",
          "type": "bytes32"
        }
      ],
      "stateMutability": "view",
      "type": "function"
    },
    {
      "inputs": [
        {
          "internalType": "address",
          "name": "distributor",
          "type": "address"
        }
      ],
      "name": "addDistributor",
      "outputs": [],
      "stateMutability": "nonpayable",
      "type": "function"
    },
    {
      "inputs": [
        {
          "internalType": "address",
          "name": "manufacturer",
          "type": "address"
        }
      ],
      "name": "addManufacturer",
      "outputs": [],
      "stateMutability": "nonpayable",
      "type": "function"
    },
    {
      "inputs": [
        {
          "internalType": "address",
          "name": "retailer",
          "type": "address"
        }
      ],
      "name": "addRetailer",
      "outputs": [],
      "stateMutability": "nonpayable",
      "type": "function"
    },
    {
      "inputs": [
        {
          "internalType": "uint256",
          "name": "",
          "type": "uint256"
        }
      ],
      "name": "allBatchIds",
      "outputs": [
        {
          "internalType": "bytes32",
          "name": "",
          "type": "bytes32"
        }
      ],
      "stateMutability": "view",
      "type": "function"
    },
    {
      "inputs": [],
      "name": "batchCount",
      "outputs": [
        {
          "internalType": "uint256",
          "name": "",
          "type": "uint256"
        }
      ],
      "stateMutability": "view",
      "type": "function"
    },
    {
      "inputs": [
        {
          "internalType": "address",
          "name": "",
          "type": "address"
        }
      ],
      "name": "batchCounter",
      "outputs": [
        {
          "internalType": "uint256",
          "name": "",
          "type": "uint256"
        }
      ],
      "stateMutability": "view",
      "type": "function"
    },
    {
      "inputs": [
        {
          "internalType": "bytes32",
          "name": "",
          "type": "bytes32"
        }
      ],
      "name": "batchIdToBatch",
      "outputs": [
        {
          "internalType": "bytes32",
          "name": "batchId",
          "type": "bytes32"
        },
        {
          "internalType": "address",
          "name": "manufacturer",
          "type": "address"
        },
        {
          "internalType": "address",
          "name": "distributor",
          "type": "address"
        },
        {
          "internalType": "address",
          "name": "retailer",
          "type": "address"
        },
        {
          "internalType": "uint256",
          "name": "expiryDate",
          "type": "uint256"
        },
        {
          "internalType": "uint256",
          "name": "timestamp",
          "type": "uint256"
        },
        {
          "internalType": "uint256",
          "name": "price",
          "type": "uint256"
        },
        {
          "internalType": "uint256",
          "name": "productPrice",
          "type": "uint256"
        },
        {
          "internalType": "enum DrugSupplyChain.BatchStatus",
          "name": "statusEnum",
          "type": "uint8"
        },
        {
          "internalType": "address",
          "name": "ipfsHash",
          "type": "address"
        }
      ],
      "stateMutability": "view",
      "type": "function"
    },
    {
      "inputs": [
        {
          "internalType": "string",
          "name": "roleName",
          "type": "string"
        },
        {
          "internalType": "address",
          "name": "account",
          "type": "address"
        }
      ],
      "name": "checkRole",
      "outputs": [
        {
          "internalType": "bool",
          "name": "",
          "type": "bool"
        }
      ],
      "stateMutability": "view",
      "type": "function"
    },
    {
      "inputs": [
        {
          "internalType": "bytes",
          "name": "",
          "type": "bytes"
        }
      ],
      "name": "checkUpkeep",
      "outputs": [
        {
          "internalType": "bool",
          "name": "",
          "type": "bool"
        },
        {
          "internalType": "bytes",
          "name": "",
          "type": "bytes"
        }
      ],
      "stateMutability": "view",
      "type": "function"
    },
    {
      "inputs": [],
      "name": "dataFeed",
      "outputs": [
        {
          "internalType": "contract AggregatorV3Interface",
          "name": "",
          "type": "address"
        }
      ],
      "stateMutability": "view",
      "type": "function"
    },
    {
      "inputs": [],
      "name": "escrowContract",
      "outputs": [
        {
          "internalType": "contract Escrow",
          "name": "",
          "type": "address"
        }
      ],
      "stateMutability": "view",
      "type": "function"
    },
    {
      "inputs": [
        {
          "internalType": "address",
          "name": "account",
          "type": "address"
        }
      ],
      "name": "frozeAddress",
      "outputs": [],
      "stateMutability": "nonpayable",
      "type": "function"
    },
    {
      "inputs": [
        {
          "internalType": "bytes32",
          "name": "role",
          "type": "bytes32"
        }
      ],
      "name": "getRoleAdmin",
      "outputs": [
        {
          "internalType": "bytes32",
          "name": "",
          "type": "bytes32"
        }
      ],
      "stateMutability": "view",
      "type": "function"
    },
    {
      "inputs": [
        {
          "internalType": "bytes32",
          "name": "role",
          "type": "bytes32"
        },
        {
          "internalType": "address",
          "name": "account",
          "type": "address"
        }
      ],
      "name": "grantRole",
      "outputs": [],
      "stateMutability": "nonpayable",
      "type": "function"
    },
    {
      "inputs": [],
      "name": "handlingAddresses",
      "outputs": [
        {
          "internalType": "contract HandlingAddresses",
          "name": "",
          "type": "address"
        }
      ],
      "stateMutability": "view",
      "type": "function"
    },
    {
      "inputs": [
        {
          "internalType": "bytes32",
          "name": "role",
          "type": "bytes32"
        },
        {
          "internalType": "address",
          "name": "account",
          "type": "address"
        }
      ],
      "name": "hasRole",
      "outputs": [
        {
          "internalType": "bool",
          "name": "",
          "type": "bool"
        }
      ],
      "stateMutability": "view",
      "type": "function"
    },
    {
      "inputs": [
        {
          "internalType": "address",
          "name": "",
          "type": "address"
        }
      ],
      "name": "isFrozen",
      "outputs": [
        {
          "internalType": "bool",
          "name": "",
          "type": "bool"
        }
      ],
      "stateMutability": "view",
      "type": "function"
    },
    {
      "inputs": [],
      "name": "owner",
      "outputs": [
        {
          "internalType": "address",
          "name": "",
          "type": "address"
        }
      ],
      "stateMutability": "view",
      "type": "function"
    },
    {
      "inputs": [
        {
          "internalType": "address",
          "name": "",
          "type": "address"
        },
        {
          "internalType": "uint256",
          "name": "",
          "type": "uint256"
        }
      ],
      "name": "ownerToBatches",
      "outputs": [
        {
          "internalType": "bytes32",
          "name": "",
          "type": "bytes32"
        }
      ],
      "stateMutability": "view",
      "type": "function"
    },
    {
      "inputs": [
        {
          "internalType": "uint256",
          "name": "",
          "type": "uint256"
        }
      ],
      "name": "pendingRequests",
      "outputs": [
        {
          "internalType": "bytes32",
          "name": "batchId",
          "type": "bytes32"
        },
        {
          "internalType": "uint256",
          "name": "timestamp",
          "type": "uint256"
        },
        {
          "internalType": "address",
          "name": "requester",
          "type": "address"
        },
        {
          "internalType": "bool",
          "name": "refunded",
          "type": "bool"
        },
        {
          "internalType": "bool",
          "name": "approved",
          "type": "bool"
        },
        {
          "internalType": "string",
          "name": "reason",
          "type": "string"
        }
      ],
      "stateMutability": "view",
      "type": "function"
    },
    {
      "inputs": [
        {
          "internalType": "bytes",
          "name": "performData",
          "type": "bytes"
        }
      ],
      "name": "performUpkeep",
      "outputs": [],
      "stateMutability": "nonpayable",
      "type": "function"
    },
    {
      "inputs": [
        {
          "internalType": "address",
          "name": "distributor",
          "type": "address"
        }
      ],
      "name": "removeDistributor",
      "outputs": [],
      "stateMutability": "nonpayable",
      "type": "function"
    },
    {
      "inputs": [
        {
          "internalType": "address",
          "name": "manufacturer",
          "type": "address"
        }
      ],
      "name": "removeManufacturer",
      "outputs": [],
      "stateMutability": "nonpayable",
      "type": "function"
    },
    {
      "inputs": [
        {
          "internalType": "address",
          "name": "retailer",
          "type": "address"
        }
      ],
      "name": "removeRetailer",
      "outputs": [],
      "stateMutability": "nonpayable",
      "type": "function"
    },
    {
      "inputs": [
        {
          "internalType": "bytes32",
          "name": "role",
          "type": "bytes32"
        },
        {
          "internalType": "address",
          "name": "callerConfirmation",
          "type": "address"
        }
      ],
      "name": "renounceRole",
      "outputs": [],
      "stateMutability": "nonpayable",
      "type": "function"
    },
    {
      "inputs": [
        {
          "internalType": "bytes32",
          "name": "",
          "type": "bytes32"
        }
      ],
      "name": "returnRequests",
      "outputs": [
        {
          "internalType": "bytes32",
          "name": "batchId",
          "type": "bytes32"
        },
        {
          "internalType": "uint256",
          "name": "timestamp",
          "type": "uint256"
        },
        {
          "internalType": "address",
          "name": "requester",
          "type": "address"
        },
        {
          "internalType": "bool",
          "name": "refunded",
          "type": "bool"
        },
        {
          "internalType": "bool",
          "name": "approved",
          "type": "bool"
        },
        {
          "internalType": "string",
          "name": "reason",
          "type": "string"
        }
      ],
      "stateMutability": "view",
      "type": "function"
    },
    {
      "inputs": [
        {
          "internalType": "bytes32",
          "name": "role",
          "type": "bytes32"
        },
        {
          "internalType": "address",
          "name": "account",
          "type": "address"
        }
      ],
      "name": "revokeRole",
      "outputs": [],
      "stateMutability": "nonpayable",
      "type": "function"
    },
    {
      "inputs": [
        {
          "internalType": "bytes4",
          "name": "interfaceId",
          "type": "bytes4"
        }
      ],
      "name": "supportsInterface",
      "outputs": [
        {
          "internalType": "bool",
          "name": "",
          "type": "bool"
        }
      ],
      "stateMutability": "view",
      "type": "function"
    },
    {
      "inputs": [
        {
          "internalType": "address",
          "name": "account",
          "type": "address"
        }
      ],
      "name": "unfreezeAddress",
      "outputs": [],
      "stateMutability": "nonpayable",
      "type": "function"
    },
    {
      "inputs": [],
      "name": "withdraw",
      "outputs": [],
      "stateMutability": "nonpayable",
      "type": "function"
    }
  ],
  "bytecode": "0x608060405234801561001057600080fd5b506040516131d53803806131d58339818101604052810190610032919061032a565b8282826100486000801b3361015860201b60201c565b5033600c60006101000a81548173ffffffffffffffffffffffffffffffffffffffff021916908373ffffffffffffffffffffffffffffffffffffffff16021790555081600a60006101000a81548173ffffffffffffffffffffffffffffffffffffffff021916908373ffffffffffffffffffffffffffffffffffffffff16021790555082600960006101000a81548173ffffffffffffffffffffffffffffffffffffffff021916908373ffffffffffffffffffffffffffffffffffffffff16021790555080600b60006101000a81548173ffffffffffffffffffffffffffffffffffffffff021916908373ffffffffffffffffffffffffffffffffffffffff16021790555050505050505061037d565b600061016a838361025560201b60201c565b61024a57600160008085815260200190815260200160002060000160008473ffffffffffffffffffffffffffffffffffffffff1673ffffffffffffffffffffffffffffffffffffffff16815260200190815260200160002060006101000a81548160ff0219169083151502179055506101e76102bf60201b60201c565b73ffffffffffffffffffffffffffffffffffffffff168273ffffffffffffffffffffffffffffffffffffffff16847f2f8788117e7eff1d82e926ec794901d17c78024a50270940304540a733656f0d60405160405180910390a46001905061024f565b600090505b92915050565b600080600084815260200190815260200160002060000160008373ffffffffffffffffffffffffffffffffffffffff1673ffffffffffffffffffffffffffffffffffffffff16815260200190815260200160002060009054906101000a900460ff16905092915050565b600033905090565b600080fd5b600073ffffffffffffffffffffffffffffffffffffffff82169050919050565b60006102f7826102cc565b9050919050565b610307816102ec565b811461031257600080fd5b50565b600081519050610324816102fe565b92915050565b600080600060608486031215610343576103426102c7565b5b600061035186828701610315565b935050602061036286828701610315565b925050604061037386828701610315565b9150509250925092565b612e498061038c6000396000f3fe608060405234801561001057600080fd5b50600436106102065760003560e01c80637250e2241161011a5780639fb65529116100ad578063cf30c7051161007c578063cf30c7051461060f578063d547741f1461063f578063e42a96e71461065b578063e583983614610679578063f0bd87cc146106a957610206565b80639fb6552914610582578063a217fddf146105b7578063bfb80547146105d5578063c1c460a6146105f157610206565b8063965288b0116100e9578063965288b0146104f157806399fd9cfb1461050f5780639de7c3b71461052b5780639e42ff901461056457610206565b80637250e2241461046b5780638da5cb5b146104875780638ec4f505146104a557806391d14854146104c157610206565b80633ccfd60b1161019d5780636a0f9f701161016c5780636a0f9f70146103a25780636a75323f146103d25780636e04ff0d146103ee57806370099ec81461041f5780637026fe9c1461043b57610206565b80633ccfd60b146103445780634585e33b1461034e57806357c1f9e21461036a5780635f8a5afa1461038657610206565b8063290b17ec116101d9578063290b17ec146102a75780632f2ff15d146102d757806336568abe146102f35780633c652a9a1461030f57610206565b806301ffc9a71461020b57806306f130561461023b5780632115e7bf14610259578063248a9ca314610277575b600080fd5b610225600480360381019061022091906120bd565b6106c7565b6040516102329190612105565b60405180910390f35b610243610741565b6040516102509190612139565b60405180910390f35b610261610747565b60405161026e919061216d565b60405180910390f35b610291600480360381019061028c91906121b4565b61076b565b60405161029e919061216d565b60405180910390f35b6102c160048036038101906102bc919061220d565b61078a565b6040516102ce919061216d565b60405180910390f35b6102f160048036038101906102ec9190612298565b6107ae565b005b61030d60048036038101906103089190612298565b6107d0565b005b6103296004803603810190610324919061220d565b61084b565b60405161033b96959493929190612377565b60405180910390f35b61034c610959565b005b61036860048036038101906103639190612444565b610a8c565b005b610384600480360381019061037f9190612491565b610e3f565b005b6103a0600480360381019061039b9190612491565b610e7a565b005b6103bc60048036038101906103b79190612491565b61106a565b6040516103c99190612139565b60405180910390f35b6103ec60048036038101906103e79190612491565b611082565b005b61040860048036038101906104039190612444565b6110bd565b604051610416929190612513565b60405180910390f35b61043960048036038101906104349190612491565b611122565b005b61045560048036038101906104509190612673565b61115d565b6040516104629190612105565b60405180910390f35b61048560048036038101906104809190612491565b6112b2565b005b61048f6114a2565b60405161049c91906126cf565b60405180910390f35b6104bf60048036038101906104ba9190612491565b6114c8565b005b6104db60048036038101906104d69190612298565b6116b8565b6040516104e89190612105565b60405180910390f35b6104f9611722565b604051610506919061216d565b60405180910390f35b61052960048036038101906105249190612491565b611746565b005b610545600480360381019061054091906121b4565b6118d5565b60405161055b9a99989796959493929190612761565b60405180910390f35b61056c6119b6565b604051610579919061285c565b60405180910390f35b61059c600480360381019061059791906121b4565b6119dc565b6040516105ae96959493929190612377565b60405180910390f35b6105bf611ada565b6040516105cc919061216d565b60405180910390f35b6105ef60048036038101906105ea9190612491565b611ae1565b005b6105f9611bf0565b6040516106069190612898565b60405180910390f35b610629600480360381019061062491906128b3565b611c16565b604051610636919061216d565b60405180910390f35b61065960048036038101906106549190612298565b611c47565b005b610663611c69565b6040516106709190612914565b60405180910390f35b610693600480360381019061068e9190612491565b611c8f565b6040516106a09190612105565b60405180910390f35b6106b1611caf565b6040516106be919061216d565b60405180910390f35b60007f7965db0b000000000000000000000000000000000000000000000000000000007bffffffffffffffffffffffffffffffffffffffffffffffffffffffff1916827bffffffffffffffffffffffffffffffffffffffffffffffffffffffff1916148061073a575061073982611cd3565b5b9050919050565b60085481565b7f2a5f906c256a5d799494fcd066e1f6c077689de1cdb65052a1624de4bace99bf81565b6000806000838152602001908152602001600020600101549050919050565b6007818154811061079a57600080fd5b906000526020600020016000915090505481565b6107b78261076b565b6107c081611d3d565b6107ca8383611d51565b50505050565b6107d8611e42565b73ffffffffffffffffffffffffffffffffffffffff168173ffffffffffffffffffffffffffffffffffffffff161461083c576040517f6697b23200000000000000000000000000000000000000000000000000000000815260040160405180910390fd5b6108468282611e4a565b505050565b6006818154811061085b57600080fd5b90600052602060002090600402016000915090508060000154908060010154908060020160009054906101000a900473ffffffffffffffffffffffffffffffffffffffff16908060020160149054906101000a900460ff16908060020160159054906101000a900460ff16908060030180546108d69061295e565b80601f01602080910402602001604051908101604052809291908181526020018280546109029061295e565b801561094f5780601f106109245761010080835404028352916020019161094f565b820191906000526020600020905b81548152906001019060200180831161093257829003601f168201915b5050505050905086565b600b60009054906101000a900473ffffffffffffffffffffffffffffffffffffffff1673ffffffffffffffffffffffffffffffffffffffff166391d148546000801b336040518363ffffffff1660e01b81526004016109b992919061298f565b602060405180830381865afa1580156109d6573d6000803e3d6000fd5b505050506040513d601f19601f820116820180604052508101906109fa91906129e4565b50600a60009054906101000a900473ffffffffffffffffffffffffffffffffffffffff1673ffffffffffffffffffffffffffffffffffffffff16630357371d33476040518363ffffffff1660e01b8152600401610a58929190612a11565b600060405180830381600087803b158015610a7257600080fd5b505af1158015610a86573d6000803e3d6000fd5b50505050565b60008282810190610a9d91906121b4565b9050600073ffffffffffffffffffffffffffffffffffffffff166004600083815260200190815260200160002060020160009054906101000a900473ffffffffffffffffffffffffffffffffffffffff1673ffffffffffffffffffffffffffffffffffffffff1603610b7c576003600082815260200190815260200160002060030160009054906101000a900473ffffffffffffffffffffffffffffffffffffffff166040517f86414351000000000000000000000000000000000000000000000000000000008152600401610b7391906126cf565b60405180910390fd5b610bdc7ffbd454f36a7e1a388bd6fc3ab10d434aa4578f811acbbcf33afb1c697486313c6004600084815260200190815260200160002060020160009054906101000a900473ffffffffffffffffffffffffffffffffffffffff166116b8565b15610cc157600a60009054906101000a900473ffffffffffffffffffffffffffffffffffffffff1673ffffffffffffffffffffffffffffffffffffffff16630357371d6004600084815260200190815260200160002060020160009054906101000a900473ffffffffffffffffffffffffffffffffffffffff1660036000858152602001908152602001600020600701546040518363ffffffff1660e01b8152600401610c8a929190612a11565b600060405180830381600087803b158015610ca457600080fd5b505af1158015610cb8573d6000803e3d6000fd5b50505050610d9d565b600a60009054906101000a900473ffffffffffffffffffffffffffffffffffffffff1673ffffffffffffffffffffffffffffffffffffffff16630357371d6004600084815260200190815260200160002060020160009054906101000a900473ffffffffffffffffffffffffffffffffffffffff1660036000858152602001908152602001600020600601546040518363ffffffff1660e01b8152600401610d6a929190612a11565b600060405180830381600087803b158015610d8457600080fd5b505af1158015610d98573d6000803e3d6000fd5b505050505b60016004600083815260200190815260200160002060020160156101000a81548160ff02191690831515021790555060016004600083815260200190815260200160002060020160146101000a81548160ff02191690831515021790555060076003600083815260200190815260200160002060080160006101000a81548160ff02191690836008811115610e3557610e346126ea565b5b0217905550505050565b6000801b610e4c81611d3d565b610e767ffbd454f36a7e1a388bd6fc3ab10d434aa4578f811acbbcf33afb1c697486313c83611c47565b5050565b6000801b610e8781611d3d565b81610eb27feefb95e842a3287179d933b4460be539a1d5af11aa8b325bb45c5c8dc92de4ed826116b8565b15610ef457806040517f375795b9000000000000000000000000000000000000000000000000000000008152600401610eeb9190612a86565b60405180910390fd5b610f1e7f2a5f906c256a5d799494fcd066e1f6c077689de1cdb65052a1624de4bace99bf826116b8565b15610f6057806040517f375795b9000000000000000000000000000000000000000000000000000000008152600401610f579190612b00565b60405180910390fd5b610f8a7ffbd454f36a7e1a388bd6fc3ab10d434aa4578f811acbbcf33afb1c697486313c826116b8565b15610fcc57806040517f375795b9000000000000000000000000000000000000000000000000000000008152600401610fc39190612b7a565b60405180910390fd5b600073ffffffffffffffffffffffffffffffffffffffff168173ffffffffffffffffffffffffffffffffffffffff160361103b576040517f08c379a000000000000000000000000000000000000000000000000000000000815260040161103290612bf4565b60405180910390fd5b6110657feefb95e842a3287179d933b4460be539a1d5af11aa8b325bb45c5c8dc92de4ed846107ae565b505050565b60026020528060005260406000206000915090505481565b6000801b61108f81611d3d565b6110b97feefb95e842a3287179d933b4460be539a1d5af11aa8b325bb45c5c8dc92de4ed83611c47565b5050565b6000606060006110cb611f3c565b90506000801b8114611103576001816040516020016110ea919061216d565b604051602081830303815290604052925092505061111b565b60006040518060200160405280600081525092509250505b9250929050565b6000801b61112f81611d3d565b6111597f2a5f906c256a5d799494fcd066e1f6c077689de1cdb65052a1624de4bace99bf83611c47565b5050565b6000807feefb95e842a3287179d933b4460be539a1d5af11aa8b325bb45c5c8dc92de4ed8480519060200120036111b6577feefb95e842a3287179d933b4460be539a1d5af11aa8b325bb45c5c8dc92de4ed905061129f565b7ffbd454f36a7e1a388bd6fc3ab10d434aa4578f811acbbcf33afb1c697486313c84805190602001200361120c577ffbd454f36a7e1a388bd6fc3ab10d434aa4578f811acbbcf33afb1c697486313c905061129e565b7f2a5f906c256a5d799494fcd066e1f6c077689de1cdb65052a1624de4bace99bf848051906020012003611262577f2a5f906c256a5d799494fcd066e1f6c077689de1cdb65052a1624de4bace99bf905061129d565b6040517f08c379a000000000000000000000000000000000000000000000000000000000815260040161129490612c60565b60405180910390fd5b5b5b6112a981846116b8565b91505092915050565b6000801b6112bf81611d3d565b816112ea7feefb95e842a3287179d933b4460be539a1d5af11aa8b325bb45c5c8dc92de4ed826116b8565b1561132c57806040517f375795b90000000000000000000000000000000000000000000000000000000081526004016113239190612a86565b60405180910390fd5b6113567f2a5f906c256a5d799494fcd066e1f6c077689de1cdb65052a1624de4bace99bf826116b8565b1561139857806040517f375795b900000000000000000000000000000000000000000000000000000000815260040161138f9190612b00565b60405180910390fd5b6113c27ffbd454f36a7e1a388bd6fc3ab10d434aa4578f811acbbcf33afb1c697486313c826116b8565b1561140457806040517f375795b90000000000000000000000000000000000000000000000000000000081526004016113fb9190612b7a565b60405180910390fd5b600073ffffffffffffffffffffffffffffffffffffffff168173ffffffffffffffffffffffffffffffffffffffff1603611473576040517f08c379a000000000000000000000000000000000000000000000000000000000815260040161146a90612bf4565b60405180910390fd5b61149d7ffbd454f36a7e1a388bd6fc3ab10d434aa4578f811acbbcf33afb1c697486313c846107ae565b505050565b600c60009054906101000a900473ffffffffffffffffffffffffffffffffffffffff1681565b6000801b6114d581611d3d565b816115007feefb95e842a3287179d933b4460be539a1d5af11aa8b325bb45c5c8dc92de4ed826116b8565b1561154257806040517f375795b90000000000000000000000000000000000000000000000000000000081526004016115399190612a86565b60405180910390fd5b61156c7f2a5f906c256a5d799494fcd066e1f6c077689de1cdb65052a1624de4bace99bf826116b8565b156115ae57806040517f375795b90000000000000000000000000000000000000000000000000000000081526004016115a59190612b00565b60405180910390fd5b6115d87ffbd454f36a7e1a388bd6fc3ab10d434aa4578f811acbbcf33afb1c697486313c826116b8565b1561161a57806040517f375795b90000000000000000000000000000000000000000000000000000000081526004016116119190612b7a565b60405180910390fd5b600073ffffffffffffffffffffffffffffffffffffffff168173ffffffffffffffffffffffffffffffffffffffff1603611689576040517f08c379a000000000000000000000000000000000000000000000000000000000815260040161168090612bf4565b60405180910390fd5b6116b37f2a5f906c256a5d799494fcd066e1f6c077689de1cdb65052a1624de4bace99bf846107ae565b505050565b600080600084815260200190815260200160002060000160008373ffffffffffffffffffffffffffffffffffffffff1673ffffffffffffffffffffffffffffffffffffffff16815260200190815260200160002060009054906101000a900460ff16905092915050565b7feefb95e842a3287179d933b4460be539a1d5af11aa8b325bb45c5c8dc92de4ed81565b6000801b61175381611d3d565b600073ffffffffffffffffffffffffffffffffffffffff168273ffffffffffffffffffffffffffffffffffffffff16036117c2576040517f08c379a00000000000000000000000000000000000000000000000000000000081526004016117b990612ccc565b60405180910390fd5b60018060008473ffffffffffffffffffffffffffffffffffffffff1673ffffffffffffffffffffffffffffffffffffffff16815260200190815260200160002060006101000a81548160ff0219169083151502179055506118437feefb95e842a3287179d933b4460be539a1d5af11aa8b325bb45c5c8dc92de4ed83611e4a565b5061186e7ffbd454f36a7e1a388bd6fc3ab10d434aa4578f811acbbcf33afb1c697486313c83611e4a565b506118997f2a5f906c256a5d799494fcd066e1f6c077689de1cdb65052a1624de4bace99bf83611e4a565b507f90811a8edd3b3c17eeaefffc17f639cc69145d41a359c9843994dc2538203690826040516118c991906126cf565b60405180910390a15050565b60036020528060005260406000206000915090508060000154908060010160009054906101000a900473ffffffffffffffffffffffffffffffffffffffff16908060020160009054906101000a900473ffffffffffffffffffffffffffffffffffffffff16908060030160009054906101000a900473ffffffffffffffffffffffffffffffffffffffff16908060040154908060050154908060060154908060070154908060080160009054906101000a900460ff16908060080160019054906101000a900473ffffffffffffffffffffffffffffffffffffffff1690508a565b600960009054906101000a900473ffffffffffffffffffffffffffffffffffffffff1681565b60046020528060005260406000206000915090508060000154908060010154908060020160009054906101000a900473ffffffffffffffffffffffffffffffffffffffff16908060020160149054906101000a900460ff16908060020160159054906101000a900460ff1690806003018054611a579061295e565b80601f0160208091040260200160405190810160405280929190818152602001828054611a839061295e565b8015611ad05780601f10611aa557610100808354040283529160200191611ad0565b820191906000526020600020905b815481529060010190602001808311611ab357829003601f168201915b5050505050905086565b6000801b81565b6000801b611aee81611d3d565b600073ffffffffffffffffffffffffffffffffffffffff168273ffffffffffffffffffffffffffffffffffffffff1603611b5d576040517f08c379a0000000000000000000000000000000000000000000000000000000008152600401611b5490612d38565b60405180910390fd5b6000600160008473ffffffffffffffffffffffffffffffffffffffff1673ffffffffffffffffffffffffffffffffffffffff16815260200190815260200160002060006101000a81548160ff0219169083151502179055507fc3776b472ebf54114339eec9e4dc924e7ce307a97f5c1ee72b6d474e6e5e8b7c82604051611be491906126cf565b60405180910390a15050565b600b60009054906101000a900473ffffffffffffffffffffffffffffffffffffffff1681565b60056020528160005260406000208181548110611c3257600080fd5b90600052602060002001600091509150505481565b611c508261076b565b611c5981611d3d565b611c638383611e4a565b50505050565b600a60009054906101000a900473ffffffffffffffffffffffffffffffffffffffff1681565b60016020528060005260406000206000915054906101000a900460ff1681565b7ffbd454f36a7e1a388bd6fc3ab10d434aa4578f811acbbcf33afb1c697486313c81565b60007f01ffc9a7000000000000000000000000000000000000000000000000000000007bffffffffffffffffffffffffffffffffffffffffffffffffffffffff1916827bffffffffffffffffffffffffffffffffffffffffffffffffffffffff1916149050919050565b611d4e81611d49611e42565b611fac565b50565b6000611d5d83836116b8565b611e3757600160008085815260200190815260200160002060000160008473ffffffffffffffffffffffffffffffffffffffff1673ffffffffffffffffffffffffffffffffffffffff16815260200190815260200160002060006101000a81548160ff021916908315150217905550611dd4611e42565b73ffffffffffffffffffffffffffffffffffffffff168273ffffffffffffffffffffffffffffffffffffffff16847f2f8788117e7eff1d82e926ec794901d17c78024a50270940304540a733656f0d60405160405180910390a460019050611e3c565b600090505b92915050565b600033905090565b6000611e5683836116b8565b15611f3157600080600085815260200190815260200160002060000160008473ffffffffffffffffffffffffffffffffffffffff1673ffffffffffffffffffffffffffffffffffffffff16815260200190815260200160002060006101000a81548160ff021916908315150217905550611ece611e42565b73ffffffffffffffffffffffffffffffffffffffff168273ffffffffffffffffffffffffffffffffffffffff16847ff6391f5c32d9c69d2a47ea670b442974b53935d1edc7fd64eb21e047a839171b60405160405180910390a460019050611f36565b600090505b92915050565b600080600090505b600680549050811015611fa157600060068281548110611f6757611f66612d58565b5b90600052602060002090600402019050611f8081611ffd565b15611f9357806000015492505050611fa9565b508080600101915050611f44565b506000801b90505b90565b611fb682826116b8565b611ff95780826040517fe2517d3f000000000000000000000000000000000000000000000000000000008152600401611ff0929190612d87565b60405180910390fd5b5050565b60006203f4808260010154426120139190612ddf565b11801561202f57508160020160159054906101000a900460ff16155b801561204a57508160020160149054906101000a900460ff16155b9050919050565b6000604051905090565b600080fd5b600080fd5b60007fffffffff0000000000000000000000000000000000000000000000000000000082169050919050565b61209a81612065565b81146120a557600080fd5b50565b6000813590506120b781612091565b92915050565b6000602082840312156120d3576120d261205b565b5b60006120e1848285016120a8565b91505092915050565b60008115159050919050565b6120ff816120ea565b82525050565b600060208201905061211a60008301846120f6565b92915050565b6000819050919050565b61213381612120565b82525050565b600060208201905061214e600083018461212a565b92915050565b6000819050919050565b61216781612154565b82525050565b6000602082019050612182600083018461215e565b92915050565b61219181612154565b811461219c57600080fd5b50565b6000813590506121ae81612188565b92915050565b6000602082840312156121ca576121c961205b565b5b60006121d88482850161219f565b91505092915050565b6121ea81612120565b81146121f557600080fd5b50565b600081359050612207816121e1565b92915050565b6000602082840312156122235761222261205b565b5b6000612231848285016121f8565b91505092915050565b600073ffffffffffffffffffffffffffffffffffffffff82169050919050565b60006122658261223a565b9050919050565b6122758161225a565b811461228057600080fd5b50565b6000813590506122928161226c565b92915050565b600080604083850312156122af576122ae61205b565b5b60006122bd8582860161219f565b92505060206122ce85828601612283565b9150509250929050565b6122e18161225a565b82525050565b600081519050919050565b600082825260208201905092915050565b60005b83811015612321578082015181840152602081019050612306565b60008484015250505050565b6000601f19601f8301169050919050565b6000612349826122e7565b61235381856122f2565b9350612363818560208601612303565b61236c8161232d565b840191505092915050565b600060c08201905061238c600083018961215e565b612399602083018861212a565b6123a660408301876122d8565b6123b360608301866120f6565b6123c060808301856120f6565b81810360a08301526123d2818461233e565b9050979650505050505050565b600080fd5b600080fd5b600080fd5b60008083601f840112612404576124036123df565b5b8235905067ffffffffffffffff811115612421576124206123e4565b5b60208301915083600182028301111561243d5761243c6123e9565b5b9250929050565b6000806020838503121561245b5761245a61205b565b5b600083013567ffffffffffffffff81111561247957612478612060565b5b612485858286016123ee565b92509250509250929050565b6000602082840312156124a7576124a661205b565b5b60006124b584828501612283565b91505092915050565b600081519050919050565b600082825260208201905092915050565b60006124e5826124be565b6124ef81856124c9565b93506124ff818560208601612303565b6125088161232d565b840191505092915050565b600060408201905061252860008301856120f6565b818103602083015261253a81846124da565b90509392505050565b600080fd5b7f4e487b7100000000000000000000000000000000000000000000000000000000600052604160045260246000fd5b6125808261232d565b810181811067ffffffffffffffff8211171561259f5761259e612548565b5b80604052505050565b60006125b2612051565b90506125be8282612577565b919050565b600067ffffffffffffffff8211156125de576125dd612548565b5b6125e78261232d565b9050602081019050919050565b82818337600083830152505050565b6000612616612611846125c3565b6125a8565b90508281526020810184848401111561263257612631612543565b5b61263d8482856125f4565b509392505050565b600082601f83011261265a576126596123df565b5b813561266a848260208601612603565b91505092915050565b6000806040838503121561268a5761268961205b565b5b600083013567ffffffffffffffff8111156126a8576126a7612060565b5b6126b485828601612645565b92505060206126c585828601612283565b9150509250929050565b60006020820190506126e460008301846122d8565b92915050565b7f4e487b7100000000000000000000000000000000000000000000000000000000600052602160045260246000fd5b6009811061272a576127296126ea565b5b50565b600081905061273b82612719565b919050565b600061274b8261272d565b9050919050565b61275b81612740565b82525050565b600061014082019050612777600083018d61215e565b612784602083018c6122d8565b612791604083018b6122d8565b61279e606083018a6122d8565b6127ab608083018961212a565b6127b860a083018861212a565b6127c560c083018761212a565b6127d260e083018661212a565b6127e0610100830185612752565b6127ee6101208301846122d8565b9b9a5050505050505050505050565b6000819050919050565b600061282261281d6128188461223a565b6127fd565b61223a565b9050919050565b600061283482612807565b9050919050565b600061284682612829565b9050919050565b6128568161283b565b82525050565b6000602082019050612871600083018461284d565b92915050565b600061288282612829565b9050919050565b61289281612877565b82525050565b60006020820190506128ad6000830184612889565b92915050565b600080604083850312156128ca576128c961205b565b5b60006128d885828601612283565b92505060206128e9858286016121f8565b9150509250929050565b60006128fe82612829565b9050919050565b61290e816128f3565b82525050565b60006020820190506129296000830184612905565b92915050565b7f4e487b7100000000000000000000000000000000000000000000000000000000600052602260045260246000fd5b6000600282049050600182168061297657607f821691505b6020821081036129895761298861292f565b5b50919050565b60006040820190506129a4600083018561215e565b6129b160208301846122d8565b9392505050565b6129c1816120ea565b81146129cc57600080fd5b50565b6000815190506129de816129b8565b92915050565b6000602082840312156129fa576129f961205b565b5b6000612a08848285016129cf565b91505092915050565b6000604082019050612a2660008301856122d8565b612a33602083018461212a565b9392505050565b7f4d616e7566616374757265720000000000000000000000000000000000000000600082015250565b6000612a70600c836122f2565b9150612a7b82612a3a565b602082019050919050565b60006040820190508181036000830152612a9f81612a63565b9050612aae60208301846122d8565b92915050565b7f52657461696c6572000000000000000000000000000000000000000000000000600082015250565b6000612aea6008836122f2565b9150612af582612ab4565b602082019050919050565b60006040820190508181036000830152612b1981612add565b9050612b2860208301846122d8565b92915050565b7f4469737472696275746f72000000000000000000000000000000000000000000600082015250565b6000612b64600b836122f2565b9150612b6f82612b2e565b602082019050919050565b60006040820190508181036000830152612b9381612b57565b9050612ba260208301846122d8565b92915050565b7f4164647265737320496e76616c69640000000000000000000000000000000000600082015250565b6000612bde600f836122f2565b9150612be982612ba8565b602082019050919050565b60006020820190508181036000830152612c0d81612bd1565b9050919050565b7f496e76616c696420726f6c65206e616d65000000000000000000000000000000600082015250565b6000612c4a6011836122f2565b9150612c5582612c14565b602082019050919050565b60006020820190508181036000830152612c7981612c3d565b9050919050565b7f43616e6e6f7420667265657a6520746865207a65726f20616464726573730000600082015250565b6000612cb6601e836122f2565b9150612cc182612c80565b602082019050919050565b60006020820190508181036000830152612ce581612ca9565b9050919050565b7f43616e6e6f7420756e667265657a6520746865207a65726f2061646472657373600082015250565b6000612d226020836122f2565b9150612d2d82612cec565b602082019050919050565b60006020820190508181036000830152612d5181612d15565b9050919050565b7f4e487b7100000000000000000000000000000000000000000000000000000000600052603260045260246000fd5b6000604082019050612d9c60008301856122d8565b612da9602083018461215e565b9392505050565b7f4e487b7100000000000000000000000000000000000000000000000000000000600052601160045260246000fd5b6000612dea82612120565b9150612df583612120565b9250828203905081811115612e0d57612e0c612db0565b5b9291505056fea2646970667358221220795f91d23a89f63b3b7805a5c81b5bc13a8cb66c41e8b74518bd4a7994e4b26e64736f6c634300081c0033",
  "linkReferences": {},
  "deployedLinkReferences": {}
}