{
  "_format": "hh-sol-artifact-1",
  "contractName": "upKeep",
  "sourceName": "contracts/upKeep.sol",
  "abi": [
    {
      "inputs": [
        {
          "internalType": "address",
          "name": "priceFeedAddress",
          "type": "address"
        },
        {
          "internalType": "address",
          "name": "escrowAddress",
          "type": "address"
        },
        {
          "internalType": "address",
          "name": "handlingAddresses",
          "type": "address"
        }
      ],
      "stateMutability": "nonpayable",
      "type": "constructor"
    },
    {
      "inputs": [],
      "name": "AccessControlBadConfirmation",
      "type": "error"
    },
    {
      "inputs": [
        {
          "internalType": "address",
          "name": "account",
          "type": "address"
        },
        {
          "internalType": "bytes32",
          "name": "neededRole",
          "type": "bytes32"
        }
      ],
      "name": "AccessControlUnauthorizedAccount",
      "type": "error"
    },
    {
      "inputs": [
        {
          "internalType": "string",
          "name": "role",
          "type": "string"
        },
        {
          "internalType": "address",
          "name": "account",
          "type": "address"
        }
      ],
      "name": "AddressAlreadyExists",
      "type": "error"
    },
    {
      "inputs": [
        {
          "internalType": "address",
          "name": "account",
          "type": "address"
        }
      ],
      "name": "AddressInvalid",
      "type": "error"
    },
    {
      "inputs": [
        {
          "internalType": "uint256",
          "name": "_usdAmount",
          "type": "uint256"
        }
      ],
      "name": "InvalidAmount",
      "type": "error"
    },
    {
      "anonymous": false,
      "inputs": [
        {
          "indexed": false,
          "internalType": "address",
          "name": "account",
          "type": "address"
        }
      ],
      "name": "AddressFrozen",
      "type": "event"
    },
    {
      "anonymous": false,
      "inputs": [
        {
          "indexed": false,
          "internalType": "address",
          "name": "account",
          "type": "address"
        }
      ],
      "name": "AddressUnfrozen",
      "type": "event"
    },
    {
      "anonymous": false,
      "inputs": [
        {
          "indexed": true,
          "internalType": "bytes32",
          "name": "batchId",
          "type": "bytes32"
        },
        {
          "indexed": false,
          "internalType": "uint256",
          "name": "timestamp",
          "type": "uint256"
        }
      ],
      "name": "BatchCreated",
      "type": "event"
    },
    {
      "anonymous": false,
      "inputs": [
        {
          "indexed": true,
          "internalType": "bytes32",
          "name": "batchId",
          "type": "bytes32"
        },
        {
          "indexed": false,
          "internalType": "address",
          "name": "distributor",
          "type": "address"
        },
        {
          "indexed": false,
          "internalType": "enum DrugSupplyChain.BatchStatus",
          "name": "statusEnum",
          "type": "uint8"
        },
        {
          "indexed": false,
          "internalType": "uint256",
          "name": "price",
          "type": "uint256"
        },
        {
          "indexed": false,
          "internalType": "uint256",
          "name": "timestamp",
          "type": "uint256"
        }
      ],
      "name": "DistributerPurchased",
      "type": "event"
    },
    {
      "anonymous": false,
      "inputs": [
        {
          "indexed": true,
          "internalType": "bytes32",
          "name": "batchId",
          "type": "bytes32"
        },
        {
          "indexed": false,
          "internalType": "enum DrugSupplyChain.BatchStatus",
          "name": "statusEnum",
          "type": "uint8"
        },
        {
          "indexed": true,
          "internalType": "address",
          "name": "distributor",
          "type": "address"
        },
        {
          "indexed": false,
          "internalType": "uint256",
          "name": "price",
          "type": "uint256"
        },
        {
          "indexed": false,
          "internalType": "uint256",
          "name": "timestamp",
          "type": "uint256"
        },
        {
          "indexed": false,
          "internalType": "string",
          "name": "reason",
          "type": "string"
        }
      ],
      "name": "EligibleForResell",
      "type": "event"
    },
    {
      "anonymous": false,
      "inputs": [
        {
          "indexed": true,
          "internalType": "bytes32",
          "name": "batchId",
          "type": "bytes32"
        },
        {
          "indexed": true,
          "internalType": "address",
          "name": "to",
          "type": "address"
        },
        {
          "indexed": true,
          "internalType": "uint256",
          "name": "timestamp",
          "type": "uint256"
        },
        {
          "indexed": false,
          "internalType": "bool",
          "name": "refunded",
          "type": "bool"
        },
        {
          "indexed": false,
          "internalType": "string",
          "name": "reason",
          "type": "string"
        }
      ],
      "name": "Refunded",
      "type": "event"
    },
    {
      "anonymous": false,
      "inputs": [
        {
          "indexed": true,
          "internalType": "bytes32",
          "name": "batchId",
          "type": "bytes32"
        },
        {
          "indexed": true,
          "internalType": "address",
          "name": "requester",
          "type": "address"
        },
        {
          "indexed": true,
          "internalType": "uint256",
          "name": "timestamp",
          "type": "uint256"
        },
        {
          "indexed": false,
          "internalType": "bool",
          "name": "approved",
          "type": "bool"
        },
        {
          "indexed": false,
          "internalType": "string",
          "name": "reason",
          "type": "string"
        }
      ],
      "name": "RequestApproved",
      "type": "event"
    },
    {
      "anonymous": false,
      "inputs": [
        {
          "indexed": true,
          "internalType": "bytes32",
          "name": "batchId",
          "type": "bytes32"
        },
        {
          "indexed": false,
          "internalType": "enum DrugSupplyChain.BatchStatus",
          "name": "statusEnum",
          "type": "uint8"
        },
        {
          "indexed": true,
          "internalType": "address",
          "name": "distributor",
          "type": "address"
        },
        {
          "indexed": false,
          "internalType": "uint256",
          "name": "price",
          "type": "uint256"
        },
        {
          "indexed": false,
          "internalType": "uint256",
          "name": "timestamp",
          "type": "uint256"
        }
      ],
      "name": "ResellingDone",
      "type": "event"
    },
    {
      "anonymous": false,
      "inputs": [
        {
          "indexed": true,
          "internalType": "bytes32",
          "name": "batchId",
          "type": "bytes32"
        },
        {
          "indexed": false,
          "internalType": "address",
          "name": "retailer",
          "type": "address"
        },
        {
          "indexed": false,
          "internalType": "enum DrugSupplyChain.BatchStatus",
          "name": "statusEnum",
          "type": "uint8"
        },
        {
          "indexed": false,
          "internalType": "uint256",
          "name": "price",
          "type": "uint256"
        },
        {
          "indexed": false,
          "internalType": "uint256",
          "name": "timestamp",
          "type": "uint256"
        }
      ],
      "name": "RetailerPurchased",
      "type": "event"
    },
    {
      "anonymous": false,
      "inputs": [
        {
          "indexed": true,
          "internalType": "bytes32",
          "name": "batchId",
          "type": "bytes32"
        },
        {
          "indexed": true,
          "internalType": "uint256",
          "name": "timestamp",
          "type": "uint256"
        },
        {
          "indexed": true,
          "internalType": "address",
          "name": "requester",
          "type": "address"
        },
        {
          "indexed": false,
          "internalType": "bool",
          "name": "approved",
          "type": "bool"
        },
        {
          "indexed": false,
          "internalType": "bool",
          "name": "refunded",
          "type": "bool"
        },
        {
          "indexed": false,
          "internalType": "string",
          "name": "reason",
          "type": "string"
        }
      ],
      "name": "ReturnRequested",
      "type": "event"
    },
    {
      "anonymous": false,
      "inputs": [
        {
          "indexed": true,
          "internalType": "bytes32",
          "name": "role",
          "type": "bytes32"
        },
        {
          "indexed": true,
          "internalType": "bytes32",
          "name": "previousAdminRole",
          "type": "bytes32"
        },
        {
          "indexed": true,
          "internalType": "bytes32",
          "name": "newAdminRole",
          "type": "bytes32"
        }
      ],
      "name": "RoleAdminChanged",
      "type": "event"
    },
    {
      "anonymous": false,
      "inputs": [
        {
          "indexed": true,
          "internalType": "bytes32",
          "name": "role",
          "type": "bytes32"
        },
        {
          "indexed": true,
          "internalType": "address",
          "name": "account",
          "type": "address"
        },
        {
          "indexed": true,
          "internalType": "address",
          "name": "sender",
          "type": "address"
        }
      ],
      "name": "RoleGranted",
      "type": "event"
    },
    {
      "anonymous": false,
      "inputs": [
        {
          "indexed": true,
          "internalType": "bytes32",
          "name": "role",
          "type": "bytes32"
        },
        {
          "indexed": true,
          "internalType": "address",
          "name": "account",
          "type": "address"
        },
        {
          "indexed": true,
          "internalType": "address",
          "name": "sender",
          "type": "address"
        }
      ],
      "name": "RoleRevoked",
      "type": "event"
    },
    {
      "inputs": [],
      "name": "DEFAULT_ADMIN_ROLE",
      "outputs": [
        {
          "internalType": "bytes32",
          "name": "",
          "type": "bytes32"
        }
      ],
      "stateMutability": "view",
      "type": "function"
    },
    {
      "inputs": [],
      "name": "DISTRIBUTOR_ROLE",
      "outputs": [
        {
          "internalType": "bytes32",
          "name": "",
          "type": "bytes32"
        }
      ],
      "stateMutability": "view",
      "type": "function"
    },
    {
      "inputs": [],
      "name": "MANUFACTURER_ROLE",
      "outputs": [
        {
          "internalType": "bytes32",
          "name": "",
          "type": "bytes32"
        }
      ],
      "stateMutability": "view",
      "type": "function"
    },
    {
      "inputs": [],
      "name": "RETAILER_ROLE",
      "outputs": [
        {
          "internalType": "bytes32",
          "name": "",
          "type": "bytes32"
        }
      ],
      "stateMutability": "view",
      "type": "function"
    },
    {
      "inputs": [
        {
          "internalType": "address",
          "name": "distributor",
          "type": "address"
        }
      ],
      "name": "addDistributor",
      "outputs": [],
      "stateMutability": "nonpayable",
      "type": "function"
    },
    {
      "inputs": [
        {
          "internalType": "address",
          "name": "manufacturer",
          "type": "address"
        }
      ],
      "name": "addManufacturer",
      "outputs": [],
      "stateMutability": "nonpayable",
      "type": "function"
    },
    {
      "inputs": [
        {
          "internalType": "address",
          "name": "retailer",
          "type": "address"
        }
      ],
      "name": "addRetailer",
      "outputs": [],
      "stateMutability": "nonpayable",
      "type": "function"
    },
    {
      "inputs": [
        {
          "internalType": "uint256",
          "name": "",
          "type": "uint256"
        }
      ],
      "name": "allBatchIds",
      "outputs": [
        {
          "internalType": "bytes32",
          "name": "",
          "type": "bytes32"
        }
      ],
      "stateMutability": "view",
      "type": "function"
    },
    {
      "inputs": [],
      "name": "batchCount",
      "outputs": [
        {
          "internalType": "uint256",
          "name": "",
          "type": "uint256"
        }
      ],
      "stateMutability": "view",
      "type": "function"
    },
    {
      "inputs": [
        {
          "internalType": "address",
          "name": "",
          "type": "address"
        }
      ],
      "name": "batchCounter",
      "outputs": [
        {
          "internalType": "uint256",
          "name": "",
          "type": "uint256"
        }
      ],
      "stateMutability": "view",
      "type": "function"
    },
    {
      "inputs": [
        {
          "internalType": "bytes32",
          "name": "",
          "type": "bytes32"
        }
      ],
      "name": "batchIdToBatch",
      "outputs": [
        {
          "internalType": "bytes32",
          "name": "batchId",
          "type": "bytes32"
        },
        {
          "internalType": "address",
          "name": "manufacturer",
          "type": "address"
        },
        {
          "internalType": "address",
          "name": "distributor",
          "type": "address"
        },
        {
          "internalType": "address",
          "name": "retailer",
          "type": "address"
        },
        {
          "internalType": "uint256",
          "name": "expiryDate",
          "type": "uint256"
        },
        {
          "internalType": "uint256",
          "name": "timestamp",
          "type": "uint256"
        },
        {
          "internalType": "uint256",
          "name": "price",
          "type": "uint256"
        },
        {
          "internalType": "uint256",
          "name": "productPrice",
          "type": "uint256"
        },
        {
          "internalType": "enum DrugSupplyChain.BatchStatus",
          "name": "statusEnum",
          "type": "uint8"
        },
        {
          "internalType": "address",
          "name": "ipfsHash",
          "type": "address"
        }
      ],
      "stateMutability": "view",
      "type": "function"
    },
    {
      "inputs": [
        {
          "internalType": "uint256",
          "name": "_usdAmount",
          "type": "uint256"
        }
      ],
      "name": "calculateEthfromUSD",
      "outputs": [
        {
          "internalType": "uint256",
          "name": "",
          "type": "uint256"
        }
      ],
      "stateMutability": "view",
      "type": "function"
    },
    {
      "inputs": [
        {
          "internalType": "string",
          "name": "roleName",
          "type": "string"
        },
        {
          "internalType": "address",
          "name": "account",
          "type": "address"
        }
      ],
      "name": "checkRole",
      "outputs": [
        {
          "internalType": "bool",
          "name": "",
          "type": "bool"
        }
      ],
      "stateMutability": "view",
      "type": "function"
    },
    {
      "inputs": [
        {
          "internalType": "bytes",
          "name": "",
          "type": "bytes"
        }
      ],
      "name": "checkUpkeep",
      "outputs": [
        {
          "internalType": "bool",
          "name": "",
          "type": "bool"
        },
        {
          "internalType": "bytes",
          "name": "",
          "type": "bytes"
        }
      ],
      "stateMutability": "view",
      "type": "function"
    },
    {
      "inputs": [],
      "name": "dataFeed",
      "outputs": [
        {
          "internalType": "contract AggregatorV3Interface",
          "name": "",
          "type": "address"
        }
      ],
      "stateMutability": "view",
      "type": "function"
    },
    {
      "inputs": [],
      "name": "escrowContract",
      "outputs": [
        {
          "internalType": "contract Escrow",
          "name": "",
          "type": "address"
        }
      ],
      "stateMutability": "view",
      "type": "function"
    },
    {
      "inputs": [
        {
          "internalType": "address",
          "name": "account",
          "type": "address"
        }
      ],
      "name": "frozeAddress",
      "outputs": [],
      "stateMutability": "nonpayable",
      "type": "function"
    },
    {
      "inputs": [
        {
          "internalType": "bytes32",
          "name": "role",
          "type": "bytes32"
        }
      ],
      "name": "getRoleAdmin",
      "outputs": [
        {
          "internalType": "bytes32",
          "name": "",
          "type": "bytes32"
        }
      ],
      "stateMutability": "view",
      "type": "function"
    },
    {
      "inputs": [
        {
          "internalType": "bytes32",
          "name": "role",
          "type": "bytes32"
        },
        {
          "internalType": "address",
          "name": "account",
          "type": "address"
        }
      ],
      "name": "grantRole",
      "outputs": [],
      "stateMutability": "nonpayable",
      "type": "function"
    },
    {
      "inputs": [],
      "name": "handlingAddresses",
      "outputs": [
        {
          "internalType": "contract HandlingAddresses",
          "name": "",
          "type": "address"
        }
      ],
      "stateMutability": "view",
      "type": "function"
    },
    {
      "inputs": [
        {
          "internalType": "bytes32",
          "name": "role",
          "type": "bytes32"
        },
        {
          "internalType": "address",
          "name": "account",
          "type": "address"
        }
      ],
      "name": "hasRole",
      "outputs": [
        {
          "internalType": "bool",
          "name": "",
          "type": "bool"
        }
      ],
      "stateMutability": "view",
      "type": "function"
    },
    {
      "inputs": [
        {
          "internalType": "address",
          "name": "",
          "type": "address"
        }
      ],
      "name": "isFrozen",
      "outputs": [
        {
          "internalType": "bool",
          "name": "",
          "type": "bool"
        }
      ],
      "stateMutability": "view",
      "type": "function"
    },
    {
      "inputs": [],
      "name": "owner",
      "outputs": [
        {
          "internalType": "address",
          "name": "",
          "type": "address"
        }
      ],
      "stateMutability": "view",
      "type": "function"
    },
    {
      "inputs": [
        {
          "internalType": "address",
          "name": "",
          "type": "address"
        },
        {
          "internalType": "uint256",
          "name": "",
          "type": "uint256"
        }
      ],
      "name": "ownerToBatches",
      "outputs": [
        {
          "internalType": "bytes32",
          "name": "",
          "type": "bytes32"
        }
      ],
      "stateMutability": "view",
      "type": "function"
    },
    {
      "inputs": [
        {
          "internalType": "uint256",
          "name": "",
          "type": "uint256"
        }
      ],
      "name": "pendingRequests",
      "outputs": [
        {
          "internalType": "bytes32",
          "name": "batchId",
          "type": "bytes32"
        },
        {
          "internalType": "uint256",
          "name": "timestamp",
          "type": "uint256"
        },
        {
          "internalType": "address",
          "name": "requester",
          "type": "address"
        },
        {
          "internalType": "bool",
          "name": "refunded",
          "type": "bool"
        },
        {
          "internalType": "bool",
          "name": "approved",
          "type": "bool"
        },
        {
          "internalType": "string",
          "name": "reason",
          "type": "string"
        }
      ],
      "stateMutability": "view",
      "type": "function"
    },
    {
      "inputs": [
        {
          "internalType": "bytes",
          "name": "performData",
          "type": "bytes"
        }
      ],
      "name": "performUpkeep",
      "outputs": [],
      "stateMutability": "nonpayable",
      "type": "function"
    },
    {
      "inputs": [
        {
          "internalType": "address",
          "name": "distributor",
          "type": "address"
        }
      ],
      "name": "removeDistributor",
      "outputs": [],
      "stateMutability": "nonpayable",
      "type": "function"
    },
    {
      "inputs": [
        {
          "internalType": "address",
          "name": "manufacturer",
          "type": "address"
        }
      ],
      "name": "removeManufacturer",
      "outputs": [],
      "stateMutability": "nonpayable",
      "type": "function"
    },
    {
      "inputs": [
        {
          "internalType": "address",
          "name": "retailer",
          "type": "address"
        }
      ],
      "name": "removeRetailer",
      "outputs": [],
      "stateMutability": "nonpayable",
      "type": "function"
    },
    {
      "inputs": [
        {
          "internalType": "bytes32",
          "name": "role",
          "type": "bytes32"
        },
        {
          "internalType": "address",
          "name": "callerConfirmation",
          "type": "address"
        }
      ],
      "name": "renounceRole",
      "outputs": [],
      "stateMutability": "nonpayable",
      "type": "function"
    },
    {
      "inputs": [
        {
          "internalType": "bytes32",
          "name": "",
          "type": "bytes32"
        }
      ],
      "name": "returnRequests",
      "outputs": [
        {
          "internalType": "bytes32",
          "name": "batchId",
          "type": "bytes32"
        },
        {
          "internalType": "uint256",
          "name": "timestamp",
          "type": "uint256"
        },
        {
          "internalType": "address",
          "name": "requester",
          "type": "address"
        },
        {
          "internalType": "bool",
          "name": "refunded",
          "type": "bool"
        },
        {
          "internalType": "bool",
          "name": "approved",
          "type": "bool"
        },
        {
          "internalType": "string",
          "name": "reason",
          "type": "string"
        }
      ],
      "stateMutability": "view",
      "type": "function"
    },
    {
      "inputs": [
        {
          "internalType": "bytes32",
          "name": "role",
          "type": "bytes32"
        },
        {
          "internalType": "address",
          "name": "account",
          "type": "address"
        }
      ],
      "name": "revokeRole",
      "outputs": [],
      "stateMutability": "nonpayable",
      "type": "function"
    },
    {
      "inputs": [
        {
          "internalType": "bytes4",
          "name": "interfaceId",
          "type": "bytes4"
        }
      ],
      "name": "supportsInterface",
      "outputs": [
        {
          "internalType": "bool",
          "name": "",
          "type": "bool"
        }
      ],
      "stateMutability": "view",
      "type": "function"
    },
    {
      "inputs": [
        {
          "internalType": "address",
          "name": "account",
          "type": "address"
        }
      ],
      "name": "unfreezeAddress",
      "outputs": [],
      "stateMutability": "nonpayable",
      "type": "function"
    },
    {
      "inputs": [],
      "name": "withdraw",
      "outputs": [],
      "stateMutability": "nonpayable",
      "type": "function"
    }
  ],
  "bytecode": "0x608060405234801561001057600080fd5b5060405161358c38038061358c8339818101604052810190610032919061032a565b8282826100486000801b3361015860201b60201c565b5033600c60006101000a81548173ffffffffffffffffffffffffffffffffffffffff021916908373ffffffffffffffffffffffffffffffffffffffff16021790555081600a60006101000a81548173ffffffffffffffffffffffffffffffffffffffff021916908373ffffffffffffffffffffffffffffffffffffffff16021790555082600960006101000a81548173ffffffffffffffffffffffffffffffffffffffff021916908373ffffffffffffffffffffffffffffffffffffffff16021790555080600b60006101000a81548173ffffffffffffffffffffffffffffffffffffffff021916908373ffffffffffffffffffffffffffffffffffffffff16021790555050505050505061037d565b600061016a838361025560201b60201c565b61024a57600160008085815260200190815260200160002060000160008473ffffffffffffffffffffffffffffffffffffffff1673ffffffffffffffffffffffffffffffffffffffff16815260200190815260200160002060006101000a81548160ff0219169083151502179055506101e76102bf60201b60201c565b73ffffffffffffffffffffffffffffffffffffffff168273ffffffffffffffffffffffffffffffffffffffff16847f2f8788117e7eff1d82e926ec794901d17c78024a50270940304540a733656f0d60405160405180910390a46001905061024f565b600090505b92915050565b600080600084815260200190815260200160002060000160008373ffffffffffffffffffffffffffffffffffffffff1673ffffffffffffffffffffffffffffffffffffffff16815260200190815260200160002060009054906101000a900460ff16905092915050565b600033905090565b600080fd5b600073ffffffffffffffffffffffffffffffffffffffff82169050919050565b60006102f7826102cc565b9050919050565b610307816102ec565b811461031257600080fd5b50565b600081519050610324816102fe565b92915050565b600080600060608486031215610343576103426102c7565b5b600061035186828701610315565b935050602061036286828701610315565b925050604061037386828701610315565b9150509250925092565b6132008061038c6000396000f3fe608060405234801561001057600080fd5b50600436106102115760003560e01c80637026fe9c116101255780639fb65529116100ad578063cf30c7051161007c578063cf30c7051461064a578063d547741f1461067a578063e42a96e714610696578063e5839836146106b4578063f0bd87cc146106e457610211565b80639fb65529146105bd578063a217fddf146105f2578063bfb8054714610610578063c1c460a61461062c57610211565b806391d14854116100f457806391d14854146104fc578063965288b01461052c57806399fd9cfb1461054a5780639de7c3b7146105665780639e42ff901461059f57610211565b80637026fe9c146104765780637250e224146104a65780638da5cb5b146104c25780638ec4f505146104e057610211565b80633ccfd60b116101a8578063606b5c4211610177578063606b5c42146103ad5780636a0f9f70146103dd5780636a75323f1461040d5780636e04ff0d1461042957806370099ec81461045a57610211565b80633ccfd60b1461034f5780634585e33b1461035957806357c1f9e2146103755780635f8a5afa1461039157610211565b8063290b17ec116101e4578063290b17ec146102b25780632f2ff15d146102e257806336568abe146102fe5780633c652a9a1461031a57610211565b806301ffc9a71461021657806306f13056146102465780632115e7bf14610264578063248a9ca314610282575b600080fd5b610230600480360381019061022b919061225e565b610702565b60405161023d91906122a6565b60405180910390f35b61024e61077c565b60405161025b91906122da565b60405180910390f35b61026c610782565b604051610279919061230e565b60405180910390f35b61029c60048036038101906102979190612355565b6107a6565b6040516102a9919061230e565b60405180910390f35b6102cc60048036038101906102c791906123ae565b6107c5565b6040516102d9919061230e565b60405180910390f35b6102fc60048036038101906102f79190612439565b6107e9565b005b61031860048036038101906103139190612439565b61080b565b005b610334600480360381019061032f91906123ae565b610886565b60405161034696959493929190612518565b60405180910390f35b610357610994565b005b610373600480360381019061036e91906125e5565b610ac7565b005b61038f600480360381019061038a9190612632565b610e7a565b005b6103ab60048036038101906103a69190612632565b610eb5565b005b6103c760048036038101906103c291906123ae565b6110a5565b6040516103d491906122da565b60405180910390f35b6103f760048036038101906103f29190612632565b61116a565b60405161040491906122da565b60405180910390f35b61042760048036038101906104229190612632565b611182565b005b610443600480360381019061043e91906125e5565b6111bd565b6040516104519291906126b4565b60405180910390f35b610474600480360381019061046f9190612632565b611222565b005b610490600480360381019061048b9190612814565b61125d565b60405161049d91906122a6565b60405180910390f35b6104c060048036038101906104bb9190612632565b6113b2565b005b6104ca6115a2565b6040516104d79190612870565b60405180910390f35b6104fa60048036038101906104f59190612632565b6115c8565b005b61051660048036038101906105119190612439565b6117b8565b60405161052391906122a6565b60405180910390f35b610534611822565b604051610541919061230e565b60405180910390f35b610564600480360381019061055f9190612632565b611846565b005b610580600480360381019061057b9190612355565b6119d5565b6040516105969a99989796959493929190612902565b60405180910390f35b6105a7611ab6565b6040516105b491906129fd565b60405180910390f35b6105d760048036038101906105d29190612355565b611adc565b6040516105e996959493929190612518565b60405180910390f35b6105fa611bda565b604051610607919061230e565b60405180910390f35b61062a60048036038101906106259190612632565b611be1565b005b610634611cf0565b6040516106419190612a39565b60405180910390f35b610664600480360381019061065f9190612a54565b611d16565b604051610671919061230e565b60405180910390f35b610694600480360381019061068f9190612439565b611d47565b005b61069e611d69565b6040516106ab9190612ab5565b60405180910390f35b6106ce60048036038101906106c99190612632565b611d8f565b6040516106db91906122a6565b60405180910390f35b6106ec611daf565b6040516106f9919061230e565b60405180910390f35b60007f7965db0b000000000000000000000000000000000000000000000000000000007bffffffffffffffffffffffffffffffffffffffffffffffffffffffff1916827bffffffffffffffffffffffffffffffffffffffffffffffffffffffff19161480610775575061077482611dd3565b5b9050919050565b60085481565b7f2a5f906c256a5d799494fcd066e1f6c077689de1cdb65052a1624de4bace99bf81565b6000806000838152602001908152602001600020600101549050919050565b600781815481106107d557600080fd5b906000526020600020016000915090505481565b6107f2826107a6565b6107fb81611e3d565b6108058383611e51565b50505050565b610813611f42565b73ffffffffffffffffffffffffffffffffffffffff168173ffffffffffffffffffffffffffffffffffffffff1614610877576040517f6697b23200000000000000000000000000000000000000000000000000000000815260040160405180910390fd5b6108818282611f4a565b505050565b6006818154811061089657600080fd5b90600052602060002090600402016000915090508060000154908060010154908060020160009054906101000a900473ffffffffffffffffffffffffffffffffffffffff16908060020160149054906101000a900460ff16908060020160159054906101000a900460ff169080600301805461091190612aff565b80601f016020809104026020016040519081016040528092919081815260200182805461093d90612aff565b801561098a5780601f1061095f5761010080835404028352916020019161098a565b820191906000526020600020905b81548152906001019060200180831161096d57829003601f168201915b5050505050905086565b600b60009054906101000a900473ffffffffffffffffffffffffffffffffffffffff1673ffffffffffffffffffffffffffffffffffffffff166391d148546000801b336040518363ffffffff1660e01b81526004016109f4929190612b30565b602060405180830381865afa158015610a11573d6000803e3d6000fd5b505050506040513d601f19601f82011682018060405250810190610a359190612b85565b50600a60009054906101000a900473ffffffffffffffffffffffffffffffffffffffff1673ffffffffffffffffffffffffffffffffffffffff16630357371d33476040518363ffffffff1660e01b8152600401610a93929190612bb2565b600060405180830381600087803b158015610aad57600080fd5b505af1158015610ac1573d6000803e3d6000fd5b50505050565b60008282810190610ad89190612355565b9050600073ffffffffffffffffffffffffffffffffffffffff166004600083815260200190815260200160002060020160009054906101000a900473ffffffffffffffffffffffffffffffffffffffff1673ffffffffffffffffffffffffffffffffffffffff1603610bb7576003600082815260200190815260200160002060030160009054906101000a900473ffffffffffffffffffffffffffffffffffffffff166040517f86414351000000000000000000000000000000000000000000000000000000008152600401610bae9190612870565b60405180910390fd5b610c177ffbd454f36a7e1a388bd6fc3ab10d434aa4578f811acbbcf33afb1c697486313c6004600084815260200190815260200160002060020160009054906101000a900473ffffffffffffffffffffffffffffffffffffffff166117b8565b15610cfc57600a60009054906101000a900473ffffffffffffffffffffffffffffffffffffffff1673ffffffffffffffffffffffffffffffffffffffff16630357371d6004600084815260200190815260200160002060020160009054906101000a900473ffffffffffffffffffffffffffffffffffffffff1660036000858152602001908152602001600020600701546040518363ffffffff1660e01b8152600401610cc5929190612bb2565b600060405180830381600087803b158015610cdf57600080fd5b505af1158015610cf3573d6000803e3d6000fd5b50505050610dd8565b600a60009054906101000a900473ffffffffffffffffffffffffffffffffffffffff1673ffffffffffffffffffffffffffffffffffffffff16630357371d6004600084815260200190815260200160002060020160009054906101000a900473ffffffffffffffffffffffffffffffffffffffff1660036000858152602001908152602001600020600601546040518363ffffffff1660e01b8152600401610da5929190612bb2565b600060405180830381600087803b158015610dbf57600080fd5b505af1158015610dd3573d6000803e3d6000fd5b505050505b60016004600083815260200190815260200160002060020160156101000a81548160ff02191690831515021790555060016004600083815260200190815260200160002060020160146101000a81548160ff02191690831515021790555060076003600083815260200190815260200160002060080160006101000a81548160ff02191690836008811115610e7057610e6f61288b565b5b0217905550505050565b6000801b610e8781611e3d565b610eb17ffbd454f36a7e1a388bd6fc3ab10d434aa4578f811acbbcf33afb1c697486313c83611d47565b5050565b6000801b610ec281611e3d565b81610eed7feefb95e842a3287179d933b4460be539a1d5af11aa8b325bb45c5c8dc92de4ed826117b8565b15610f2f57806040517f375795b9000000000000000000000000000000000000000000000000000000008152600401610f269190612c27565b60405180910390fd5b610f597f2a5f906c256a5d799494fcd066e1f6c077689de1cdb65052a1624de4bace99bf826117b8565b15610f9b57806040517f375795b9000000000000000000000000000000000000000000000000000000008152600401610f929190612ca1565b60405180910390fd5b610fc57ffbd454f36a7e1a388bd6fc3ab10d434aa4578f811acbbcf33afb1c697486313c826117b8565b1561100757806040517f375795b9000000000000000000000000000000000000000000000000000000008152600401610ffe9190612d1b565b60405180910390fd5b600073ffffffffffffffffffffffffffffffffffffffff168173ffffffffffffffffffffffffffffffffffffffff1603611076576040517f08c379a000000000000000000000000000000000000000000000000000000000815260040161106d90612d95565b60405180910390fd5b6110a07feefb95e842a3287179d933b4460be539a1d5af11aa8b325bb45c5c8dc92de4ed846107e9565b505050565b6000806110b061203c565b9050600081116110f5576040517f08c379a00000000000000000000000000000000000000000000000000000000081526004016110ec90612e01565b60405180910390fd5b6000831161113a57826040517f3728b83d00000000000000000000000000000000000000000000000000000000815260040161113191906122da565b60405180910390fd5b6000816a52b7d2dcc80cd2e4000000856111549190612e50565b61115e9190612ec1565b90508092505050919050565b60026020528060005260406000206000915090505481565b6000801b61118f81611e3d565b6111b97feefb95e842a3287179d933b4460be539a1d5af11aa8b325bb45c5c8dc92de4ed83611d47565b5050565b6000606060006111cb6120dd565b90506000801b8114611203576001816040516020016111ea919061230e565b604051602081830303815290604052925092505061121b565b60006040518060200160405280600081525092509250505b9250929050565b6000801b61122f81611e3d565b6112597f2a5f906c256a5d799494fcd066e1f6c077689de1cdb65052a1624de4bace99bf83611d47565b5050565b6000807feefb95e842a3287179d933b4460be539a1d5af11aa8b325bb45c5c8dc92de4ed8480519060200120036112b6577feefb95e842a3287179d933b4460be539a1d5af11aa8b325bb45c5c8dc92de4ed905061139f565b7ffbd454f36a7e1a388bd6fc3ab10d434aa4578f811acbbcf33afb1c697486313c84805190602001200361130c577ffbd454f36a7e1a388bd6fc3ab10d434aa4578f811acbbcf33afb1c697486313c905061139e565b7f2a5f906c256a5d799494fcd066e1f6c077689de1cdb65052a1624de4bace99bf848051906020012003611362577f2a5f906c256a5d799494fcd066e1f6c077689de1cdb65052a1624de4bace99bf905061139d565b6040517f08c379a000000000000000000000000000000000000000000000000000000000815260040161139490612f3e565b60405180910390fd5b5b5b6113a981846117b8565b91505092915050565b6000801b6113bf81611e3d565b816113ea7feefb95e842a3287179d933b4460be539a1d5af11aa8b325bb45c5c8dc92de4ed826117b8565b1561142c57806040517f375795b90000000000000000000000000000000000000000000000000000000081526004016114239190612c27565b60405180910390fd5b6114567f2a5f906c256a5d799494fcd066e1f6c077689de1cdb65052a1624de4bace99bf826117b8565b1561149857806040517f375795b900000000000000000000000000000000000000000000000000000000815260040161148f9190612ca1565b60405180910390fd5b6114c27ffbd454f36a7e1a388bd6fc3ab10d434aa4578f811acbbcf33afb1c697486313c826117b8565b1561150457806040517f375795b90000000000000000000000000000000000000000000000000000000081526004016114fb9190612d1b565b60405180910390fd5b600073ffffffffffffffffffffffffffffffffffffffff168173ffffffffffffffffffffffffffffffffffffffff1603611573576040517f08c379a000000000000000000000000000000000000000000000000000000000815260040161156a90612d95565b60405180910390fd5b61159d7ffbd454f36a7e1a388bd6fc3ab10d434aa4578f811acbbcf33afb1c697486313c846107e9565b505050565b600c60009054906101000a900473ffffffffffffffffffffffffffffffffffffffff1681565b6000801b6115d581611e3d565b816116007feefb95e842a3287179d933b4460be539a1d5af11aa8b325bb45c5c8dc92de4ed826117b8565b1561164257806040517f375795b90000000000000000000000000000000000000000000000000000000081526004016116399190612c27565b60405180910390fd5b61166c7f2a5f906c256a5d799494fcd066e1f6c077689de1cdb65052a1624de4bace99bf826117b8565b156116ae57806040517f375795b90000000000000000000000000000000000000000000000000000000081526004016116a59190612ca1565b60405180910390fd5b6116d87ffbd454f36a7e1a388bd6fc3ab10d434aa4578f811acbbcf33afb1c697486313c826117b8565b1561171a57806040517f375795b90000000000000000000000000000000000000000000000000000000081526004016117119190612d1b565b60405180910390fd5b600073ffffffffffffffffffffffffffffffffffffffff168173ffffffffffffffffffffffffffffffffffffffff1603611789576040517f08c379a000000000000000000000000000000000000000000000000000000000815260040161178090612d95565b60405180910390fd5b6117b37f2a5f906c256a5d799494fcd066e1f6c077689de1cdb65052a1624de4bace99bf846107e9565b505050565b600080600084815260200190815260200160002060000160008373ffffffffffffffffffffffffffffffffffffffff1673ffffffffffffffffffffffffffffffffffffffff16815260200190815260200160002060009054906101000a900460ff16905092915050565b7feefb95e842a3287179d933b4460be539a1d5af11aa8b325bb45c5c8dc92de4ed81565b6000801b61185381611e3d565b600073ffffffffffffffffffffffffffffffffffffffff168273ffffffffffffffffffffffffffffffffffffffff16036118c2576040517f08c379a00000000000000000000000000000000000000000000000000000000081526004016118b990612faa565b60405180910390fd5b60018060008473ffffffffffffffffffffffffffffffffffffffff1673ffffffffffffffffffffffffffffffffffffffff16815260200190815260200160002060006101000a81548160ff0219169083151502179055506119437feefb95e842a3287179d933b4460be539a1d5af11aa8b325bb45c5c8dc92de4ed83611f4a565b5061196e7ffbd454f36a7e1a388bd6fc3ab10d434aa4578f811acbbcf33afb1c697486313c83611f4a565b506119997f2a5f906c256a5d799494fcd066e1f6c077689de1cdb65052a1624de4bace99bf83611f4a565b507f90811a8edd3b3c17eeaefffc17f639cc69145d41a359c9843994dc2538203690826040516119c99190612870565b60405180910390a15050565b60036020528060005260406000206000915090508060000154908060010160009054906101000a900473ffffffffffffffffffffffffffffffffffffffff16908060020160009054906101000a900473ffffffffffffffffffffffffffffffffffffffff16908060030160009054906101000a900473ffffffffffffffffffffffffffffffffffffffff16908060040154908060050154908060060154908060070154908060080160009054906101000a900460ff16908060080160019054906101000a900473ffffffffffffffffffffffffffffffffffffffff1690508a565b600960009054906101000a900473ffffffffffffffffffffffffffffffffffffffff1681565b60046020528060005260406000206000915090508060000154908060010154908060020160009054906101000a900473ffffffffffffffffffffffffffffffffffffffff16908060020160149054906101000a900460ff16908060020160159054906101000a900460ff1690806003018054611b5790612aff565b80601f0160208091040260200160405190810160405280929190818152602001828054611b8390612aff565b8015611bd05780601f10611ba557610100808354040283529160200191611bd0565b820191906000526020600020905b815481529060010190602001808311611bb357829003601f168201915b5050505050905086565b6000801b81565b6000801b611bee81611e3d565b600073ffffffffffffffffffffffffffffffffffffffff168273ffffffffffffffffffffffffffffffffffffffff1603611c5d576040517f08c379a0000000000000000000000000000000000000000000000000000000008152600401611c5490613016565b60405180910390fd5b6000600160008473ffffffffffffffffffffffffffffffffffffffff1673ffffffffffffffffffffffffffffffffffffffff16815260200190815260200160002060006101000a81548160ff0219169083151502179055507fc3776b472ebf54114339eec9e4dc924e7ce307a97f5c1ee72b6d474e6e5e8b7c82604051611ce49190612870565b60405180910390a15050565b600b60009054906101000a900473ffffffffffffffffffffffffffffffffffffffff1681565b60056020528160005260406000208181548110611d3257600080fd5b90600052602060002001600091509150505481565b611d50826107a6565b611d5981611e3d565b611d638383611f4a565b50505050565b600a60009054906101000a900473ffffffffffffffffffffffffffffffffffffffff1681565b60016020528060005260406000206000915054906101000a900460ff1681565b7ffbd454f36a7e1a388bd6fc3ab10d434aa4578f811acbbcf33afb1c697486313c81565b60007f01ffc9a7000000000000000000000000000000000000000000000000000000007bffffffffffffffffffffffffffffffffffffffffffffffffffffffff1916827bffffffffffffffffffffffffffffffffffffffffffffffffffffffff1916149050919050565b611e4e81611e49611f42565b61214d565b50565b6000611e5d83836117b8565b611f3757600160008085815260200190815260200160002060000160008473ffffffffffffffffffffffffffffffffffffffff1673ffffffffffffffffffffffffffffffffffffffff16815260200190815260200160002060006101000a81548160ff021916908315150217905550611ed4611f42565b73ffffffffffffffffffffffffffffffffffffffff168273ffffffffffffffffffffffffffffffffffffffff16847f2f8788117e7eff1d82e926ec794901d17c78024a50270940304540a733656f0d60405160405180910390a460019050611f3c565b600090505b92915050565b600033905090565b6000611f5683836117b8565b1561203157600080600085815260200190815260200160002060000160008473ffffffffffffffffffffffffffffffffffffffff1673ffffffffffffffffffffffffffffffffffffffff16815260200190815260200160002060006101000a81548160ff021916908315150217905550611fce611f42565b73ffffffffffffffffffffffffffffffffffffffff168273ffffffffffffffffffffffffffffffffffffffff16847ff6391f5c32d9c69d2a47ea670b442974b53935d1edc7fd64eb21e047a839171b60405160405180910390a460019050612036565b600090505b92915050565b600080600960009054906101000a900473ffffffffffffffffffffffffffffffffffffffff1673ffffffffffffffffffffffffffffffffffffffff1663feaf968c6040518163ffffffff1660e01b815260040160a060405180830381865afa1580156120ac573d6000803e3d6000fd5b505050506040513d601f19601f820116820180604052508101906120d091906130c3565b5050509150508091505090565b600080600090505b600680549050811015612142576000600682815481106121085761210761313e565b5b906000526020600020906004020190506121218161219e565b156121345780600001549250505061214a565b5080806001019150506120e5565b506000801b90505b90565b61215782826117b8565b61219a5780826040517fe2517d3f00000000000000000000000000000000000000000000000000000000815260040161219192919061316d565b60405180910390fd5b5050565b60006203f4808260010154426121b49190613196565b1180156121d057508160020160159054906101000a900460ff16155b80156121eb57508160020160149054906101000a900460ff16155b9050919050565b6000604051905090565b600080fd5b600080fd5b60007fffffffff0000000000000000000000000000000000000000000000000000000082169050919050565b61223b81612206565b811461224657600080fd5b50565b60008135905061225881612232565b92915050565b600060208284031215612274576122736121fc565b5b600061228284828501612249565b91505092915050565b60008115159050919050565b6122a08161228b565b82525050565b60006020820190506122bb6000830184612297565b92915050565b6000819050919050565b6122d4816122c1565b82525050565b60006020820190506122ef60008301846122cb565b92915050565b6000819050919050565b612308816122f5565b82525050565b600060208201905061232360008301846122ff565b92915050565b612332816122f5565b811461233d57600080fd5b50565b60008135905061234f81612329565b92915050565b60006020828403121561236b5761236a6121fc565b5b600061237984828501612340565b91505092915050565b61238b816122c1565b811461239657600080fd5b50565b6000813590506123a881612382565b92915050565b6000602082840312156123c4576123c36121fc565b5b60006123d284828501612399565b91505092915050565b600073ffffffffffffffffffffffffffffffffffffffff82169050919050565b6000612406826123db565b9050919050565b612416816123fb565b811461242157600080fd5b50565b6000813590506124338161240d565b92915050565b600080604083850312156124505761244f6121fc565b5b600061245e85828601612340565b925050602061246f85828601612424565b9150509250929050565b612482816123fb565b82525050565b600081519050919050565b600082825260208201905092915050565b60005b838110156124c25780820151818401526020810190506124a7565b60008484015250505050565b6000601f19601f8301169050919050565b60006124ea82612488565b6124f48185612493565b93506125048185602086016124a4565b61250d816124ce565b840191505092915050565b600060c08201905061252d60008301896122ff565b61253a60208301886122cb565b6125476040830187612479565b6125546060830186612297565b6125616080830185612297565b81810360a083015261257381846124df565b9050979650505050505050565b600080fd5b600080fd5b600080fd5b60008083601f8401126125a5576125a4612580565b5b8235905067ffffffffffffffff8111156125c2576125c1612585565b5b6020830191508360018202830111156125de576125dd61258a565b5b9250929050565b600080602083850312156125fc576125fb6121fc565b5b600083013567ffffffffffffffff81111561261a57612619612201565b5b6126268582860161258f565b92509250509250929050565b600060208284031215612648576126476121fc565b5b600061265684828501612424565b91505092915050565b600081519050919050565b600082825260208201905092915050565b60006126868261265f565b612690818561266a565b93506126a08185602086016124a4565b6126a9816124ce565b840191505092915050565b60006040820190506126c96000830185612297565b81810360208301526126db818461267b565b90509392505050565b600080fd5b7f4e487b7100000000000000000000000000000000000000000000000000000000600052604160045260246000fd5b612721826124ce565b810181811067ffffffffffffffff821117156127405761273f6126e9565b5b80604052505050565b60006127536121f2565b905061275f8282612718565b919050565b600067ffffffffffffffff82111561277f5761277e6126e9565b5b612788826124ce565b9050602081019050919050565b82818337600083830152505050565b60006127b76127b284612764565b612749565b9050828152602081018484840111156127d3576127d26126e4565b5b6127de848285612795565b509392505050565b600082601f8301126127fb576127fa612580565b5b813561280b8482602086016127a4565b91505092915050565b6000806040838503121561282b5761282a6121fc565b5b600083013567ffffffffffffffff81111561284957612848612201565b5b612855858286016127e6565b925050602061286685828601612424565b9150509250929050565b60006020820190506128856000830184612479565b92915050565b7f4e487b7100000000000000000000000000000000000000000000000000000000600052602160045260246000fd5b600981106128cb576128ca61288b565b5b50565b60008190506128dc826128ba565b919050565b60006128ec826128ce565b9050919050565b6128fc816128e1565b82525050565b600061014082019050612918600083018d6122ff565b612925602083018c612479565b612932604083018b612479565b61293f606083018a612479565b61294c60808301896122cb565b61295960a08301886122cb565b61296660c08301876122cb565b61297360e08301866122cb565b6129816101008301856128f3565b61298f610120830184612479565b9b9a5050505050505050505050565b6000819050919050565b60006129c36129be6129b9846123db565b61299e565b6123db565b9050919050565b60006129d5826129a8565b9050919050565b60006129e7826129ca565b9050919050565b6129f7816129dc565b82525050565b6000602082019050612a1260008301846129ee565b92915050565b6000612a23826129ca565b9050919050565b612a3381612a18565b82525050565b6000602082019050612a4e6000830184612a2a565b92915050565b60008060408385031215612a6b57612a6a6121fc565b5b6000612a7985828601612424565b9250506020612a8a85828601612399565b9150509250929050565b6000612a9f826129ca565b9050919050565b612aaf81612a94565b82525050565b6000602082019050612aca6000830184612aa6565b92915050565b7f4e487b7100000000000000000000000000000000000000000000000000000000600052602260045260246000fd5b60006002820490506001821680612b1757607f821691505b602082108103612b2a57612b29612ad0565b5b50919050565b6000604082019050612b4560008301856122ff565b612b526020830184612479565b9392505050565b612b628161228b565b8114612b6d57600080fd5b50565b600081519050612b7f81612b59565b92915050565b600060208284031215612b9b57612b9a6121fc565b5b6000612ba984828501612b70565b91505092915050565b6000604082019050612bc76000830185612479565b612bd460208301846122cb565b9392505050565b7f4d616e7566616374757265720000000000000000000000000000000000000000600082015250565b6000612c11600c83612493565b9150612c1c82612bdb565b602082019050919050565b60006040820190508181036000830152612c4081612c04565b9050612c4f6020830184612479565b92915050565b7f52657461696c6572000000000000000000000000000000000000000000000000600082015250565b6000612c8b600883612493565b9150612c9682612c55565b602082019050919050565b60006040820190508181036000830152612cba81612c7e565b9050612cc96020830184612479565b92915050565b7f4469737472696275746f72000000000000000000000000000000000000000000600082015250565b6000612d05600b83612493565b9150612d1082612ccf565b602082019050919050565b60006040820190508181036000830152612d3481612cf8565b9050612d436020830184612479565b92915050565b7f4164647265737320496e76616c69640000000000000000000000000000000000600082015250565b6000612d7f600f83612493565b9150612d8a82612d49565b602082019050919050565b60006020820190508181036000830152612dae81612d72565b9050919050565b7f496e76616c696420707269636520666565642064617461000000000000000000600082015250565b6000612deb601783612493565b9150612df682612db5565b602082019050919050565b60006020820190508181036000830152612e1a81612dde565b9050919050565b7f4e487b7100000000000000000000000000000000000000000000000000000000600052601160045260246000fd5b6000612e5b826122c1565b9150612e66836122c1565b9250828202612e74816122c1565b91508282048414831517612e8b57612e8a612e21565b5b5092915050565b7f4e487b7100000000000000000000000000000000000000000000000000000000600052601260045260246000fd5b6000612ecc826122c1565b9150612ed7836122c1565b925082612ee757612ee6612e92565b5b828204905092915050565b7f496e76616c696420726f6c65206e616d65000000000000000000000000000000600082015250565b6000612f28601183612493565b9150612f3382612ef2565b602082019050919050565b60006020820190508181036000830152612f5781612f1b565b9050919050565b7f43616e6e6f7420667265657a6520746865207a65726f20616464726573730000600082015250565b6000612f94601e83612493565b9150612f9f82612f5e565b602082019050919050565b60006020820190508181036000830152612fc381612f87565b9050919050565b7f43616e6e6f7420756e667265657a6520746865207a65726f2061646472657373600082015250565b6000613000602083612493565b915061300b82612fca565b602082019050919050565b6000602082019050818103600083015261302f81612ff3565b9050919050565b600069ffffffffffffffffffff82169050919050565b61305581613036565b811461306057600080fd5b50565b6000815190506130728161304c565b92915050565b6000819050919050565b61308b81613078565b811461309657600080fd5b50565b6000815190506130a881613082565b92915050565b6000815190506130bd81612382565b92915050565b600080600080600060a086880312156130df576130de6121fc565b5b60006130ed88828901613063565b95505060206130fe88828901613099565b945050604061310f888289016130ae565b9350506060613120888289016130ae565b925050608061313188828901613063565b9150509295509295909350565b7f4e487b7100000000000000000000000000000000000000000000000000000000600052603260045260246000fd5b60006040820190506131826000830185612479565b61318f60208301846122ff565b9392505050565b60006131a1826122c1565b91506131ac836122c1565b92508282039050818111156131c4576131c3612e21565b5b9291505056fea26469706673582212209adadafbb213cc5d89440c0166db2afadc4e0f1995787625c76eb033dc5e9f5564736f6c634300081c0033",
  "linkReferences": {},
  "deployedLinkReferences": {}
}